:020000040800F2
:1000000000000220E5370008D9100008DB100008C6
:10001000DD100008DF100008E110000800000000FB
:10002000000000000000000000000000E3100008D5
:10003000E510000800000000E7100008E9100008C3
:1000400035380008353800083538000835380008DC
:1000500035380008353800083538000835380008CC
:1000600035380008353800083538000835380008BC
:1000700035380008353800083538000835380008AC
:10008000353800083538000835380008353800089C
:10009000353800083538000835380008353800088C
:1000A000353800083538000835380008353800087C
:1000B000353800083538000835380008353800086C
:1000C000353800083538000835380008353800085C
:1000D000353800083538000835380008353800084C
:1000E000F5100008353800083538000835380008A4
:1000F0003538000801110008353800083538000887
:10010000353800083538000835380008353800081B
:10011000353800083538000835380008353800080B
:1001200035380008353800083538000835380008FB
:1001300035380008353800083538000835380008EB
:1001400035380008353800083538000835380008DB
:1001500035380008353800083538000835380008CB
:1001600035380008353800083538000835380008BB
:100170003538000835380008353800080000000020
:0801800035380008353800088D
:1001900010B5054C237833B9044B13B10448AFF3C1
:1001A00000800123237010BD7000002000000000BB
:1001B000C446000808B5034B1BB103490348AFF31D
:1001C000008008BD0000000074000020C446000844
:1001D00001F0FF01102A2BDB10F0070F08D010F8F8
:1001E000013B013A8B422DD010F0070F42B3F6D1FC
:1001F000F0B441EA012141EA014122F007047FF015
:1002000000070023F0E80256083C85EA010586EA6B
:10021000010685FA47F5A3FA87F586FA47F6A5FAA7
:1002200087F68EB9EED1F0BC01F0FF0102F00702B3
:1002300032B110F8013B013A83EA010313B1F8D15E
:100240000020704701387047002D06BF354603383F
:10025000073815F0010F07D1013015F4807F02BF78
:10026000013015F4C03F0130F0BC0138704700BFC9
:1002700053B94AB9002908BF00281CBF4FF0FF310D
:100280004FF0FF3000F072B9ADF1080C6DE904CE0B
:1002900000F006F8DDF804E0DDE9022304B0704761
:1002A0002DE9F047089E04468846002B4BD18A4230
:1002B000154667D9B2FA82F24AB1C2F1200701FAB3
:1002C00002F320FA07F7954047EA030894404FEA03
:1002D000154E230CB8FBFEF71FFA85FC0EFB1788A2
:1002E00043EA084307FB0CF1994209D9EB1807F1DF
:1002F000FF3080F01B81994240F21881023F2B446D
:100300005B1AA4B2B3FBFEF00EFB103344EA0344C5
:1003100000FB0CFCA44509D92C1900F1FF3380F037
:100320000781A44540F2048102382C4440EA07408A
:10033000A4EB0C0400271EB1D4400023C6E90043FF
:100340003946BDE8F0878B4209D9002E00F0EB80DA
:100350000027C6E9000138463946BDE8F087B3FA00
:1003600083F7002F47D18B4202D3824200F2FA80FA
:10037000841A61EB030301209846002EE0D0C6E901
:100380000048DDE702B9FFDEB2FA82F2002A40F04F
:100390008F80491B4FEA154E1FFA85F80127B1FBE4
:1003A000FEFC230C0EFB1C1143EA014308FB0CF17D
:1003B000994207D9EB180CF1FF3002D2994200F2B2
:1003C000CD808446591AA3B2B1FBFEF00EFB101487
:1003D00043EA044408FB00F8A04507D92C1900F1B2
:1003E000FF3302D2A04500F2B6801846A4EB080401
:1003F00040EA0C409FE7C7F1200CBB4022FA0CFEFC
:100400004EEA030E01FA07F420FA0CF521FA0CF378
:100410004FEA1E482543B3FBF8F92C0C08FB1933AF
:100420001FFA8EFA44EA034309FB0AF49C4202FADB
:1004300007F200FA07F10BD91EEB030309F1FF30B5
:1004400080F087809C4240F28480A9F102097344C5
:100450001B1BADB2B3FBF8F008FB103345EA0344B5
:1004600000FB0AFAA24508D91EEB040400F1FF3391
:100470006BD2A24569D90238744440EA0940A0FB16
:100480000289A4EB0A044C45C2464B4654D351D0D2
:10049000002E69D0B1EB0A0564EB030404FA0CFCEE
:1004A000FD40FC404CEA0505C6E90054002747E73B
:1004B000C2F1200320FA03F7954001FA02F021FA75
:1004C00003F34FEA154E3843010CB3FBFEF71FFA56
:1004D00085F80EFB173341EA034107FB08F38B4213
:1004E00004FA02F407D9691807F1FF3C2FD28B42B6
:1004F0002DD9023F2944CB1A81B2B3FBFEF00EFB8B
:10050000103341EA034100FB08F38B4207D9691815
:1005100000F1FF3C17D28B4215D902382944C91A81
:1005200040EA07473BE73746304609E70746E7E634
:100530001846FBE64145ABD2B8EB020A69EB0E0266
:1005400001381346A4E76046E9E7184695E7674691
:10055000D1E781467CE702382C4447E7ACF1020C36
:100560002B442FE7384608E73746E9E6704700BFD7
:1005700000238B4221DA10B40BE000BF4FF0604241
:100580001268002AF9D04FF06042147001338B4298
:100590000FDAC45C4FF06042D2F8802E12F0010FE7
:1005A000F4D04FF06042D2F8002E12F0010FEDD0DF
:1005B000E4E718465DF8044B70471846704708B5E5
:1005C00008461146FFF7D4FF08BD000070B5064687
:1005D0000D4614464FF4FA5000F0EAFA00FB04F01E
:1005E000064B83FB00230344C017C0EBE3303368A2
:1005F0003433AD0880B243F8250070BD018000801F
:10060000002308E01A48DA001A44910042184354C3
:10061000184951600133032BF4DD154B164A5A611A
:1006200002211983DA61082119849A6320219987AC
:100630001A644FF48041A3F84410DA658021A3F8CE
:1006400060105A664FF40042A3F8682002F180421D
:1006500002F5C432C3F880204FF48051A3F884100F
:10066000C3F888204FF48062A3F88C20704700BF45
:10067000A00000204C37893D000C024010B5044614
:10068000037C012B0CD0022B15D00022018B40697A
:1006900002F03EFF0022218CE06902F039FF10BD1C
:1006A0000122018B406902F033FF0022218CE069B6
:1006B00002F02EFFF3E70022018B406902F028FFD1
:1006C0000122218CE06902F023FFE8E708B5026807
:1006D0000E4B9A4200D008BD0D4B93F85830002BBA
:1006E000F9D00C4A13780133DBB2137013F0010F09
:1006F00007D0074B022283F858200748FFF7BEFFB8
:10070000E9E7034B012283F85820F6E70020004078
:10071000A00000208C000020E8000020B0F5006F51
:1007200000D0704708B54FF4007100F1804000F52B
:10073000023002F0D9FE20B9044A1368013B13606D
:1007400008BD024A136801331360F9E73001002045
:10075000FEE7000000B595B0002101912C4B1A6C0A
:1007600042F080521A641B6C03F080530193019B8A
:100770000291284B1A6842F480421A601B6803F405
:1007800080430293029B012308934FF48033099323
:1007900002230E934FF480020F92082210924FF41E
:1007A000A872119212930423139308A802F032F94D
:1007B00020BB0F23039302230493002305934FF4DC
:1007C000A05306934FF480530793052103A802F02A
:1007D000DDFBC0B902F0E4FC0F4BA3FB0030800945
:1007E00002F03AFF042002F04DFF002211464FF0C4
:1007F000FF3002F0D5FE15B05DF804FB4FF42F7109
:100800000648FFF7A5FF40F2C9210448FFF7A0FF03
:100810000038024000700040D34D6210DC460008F2
:1008200010B502F079FFFFF795FF00F097F800F0A0
:1008300063F900F0D1F900F003FA00F035FA00F0A6
:1008400045FB00F0BFFB00F0DBFB00F061FA3B4C26
:10085000204600F0EDFFFFF7D3FE002211462046B0
:10086000FFF7B4FE002204212046FFF7AFFE00226E
:1008700008212046FFF7AAFE00220C212046FFF7A0
:10088000A5FE0021204601F0E3FC0421204601F0F2
:10089000DFFC0821204601F0DBFC0C21204601F0A2
:1008A000D7FC2748012380F858304830FFF7E6FE90
:1008B0004FF6FF7208212046FFF788FE00212148ED
:1008C00002F0E6FF204B1A88204B1A8007E002F066
:1008D00049FF1E4B1B88C31AB3F57A6F2BD802F061
:1008E00041FF194B1B88C31A0A2BF0D902F03AFFBB
:1008F000154B1880164B1968164802F0C9FFE6E739
:10090000224608210D48FFF761FE642002F030FF07
:10091000A4F57A74A4B2B4F57A7FF1D8084C002219
:1009200084F8582008210548FFF750FE04F14800DC
:10093000FFF7A4FEFEE74FF6E854ECE75C11002059
:10094000A0000020EC460008340100203601002001
:1009500030010020F0460008704700002DE9F0410A
:100960008CB0002401945D4B1A6B42F010021A63A4
:100970001A6B02F010020192019A02941A6B42F073
:1009800004021A631A6B02F004020292029A0394A0
:100990001A6B42F080021A631A6B02F08002039213
:1009A000039A04941A6B42F001021A631A6B02F064
:1009B00001020492049A05941A6B42F002021A632F
:1009C0001A6B02F002020592059A06941A6B42F025
:1009D00008021A631B6B03F008030693069BDFF8FB
:1009E000148122464CF2AA01404602F091FD3C4F90
:1009F00022464FF4A051384602F08AFD394D224676
:100A00000121284602F084FD4FF2FE53079303268E
:100A10000896099407A9284602F0E8FB4EF62F0332
:100A200007930896099407A9384602F0DFFB49F6B8
:100A30003C1307930896099407A92B4802F0D6FBAC
:100A40004FF2F73307930896099407A9274802F055
:100A5000CDFB4FF4007307930894099407A9284627
:100A600002F0C4FB4FF400630793214B08930994F1
:100A700007A9284602F0BAFB40F65573079308967B
:100A8000099407A9404602F0B1FB4CF2AA03079370
:100A90000126089609940A9407A9404602F0A6FB8D
:100AA0004FF4A0530793089609940A9407A938466F
:100AB00002F09CFB0796089609940A9407A9284619
:100AC00002F094FB22462146282002F069FD2820EE
:100AD00002F0ACFD0CB0BDE8F08100BF0038024070
:100AE00000080240001002400000024000040240E2
:100AF00000001110000C024000B585B01648174BDD
:100B000003604FF48033436000238360036183619B
:100B10000362C362124A8262C3600122C26103633C
:100B2000426100F0E9FB68B90E23009301230193B1
:100B3000002302936946084800F0D4FC38B905B098
:100B40005DF804FB48210748FFF702FEECE752215D
:100B50000448FFF7FDFDF2E71411002000200140DA
:100B60000100000FF846000802680F4B9A4200D0BF
:100B7000704700B587B00021009103F58C335A6CA3
:100B800042F480725A645B6C03F480730093009BA0
:100B90001023019303230293039101A9034802F058
:100BA00025FB07B05DF804FB00200140000802406F
:100BB00010B50446B0F5FA6F05D3054890FBF4F084
:100BC000013880B210BD34210248FFF7C1FDF4E7BF
:100BD00000BD01050847000800B58DB01548164B4B
:100BE0000360002343608360C360036101220392BA
:100BF0000493059206930793089309920A930B9323
:100C000003A901F077F850B900230193029301A9D9
:100C1000084801F093FB38B90DB05DF804FB57218B
:100C20000648FFF795FDEFE75E210448FFF790FDCA
:100C3000F2E700BF1012002000040040084700083F
:100C400000B58DB01548164B0360002343608360E8
:100C5000C3600361012203920493059206930793F4
:100C6000089309920A930B9303A901F043F850B932
:100C700000230193029301A9084801F05FFB38B9F2
:100C80000DB05DF804FB78210648FFF761FDEFE742
:100C90007F210448FFF75CFDF2E700BF98110020B8
:100CA000000800400847000800B58DB01548164BF5
:100CB0000360002343608360C360036101220392E9
:100CC0000493059206930793089309920A930B9352
:100CD00003A901F00FF850B900230193029301A971
:100CE000084801F02BFB38B90DB05DF804FB9921E1
:100CF0000648FFF72DFDEFE7A0210448FFF728FD88
:100D0000F2E700BFD4110020000C004008470008A3
:100D100008B50A480A4B03604AF20F4343600023B8
:100D2000836042F20F72C260036100F0F3FE00B90B
:100D300008BDF2210348FFF70BFDF9E74C12002034
:100D4000002000400847000800B589B003682C4A1D
:100D5000934208D02B4A93421ED02B4A934235D05F
:100D600009B05DF804FB0023009302F50D32116C0D
:100D700041F002011164126C02F002020092009A2A
:100D8000C02203920222049205930693079203A9BC
:100D90001E4802F02BFAE3E70023019302F50C3220
:100DA000116C41F004011164126C02F00402019212
:100DB000019A4FF440520392022204920593069343
:100DC000079203A9124802F011FAC9E7002302931F
:100DD00002F50B32116C41F008011164126C02F043
:100DE00008020292029A03220392022204920593BD
:100DF0000693079203A9054802F0F8F9B0E700BF8F
:100E00000004004000080040000C004000000240C8
:100E1000000C024002680E4B9A4200D0704700B5A9
:100E200083B00021019103F59A335A6C42F002021B
:100E30005A645B6C03F002030193019B0A462D2068
:100E400002F0AEFB2D2002F0F1FB03B05DF804FBD5
:100E50000004014002680E4B9A4200D0704700B572
:100E600083B00021019103F506331A6C42F48072BD
:100E70001A641B6C03F480730193019B0A462D20B6
:100E800002F08EFB2D2002F0D1FB03B05DF804FBD5
:100E90000020004002680B4B9A4200D0704700B51A
:100EA00087B04FF4707301930223029300230393DE
:100EB00004930323059301A9034802F097F907B0AF
:100EC0005DF804FB000401400008024000B591B049
:100ED00039483A4B0360002343602022826042F28B
:100EE0001072C2600361436100F08AFE00283FD1A6
:100EF00000230E930F930EA92F4801F01FFA00282C
:100F00003BD1602307930022089209920A920B9228
:100F10000C920D9207A9284801F008F8002831D159
:100F2000042207A9244801F001F800282FD1082243
:100F300007A9214800F0FAFF70BB0C2207A91E4840
:100F400000F0F4FF68BB0023009301930293039326
:100F500004934FF40052059206936946164801F037
:100F60005FFA18BB1448FFF795FF11B05DF804FB5A
:100F7000B3211348FFF7ECFBBAE7BA211048FFF79B
:100F8000E7FBBEE7C6210E48FFF7E2FBC8E7CB212F
:100F90000B48FFF7DDFBCAE7D0210948FFF7D8FB74
:100FA000CBE7D5210648FFF7D3FBCCE7E121044886
:100FB000FFF7CEFBD6E700BF5C1100200004014024
:100FC0000847000808B50B480B4B03604FF4E133AA
:100FD000436000238360C36003610C22426183612C
:100FE000C36101F083FC00B908BD43210348FFF74A
:100FF000AFFBF9E7C81200200010014018470008B5
:1010000008B50B480B4B03604FF4E13343600023FA
:101010008360C36003610C2242618361C36101F09C
:1010200065FC00B908BD56210348FFF791FBF9E7BD
:1010300088120020004800401847000800B589B019
:101040000368204A934205D01F4A93421ED009B03C
:101050005DF804FB002301931C4B5A6C42F0100214
:101060005A645B6C03F010030193019B4FF4C0635F
:101070000393022304930123059303230693072379
:10108000079303A9124802F0B1F8E0E700230293A6
:101090000E4B1A6C42F480221A641B6C03F48023FA
:1010A0000293029B4FF440630393022304930123B2
:1010B0000593032306930723079303A9054802F02A
:1010C00095F8C4E700100140004800400038024095
:1010D00000000240000402407047FEE7FEE7FEE722
:1010E000FEE770477047704708B502F02FFB02F02B
:1010F000E8FA08BD08B54FF4006002F025FA08BD13
:1011000008B5034800F0E8FB024800F0E5FB08BD25
:101110005C1100204C12002010B582B00024009415
:10112000214B5A6C42F480425A645A6C02F4804259
:101130000092009A01941A6C42F080521A641B6C5F
:1011400003F080530193019B032002F00BFA224627
:1011500021466FF00B0002F023FA224621466FF081
:101160000A0002F01DFA224621466FF0090002F043
:1011700017FA224621466FF0040002F011FA2246C7
:1011800021466FF0030002F00BFA224621466FF071
:10119000010002F005FA224621464FF0FF3002F02E
:1011A000FFF902B010BD00BF0038024010B5044680
:1011B0004E4B5A6822F440325A605A6841680A43DA
:1011C0005A600268536823F480735360026853685E
:1011D000016943EA012353600268536823F04073B6
:1011E00053600268536881680B43536002689368D8
:1011F00023F40063936002689368C1680B439360B3
:10120000826A3B4B9A4259D00268936823F070631C
:10121000936002689368816A0B43936002689368E5
:1012200023F04053936002689368C16A0B43936054
:101230002268936823F00203936022689368A1698F
:1012400043EA41039360236A002B48D0636A013B61
:10125000072B3ED82268536843F40063536022682A
:10126000536823F46043536021684B68626A013A13
:1012700043EA42334B602268D36A23F47003D3629B
:101280002168CB6AE269013A43EA0253CB622268E1
:10129000936823F40073936022689368216B43EA98
:1012A000412393602268936823F4806393602268EB
:1012B0009368616943EA8123936010BD0268936873
:1012C00023F0706393600268936823F04053936047
:1012D000AEE740F227610748FFF73EFBBAE7226816
:1012E000536823F400635360C5E700BF0023014047
:1012F0000100000F2C470008002800F0EB8010B51B
:1013000004460368744A93420CD002F580729342FB
:1013100008D002F58072934204D040F20B116F485E
:10132000FFF71AFB636843B1B3F5803F05D0B3F50F
:10133000003F02D0B3F5403F6FD1A36843B1B3F192
:10134000807F05D0B3F1007F02D0B3F1407F6AD136
:101350002369012B6DD8A369012B70D8A36A7BB3D5
:10136000B3F1807F2CD0B3F1007F29D0B3F1407F5F
:1013700026D0B3F1806F23D0B3F1A06F20D0B3F1AA
:10138000C06F1DD0B3F1E06F1AD0B3F1006F17D06A
:10139000B3F1106F14D0B3F1206F11D0B3F1306FEF
:1013A0000ED0B3F1406F0BD0B3F1506F08D0B3F152
:1013B000606F05D0B3F1706F02D0494A934244D1B7
:1013C000E36813B1B3F5006F45D1E369013B0F2B1F
:1013D00047D8236B012B4AD86369022B4DD8236A67
:1013E000012B50D8A26A3E4B9A420AD0E36A43B11D
:1013F000B3F1805F05D0B3F1005F02D0B3F1405F7D
:1014000047D1236C002B4AD0236C13F0100F4DD022
:101410000120002384F83C3010BD4FF486712F4822
:10142000FFF79AFA89E740F20D112C48FFF794FA7A
:101430008EE74FF487712948FFF78EFA8BE740F269
:101440000F112648FFF788FA88E74FF48871234880
:10145000FFF782FAB4E740F211112048FFF77CFA57
:10146000B3E74FF489711D48FFF776FAB1E740F210
:1014700013111A48FFF770FAAEE74FF48A71174854
:10148000FFF76AFAABE740F215111448FFF764FA68
:10149000A8E740F219111148FFF75EFAB1E763645B
:1014A00084F83C302046FFF75FFBADE7236C23F464
:1014B000885323F0020343F0020323642046FFF71E
:1014C00075FE00206064236C23F0030343F00103E6
:1014D00023649EE701207047002001402C4700084C
:1014E0000100000F30B583B005460C460023019380
:1014F0000B68122B4ED86368013B0F2B50D8A368A2
:10150000072B53D895F83C30012B00F0C7800123FE
:1015100085F83C302368092B4ED92868C2689BB2F5
:1015200003EB43031E3B072101FA03F322EA030303
:10153000C3602868C268A168238803EB43031E3B8D
:1015400001FA03F31343C3606368062B4AD8286883
:10155000426B03EB8303053B1F2101FA03F322EAED
:10156000030343632868426B636803EB8303053B13
:10157000218801FA03F3134343632A68484B9A42D4
:1015800060D02A68464B9A4265D0002085F83C001E
:1015900003B030BD40F215514248FFF7DDF9AAE72C
:1015A00040F216513F48FFF7D7F9A8E740F217512C
:1015B0003C48FFF7D1F9A5E7286802699BB203EB25
:1015C0004303072101FA03F322EA030303612868B6
:1015D0000269A168238803EB430301FA03F3134371
:1015E0000361B1E70C2B16D82868026B03EB830369
:1015F000233B1F2101FA03F322EA03030363286854
:10160000026B636803EB8303233B218801FA03F336
:1016100013430363B1E72868C26A03EB8303413BCA
:101620001F2101FA03F322EA0303C3622868C26A96
:10163000636803EB8303413B218801FA03F31343FF
:10164000C3629AE72368122B9BD1174A536843F46D
:101650008003536095E72368103B012B95D8124A0D
:10166000536843F4000353602368102B8DD10F4B54
:101670001B6802F1467202F52E3202F28332A2FB9F
:1016800003239B0C03EB83035A00019202E0019BAE
:10169000013B0193019B002BF9D176E7022077E70C
:1016A000002001402C4700080023014008000020D2
:1016B00070B4036A23F001030362036A4268846919
:1016C00024F073040D6845EA040623F002048B68D5
:1016D00023430C4DA84202D00B4CA0420BD123F067
:1016E0000803CD682B4323F0040322F440724D69B4
:1016F00015438A692A43426086614A6842630362ED
:1017000070BC704700000140000401402DE9F04129
:1017100004460E46036A23F480730362056A476831
:10172000C36923F073080B6843EA080825F40075C1
:101730008B6845EA03251F4B984203D003F580636D
:1017400098421CD1F3680BB1082B20D1B369B3F5D3
:10175000007F00D00BBB7369B3F5807F00D013BB53
:1017600025F40065F36845EA032525F4806527F430
:101770004057736947EA0317B36947EA031767607D
:10178000C4F81C807368E3632562BDE8F08141F210
:1017900017310948FFF7E0F8D8E741F21831064859
:1017A000FFF7DAF8D7E741F219310348FFF7D4F829
:1017B000D6E700BF00000140644700082DE9F04172
:1017C00004460F46036A23F480530362056AD0F887
:1017D0000480C66926F4E6460B6846EA032625F42B
:1017E00000558B6845EA03350F4B984203D003F54B
:1017F0008063984209D17B69B3F5807F00D063B9DB
:1018000028F480487B6948EA8318C4F80480E661BC
:101810007B6823642562BDE8F08141F25D310348B5
:10182000FFF79AF8ECE700BF0000014064470008AA
:1018300010B504460368244A934237D0B3F1804F71
:1018400034D0A2F57C42934230D002F580629342BC
:101850002CD002F58062934228D002F58062934238
:1018600024D002F58062934220D002F57042934268
:101870001CD002F57052934218D002F58062934258
:1018800014D002F58062934210D0A2F598329342B0
:101890000CD002F58062934208D002F58062934238
:1018A00004D04FF499710948FFF756F8022384F8E1
:1018B00039302268136843F001031360012384F870
:1018C0003930002010BD00BF00000140644700080F
:1018D000704770477047704710B5044603681A692F
:1018E00012F0020F11D0DA6812F0020F0DD06FF073
:1018F00002021A610123037603689B6913F0030F48
:1019000070D0FFF7E6FF0023237623681A6912F0F0
:10191000040F12D0DA6812F0040F0ED06FF0040238
:101920001A610223237623689B6913F4407F5FD0FA
:101930002046FFF7CEFF0023237623681A6912F0B2
:10194000080F12D0DA6812F0080F0ED06FF00802FC
:101950001A61042323762368DB6913F0030F4ED04A
:101960002046FFF7B6FF0023237623681A6912F09A
:10197000100F12D0DA6812F0100F0ED06FF01002B4
:101980001A61082323762368DB6913F4407F3DD076
:101990002046FFF79EFF0023237623681A6912F082
:1019A000010F03D0DA6812F0010F36D123681A69EB
:1019B00012F0800F03D0DA6812F0800F34D1236860
:1019C0001A6912F0400F03D0DA6812F0400F32D1DA
:1019D00023681A6912F0200F03D0DA6812F0200F82
:1019E00030D110BDFFF774FF2046FFF773FF8AE781
:1019F0002046FFF76DFF2046FFF76CFF9BE7204670
:101A0000FFF766FF2046FFF765FFACE72046FFF7CC
:101A10005FFF2046FFF75EFFBDE76FF001021A612E
:101A20002046FEF753FEC1E76FF080021A612046A0
:101A300000F08BFDC3E76FF040021A612046FFF70C
:101A40004AFFC5E76FF020021A61204600F07CFDD6
:101A5000C7E7000003682E4A904212D0B0F1804FD1
:101A60000FD0A2F57C4290420BD002F580629042EA
:101A700007D002F58062904203D002F5784290428E
:101A800003D123F070034A681343214A90422AD0BD
:101A9000B0F1804F27D0A2F57C42904223D002F5CE
:101AA000806290421FD002F5806290421BD002F506
:101AB0007842904217D002F57052904213D002F54E
:101AC000806290420FD002F5806290420BD0A2F566
:101AD0009832904207D002F58062904203D002F51E
:101AE0008062904203D123F44073CA6813430360B9
:101AF0008B68C3620B688362054B984203D003F581
:101B00008063984201D10B690363012343617047ED
:101B10000000014000286DD010B504460368364A25
:101B2000934236D0B3F1804F33D0A2F57C4293423A
:101B30002FD002F5806293422BD002F5806293424F
:101B400027D002F58062934223D002F5806293424F
:101B50001FD002F5704293421BD002F5705293429F
:101B600017D002F58062934213D002F5806293424F
:101B70000FD0A2F5983293420BD002F580629342C7
:101B800007D002F58062934203D0D7211B48FEF7AD
:101B9000E3FEA3683BB1102B05D0202B03D0402BD4
:101BA00001D0602B16D123692BB1B3F5807F02D011
:101BB000B3F5007F13D194F83930ABB1022384F828
:101BC0003930211D2068FFF745FF012384F83930A3
:101BD000002010BDD8210948FEF7BEFEE3E7D92159
:101BE0000648FEF7B9FEE6E784F838302046FFF7EE
:101BF00031F9E3E701207047000001406447000825
:101C0000002870D010B504460368384A934237D094
:101C1000B3F1804F34D0A2F57C42934230D002F52C
:101C2000806293422CD002F58062934228D002F564
:101C30008062934224D002F58062934220D002F564
:101C4000704293421CD002F57052934218D002F5B4
:101C50008062934214D002F58062934210D0A2F5C4
:101C6000983293420CD002F58062934208D002F57C
:101C70008062934204D040F2F1311D48FEF76CFEC1
:101C8000A3683BB1102B05D0202B03D0402B01D0F3
:101C9000602B16D123692BB1B3F5807F02D0B3F549
:101CA000007F14D194F83930BBB1022384F8393065
:101CB000211D2068FFF7CEFE012384F83930002073
:101CC00010BD40F2F2310A48FEF746FEE2E740F26C
:101CD000F3310748FEF740FEE4E784F83830204649
:101CE000FFF798F8E1E70120704700BF00000140CE
:101CF00064470008002800F0D180F8B505460C467E
:101D00000368674A93421FD0B3F1804F1CD0A2F5FD
:101D10007C42934218D002F58062934214D002F5BF
:101D20008062934210D002F5784293420CD002F5C3
:101D30007052934208D0A2F59432934204D040F6F8
:101D4000FA015848FEF708FE2368013B022B69D8C8
:101D5000A368013B022B6BD8A369013B022B6DD812
:101D600063681BB1022B01D00A2B6DD163691BB1D3
:101D7000022B01D00A2B6DD1E3682BB1042B03D0C9
:101D8000082B01D00C2B6BD1E3692BB1042B03D0B2
:101D9000082B01D00C2B69D123690F2B6CD8236A37
:101DA0000F2B6FD895F83930002B71D0022385F8AE
:101DB0003930294651F8042B936823F007039360C8
:101DC0002868FFF747FE29688A688E690F6A2068CD
:101DD000104326F4407626F00306A268A36942EA7F
:101DE0000323334323F47C4323F0FC03E668E269D6
:101DF00046EA02261E43226A1303226943EA0213BB
:101E0000334327F0AA076268646942EA04123A433E
:101E1000886029688B612B681A62012385F8393044
:101E20000020F8BD40F6FB011E48FEF795FD8FE748
:101E300040F6FC011B48FEF78FFD8DE740F6FD01E3
:101E40001848FEF789FD8BE740F6FE011548FEF7BE
:101E500083FD8BE740F6FF011248FEF77DFD8BE71F
:101E60004FF410610F48FEF777FD8DE740F6011142
:101E70000C48FEF771FD8FE740F602110948FEF7A6
:101E80006BFD8CE740F603110648FEF765FD89E718
:101E900085F838302846FEF757FF87E7012070475E
:101EA00000000140644700082DE9F04104460E4659
:101EB000036A23F010030362056AD0F8048087697F
:101EC00027F4E6470B6847EA032725F020058B68CF
:101ED00045EA0315134B984203D003F580639842FB
:101EE00012D1F3680BB1082B16D125F08005F368E9
:101EF00045EA031525F0400528F44068736948EA6F
:101F00008308B36948EA8308C4F80480A76173684A
:101F1000A3632562BDE8F08141F205210248FEF786
:101F20001BFDE2E7000001406447000890F83830EC
:101F3000012B00F0318170B516460D460446012391
:101F400080F838303AB1042A05D0082A03D00C2A88
:101F500001D0182A20D12B68602B01D0702B21D101
:101F6000AB680BB1022B23D12B690BB1042B25D10C
:101F7000022384F839300C2E6DD8DFE816F02500E6
:101F80006C006C006C0073006C006C006C00AC00AA
:101F90006C006C006C00DC0040F648417F48FEF7A6
:101FA000DBFCD8E740F649417C48FEF7D5FCD7E793
:101FB00040F64A417948FEF7CFFCD5E740F64B4161
:101FC0007648FEF7C9FCD3E72368754A93422FD0C1
:101FD000B3F1804F2CD0A2F57C42934228D002F579
:101FE0008062934224D002F58062934220D002F5B1
:101FF000784293421CD002F57052934218D002F5F9
:102000008062934214D002F58062934210D0A2F510
:10201000983293420CD002F58062934208D002F5C8
:102020008062934204D040F653415C48FEF794FC32
:1020300029462068FFF73CFB2268936943F00803B8
:1020400093612268936923F0040393612268936982
:1020500029690B439361012384F83930002084F807
:10206000380070BD23684E4A93421FD0B3F1804FB1
:102070001CD0A2F57C42934218D002F580629342B4
:1020800014D002F58062934210D002F57842934258
:102090000CD002F57052934208D0A2F594329342CC
:1020A00004D040F662413D48FEF756FC29462068C0
:1020B000FFF7FAFE2268936943F400639361226894
:1020C000936923F48063936122689369296943EAE1
:1020D00001239361BFE72368314A934217D0B3F1DC
:1020E000804F14D0A2F57C42934210D002F580625A
:1020F00093420CD002F58062934208D002F57842F8
:10210000934204D040F671412448FEF725FC29464D
:102110002068FFF7FBFA2268D36943F00803D36114
:102120002268D36923F00403D3612268D369296943
:102130000B43D3618FE72368194A934217D0B3F159
:10214000804F14D0A2F57C42934210D002F58062F9
:1021500093420CD002F58062934208D002F5784297
:10216000934204D04FF448610C48FEF7F5FB294632
:102170002068FFF723FB2268D36943F40063D3612F
:102180002268D36923F48063D3612268D369296903
:1021900043EA0123D3615EE70220704764470008E9
:1021A0000000014070B504460D461646264B984285
:1021B0002FD0B0F1804F2CD0A3F57C43984228D08B
:1021C00003F58063984224D003F58063984220D0C1
:1021D00003F5784398421CD003F57053984218D009
:1021E00003F58063984214D003F58063984210D0C1
:1021F000A3F5983398420CD003F58063984208D039
:1022000003F58063984204D041F288210F48FEF71D
:10221000A3FB65B1042D0AD0082D08D00C2D06D0E3
:10222000182D04D041F289210848FEF795FB0123BF
:1022300003FA05F2236A23EA02032362236A06FAF9
:1022400005F51D43256270BD00000140644700088C
:1022500038B504460D460368304A934212D0B3F1B4
:10226000804F0FD0A2F57C4293420BD002F58062E2
:10227000934207D002F58062934203D002F5784280
:10228000934206D1E5B1042D1AD0082D18D00C2D9B
:1022900016D0234A93422BD0224A93422DD0224A71
:1022A00093422DD0214A93422DD0214A93422FD0E0
:1022B000204A93422FD040F252411F48FEF74CFB78
:1022C000012229462068FFF76DFF2368134A9342D5
:1022D00003D002F58062934203D15A6C42F400426B
:1022E0005A642268136843F001031360002038BD6C
:1022F000002DE5D0042DCFD1E2E7002DE0D0CEE7D0
:10230000002DDDD0CEE7002DDAD0042DCDD1D7E7DA
:10231000002DD5D0CCE7002DD2D0CCE70000014075
:1023200000400140004401400048014000180040C6
:10233000001C0040002000406447000838B50446F7
:102340000D460368344A93421FD0B3F1804F1CD02E
:10235000A2F57C42934218D002F58062934214D0D9
:1023600002F58062934210D002F5806293420CD055
:1023700002F58062934208D002F57042934204D085
:1023800040F24A612548FEF7E7FA2B686BB1102B43
:102390000BD0202B09D0302B07D0402B05D0502B51
:1023A00003D0602B01D0702B27D16B68802B00D01D
:1023B0004BBB94F83830012B2BD0012284F8382005
:1023C000022384F8393021684B6823F070034B6096
:1023D00021684B68286803434B6021688B6823F0B1
:1023E00080038B6021688B68686803438B6084F886
:1023F0003920002084F8380038BD40F24B6107488E
:10240000FEF7AAFAD1E740F24C610448FEF7A4FABD
:10241000CFE70220F0E700BF000001409C47000822
:1024200038B504460D460368454A934208D002F584
:102430008062934204D040F272614248FEF78CFA07
:102440002B68B3F5006F01D0002B4DD16B68B3F54D
:10245000806F01D0002B4DD1AB6843B1B3F5807FC5
:1024600005D0B3F5007F02D0B3F5407F48D1EB68CB
:10247000FF2B4BD82B69B3F5805F01D0002B4BD1DC
:102480006B6913B1B3F5005F4CD1AB69B3F5804F05
:1024900001D0002B4CD194F83830012B4ED00123C1
:1024A00084F83830EB6823F44073AA68134323F4AC
:1024B00080636A68134323F400632A68134323F498
:1024C00080532A69134323F400536A69134323F4A6
:1024D0008043AA69134323F40043134322685364DF
:1024E000002084F8380038BD40F273611548FEF7CB
:1024F00033FAABE740F274611248FEF72DFAABE70E
:1025000040F275610F48FEF727FAB0E740F27661B6
:102510000C48FEF721FAADE740F277610948FEF773
:102520001BFAADE74FF4CF610648FEF715FAACE7AA
:1025300040F279610348FEF70FFAACE70220D2E7D8
:10254000000001409C470008704770472DE9F843A0
:1025500004464268B44B9A4200F29C80E3681BB187
:10256000B3F5005F40F09C80236933B1B3F5806F11
:1025700003D0B3F5C06F40F0998063694FF6F372F2
:10258000134200D123B940F68811A848FEF7E4F9B8
:1025900021680A6922F44052E36813430B61216801
:1025A000CA6822F4164222F00C02A3682069034391
:1025B00060690343E06903431343CB6021684A69C0
:1025C00022F44072A36913434B61E369B3F5004FF2
:1025D00072D02368964A934200F02E8102F5806201
:1025E000934200F0298100F0E1FD00EB800000EB58
:1025F00080006568AD00B0FBF5F58E4FA7FB053593
:102600006D092E0100F0D2FD00EB800000EB800090
:102610006568AD00B0FBF5F900F0C8FD00EB800087
:1026200000EB80006568AD00B0FBF5F5A7FB053554
:102630006D094FF0640808FB15952D013235A7FB95
:1026400005356D0905F0F005354400F0AFFD00EBF0
:10265000800000EB80006668B600B0FBF6F600F084
:10266000A5FD00EB800000EB800063689B00B0FBE1
:10267000F3F0A7FB0030400908FB10684FEA081888
:1026800008F13208A7FB0837C7F3431723682F4424
:102690009F6027E140F685116448FEF75DF95DE72C
:1026A00040F686116148FEF757F95DE740F687115D
:1026B0005E48FEF751F960E723685D4A93425BD0BC
:1026C00002F58062934257D000F070FD00EB80006D
:1026D00000EB800065686D00B0FBF5F5554FA7FB7A
:1026E00005356D092E0100F061FD00EB800000EB67
:1026F000800065686D00B0FBF5F900F057FD00EB58
:10270000800000EB800065686D00B0FBF5F5A7FB6D
:1027100005356D094FF0640808FB1595ED0032355D
:10272000A7FB05356D096D0005F4F875354400F01B
:102730003DFD00EB800000EB800066687600B0FB9A
:10274000F6F600F033FD00EB800000EB80006368DC
:102750005B00B0FBF3F3A7FB03235B0908FB1368E3
:102760004FEAC80808F13208A7FB0837C7F3421739
:1027700023682F449F60B5E000F028FD00EB800047
:1027800000EB800065686D00B0FBF5F5294FA7FBF5
:1027900005356D092E0100F019FD00EB800000EBFE
:1027A000800065686D00B0FBF5F900F00FFD00EBEF
:1027B000800000EB800065686D00B0FBF5F5A7FBBD
:1027C00005356D094FF0640808FB1595ED003235AD
:1027D000A7FB05356D096D0005F4F875354400F06B
:1027E000F5FC00EB800000EB800066687600B0FB33
:1027F000F6F600F0EBFC00EB800000EB8000636875
:102800005B00B0FBF3F3A7FB03235B0908FB136832
:102810004FEAC80808F13208A7FB0837C7F3421788
:1028200023682F449F605DE0A037A000D4470008D4
:10283000001001401F85EB5100F0C8FC00EB800048
:1028400000EB80006568AD00B0FBF5F5264FA7FBF7
:1028500005356D092E0100F0B9FC00EB800000EB9E
:1028600080006568AD00B0FBF5F900F0AFFC00EB4F
:10287000800000EB80006568AD00B0FBF5F5A7FBBC
:1028800005356D094FF0640808FB15952D013235AB
:10289000A7FB05356D0905F0F005354400F096FC01
:1028A00000EB800000EB80006668B600B0FBF6F637
:1028B00000F08CFC00EB800000EB800063689B0064
:1028C000B0FBF3F0A7FB0030400908FB10684FEAAB
:1028D000081808F13208A7FB0837C7F34317236825
:1028E0002F449F60BDE8F8831F85EB51002800F05E
:1028F0008B8010B504468369002B55D00368434A8A
:10290000934210D0A2F54C4293420CD002F5806263
:10291000934208D002F54C42934204D04FF48071A8
:102920003B48FEF719F8A36943B1B3F5807F05D0A2
:10293000B3F5007F02D0B3F5407F2FD1A36813B168
:10294000B3F5805F4ED1E36913B1B3F5004F4FD1BA
:1029500094F83930002B51D0242384F83930226880
:10296000D36823F40053D3602046FFF7EFFD2268BD
:10297000136923F4904313612268536923F02A03F7
:1029800053612268D36843F40053D3600020E063AE
:10299000202384F8393084F83A3010BD40F2011118
:1029A0001B48FDF7D9FFC9E70368184A9342C5D011
:1029B000A2F54C429342C1D002F580629342BDD051
:1029C00002F580629342B9D002F580629342B5D09D
:1029D00002F544429342B1D040F205110C48FDF794
:1029E000BBFFABE740F207110948FDF7B5FFAAE7C7
:1029F0004FF484710648FDF7AFFFA9E784F838303B
:102A00002046FEF71BFBA7E701207047001001409E
:102A1000D4470008002800F03C8270B582B004461C
:102A200003680F2B39D8236813F0010F4DD063686A
:102A30002BB1B3F5803F02D0B3F5A02F32D1A54B17
:102A40009B6803F00C03042B36D0A24B9B6803F069
:102A50000C03082B2BD06368B3F5803F5FD0B3F530
:102A6000A02F62D09B4B1A6822F480321A601A6839
:102A700022F480221A606368002B60D000F072FE9E
:102A80000546944B1B6813F4003F1ED100F06AFE0C
:102A9000401B6428F5D9032000E2F8218E48FDF799
:102AA0005BFFC0E7FD218C48FDF756FFC7E7894B68
:102AB0005B6813F4800FCED0864B1B6813F4003F85
:102AC00003D06368002B00F0E681236813F0020F47
:102AD00067D0E368012B41D823691F2B44D87D4B75
:102AE0009B6813F00C0F4AD07A4B9B6803F00C03E1
:102AF000082B3FD0E368002B77D0784B01221A6077
:102B000000F030FE0546734B1B6813F0020F63D1D3
:102B100000F028FE401B0228F5D90320BEE16D4AD3
:102B2000136843F480331360A5E76A4B1A6842F4D4
:102B300080221A601A6842F480321A609BE700F023
:102B400011FE0546634B1B6813F4003FBDD000F037
:102B500009FE401B6428F5D903209FE140F22F11A4
:102B60005D48FDF7F9FEB7E74FF498715A48FDF755
:102B7000F3FEB4E7574B5B6813F4800FBAD1554BA3
:102B80001B6813F0020F04D0E368012B01D0012071
:102B900084E1504A136823F0F803216943EAC10332
:102BA0001360236813F0080F49D06369012B2ED8F6
:102BB000636993B34A4B01221A6000F0D3FD0546C6
:102BC000444B5B6F13F0020F39D100F0CBFD401B7B
:102BD0000228F5D9032061E13E4A136823F0F80387
:102BE000216943EAC1031360DBE73C4B00221A6012
:102BF00000F0B8FD0546374B1B6813F0020FD0D02C
:102C000000F0B0FD401B0228F5D9032046E14FF447
:102C1000B8713148FDF7A0FECAE7314B00221A60B7
:102C200000F0A0FD05462B4B5B6F13F0020F06D0A2
:102C300000F098FD401B0228F5D903202EE12368FF
:102C400013F0040F00F08780A368012B01D9052B36
:102C500038D1204B1B6C13F0805F39D100230193D6
:102C60001C4B1A6C42F080521A641B6C03F08053A8
:102C70000193019B01251B4B1B6813F4807F33D00C
:102C8000A368012B44D0052B48D0124B1A6F22F0B9
:102C900001021A671A6F22F004021A67A368002B58
:102CA00046D000F05FFD06460A4B1B6F13F0020F83
:102CB0004FD100F057FD801B41F288339842F3D981
:102CC0000320EBE04FF4CE710348FDF745FEC0E76B
:102CD0000025D0E7003802400C48000800004742B9
:102CE000800E4742007000406E4A136843F48073C0
:102CF000136000F037FD06466A4B1B6813F4807FB3
:102D0000BED100F02FFD801B0228F5D90320C5E0BD
:102D1000654A136F43F001031367BFE7624B1A6FF5
:102D200042F004021A671A6F42F001021A67B5E70F
:102D300000F018FD06465C4B1B6F13F0020F08D025
:102D400000F010FD801B41F288339842F3D9032034
:102D5000A4E0002D3BD1A369022B3ED8A369002B30
:102D600000F09B80504A926802F00C02082A00F0A2
:102D70009780022B79D1E36913B1B3F5800F32D17B
:102D8000236A3F2B35D8636A323BB3F5BF7F36D811
:102D9000A36A022B05D0042B03D0062B01D0082BED
:102DA00033D1E36A023B0D2B35D8404B00221A6029
:102DB00000F0D8FC05463C4B1B6813F0007F30D078
:102DC00000F0D0FC401B0228F5D9032066E0364A0B
:102DD000136C23F080531364BDE740F2DF113448D5
:102DE000FDF7BAFDBAE74FF4F4713148FDF7B4FDD1
:102DF000C6E740F2E9112E48FDF7AEFDC3E74FF4F8
:102E0000F5712B48FDF7A8FDC2E740F2EB11284809
:102E1000FDF7A2FDC5E74FF4F6712548FDF79CFDCF
:102E2000C3E7E369226A1343626A43EA8213A26A30
:102E30005208013A43EA0243E26A43EA02631A4A49
:102E400053601A4B01221A6000F08CFC0446164BAA
:102E50001B6813F0007F06D100F084FC001B0228E1
:102E6000F5D903201AE0002018E0104B00221A6068
:102E700000F078FC04460C4B1B6813F0007F06D072
:102E800000F070FC001B0228F5D9032006E00020AA
:102E900004E001207047012000E0002002B070BD76
:102EA0000120FBE70070004000380240600047420C
:102EB0000C480008324B9B6803F00C03042B5CD0D9
:102EC000082B01D02F4870472DE9F04B2C4B5A6846
:102ED00002F03F025B6813F4800F2BD0284B5B6835
:102EE000C3F388131E4600275C010025E41A65EB36
:102EF0000705A90141EA9461A001001B61EB0501EE
:102F0000CB0043EA5073C400A01943EB07014B0206
:102F100043EAD0534402204619460023FDF7A8F99E
:102F2000174B5B68C3F3014301335B00B0FBF3F065
:102F3000BDE8F08B124B5B68C3F388131E46002775
:102F40005C010025E41A65EB0705A90141EA9461DB
:102F5000A001001B61EB0501CB0043EA5073C400E4
:102F6000A01943EB07018B0243EA905384022046E9
:102F700019460023FDF77CF9D2E70348704700BFEC
:102F8000003802400024F40000127A00002800F00B
:102F9000F98070B504460D460368013B0E2B11D82D
:102FA000072D15D8794B1B6803F00F03AB4215D2E0
:102FB000EBB2764A1370136803F00F03AB420DD0E7
:102FC000012070BD4FF414717148FDF7C5FCE7E7AF
:102FD00040F251216E48FDF7BFFCE3E7236813F090
:102FE000020F29D013F0040F04D06A4A936843F407
:102FF000E0539360236813F0080F04D0654A936888
:1030000043F460439360A3687BB1802B0DD0902B79
:103010000BD0A02B09D0B02B07D0C02B05D0D02BC4
:1030200003D0E02B01D0F02B33D15A4A936823F020
:10303000F003A1680B439360236813F0010F42D0A3
:103040006368032B2BD86368012B2ED09A1E012AAC
:1030500032D9504A126812F0020F00F095804D49A3
:103060008A6822F0030213438B6000F07BFB064664
:10307000484B9B6803F00C036268B3EB820F22D0CD
:1030800000F070FB801B41F288339842F0D9032096
:1030900097E74FF41D713E48FDF75EFCC5E740F22F
:1030A0007B213B48FDF758FCCDE73A4A126812F401
:1030B000003FD4D1012084E7364A126812F0007F25
:1030C000CDD101207DE7314B1B6803F00F03AB42EC
:1030D00009D9EAB22D4B1A701B6803F00F03AB42FB
:1030E00001D001206DE7236813F0040F14D0E368CA
:1030F0005BB1B3F5805F08D0B3F5A05F05D0B3F541
:10310000C05F02D0B3F5E05F30D1224A936823F468
:10311000E053E1680B439360236813F0080F15D068
:1031200023695BB1B3F5805F08D0B3F5A05F05D02C
:10313000B3F5C05F02D0B3F5E05F1DD1154A9368C7
:1031400023F46043216943EAC1039360FFF7B2FEB1
:10315000104B9B68C3F303130F4AD35CD8400F4B4B
:103160001860002000F0B2FA00202AE740F2B921EE
:103170000748FDF7F1FBC8E74FF430710448FDF74D
:10318000EBFBDBE70120704701201AE7003C02401F
:103190000C48000800380240B4480008080000202D
:1031A000014B1868704700BF0800002008B5FFF702
:1031B000F7FF044B9B68C3F38223034AD35CD840D8
:1031C00008BD00BF00380240C448000808B5FFF73A
:1031D000E7FF044B9B68C3F34233034AD35CD840F8
:1031E00008BD00BF00380240C44800082DE9F04780
:1031F00082B080460E46B64B984223D003F58063DA
:1032000098421FD003F5806398421BD003F580637A
:10321000984217D003F58063984213D003F580637A
:1032200098420FD003F5806398420BD003F580637A
:10323000984207D003F58063984203D0C321A54884
:10324000FDF78AFB33689AB212B11B0C1B041BB149
:10325000C421A048FDF780FB7368012B1ED9112BF8
:103260001CD0022B1AD0122B18D09B4A934215D097
:1032700002F58012934211D002F5801293420DD0D4
:10328000A2F5F812934209D002F58012934205D0BC
:1032900002F58012934201D0032B04D1B368022BB4
:1032A00006D8002445E0C5218A48FDF755FBF5E71F
:1032B000C6218848FDF750FBF3E7EA218548FDF772
:1032C0004BFB96E0072300E000238B4003430232D0
:1032D000824941F82230824B1A68FB4303EA02011B
:1032E000706810F4803F01D047EA02017C4A116007
:1032F000526803EA0201706810F4003F01D047EA07
:103300000201774A5160926803EA0201706810F482
:10331000801F01D047EA0201714A9160D2681340D0
:10332000716811F4001F01D047EA02036C4AD360B0
:1033300001340F2C00F2C9800125A54037682F40C9
:10334000BD42F5D17368022B01D0122B31D1336904
:10335000FBB1092B1DD0012B1BD0022B19D0032B45
:1033600017D0042B15D0052B13D0062B11D0072B0B
:103370000FD0082B0DD00A2B0BD00B2B09D00C2B08
:1033800007D00D2B05D00F2B03D0D7215148FDF7C7
:10339000E3FAE208083258F8220004F00703990023
:1033A0000F238B4020EA030033698B40034348F826
:1033B0002230D8F800204FEA440A4FF0030909FAF6
:1033C0000AF96FEA090909EA0202736803F00303C4
:1033D00003FA0AF31343C8F8003073685A1E012A2F
:1033E00003D9112B01D0122B18D1F368032B3FF610
:1033F00064AFD8F8082009EA0202F36803FA0AF376
:103400001343C8F80830D8F8042022EA050273688C
:10341000C3F30015A5401543C8F80450D8F80C3084
:1034200009EA0309B36803FA0AF343EA0903C8F88F
:103430000C30736813F0805F3FF47AAF0023019380
:10344000284B5A6C42F480425A645B6C03F480430C
:103450000193019BA208911C204B53F8210004F01A
:10346000030399000F238B4020EA0300184B984573
:103470003FF42AAF03F5806398451AD003F58063C3
:10348000984518D003F58063984516D003F58063FE
:10349000984514D003F58063984512D003F58063F6
:1034A000984510D003F5806398453FF40BAF08238F
:1034B0000BE7012309E7022307E7032305E70423BA
:1034C00003E7052301E70623FFE602B0BDE8F08726
:1034D000000002404448000800001110003801407C
:1034E000003C01400038024038B505460C4621B189
:1034F0002B691C4207D1002038BD4FF4C771034827
:10350000FDF72AFAF4E70120F6E700BF4448000877
:1035100070B5064615460C4629B1012D09D875B976
:103520002404B46170BD40F2AF110648FDF714FAEF
:10353000F3E74FF4D8710348FDF70EFAEFE7B461F3
:10354000F0E700BF4448000808B5054B5B6903423B
:1035500000D108BD024B5861FDF7E0F8F9E700BF64
:10356000003C014010B50446C31E042B0FD80A4A84
:10357000D36823F4E0631B041B0C240204F4E0640E
:10358000234343F0BF6343F40033D36010BDA22153
:103590000248FDF7E1F9EAE700ED00E07C480008A9
:1035A00070B505460C4616460F2A25D80F2C28D88C
:1035B0001B4BDB68C3F30223C3F10702042A28BFB5
:1035C0000422191D062921D9033B4FF0FF3101FACE
:1035D00002F224EA02049C4001FA03F326EA0306FD
:1035E0003443002D14DB2401E4B205F1604505F5F8
:1035F000614585F8004370BDBA210A48FDF7ACF972
:10360000D4E7BB210748FDF7A7F9D1E70023DCE7A2
:1036100005F00F052401E4B2034B5C55EBE700BF56
:1036200000ED00E07C48000814ED00E010B5041E39
:1036300008DB04F01F02640901239340044A42F8A6
:10364000243010BDCE210348FDF786F9F1E700BF15
:1036500000E100E07C4800080138B0F1807F0AD228
:10366000064B5860064AF02182F82310002098602B
:1036700007221A6070470120704700BF10E000E089
:1036800000ED00E010B50446042800D038B9042C41
:103690000BD0094A136823F00403136010BD40F2F5
:1036A000D9110648FDF758F9F1E7034A136843F0CA
:1036B00004031360F2E700BF10E000E07C4800085C
:1036C000704708B5FFF7FCFF08BD000010B50446C1
:1036D0000E4B18784FF47A73B3FBF0F30C4A106872
:1036E000B0FBF3F0FFF7B8FF68B90F2C01D9012048
:1036F0000AE0002221464FF0FF30FFF751FF054B53
:103700001C60002000E0012010BD00BF0000002070
:10371000080000200400002008B50B4B1A6842F492
:1037200000721A601A6842F480621A601A6842F4E1
:1037300080721A600320FFF715FF0020FFF7C6FF15
:10374000FDF7EAFC002008BD003C0240034A116876
:10375000034B1B780B441360704700BF0813002015
:1037600000000020014B1868704700BF08130020BC
:1037700038B50446FFF7F6FF0546B4F1FF3F02D027
:10378000044B1B781C44FFF7EDFF401BA042FAD30B
:1037900038BD00BF000000200F49D1F8883043F445
:1037A0007003C1F888300D4B1A6842F001021A60AC
:1037B000002098601A6822F0847222F480321A6025
:1037C000074A5A601A6822F480221A60D8604FF0C3
:1037D00000638B60704700BF00ED00E000380240DE
:1037E00010300024DFF834D0002103E00C4B5B588C
:1037F000435004310B480C4B42189A42F6D30B4A03
:1038000002E0002342F8043B094B9A42F9D3FFF748
:10381000C3FF00F011F8FDF703F870470000022025
:103820007449000800000020700000207000002093
:1038300010130020FEE7000070B50D4E0D4CA41BC8
:10384000A4100025A54209D10B4E0C4C00F03AFF04
:10385000A41BA4100025A54205D170BD56F8253043
:1038600098470135EEE756F8253098470135F2E7DD
:103870006C4900086C4900086C4900087049000850
:1038800002440346934200D1704703F8011BF9E755
:103890000FB40A4B13B51C6824B1A36913B92046B1
:1038A00000F04EF805AB049AA1680193204600F0A1
:1038B00055F902B0BDE8104004B070470C0000207C
:1038C000002310B50446C0E900338360818143665C
:1038D000C281C0E904338361194608225C30FFF7D6
:1038E000CFFF054B6362054BA362054BE362054BBB
:1038F0002462236310BD00BFB9400008DB4000080C
:103900001341000837410008014900F085B800BFA5
:103910001144000870B54A1E682555430E4605F14E
:10392000740100F097F8044640B10021C0E9001688
:103930000C30A06005F16802FFF7A2FF204670BDC1
:10394000836910B5044633BBC0E912330365124BDB
:10395000124A1B688262984204BF0123836100F00F
:103960001FF86060204600F01BF8A060204600F0C1
:1039700017F80022E06004216068FFF7A1FF012230
:103980000921A068FFF79CFF02221221E068FFF7DF
:1039900097FF0123A36110BDCC4800080939000836
:1039A000F8B51B4B1E68B369074613B93046FFF7DD
:1039B000C7FF4836D6E90134013B03D5336833B13C
:1039C0003668F7E7B4F90C506DB16834F4E70421B8
:1039D0003846FFF79FFF30600028F1D10C233B6091
:1039E00004462046F8BD0B4B6566C4E90055A5604A
:1039F000C4E90335C4E905550822294604F15C00F1
:103A0000FFF73EFFC4E90D55C4E91255E9E700BFD1
:103A1000CC4800080100FFFF2DE9F84380468946A5
:103A200000F14804002614B93046BDE8F883D4E913
:103A30000175013F01D52468F5E7AB89012B07D952
:103A4000B5F90E30013303D029464046C847064336
:103A50006835EEE770B5CD1C25F0030508350C2D53
:103A600038BF0C25002D064601DBA94203D90C23E3
:103A70003360002070BD00F06BFD214A14682146C0
:103A800091B9204C23681BB9304600F005FB20603B
:103A90002946304600F000FB431C24D10C23336040
:103AA000304600F056FDE4E70B685B1B18D40B2B87
:103AB0000FD90B60CD50CC18304600F04AFD04F110
:103AC0000B00231D20F00700C31AD3D05A42E25046
:103AD000D0E78C424B6816BF636013600C46EBE77F
:103AE0000C464968CCE7C41C24F00304A04205D06E
:103AF000211A304600F0D0FA0130CFD02560DBE744
:103B000090000020940000209368013B002B10B42B
:103B1000936008DA9469A34201DB0A2903D15DF8B6
:103B2000044B00F00DBB1368581C10601970084658
:103B30005DF8044B7047F8B506460F461446D51895
:103B4000AC4201D1002007E03A4614F8011B304690
:103B5000FFF7DAFF431CF3D1F8BD00002DE9F04F69
:103B60000C469DB017461D46064618B183690BB931
:103B7000FFF7E6FE7C4B9C4258D17468A389180776
:103B80005ED52369002B5BD00023099320238DF899
:103B9000293030238DF82A3003954FF0010BB846B9
:103BA000454615F8013B0BB1252B54D1B8EB070A5C
:103BB0000BD053463A4621463046FFF7BCFF013052
:103BC00000F0C280099B5344099398F80030002B01
:103BD00000F0BA8000234FF0FF32CDE905230493B3
:103BE00007938DF853301A93A846052218F8011B45
:103BF0005E48FCF7EDFA049B78BBD90644BF20224F
:103C00008DF853201A0744BF2B228DF853202A78B1
:103C10002A2A2AD0079AA84600200A25414611F8E8
:103C2000013B303B092B69D960B324E0504B9C42E7
:103C300001D1B468A2E74F4B9C4208BFF4689DE7EE
:103C40002146304600F0E0FA00289DD04FF0FF30CA
:103C50001DB0BDE8F08FA846A2E7444A801A0BFACF
:103C600000F0184304904546BEE7039A111D126800
:103C70000391002A01DB079204E0524243F0020361
:103C80000792049398F800302E2B0ED198F801304B
:103C90002A2B38D1039B1A1D1B680392002BB8BF37
:103CA0004FF0FF3308F102080593334D98F80010E8
:103CB00003222846FCF78CFA40B14023401B03FA4C
:103CC00000F0049B034308F10108049398F80010E6
:103CD0002A488DF82810062208F10107FCF778FA27
:103CE000002837D0264B1BBB039B073323F0070369
:103CF00008330393099B4B44099350E705FB0232B9
:103D0000012088468AE7002308F101080593194637
:103D10000A25404610F8012B303A092A03D9002B16
:103D2000C3D00591C1E705FB012101238046F0E7DF
:103D300003AB00932246134B04A93046AFF3008037
:103D4000B0F1FF3F8146D5D1A3895B063FF57EAF39
:103D500009987DE703AB009322460A4B04A930463D
:103D600000F088F8ECE700BFF04800083049000890
:103D700010490008D0480008364900083A490008B0
:103D800000000000373B00082DE9F04791461F4630
:103D90008A680B69DDF820809342B8BF1346C9F8E2
:103DA000003091F8432006460C4612B10133C9F8A1
:103DB00000302368990642BFD9F800300233C9F8B1
:103DC0000030256815F0060507D104F1190AE368EB
:103DD000D9F800209B1AAB4228DC94F843302268C3
:103DE000003318BF012392062DD404F14302394653
:103DF0003046C047013020D02368E568D9F800205C
:103E000003F00603042B08BFAD1AA36822690CBF98
:103E100025EAE57500259342C4BF9B1AED184FF0C3
:103E200000091A344D451AD1002008E001235246FA
:103E300039463046C047013003D14FF0FF30BDE86E
:103E4000F0870135C3E7E1185A1C302081F84300A0
:103E5000224494F8451082F843100233C5E7012349
:103E6000224639463046C0470130E6D009F1010903
:103E7000D8E700002DE9F04301F1430C0C46097E20
:103E800085B06E291746064698460C9A00F0B38016
:103E900022D8632936D00AD8002900F0B9805829E1
:103EA00000F0838004F1420584F8421032E0642976
:103EB00001D06929F6D120681368050603F10401D1
:103EC0002AD51B681160002B03DA2D225B4284F88F
:103ED00043206F480A2239E0732900F09D8008D8FA
:103EE0006F2920D07029DDD1236843F0200323609F
:103EF00003E0752917D07829D4D1782384F8453088
:103F0000644855E01368191D1B68116004F14205EF
:103F100084F8423001238CE01B68116010F0400FE0
:103F200018BF1BB2CFE713682568181D106028065C
:103F300001D51B6802E06806FBD51B8854486F2931
:103F400014BF0A220822002184F843106568A56086
:103F5000002DC0F29580216821F004012160002B22
:103F60003DD1002D40F08E806546082A0BD1236894
:103F7000DB0708D5236962689A42DEBF302305F863
:103F8000013C05F1FF35ACEB05032361CDF8008062
:103F90003B4603AA21463046FFF7F6FE01304DD1DD
:103FA0004FF0FF3005B0BDE8F083394884F8451084
:103FB000136821681D1D1B6815600A060BD5CA070A
:103FC00044BF41F0200121601BB9226822F0200289
:103FD00022601022B7E74D0648BF9BB2EFE7654667
:103FE000B3FBF2F102FB1133C35C05F8013D0B4654
:103FF0000029F5D1B9E7136825686169181D1060BB
:1040000028061B6801D5196002E06A06FBD51980F5
:10401000002323616546B9E71368191D11601D6807
:10402000626800212846FCF7D3F808B1401B6060A5
:1040300063682361002384F84330A7E723692A4695
:1040400039463046C0470130AAD023689B0713D4B5
:10405000E068039B9842B8BF1846A3E701234A468D
:1040600039463046C04701309AD00135E368039A9B
:104070009B1AAB42F2DCEBE7002504F11909F5E7E6
:10408000002BACD1037884F8423004F142056CE790
:10409000414900085249000838B5064C002305463E
:1040A0000846236000F000FB431C02D1236803B1E3
:1040B0002B6038BD0C13002010B50C46B1F90E1062
:1040C00000F096FA0028ABBF636DA3891B1823F498
:1040D0008053ACBF6365A38110BD2DE9F0411F463D
:1040E0008B89DB0505460C46164605D502230022C2
:1040F000B1F90E1000F0B6F9A389B4F90E1023F44B
:104100008053A38132463B462846BDE8F04100F08B
:1041100069B810B50C46B1F90E1000F0A3F9431CB4
:10412000A38915BF606523F4805343F48053A381B2
:1041300018BFA38110BDB1F90E1000F0D3B8000074
:10414000F8B50E461446054618B183690BB9FFF75A
:10415000F7FB214B9C422AD16C68A369A360A38919
:104160001A072ED5236963B323692068C01A6369CF
:10417000F6B28342374604DC2146284600F048F96F
:1041800028BBA368013BA36023685A1C22601E70F1
:1041900063690130834204D0A389DB0719D50A2E55
:1041A00017D12146284600F033F990B10FE00B4BB0
:1041B0009C4201D1AC68D0E7094B9C4208BFEC6837
:1041C000CBE72146284600F01FF80028CCD04FF05E
:1041D000FF373846F8BD00BFF04800081049000816
:1041E000D048000838B5074C05460846114600225D
:1041F00022601A46FCF7E3F9431C02D1236803B19D
:104200002B6038BD0C130020324B70B51D6806467C
:104210000C4625B1AB6913B92846FFF791FB2E4B2D
:104220009C420FD16C68B4F90C309AB215072CD4AB
:10423000D00611D40922326043F04003A3814FF02D
:10424000FF303EE0254B9C4201D1AC68EBE7244BAC
:104250009C4208BFEC68E6E7510712D5616B41B19B
:1042600004F14403994202D0304600F073F9002370
:104270006363A38923F02403A3810023636023697C
:104280002360A38943F00803A38123694BB9A38961
:1042900003F42073B3F5007F03D02146304600F0CD
:1042A00017F9A28912F001030CD00023A3606369FF
:1042B0005B42A361236953B9B4F90C3013F0800059
:1042C000BAD170BD920758BF6369A360F2E70020BE
:1042D000F7E700BF0C000020F04800081049000874
:1042E000D048000838B5064C002305460846236030
:1042F00000F0B2F9431C02D1236803B12B6038BD32
:104300000C1300208A892DE9F041054610070C4660
:1043100058D44B68002B05DC0B6C002B02DC002012
:10432000BDE8F081E66A002EF9D0002312F4805235
:104330002F68216A2B6032D0606DA3895A0705D59A
:104340006368C01A636B0BB1236CC01A002302466A
:10435000E66A216A2846B047431CA38906D129682A
:104360001D2948D8294ACA40D60744D50022626090
:10437000D9042269226004D5421C01D12B6803B9FB
:104380006065616B2F600029C9D004F14403994234
:1043900002D0284600F0DEF800206063C0E7012369
:1043A0002846B047411CC8D12B68002BC5D01D2B17
:1043B00001D0162B01D12F60B1E7A38943F0400350
:1043C000A381ADE70F69002FA9D093070E6808BF3E
:1043D0004B690F6018BF0023A6EB07088B60B8F18C
:1043E000000F9CDD43463A46216AA66A2846B0473C
:1043F000002806DCA38943F04003A3814FF0FF307F
:104400008EE70744A8EB0008E9E700BF0100402061
:1044100038B50B6905460C46DBB118B183690BB999
:10442000FFF78EFA0C4B9C4209D16C68B4F90C3042
:104430007BB121462846BDE83840FFF763BF074BF4
:104440009C4201D1AC68F1E7054B9C4208BFEC6887
:10445000ECE7002038BD00BFF04800081049000814
:10446000D048000838B5074C0546084611460022DA
:1044700022601A4600F008F9431C02D1236803B1F8
:104480002B6038BD0C13002070B50E46B1F90E102C
:10449000002996B014461D4607DA00232B60B38925
:1044A0001A0610D44FF480630EE06A4600F0B2F8AA
:1044B0000028F2DB019A02F47042A2F500535A423E
:1044C0005A412A60EEE740230020236016B070BDF9
:1044D0008B8973B59D0706460C4607D504F1470343
:1044E000236023610123636102B070BD01AB6A46A2
:1044F000FFF7CAFF009905463046FFF7ABFA48B907
:10450000B4F90C309A05EFD423F0030343F002030F
:10451000A381E3E70D4BB362A389206043F08003DE
:10452000A381009B6361019B20615BB1B4F90E1014
:10453000304600F081F828B1A38923F0030343F04B
:104540000103A381A3891D43A581CDE70939000893
:104550007047704738B50546002945D051F8043CEE
:104560000C1F002BB8BFE418FFF7F2FF1F4A1368B7
:10457000104633B9636014602846BDE83840FFF741
:10458000E8BFA3420CD921686218934204BF1A689D
:104590005B68636004BF521822600460ECE7134656
:1045A0005A680AB1A242FAD919685818A0420BD128
:1045B00020680144581882421960DDD110685268A1
:1045C0005A6001441960D7E702D90C232B60D3E766
:1045D000206821188A4204BF11685268626004BFD3
:1045E000091821605C60C7E738BD00BF900000205B
:1045F00038B5074C054608461146002222601A4687
:1046000000F04AF8431C02D1236803B12B6038BD87
:104610000C13002038B5074C002305460846114608
:10462000236000F021F8431C02D1236803B12B6002
:1046300038BD00BF0C13002038B5064C00230546DA
:104640000846236000F018F8431C02D1236803B128
:104650002B6038BD0C130020024B58221A604FF01B
:10466000FF3070470C130020024B58221A604FF0A5
:10467000FF3070470C130020024B58221A600020B4
:10468000704700BF0C130020024B58221A604FF0F5
:10469000FF3070470C130020024B58221A604FF075
:1046A000FF3070470C130020044A05491368002BA3
:1046B00008BF0B4618441060184670479800002049
:1046C00010130020F8B500BFF8BC08BC9E46704728
:0C46D000F8B500BFF8BC08BC9E4670475F
:1046DC00436F72652F5372632F6D61696E2E630089
:1046EC0025640A00256C640A00000000436F7265A3
:1046FC002F5372632F6164632E630000436F7265E6
:10470C002F5372632F74696D2E630000436F7265B3
:10471C002F5372632F75736172742E630000000047
:10472C00447269766572732F53544D333246347824
:10473C00785F48414C5F4472697665722F5372639F
:10474C002F73746D3332663478785F68616C5F6197
:10475C0064632E6300000000447269766572732FE7
:10476C0053544D3332463478785F48414C5F447231
:10477C00697665722F5372632F73746D333266349E
:10478C0078785F68616C5F74696D2E63000000005F
:10479C00447269766572732F53544D3332463478B4
:1047AC00785F48414C5F4472697665722F5372632F
:1047BC002F73746D3332663478785F68616C5F7414
:1047CC00696D5F65782E6300447269766572732F2C
:1047DC0053544D3332463478785F48414C5F4472C1
:1047EC00697665722F5372632F73746D333266342E
:1047FC0078785F68616C5F756172742E630000007D
:10480C00447269766572732F53544D333246347843
:10481C00785F48414C5F4472697665722F537263BE
:10482C002F73746D3332663478785F68616C5F72A5
:10483C0063632E6300000000447269766572732F07
:10484C0053544D3332463478785F48414C5F447250
:10485C00697665722F5372632F73746D33326634BD
:10486C0078785F68616C5F6770696F2E6300000019
:10487C00447269766572732F53544D3332463478D3
:10488C00785F48414C5F4472697665722F5372634E
:10489C002F73746D3332663478785F68616C5F6344
:1048AC006F727465782E6300000000000000000039
:1048BC0001020304060708090000000001020304BA
:1048CC0010000020000000000000000000000000AC
:1048DC0000000000000000000000000000000000CC
:1048EC0000000000000000000000000000000000BC
:1048FC0000000000000000000000000000000000AC
:10490C00000000000000000000000000000000009B
:10491C00000000000000000000000000000000008B
:10492C0000000000232D302B2000686C4C006566C5
:10493C0067454647003031323334353637383941E4
:10494C0042434445460030313233343536373839FA
:08495C006162636465660000FE
:084964003CB9FF7F01000000D7
:04496C00B501000889
:0449700091010008A9
:1049740001000000100000000024F40010000020DA
:1049840000000000F048000810490008D048000862
:104994000000000000000000000000000000000013
:1049A4000000000000000000000000000000000003
:1049B40000000000000000000000000000000000F3
:1049C40000000000000000000000000000000000E3
:1049D40000000000000000000000000000000000D3
:04000005080037E5D3
:00000001FF
