:020000040800F2
:1000000000000220B9490008871900088919000872
:100010008B1900088D1900088F19000800000000D6
:100020000000000000000000000000007147000810
:1000300091190008000000001148000875480008E8
:10004000094A0008094A0008094A0008094A000844
:10005000094A0008094A000893190008094A0008DB
:100060009D190008A7190008B1190008094A0008DD
:10007000094A0008094A0008094A0008094A000814
:10008000094A0008094A0008094A0008094A000804
:10009000094A0008094A0008094A0008BB19000873
:1000A000094A0008094A0008094A0008094A0008E4
:1000B000094A0008094A0008094A0008094A0008D4
:1000C000094A0008094A0008094A0008094A0008C4
:1000D000094A0008094A0008094A0008094A0008B4
:1000E000C7190008094A0008094A0008094A000817
:1000F000094A0008094A0008094A0008094A000894
:10010000094A0008094A0008F5190008094A0008C8
:10011000094A0008094A0008094A0008094A000873
:10012000094A0008094A0008094A0008094A000863
:10013000094A0008094A0008094A0008094A000853
:10014000094A0008094A0008094A0008094A000843
:10015000094A0008094A0008094A0008094A000833
:10016000094A0008094A0008094A0008094A000823
:10017000094A0008094A0008094A0008000000006E
:08018000094A0008094A0008C1
:1001900010B5054C237833B9044B13B10448AFF3C1
:1001A00000800123237010BD980000200000000093
:1001B000EC9D000808B5034B1BB103490348AFF39E
:1001C000008008BD000000009C000020EC9D00089D
:1001D00010F8012B11F8013B012A28BF9A42F7D0F1
:1001E000D01A70470000000000000000000000006E
:1001F00001F0FF01102A2BDB10F0070F08D010F8D8
:10020000013B013A8B422DD010F0070F42B3F6D1DB
:10021000F0B441EA012141EA014122F007047FF0F4
:1002200000070023F0E80256083C85EA010586EA4B
:10023000010685FA47F5A3FA87F586FA47F6A5FA87
:1002400087F68EB9EED1F0BC01F0FF0102F0070293
:1002500032B110F8013B013A83EA010313B1F8D13E
:100260000020704701387047002D06BF354603381F
:10027000073815F0010F07D1013015F4807F02BF58
:10028000013015F4C03F0130F0BC0138704700BFA9
:1002900081F0004102E000BF83F0004330B54FEA37
:1002A00041044FEA430594EA050F08BF90EA020FA4
:1002B0001FBF54EA000C55EA020C7FEA645C7FEA37
:1002C000655C00F0E2804FEA5454D4EB5555B8BF5A
:1002D0006D420CDD2C4480EA020281EA030382EACB
:1002E000000083EA010180EA020281EA0303362D5D
:1002F00088BF30BD11F0004F4FEA01314FF4801C30
:100300004CEA113102D0404261EB410113F0004F41
:100310004FEA03334CEA133302D0524263EB4303F8
:1003200094EA050F00F0A780A4F10104D5F1200E96
:100330000DDB02FA0EFC22FA05F2801841F10001F1
:1003400003FA0EF2801843FA05F359410EE0A5F1C5
:1003500020050EF1200E012A03FA0EFC28BF4CF0F6
:10036000020C43FA05F3C01851EBE37101F00045AC
:1003700007D54FF0000EDCF1000C7EEB00006EEBB9
:100380000101B1F5801F1BD3B1F5001F0CD3490843
:100390005FEA30004FEA3C0C04F101044FEA44529A
:1003A00012F5800F80F09A80BCF1004F08BF5FEA21
:1003B000500C50F1000041EB045141EA050130BD01
:1003C0005FEA4C0C404141EB010111F4801FA4F1A4
:1003D0000104E9D191F0000F04BF01460020B1FAF9
:1003E00081F308BF2033A3F10B03B3F120020CDA31
:1003F0000C3208DD02F1140CC2F10C0201FA0CF00F
:1004000021FA02F10CE002F11402D8BFC2F1200C73
:1004100001FA02F120FA0CFCDCBF41EA0C01904029
:10042000E41AA2BF01EB0451294330BD6FEA040472
:100430001F3C1CDA0C340EDC04F11404C4F120025D
:1004400020FA04F001FA02F340EA030021FA04F36F
:1004500045EA030130BDC4F10C04C4F1200220FAC6
:1004600002F001FA04F340EA0300294630BD21FA04
:1004700004F0294630BD94F0000F83F4801306BFCA
:1004800081F480110134013D4EE77FEA645C18BFBE
:100490007FEA655C29D094EA050F08BF90EA020F55
:1004A00005D054EA000C04BF1946104630BD91EA4D
:1004B000030F1EBF0021002030BD5FEA545C05D150
:1004C0004000494128BF41F0004130BD14F580048F
:1004D0003CBF01F5801130BD01F0004545F0FE4103
:1004E00041F470014FF0000030BD7FEA645C1ABF38
:1004F000194610467FEA655C1CBF0B46024650EA6F
:10050000013406BF52EA033591EA030F41F400219A
:1005100030BD00BF90F0000F04BF0021704730B520
:100520004FF4806404F132044FF000054FF00001F5
:1005300050E700BF90F0000F04BF0021704730B5B6
:100540004FF4806404F1320410F0004548BF40428B
:100550004FF000013EE700BF42004FEAE2014FEAE0
:1005600031014FEA02701FBF12F07F4393F07F4FBB
:1005700081F06051704732F07F4208BF704793F0BE
:100580007F4F04BF41F40021704730B54FF46074D1
:1005900001F0004521F000411CE700BF50EA0102D4
:1005A00008BF704730B54FF000050AE050EA01027D
:1005B00008BF704730B511F0004502D5404261EBED
:1005C00041014FF4806404F132045FEA915C3FF42E
:1005D000D8AE4FF003025FEADC0C18BF03325FEACB
:1005E000DC0C18BF033202EBDC02C2F1200300FA7C
:1005F00003FC20FA02F001FA03FE40EA0E0021FAA1
:1006000002F11444BDE600BF70B54FF0FF0C4CF48E
:10061000E06C1CEA11541DBF1CEA135594EA0C0F40
:1006200095EA0C0F00F0DEF82C4481EA030621EA7B
:100630004C5123EA4C5350EA013518BF52EA0335B6
:1006400041F4801143F4801338D0A0FB02CE4FF068
:100650000005E1FB02E506F00042E0FB03E54FF098
:100660000006E1FB03569CF0000F18BF4EF0010E90
:10067000A4F1FF04B6F5007F64F5407404D25FEA8C
:100680004E0E6D4146EB060642EAC62141EA55513F
:100690004FEAC52040EA5E504FEACE2EB4F1FD0C81
:1006A00088BFBCF5E06F1ED8BEF1004F08BF5FEAFF
:1006B000500E50F1000041EB045170BD06F00046B1
:1006C00046EA010140EA020081EA0301B4EB5C045E
:1006D000C2BFD4EB0C0541EA045170BD41F4801156
:1006E0004FF0000E013C00F3AB8014F1360FDEBF7B
:1006F000002001F0004170BDC4F10004203C35DA57
:100700000C341BDC04F11404C4F1200500FA05F3D9
:1007100020FA04F001FA05F240EA020001F000427A
:1007200021F0004110EBD37021FA04F642EB0601F0
:100730005EEA430E08BF20EAD37070BDC4F10C041A
:10074000C4F1200500FA04F320FA05F001FA04F2DE
:1007500040EA020001F0004110EBD37041F10001CA
:100760005EEA430E08BF20EAD37070BDC4F12005D5
:1007700000FA05F24EEA020E20FA04F301FA05F23D
:1007800043EA020321FA04F001F0004121FA04F2E5
:1007900020EA020000EBD3705EEA430E08BF20EAB5
:1007A000D37070BD94F0000F0FD101F000464000EF
:1007B00041EB010111F4801F08BF013CF7D041EA71
:1007C000060195F0000F18BF704703F00046520075
:1007D00043EB030313F4801F08BF013DF7D043EA46
:1007E0000603704794EA0C0F0CEA135518BF95EAFC
:1007F0000C0F0CD050EA410618BF52EA4306D1D183
:1008000081EA030101F000414FF0000070BD50EAA1
:10081000410606BF1046194652EA430619D094EA2B
:100820000C0F02D150EA013613D195EA0C0F05D115
:1008300052EA03361CBF104619460AD181EA030169
:1008400001F0004141F0FE4141F470014FF0000021
:1008500070BD41F0FE4141F4780170BD70B54FF0BC
:10086000FF0C4CF4E06C1CEA11541DBF1CEA13553C
:1008700094EA0C0F95EA0C0F00F0A7F8A4EB05041E
:1008800081EA030E52EA03354FEA013100F0888015
:100890004FEA03334FF0805545EA131343EA1263DE
:1008A0004FEA022245EA111545EA10654FEA002693
:1008B0000EF000419D4208BF964244F1FD0404F54C
:1008C000407402D25B084FEA3202B61A65EB0305A8
:1008D0005B084FEA32024FF480104FF4002CB6EB65
:1008E000020E75EB030E22BFB61A754640EA0C00E5
:1008F0005B084FEA3202B6EB020E75EB030E22BF25
:10090000B61A754640EA5C005B084FEA3202B6EB65
:10091000020E75EB030E22BFB61A754640EA9C0024
:100920005B084FEA3202B6EB020E75EB030E22BFF4
:10093000B61A754640EADC0055EA060E18D04FEAB2
:10094000051545EA16754FEA06164FEAC30343EA52
:1009500052734FEAC2025FEA1C1CC0D111F4801F1F
:100960000BD141EA00014FF000004FF0004CB6E718
:1009700011F4801F04BF01430020B4F1FD0C88BFB7
:10098000BCF5E06F3FF6AFAEB5EB030C04BFB6EBC2
:10099000020C5FEA500C50F1000041EB045170BDB5
:1009A0000EF0004E4EEA113114EB5C04C2BFD4EBE2
:1009B0000C0541EA045170BD41F480114FF0000E66
:1009C000013C90E645EA060E8DE60CEA135594EAE2
:1009D0000C0F08BF95EA0C0F3FF43BAF94EA0C0FE5
:1009E0000AD150EA01347FF434AF95EA0C0F7FF45A
:1009F00025AF104619462CE795EA0C0F06D152EAAE
:100A000003353FF4FDAE1046194622E750EA410691
:100A100018BF52EA43067FF4C5AE50EA41047FF4A2
:100A20000DAF52EA43057FF4EBAE12E74FF0FF3C07
:100A300006E000BF4FF0010C02E000BF4FF0010CD8
:100A40004DF804CD4FEA410C7FEA6C5C4FEA430C51
:100A500018BF7FEA6C5C1BD001B050EA410C0CBFA0
:100A600052EA430C91EA030F02BF90EA020F002002
:100A7000704710F1000F91EA030F58BF994208BF69
:100A800090422CBFD8176FEAE37040F00100704726
:100A90004FEA410C7FEA6C5C02D150EA013C07D17D
:100AA0004FEA430C7FEA6C5CD6D152EA033CD3D0C8
:100AB0005DF8040B704700BF8446104662468C46C2
:100AC0001946634600E000BF01B5FFF7B7FF0028F5
:100AD00048BF10F1000F01BD4DF808EDFFF7F4FF1E
:100AE0000CBF012000205DF808FB00BF4DF808EDA9
:100AF000FFF7EAFF34BF012000205DF808FB00BFCC
:100B00004DF808EDFFF7E0FF94BF012000205DF8ED
:100B100008FB00BF4DF808EDFFF7CEFF94BF0120A2
:100B200000205DF808FB00BF4DF808EDFFF7C4FF9B
:100B300034BF012000205DF808FB00BF4FEA4102EE
:100B400012F5001215D211D56FF47873B3EB62521F
:100B500012D94FEAC12343F0004343EA505311F046
:100B6000004F23FA02F018BF404270474FF00000D8
:100B7000704750EA013005D111F0004008BF6FF016
:100B8000004070474FF00000704700BF4A0011D28C
:100B900012F5001211D20DD56FF47873B3EB6252D7
:100BA0000ED44FEAC12343F0004343EA505323FAE3
:100BB00002F070474FF00000704750EA013002D158
:100BC0004FF0FF3070474FF0000070474FEA41028E
:100BD000B2F1E04324BFB3F5001CDCF1FE5C0DD99B
:100BE00001F0004C4FEAC0024CEA5070B2F1004FE5
:100BF00040EB830008BF20F00100704711F0804FE8
:100C000021D113F13872BCBF01F00040704741F4AC
:100C100080114FEA5252C2F11802C2F1200C10FAB0
:100C20000CF320FA02F018BF40F001004FEAC12394
:100C30004FEAD32303FA0CFC40EA0C0023FA02F338
:100C40004FEA4303CCE77FEA625307D150EA01330E
:100C50001EBF4FF0FE4040F44000704701F00040DE
:100C600040F0FE4040F40000704700BF53B94AB95D
:100C7000002908BF00281CBF4FF0FF314FF0FF30A4
:100C800000F072B9ADF1080C6DE904CE00F006F881
:100C9000DDF804E0DDE9022304B070472DE9F047F8
:100CA000089E04468846002B4BD18A42154667D9D8
:100CB000B2FA82F24AB1C2F1200701FA02F320FA35
:100CC00007F7954047EA030894404FEA154E230C76
:100CD000B8FBFEF71FFA85FC0EFB178843EA0843B2
:100CE00007FB0CF1994209D9EB1807F1FF3080F0AE
:100CF0001B81994240F21881023F2B445B1AA4B237
:100D0000B3FBFEF00EFB103344EA034400FB0CFC83
:100D1000A44509D92C1900F1FF3380F00781A445BF
:100D200040F2048102382C4440EA0740A4EB0C0452
:100D300000271EB1D4400023C6E900433946BDE870
:100D4000F0878B4209D9002E00F0EB800027C6E91E
:100D5000000138463946BDE8F087B3FA83F7002F23
:100D600047D18B4202D3824200F2FA80841A61EBAF
:100D7000030301209846002EE0D0C6E90048DDE7D5
:100D800002B9FFDEB2FA82F2002A40F08F80491BDE
:100D90004FEA154E1FFA85F80127B1FBFEFC230C24
:100DA0000EFB1C1143EA014308FB0CF1994207D9E1
:100DB000EB180CF1FF3002D2994200F2CD8084464C
:100DC000591AA3B2B1FBFEF00EFB101443EA04441F
:100DD00008FB00F8A04507D92C1900F1FF3302D217
:100DE000A04500F2B6801846A4EB080440EA0C4087
:100DF0009FE7C7F1200CBB4022FA0CFE4EEA030E1F
:100E000001FA07F420FA0CF521FA0CF34FEA1E4818
:100E10002543B3FBF8F92C0C08FB19331FFA8EFAA3
:100E200044EA034309FB0AF49C4202FA07F200FA7F
:100E300007F10BD91EEB030309F1FF3080F0878027
:100E40009C4240F28480A9F1020973441B1BADB29D
:100E5000B3FBF8F008FB103345EA034400FB0AFA41
:100E6000A24508D91EEB040400F1FF336BD2A24562
:100E700069D90238744440EA0940A0FB0289A4EB16
:100E80000A044C45C2464B4654D351D0002E69D07B
:100E9000B1EB0A0564EB030404FA0CFCFD40FC40D2
:100EA0004CEA0505C6E90054002747E7C2F12003D4
:100EB00020FA03F7954001FA02F021FA03F34FEA12
:100EC000154E3843010CB3FBFEF71FFA85F80EFBF5
:100ED000173341EA034107FB08F38B4204FA02F49B
:100EE00007D9691807F1FF3C2FD28B422DD9023F59
:100EF0002944CB1A81B2B3FBFEF00EFB103341EA5A
:100F0000034100FB08F38B4207D9691800F1FF3C4D
:100F100017D28B4215D902382944C91A40EA07472B
:100F20003BE73746304609E70746E7E61846FBE663
:100F30004145ABD2B8EB020A69EB0E020138134609
:100F4000A4E76046E9E7184695E76746D1E781469A
:100F50007CE702382C4447E7ACF1020C2B442FE726
:100F6000384608E73746E9E6704700BF2DE9F04705
:100F70008CB000240794089409940A940B9401946B
:100F8000854B1A6B42F080021A631A6B02F08002E2
:100F90000192019A02941A6B42F004021A631A6BCE
:100FA00002F004020292029A03941A6B42F00102C8
:100FB0001A631A6B02F001020392039A04941A6BEB
:100FC00042F010021A631A6B02F010020492049AA3
:100FD00005941A6B42F002021A631A6B02F00202C5
:100FE0000592059A06941A6B42F008021A631B6B6D
:100FF00003F008030693069B684F22464FF2050153
:10100000384601F037FFDFF8A08122464FF4054152
:10101000404601F02FFFDFF8949122464FF4E05153
:10102000484601F027FF0C2307935D4E08960125E3
:10103000099507A9484601F039FE0795089602234D
:10104000099307A9404601F031FE10230793089643
:10105000099507A9404601F029FE4FF4A0430793E4
:101060000896099507A94F4801F020FE4FF4005358
:10107000079308960995DFF838A107A9504601F0B3
:1010800015FE4FF4004307930896099407A95046AC
:1010900001F00CFE4FF4A06307930894099407A98C
:1010A000384601F003FE4FF4206307930896099534
:1010B00007A9384601F0FAFD4FF20103079308959E
:1010C00009940A9407A9384601F0F0FD4FF48073A3
:1010D0000793089509940A9407A9404601F0E6FD94
:1010E0004FF4044307930895099403260A9607A929
:1010F000404601F0DBFD4FF4A05307930895099497
:101100000A9407A9484601F0D1FD4FF40063079304
:10111000089509940A9607A9484601F0C7FD0423DB
:101120000793089509940A9607A9384601F0BEFD71
:1011300022460521062001F0C7FE062001F0F8FE38
:1011400022460521082001F0BFFE082001F0F0FE34
:1011500022460521092001F0B7FE092001F0E8FE32
:10116000224605210A2001F0AFFE0A2001F0E0FE30
:1011700022460521172001F0A7FE172001F0D8FE16
:1011800022460521282001F09FFE282001F0D0FEF4
:101190000CB0BDE8F08700BF00380240000C0240F0
:1011A0000000111000100240000002400008024040
:1011B0000004024000B58DB02022002104A807F0F1
:1011C00046FE0023019302931148124A02604360D5
:1011D00083604FF6FF72C260036143610323039390
:1011E00001230593099303A900F0DCFE50B9002305
:1011F0000193029301A9064801F00EF828B90DB039
:101200005DF804FB03F012FDF1E703F00FFDF6E7D4
:10121000A04C00200000014000B58DB0202200212C
:1012200004A807F014FE00230193029311484FF025
:1012300080420260436083604FF6FF72C2600361C8
:101240000323039301230593099303A900F0AAFE46
:1012500050B900230193029301A9064800F0DCFF76
:1012600028B90DB05DF804FB03F0E0FCF1E703F0F2
:10127000DDFCF6E7DC4C002000B58DB0202200211B
:1012800004A807F0E4FD0023019302931148124AD9
:101290000260436083604FF6FF72C2600361032304
:1012A000039301230593099303A900F07BFE50B932
:1012B00000230193029301A9064800F0ADFF28B96D
:1012C0000DB05DF804FB03F0B1FCF1E703F0AEFCF8
:1012D000F6E700BF644C002000040040F0B58DB07C
:1012E00000230793089309930A930B9303684C4ACE
:1012F000934207D0B3F1804F35D04A4A934257D03A
:101300000DB0F0BD00250095474B5A6C42F001022C
:101310005A645A6C02F001020092009A01951A6B0D
:1013200042F010021A631B6B03F010030193019B40
:101330004FF40073079302270897012409940323AD
:101340000A930B94394E07A9304601F0AFFC4FF4D5
:1013500000630793089709940A950B9407A93046F0
:1013600001F0A4FCCCE70021029103F50E331A6CC6
:1013700042F001021A641A6C02F001020292029A0F
:1013800003911A6B42F001021A631B6B03F0010315
:101390000393039B222307930223089301230993BA
:1013A00003220A920B9307A9214801F07FFCA7E7CB
:1013B000002204921C4B196C41F002011964196C53
:1013C00001F00201049104990592196B41F00101A9
:1013D0001963196B01F001010591059906921A6BC9
:1013E00042F004021A631B6B03F004030693069B8E
:1013F00080230793022408940126099603250A9561
:101400000B9407A90A4801F051FC40230793089464
:1014100009960A950B9407A9064801F047FC6FE767
:10142000000001400004004000380240001002406B
:1014300000000240000802400268094B9A4200D0B6
:10144000704782B000230193064B5A6C42F00202AF
:101450005A645B6C03F002030193019B02B0704776
:10146000000401400038024000B587B0002301931A
:101470000293039304930593026803F1804303F5F9
:1014800082339A4202D007B05DF804FB0023009338
:101490000A4B1A6B42F004021A631B6B03F004033D
:1014A0000093009B4FF46073019302230293032384
:1014B000059301A9024801F0F9FBE4E70038024076
:1014C0000008024000B591B000230E930F930793DC
:1014D000089309930A930B930C930D930093019334
:1014E000029303930493059306932D482D4A0260BB
:1014F00043602022826042F60312C26003614361AE
:1015000000F037FD002838D100230E930F930EA969
:10151000234800F081FE002832D160230793002386
:10152000089309930A930B930C930D93042207A934
:101530001B4800F0B5FD30BB082207A9184800F091
:10154000AFFD18BB0C2207A9154800F0A9FD00BB90
:101550000023009301930293039304934FF40052EA
:101560000592069369460E4800F07FFEA0B90C482C
:10157000FFF77AFF11B05DF804FB03F057FBC3E7F8
:1015800003F054FBC9E703F051FBD5E703F04EFB32
:10159000D8E703F04BFBDBE703F048FBE7E700BFCE
:1015A000284C00200004014008B50B480B4B036099
:1015B0000B4B436000238360C3604FF480420261A1
:1015C00043618361C361036202F006FA00B908BD9A
:1015D00003F02CFBFBE700BF184D00200054004037
:1015E000A086010008B50B480B4B03600B4B436012
:1015F00000238360C3604FF48042026143618361D2
:10160000C361036202F0E8F900B908BD03F00EFB04
:10161000FBE700BF6C4D002000580040A086010091
:1016200030B58BB000230593069307930893099375
:1016300003682A4A934204D0294A934227D00BB028
:1016400030BD00250195274C236B43F00203236333
:10165000236B03F002030193019B4FF44073059346
:10166000122306930123079303230893042309936A
:1016700005A91D4801F01AFB0295236C43F40013E1
:101680002364236C03F400130293029BD7E7002525
:101690000395144C236B43F002032363236B03F085
:1016A00002030393039B4FF44063059312230693B5
:1016B00001230793032308930423099305A90A48E8
:1016C00001F0F4FA0495236C43F480032364236C43
:1016D00003F480030493049BB1E700BF005400406F
:1016E00000580040003802400004024010B58EB09F
:1016F00000240A940B940C940D942422214601A8F2
:1017000007F0A5FB1E481F4B03604FF48033436076
:1017100084600461012383610462C4621A4A8262A4
:10172000C460C3610463436101F0E6FCF0B90F23B8
:101730000A9301230B9300230C930AA9104801F08C
:1017400081FDB0B90F230193012302930593039305
:10175000002309930D4A089207930693049301A965
:10176000074801F037FE38B90EB010BD03F05EFA3D
:10177000DDE703F05BFAE5E703F058FAF4E700BFB2
:10178000C04D0020002001400100000F01000F00AB
:1017900000B589B000230393049305930693079340
:1017A000026803F1804303F590339A4202D009B0F6
:1017B0005DF804FB0021019103F58C335A6C42F46F
:1017C00080725A645A6C02F480720192019A0291FA
:1017D0001A6B42F004021A631B6B03F004030293BA
:1017E000029B222303930323049303A9014801F0DE
:1017F0005DFADCE70008024008B50A480A4B0360BE
:101800004FF4E133436000238360C36003610C2223
:1018100042618361C36100F0F1FE00B908BD03F0CD
:1018200005FAFBE7084E00200010014008B50A4801
:101830000A4B03604FF4E133436000238360C360CD
:1018400003610C2242618361C36100F0D7FE00B9DD
:1018500008BD03F0EBF9FBE7484E002000440040D0
:1018600000B58BB000230593069307930893099363
:101870000368294A934205D0284A934227D00BB0E7
:101880005DF804FB00210191254B5A6C42F01002D7
:101890005A645A6C02F010020192019A02911A6B7A
:1018A00042F002021A631B6B03F002030293029BD5
:1018B000C023059302230693012307930323089370
:1018C0000723099305A9174801F0F0F9D7E700218C
:1018D0000391134B1A6C42F400321A641A6C02F42E
:1018E00000320392039A04911A6B42F008021A63C1
:1018F0001B6B03F008030493049B602305930223EE
:10190000069301230793032308930723099305A94B
:10191000054801F0CBF9B2E7001001400044004057
:101920000038024000040240000C024000238B42B9
:1019300021DA10B40BE000BF4FF060421268002AB9
:10194000F9D04FF06042147001338B420FDAC45C5F
:101950004FF06042D2F8802E12F0010FF4D04FF019
:101960006042D2F8002E12F0010FEDD0E4E71846E5
:101970005DF8044B70471846704708B50846114695
:10198000FFF7D4FF08BD7047FEE7FEE7FEE7FEE77E
:10199000704708B5012001F077FA08BD08B50420AA
:1019A00001F072FA08BD08B5082001F06DFA08BD13
:1019B00008B5102001F068FA08BD08B54FF40070B2
:1019C00001F062FA08BD08B54FF4006001F05CFA5E
:1019D0004FF4805001F058FA4FF4005001F054FADF
:1019E0004FF4804001F050FA4FF4004001F04CFAFF
:1019F00008BD000008B5024800F084F908BD00BF2A
:101A0000E88F002000B583B0002200920D4B596C86
:101A100041F480415964596C01F48041009100996E
:101A20000192196C41F0805119641B6C03F08053D2
:101A30000193019B0F216FF0010001F045FA03B003
:101A40005DF804FB003802400F49D1F8883043F4B8
:101A50007003C1F888300D4B1A6842F001021A6019
:101A6000002098601A6822F0847222F480321A6092
:101A7000074A5A601A6822F480221A60D8604FF030
:101A800000638B60704700BF00ED00E0003802404B
:101A900010300024034B0360034B0B608023136062
:101AA000704700BFB4020020B400002070B59CB0A5
:101AB0001E4C15AD26460FCE0FC596E8070085E8EB
:101AC0000700002115A802F0E4FD194B18600EADC7
:101AD00004F11C060FCE0FC596E8070085E8070045
:101AE00000210EA802F0D5FD124B186007AD04F1DD
:101AF00038060FCE0FC596E8070085E807000021DD
:101B000007A802F0C6FD0C4B18606D4654340FCC8C
:101B10000FC594E8070085E807000021684602F039
:101B2000B8FD064B18601CB070BD00BF089E0008D1
:101B3000DC4E0020344F0020E46F00208C4F00204A
:101B400010B588B000220146322001F0BDF93220E4
:101B500001F0EEF900240194144B1A6C42F00802D3
:101B60001A641B6C03F008030193019B02A903A8EC
:101B700001F07EF801F05CF843000D48A0FB032360
:101B80009B0C013B0B480C4A026040F2E732C260FA
:101B900043600461846000F0D3F910B1012008B003
:101BA00010BD044800F09EF8F9E700BF003802407D
:101BB00083DE1B43E88F0020000C004070B4036AF2
:101BC00023F001030362036A4268846924F073040A
:101BD0000D6845EA040623F002048B6823430C4D8C
:101BE000A84202D00B4CA0420BD123F00803CD68D1
:101BF0002B4323F0040322F440724D6915438A6994
:101C00002A43426086614A684263036270BC70473F
:101C1000000001400004014030B4036A23F48073E3
:101C20000362036A4268C46924F073040D682C439C
:101C300023F400738D6843EA05230E4DA84203D0B8
:101C400005F58065A8420ED123F40063CD6843EA10
:101C5000052323F4806322F440524D6942EA0512C1
:101C60008D6942EA05124260C4614A68C263036238
:101C700030BC70470000014030B4036A23F4805345
:101C80000362036A4468C26922F4E6420D6842EACC
:101C9000052223F400538D6843EA0533094DA84219
:101CA00003D005F58065A84204D124F480444D6931
:101CB00044EA85144460C2614A680264036230BC2D
:101CC000704700BF000001407047022380F83930A0
:101CD0000268136843F001031360012380F8393070
:101CE000002070470268D36843F00103D3600268A4
:101CF000136843F00103136000207047704770477A
:101D00007047704710B5044603681A6912F0020F55
:101D100011D0DA6812F0020F0DD06FF002021A61D2
:101D20000123037603689B6913F0030F70D0FFF75C
:101D3000E6FF0023237623681A6912F0040F12D0FD
:101D4000DA6812F0040F0ED06FF004021A61022359
:101D5000237623689B6913F4407F5FD02046FFF70A
:101D6000CEFF0023237623681A6912F0080F12D0E1
:101D7000DA6812F0080F0ED06FF008021A6104231F
:101D800023762368DB6913F0030F4ED02046FFF75C
:101D9000B6FF0023237623681A6912F0100F12D0C1
:101DA000DA6812F0100F0ED06FF010021A610823DB
:101DB00023762368DB6913F4407F3DD02046FFF78C
:101DC0009EFF0023237623681A6912F0010F03D0C7
:101DD000DA6812F0010F36D123681A6912F0800F09
:101DE00003D0DA6812F0800F34D123681A6912F038
:101DF000400F03D0DA6812F0400F32D123681A691D
:101E000012F0200F03D0DA6812F0200F30D110BD8D
:101E1000FFF774FF2046FFF773FF8AE72046FFF7BE
:101E20006DFF2046FFF76CFF9BE72046FFF766FF3C
:101E30002046FFF765FFACE72046FFF75FFF20462F
:101E4000FFF75EFFBDE76FF001021A61204602F066
:101E5000E1FEC1E76FF080021A61204600F032FA1D
:101E6000C3E76FF040021A612046FFF74AFFC5E75B
:101E70006FF020021A61204600F023FAC7E7000045
:101E800003682E4A904212D0B0F1804F0FD0A2F5D5
:101E90007C4290420BD002F58062904207D002F55E
:101EA0008062904203D002F57842904203D123F041
:101EB00070034A681343214A90422AD0B0F1804F00
:101EC00027D0A2F57C42904223D002F58062904256
:101ED0001FD002F5806290421BD002F578429042FA
:101EE00017D002F57052904213D002F580629042F2
:101EF0000FD002F5806290420BD0A2F5983290424A
:101F000007D002F58062904203D002F580629042D1
:101F100003D123F44073CA68134303608B68C36220
:101F20000B688362054B984203D003F580639842A7
:101F300001D10B6903630123436170470000014035
:101F4000A8B110B5044690F839305BB1022384F88B
:101F50003930211D2068FFF793FF012384F83930C1
:101F6000002010BD80F83830FFF7AEFEEEE701200C
:101F70007047A8B110B5044690F839305BB1022320
:101F800084F83930211D2068FFF77AFF012384F897
:101F90003930002010BD80F83830FFF74DFAEEE7F9
:101FA00001207047002847D0F8B505460C4690F848
:101FB0003930002B3BD0022385F83930294651F8BF
:101FC000042B936823F0070393602868FFF758FFFA
:101FD00029688A688E690F6A2068104326F4407663
:101FE00026F00306A268A36942EA0323334323F4DD
:101FF0007C4323F0FC03E668E26946EA02261E43BE
:10200000226A1303226943EA0213334327F0AA0723
:102010006268646942EA04123A43886029688B6105
:102020002B681A62012385F839300020F8BD80F84A
:102030003830FFF753F9BEE70120704730B4036A28
:1020400023F010030362036A4468826922F4E642C3
:102050000D6842EA052223F020038D6843EA051348
:102060000E4DA84203D005F58065A8420ED123F09D
:102070008003CD6843EA051323F0400324F4406451
:102080004D6944EA85048D6944EA850444608261AF
:102090004A688263036230BC704700BF00000140A1
:1020A00038B590F83830012B66D00D460446012330
:1020B00080F83830022380F839300C2A1AD8DFE84B
:1020C00002F007191919201919193419191947009B
:1020D0000068FFF773FD2268936943F0080393617A
:1020E0002268936923F00403936122689369296944
:1020F0000B439361012384F83930002084F83800C1
:1021000038BD0068FFF79AFF2268936943F40063C3
:1021100093612268936923F48063936122689369D1
:10212000296943EA01239361E4E70068FFF774FD3E
:102130002268D36943F00803D3612268D36923F08E
:102140000403D3612268D36929690B43D361D1E7C2
:102150000068FFF791FD2268D36943F40063D361FF
:102160002268D36923F48063D3612268D369296923
:1021700043EA0123D361BDE70220C1E710B4012384
:1021800003FA01F4036A23EA04030362036A8A4040
:10219000134303625DF8044B7047000010B504461A
:1021A00001220068FFF7EAFF2368094A934203D03F
:1021B00002F58062934203D15A6C42F400425A64A1
:1021C0002268136843F001031360002010BD00BFB4
:1021D0000000014010B5044661B1042916D0012267
:1021E00000210068FFF7CAFF012204212068FFF7E1
:1021F000C5FF04E0012200210068FFF7BFFF22684D
:10220000136843F001031360002010BD0122042174
:102210000068FFF7B3FFF2E790F83830012B22D0C7
:1022200030B4012280F83820022380F83930046865
:10223000636823F070036360046863680D682B4370
:1022400063600468A36823F08003A3600468A36844
:1022500049680B43A36080F83920002380F83830A8
:10226000184630BC70470220704790F83830012B78
:1022700025D0012380F83830CB6823F440738A6876
:10228000134323F480634A68134323F400630A680A
:10229000134323F480530A69134323F400534A6918
:1022A000134323F480438A69134323F40043134305
:1022B00002685364002380F83830184670470220C3
:1022C00070477047704700002DE9F84304460168E5
:1022D0000A6922F44052C36813430B610168CA685B
:1022E00022F4164222F00C028368006903436069FD
:1022F0000343E06903431343CB6021684A6922F436
:102300004072A36913434B61E369B3F5004F60D09A
:102310002368B84A934200F0148102F58062934228
:1023200000F00F8100F084FC00EB800000EB8000E7
:102330006568AD00B0FBF5F5AF4FA7FB05356D093E
:102340002E0100F075FC00EB800000EB800065685A
:10235000AD00B0FBF5F900F06BFC00EB800000EB8A
:1023600080006568AD00B0FBF5F5A7FB05356D098C
:102370004FF0640808FB15952D013235A7FB053594
:102380006D0905F0F005354400F052FC00EB8000CB
:1023900000EB80006668B600B0FBF6F600F048FC83
:1023A00000EB800000EB800063689B00B0FBF3F063
:1023B000A7FB0030400908FB10684FEA081808F135
:1023C0003208A7FB0837C7F3431723682F449F60E1
:1023D0000DE12368874A93425BD002F58062934205
:1023E00057D000F025FC00EB800000EB8000656812
:1023F0006D00B0FBF5F5804FA7FB05356D092E018B
:1024000000F016FC00EB800000EB800065686D00BA
:10241000B0FBF5F900F00CFC00EB800000EB800055
:1024200065686D00B0FBF5F5A7FB05356D094FF04C
:10243000640808FB1595ED003235A7FB05356D09DD
:102440006D0005F4F875354400F0F2FB00EB8000F8
:1024500000EB800066687600B0FBF6F600F0E8FB63
:1024600000EB800000EB800063685B00B0FBF3F3DF
:10247000A7FB03235B0908FB13684FEAC80808F1B0
:102480003208A7FB0837C7F3421723682F449F6021
:10249000ADE000F0DDFB00EB800000EB8000656844
:1024A0006D00B0FBF5F5544FA7FB05356D092E0106
:1024B00000F0CEFB00EB800000EB800065686D0053
:1024C000B0FBF5F900F0C4FB00EB800000EB8000EE
:1024D00065686D00B0FBF5F5A7FB05356D094FF09C
:1024E000640808FB1595ED003235A7FB05356D092D
:1024F0006D0005F4F875354400F0AAFB00EB800090
:1025000000EB800066687600B0FBF6F600F0A0FBFA
:1025100000EB800000EB800063685B00B0FBF3F32E
:10252000A7FB03235B0908FB13684FEAC80808F1FF
:102530003208A7FB0837C7F3421723682F449F6070
:1025400055E000F085FB00EB800000EB8000656843
:10255000AD00B0FBF5F5284FA7FB05356D092E0141
:1025600000F076FB00EB800000EB80006568AD00BA
:10257000B0FBF5F900F06CFB00EB800000EB800095
:102580006568AD00B0FBF5F5A7FB05356D094FF0AB
:10259000640808FB15952D013235A7FB05356D093B
:1025A00005F0F005354400F053FB00EB800000EB34
:1025B00080006668B600B0FBF6F600F049FB00EB61
:1025C000800000EB800063689B00B0FBF3F0A7FB8A
:1025D0000030400908FB10684FEA081808F132087B
:1025E000A7FB0837C7F3431723682F449F60BDE854
:1025F000F88300BF001001401F85EB5158B310B5A0
:10260000044690F839300BB3242384F8393022681B
:10261000D36823F40053D3602046FFF755FE2268A9
:10262000136923F4904313612268536923F02A034A
:1026300053612268D36843F40053D3600020E06301
:10264000202384F8393084F83A3010BD80F83830CF
:10265000FFF706F9D8E7012070470000002800F0D6
:10266000BB8170B582B00446036813F0010F3BD004
:10267000A74B9B6803F00C03042B2CD0A44B9B6846
:1026800003F00C03082B21D06368B3F5803F4FD0D3
:10269000B3F5A02F52D09E4B1A6822F480321A60F4
:1026A0001A6822F480221A606368002B50D000F070
:1026B00071FC0546964B1B6813F4003F14D100F0E3
:1026C00069FC401B6428F5D903208AE1904B5B68C4
:1026D00013F4800FD8D08E4B1B6813F4003F03D047
:1026E0006368002B00F07A81236813F0020F55D045
:1026F000874B9B6813F00C0F3ED0854B9B6803F013
:102700000C03082B33D0E368002B68D0814B0122E7
:102710001A6000F03FFC05467D4B1B6813F0020F6A
:1027200054D100F037FC401B0228F5D9032058E1B2
:10273000774A136843F480331360B5E7744B1A6823
:1027400042F480221A601A6842F480321A60ABE7C1
:1027500000F020FC05466E4B1B6813F4003FC3D00D
:1027600000F018FC401B6428F5D9032039E1684BC0
:102770005B6813F4800FC6D1654B1B6813F0020F22
:1027800004D0E368012B01D001202AE1604A1368DC
:1027900023F0F803216943EAC1031360236813F0AF
:1027A000080F40D0636963B35B4B01221A6000F0ED
:1027B000F1FB0546564B5B6F13F0020F33D100F06F
:1027C000E9FB401B0228F5D903200AE1504A1368AF
:1027D00023F0F803216943EAC1031360DEE74D4BA0
:1027E00000221A6000F0D6FB0546494B1B6813F027
:1027F000020FD3D000F0CEFB401B0228F5D90320F6
:10280000EFE0454B00221A6000F0C4FB0546404B48
:102810005B6F13F0020F06D000F0BCFB401B0228D8
:10282000F5D90320DDE0236813F0040F79D0384B8D
:102830001B6C13F0805F33D100230193344B1A6C6F
:1028400042F080521A641B6C03F080530193019B89
:102850000125324B1B6813F4807F23D0A368012B22
:1028600034D0052B38D02A4B1A6F22F001021A6798
:102870001A6F22F004021A67A368002B36D000F00A
:1028800089FB0646224B1B6F13F0020F48D100F064
:1028900081FB801B41F288339842F3D90320A0E0EA
:1028A0000025D6E71D4A136843F48073136000F0D7
:1028B00071FB0646194B1B6813F4807FCED100F0E4
:1028C00069FB801B0228F5D903208AE0104A136FA8
:1028D00043F001031367CFE70D4B1A6F42F0040278
:1028E0001A671A6F42F001021A67C5E700F052FB3F
:1028F0000646074B1B6F13F0020F11D000F04AFB86
:10290000801B41F288339842F3D9032069E000BF6D
:102910000038024000004742800E474200700040ED
:10292000E5B9A369002B5BD0304A926802F00C0233
:10293000082A58D0022B17D02D4B00221A6000F025
:1029400029FB0446294B1B6813F0007F42D000F09E
:1029500021FB001B0228F5D9032042E0234A136C17
:1029600023F080531364DCE7214B00221A6000F04F
:1029700011FB05461D4B1B6813F0007F06D000F0CD
:1029800009FB401B0228F5D903202AE0E369226AEB
:102990001343626A43EA8213A26A5208013A43EA85
:1029A0000243E26A43EA0263104A5360104B012279
:1029B0001A6000F0EFFA04460C4B1B6813F0007F1E
:1029C00006D100F0E7FA001B0228F5D9032008E041
:1029D000002006E0002004E001207047012000E014
:1029E000002002B070BD0120FBE700BF00380240AC
:1029F00060004742324B9B6803F00C03042B5CD011
:102A0000082B01D02F4870472DE9F04B2C4B5A680A
:102A100002F03F025B6813F4800F2BD0284B5B68F9
:102A2000C3F388131E4600275C010025E41A65EBFA
:102A30000705A90141EA9461A001001B61EB0501B2
:102A4000CB0043EA5073C400A01943EB07014B02CB
:102A500043EAD0534402204619460023FEF706F904
:102A6000174B5B68C3F3014301335B00B0FBF3F02A
:102A7000BDE8F08B124B5B68C3F388131E4600273A
:102A80005C010025E41A65EB0705A90141EA9461A0
:102A9000A001001B61EB0501CB0043EA5073C400A9
:102AA000A01943EB07018B0243EA905384022046AE
:102AB00019460023FEF7DAF8D2E70348704700BF53
:102AC000003802400024F40000127A00002800F0D0
:102AD0009D8070B504464F4B1B6803F00F038B427B
:102AE00009D2CBB24B4A1370136803F00F038B4229
:102AF00001D0012070BD236813F0020F17D013F02E
:102B0000040F04D0444A936843F4E053936023686D
:102B100013F0080F04D0404A936843F46043936075
:102B20003D4A936823F0F003A068034393600D4689
:102B3000236813F0010F32D06368012B21D09A1E55
:102B4000012A25D9344A126812F0020F60D03249A6
:102B50008A6822F0030213438B6000F01BFA0646DA
:102B60002D4B9B6803F00C036268B3EB820F16D009
:102B700000F010FA801B41F288339842F0D903200C
:102B8000B8E7254A126812F4003FE0D10120B1E70E
:102B9000214A126812F0007FD9D10120AAE71D4B0B
:102BA0001B6803F00F03AB4209D9EAB2194B1A7044
:102BB0001B6803F00F03AB4201D001209AE72368A2
:102BC00013F0040F06D0144A936823F4E053E1682D
:102BD0000B439360236813F0080F07D00E4A9368E5
:102BE00023F46043216943EAC1039360FFF702FFC6
:102BF000094B9B68C3F30313084AD35CD840084BC6
:102C000018600020FEF79CFF002073E7012070474A
:102C100001206FE7003C024000380240789E000827
:102C200004000020014B1868704700BF040000201A
:102C300008B5FFF7F7FF044B9B68C3F38223034AF1
:102C4000D35CD84008BD00BF00380240889E000811
:102C500008B5FFF7E7FF044B9B68C3F34233034A11
:102C6000D35CD84008BD00BF00380240889E0008F1
:102C70000F2303600B4B9A6802F0030242609A68CC
:102C800002F0F00282609A6802F4E052C2609B682F
:102C9000DB0803F4E0530361034B1B6803F00F03ED
:102CA0000B60704700380240003C024000230F2BAD
:102CB00000F2D780F0B482B039E0072200E00022B1
:102CC000B2403A430234674E46F82420664A1468FC
:102CD000EA4302EA04064F6817F4803F01D045EA50
:102CE0000406614C2660646802EA04064F6817F423
:102CF000003F01D045EA04065B4C6660A46802EA26
:102D000004064F6817F4801F01D045EA0406564CAC
:102D1000A660E46822404E6816F4001F01D045EA20
:102D20000402514CE26001330F2B00F29780012224
:102D30009A400C6804EA0205AA42F4D14C68022CBD
:102D400001D0122C10D1DE08083650F826C003F04E
:102D50000704A7000F24BC402CEA040C0C69BC40FB
:102D600044EA0C0440F8264004685F000326BE4095
:102D7000F64306EA040C4C6804F00304BC4044EA41
:102D80000C0404604C6804F1FF3CBCF1010F03D952
:102D9000112C01D0122C10D1846806EA040CCC68E6
:102DA000BC4044EA0C048460446824EA02024C6893
:102DB000C4F300149C4014434460C26816408A68FF
:102DC000BA403243C2604A6812F0805FABD0002242
:102DD0000192264A546C44F480445464526C02F4C8
:102DE00080420192019A9C08A61C1E4A52F8267045
:102DF00003F0030296000F22B24027EA02071C4AA2
:102E000090423FF45CAF02F5806290421AD002F526
:102E10008062904218D002F58062904216D002F58E
:102E20008062904214D002F58062904212D002F586
:102E30008062904210D002F5806290423FF43DAF34
:102E400008223DE701223BE7022239E7032237E768
:102E5000042235E7052233E7062231E702B0F0BC51
:102E60007047704700380140003C01400038024084
:102E70000000024012B90904816170478161704706
:102E8000436959404161704708B5054B5B6903428E
:102E900000D108BD024B586103F08AFCF9E700BF7E
:102EA000003C0140074AD36823F4E0631B041B0C79
:102EB000000200F4E060184340F0BF6040F40030CE
:102EC000D060704700ED00E030B4174BDB68C3F30F
:102ED0000223C3F10704042C28BF04241D1D062D62
:102EE00018D9033B4FF0FF3505FA04F421EA040139
:102EF000994005FA03F322EA0303194300280BDB88
:102F00000901C9B200F1604000F5614080F800138A
:102F100030BC70470023E5E700F00F000901C9B29B
:102F2000024B1954F4E700BF00ED00E014ED00E09F
:102F300000F01F02400901239340024A42F820306A
:102F4000704700BF00E100E008B50B4B1A6842F47F
:102F500000721A601A6842F480621A601A6842F4B9
:102F600080721A600320FFF79DFF0020FEF7E8FD46
:102F7000FEF748FD002008BD003C0240034A1168EE
:102F8000034B1B780B441360704700BF2490002054
:102F900008000020014B1868704700BF24900020F3
:102FA00038B50446FFF7F6FF0546B4F1FF3F02D0FF
:102FB000044B1B781C44FFF7EDFF401BA042FAD3E3
:102FC00038BD00BF08000020494B5A6822F4403247
:102FD0005A605A6841680A435A600268536823F489
:102FE0008073536002685368016943EA01235360A8
:102FF0000268536823F04073536002685368816825
:103000000B4353600268936823F400639360026883
:103010009368C1680B439360826A364B9A4249D0E9
:103020000268936823F07063936002689368816A12
:103030000B4393600268936823F0405393600268E7
:103040009368C16A0B4393600268936823F002039C
:10305000936002689368816943EA41039360036A5D
:10306000002B32D10268536823F400635360026876
:10307000D36A23F47003D3620168CB6AC269013A50
:1030800043EA0253CB620268936823F400739360AF
:1030900002689368016B43EA412393600268936876
:1030A00023F48063936002689368416943EA812353
:1030B000936070470268936823F0706393600268BE
:1030C000936823F040539360BEE70268536843F46B
:1030D000006353600268536823F4604353600168DF
:1030E0004B68426A013A43EA42334B60BFE700BF94
:1030F000002301400100000F30B310B50446036CFB
:1031000043B1236C13F0100F0AD00120002384F880
:103110003C3010BD436480F83C30FEF739FBF0E7EB
:10312000236C23F4885323F0020343F00203236447
:103130002046FFF749FF00206064236C23F003035F
:1031400043F001032364E1E70120704782B00023CC
:10315000019390F83C30012B63D0012380F83C3080
:1031600003689A6812F0010F13D19A6842F00102C5
:103170009A60304B1B68304AA2FB03239B0C03EB85
:103180004303019302E0019B013B0193019B002B50
:10319000F9D10268936813F0010F44D0036C23F453
:1031A000E06323F0010343F480730364536813F472
:1031B000806F05D0036C23F4405343F480530364C1
:1031C000036C13F4805F19D0436C23F0060343644F
:1031D000002380F83C306FF022031360174B5B68CC
:1031E00013F01F0F0DD103689A6812F0405F1DD1D4
:1031F0009A6842F080429A60002015E00023436400
:10320000E6E703680E4A934201D000200CE09A687A
:1032100012F0405F0CD19A6842F080429A60002020
:1032200002E0022000E0002002B070470020FBE72F
:103230000020F9E70400002083DE1B430023014047
:103240000020014030B482B00023019390F83C305C
:10325000012B00F0B780012380F83C300B68092B6C
:103260003ED90568EA689BB203EB43031E3B072483
:1032700004FA03F322EA0303EB600568EA688C684A
:103280000B8803EB43031E3B04FA03F31343EB6089
:103290004B68062B3AD805686A6B03EB8303053B42
:1032A0001F2404FA03F322EA03036B6305686A6BC5
:1032B0004B6803EB8303053B0C8804FA03F31343C9
:1032C0006B630268404B9A4250D002683E4B9A4270
:1032D00055D0002380F83C30184602B030BC70470F
:1032E00005682A699BB203EB4303072404FA03F33E
:1032F00022EA03032B6105682A698C680B8803EBBB
:10330000430304FA03F313432B61C1E70C2B16D8D4
:1033100005682A6B03EB8303233B1F2404FA03F3A2
:1033200022EA03032B6305682A6B4B6803EB8303D4
:10333000233B0C8804FA03F313432B63C1E70568AE
:10334000EA6A03EB8303413B1F2404FA03F322EAF6
:103350000303EB620568EA6A4B6803EB8303413BB6
:103360000C8804FA03F31343EB62AAE70B68122BF1
:10337000ABD1164A536843F480035360A5E70B684A
:10338000103B012BA5D8114A536843F40003536046
:103390000B68102B9DD10E4B1B6802F1467202F593
:1033A0002E3202F28332A2FB03239B0C03EB830336
:1033B0005A00019202E0019B013B0193019B002B0B
:1033C000F9D186E7022088E7002001400023014070
:1033D0000400002090F83C30012B00F0F98030B45C
:1033E000012380F83C300B68092B7DD90568EA6819
:1033F0009BB203EB43031E3B072404FA03F322EAC8
:103400000303EB600568EA688C680B8803EB4303F1
:103410001E3B04FA03F31343EB600268936B23F43F
:10342000401393630468A36B0A69013A43EA0253A9
:10343000A3630568AA6B4B680C691B1BDBB20333E3
:10344000DBB203EB83031F2404FA03F322EA030332
:10345000AB630568AA6B4B680C691B1BDBB20333BB
:10346000DBB203EB83030C8804FA03F31343AB636F
:10347000CA69584B9A424DD00268936823F470236E
:10348000936002689368CC692343936002689368F1
:1034900023F440139360026893680C6A234393609B
:1034A0008B69002B41D00268536843F480635360FA
:1034B0004B69002B3FD00268536843F4805353603C
:1034C0004B68022B57D0032B62D0012B39D00268F6
:1034D000136A23F47F6323F00F0313620268136AF5
:1034E000CC682343136238E005682A699BB203EB7A
:1034F0004303072404FA03F322EA03032B6105685C
:103500002A698C680B8803EB430304FA03F3134323
:103510002B6182E70268936823F47023936002684A
:10352000936823F440139360BAE70268536823F466
:1035300080635360BCE70268536823F48053536090
:10354000BEE70268536923F47F6323F00F035361DE
:1035500002685369CC682343536102681E4B9A4248
:1035600023D002681C4B9A4228D0002380F83C30BC
:10357000184630BC70470268936923F47F6323F0D8
:103580000F03936102689369CC6823439361E4E776
:103590000268D36923F47F6323F00F03D3610268C9
:1035A000D369CC682343D361D7E70B68122BD8D1FA
:1035B0000A4A536843F480035360D2E70B68103B18
:1035C000012BD2D8054A536843F400035360CCE77B
:1035D0000220704701000F0000200140002301403D
:1035E00003685A6912F4806F0DD06FF480625A61DB
:1035F0000423036400230363202280F83D2080F825
:103600003C300120704700207047F8B506460C4654
:1036100017461D461EE02DB1FFF7BCFC069BC01AE5
:10362000A84217D900233363202286F83D2086F86C
:103630003E3086F83C3003201AE033685B6924EAA8
:1036400003039BB2B3FA83F35B099F420FD1B5F139
:10365000FF3FE0D1C4F30743012BEED033689B69F1
:1036600024EA03039BB2B3FA83F35B09EDE700207E
:10367000F8BDF8B504460D4616461F4632E01A68F6
:1036800042F400721A6023686FF480625A61042366
:10369000236400232363202284F83D2084F83C30F7
:1036A00001202DE026B1FFF775FCC01BB04219D9EF
:1036B00000232363202284F83D2084F83C3003203B
:1036C0001EE023685B6925EA03039BB2003318BF41
:1036D0000123A3B123685A6912F4806FCFD1B6F1E8
:1036E000FF3FDFD1C5F30743012BEAD023689B6975
:1036F00025EA03039BB2003318BF0123E9E700204A
:10370000F8BD0000F0B583B004460D4616461F46CE
:10371000C36A042B0DD0012B0BD013F5803F08D0CA
:10372000036B122B0AD10268136843F48073136091
:1037300004E02268136843F48073136000973346F3
:1037400000224FF001112046FFF75FFF58BB2369AD
:10375000B3F5804F10D1236805F0FE051D613B468F
:10376000324615492046FFF784FF0346E0B1236C3B
:10377000042B1ED1012317E0EB11226803F006038E
:1037800043F0F00313613B4632460C492046FFF7F5
:1037900070FF20B1236C042B09D1012304E02368BE
:1037A000EDB21D61DBE70323184603B0F0BD032330
:1037B000FAE70323F8E700BF020001000800010058
:1037C0002DE9F04184B004460D4616461F46C26AF4
:1037D00001680B6843F480630B60042A0DD0012A52
:1037E0000BD012F5803F08D0036B112B0AD1026871
:1037F000136843F48073136004E02268136843F491
:10380000807313600097334600224FF00111204669
:10381000FFF7FBFE002852D12369B3F5804F12D188
:10382000236845F00105EDB21D613B4632462A4949
:103830002046FFF71EFF0346002841D0236C042BCF
:1038400048D101233CE04FEAE51808F00608236858
:1038500048F0F0021A613B46324620492046FFF705
:1038600008FF20B1236C042B2ED1012328E023680C
:10387000EDB21D613B46324617492046FFF7F9FE7F
:1038800020B1236C042B21D1012319E000220392E3
:10389000236859690391996903910399196841F45F
:1038A00080711960009733464FF001112046FFF7F1
:1038B000ACFE68B9226848F0F1031361B5E7032351
:1038C000184604B0BDE8F0810323F9E70323F7E7C6
:1038D0000323F5E70323F3E70200010008000100DA
:1038E00070B504460D46164623685B6913F0800FD9
:1038F00019D12046FFF774FEB8B9B5F1FF3FF3D0F8
:1039000025B1FFF747FB801BA842EDD9236C43F09C
:103910002003236400232363202284F83D2084F8BD
:103920003C30032000E0002070BD0120FCE770B5B2
:1039300004460D46164623685B6913F0040F19D13F
:103940002046FFF74DFEB8B9B5F1FF3FF3D025B1E2
:10395000FFF720FB801BA842EDD9236C43F0200326
:10396000236400232363202284F83D2084F83C3024
:10397000032000E0002070BD0120FCE770B5054683
:103980000C4616462B685A6912F0400F22D15A692C
:1039900012F0100F11D124B1FFF7FCFA801BA042E6
:1039A000F0D92B6C43F020032B64202385F83D30A5
:1039B000002385F83C30032070BD6FF010025A617F
:1039C00000232B642B63202285F83D2085F83C30B2
:1039D0000120F1E70020EFE7002800F0828010B519
:1039E000044690F83D30002B41D0242384F83D302C
:1039F0002268136823F001031360FFF719F93A4BAB
:103A0000A3FB00239B0C226853606168374A9142F4
:103A100032D80133226813626368344A934235D83E
:103A20005B00B0FBF3F0C0F30B03032B00D80420C2
:103A30002368D861E369216A22680B431360236914
:103A4000E16822680B4393606369A16922680B43B4
:103A5000D3602268136843F00103136000202064E0
:103A6000202384F83D30206384F83E0010BD80F8A8
:103A70003C30FDF7D5FDB8E74FF4967202FB03F337
:103A80001B4AA2FB03239B090133C3E7A16889B941
:103A900003EB4302B0FBF2F2C2F30B02B2FA82F282
:103AA0005209E2B991B903EB4303B0FBF3F040F4E0
:103AB0000040BDE703EB830202EB8202B0FBF2F2AF
:103AC000C2F30B02B2FA82F25209EAE703EB830374
:103AD00003EB8303B0FBF3F040F44040A8E7012080
:103AE000A6E70120704700BF83DE1B43A0860100CC
:103AF000D34D62102DE9F04184B004460E46904645
:103B00001F46FFF747FA94F83D30DBB2202B04D074
:103B10000226304604B0BDE8F08105460090192326
:103B2000012254492046FFF770FD002840F099809B
:103B300094F83C30012B00F09680012384F83C304F
:103B400023681A6812F0010F03D11A6842F00102CB
:103B50001A602268136823F400631360212384F839
:103B60003D30102384F83E3000232364C4F82480C1
:103B70006785A3F58033E362638D23852B460A9A1C
:103B800031462046FFF7BEFD064660B1236C042B8C
:103B900004D1002384F83C300126BAE7002384F8DE
:103BA0003C300326B5E70023039323685A69039248
:103BB0009B690393039B10E0236C042B55D122686F
:103BC000136843F4007313600126A2E72A460A999A
:103BD0002046FFF7ACFE00282BD1238D002B32D0DE
:103BE0002A460A992046FFF77BFE0028E4D1636A43
:103BF0005A1C626222681B781361638D013B9BB281
:103C00006385238D013B9BB223852268516911F0A6
:103C1000040FDBD0002BD9D0636A591C61621B787A
:103C20001361638D013B9BB26385238D013B23852B
:103C3000CCE7236C042B1AD12268136843F4007379
:103C40001360012665E72268136843F4007313606C
:103C5000202384F83D30002384F83E3084F83C3043
:103C600057E7022655E7022653E7032651E70326C6
:103C70004FE700BF020010002DE9F04186B0044676
:103C80000E4690461F46FFF785F994F83D30DBB2AB
:103C9000202B04D00226304606B0BDE8F081054650
:103CA0000090192301228C492046FFF7AEFC002822
:103CB00040F04B8194F83C30012B00F04881012307
:103CC00084F83C3023681A6812F0010F03D11A6897
:103CD00042F001021A602268136823F40063136043
:103CE000222384F83D30102384F83E3000232364DF
:103CF000C4F824806785A3F58033E362638D238550
:103D00002B460C9A31462046FFF75AFD064660B115
:103D1000236C042B04D1002384F83C300126BAE73D
:103D2000002384F83C300326B5E7238D5BB902936A
:103D300023685A6902929A690292029A1A6842F4B6
:103D400000721A607AE0012B0FD0022B1FD022687C
:103D5000136843F4806313600023059323685A6952
:103D600005929B690593059B68E02268136823F41C
:103D7000806313600023039323685A6903929A694E
:103D80000392039A1A6842F400721A6056E022689D
:103D9000136823F4806313602268136843F400639C
:103DA00013600023049323685A6904929B69049367
:103DB000049B43E02A460C992046FFF7DFFD68B9D3
:103DC00023681A69636A591C61621A70238D013B6A
:103DD0002385638D013B9BB263852FE0236C202BF1
:103DE00001D0012657E7032655E700950C9B0022DA
:103DF0003A492046FFF709FC002840F0AA802268D3
:103E0000136843F40073136023681A69636A591CCA
:103E100061621A70238D013B2385638D013B9BB248
:103E2000638523681A69636A591C61621A70238D5D
:103E3000013B2385638D013B9BB26385238D002B62
:103E40007AD0032B4CD8012BB4D0022BCDD00095C7
:103E50000C9B002221492046FFF7D7FB00287AD18E
:103E60002268136823F48063136023681A69636A05
:103E7000591C61621A70238D013B2385638D013BC0
:103E80009BB2638500950C9B002214492046FFF7E6
:103E9000BCFB002861D12268136843F400731360EF
:103EA00023681A69636A591C61621A70238D013B89
:103EB0002385638D013B9BB2638523681A69636A1E
:103EC000591C61621A70238D013B2385638D013B70
:103ED0009BB26385B2E700BF02001000040001003E
:103EE0002A460C992046FFF749FDF0B923681A6964
:103EF000636A591C61621A70238D013B2385638DAF
:103F0000013B9BB2638523685A6912F0040F95D078
:103F10001A69636A591C61621A70238D013B2385FB
:103F2000638D013B9BB2638588E7236C202B01D016
:103F30000126B0E60326AEE6202384F83D300023B8
:103F400084F83E3084F83C30A5E60226A3E602263B
:103F5000A1E603269FE603269DE603269BE600BF17
:103F600000F1080343604FF0FF328260C3600361D9
:103F700000230360704700230361704743684B6070
:103F80009A688A609A685160996008610368013391
:103F90000360704730B40D68B5F1FF3F02D000F107
:103FA000080202E0026904E01A4653681C68AC4249
:103FB000FAD953684B6099608A6051600861036860
:103FC0000133036030BC70470369426881689160C7
:103FD0008268416851605A68824205D000220261BD
:103FE000186801381860704782685A60F6E7000068
:103FF000084B1B681B683BB1064B1B68DB68DB6822
:104000005A68054B1A607047034B4FF0FF321A6035
:10401000704700BF0C030020E00300202DE9F047AB
:1040200080469946089D099F0A9C266B02F18042B2
:10403000013A06EB820626F0070600230F2B07D86D
:10404000C85CE21882F83400CA5C0AB10133F5E7B3
:10405000002384F84330062D00D90625E562656407
:104060004FF0000AC4F848A0201DFFF784FF04F1B8
:104070001800FFF780FF2461C5F10705A5616462A0
:10408000C4F84CA084F850A04A464146304600F09F
:1040900057FB206007B13C60BDE8F08738B50024CD
:1040A00007E004EB840293000E481844FFF758FF22
:1040B0000134062CF5D90C4D2846FFF751FF0B4C67
:1040C0002046FFF74DFF0A48FFF74AFF0948FFF770
:1040D00047FF0948FFF744FF084B1D60084B1C6071
:1040E00038BD00BF14030020B8030020CC0300201B
:1040F000E803002014040020000400200C0300202A
:104100001003002010B5044600F044FB204A136859
:10411000013313601F4B1B685BB11F4B1B686BB9EE
:104120001C4B1B68DA6AE36A9A4207D8194B1C6079
:1041300004E0184B1C601368012B26D0174A136843
:1041400001331360E36A01229A401549086802436B
:104150000A6003EB83039A00211D12481044FFF705
:104160000DFF00F039FB0C4B1B686BB1094B1B6852
:10417000DA6AE36A9A4207D20B4B4FF080521A6018
:10418000BFF34F8FBFF36F8F10BDFFF787FFD5E7EA
:10419000A003002008030020FC030020B00300203F
:1041A000B40300201403002004ED00E070B50446C1
:1041B0000E461D4B1D681D4B18680430FFF704FFA9
:1041C00050B91A4B1B68DA6A012303FA02F2184944
:1041D0000B6823EA02030B60B4F1FF3F13D02C44B9
:1041E000124B1B685C60A54216D8124B18680F4B27
:1041F00019680431FFF7CEFE0F4B1B68A34212D99A
:104200000D4B1C600FE0002EE9D0084B19680431FB
:104210000A48FFF7B3FE06E0094B1868034B19681C
:104220000431FFF7B7FE70BD28040020080300200A
:10423000B40300200C030020E00300200004002051
:104240001003002030B587B00B9D0C9C4DB18CB98C
:104250004FF0500383F31188BFF36F8FBFF34F8F7D
:10426000FEE74FF0500383F31188BFF36F8FBFF366
:104270004F8FFEE7256300250395029405AD019558
:104280000A9D0095FFF7CAFE2046FFF73BFF059801
:1042900007B030BD10B588B000240594069407AA75
:1042A00006A905A8FDF7F6FB059B0293069B019363
:1042B00000942346079A0D490D48FFF7C3FF08B93C
:1042C00008B010BD4FF0500383F31188BFF36F8F18
:1042D000BFF34F8F074B4FF0FF321A60064B01229E
:1042E0001A60064B1C6000F0F1FAE9E7C49E000872
:1042F000BD450008E0030020FC0300202804002046
:10430000024A136801331360704700BFAC030020FA
:10431000F8B53A4B1B68002B64D1394B1D68013549
:104320001D60C5B9374B1B681B6843B14FF0500384
:1043300083F31188BFF36F8FBFF34F8FFEE7314ACE
:104340001168314B186810601960304A13680133E6
:104350001360FFF74DFE2E4B1B68AB4238D900248B
:104360002C4B1B68DB6A03EB83039A002A4B9B5898
:10437000012B3CD901243AE00124224B1B681B6825
:1043800043B3204B1B68DB68DE6873689D4226D30D
:10439000371D3846FFF718FEB36A1BB106F1180047
:1043A000FFF712FEF36A01229A401C490868024393
:1043B0000A6003EB83039A00394617481044FFF75D
:1043C000DDFDF26A134B1B68DB6A9A42D4D2D4E754
:1043D0000024D2E70E4B4FF0FF321A60C0E70C4AC0
:1043E0001360BDE70E4A13680133136000240D4BC0
:1043F0001B6803B101242046F8BD00BFAC030020B8
:10440000280400200C03002010030020E4030020F7
:10441000E00300200803002014030020B403002060
:10442000A80300202C04002038B5334B1B6843B987
:104430004FF0500383F31188BFF36F8FBFF34F8F9B
:10444000FEE700F0A7F92C4B1A68013A1A601B68C6
:10445000002B4DD1294B1B6823B9002400F0BCF977
:10446000204638BD0024264B1B681BB3244BDB6859
:10447000DC6804F11800FFF7A7FD251D2846FFF7AB
:10448000A3FDE36A01229A401E49086802430A60BC
:1044900003EB83039A0029461B481044FFF76EFD87
:1044A000E26A1A4B1B68DB6A9A42DCD3184B012282
:1044B0001A60D8E70CB1FFF79BFD164B1C6854B18E
:1044C000FFF726FF10B1124B01221A60013CF7D111
:1044D000104B00221A600E4B1B685BB10E4B4FF065
:1044E00080521A60BFF34F8FBFF36F8F0124B5E77F
:1044F0000024B3E70024B1E7AC030020A0030020B0
:10450000E8030020B4030020140300200803002067
:104510002C040020A803002004ED00E010B5A8B191
:1045200004460F4B1B6843B14FF0500383F31188CF
:10453000BFF36F8FBFF34F8FFEE7FFF7E1FE002160
:104540002046FFF733FEFFF76FFF38B9054B4FF0FA
:1045500080521A60BFF34F8FBFF36F8F10BD00BF43
:10456000AC03002004ED00E0114B1B68FBB110B55B
:10457000FFF7C6FE0F4B1C68FFF756FF24B90C4B24
:104580001B68002BF4D110BD00F004F9094BDB6867
:10459000D8680430FFF718FD074A1368013B136021
:1045A000034A1368013B136000F016F9E7E7704710
:1045B000A403002014040020A003002008B5FFF786
:1045C000D3FF064B1B68012BF9D9054B4FF08052E6
:1045D0001A60BFF34F8FBFF36F8FF0E71403002013
:1045E00004ED00E0204B1B681BB1204B01221A6038
:1045F00070471E4B00221A601D4B1B68B3FA83F3F1
:10460000DBB2C3F11F0303EB83018A0019498A5807
:1046100042B94FF0500383F31188BFF36F8FBFF39C
:104620004F8FFEE710B413489A00D418A10001443C
:104630004C6864684C601A44910008310844844214
:104640000BD003EB83039A000A4B13445B68DA68D0
:10465000094B1A605DF8044B7047616805481422E5
:1046600002FB03025160ECE7AC0300202C040020A5
:10467000B40300201403002008030020842801D084
:10468000033070470020704708B5FFF703FE002095
:1046900008BD2DE9F04184B00446884645680668A7
:1046A0000769B0F90800FFF7E9FF6369A2690292A0
:1046B0000193009043463A4631462846FFF7C2FD33
:1046C00004B0BDE8F08108B5034600B901231846DF
:1046D000FFF724FF002008BD0B4B1B68B3F1FF3F21
:1046E00008D04FF0500383F31188BFF36F8FBFF3EF
:1046F0004F8FFEE74FF0500383F31188BFF36F8FA6
:10470000BFF34F8FFEE700BF0C0000200648006893
:10471000006880F3088862B661B6BFF34F8FBFF3BD
:104720006F8F00DF00BF000008ED00E0DFF80C0035
:10473000016841F4700101607047000088ED00E0FD
:104740004FF0807340F8043C21F0010140F8081C50
:10475000054B40F80C3C40F8202C6FF0020340F869
:10476000243C4438704700BFD946000800000000D0
:10477000074B19680868B0E8F04F80F30988BFF369
:104780006F8F4FF0000080F311887047AFF3008007
:10479000080300204FF0500383F31188BFF36F8F9D
:1047A000BFF34F8F0A4A136801331360012B00D007
:1047B0007047084B1B6813F0FF0FF9D04FF0500300
:1047C00083F31188BFF36F8FBFF34F8FFEE700BFF6
:1047D0000C00002004ED00E0094B1B6843B94FF0CA
:1047E000500383F31188BFF36F8FBFF34F8FFEE742
:1047F000013B034A13600BB983F31188704700BF74
:104800000C0000200000000000000000000000007C
:10481000EFF30980BFF36F8F154B1A681EF0100F6E
:1048200008BF20ED108A20E9F04F10604DF8043DDC
:104830004FF0500080F31188BFF34F8FBFF36F8F9D
:10484000FFF7D0FE4FF0000080F3118808BC196814
:104850000868B0E8F04F1EF0100F08BFB0EC108AE7
:1048600080F30988BFF36F8F704700BFAFF30080FC
:104870000803002008B54FF0500383F31188BFF3FD
:104880006F8FBFF34F8FFFF743FD18B1034B4FF00E
:1048900080521A60002383F3118808BD04ED00E004
:1048A000064B1B68064AA2FB03239B09013B054AF2
:1048B0001360054B07221A60704700BF04000020F8
:1048C000D34D621014E000E010E000E0314B1A68B4
:1048D000314B9A420DD02F4B1A68304B9A4211D16E
:1048E0004FF0500383F31188BFF36F8FBFF34F8FE7
:1048F000FEE74FF0500383F31188BFF36F8FBFF3D0
:104900004F8FFEE700B583B0254B1A78D2B20192E3
:10491000FF221A701B78DBB28DF803309DF803304C
:1049200003F050031F4A13701F4B07221A609DF8B3
:10493000033013F0800F0AD01B4A1368013B136049
:104940009DF803305B00DBB28DF80330EFE7164AC9
:1049500013681B0203F4E0631360019BDBB2104A8F
:104960001370124B1A6842F470021A601A6842F00F
:1049700070421A60FFF794FF0D4B00221A60FFF798
:10498000D5FE0C4A136843F040431360FFF7BEFEA8
:10499000FFF7A2FE00ED00E071C20F4170C20F41AF
:1049A00000E400E0300400203404002020ED00E0AA
:1049B0000C00002034EF00E0DFF834D0002103E0E9
:1049C0000C4B5B58435004310B480C4B42189A4235
:1049D000F6D30B4A02E0002342F8043B094B9A420B
:1049E000F9D3FDF731F804F0FBF900F05BF87047FC
:1049F0000000022070A300080000002098000020A2
:104A0000980000202C900020FEE7000030B595B003
:104A10003022002108A804F01AFA00240394049418
:104A200005940694079401941C4B1A6C42F0805232
:104A30001A641B6C03F080530193019B0294184B82
:104A40001A6842F480421A601B6803F480430293A0
:104A5000029B012308934FF48033099302250E959E
:104A60004FF480030F9304231093A82311931295FE
:104A70000723139308A8FDF7F1FD0F230393049573
:104A800005944FF4A05306934FF4805307930521E8
:104A900003A8FEF71BF815B030BD00BF0038024078
:104AA0000070004030B52DED028B85B0FEF74CFA5A
:104AB000FFF7ACFFFCF75AFAFCF77CFBFCF7ACFB0A
:104AC000FCF7DAFBFCF7FEFCFCF796FEFCF7AEFE0B
:104AD000FCF70CFE474C01224FF400512046FEF734
:104AE000C9F901224FF400412046FEF7C3F9FCF753
:104AF0005BFDFCF777FD00F0E5FE00224FF400516E
:104B00002046FEF7B7F900224FF400412046FEF799
:104B1000B1F900F077FA3848FEF718FB374804F08F
:104B2000CFFAFEF737FA0546FCF7C0FFFFF7ACFDFA
:104B30009FED338A03E0FEF72DFAA8421ED1F2EE74
:104B40000E7AB4EEE78AF1EE10FAF4DD294C4FF458
:104B500080512046FEF794F94FF400512046FEF7AD
:104B60008FF94FF480412046FEF78AF94FF4004157
:104B70002046FEF785F99FED228ADCE7214804F004
:104B80009FFAF7EE007A38EE278AFEF703FA054619
:104B900001F026F9DFED1A8A1B4CB0EE680A2046B8
:104BA00001F072FBB0EE680A04F1580001F06CFBF2
:104BB000B0EE680A154801F0E5FE0A2101A800F0F0
:104BC0009BFEDDED037AFDEEE77A17EE903ADDED20
:104BD000027AFDEEE77A17EE902ADDED017AFDEE1E
:104BE000E77A17EE901A0A4804F0E2F90A2004F076
:104BF000F7F9A4E7000C0240C04D0020CC9E00084D
:104C000000000000E09E0008C4040020740500209D
:104C1000E89E000808B50268034B9A4200D008BD20
:104C2000FEF7ACF9FBE700BF000C00407047FEE761
:104C300003680A6802600B607047704707EE901ABD
:104C4000F8EE676ADFED217A86EEA77A90ED016AC9
:104C5000D0ED025AD0ED037AC7EE876A76EE867AF7
:104C600027EE257A37EE467A36EEA66A37EE467A92
:104C700067EE807A90ED076A26EE077A77EE877AFC
:104C800090ED087A67EE266A77EEA67A90ED067ABE
:104C900077EE877AC0ED067A90ED047AF4EEC77A63
:104CA000F1EE10FA09DC90ED057AF4EEC77AF1EE38
:104CB00010FA04D580ED067A01E080ED067A80EDE9
:104CC000086A80ED070A90ED060A704700007A44F2
:104CD0007047D0ED016A90ED027AD0ED077A70EE60
:104CE000277AC0ED077A67EE877A90ED047AF4EEC2
:104CF000C77AF1EE10FA18DD0023C361F0EE477AAF
:104D000020EE260A70EE277AC0ED067AF4EEC77A16
:104D1000F1EE10FA15DC90ED057AF4EEC77AF1EEBB
:104D200010FA10D580ED067A0DE090ED056AF4EEEC
:104D3000C67AF1EE10FAE3D50023C361F0EE467AAD
:104D4000DEE780ED067A90ED060A704770470000B6
:104D5000084B094901F120029A63084ADA6340319D
:104D6000C3F890100C32C3F89420054A5A65C3F872
:104D7000AC207047C404002040040020A0040020A0
:104D800048E1FA3E024B034A9A60034ADA607047F0
:104D90007405002040040020B804002010B4154B16
:104DA0004FF080449C610022DA611A621248586216
:104DB000124999621C675A679A67D867C3F88010CE
:104DC0000F4B4FF07E5199620E49D9621A630E491A
:104DD00059630E4999634FF07851D9640C491965AC
:104DE0005A654FF07C529A654FF03F42DA655DF8A4
:104DF000044B7047C404002000008C4100008CC1AB
:104E0000740500200000C84248E11A4048E11AC079
:104E10006F12033A044B054A1A6001229A80044A31
:104E20009A6004229A817047C4040020000802405E
:104E300000000240034B044A934201D0583BFAE77A
:104E4000704700BF74050020C4040020F8B51F4C53
:104E50001F48A0611F4BA3600425A5812361012386
:104E6000A3820827E7611C4921601C4A6260A06395
:104E70001B4BA3624FF40063A3851A4B23634FF4CB
:104E80000046A686E56321626262A065A3644FF4D2
:104E90008072A4F84C2023654FF48063A4F854304A
:104EA0000C26E665104B2364104B6364FCF70DFF82
:104EB0003946A069FDF772F92946A06BFDF76EF936
:104EC0003146A06DFDF76AF9F8BD00BF400400202F
:104ED000284C0020000C024000006041CDCC4C3E2C
:104EE000000802400000024048E11A40CDCCCC3D11
:104EF00038B50F4C002323704FF4487525810D48B9
:104F000060601821FDF766F901232373A5820A4822
:104F100020611821FDF75EF90223237646F640232F
:104F200023840648E0611821FDF754F938BD00BF1D
:104F3000A0040020644C0020A04C0020DC4C002089
:104F4000012800D070474FF6FF739942FAD110B58F
:104F50001E4B002815DB0021196100229A61DA61DD
:104F60001A621B4C5C61DA621A635A6399631964B2
:104F70005A649A64DA641965D9635A6558330138FA
:104F8000E7E7144C22461449002002F0E8F91348E0
:104F9000002282600261002343618361C361026277
:104FA000C2608362C3620363094A4262C3630364EB
:104FB0004364C36403654365094A826403664366C8
:104FC0002246084902F0CBF910BD00BFC4040020FE
:104FD0004C9F000800000020354E0008740500209A
:104FE000609F00084D4D000810B50446202102F0D6
:104FF000BBF9204610BD10B50446242102F0B4F9D7
:10500000204610BD08B5FFF721FFFFF771FFFFF73E
:10501000C5FEFFF7FFFEFFF79BFEFFF7B3FE08BDDF
:1050200008B54FF6FF710120FFF78AFF08BD7047F2
:1050300070477047704770477047000010B50A48C6
:105040000A4B0360D02280F82820002280F830200C
:1050500080F83120064C23603C23237401F000FAD1
:10506000204601F07FF910BDFC050020184D0020FE
:10507000DC05002010B52DED028BF8B007EE900A8C
:10508000B8EE677ADFEDA67A87EE278A022211460C
:1050900067A801F0EDFC9DF8DC3113B19DF8DD311E
:1050A0001BB926219F48FFF7C2FD4FF07E5367933F
:1050B0009DF8DC311BB19DF8DD31012B03D8262191
:1050C0009848FFF7B4FDF1EE487ACDED687A9DF887
:1050D000DC31012B02D99DF8DD311BB92621914825
:1050E000FFF7A5FD00236B939DF8DC31012B40F207
:1050F00007819DF8DD31012B40F202814FF07E5394
:105100006C930122022156A801F0B2FC9DF898315F
:1051100013B19DF899311BB926218248FFF787FD0D
:105120008DED568A9DF89831012B02D99DF8993161
:105130001BB926217B48FFF77AFD00235A930222F0
:10514000012145A801F094FC9DF8543113B19DF85C
:1051500055311BB926217348FFF769FD4FF07E5387
:1051600045939DF854311BB19DF85531012B03D85F
:1051700026216C48FFF75BFD00234693022211466F
:1051800034A801F075FC9DF8103113B19DF8113170
:105190001BB926216348FFF74AFD634B34939DF802
:1051A00010311BB19DF81131012B03D826215D4828
:1051B000FFF73DFD002335939DF81031012B02D9F7
:1051C0009DF811311BB926215648FFF730FD002309
:1051D00038939DF81031012B40F297809DF81131E2
:1051E000012B40F29280504B39930222114623A8A2
:1051F00001F03EFC9DF8CC3013B19DF8CD301BB9C9
:1052000026214848FFF713FD484B23939DF8CC30E7
:105210001BB19DF8CD30012B03D826214148FFF763
:1052200006FD002324939DF8CC30012B02D99DF874
:10523000CD301BB926213B48FFF7F9FC002327930B
:105240009DF8CC30012B65D99DF8CD30012B61D96B
:10525000374B28930122114612A801F009FC9DF852
:10526000883013B19DF889301BB926212D48FFF7EE
:10527000DEFC304B129367A901A801F01FFC2E4CF5
:1052800001A9204601F097FD56A901A801F016FCDE
:1052900001A904F1440001F08EFD45A901A801F027
:1052A0000DFC01A904F1880001F085FD022101A88F
:1052B00001F003FD422201A904F1CC0003F0BCFD82
:1052C00034A901A801F0FAFB01A904F5887001F0E6
:1052D00072FD23A901A801F0F1FB01A904F5AA7050
:1052E00001F069FD12A901A801F0E8FB01A904F58C
:1052F000CC7001F060FD002078B0BDEC028B10BDD9
:1053000026210848FFF793FCF8E626210548FFF719
:105310008EFC68E726210348FFF789FC98E700BF69
:1053200000007A446C9F0008000020416F12833A0D
:10533000A69B443B0AD7233D3006002070B50446A7
:105340000E461546012202210C3001F091FB01228C
:10535000114604F1500001F08BFB0122114604F1CB
:10536000940001F085FB0122022104F1D80001F034
:105370007FFB01232371A6602560204670BD0000DD
:105380002DE9F0412DED028BADF52A7D0446B0EEFE
:10539000408A037913B303680846984700232371B2
:1053A00094F84C3013B194F84D301BB92621AF4816
:1053B000FFF73DFC84ED038A94F84C3013B194F868
:1053C0004D301BB92621A948FFF731FC94ED030AA3
:1053D0000DF52A7DBDEC028BBDE8F081F0EE608A10
:1053E00090F8903013B190F891301BB926219F4866
:1053F000FFF71DFCC4ED148A94F8D43013B194F86F
:10540000D5301BB926219948FFF711FC84ED258A78
:10541000A16855A801F052FB04F10C05294655A8D6
:1054200001F016FC4426324655A966A803F004FD97
:10543000A168314477A801F041FB04F1500177A83D
:1054400001F006FC324677A988A803F0F5FC88A98C
:1054500066A801F051FB324666A999A803F0ECFC5E
:1054600042273A4699A9284603F0E6FCA16855A8C8
:1054700001F024FBA16801F5887155A801F0E8FB53
:10548000324655A966A803F0D7FCA16877A801F0B9
:10549000EFFB77A966A801F0DBFB324666A988A876
:1054A00003F0CAFCA16801F5AA7188A801F024FBE9
:1054B000324688A999A803F0BFFCA0683A4699A98A
:1054C00000F5887003F0B8FCA16801F588710DEB58
:1054D000060001F0F3FAA1688831684601F0C8FBC4
:1054E00069460DEB060001F0B3FB32460DEB0601F9
:1054F00022A803F0A1FCA168883133A801F0DEFAEC
:10550000A16801F5887133A801F0A2FB324633A9E6
:1055100044A803F091FCA168883155A801F0A8FBCC
:1055200055A944A801F094FB324644A966A803F0AB
:1055300083FCA16801F5CC7166A801F0DDFA324662
:1055400066A977A803F078FC9DF81D229DF81C122F
:1055500088A801F08DFA88A977A801F04DFC0028F1
:1055600070D088A922A801F073FB4426324622A9F4
:1055700099A803F061FC04F1D8074FF042084246B5
:1055800099A9384603F058FC394688A801F096FAE4
:1055900004F1940166A801F091FAA168883144A849
:1055A00001F08CFA294644A801F052FB324644A986
:1055B00055A803F041FC55A966A801F0CDFA324682
:1055C00066A977A803F038FC77A988A801F040FB0A
:1055D000324688A999A803F02FFC99A9284601F022
:1055E0008BFAA168CC3177A801F068FA394655A842
:1055F00001F064FAA168883155A801F029FB324610
:1056000055A966A803F018FC66A977A801F0A4FACA
:10561000324677A988A803F00FFCA16801F58871CC
:1056200088A801F015FB324688A999A803F004FC6C
:10563000A068424699A900F5887003F0FDFBBBE61F
:105640000130C0B29DF8603283428AD900239DF8B0
:1056500061229A42F4D903EB8002AAA901EB8202EB
:10566000002142F8881C0133DBB2F0E76C9F000890
:1056700010B504460022114601F0FAF90022114645
:1056800004F1440001F0F4F90022114604F188000D
:1056900001F0EEF90022114604F1CC0001F0E8F926
:1056A0000022114604F5887001F0E2F9002211464B
:1056B00004F5AA7001F0DCF90022114604F5CC7063
:1056C00001F0D6F9204610BD012800D070474FF6F2
:1056D000FF739942FAD12DE9F0412DED028B60481C
:1056E00000238380C380038143818381C38100259C
:1056F000056145618561C56105624562594C224677
:10570000594901F02CFE594845608560C5604561E6
:105710008561C5612246564901F021FE5548056064
:10572000456085602246544901F019FE9FED538A79
:10573000534EB0EE480A304601F07CF9514D2246F6
:105740002946304601F00BFE4F4EB0EE480A304677
:1057500001F070F922462946304601F000FE4B4E1A
:10576000B0EE480A304601F065F922462946304637
:1057700001F0F5FD464EB0EE480A304601F05AF908
:1057800022462946304601F0EAFD424EB0EE480A74
:10579000304601F04FF922462946304601F0DFFD40
:1057A0003D4EB0EE480A304601F044F92246294603
:1057B000304601F0D4FD394EB0EE480A304601F0D3
:1057C00039F922462946304601F0C9FD344EB0EE83
:1057D000480A304601F02EF922462946304601F0AB
:1057E000BEFD304EB0EE480A304601F023F92246A5
:1057F0002946304601F0B3FD2B4D2846FFF738FF10
:1058000022462A49284601F0AAFD294FDFF8A88040
:105810003A4629464046FFF791FD264E224631463C
:10582000404601F09CFDDFF894803A462946404608
:10583000FFF784FD22463146404601F090FDDFF837
:1058400080803A4629464046FFF778FD2246314699
:10585000404601F084FDBDEC028BBDE8F08100BF45
:10586000FC0500200000002035500008DC05002069
:10587000375000080C08002033500008295C0F3D09
:10588000B40B00202F500008C00B0020CC0B0020D0
:10589000900B00209C0B0020A80B0020500A002039
:1058A0005C0A0020680A00203006002039500008F9
:1058B000755000083150000834090020740A002097
:1058C0001808002010B584B0FFF7B8FB01AC4FF406
:1058D0007A720649204600F0E3FE054B94E8070083
:1058E00083E80700002004B010BD00BFFC050020C5
:1058F0000C08002000000000F0B52DED0C8B93B0DB
:1059000004460F46002306930793089303930493DA
:105910000593036043608360D54D284600F0B4FED4
:10592000D44E304600F052FDEB6900932B6A019390
:105930006B6A0293694606A8FFF77AF901A907A8DE
:10594000FFF776F902A908A8FFF772F995ED049A16
:10595000D5ED058A95ED068AC74BD3ED007A39EE71
:10596000679AD3ED017A78EEE78AD3ED027A38EEC2
:10597000678A73680093B3680193F368029369467A
:1059800003A8FFF755F901A904A8FFF751F902A9E7
:1059900005A8FFF74DF9DDED037A9FEDB87A77EEB4
:1059A000877ACDED037ADDED047A9FEDB57A77EE57
:1059B000877ACDED047ADDED057A9FEDB27A77EE48
:1059C000877ACDED057A12A9069B41F8243DAE48B1
:1059D00001F035F8B0EE40DA12A9079B41F8203DFE
:1059E000AA4801F02CF8F0EE40BA12A9089B41F841
:1059F0001C3DA74801F023F8F0EE409A12A919EED9
:105A0000103A41F8183DA34801F019F8B0EE40AA49
:105A100012A918EE903A41F8143D9F4801F00FF892
:105A2000F0EE40DA12A918EE103A41F8103D9B480A
:105A300001F005F8B0EE40BA12A9039B41F80C3D05
:105A4000974800F0FCFFB0EE409A12A9049B41F881
:105A5000083D944800F0F3FFF0EE408A12A9059B40
:105A600041F8043D904800F0EAFFB0EE408AF0EEC5
:105A7000690AB0EE6B0A01F09BFE10EE100AFAF70D
:105A80006BFD79A3D3E90023FAF7BEFDFBF79EF87F
:105A90003946F0EE4A0A00EE100A8448FFF770FC1F
:105AA00010EE106A10EE100AFAF756FD6EA3D3E955
:105AB0000023FAF7D3FE41EC1A0B41EC100B01F076
:105AC00017FE51EC100BFBF781F80CEE900AB0EECC
:105AD0004A0AF0EE6A0A01F057FD51EC100BFBF791
