:020000040800F2
:10000000600900209D0100080F320008CD2C000877
:100010000D32000839080008E93B00080000000024
:100020000000000000000000000000003332000863
:10003000D108000800000000313200083532000805
:10004000B7010008B7010008B7010008B7010008B0
:10005000B7010008B7010008B7010008F10800085F
:10006000B7010008F7080008B7010008B701000849
:100070003D080008B701000849080008B70100085A
:10008000B7010008B7010008B7010008B701000870
:10009000B7010008B7010008B7010008FD08000813
:1000A000B7010008B7010008B7010008B701000850
:1000B000B7010008B7010008B7010008B701000840
:1000C000B7010008B7010008B7010008B701000830
:1000D000B7010008B7010008B7010008DD3B0008C0
:1000E000D3080008B7010008B7010008B7010008ED
:1000F000B7010008B7010008B7010008B701000800
:10010000B7010008B7010008B7010008B7010008EF
:10011000B7010008B7010008B7010008B7010008DF
:10012000B7010008B7010008B7010008B7010008CF
:10013000B7010008B7010008B7010008B7010008BF
:10014000B7010008B7010008B7010008B7010008AF
:10015000B7010008B7010008B7010008B70100089F
:10016000B7010008B7010008B7010008B70100088F
:10017000B7010008B7010008B7010008000000003F
:10018000B7010008B7010008DFF80CD000F042FB0F
:10019000004800477548000860090020064880476D
:1001A00006480047FEE7FEE7FEE7FEE7FEE7FEE75C
:1001B000FEE7FEE7FEE7FEE7E532000889010008FA
:1001C0002DE9F05F0546002092469B46884606468C
:1001D000814640241BE0284641464746224600F01F
:1001E00033FA53465A46C01A914110D31146184665
:1001F000224600F01AFA2D1A67EB01084F462246F4
:100200000120002100F011FA17EB00094E41201ED9
:10021000A4F10104DFDC484631462A464346BDE8E6
:10022000F09F2DE9FE4F804681EA0300C00F0C4687
:10023000009021F0004123F00045B8EB0200A941F5
:1002400005D24046214690461C460B46024623F006
:100250000040104347D0270DC7F30A00C3F30A51EB
:100260000290401A019040286BDAC3F3130040F467
:10027000801B0098924620B10023D2EB030A63EB67
:100280000B0B01985946C0F14002504600F0CDF9E1
:1002900006460D4650465946019A00F0E5F910EB26
:1002A00008006141002487EA115284EAE7731A4387
:1002B00040D0009A62B3019A012A4FEA075215DC36
:1002C000001B61EB02014FF0004202EA0752CDE948
:1002D0000042001C41F5801132462B4600F01CFA0A
:1002E00003B0BDE8F08F40462146F9E7001B61EB03
:1002F0000201001C41F5801300185B412018A2F593
:10030000001747EB030140EAD570B6196D4111E0C3
:100310006D084FEA360645EAC0754FEA0752001BE2
:1003200061EB0201001C41F5801149084FEA3000E1
:100330000019514132462B4603B0BDE8F04F00F0A2
:10034000DCB90098012240000023D0EB020263EBED
:10035000E073009821464FEAE074B8EB000061EBCF
:100360000401E9E783F000435BE781F0004158E7CF
:100370002DE9FE4F81EA030404F0004421F000411E
:1003800000944FF0000B23F0004350EA01045ED0CC
:1003900052EA03045BD0C3F30A54C1F30A552C4458
:1003A000A4F2F3340194A0FB0254C1F3130141F40D
:1003B0008011C3F3130343F4801301FB024400FBD9
:1003C000034E840A970A44EA815447EA8357A4FB00
:1003D000076802958D0A05FB07854FEA932C04FBFD
:1003E0000C542705029D4FEA065847EA1637B5EB2D
:1003F00008056EEB070C870E920E47EA811742EA5A
:100400008312A7FB0201B6EB0B0164EB00042B0D7A
:1004100043EA0C335E1844EB1C50DA465146E7FBC6
:100420000201C5F313044FEA0B3343EA14534FEAB6
:100430000432019C43EA0603A4F10C040294009CDC
:10044000CDE900B400F068F903B0BDE8F08F0020FA
:100450000146F9E72DE9F04D81EA030404F0004B71
:1004600021F0004514464FF0000A23F0004150EA05
:10047000050220D054EA01021DD0C5F30A570246F6
:10048000C5F31303C1F31300C1F30A5640F48015FA
:1004900043F48013A7EB0608101BD64608F2FD387C
:1004A00073EB050002D308F1010801E092185B41EB
:1004B000B8F1000F03DA00200146BDE8F08D0020FE
:1004C0004FF48011064684460EE0171B73EB0507B8
:1004D00005D3121B63EB050306434CEA010C4908E4
:1004E0004FEA300092185B4150EA0107EDD152EA21
:1004F000030012D082EA040083EA0501084305D014
:10050000101BAB4106D20122002306E000224FF06F
:10051000004302E06FF0010253101AEB06004CEBAF
:10052000085110EB0A0041EB0B01BDE8F04D00F063
:10053000E4B80EB5C10F80EAE0700844CA07002194
:1005400040F233438DE80E000A460B4600F0E4F813
:1005500003B000BD0EB540F2334102910021CDE958
:1005600000110A460B4600F0D7F803B000BDC1F3F6
:100570000A5210B5C1F3130140F2FF3341F4801168
:100580009A4201DA002010BD40F233439A42A2F2AF
:10059000334203DC524200F057F810BD904010BDCA
:1005A00000F0004230F000400AD0C10D01F560714A
:1005B000C0F3160042EA0151C208400711437047D8
:1005C00000200146704701F0004330B421F00041A3
:1005D00050EA010206D00A0DA2F56072C1F31301C0
:1005E000002A02DC30BC00207047440F44EAC104FA
:1005F000C100E01830BC00EBC25000F047B830B585
:100600000B46014600202022012409E021FA02F5D0
:100610009D4205D303FA02F5491B04FA02F528446A
:10062000151EA2F10102F1DC30BD202A04DB203AC4
:1006300000FA02F1002070479140C2F1200320FA35
:1006400003F3194390407047202A04DB203A21FA33
:1006500002F00021704721FA02F3D040C2F12002DB
:100660009140084319467047202A06DBCB17203AF1
:1006700041FA02F043EAE07306E041FA02F3D040A7
:10068000C2F1200291400843194670470029A8BFD3
:100690007047401C490008BF20F00100704710B4AB
:1006A000B0FA80FC00FA0CF050EA010404BF10BC60
:1006B000704749B1CCF1200421FA04F411FA0CF18D
:1006C00018BF012121430843A3EB0C01CB1D4FEAC6
:1006D00000614FEA102042BF002010BC704700EBC1
:1006E000C35010440029A4BF10BC7047401C4900EF
:1006F00008BF20F0010010BC704710B5141E73F144
:10070000000408DA401C41F1000192185B411A43D1
:1007100001D120F0010010BD2DE9F04D92469B461D
:1007200011B1B1FA81F202E0B0FA80F220329046C3
:10073000FFF77BFF04460F4640EA0A0041EA0B013F
:1007400053465A46084313D0114653EA010019D0C4
:10075000C8F140025046FFF777FF05460E46504667
:1007600059464246FFF761FF084305D0012004E0E7
:1007700020463946BDE8F08D0020054346EAE07684
:100780002C4337430A986305E40AA0EB08000022D3
:10079000FD0A44EA47540A3002D500200146E9E741
:1007A000010510196941DDE9084500196941BDE8F5
:1007B000F04DA2E7C1F30A52C1F3130140F2FF3337
:1007C00041F480119A4202DA00200146704740F25B
:1007D00033439A42A2F2334202DC5242FFF734BF63
:1007E000FFF723BF30B5041E71F1000404DB4FF0A6
:1007F0000044404264EB0101141E73F1000405DB68
:100800001C464FF00043524263EB0403994208BF79
:10081000904230BD064C074D06E0E06840F0010311
:1008200094E8070098471034AC42F6D3FFF7B0FCC9
:100830003050000850500008FEE70000014800F06A
:100840007DB800009C040020014800F077B800004B
:10085000FC04002001681823CAB2103AB2FBF3F27C
:10086000054B6FF30901032A9B5CC36500D9091D81
:1008700081650846704700001050000810B5014619
:1008800000208B698A6A4FF0C07453B1B3F5005FE2
:1008900015D072B1012A0CD0022A0AD0032A09D13C
:1008A00004E01AB1012A06D0022A03D1C96AC9019B
:1008B00000D5012010BDC96AA142FAD010BD002A9E
:1008C000F7D0012AF2D0022AF3D0032AF3D010BDC8
:1008D000704710B54FF4005000F01EFB4FF48040FD
:1008E00000F01AFBBDE810404FF4004000F014BBCC
:1008F000022000F011BB082000F00EBB10B5202034
:1009000000F00AFB802000F007FBBDE810404FF428
:10091000007000F001BB90F83510022903D080214F
:10092000416501207047052180F835100068016895
:1009300021F0010101600020704700002DE9F8431B
:1009400004464FF00009CDF8009063484FF416516B
:10095000A56D0068B0FBF1F72E6894F85C100820D4
:1009600000FA01F131420FD021680A6852070BD515
:100970000A6822F004020A6094F85C108840A860BB
:10098000606D40F00100606594F85C104FF0010864
:1009900008FA01F0304208D021684969090604D5F7
:1009A000A860606D40F00200606594F85C1004205F
:1009B0008840304208D021680968890704D5A860BA
:1009C000606D40F00400606594F85C101020884071
:1009D000304218D021680968090714D5A86020683A
:1009E0000168490304D50068000308D5A16C07E03D
:1009F0000168C90503D4016821F008010160216C78
:100A000009B12046884794F85C1020208840304285
:100A100031D021680968C9062DD5A86094F8350041
:100A200005282068016806D0490347D500680003FF
:100A30001DD4616C1CE021F0160101602068416941
:100A400021F080014161206C08B9A06C20B12068C0
:100A5000016821F00801016094F85C103F20884093
:100A6000A86084F8349084F83580216D1FE0E16B34
:100A700009B120468847606D00282BD0606DC00703
:100A800014D0052084F835002068016821F00101A8
:100A900001600098401C0090B84203D820680068AC
:100AA000C007F6D184F8349084F83580E16C0029D1
:100AB00010D001B02046BDE8F04308470168C905E1
:100AC000D5D4016821F01001016084F8349084F8D5
:100AD0003580CCE7BDE8F883380000202DE9F041EF
:100AE000044600F0E1FB0546002C7CD0A2492068BA
:100AF00088423ED0A049183188423AD09E493031D0
:100B0000884236D09C494831884232D09A49603177
:100B100088422ED09849783188422AD0964990311F
:100B2000884226D09449A831884222D093498842ED
:100B30001FD09249183188421BD0904930318842E9
:100B400017D08E494831884213D08C496031884291
:100B50000FD08A49783188420BD088499031884239
:100B600007D08649A831884203D0C82184A003F069
:100B7000B6FC6068C0B1B0F1007F15D0B0F1806FF5
:100B800012D0B0F1C06F0FD0B0F1006F0CD0B0F147
:100B9000206F09D0B0F1406F06D0B0F1606F03D084
:100BA000C92177A003F09BFCA06838B1402805D08C
:100BB000802803D0CA2172A003F091FCE068B0F550
:100BC000007F04D018B1CB216DA003F088FC206910
:100BD000B0F5806F04D018B1CC2169A003F07FFC80
:100BE000606958B100E071E0B0F5006F06D0B0F573
:100BF000805F03D0CD2162A003F071FCA06948B1F1
:100C0000B0F5005F06D0B0F5804F03D0CE215CA0D8
:100C100003F065FCE06940B1B0F5807F05D0202885
:100C200003D0CF2156A003F05AFC206A60B1B0F582
:100C3000803F09D0B0F5003F06D0B0F5403F03D06B
:100C4000D0214FA003F04BFC606A002832D004286A
:100C500006D0D1214AA003F042FC606A002829D0C6
:100C6000A06A48B1012807D0022805D0032803D084
:100C7000D62143A003F033FCE06A60B1B0F5000F69
:100C800009D0B0F1807F06D0B0F1C07F03D0D7216A
:100C90003BA003F024FC206B60B1B0F5001F09D02D
:100CA000B0F5800F06D0B0F5C00F03D0D82134A026
:100CB00003F015FC002684F83460022084F8350027
:100CC0002068016821F0010101600EE00120BDE80B
:100CD000F08100BF00F0E8FA401B052805D920206C
:100CE0006065032084F83500F1E720680068C007DC
:100CF000F0D12268116830480140D4E9010318435B
:100D0000D4E903352B43184363691843A369184397
:100D1000E3691843236A18430843616A042903D12D
:100D2000D4E90B1319430843106020684069656AD1
:100D300020F0070128460D43012704280CD1A06AA2
:100D40000543E06A40B12046FFF798FD20B14020FE
:100D5000606584F83570B9E7206845612046FFF783
:100D600079FD94F85C203F2191408160666584F8AC
:100D700035700020ABE700001060024010640240B4
:100D80002E2E2F447269766572732F53544D333271
:100D9000463478785F48414C5F4472697665722FBB
:100DA0005372632F73746D3332663478785F686181
:100DB0006C5F646D612E63003F8010F070B5044677
:100DC00000F072FA0546601C02D004480078044422
:100DD00000F06AFA401BA042FAD370BD2C0000203C
:100DE00010B52F4C2DED028B2178002943D104F151
:100DF00010019FED2C8AB0F5005F06D0082811D0B5
:100E000020281ED0022839D02FE02748406A0880C9
:100E1000617826A002F0EAFE207800BBB0EE480A16
:100E2000284839E04FF08040406A4880617826A029
:100E300002F0DCFE207890B92248B0EE480A40303B
:100E40002AE0274800688880617826A002F0CEFE5C
:100E5000207820B91B48B0EE480A80301CE060784A
:100E6000401C60702078002805D16078052802D1E8
:100E70000120A0702070BDEC028B10BD1F480068DF
:100E8000C88061781EA002F0B1FE20780028E6D16B
:100E90000C48B0EE480AC03004F068F8DFE7000004
:100EA00000000020000000000000014048656C6C5C
:100EB0006F2066726F6D206D6F746F722031203AF3
:100EC00025640A003C00002048656C6C6F20667247
:100ED0006F6D206D6F746F722032203A25640A00A6
:100EE0002404004048656C6C6F2066726F6D206D45
:100EF0006F746F7220333A25640A000024080040A2
:100F000048656C6C6F2066726F6D206D6F746F72C8
:100F100020343A2564200A00044910B50A680242C8
:100F200002D00860FFF75CFF10BD0000143C0140D8
:100F30002DE9F84F0446A0480D4684421BD09F4837
:100F4000844218D09E48844215D09E48844212D0D4
:100F50009D4884420FD09D4884420CD09C488442D6
:100F600009D09C48844206D09B48844203D0C321C8
:100F70009AA003F0B4FA28680104090C01D0000C0F
:100F800003D0C42195A003F0AAFA6868F8B101283B
:100F90001DD011281BD0022819D0122817D09E4925
:100FA000884214D09D49884211D09D4988420ED074
:100FB0009C4988420BD09C49884208D09B49884272
:100FC00005D0032803D0C52184A003F088FAA868BF
:100FD00038B1012805D0022803D0C6217FA003F034
:100FE0007EFA00264FF0010B0BFA06F02F688246BE
:100FF000074057457ED16868022801D012282ED1BB
:101000002869F8B109281DD001281BD0022819D061
:10101000032817D0042815D0052813D0062811D08E
:1010200007280FD008280DD00A280BD00B2809D08C
:101030000C2807D00D2805D00F2803D0D72167A092
:1010400003F04DFAF00804EB8002106A7107CB0E32
:101050000F21994088432969994001431162206812
:101060007200032101FA02F82979914601F0030187
:1010700020EA080001FA09F10143216068680128AB
:1010800005D0022803D0112801D012281CD1E8680D
:1010900048B1012807D0022805D0032803D0EA214F
:1010A0004EA003F01CFAA068E96820EA080001FAE3
:1010B00009F10143A1606068297920EA0A00C1F3BF
:1010C0000011B14001436160E068A96820EA0800AE
:1010D00001FA09F10143E1606868C00065D5544830
:1010E000016841F480410160006826F0030100F4CA
:1010F000804000E059E000904E480A18D2F80808F5
:10110000B1070B0F0F21994088432B498C4201D125
:10111000002123E029498C4201D101211EE0284908
:101120008C4201D1022119E026498C4201D10321D0
:1011300014E025498C4201D104210FE023498C425F
:1011400001D105210AE022498C4201D1062105E0A6
:1011500020498C4201D1072100E008219940014338
:10116000C2F80818344908686A68B843D20300D541
:10117000384308603049091D08686A68B84392031B
:1011800000D5384308602C49083108686A68B843BC
:10119000D20200D53843086027490C3108686A68D4
:1011A000B843920200D538430860761C102EFFF435
:1011B0001BAFBDE8F88F00000000024000040240B1
:1011C00000080240000C02400010024000140240DF
:1011D00000180240001C0240002002402E2E2F4426
:1011E0007269766572732F53544D33324634787872
:1011F0005F48414C5F4472697665722F5372632F6A
:1012000073746D3332663478785F68616C5F6770D1
:10121000696F2E6300000000000011100000211013
:1012200000003110000012100000221000003210E7
:101230004438024000300140003C014070B5154682
:101240000C00064604D140F2AF1108A003F047F9A4
:1012500045B1012D04D04FF4D87104A003F03FF93B
:10126000B46170BD2004B06170BD00002E2E2F440B
:101270007269766572732F53544D333246347878E1
:101280005F48414C5F4472697665722F5372632FD9
:1012900073746D3332663478785F68616C5F677041
:1012A000696F2E63000000000148806870470000ED
:1012B0002C00002002488168027811448160704748
:1012C0002C0000200B4810B5016841F4007101604A
:1012D000016841F480610160016841F4807101603E
:1012E000032000F0EBF8002000F006F800F024F8EE
:1012F000002010BD003C024070B50D4D04464FF477
:101300007A712878B1FBF0F00A490968B1FBF0F076
:1013100000F0F3FC48B9102C07D200222146501EE1
:1013200000F07CF800206C6070BD012070BD0000F2
:101330002C000020380000201F4808B5016841F447
:1013400080410160006800F4804000901A48001F4E
:10135000016841F080510160006800F08050009009
:10136000032000F0ABF8002211466FF00B0000F0F4
:1013700055F8002211466FF00A0000F04FF80022E5
:1013800011466FF0090000F049F800221146501F85
:1013900000F044F800221146101F00F03FF8002230
:1013A0001146901E00F03AF80022BDE808401146B0
:1013B000501E00F033B800004438024010B504005D
:1013C00003D5CE2106A003F08AF804F01F01012006
:1013D00088406109890001F1E021C1F8000110BDD8
:1013E0002E2E2F447269766572732F53544D33320B
:1013F000463478785F48414C5F4472697665722F55
:101400005372632F73746D3332663478785F68611A
:101410006C5F636F727465782E63000070B515465B
:101420000C460646102A03D3BA2114A003F057F83D
:10143000102C03D3BB2111A003F051F81E48006803
:10144000C0F30223C3F107022046042A00D9042274
:10145000191D072901D2002300E0DB1E012404FA34
:1014600002F1491E014099409C40641E2C402143DA
:101470003046BDE8704001F0CBBE00002E2E2F4458
:101480007269766572732F53544D333246347878CF
:101490005F48414C5F4472697665722F5372632FC7
:1014A00073746D3332663478785F68616C5F636F34
:1014B000727465782E6300000CED00E010B50446F0
:1014C00007280BD0062C09D0052C07D0042C05D0FA
:1014D000032C03D0A22108A003F001F8154904F061
:1014E000070208684FF6FF03184040EA0220124A3C
:1014F0001043086010BD00002E2E2F4472697665DF
:1015000072732F53544D3332463478785F48414CD0
:101510005F4472697665722F5372632F73746D33F3
:1015200032663478785F68616C5F636F7274657877
:101530002E6300000CED00E00000FA052DE9F047F5
:101540000E4604007DD02068401E0E2804D94FF4BA
:1015500014717AA002F0C3FF96B1012E10D0022EB2
:101560000ED0032E0CD0042E0AD0052E08D0062E45
:1015700006D0072E04D040F2512170A002F0AFFF38
:10158000DFF8F081D8F80000F7B200F00F00B042A9
:1015900007D288F80070D8F8000000F00F00B042C1
:1015A0004FD12068744D810729D5400703D528689D
:1015B00040F4E05028602078000703D5286840F404
:1015C00060402860A068A0B1802812D0902810D078
:1015D000A0280ED0B0280CD0C0280AD0D02808D01F
:1015E000E02806D0F02804D04FF41D7153A002F07B
:1015F00076FF2868A16820F0F00008432860207872
:10160000C00743D0DFF870916068A9F1080988B17C
:10161000012822D0022824D0032822D040F27B21A6
:1016200046A002F05CFF6068012816D0022818D09E
:10163000032816D0D9F800008007002833DA28687C
:1016400000E030E0616820F0030008432860FFF705
:101650002BFE814641F2883A11E0D9F80000800360
:10166000EBE7D9F800008001E7E700BFFFF71CFEB9
:10167000A0EB0901514502D90320BDE8F087286895
:10168000616800F00C00B0EB810FEFD1D8F80010CA
:10169000404601F00F01B14207D90770006800F021
:1016A0000F00B04201D00120E7E720784FF48056C8
:1016B00040074FF4A0574FF4C0584FF4E05914D5E9
:1016C000E06860B1B0420AD0B84208D0404506D0C8
:1016D000484504D040F2B92118A002F000FF286864
:1016E000E16820F4E050084328602078000715D511
:1016F000206960B1B0420AD0B84208D0404506D057
:10170000484504D04FF430710CA002F0E8FE286880
:10171000216920F4604040EAC100286000F058F8D8
:101720002968164AC1F30311515CC8401449086086
:101730000020FFF7E1FD00209FE700002E2E2F4440
:101740007269766572732F53544D3332463478780C
:101750005F48414C5F4472697665722F5372632F04
:1017600073746D3332663478785F68616C5F72636E
:10177000632E6300003C0240083802401850000805
:101780003800002001480068704700003800002041
:101790000448054900680968044AC1F38221515C84
:1017A000C840704738000020083802402850000820
:1017B0000448054900680968044AC1F34231515C94
:1017C000C840704738000020083802402850000800
:1017D000154810B5006810F00C02144813D01449D5
:1017E000042A0FD0082A0ED10F4C241F2268236828
:1017F00002F03F025B0207D52068C0F38810A0FB0F
:10180000010106E0084610BD2168C1F38811A1FB63
:1018100000010023FEF7D4FC2168C1F30141491CFB
:101820004900B0FBF1F010BD083802400024F4007C
:1018300040787D012DE9F84F04007DD020680F2805
:1018400003D9F821F2A002F04AFE2078DFF8F8B3BD
:10185000FE4DC00756D060684FF480364FF4A02785
:1018600038B1B04205D0B84203D0FD21E8A002F063
:1018700036FEDBF800105846C1F38101012909D07A
:101880000068C0F3810002280BD1EF48001F0068F8
:10189000400206D52868800334D560680028CCD083
:1018A00030E06068B04203D1286840F480300CE03A
:1018B000B842286803D140F480202860F4E720F47F
:1018C00080302860286820F480202860606860B13B
:1018D000FFF7EAFC064604E0FFF7E6FC801B6428FD
:1018E0007ED828688003F7D50CE0FFF7DDFC0646BC
:1018F00005E000BFFFF7D8FC801B6428F0D82868FB
:101900008003F7D42078DFF8488380074FF0000980
:1019100056D5E06830B1012804D040F22F11BCA0A8
:1019200002F0DDFD20691F2804D94FF49871B8A09A
:1019300002F0D5FD584600E092E0DBF8001011F00F
:101940000C0F09D00068C0F38100022811D1BE48F5
:10195000001F006840020CD42868800702D5E068A8
:1019600001287DD12868216920F0F80040EAC100F3
:1019700016E0E068B0B10120C8F80000FFF794FC61
:10198000064604E0FFF790FC801B0228A8D82868D0
:101990008007F7D5286820F0F801206941EAC000E7
:1019A00028600DE0C8F80090FFF77EFC064604E0D2
:1019B000FFF77AFC801B022892D828688007F7D4AA
:1019C000207800072ED5A04EA24F60696C36D0B1AA
:1019D000012808D04FF4B8718DA002F080FD00E01E
:1019E0004DE1606978B101203860FFF75DFC074682
:1019F00005E000BFFFF758FCC01B0228C6D83068BE
:101A00008007F7D50EE0C7F80090FFF74DFC0746BA
:101A100005E000BFFFF748FCC01B0228B6D83068BD
:101A20008007F7D42078400776D5A068002740B11A
:101A3000012806D0052804D04FF4CE7174A002F01E
:101A40004EFDDFF804A20AF1380ADAF80000C000FF
:101A50000DD4DAF8001041F08051CAF8001000E00F
:101A6000D4E0DAF80000012700F0805000907A4EB0
:101A70003068C00511D4306840F480703060FFF7E2
:101A800013FC009006E000BFFFF70EFC0099401A1F
:101A9000022891D83068C005F6D56B4EA06868362C
:101AA00001280FD00528306810D020F001003060E8
:101AB000306820F004003060A068B8B1FFF7F4FB94
:101AC00000900FE0306840F00100F4E740F00400BF
:101AD0003060F7E7FFF7E8FB0099411A41F28830E0
:101AE00081428BD830688007F4D50EE0FFF7DCFB2D
:101AF000009007E0FFF7D8FB0099411A41F28830C7
:101B000081428BD830688007F4D42FB1DAF8001006
:101B100021F08051CAF80010A069002875D0012872
:101B200009D0022807D040F2DF1139A002F0D7FC1B
:101B3000A0690028F2D0DBF80000C0F38100022881
:101B400064D0A069022805D0C8F86090FFF7ACFB0C
:101B5000044697E0E06938B1B0F5800F04D04FF447
:101B6000F4712BA002F0BBFC206A3F2804D940F29C
:101B7000E91127A002F0B3FC606A3238B0F5BF7FEC
:101B800004D94FF4F57122A002F0A9FCA06A022842
:101B90000AD0042808D0062806D0082804D040F22D
:101BA000EB111BA002F09BFCE06A801E0D2804D9FB
:101BB0004FF4F67116A002F092FC4746C8F8609008
:101BC000FFF772FB064604E0FFF76EFB801B02285E
:101BD00055D828688001F7D4D4E907010843A16AE1
:101BE0001E4A490802EB0141626A41EA8211084338
:101BF00094F82C1040EA01611348001F0160012095
:101C00003866FFF751FB04462FE03EE03FE000005E
:101C10002E2E2F447269766572732F53544D3332D2
:101C2000463478785F48414C5F4472697665722F1C
:101C30005372632F73746D3332663478785F6861E2
:101C40006C5F7263632E6300083802400038024004
:101C500000004742800E4742007000400000FFFF36
:101C6000FFF722FB001B022809D828688001F7D55E
:101C70000BE000BFFFF718FB001B022802D903206E
:101C8000BDE8F88F28688001F4D40020F8E701202F
:101C9000F6E7000010B54FF0E024042809D020B189
:101CA00040F2D91105A002F01AFC206920F00400CE
:101CB00002E0206940F00400206110BD2E2E2F4468
:101CC0007269766572732F53544D33324634787887
:101CD0005F48414C5F4472697665722F5372632F7F
:101CE00073746D3332663478785F68616C5F636FEC
:101CF000727465782E630000704710B5401EB0F115
:101D0000807F01D3012010BD4FF0E02460610F21DE
:101D1000601701F07DFA0020A061072020610020FB
:101D200010BD10B5FFF7E8FF10BD000070B50C4600
:101D3000054600684049884207D04049884204D09F
:101D400040F272613EA002F0CAFB2068B0F5006F5D
:101D500005D020B140F2736139A002F0C0FB606889
:101D6000B0F5806F05D020B140F2746134A002F06C
:101D7000B6FBA06868B1B0F5807F0AD0B0F5007FEF
:101D800007D0B0F5407F04D040F275612CA002F07E
:101D9000A6FBE068FF2804D940F2766128A002F093
:101DA0009EFB2069B0F5805F05D020B140F27761DD
:101DB00023A002F094FB606938B1B0F5005F04D055
:101DC0004FF4CF611EA002F08AFBA069B0F5804FEE
:101DD00005D020B140F2796119A002F080FB95F89E
:101DE0003800012825D0012085F83800E068A26875
:101DF00020F440701043626820F480601043226831
:101E000020F400601043226920F48050104362697E
:101E100020F400501043A26920F4804010430021B8
:101E200020F4004010432A68506485F838100020E0
:101E300070BD022070BD00000000014000040140A0
:101E40002E2E2F447269766572732F53544D3332A0
:101E5000463478785F48414C5F4472697665722FEA
:101E60005372632F73746D3332663478785F6861B0
:101E70006C5F74696D5F65782E63000070B50D4608
:101E8000044600683049884219D0B0F1804F16D01E
:101E90002E49884213D02E49884210D02D498842BD
:101EA0000DD02D4988420AD02C49884207D02C49B0
:101EB000884204D040F24A612AA002F010FB286850
:101EC00090B1102810D020280ED030280CD04028F7
:101ED0000AD0502808D0602806D0702804D040F2DC
:101EE0004B6120A002F0FBFA6868802805D020B181
:101EF00040F24C611BA002F0F2FA94F8380001287D
:101F00001FD0012084F83800022184F8391021689C
:101F10004A6822F070024A6021684A682B681A43B6
:101F20004A6021688A6822F080028A6021688A6893
:101F30006B681A438A6084F83900002084F83800FE
:101F400070BD022070BD0000000001400004004090
:101F500000080040000C0040001000400014004049
:101F6000000401402E2E2F447269766572732F5340
:101F7000544D3332463478785F48414C5F4472693F
:101F80007665722F5372632F73746D3332663478B3
:101F9000785F68616C5F74696D5F65782E630000BF
:101FA00010B5044601681E4881422BD0B1F1804F24
:101FB00028D01C48814225D01B48814222D01B4892
:101FC00081421FD01A4881421CD01A48814219D040
:101FD0001948814216D01948814213D018488142CD
:101FE00010D0184881420DD0174881420AD01748B6
:101FF000814207D01648814204D04FF4997115A050
:1020000002F06DFA022084F839002068016841F07E
:1020100001010160012084F83900002010BD00009A
:10202000000001400004004000080040000C004097
:102030000010004000140040000401400040014036
:10204000004401400048014000180040001C0040CE
:10205000002000402E2E2F447269766572732F5334
:10206000544D3332463478785F48414C5F4472694E
:102070007665722F5372632F73746D3332663478C2
:10208000785F68616C5F74696D2E63002DE9F041C3
:102090000C4605007DD065492868884219D0B0F10A
:1020A000804F16D06249884213D06249884210D0CE
:1020B000614988420DD0614988420AD0604988420E
:1020C00007D06049884204D040F6FA015EA002F0D1
:1020D00006FA2068012808D0022806D0032804D078
:1020E00040F6FB0158A002F0FAF9A068012808D0D8
:1020F000022806D0032804D040F6FC0152A002F0CA
:10210000EEF9A069012808D0022806D0032804D0DF
:1021100040F6FD014CA002F0E2F9606840B10228EF
:1021200006D00A2804D040F6FE0147A002F0D7F9F5
:10213000606940B1022806D00A2804D040F6FF01A9
:1021400041A002F0CCF9E06850B1042808D008287A
:1021500006D00C2804D04FF410613BA002F0BFF968
:10216000E06950B1042808D0082806D00C2804D013
:1021700040F6011134A002F0B2F920690F2804D909
:1021800040F6021130A002F0AAF9206A0F2806D901
:1021900000E008E040F603112BA002F0A0F995F84A
:1021A000390018B108E00120BDE8F081002085F871
:1021B0003800284600F064F8022085F839002868C5
:1021C000816821F007018160291D286801F0B4F8B9
:1021D0002A6890689169166A2368A769034340F2E8
:1021E0000330814341EA0721A068E76908434FF6BD
:1021F000FC418843E16840EA072001432069276ADF
:10220000000140EA073008436168646926F0AA06C5
:1022100046EA0414214393602A68906128680162A9
:10222000012085F839000020BEE7000000000140D1
:102230000004004000080040000C00400004014081
:1022400000400140001800402E2E2F447269766530
:1022500072732F53544D3332463478785F48414C73
:102260005F4472697665722F5372632F73746D3396
:1022700032663478785F68616C5F74696D2E6300D4
:1022800070B50268294802230124032586B08242E2
:1022900010D12748016841F00101016000686946DA
:1022A00000F0010005904FF420608DE839002148CE
:1022B000049423E01E492048091FB2F1804F10D03A
:1022C0001E4EB2421ED10A6842F002020A6009683C
:1022D00001F002010591C0218DE83A00049369469E
:1022E0000CE00A6842F001020A60096801F001018D
:1022F000059122218DE83A000494F0E7FEF718FEDC
:1023000006B070BD0E488242FAD1086840F0040061
:1023100008600868694600F0040005904FF44050DA
:102320008DE8390007480493E8E700000000014009
:102330004438024000100240000002400004004007
:1023400000080040000C024070B5044602681B48BB
:102350000D46824219D0B2F1804F16D01848824201
:1023600013D01848824210D0174882420DD0174827
:1023700082420AD01648824207D01648824204D0D0
:1023800040F6881114A002F0AAF895B1042D04D0EB
:1023900001220021206801F02FF801220421206889
:1023A00001F02AF82068016841F001010160002075
:1023B00070BD012200212068F2E70000000001400A
:1023C0000004004000080040000C004000040140F0
:1023D00000400140001800402E2E2F44726976659F
:1023E00072732F53544D3332463478785F48414CE2
:1023F0005F4472697665722F5372632F73746D3305
:1024000032663478785F68616C5F74696D2E630042
:1024100000B50068094985B088420DD14FF470704D
:10242000009002200190002002900320039004906D
:1024300069460348FEF77CFD05B000BD000401407D
:10244000000802402DE9F05F044690F838009246FB
:102450000D4601284ED04FF0010B84F838B0BAF188
:10246000000F10D0BAF1040F0DD0BAF1080F0AD046
:10247000BAF10C0F07D0BAF1180F04D040F648415A
:1024800076A002F02CF82868602806D0702804D0C6
:1024900040F6494171A002F022F8A86830B1022844
:1024A00004D040F64A416DA002F019F8286930B115
:1024B000042804D040F64B4168A002F010F8022036
:1024C00084F839007349744B744E754FDFF8D4C1EA
:1024D000DFF8D491754A4FF08048BAF1000F0CD064
:1024E000BAF1040F3ED0BAF1080F66D0BAF10C0F62
:1024F00062D187E00220BDE8F09F206888421ED0AC
:1025000040451CD098421AD0B04218D0B84216D0DC
:10251000604514D0484512D0654988420FD06549BE
:1025200088420CD090420AD06349884207D0634960
:10253000884204D040F6534148A001F0D0FF29461C
:10254000206800F0D1FF2068816941F008018161B5
:102550002068816921F004018161206881692A690C
:10256000114328E02068884212D0404510D098429C
:102570000ED0B0420CD0B8420AD0604508D04845D1
:1025800006D0904204D040F6624134A001F0A7FF8B
:102590002946206800F0D4FF2068816941F4006179
:1025A00081612068816921F480618161206881698D
:1025B0002A6941EA022181614AE0206888420ED0FE
:1025C00040450CD098420AD0B04208D0B84206D05C
:1025D000604504D040F6714120A001F080FF2946FB
:1025E000206801F009F82068C16941F00801C16163
:1025F0002068C16921F00401C1612068C1692A69AC
:10260000114324E0206888420ED040450CD0984207
:102610000AD0B04208D0B84206D0604504D04FF48A
:1026200048610EA001F05BFF2946206801F054F8D4
:102630002068C16941F40061C1612068C16921F469
:102640008061C1612068C1692A6941EA0221C161D2
:1026500084F839B0002084F838004CE72E2E2F443F
:102660007269766572732F53544D333246347878DD
:102670005F48414C5F4472697665722F5372632FD5
:1026800073746D3332663478785F68616C5F746937
:102690006D2E63000000014000040040000800406F
:1026A000000C0040000401400040014000180040C0
:1026B0000044014000480140001C00400020004050
:1026C00010B504004FD03248226882422BD0B2F1BC
:1026D000804F28D02F48824225D02F48824222D0D6
:1026E0002E4882421FD02E4882421CD02D48824262
:1026F00019D02D48824216D02C48824213D02C4843
:10270000824210D02B4882420DD02B4882420AD000
:102710002A48824207D02A48824204D040F2F1314E
:1027200028A001F0DCFEA06860B110280AD02028A3
:1027300008D0402806D0602804D040F2F23121A011
:1027400001F0CDFE206950B1B0F5807F07D0B0F523
:10275000007F04D040F2F3311AA001F0C0FE94F8DB
:10276000390010B107E0012010BD002084F83800C6
:10277000204600F043F8022084F83900211D20682B
:1027800000F0DAFD012084F83900002010BD0000BF
:10279000000001400004004000080040000C004020
:1027A00000100040001400400004014000400140BF
:1027B000004401400048014000180040001C004057
:1027C000002000402E2E2F447269766572732F53BD
:1027D000544D3332463478785F48414C5F447269D7
:1027E0007665722F5372632F73746D33326634784B
:1027F000785F68616C5F74696D2E630008B500686E
:102800000649884208D10648016841F0020101608A
:10281000006800F00200009008BD000000040140C4
:10282000443802402DE9F041054600683C4E3D4FDA
:102830000C46B04207D1002C53D0042C51D0082CA8
:102840004FD00C2C4DD0B0F1804F60D0364988422B
:1028500007D1002C45D0042C43D0082C41D00C2C9F
:102860003FD03249884206D1BCB3042C39D0082C61
:1028700037D00C2C35D02E49884206D16CB3042CAD
:102880002FD0082C2DD00C2C2BD0B84206D124B33D
:10289000042C26D0082C24D00C2C22D02549884288
:1028A00002D1D4B1042C1CD02349884200D1A4B158
:1028B0002249884200D184B12149884202D164B1C1
:1028C000042C0ED01F49884200D134B11E498842E1
:1028D00000D114B140F2524100E002E01BA001F02F
:1028E000FEFD01222146286800F086FD2868B042DE
:1028F00001D0B84203D1416C41F4004141642868E1
:10290000016841F0010101600020BDE8F081002C68
:10291000E7D0042CE5D0082CE3D00C2CE1D0D9E78B
:102920000000014000040140000400400008004095
:10293000000C0040004001400044014000480140BC
:1029400000180040001C0040002000402E2E2F44A4
:102950007269766572732F53544D333246347878EA
:102960005F48414C5F4472697665722F5372632FE2
:1029700073746D3332663478785F68616C5F746944
:102980006D2E63007047000070B502680446106841
:10299000D168536910F00F0F50D003F0010501F416
:1029A000907635435DD0C20705D0CA0503D5E26BEA
:1029B00042F00102E263420705D5DA0703D0E26B79
:1029C00042F00202E263820705D5DA0703D0E26B28
:1029D00042F00402E263020705D5DA0703D0E26B96
:1029E00042F00802E263E26B002A33D0800604D58D
:1029F000880602D5204600F0D7FE20684069E16BCA
:102A0000C0F38010090700D428B3204600F0BEFEB2
:102A10002068416949061AD5416921F040014161A8
:102A2000606BA0B11B490165606BFDF774FF002866
:102A300010D0606B016DBDE870400847830610D56B
:102A40008B060ED52046BDE8704000F0ADBE204696
:102A5000FFF798FF70BD2046FFF794FF0020E0636A
:102A600070BD030606D50B0604D52046BDE87040B0
:102A700001F082B84006F3D54806F1D5D16820466A
:102A800021F04001D160202184F8391000F01DF9B7
:102A900070BD00007D37000870B5040022D0A06929
:102AA0003A4E00283A493B4A3B4B20681CD08D15D2
:102AB000B0420BD0884209D0904207D0984205D04E
:102AC000294636A001F00BFDA06900B3A069A84219
:102AD0001DD0B0F5007F1AD0B0F5407F17D040F27E
:102AE000011111E0012070BDB04210D088420ED01B
:102AF00090420CD03849884209D03849884206D0E3
:102B0000984204D040F2051124A001F0E8FCA0682E
:102B100038B1B0F5805F04D040F207111FA001F07A
:102B2000DEFCE06938B1B0F5004F04D04FF4847199
:102B30001AA001F0D4FC94F83900002520B984F8DB
:102B40003850204600F04CF8242084F839002068E2
:102B5000C16821F40051C160204600F06BFE20687E
:102B6000016921F4904101612068416921F02A0145
:102B700041612068C16841F40051C160E5632020D3
:102B800084F8390084F83A00002070BD001001403C
:102B90000044004000480040001401402E2E2F4405
:102BA0007269766572732F53544D33324634787898
:102BB0005F48414C5F4472697665722F5372632F90
:102BC00073746D3332663478785F68616C5F7561F9
:102BD00072742E6300000000004C00400050004062
:102BE0002DE9F041064600682D4986B0884254D14F
:102BF0002C480024016841F4802101600068694686
:102C000000F4802005904FF4406000900220019075
:102C10000120029003200390072004902248FEF731
:102C200087F9234D21484FF000672860C5E90174FA
:102C30004FF48068C5E903486C61AC61EC612C62BB
:102C400028466C62FDF74AFF18B16F2119A000F009
:102C5000CCFF7563AE63164D144860353030E5E83F
:102C600002074020A5E81101114845F814496030D9
:102C7000AC61EC612C626C62FDF730FF18B1812110
:102C80000CA000F0B2FF3563002211462720AE638E
:102C9000FEF7C4FB2720FEF791FB06B0BDE8F081EC
:102CA00000480040403802400004024028600240D2
:102CB0009C0400202E2E2F436F72652F5372632FBA
:102CC00075736172742E630070477047FEE70000F1
:102CD0002DE9F04F7E4887B00024016841F01001D3
:102CE0000160016801F010010591016841F00401E3
:102CF0000160016801F004010591016841F0800163
:102D00000160016801F080010591016841F0010155
:102D10000160016801F001010591016841F00201C3
:102D20000160016801F002010591016841F00801AC
:102D300001600068DFF89CB100F0080040F60F0861
:102D40000590002241465846FEF778FA00222521D8
:102D50006148FEF773FA4FF48859002249465F48EC
:102D6000FEF76CFA4FF4014A002251465C48FEF728
:102D700065FA0022B8215B48FEF760FA4EF2D540B2
:102D80000326CDE90006694602945448FEF7D0F8C0
:102D9000554F0A20CDE900070125694602954F48A5
:102DA000FEF7C6F82020CDE90007694602954B489A
:102DB000FEF7BEF86803CDE900076946029558465C
:102DC000FEF7B6F8B003CDE900076946029558460C
:102DD000FEF7AEF8CDF80080CDE9015469465846BB
:102DE0000394FEF7A5F841F61D60CDE9000669469B
:102DF00002943B48FEF79CF841F23040CDE90006D2
:102E0000694602945846FEF793F825200090CDE9D4
:102E10000154694630480394FEF78AF84FF2521085
:102E2000CDE90006694602942B48FEF781F8CDF8FB
:102E30000090CDE90154694628480394FEF778F8DC
:102E40004CF64770CDE90006694602942548FEF726
:102E50006FF8CDF800A0CDE90154694620480394ED
:102E6000FEF766F8B8200090CDE9015469461D4888
:102E70000394FEF75DF84FF42070CDE90007694632
:102E800002951548FEF754F8002211460720FEF778
:102E9000C5FA0720FEF792FA002211460920FEF734
:102EA000BDFA0920FEF78AFA002211461720FEF724
:102EB000B5FA1720FEF782FA002211462820FEF705
:102EC000ADFA2820FEF77AFA07B0BDE8F08F0000CF
:102ED0003038024000080240000402400010024066
:102EE00000000240000C02400000211010B51848FC
:102EF0008CB016490024C0E900144FF6FF71C0E9F8
:102F00000241046144610320CDE900040120CDE9C0
:102F100002040494CDE90540079469460C480894DE
:102F2000FFF7B4F818B14E210AA000F05EFE099434
:102F300009A907480A94FEF7A1FF002803D05521EC
:102F400004A000F052FE0CB010BD000000000140D3
:102F5000300300202E2E2F436F72652F5372632F84
:102F600074696D2E6300000010B517488CB04FF0E7
:102F700080410024C0E900144FF6FF71C0E902410E
:102F800004610320CDE900040120CDE9020404948A
:102F9000CDE90540079469460B480894FFF776F899
:102FA00018B16F2109A000F020FE099409A9064874
:102FB0000A94FEF763FF002803D0762103A000F0F7
:102FC00014FE0CB010BD00006C0300202E2E2F4309
:102FD0006F72652F5372632F74696D2E630000004A
:102FE00010B517488CB015490024C0E900144FF6FD
:102FF000FF71C0E9024104610320CDE90004012012
:10300000CDE902040494CDE90540079469460C48D3
:103010000894FFF73BF818B190210AA000F0E5FDF5
:10302000099409A906480A94FEF728FF002803D04E
:10303000972104A000F0D9FD0CB010BD00040040A1
:10304000A80300202E2E2F436F72652F5372632F1B
:1030500074696D2E6300000010B517488CB01549D7
:103060000024C0E900144FF6FF71C0E90241046179
:103070000320CDE900040120CDE902040494CDE948
:103080000540079469460C480894FEF7FFFF18B105
:10309000B1210AA000F0A9FD099409A906480A94E3
:1030A000FEF7ECFE002803D0B82104A000F09DFD3F
:1030B0000CB010BD00080040E40300202E2E2F436A
:1030C0006F72652F5372632F74696D2E6300000059
:1030D00010B5344890B032490024C0E900142021D2
:1030E000816042F60311C0E903144461FFF7E8FA76
:1030F00018B1CB212CA000F078FD0E940EA9294820
:103100000F94FEF7BBFE18B1D22127A000F06DFD91
:103110006020CDE9000402940394049405940022F5
:10312000694620480694FFF78DF918B1DE211EA0EC
:1031300000F05BFD042269461A48FFF783F918B1D5
:10314000E32119A000F051FD082269461548FFF758
:1031500079F918B1E82114A000F047FD0C22694666
:103160001048FFF76FF918B1ED210FA000F03DFDF9
:103170000794089409944FF400500A94CDE90B4049
:1031800007A908480D94FEF7D1FD18B1F92106A052
:1031900000F02BFD0348FFF73BF910B010BD000015
:1031A00000040140200400202E2E2F436F72652F53
:1031B0005372632F74696D2E630000000D4810B5C3
:1031C0000B4901604FF4E1314160002181600C2224
:1031D000C160C0E904128161C161FFF75DFC002894
:1031E00005D0BDE81040452103A000F0FEBC10BD95
:1031F000004800405C0400202E2E2F436F72652F84
:103200005372632F75736172742E6300FEE770470B
:103210000907090E002806DA00F00F0000F1E0208F
:1032200080F8141D704700F1E02080F8001470470A
:103230007047704710B5FEF73DF8BDE81040FEF747
:1032400070BD000030B5254893B00025016841F0FD
:1032500080510160006800F08050119020480168A2
:1032600041F4804101600068022400F48040119024
:1032700001200090000401908001CDE90640082063
:1032800008904FF4A870CDE9090404200B9068461B
:10329000FEF7D0FA00B1FEE70CA90F2081E831005B
:1032A0004FF4A0500F904FF48050109005210CA8BF
:1032B000FEF744F900B1FEE7FEF764FA4FF47A71C5
:1032C000B0FBF1F0FEF719FD0420FEF7E3FC00224D
:1032D0001146501EFEF7A2F813B030BD4038024030
:1032E000007000401048016841F4700101600F480F
:1032F000016841F0010101600C4A002108321160AF
:1033000002680B4B1A400260031D0A4A1A600268E9
:1033100022F48022026005480C3001600249580600
:10332000803908607047000088ED00E000380240F6
:10333000FFFFF6FE10300024F0B50268234B244D49
:10334000244E254F254C4FF0804C984209D06045C3
:1033500007D0A84205D0B04203D0B84201D0A04265
:1033600004D122F0700E4A6842EA0E0298421BD045
:10337000604519D0A84217D0B04215D0B84213D03A
:10338000A04211D0164DA8420ED0164DA8420BD027
:10339000154DA84208D0154DA84205D0144DA8429D
:1033A00002D0144DA84203D122F44075CA682A43C2
:1033B00002608A68C2620A688262984201D0A042B2
:1033C00001D10969016301214161F0BD00000140A3
:1033D0000004004000080040000C004000040140D0
:1033E00000400140004401400048014000180040F6
:1033F000001C00400020004070B5044621481646DD
:103400000D46844225D0B4F1804F22D01E4884421C
:103410001FD01E4884421CD01D48844219D01D482C
:10342000844216D01C48844213D01C48844210D0D9
:103430001B4884420DD01B4884420AD01A4884425B
:1034400007D01A48844204D041F2882118A001F024
:1034500046F865B1042D0AD0082D08D00C2D06D0F1
:10346000182D04D041F2892111A001F038F8012073
:10347000216AA84081432162206AAE403043206225
:1034800070BD000000000140000400400008004042
:10349000000C004000040140004001400044014095
:1034A0000048014000180040001C0040002000407F
:1034B0002E2E2F447269766572732F53544D33321A
:1034C000463478785F48414C5F4472697665722F64
:1034D0005372632F73746D3332663478785F68612A
:1034E0006C5F74696D2E630030B5026A22F00102D0
:1034F0000262026A436884690D6824F073042543FC
:1035000022F002048A6822430B4CA04202D00B4CEA
:10351000A0420BD122F00804CA6823F4407322436E
:103520004C6922F004021C438B692343436085618C
:1035300049684163026230BD00000140000401405F
:103540002DE9F0410446006A0D4620F0100020628B
:10355000206A6768A1692A6821F4E64141EA0228E5
:10356000A96820F0200040EA01161348844202D0E6
:103570001248844217D1E86830B1082804D041F2DB
:1035800005210FA000F0ABFFE96826F0800040EABB
:10359000011020F04006696927F4406040EA81008C
:1035A000A96940EA81076760C4F818806868A06369
:1035B0002662BDE8F08100000000014000040140E7
:1035C0002E2E2F447269766572732F53544D333209
:1035D000463478785F48414C5F4472697665722F53
:1035E0005372632F73746D3332663478785F686119
:1035F0006C5F74696D2E63002DE9F0410446006A2A
:103600000D4620F480702062206A6768E16920F42A
:10361000007021F07302296841EA0208A96840EAB3
:1036200001261D48844202D01C4884422BD1E86800
:1036300030B1082804D041F2173119A000F04FFF33
:10364000A869B0F5007F05D020B141F2183114A06F
:1036500000F045FF6869B0F5807F05D020B141F2E8
:1036600019310FA000F03BFFE96826F4006040EA42
:10367000012020F48066696927F4405040EA011077
:10368000A96940EA01176760C4F81C806868E063B4
:103690002662BDE8F0810000000001400004014006
:1036A0002E2E2F447269766572732F53544D333228
:1036B000463478785F48414C5F4472697665722F72
:1036C0005372632F73746D3332663478785F686138
:1036D0006C5F74696D2E63002DE9F0410446006A49
:1036E0000D4620F480502062206A6668E1692A68ED
:1036F00021F4E64141EA0228A96820F4005040EA9A
:1037000001370E48844202D00D4884420ED16869C8
:10371000B0F5807F05D020B141F25D3109A000F005
:10372000DEFE696926F4804040EA81166660C4F8CE
:103730001C80686820642762BDE8F08100000140B9
:10374000000401402E2E2F447269766572732F5348
:10375000544D3332463478785F48414C5F44726947
:103760007665722F5372632F73746D3332663478BB
:10377000785F68616C5F74696D2E630010B5806B53
:103780000021C185C184FFF7FDF810BD0168CA683A
:1037900022F49072CA6001684A6922F001024A610B
:1037A000202180F83A10704710B590F83A1022297D
:1037B00001D0022010BD8168B1F5805F11D0016990
:1037C000002901681FD0496801F07F03816A4A1C03
:1037D00082620B70C18D491E0904090CC18518D085
:1037E00026E00269816A002A0268526805D0D2B2D6
:1037F0000A80816A491C8162ECE7C2F308020A80F0
:10380000816A891CF7E74A68816A4B1C83620A70E7
:10381000E0E70168CA6822F49072CA6001684A69E8
:1038200022F001024A61202180F83A10FFF74CFA99
:10383000002010BD2DE9F04104464068BC49884293
:1038400004D340F68511BBA000F049FEE06838B112
:10385000B0F5005F04D040F68611B6A000F03FFE40
:10386000206950B1B0F5806F07D0B0F5C06F04D0BB
:1038700040F68711AFA000F032FE60694FF6F37199
:10388000084200D120B940F68811AAA000F027FE16
:103890002268106920F44051E068084310612268F2
:1038A000D06849F20C6188432369A168E56919432E
:1038B00063692B4319430143D1602268506920F4A6
:1038C0004071A06908435061E2696425B2F5004F78
:1038D000A748A84922684FF032083FD08A4201D059
:1038E00082427CD1FDF764FF00EBC00101EB0010C8
:1038F00061688900B0FBF1F6FDF75AFF00EBC001EB
:1039000001EB001061688900B0FBF1F0B0FBF5F04D
:103910006FF01801484306EB800108EB0110B0FB83
:10392000F5F000F0F006FDF743FF00EBC00101EBFE
:10393000001061688900B0FBF1F0B0FBF5F006EB18
:103940000016FDF735FF00EBC00101EB00106168C8
:103950008900B0FBF1F7FDF72BFFD2E08A4201D0DE
:1039600082423DD1FDF724FF00EBC00101EB0010C6
:1039700061684900B0FBF1F0B0FBF5F00601FDF71E
:1039800017FF00EBC00101EB001061684900B0FBBC
:10399000F1F7FDF70DFF00EBC00101EB00106168CE
:1039A0004900B0FBF1F0B0FBF5F06FF018014843AF
:1039B00007EB800108EBC100B0FBF5F000F0F80068
:1039C00006EB4006FDF7F4FE00EBC00101EB001032
:1039D00061684900B0FBF1F7FDF7EAFE3CE055E015
:1039E000FDF7D6FE00EBC00101EB00106168490055
:1039F000B0FBF1F0B0FBF5F00601FDF7C9FE00EBFE
:103A0000C00101EB001061684900B0FBF1F7FDF760
:103A1000BFFE00EBC00101EB001061684900B0FB84
:103A2000F1F0B0FBF5F06FF01801484307EB8001AF
:103A300008EBC100B0FBF5F000F0F80006EB400623
:103A4000FDF7A6FE00EBC00101EB00106168490024
:103A5000B0FBF1F7FDF79CFE00EBC00101EB00109D
:103A600061684900B0FBF1F0B0FBF5F06FF01801B0
:103A7000484307EB800108EBC100B0FBF5F000F014
:103A80000700216830448860BDE8F081FDF780FEC2
:103A900000EBC00101EB001061688900B0FBF1F69A
:103AA000FDF776FE00EBC00101EB001061688900B4
:103AB000B0FBF1F0B0FBF5F06FF01801484306EBF6
:103AC000800108EB0110B0FBF5F000F0F006FDF707
:103AD0005FFE00EBC00101EB001061688900B0FBE4
:103AE000F1F0B0FBF5F006EB0016FDF751FE00EB30
:103AF000C00101EB001061688900B0FBF1F7FDF730
:103B000047FE00EBC00101EB001061688900B0FBCB
:103B1000F1F0B0FBF5F06FF01801484307EB8001BE
:103B200008EB0110B0FBF5F000F00F00A9E7000072
:103B3000A137A0002E2E2F447269766572732F5321
:103B4000544D3332463478785F48414C5F44726953
:103B50007665722F5372632F73746D3332663478C7
:103B6000785F68616C5F756172742E63000000009D
:103B7000001401400010014090F83910212901D0B3
:103B8000022070478168B1F5805F016A0BD04A1C42
:103B90000262026809785160C18C491E0904090C4F
:103BA000C1840ED017E009880268C1F30801516092
:103BB00001690029016A02D0491C0162ECE7891CF5
:103BC000FBE70168CA6822F08002CA600068C16829
:103BD00041F04001C1600020704700000148FEF73D
:103BE000D3BE00005C040020FEE7FEE70FB4054BE7
:103BF00010B503A9044A029800F0DAF810BC5DF889
:103C000014FB0000ED4600082800002002E008C870
:103C1000121F08C1002AFAD170477047002001E046
:103C200001C1121F002AFBD1704700002DE9FF5F80
:103C300082B00021DDE90430020DDDF840B003431D
:103C400018D044F61050A2F2FF32424315141198D6
:103C500001281FD0A5EB0B00401C5FEA000A4FF0C3
:103C600000064E4FDFF83891B046504615D5CAF1E0
:103C7000000413E0119801244AA3012801D16FEA3E
:103C80000B010298119AC0E90031C0E9024206B066
:103C9000BDE8F09FCBF10000DFE704460021404A79
:103CA000491842EB0450CDE9001012E0E00707D0BC
:103CB00032463B4640464946FCF75AFB8046894619
:103CC00032463B4610461946FCF752FB06460F4665
:103CD0006410002CEAD1DDE90401DDE90023BAF12A
:103CE000000F06DAFCF744FB42464B46FCF740FB6C
:103CF00005E0FCF7AFFB42464B46FCF7ABFB044646
:103D00000E460022284BFCF76DFD03D84FF0FF3024
:103D1000014607E00022254B20463146FCF781FA98
:103D2000FCF748FD102409E0002C0ADB0A220023DE
:103D3000FCF746FA039B30321A55641E50EA010222
:103D4000F2D1641C039AC4F111031444119A012A9C
:103D500003D0012208430DD10AE0084304D000201B
:103D60004FF0110B119072E7A3EB0B056D1E0DE0E8
:103D70005B4504DD4FF0000205F1010504E003DAC4
:103D80004FF00002A5F10105002AECD0029811992C
:103D9000C0E90231C0E9004579E7000000001440A5
:103DA0000000F03F300000000000F0430000E03F62
:103DB0002DE9FF4F95B09B468946064600250FE248
:103DC000252877D100242746F84A0121059400E0F0
:103DD000044316F8013F203B01FA03F01042F7D1EB
:103DE00030782A2811D06FF02F033078A0F13002FC
:103DF000092A16D8059A44F0020402EB820203EB6A
:103E000042021044761C0590EFE759F8042B059206
:103E1000002A03DA504244F40054059044F00204AE
:103E2000761C30782E2816D116F8010F44F00404C1
:103E30002A280DD06FF02F023078A0F13003092B23
:103E400009D807EB870302EB4303C718761CF3E797
:103E500059F8047B761C30786C280FD006DC4C288F
:103E600017D068280DD06A2814D104E0742810D027
:103E70007A280FD10DE044F400140AE044F48014D1
:103E800001E044F440147278824202D104F58014B7
:103E9000761C761C307866280BD013DC582877D037
:103EA00009DC002875D04528F6D04628F4D04728EC
:103EB0001AD19DE118E0632835D0642879D06528AF
:103EC00012D195E1702873D008DC6728F1D06928F9
:103ED0006FD06E280DD06F2806D1B5E073282CD096
:103EE000752875D0782874D05A46179990476D1C5C
:103EF00075E1C4F30250022809D003280DD0D9F887
:103F0000001004280DD00D6009F1040967E1D9F80B
:103F10000010EA17C1E90052F6E7D9F800100D8049
:103F2000F2E70D70F0E719F8041B8DF8001000207F
:103F30008DF80100EA46012003E059F804AB4FF088
:103F4000FF3061074FF0000102D40DE008F10101DC
:103F50008846B9420FDA8045F8DB1AF808100029C4
:103F6000F4D108E008F1010188468142FADB1AF831
:103F700008100029F6D105985B46A0EB08072146FA
:103F80003846179A00F094FA284400EB080507E039
:103F90004DE029E10DE01AF8010B5A4617999047B8
:103FA000B8F10108F7D25B4621463846179A13E16B
:103FB00042E00A220092C4F302524FF0000A022AA1
:103FC00008D059F804CB032A4FEAEC710AD00DE06F
:103FD00029E02AE009F1070121F00702F2E802C115
:103FE000914609E00FFA8CFC4FEAEC71042A03D1E8
:103FF0004FFA8CFC4FEAEC71002907DA0A460021DF
:10400000DCF1000C61EB02012D2202E0220504D557
:104010002B228DF80420012203E0E20701D02022A8
:10402000F7E7904659E00A2102E010220DE0102146
:104030004FF0000A00910BE010224FF0000A44F00C
:1040400004040827009203E008224FF0000A0092BF
:10405000C4F30252022A05D059F804CB0021032AE6
:1040600008D009E009F1070121F00702F2E802C1D6
:10407000914605E01FFA8CFC042A01D10CF0FF0CDC
:104080004FF00008220728D5702806D0009B83F047
:10409000100353EA0A0305D00EE040228DF80420F5
:1040A000012208E05CEA010206D030228DF80420EB
:1040B0008DF8050002229046009B83F0080353EA26
:1040C0000A030AD15CEA010201D1620705D5302258
:1040D0008DF804204FF001087F1E582804D034A02A
:1040E00003900EA802900DE036A0F9E75346604613
:1040F000009AFCF765F884460398825C0298401E9B
:10410000029002705CEA0100F0D1029806A9081A38
:1041100000F1200A600702D524F4803400E0012772
:10412000574502DDA7EB0A0000E0002000EB0A0182
:10413000009005984144401A0590E00306D45B4680
:104140002146179A059800F0B3F90544002706E0C8
:1041500001A85A46C05D179990476D1C7F1C4745C2
:10416000F6DBE0030CD55B462146179A059800F074
:104170009FF9054404E030205A46179990476D1C7A
:104180000099481E00900029F5DC08E00298029989
:104190005A460078491C0291179990476D1CBAF154
:1041A0000001AAF1010AF1DC65E100000928010023
:1041B000303132333435363738396162636465669D
:1041C000000000003031323334353637383941425F
:1041D000434445460000000000F058F90544761CB1
:1041E000307800287FF4ECAD19B02846BDE8F08F98
:1041F000620700D4062709F1070222F0070CFCE849
:104200000223E14603F000485FEA080C02D00FF2F7
:10421000702C0DE05FEA045C02D50FF2682C07E019
:104220005FEAC47C02D00FF2602C01E0AFF2700CA8
:104230004FF0FF3823F00043CDF850C065280CD074
:1042400006DC452809D046281DD047283DD13DE051
:10425000662818D067287ED138E00021112F01DBB5
:10426000112000E0781CCDE9000106A90EA8FFF797
:10427000DDFCDDE90F010E9A03910021009207F1A8
:10428000010A04914DE04FF000400097CDE9011084
:1042900006A90EA8FFF7CAFCDDE90F0203920E9BE8
:1042A00011990022DDF80CA00093049211B9791C39
:1042B00000EB010AB7EB0A0004D4C0F1FF3007F1AC
:1042C000010A0490AAEB0700019044E0012F00DAF4
:1042D00001270021112F01DD112000E03846CDE932
:1042E000000106A90EA8FFF7A1FCDDE90F010E9A57
:1042F0000391002104910092BA4621070CD403993E
:10430000514500DA8A46BAF1010F05DD009AAAF19B
:104310000101515C302908D0B84202DA10F1040FD3
:1043200006DA0121CDE9011015E0AAF10101E9E762
:10433000002805DC049901440491AAEB000102E085
:10434000411C514500DD8A460499401A401C0190E9
:104350004FF000400290200704D40198504501DB43
:10436000CDF8048000208DF84F0002980DF14F0722
:10437000B0F1004F25D02B200E9002984FF002088C
:1043800000280CDA404202902D200E9007E00A210E
:104390000298FCF734F93031029007F8011DB8F1AA
:1043A0000001A8F10108F2DC02980028EFD1791E83
:1043B0000E980870307800F0200040F0450007F8B3
:1043C000020D12A8C01B00F107081498007800B174
:1043D000012000EB0A01019801EBE07105984144CE
:1043E000401A401E0590E00306D45B462146179A0A
:1043F000059800F05DF805441498007818B15A4605
:10440000179990476D1CE00324D55B462146179A07
:10441000059800F04DF805441CE00498002807DBDF
:10442000DDE90301884203DD0098405C179901E053
:10443000179930205A469047049805F10105401C11
:1044400004900198401E019004D12E205A461799DD
:1044500090476D1CBAF10001AAF1010ADDDC05E00C
:1044600017F8010B5A46179990476D1CB8F10001D7
:10447000A8F10108F4DC5B462146179A0598ABE6E3
:104480002D0000002B000000200000002DE9F0416D
:10449000044600251E461746880404D405E0394624
:1044A0002020B0476D1C641EF9D52846BDE8F08178
:1044B0002DE9F041044600251E469046C80301D56B
:1044C000302700E02027880404D505E0414638461F
:1044D000B0476D1C641EF9D52846BDE8F0817047D1
:1044E0002DE9F04F544E00242DED048B83B006F1DE
:1044F00008089FED529BDFF850B1DFF848A1A6F104
:1045000018050BF1100900BF36F8142038F8141004
:1045100028F81420511A0FB2A868FCF71BF841ECD8
:10452000180B3846FCF705F853EC192BFBF720FF66
:1045300053EC182BFBF78EFFFCF745F808EE100A3A
:10454000287984424AD16979F1BBA4EB041189002E
:1045500000913E4901EB801000F058FCC4EB0411BF
:104560000AEB81070099384600EE101AB8EEC00A2F
:1045700000F060FB0BEB8400019090ED000A3846E0
:1045800000F0CAFA2889C4EBC40281B22E48F0EECA
:10459000480A203000EBC20000F0A0FB09EB8401C8
:1045A00081ED000A97F83810012917D10199D1ED52
:1045B000000A009900EE101AB8EEC00AF4EEC00A24
:1045C000F1EE10FA0ADB00E008E0012169712979B7
:1045D0009FED1F0A09EB810080ED000A28798442D3
:1045E00021D06879F8B1C4EB04110AEB81000746C9
:1045F0009FED180A00F01EFB0BEB840090ED000A03
:10460000384600F089FA2889C4EBC40281B20E480A
:10461000F0EE480A203000EBC20000F05FFB09EB2F
:10462000840080ED000A641C042CFFF66DAF03B01B
:10463000BDEC048BBDE8F08F18000020C02154A908
:10464000D903E73F3C010020300200203C0000205D
:10465000000000000000704270B5104B0021104CAB
:104660001A7908465FF00105C0EB001604EB8606D8
:1046700096F83860012E06D1904204D001EB8101FA
:1046800005EB410189B2401CC0B20428ECD3D888A4
:10469000814201D1012070BD002070BD00000020CA
:1046A0003C01002010B518210848FDF74DFE1821E7
:1046B0000748FDF749FE18210648FDF745FEBDE80D
:1046C000104018210448FDF73FBE000030030020D1
:1046D0006C030020A8030020E4030020B5EEC00A0C
:1046E000F1EE10FA01D2B1EE400A704708490968AC
:1046F000C90706D0064980390968CA074FF06041EA
:1047000001D1704700BF0A68002AFBD008707047CB
:10471000800E00E02DE9F0411A4E1D4D00242DEDD4
:10472000028BA6F108079FED188B00BF36F9141015
:1047300037F91400002900DA4942002800DA404223
:10474000081AFBF7F6FE53EC182BFBF711FEFBF7EC
:104750003AFF00EE100ADFED0F0A01E030EE600ACA
:1047600010EE100AA842F9DA0B4800EB8400641C32
:10477000E4B280ED000A042CD8D3BDEC028BBDE876
:10478000F081000018000020F9533E5F0E16B73F7D
:104790000000B4430000B4433002002030B5274885
:1047A000274B9FED280A002100EB811211709363C3
:1047B00082ED020A491C82ED030A0429F4DB224936
:1047C00081618A1582830162D10181840021C163E4
:1047D0001E49816282851E4AC9148265A0F85C1058
:1047E0001C4908230166A0F864300424C46782666B
:1047F000A0F86C301025C0F89810A0F89C50202527
:10480000C0F8A010A0F8A450C0F8BC30C0F8A82090
:104810000222A0F8AC20C0F8D8108021A0F8DC104B
:104820000D49C0F8E010A0F8E4500C22C0F8FC20BC
:10483000C0F8E810A0F8EC4030BD00003C000020BB
:104840002004002000000000000002400010024090
:1048500000080240000C02400004024010B5818DA7
:10486000806A0022FCF7EAFCBDE810400A20FCF751
:10487000A5BA00002DED028B88B0FCF715FD06905F
:10488000FCF712FDFCF710FDFCF71CFDFEF7DAFC4F
:10489000FEF71EFAFEF71CFCFEF790FCFEF726FB67
:1048A000FEF762FBFEF79CFBFEF7D6FBFFF776FFF9
:1048B000FAEE080AB2EE080A7F4800F08FFB7E4845
:1048C000FAEE080A3830B2EE080A064600F086FB17
:1048D0007948FAEE080A7030B2EE080A054600F090
:1048E0007DFB7548FAEE080AA830B2EE080A0446C5
:1048F00000F074FB7148FDF753FB00216F48FDF792
:1049000091FF04216D48FDF78DFF08216B48FDF7ED
:1049100089FF0C216948FDF785FF9FED698AB0EE9C
:10492000481AF0EE480ADFED678A6348B0EE680A7D
:1049300000F0BAFAB0EE481AF0EE480A9FED620AAB
:10494000304600F0B1FAB0EE481AF0EE480AB0EE88
:10495000680A284600F0A8FAB0EE481AF0EE480AB5
:10496000B0EE680A204600F09FFA584CD4ED031AC6
:10497000DFED578AB0EE681A9FED568AB0EE080A4E
:104980005548F0EE480A00F035F95348D4ED031AC3
:10499000B0EE681AF0EE480AB0EE080A3C3000F0BB
:1049A00029F94D48D4ED031AB0EE681AF0EE480A22
:1049B000B0EE080A783000F01DF94748D4ED031A2C
:1049C000B0EE681AF0EE480AB0EE080AB43000F013
:1049D00011F900F08DFAA3464048416A3B4818306F
:1049E00001804FF08041496A41803D4909688180DA
:1049F0003C490968C1809BF802005C4618B1FFF78A
:104A000051FE0020A070FFF785FEFCF74DFC0699D3
:104A1000401AA1688842DFD9FCF746FC069020784E
:104A20000028D9D0FFF75CFD2348103800F0DCFAED
:104A3000B0EE480AFFF710FEDFF87CA0E070AAF1A4
:104A4000200AA346DAF80C00FBF7AAFD8046894647
:104A5000DAF80800FBF7A4FD06460F46DAF8040072
:104A6000FBF79EFD04460D46DAF80000FBF798FDC3
:104A70008DE8F00341EC110B1BA053EC112BFFF759
:104A8000B5F89BF803000028A6D01C489BF804103A
:104A90005C4600EB8110FFF7E1FEE17818A0FFF71C
:104AA000A5F800206071E0702079401C207100F0B2
:104AB000B9F900F0CFF98FE7500200202004002060
:104AC00000000000295C0F3F3333333F000000201B
:104AD00000004842000070423C01002000000140FC
:104AE0002404004024080040256620092025662073
:104AF000092025662009202566200A003C000020A8
:104B00005068617365206368616E676520666C61DB
:104B1000673A25640A000000B0EE402A90ED0B0AC7
:104B2000D0ED030A90F83810B8EEC00A002960EE04
:104B3000200A9FED2F0A59D1F5EEC00AF1EE10FAC6
:104B40000DDDD0ED051AF4EEE01AF1EE10FA06DDF7
:104B500090ED001A61EE202A82EEA11A28E0D0ED35
:104B6000051AF4EEE01AF1EE10FA09D2D0ED061AA9
:104B7000F4EEE01AF1EE10FA02DD90ED001A17E003
:104B8000D0ED062AF4EEE02AF1EE10FA10D2D0EDC4
:104B9000041AF4EEE01AF1EE10FA09DD30EEE13A13
:104BA00090ED001A72EEE11A21EE033A83EE211A1B
:104BB000D0ED041AF4EEE01AF1EE10FA06D3D0EDBF
:104BC000010AF4EEC20AF1EE10FA06D20021C16227
:104BD0000121B0EE401A80F83810C16A491CC16248
:104BE00090ED0C0AB8EEC00A20EE010A70470000F2
:104BF00000000000F5EEC00A0121F1EE10FA016399
:104C000003D28A1EF1EE600A0263F5EEC00A80EC60
:104C1000040A0022F1EE10FAC26280F8382001D1B5
:104C200080F8381070470021C1627047002180F879
:104C30003810704710B504462DED028BB0EE408A57
:104C40000120B5EEC08A2063F1EE10FA03D2811E76
:104C5000B1EE488A2163B5EEC08AF1EE10FA01D1B7
:104C600084F8380018EE100AFBF79AFC9FED161B2B
:104C700053EC112BFBF77CFB9FED151B53EC112B19
:104C8000FBF7E8FBFBF79FFC84ED018A00EE100ABE
:104C900094ED001AC0EE010A9FED0F0AC4ED040A5C
:104CA00094ED021A61EE201A30EE411A81EE802A4C
:104CB00061EE200A80EE801A84ED052A84ED061A42
:104CC000BDEC028B10BD00007A008BFCFA2109407C
:104CD00000000000008066400000C84210B5B0EE41
:104CE000001A2DED088B30EE608A00EE101A044693
:104CF000D0ED078AB8EE400A60EE080A9FED3E0A42
:104D000080EE809AF0EE480A48EEC10A90ED081A4B
:104D100070EE810A60EE800A00EE101AB8EE401ABA
:104D200080EE810A10EE100AFBF73AFC94ED041BAA
:104D300053EC112BFBF71CFB41EC1A0B19EE100A7C
:104D4000FBF72EFC94ED021B53EC112BFBF710FB31
:104D500041EC190B18EE100AFBF722FC94ED001B36
:104D600053EC112BFBF704FB41EC1B0B606AFBF7C8
:104D700017FC53EC1B2BFBF754FA53EC192BFBF7E6
:104D800050FA53EC1A2BFBF74CFAFBF71CFC00EE25
:104D9000100A84ED0A0A84ED090AC4ED088A84ED3C
:104DA000078AD4ED0B0AB4EEE00AF1EE10FA02DC49
:104DB000D4ED0A0A01E0C4ED0A0A94ED0C0AF4EEFF
:104DC000C00AF1EE10FA01D284ED0A0AA06AFBF7DC
:104DD000E7FB9FED0A1B53EC112BFBF7C9FA9FED84
:104DE000091B53EC112BFBF735FBFBF7ECFBBDEC80
:104DF000088B00EE100A10BD00007A44000000008D
:104E000000002E40000000000000284010B5818DF9
:104E1000806A0122FCF712FABDE810400A20FBF775
:104E2000CDBF00000748416A074801804FF080412C
:104E3000496A418005490968818005490968C1803E
:104E400070470000000001401000002024040040D2
:104E50002408004070B5094E002400BFC4EB0410C4
:104E600006EB80052846FFF7DEFE2846FFF7DEFE4C
:104E7000641CE4B2042CF1D370BD00003C0100209E
:104E8000C36B0A46806B1946AFF3008042F60313EA
:104E90005A434FF6FF73B2FBF3F2036821F00300AD
:104EA000343092B21A50704710B504462DED028B83
:104EB000B0EEC00AB0EE418AF0EE608A10EE100A41
:104EC000FBF76EFBB0EEE80AC4E9000110EE100A31
:104ED000FBF766FBB0EEC80AC4E9020110EE100A47
:104EE000FBF75EFBC4E90401BDEC028B10BD0000C2
:104EF00070B508490020084D0870044605EB841081
:104F0000B9EE000A00F032F8641CE4B2042CF5D3C8
:104F100070BD0000000000203C00002010B50446D9
:104F200089B1012913D0022915D003291CD1A18BE5
:104F30000122A069FCF782F9A18C206A0122BDE858
:104F40001040FCF77BB9A18B0122A06906E0A18B80
:104F50000022A069EEE7A18B0022A069FCF76EF9A0
:104F6000A18C0022206AEAE710BD000070B504465B
:104F70002DED028BB0EE408AFFF7B0FB10EE100A69
:104F8000FBF70EFB9FED131B53EC112BFBF7F0F916
:104F9000FBF7EDFAB5EEC08A85B2F1EE10FA01DD4D
:104FA000002105E0B5EEC08AF1EE10FA05D201212C
:104FB0002046FFF7B3FF294604E002212046FFF711
:104FC000ADFF00212046FFF75BFF84ED038ABDECB7
:104FD000028B70BD000000004055B54080ED0B0A0B
:104FE000C0ED0C0A7047000070B5084E054600245D
:104FF00005EB840090ED000A06EB8410FFF7B6FF86
:10500000641CE4B2042CF3D370BD00003C0000200B
:105010000006101600061016000000000000000038
:10502000010203040607080900000000010203044E
:1050300050500008000000203C0000000C3C00081C
:105040008C5000083C000020240900001C3C000893
:105050000101000000006F0009000000BC74133C57
:105060000000000000000000000000000000000040
:10507000000000000000000000000000010000002F
:0C50800010000000000000000024F400FC
:040000050800018965
:00000001FF
