:020000040800F2
:10000000000600209D0100081B2600083D22000874
:100010001926000825040008CD2E00080000000065
:100020000000000000000000000000003F26000863
:1000300027040008000000003D26000841260008B3
:10004000B7010008B7010008B7010008B7010008B0
:10005000B7010008B7010008B70100083F04000815
:10006000B7010008B7010008B7010008B701000890
:10007000B7010008B7010008B7010008B701000880
:10008000B7010008B7010008B7010008B701000870
:10009000B7010008B7010008B701000845040008CF
:1000A000B7010008B7010008B7010008B701000850
:1000B000B7010008B7010008B7010008B701000840
:1000C000B7010008B7010008B7010008B701000830
:1000D000B7010008B7010008B7010008B701000820
:1000E00029040008B7010008B7010008B70100089B
:1000F000B7010008B7010008B7010008B701000800
:10010000B7010008B7010008B7010008B7010008EF
:10011000B7010008B7010008B7010008B7010008DF
:10012000B7010008B7010008B7010008B7010008CF
:10013000B7010008B7010008B7010008B7010008BF
:10014000B7010008B7010008B7010008B7010008AF
:10015000B7010008B7010008B7010008B70100089F
:10016000B7010008B7010008B7010008B70100088F
:10017000B7010008B7010008B7010008000000003F
:10018000B7010008B7010008DFF80CD000F07EF8D6
:1001900000480047913000080006002006488047CC
:1001A00006480047FEE7FEE7FEE7FEE7FEE7FEE75C
:1001B000FEE7FEE7FEE7FEE7F126000889010008FA
:1001C0002DE9F05F0546002092469B46884606468C
:1001D000814640241BE0284641464746224600F01F
:1001E00045F853465A46C01A914110D31146184655
:1001F000224600F02CF82D1A67EB01084F462246E4
:100200000120002100F023F817EB00094E41201EC9
:10021000A4F10104DFDC484631462A464346BDE8E6
:10022000F09F30B50B46014600202022012409E052
:1002300021FA02F59D4205D303FA02F5491B04FA9F
:1002400002F52844151EA2F10102F1DC30BD202A7E
:1002500004DB203A00FA02F1002070479140C2F11D
:10026000200320FA03F3194390407047202A04DB4F
:10027000203A21FA02F00021704721FA02F3D0401F
:10028000C2F120029140084319467047064C074DC1
:1002900006E0E06840F0010394E807009847103456
:1002A000AC42F6D3FFF774FFC0320008E03200081A
:1002B00010B504464A48416821F440314160416824
:1002C0006268114341602068416821F48071416097
:1002D00020684168226941EA022141602068416842
:1002E00021F04071416020684168A268114341607B
:1002F0002068816821F40061816020688168E2687B
:1003000011438160A06A6FF07061C8422068816803
:1003100021F070618160206881680CD0A26A11436D
:1003200081602068816821F0405181602068816887
:10033000E26A114301E021F0405181602068816848
:1003400021F00201816020688168A26941EA4201CE
:100350008160206A00283ED0606A401E072804D9C8
:1003600040F227611FA002F07DFE2068416841F441
:10037000006141602068416821F46041416020686B
:100380004168264B626A03EB4232114341602068A8
:10039000C16A21F47001C1622068C16AA28B204B3E
:1003A00003EB02521143C1622068816821F400719D
:1003B000816020688168226B41EA42218160206867
:1003C000816821F48061816020688168626941EA06
:1003D0008221816010BD2068416821F40061D5E769
:1003E000002301402E2E2F447269766572732F53BD
:1003F000544D3332463478785F48414C5F447269DB
:100400007665722F5372632F73746D33326634784E
:10041000785F68616C5F6164632E630000E0FFFFDA
:100420000000F0FFFEE7704710B54FF4006000F0E9
:100430007FFABDE810404FF4005000F079BA022076
:1004400000F076BA802000F073BA0000F8B50026FC
:100450000546009608680C46122804D940F215514A
:100460005DA002F0FFFD6068401E0F2804D940F235
:10047000165159A002F0F6FDA06890B1012810D0E5
:1004800002280ED003280CD004280AD0052808D052
:10049000062806D0072804D040F217514EA002F0DB
:1004A000E1FD95F83C00012819D0012085F83C00B9
:1004B000206807212A68092813D9D3680A3800EB75
:1004C000400081408B43D3602178A0680A3901EB5A
:1004D000410188402968CA681043C86010E00220C2
:1004E000F8BD136900EB400081408B431361217814
:1004F000A06801EB4101884029680A69104308613E
:1005000060681F21072813D22A68536B401E00EB36
:10051000800081408B43536321792088491E80B23B
:1005200001EB8101884029684A6B1043486327E04A
:100530002A680D2812D2136BC01F00EB8000814087
:100540008B43136321792088C91F80B201EB81019D
:10055000884029680A6B1043086311E0D36A0D389C
:1005600000EB800081408B43D362217920880D39D4
:1005700080B201EB810188402968CA6A1043C862D1
:1005800024492A6822488A4206D12268122A03D1C5
:10059000426842F4800242602A688A4218D1216887
:1005A000102901D0112913D1416841F400014160A3
:1005B000206810280CD1184818490068B0FBF1F0E9
:1005C00000EB8000400000E0401E00900028FBD1BE
:1005D00085F83C600020F8BD2E2E2F4472697665A8
:1005E00072732F53544D3332463478785F48414C00
:1005F0005F4472697665722F5372632F73746D3323
:1006000032663478785F68616C5F6164632E630082
:1006100000230140002001401800002040420F004C
:100620002DE9F04704004FF000057DD071492068A6
:1006300088420AD07049884207D07049884204D065
:1006400040F20B116EA002F00DFD606868B1B0F5CC
:10065000803F0AD0B0F5003F07D0B0F5403F04D04E
:100660004FF4867166A002F0FDFCA0684FF0807721
:100670004FF000784FF0407950B1B84208D0404573
:1006800006D0484504D040F20D115DA002F0EAFC0E
:10069000206930B1012804D04FF4877158A002F0CE
:1006A000E1FCA06930B1012804D040F20F1154A040
:1006B00002F0D8FC604EA06A80B3B8422ED040450C
:1006C0002CD048452AD0B0F1806F27D0B0F1A06F70
:1006D00024D0B0F1C06F21D0B0F1E06F1ED0B0F1E6
:1006E000006F1BD0B0F1106F18D0B0F1206F15D093
:1006F000B0F1306F12D0B0F1406F0FD0B0F1506F49
:100700000CD0B0F1606F09D0B0F1706F06D0B0427C
:1007100004D04FF488713AA002F0A4FCE06848B11C
:10072000B0F5006F06D000E041E040F2111134A0B6
:1007300002F098FCE069401E0F2804D94FF489713B
:100740002FA002F08FFC206B30B1012804D040F2C2
:1007500013112BA002F086FC6069012807D030B18C
:10076000022804D04FF48A7125A002F07BFC206A95
:1007700030B1012804D040F2151121A002F072FC22
:10078000A06AB0420FD0E06A68B1B0F1805F0AD0D1
:10079000B0F1005F07D0B0F1405F04D040F2191112
:1007A00017A002F05FFC206C002618B108E00120C1
:1007B000BDE8F087666484F83C60204600F03EF8AF
:1007C000206CC00610D4206C20F4885040F0020049
:1007D00020642046FFF76CFD6664206C20F0020068
:1007E00040F00100206400E0012584F83C602846C8
:1007F000DEE700000020014000210140002201400E
:100800002E2E2F447269766572732F53544D3332F6
:10081000463478785F48414C5F4472697665722F40
:100820005372632F73746D3332663478785F686106
:100830006C5F6164632E63000100000F00B5006807
:100840000C4987B0884212D10B480021026842F45B
:1008500080720260006800F48070059010200090A3
:100860000320CDE901016946044800F06DF807B0A6
:1008700000BD000000200140443802400008024052
:1008800070B5044600F048FA0546601C02D00448E2
:100890000078044400F040FA401BA042FAD370BD37
:1008A0000C00002010B501461D481E4C022910D036
:1008B000802919D0B1F5006F21D0B1F5005F12D1B8
:1008C0008114194800F0C6F90028E08824D0401CA3
:1008D00023E0012100F0BEF90028208801D0401C4F
:1008E00000E0401E208010BD402100F0B3F9002838
:1008F000608801D0401C00E0401E608010BD4FF4B5
:1009000000710A4800F0A6F90028A08801D0401C18
:1009100000E0401EA08010BD401EE08010BD000021
:100920000000024000000020000C024000100240C5
:10093000044910B50A68024202D00860FFF7B2FF0E
:1009400010BD0000143C01402DE9F84F0446A048BA
:100950000D4684421BD09F48844218D09E48844252
:1009600015D09E48844212D09D4884420FD09D48A5
:1009700084420CD09C48844209D09C48844206D0D2
:100980009B48844203D0C3219AA002F06BFB2868E5
:100990000104090C01D0000C03D0C42195A002F081
:1009A00061FB6868F8B101281DD011281BD002280E
:1009B00019D0122817D09E49884214D09D498842E8
:1009C00011D09D4988420ED09C4988420BD09C4949
:1009D000884208D09B49884205D0032803D0C5210E
:1009E00084A002F03FFBA86838B1012805D0022896
:1009F00003D0C6217FA002F035FB00264FF0010B8B
:100A00000BFA06F02F688246074057457ED168688A
:100A1000022801D012282ED12869F8B109281DD04A
:100A200001281BD0022819D0032817D0042815D07C
:100A3000052813D0062811D007280FD008280DD07C
:100A40000A280BD00B2809D00C2807D00D2805D078
:100A50000F2803D0D72167A002F004FBF00804EBB5
:100A60008002106A7107CB0E0F21994088432969D3
:100A700099400143116220687200032101FA02F8D3
:100A80002979914601F0030120EA080001FA09F1F1
:100A9000014321606868012805D0022803D011288D
:100AA00001D012281CD1E86848B1012807D00228DB
:100AB00005D0032803D0EA214EA002F0D3FAA068A3
:100AC000E96820EA080001FA09F10143A1606068C1
:100AD000297920EA0A00C1F30011B14001436160A5
:100AE000E068A96820EA080001FA09F10143E16021
:100AF0006868C00065D55448016841F480410160D0
:100B0000006826F0030100F4804000E059E0009006
:100B10004E480A18D2F80808B1070B0F0F21994068
:100B200088432B498C4201D1002123E029498C4282
:100B300001D101211EE028498C4201D1022119E096
:100B400026498C4201D1032114E025498C4201D170
:100B500004210FE023498C4201D105210AE02249FA
:100B60008C4201D1062105E020498C4201D10721A8
:100B700000E0082199400143C2F808183449086888
:100B80006A68B843D20300D5384308603049091D6C
:100B900008686A68B843920300D5384308602C4956
:100BA000083108686A68B843D20200D53843086043
:100BB00027490C3108686A68B843920200D5384367
:100BC0000860761C102EFFF41BAFBDE8F88F000004
:100BD000000002400004024000080240000C0240F5
:100BE000001002400014024000180240001C0240A5
:100BF000002002402E2E2F447269766572732F53A7
:100C0000544D3332463478785F48414C5F447269C2
:100C10007665722F5372632F73746D333266347836
:100C2000785F68616C5F6770696F2E630000000019
:100C300000001110000021100000311000001210FF
:100C40000000221000003210443802400030014001
:100C5000003C014070B50C00054604D14FF4C7714B
:100C600003A002F0FFF92869204000D0012070BDE8
:100C70002E2E2F447269766572732F53544D333282
:100C8000463478785F48414C5F4472697665722FCC
:100C90005372632F73746D3332663478785F686192
:100CA0006C5F6770696F2E630000000070B51546B9
:100CB0000C00064604D140F2AF1108A002F0D2F9B0
:100CC00045B1012D04D04FF4D87104A002F0CAF947
:100CD000B46170BD2004B06170BD00002E2E2F44A1
:100CE0007269766572732F53544D33324634787877
:100CF0005F48414C5F4472697665722F5372632F6F
:100D000073746D3332663478785F68616C5F6770D6
:100D1000696F2E6300000000014880687047000082
:100D20000C000020024881680278114481607047FD
:100D30000C0000200B4810B5016841F400710160FF
:100D4000016841F480610160016841F480710160D3
:100D5000032000F0EBF8002000F006F800F024F883
:100D6000002010BD003C024070B50D4D04464FF40C
:100D70007A712878B1FBF0F00A490968B1FBF0F00C
:100D800000F0F1FC48B9102C07D200222146501E79
:100D900000F07CF800206C6070BD012070BD000088
:100DA0000C000020180000201F4808B5016841F41D
:100DB00080410160006800F4804000901A48001FE4
:100DC000016841F080510160006800F0805000909F
:100DD000032000F0ABF8002211466FF00B0000F08A
:100DE00055F8002211466FF00A0000F04FF800227B
:100DF00011466FF0090000F049F800221146501F1B
:100E000000F044F800221146101F00F03FF80022C5
:100E10001146901E00F03AF80022BDE80840114645
:100E2000501E00F033B800004438024010B50400F2
:100E300003D5CE2106A002F015F904F01F01012010
:100E400088406109890001F1E021C1F8000110BD6D
:100E50002E2E2F447269766572732F53544D3332A0
:100E6000463478785F48414C5F4472697665722FEA
:100E70005372632F73746D3332663478785F6861B0
:100E80006C5F636F727465782E63000070B51546F1
:100E90000C460646102A03D3BA2114A002F0E2F849
:100EA000102C03D3BB2111A002F0DCF81E4800680F
:100EB000C0F30223C3F107022046042A00D904220A
:100EC000191D072901D2002300E0DB1E012404FACA
:100ED00002F1491E014099409C40641E2C40214370
:100EE0003046BDE8704001F099BB00002E2E2F4423
:100EF0007269766572732F53544D33324634787865
:100F00005F48414C5F4472697665722F5372632F5C
:100F100073746D3332663478785F68616C5F636FC9
:100F2000727465782E6300000CED00E010B5044685
:100F300007280BD0062C09D0052C07D0042C05D08F
:100F4000032C03D0A22108A002F08CF8154904F06C
:100F5000070208684FF6FF03184040EA0220124AD1
:100F60001043086010BD00002E2E2F447269766574
:100F700072732F53544D3332463478785F48414C66
:100F80005F4472697665722F5372632F73746D3389
:100F900032663478785F68616C5F636F727465780D
:100FA0002E6300000CED00E00000FA052DE9F0478B
:100FB0000E4604007DD02068401E0E2804D94FF450
:100FC00014717AA002F04EF896B1012E10D0022EC4
:100FD0000ED0032E0CD0042E0AD0052E08D0062EDB
:100FE00006D0072E04D040F2512170A002F03AF84A
:100FF000DFF8F081D8F80000F7B200F00F00B0423F
:1010000007D288F80070D8F8000000F00F00B04256
:101010004FD12068744D810729D5400703D5286832
:1010200040F4E05028602078000703D5286840F499
:1010300060402860A068A0B1802812D0902810D00D
:10104000A0280ED0B0280CD0C0280AD0D02808D0B4
:10105000E02806D0F02804D04FF41D7153A002F010
:1010600001F82868A16820F0F00008432860207883
:10107000C00743D0DFF870916068A9F1080988B112
:10108000012822D0022824D0032822D040F27B213C
:1010900046A001F0E7FF6068012816D0022818D0AA
:1010A000032816D0D9F800008007002833DA286812
:1010B00000E030E0616820F0030008432860FFF79B
:1010C0002BFE814641F2883A11E0D9F800008003F6
:1010D000EBE7D9F800008001E7E700BFFFF71CFE4F
:1010E000A0EB0901514502D90320BDE8F08728682B
:1010F000616800F00C00B0EB810FEFD1D8F8001060
:10110000404601F00F01B14207D90770006800F0B6
:101110000F00B04201D00120E7E720784FF480565D
:1011200040074FF4A0574FF4C0584FF4E05914D57E
:10113000E06860B1B0420AD0B84208D0404506D05D
:10114000484504D040F2B92118A001F08BFF28686F
:10115000E16820F4E050084328602078000715D5A6
:10116000206960B1B0420AD0B84208D0404506D0EC
:10117000484504D04FF430710CA001F073FF28688B
:10118000216920F4604040EAC100286000F058F86E
:101190002968164AC1F30311515CC840144908601C
:1011A0000020FFF7E1FD00209FE700002E2E2F44D6
:1011B0007269766572732F53544D333246347878A2
:1011C0005F48414C5F4472697665722F5372632F9A
:1011D00073746D3332663478785F68616C5F726304
:1011E000632E6300003C024008380240A832000829
:1011F0001800002001480068704700001800002017
:101200000448054900680968044AC1F38221515C19
:10121000C84070471800002008380240B832000863
:101220000448054900680968044AC1F34231515C29
:10123000C84070471800002008380240B832000843
:10124000154810B5006810F00C02144813D0411076
:10125000042A0FD0082A0ED10F4C241F22682368BD
:1012600002F03F025B0207D52068C0F38810A0FBA4
:10127000010106E0084610BD2168C1F38811A1FBF9
:1012800000010023FEF79CFF2168C1F30141491CC6
:101290004900B0FBF1F010BD083802400024F40012
:1012A0002DE9F84F04007DD020680F2803D9F821DC
:1012B000F2A001F0D7FE2078DFF8F8B3FE4DC007AA
:1012C00056D060684FF480364FF4A02738B1B04252
:1012D00005D0B84203D0FD21E8A001F0C3FEDBF841
:1012E00000105846C1F38101012909D00068C0F3FC
:1012F000810002280BD1EF48001F0068400206D58C
:101300002868800334D560680028CCD030E060685D
:10131000B04203D1286840F480300CE0B84228681D
:1013200003D140F480202860F4E720F48030286066
:10133000286820F480202860606860B1FFF7ECFC2A
:10134000064604E0FFF7E8FC801B64287ED8286886
:101350008003F7D50CE0FFF7DFFC064605E000BF91
:10136000FFF7DAFC801B6428F0D828688003F7D4E4
:101370002078DFF8488380074FF0000956D5E068F1
:1013800030B1012804D040F22F11BCA001F06AFE58
:1013900020691F2804D94FF49871B8A001F062FEAB
:1013A000584600E092E0DBF8001011F00C0F09D075
:1013B0000068C0F38100022811D1BE48001F0068F8
:1013C00040020CD42868800702D5E06801287DD14E
:1013D0002868216920F0F80040EAC10016E0E068C2
:1013E000B0B10120C8F80000FFF796FC064604E003
:1013F000FFF792FC801B0228A8D828688007F7D541
:10140000286820F0F801206941EAC00028600DE05A
:10141000C8F80090FFF780FC064604E0FFF77CFC6C
:10142000801B022892D828688007F7D4207800070C
:101430002ED5A04EA24F60696C36D0B1012808D0DD
:101440004FF4B8718DA001F00DFE00E04DE1606930
:1014500078B101203860FFF75FFC074605E000BF68
:10146000FFF75AFCC01B0228C6D830688007F7D5A2
:101470000EE0C7F80090FFF74FFC074605E000BFFD
:10148000FFF74AFCC01B0228B6D830688007F7D4A3
:101490002078400776D5A068002740B1012806D003
:1014A000052804D04FF4CE7174A001F0DBFDDFF805
:1014B00004A20AF1380ADAF80000C0000DD4DAF804
:1014C000001041F08051CAF8001000E0D4E0DAF8D2
:1014D0000000012700F0805000907A4E3068C0056F
:1014E00011D4306840F480703060FFF715FC009034
:1014F00006E000BFFFF710FC0099401A022891D8BF
:101500003068C005F6D56B4EA068683601280FD04C
:101510000528306810D020F001003060306820F0DD
:1015200004003060A068B8B1FFF7F6FB00900FE050
:10153000306840F00100F4E740F004003060F7E765
:10154000FFF7EAFB0099411A41F2883081428BD8BB
:1015500030688007F4D50EE0FFF7DEFB009007E06F
:10156000FFF7DAFB0099411A41F2883081428BD8AB
:1015700030688007F4D42FB1DAF8001021F08051E0
:10158000CAF80010A069002875D0012809D00228E7
:1015900007D040F2DF1139A001F064FDA0690028F6
:1015A000F2D0DBF80000C0F38100022864D0A0690B
:1015B000022805D0C8F86090FFF7AEFB044697E01C
:1015C000E06938B1B0F5800F04D04FF4F4712BA06E
:1015D00001F048FD206A3F2804D940F2E91127A014
:1015E00001F040FD606A3238B0F5BF7F04D94FF496
:1015F000F57122A001F036FDA06A02280AD0042865
:1016000008D0062806D0082804D040F2EB111BA011
:1016100001F028FDE06A801E0D2804D94FF4F67110
:1016200016A001F01FFD4746C8F86090FFF774FB55
:10163000064604E0FFF770FB801B022855D8286897
:101640008001F7D4D4E907010843A16A1E4A49087A
:1016500002EB0141626A41EA8211084394F82C10BE
:1016600040EA01611348001F016001203866FFF75E
:1016700053FB04462FE03EE03FE000002E2E2F44B7
:101680007269766572732F53544D333246347878CD
:101690005F48414C5F4472697665722F5372632FC5
:1016A00073746D3332663478785F68616C5F72632F
:1016B000632E6300083802400038024000004742B1
:1016C000800E4742007000400000FFFFFFF724FB40
:1016D000001B022809D828688001F7D50BE000BF5D
:1016E000FFF71AFB001B022802D90320BDE8F88F80
:1016F00028688001F4D40020F8E70120F6E7000014
:1017000010B54FF0E024042809D020B140F2D911DF
:1017100005A001F0A7FC206920F0040002E0206988
:1017200040F00400206110BD2E2E2F4472697665B2
:1017300072732F53544D3332463478785F48414C9E
:101740005F4472697665722F5372632F73746D33C1
:1017500032663478785F68616C5F636F7274657845
:101760002E630000704710B5401EB0F1807F01D39A
:10177000012010BD4FF0E02460610F21601700F0E0
:101780004DFF0020A06107202061002010BD10B592
:10179000FFF7E8FF10BD000070B50C460546006875
:1017A0004049884207D04049884204D040F27261E3
:1017B0003EA001F057FC2068B0F5006F05D020B1C5
:1017C00040F2736139A001F04DFC6068B0F5806FA4
:1017D00005D020B140F2746134A001F043FCA06850
:1017E00068B1B0F5807F0AD0B0F5007F07D0B0F5C2
:1017F000407F04D040F275612CA001F033FCE0681A
:10180000FF2804D940F2766128A001F02BFC206962
:10181000B0F5805F05D020B140F2776123A001F0E0
:1018200021FC606938B1B0F5005F04D04FF4CF619E
:101830001EA001F017FCA069B0F5804F05D020B1C3
:1018400040F2796119A001F00DFC95F838000128EB
:1018500025D0012085F83800E068A26820F44070A7
:101860001043626820F480601043226820F4006016
:101870001043226920F480501043626920F4005024
:101880001043A26920F480401043002120F400405E
:1018900010432A68506485F83810002070BD02207B
:1018A00070BD000000000140000401402E2E2F44B6
:1018B0007269766572732F53544D3332463478789B
:1018C0005F48414C5F4472697665722F5372632F93
:1018D00073746D3332663478785F68616C5F7469F5
:1018E0006D5F65782E63000070B50D460446006894
:1018F0003049884219D0B0F1804F16D02E49884225
:1019000013D02E49884210D02D4988420DD02D4940
:1019100088420AD02C49884207D02C49884204D0FA
:1019200040F24A612AA001F09DFB286890B110287E
:1019300010D020280ED030280CD040280AD05028B3
:1019400008D0602806D0702804D040F24B6120A057
:1019500001F088FB6868802805D020B140F24C6116
:101960001BA001F07FFB94F8380001281FD0012054
:1019700084F83800022184F8391021684A6822F07E
:1019800070024A6021684A682B681A434A602168DD
:101990008A6822F080028A6021688A686B681A432C
:1019A0008A6084F83900002084F8380070BD022075
:1019B00070BD00000000014000040040000800402D
:1019C000000C0040001000400014004000040140E2
:1019D0002E2E2F447269766572732F53544D333215
:1019E000463478785F48414C5F4472697665722F5F
:1019F0005372632F73746D3332663478785F686125
:101A00006C5F74696D5F65782E63000010B50446E5
:101A100001681E4881422BD0B1F1804F28D01C486C
:101A2000814225D01B48814222D01B4881421FD0D1
:101A30001A4881421CD01A48814219D01948814263
:101A400016D01948814213D01848814210D0184846
:101A500081420DD0174881420AD01748814207D0F1
:101A60001648814204D04FF4997115A001F0FAFA9A
:101A7000022084F839002068016841F0010101600A
:101A8000012084F83900002010BD00000000014052
:101A90000004004000080040000C0040001000401E
:101AA0000014004000040140004001400044014097
:101AB0000048014000180040001C00400020004089
:101AC0002E2E2F447269766572732F53544D333224
:101AD000463478785F48414C5F4472697665722F6E
:101AE0005372632F73746D3332663478785F686134
:101AF0006C5F74696D2E630000B50068094985B09C
:101B000088420DD14FF470700090022001900020A7
:101B1000029003900320049069460348FEF714FFE7
:101B200005B000BD00040140000802402DE9F05F4F
:101B3000044690F8380092460D4601284ED04FF0EA
:101B4000010B84F838B0BAF1000F10D0BAF1040FCD
:101B50000DD0BAF1080F0AD0BAF10C0F07D0BAF1C4
:101B6000180F04D040F6484176A001F07BFA2868AF
:101B7000602806D0702804D040F6494171A001F0D9
:101B800071FAA86830B1022804D040F64A416DA02D
:101B900001F068FA286930B1042804D040F64B41BE
:101BA00068A001F05FFA022084F839007349744B91
:101BB000744E754FDFF8D4C1DFF8D491754A4FF0F9
:101BC0008048BAF1000F0CD0BAF1040F3ED0BAF140
:101BD000080F66D0BAF10C0F62D187E00220BDE891
:101BE000F09F206888421ED040451CD098421AD0F1
:101BF000B04218D0B84216D0604514D0484512D033
:101C0000654988420FD0654988420CD090420AD07D
:101C10006349884207D06349884204D040F6534163
:101C200048A001F01FFA2946206800F063FE2068F2
:101C3000816941F0080181612068816921F0040116
:101C40008161206881692A69114328E020688842FF
:101C500012D0404510D098420ED0B0420CD0B842BD
:101C60000AD0604508D0484506D0904204D040F6DE
:101C7000624134A001F0F6F92946206800F066FEC2
:101C80002068816941F4006181612068816921F4E3
:101C900080618161206881692A6941EA022181614C
:101CA0004AE0206888420ED040450CD098420AD0C5
:101CB000B04208D0B84206D0604504D040F6714129
:101CC00020A001F0CFF92946206800F09BFE206893
:101CD000C16941F00801C1612068C16921F00401B6
:101CE000C1612068C1692A69114324E020688842E3
:101CF0000ED040450CD098420AD0B04208D0B8422D
:101D000006D0604504D04FF448610EA001F0AAF956
:101D10002946206800F0E6FE2068C16941F40061B0
:101D2000C1612068C16921F48061C1612068C16915
:101D30002A6941EA0221C16184F839B0002084F89F
:101D400038004CE72E2E2F447269766572732F533C
:101D5000544D3332463478785F48414C5F44726961
:101D60007665722F5372632F73746D3332663478D5
:101D7000785F68616C5F74696D2E630000000140DC
:101D80000004004000080040000C00400004014036
:101D9000004001400018004000440140004801405C
:101DA000001C00400020004010B504004FD0324815
:101DB000226882422BD0B2F1804F28D02F48824235
:101DC00025D02F48824222D02E4882421FD02E4852
:101DD00082421CD02D48824219D02D48824216D012
:101DE0002C48824213D02C48824210D02B48824289
:101DF0000DD02B4882420AD02A48824207D02A4876
:101E0000824204D040F2F13128A001F02BF9A06801
:101E100060B110280AD0202808D0402806D06028B9
:101E200004D040F2F23121A001F01CF9206950B138
:101E3000B0F5807F07D0B0F5007F04D040F2F331D9
:101E40001AA001F00FF994F8390010B107E0012051
:101E500010BD002084F83800204600F043F802202E
:101E600084F83900211D206800F06CFC012084F802
:101E70003900002010BD00000000014000040040B7
:101E800000080040000C004000100040001400401A
:101E9000000401400040014000440140004801406E
:101EA00000180040001C0040002000402E2E2F444F
:101EB0007269766572732F53544D33324634787895
:101EC0005F48414C5F4472697665722F5372632F8D
:101ED00073746D3332663478785F68616C5F7469EF
:101EE0006D2E630008B500680B49884212D10B487B
:101EF000016841F0020101600068002200F0020068
:101F0000009011462D20FEF7C1FFBDE808402D20AE
:101F1000FEF78CBF08BD00000004014044380240B9
:101F20002DE9F041054600683C4E3D4F0C46B0425D
:101F300007D1002C53D0042C51D0082C4FD00C2C9E
:101F40004DD0B0F1804F60D03649884207D1002C87
:101F500045D0042C43D0082C41D00C2C3FD0324922
:101F6000884206D1BCB3042C39D0082C37D00C2CB5
:101F700035D02E49884206D16CB3042C2FD0082CC2
:101F80002DD00C2C2BD0B84206D124B3042C26D053
:101F9000082C24D00C2C22D02549884202D1D4B15F
:101FA000042C1CD02349884200D1A4B12249884284
:101FB00000D184B12149884202D164B1042C0ED0F1
:101FC0001F49884200D134B11E49884200D114B162
:101FD00040F2524100E002E01BA001F043F8012270
:101FE0002146286800F00EFC2868B04201D0B842B3
:101FF00003D1416C41F4004141642868016841F01B
:10200000010101600020BDE8F081002CE7D0042C24
:10201000E5D0082CE3D00C2CE1D0D9E7000001403A
:10202000000401400004004000080040000C004093
:1020300000400140004401400048014000180040B9
:10204000001C0040002000402E2E2F44726976654F
:1020500072732F53544D3332463478785F48414C75
:102060005F4472697665722F5372632F73746D3398
:1020700032663478785F68616C5F74696D2E6300D6
:1020800070B5040022D0A0693A4E00283A493B4A74
:102090003B4B20681CD08D15B0420BD0884209D034
:1020A000904207D0984205D0294636A000F0DAFFCA
:1020B000A06900B3A069A8421DD0B0F5007F1AD076
:1020C000B0F5407F17D040F2011111E0012070BD42
:1020D000B04210D088420ED090420CD0384988428D
:1020E00009D03849884206D0984204D040F2051100
:1020F00024A000F0B7FFA06838B1B0F5805F04D02D
:1021000040F207111FA000F0ADFFE06938B1B0F553
:10211000004F04D04FF484711AA000F0A3FF94F88C
:102120003900002520B984F83850204600F04CF8DA
:10213000242084F839002068C16821F40051C1606E
:10214000204600F021FD2068016921F490410161E1
:102150002068416921F02A0141612068C16841F489
:102160000051C160E563202084F8390084F83A000A
:10217000002070BD001001400044004000480040B5
:10218000001401402E2E2F447269766572732F530E
:10219000544D3332463478785F48414C5F4472691D
:1021A0007665722F5372632F73746D333266347891
:1021B000785F68616C5F756172742E630000000067
:1021C000004C00400050004030B50068164D022120
:1021D00001220323072487B0A8420ED113480568C3
:1021E00045F010050560006800F0100005905802E9
:1021F0008DE81F0069460E4812E00E4DA84211D12D
:102200000A48001F056845F480250560006800F451
:10221000802005904FF440608DE81F006946064815
:10222000FEF792FB07B030BD001001404438024079
:10223000000002400048004000040240FEE70000A9
:102240007FB515481349002401604FF48031C0E97F
:1022500001140461846111490462C0E90A14012572
:10226000C460C56145610463FEF7DAF918B148211D
:102270000BA000F02CFE0E20CDE90005694602946B
:102280000548FEF7E3F8002803D0522104A000F02F
:102290001EFE7FBD002001401C0000200100000F39
:1022A0002E2E5C436F72655C5372635C6164632EB7
:1022B000630000002DE9F04F6C4887B000240168EE
:1022C00041F010010160016801F010010591016801
:1022D00041F004010160016801F004010591016809
:1022E00041F080010160016801F080010591016801
:1022F00041F001010160016801F0010105910168EF
:1023000041F002010160016801F0020105910168DC
:1023100041F0080101600068DFF854A100F00800F6
:102320004CF2AA080590002241465046FEF7BEFC3A
:10233000DFF840B14FF4A059002249465846FEF755
:10234000B5FC002201214C48FEF7B0FC4FF2FE50D4
:102350000325CDE90005694602944748FEF7F4FAE3
:102360004EF62F00CDE90005694602945846FEF767
:10237000EBFA412001268DE8510069463F48FEF7FF
:10238000E3FA3F4F8220CDE90007694602943B48BB
:10239000FEF7DAFA49F63C10CDE9000569460294E9
:1023A0003648FEF7D1FA4FF2F730CDE9000569461D
:1023B00002943448FEF7C8FA70028DE8510069466D
:1023C0002D48FEF7C1FAF002CDE9000769460294F4
:1023D0002948FEF7B9FA40F65570CDE9000569467F
:1023E00002945046FEF7B0FA30038DE8510069467A
:1023F0005046FEF7A9FA7003CDE90007694602943A
:102400005046FEF7A1FACDE9008669465046CDE96F
:102410000245FEF799FACDE9009669465846CDE99E
:102420000245FEF791FA0096694613480196CDE9F8
:102430000245FEF789FA002211460720FEF726FD25
:102440000720FEF7F3FC002211461720FEF71EFDC1
:102450001720FEF7EBFC002211462820FEF716FDA0
:102460002820FEF7E3FC07B0BDE8F08F30380240CB
:10247000000C024000080240001002400000024030
:10248000000011100004024030B5354D91B03348C2
:102490000024C5E900042020A8604FF4FA5000F0A1
:1024A0009BFEC5E9030428466C61FFF77DFC18B16B
:1024B00041212CA000F00BFD0E940EA928480F948A
:1024C000FFF712FA18B1482126A000F000FD6020A5
:1024D000CDE9000402940394049405940022694613
:1024E0001F480694FFF722FB18B154211DA000F0ED
:1024F000EEFC042269461A48FFF718FB18B159216F
:1025000018A000F0E4FC082269461548FFF70EFB0E
:1025100018B15E2113A000F0DAFC0C2269461048C5
:10252000FFF704FB18B163210EA000F0D0FC079464
:10253000089409944FF400500A94CDE90B4007A980
:1025400007480D94FFF728F918B16F2105A000F096
:10255000BEFC0348FFF7D0FA11B030BD00040140C3
:10256000040100202E2E5C436F72655C5372635C25
:1025700074696D2E630000000D4810B50B490160B1
:102580004FF4E1314160002181600C22C160C0E95B
:1025900004128161C161FFF773FD002805D0BDE819
:1025A0001040432103A000F092BC10BD0010014078
:1025B0007C0100202E2E5C436F72655C5372635C5D
:1025C00075736172742E63000D4810B50B4901607C
:1025D0004FF4E1314160002181600C22C160C0E90B
:1025E00004128161C161FFF74BFD002805D0BDE8F1
:1025F0001040562103A000F06ABC10BD0048004006
:10260000BC0100202E2E5C436F72655C5372635CCC
:1026100075736172742E6300FEE770470907090E37
:10262000002806DA00F00F0000F1E02080F8141D09
:10263000704700F1E02080F8001470477047704741
:1026400010B5FEF76FFBBDE81040FFF7A0B8000023
:1026500030B5254893B00025016841F080510160F4
:10266000006800F0805011902048016841F48041DA
:1026700001600068022400F4804011900120009065
:10268000000401908001CDE90640082008904FF435
:10269000A870CDE9090404200B906846FEF700FEFF
:1026A00000B1FEE70CA90F2081E831004FF4A050E3
:1026B0000F904FF48050109005210CA8FEF776FC87
:1026C00000B1FEE7FEF796FD4FF47A71B0FBF1F032
:1026D000FFF749F80420FFF713F800221146501EB7
:1026E000FEF7D4FB13B030BD40380240007000400C
:1026F0001048016841F4700101600F48016841F021
:10270000010101600C4A00210832116002680B4B84
:102710001A400260031D0A4A1A60026822F48022ED
:10272000026005480C300160024958068039086093
:102730007047000088ED00E000380240FFFFF6FE21
:1027400010300024F0B50268234B244D244E254F51
:10275000254C4FF0804C984209D0604507D0A842E4
:1027600005D0B04203D0B84201D0A04204D122F03B
:10277000700E4A6842EA0E0298421BD0604519D09A
:10278000A84217D0B04215D0B84213D0A04211D001
:10279000164DA8420ED0164DA8420BD0154DA8429A
:1027A00008D0154DA84205D0144DA84202D0144DB2
:1027B000A84203D122F44075CA682A4302608A689D
:1027C000C2620A688262984201D0A04201D10969BE
:1027D000016301214161F0BD00000140000400409F
:1027E00000080040000C004000040140004001408F
:1027F000004401400048014000180040001C004017
:102800000020004070B50446214816460D4684421B
:1028100025D0B4F1804F22D01E4884421FD01E48DC
:1028200084421CD01D48844219D01D48844216D0D1
:102830001C48844213D01C48844210D01B48844258
:102840000DD01B4884420AD01A48844207D01A4847
:10285000844204D041F2882118A000F003FC65B145
:10286000042D0AD0082D08D00C2D06D0182D04D028
:1028700041F2892111A000F0F5FB0120216AA84056
:1028800081432162206AAE403043206270BD000067
:10289000000001400004004000080040000C00401F
:1028A0000004014000400140004401400048014054
:1028B00000180040001C0040002000402E2E2F4435
:1028C0007269766572732F53544D3332463478787B
:1028D0005F48414C5F4472697665722F5372632F73
:1028E00073746D3332663478785F68616C5F7469D5
:1028F0006D2E630030B5026A22F001020262026AA4
:10290000436884690D6824F07304254322F00204AF
:102910008A6822430B4CA04202D00B4CA0420BD140
:1029200022F00804CA6823F4407322434C6922F061
:1029300004021C438B6923434360856149684163FA
:10294000026230BD00000140000401402DE9F04169
:102950000446006A0D4620F010002062206A676875
:10296000A1692A6821F4E64141EA0228A96820F019
:10297000200040EA01161348844202D012488442E3
:1029800017D1E86830B1082804D041F205210FA022
:1029900000F068FBE96826F0800040EA011020F0B2
:1029A0004006696927F4406040EA8100A96940EA6D
:1029B00081076760C4F818806868A0632662BDE874
:1029C000F081000000000140000401402E2E2F4441
:1029D0007269766572732F53544D3332463478786A
:1029E0005F48414C5F4472697665722F5372632F62
:1029F00073746D3332663478785F68616C5F7469C4
:102A00006D2E63002DE9F0410446006A0D4620F466
:102A100080702062206A6768E16920F4007021F00C
:102A20007302296841EA0208A96840EA01261D48A4
:102A3000844202D01C4884422BD1E86830B1082877
:102A400004D041F2173119A000F00CFBA869B0F5D1
:102A5000007F05D020B141F2183114A000F002FB34
:102A60006869B0F5807F05D020B141F219310FA01F
:102A700000F0F8FAE96826F4006040EA012020F44A
:102A80008066696927F4405040EA0110A96940EA6C
:102A900001176760C4F81C806868E0632662BDE8BF
:102AA000F081000000000140000401402E2E2F4460
:102AB0007269766572732F53544D33324634787889
:102AC0005F48414C5F4472697665722F5372632F81
:102AD00073746D3332663478785F68616C5F7469E3
:102AE0006D2E63002DE9F0410446006A0D4620F486
:102AF00080502062206A6668E1692A6821F4E64114
:102B000041EA0228A96820F4005040EA01370E4843
:102B1000844202D00D4884420ED16869B0F5807FAE
:102B200005D020B141F25D3109A000F09BFA69693E
:102B300026F4804040EA81166660C4F81C8068680C
:102B400020642762BDE8F0810000014000040140DC
:102B50002E2E2F447269766572732F53544D333283
:102B6000463478785F48414C5F4472697665722FCD
:102B70005372632F73746D3332663478785F686193
:102B80006C5F74696D2E63002DE9F0410446406866
:102B9000BC49884204D340F68511BBA000F062FA1C
:102BA000E06838B1B0F5005F04D040F68611B6A0F9
:102BB00000F058FA206950B1B0F5806F07D0B0F539
:102BC000C06F04D040F68711AFA000F04BFA6069E7
:102BD0004FF6F371084200D120B940F68811AAA03F
:102BE00000F040FA2268106920F44051E068084380
:102BF00010612268D06849F20C6188432369A1689A
:102C0000E569194363692B4319430143D160226885
:102C1000506920F44071A06908435061E26964255D
:102C2000B2F5004FA748A84922684FF032083FD0BC
:102C30008A4201D082427CD1FEF7F2FA00EBC00159
:102C400001EB001061688900B0FBF1F6FEF7E8FACD
:102C500000EBC00101EB001061688900B0FBF1F0EE
:102C6000B0FBF5F06FF01801484306EB800108EB6C
:102C70000110B0FBF5F000F0F006FEF7D1FA00EB22
:102C8000C00101EB001061688900B0FBF1F0B0FBFE
:102C9000F5F006EB0016FEF7C3FA00EBC00101EBFE
:102CA000001061688900B0FBF1F7FEF7B9FAD2E0D5
:102CB0008A4201D082423DD1FEF7B2FA00EBC00158
:102CC00001EB001061684900B0FBF1F0B0FBF5F0DA
:102CD0000601FEF7A5FA00EBC00101EB00106168E8
:102CE0004900B0FBF1F7FEF79BFA00EBC00101EBE6
:102CF000001061684900B0FBF1F0B0FBF5F06FF037
:102D00001801484307EB800108EBC100B0FBF5F068
:102D100000F0F80006EB4006FEF782FA00EBC00177
:102D200001EB001061684900B0FBF1F7FEF778FA9B
:102D30003CE055E0FEF764FA00EBC00101EB001047
:102D400061684900B0FBF1F0B0FBF5F00601FEF759
:102D500057FA00EBC00101EB001061684900B0FBBD
:102D6000F1F7FEF74DFA00EBC00101EB00106168CE
:102D70004900B0FBF1F0B0FBF5F06FF018014843EB
:102D800007EB800108EBC100B0FBF5F000F0F800A4
:102D900006EB4006FEF734FA00EBC00101EB001031
:102DA00061684900B0FBF1F7FEF72AFA00EBC001B9
:102DB00001EB001061684900B0FBF1F0B0FBF5F0E9
:102DC0006FF01801484307EB800108EBC100B0FB2E
:102DD000F5F000F00700216830448860BDE8F0811C
:102DE000FEF70EFA00EBC00101EB001061688900EC
:102DF000B0FBF1F6FEF704FA00EBC00101EB0010A6
:102E000061688900B0FBF1F0B0FBF5F06FF01801DC
:102E1000484306EB800108EB0110B0FBF5F000F031
:102E2000F006FEF7EDF900EBC00101EB0010616860
:102E30008900B0FBF1F0B0FBF5F006EB0016FEF7F1
:102E4000DFF900EBC00101EB001061688900B0FB05
:102E5000F1F7FEF7D5F900EBC00101EB0010616856
:102E60008900B0FBF1F0B0FBF5F06FF018014843BA
:102E700007EB800108EB0110B0FBF5F000F00F004C
:102E8000A9E70000A137A0002E2E2F4472697665B5
:102E900072732F53544D3332463478785F48414C27
:102EA0005F4472697665722F5372632F73746D334A
:102EB00032663478785F68616C5F756172742E6316
:102EC000000000000014014000100140FEE7FEE792
:102ED0000FB4054B10B503A9044A029800F018F886
:102EE00010BC5DF814FB00006930000808000020E9
:102EF00002E008C8121F08C1002AFAD170477047C3
:102F0000002001E001C1121F002AFBD17047000020
:102F10002DE9FF4F89B09B460446002506E0252891
:102F20000BD05A460B999047641C6D1C20780028E2
:102F3000F5D10DB02846BDE8F08F0027B846012234
:102F4000474900E0074314F8013F203B02FA03F031
:102F50000842F7D120782E2819D114F8010F47F034
:102F600004072A280ED06FF02F022078A0F130013C
:102F700009290CD808EB880102EB410100EB01089C
:102F8000641CF2E70A98641C50F8048B0A902078BD
:102F90000028CED0642808D0692806D075281ED015
:102FA0005A460B9990476D1C58E00A994FF00A0950
:102FB00001C90A91002802DA40422D2102E03905B8
:102FC00004D52B218DF82010012103E0F90704D04E
:102FD0002021F7E78A4608AE0DE00021FAE70A99BA
:102FE0004FF00A0901C90A91F7E74946FDF719F9B7
:102FF000303106F8011D0028F7D1ADEB060000F1D5
:103000002009780701D44FF00108C84502DDA8EB7C
:10301000090000E000208046002706E008A85A4684
:10302000C05D0B9990476D1C7F1C5745F6DB04E093
:1030300030205A460B9990476D1CB8F10001A8F159
:103040000108F5DC05E016F8010B5A460B9990478C
:103050006D1CB9F10001A9F10109F4DC641C65E7FC
:10306000092801007047000008490968C90706D00F
:10307000064980390968CA074FF0604101D170479D
:1030800000BF0A68002AFBD008707047800E00E07D
:1030900008B5FDF74FFEFFF7DBFAFFF70BF9FFF777
:1030A000CFF8FFF7F1F9FFF767FAFFF78DFA00F0B5
:1030B000AFF82648FEF7AAFC00212448FEF730FFAF
:1030C00004212248FEF72CFF08212048FEF728FFA4
:1030D0000C211E48FEF724FF00211D4800F046F891
:1030E00044F6206421461A4800F05CF81848002194
:1030F0002830054600F03AF82146284600F052F8FC
:10310000134801215030054600F030F8214628468A
:1031100000F048F80E4800217830054600F026F807
:103120002146284600F03EF80A4C0520FDF7A8FB92
:10313000B4F906000090B4F90430B4F90220B4F9EF
:10314000001005A0FFF7C4FEEFE700000401002017
:103150006400002000000020256420092564200967
:10316000256420092564200A0000000010B50446EB
:103170000069A38A21B101294FF000020BD000E0C1
:1031800001221946FDF792FDA18BA0690022BDE83E
:103190001040FDF78BBD1946FDF788FDA18B01227C
:1031A000A069F4E7436A0A46006A1946AFF3008053
:1031B00070B5064614460D464FF4FA5000F00CF870
:1031C00060434FF6FF7190FBF1F025F00301326888
:1031D000343180B2505070BD10B50446B0F5FA6F6E
:1031E00003D20D2104A0FFF772FE0848B0FBF4F0F3
:1031F000401E80B210BD00002E2E5C436F72655CD5
:103200005372635C776865656C2E630000BD0105D1
:103210001F48DFED200A204B9FED200A002100BF50
:1032200001EB810200F8321000EBC202491CC2ED32
:10323000010A136282ED020A82ED030A0429EFDB20
:10324000174940F8101F0822828002238160838181
:1032500000234361816220238385D3020163838637
:103260000423C36301658023A0F8543081651103F2
:10327000A0F85C100B49426681678A14A0F87C2094
:1032800040F8801F091581800C21C1607047000043
:10329000640000204C37893D04010020000000003C
:1032A000000C024000080240000000000000000086
:1032B00001020304060708090000000001020304DC
:1032C000E0320008000000201C000000F02E000882
:1032D000FC3200081C000020E4050000002F00085C
:1032E00000000000000000000000000001000000DD
:0C32F00010000000000000000024F400AA
:040000050800018965
:00000001FF
