:020000040800F2
:10000000000002208D34000833170008351700085F
:1000100037170008391700083B17000800000000D8
:100020000000000000000000000000003D17000874
:100030003F170008000000004117000843170008A0
:10004000DD340008DD340008DD340008DD3400084C
:10005000DD340008DD3400084B170008DD340008EB
:1000600055170008DD340008DD340008DD340008D1
:10007000DD340008DD340008DD340008DD3400081C
:10008000DD340008DD340008DD340008DD3400080C
:10009000DD340008DD340008DD340008DD340008FC
:1000A000DD340008DD340008DD340008DD340008EC
:1000B000DD340008DD340008DD340008DD340008DC
:1000C000DD340008DD340008DD340008DD340008CC
:1000D000DD340008DD340008DD340008DD340008BC
:1000E000DD340008DD340008DD340008DD340008AC
:1000F000DD340008DD340008DD340008DD3400089C
:10010000DD340008DD340008DD340008DD3400088B
:10011000DD340008DD340008DD340008DD3400087B
:10012000DD340008DD340008DD340008DD3400086B
:10013000DD340008DD340008DD340008DD3400085B
:10014000DD340008DD340008DD340008DD3400084B
:10015000DD340008DD340008DD340008DD3400083B
:10016000DD340008DD340008DD340008DD3400082B
:10017000DD340008DD340008DD3400080000000034
:08018000DD340008DD34000845
:1001900010B5054C237833B9044B13B10448AFF3C1
:1001A00000800123237010BDAC000020000000007F
:1001B000B093000808B5034B1BB103490348AFF3E4
:1001C000008008BD00000000B0000020B0930008CF
:1001D00010F8012B11F8013B012A28BF9A42F7D0F1
:1001E000D01A70470000000000000000000000006E
:1001F00001F0FF01102A2BDB10F0070F08D010F8D8
:10020000013B013A8B422DD010F0070F42B3F6D1DB
:10021000F0B441EA012141EA014122F007047FF0F4
:1002200000070023F0E80256083C85EA010586EA4B
:10023000010685FA47F5A3FA87F586FA47F6A5FA87
:1002400087F68EB9EED1F0BC01F0FF0102F0070293
:1002500032B110F8013B013A83EA010313B1F8D13E
:100260000020704701387047002D06BF354603381F
:10027000073815F0010F07D1013015F4807F02BF58
:10028000013015F4C03F0130F0BC0138704700BFA9
:1002900081F0004102E000BF83F0004330B54FEA37
:1002A00041044FEA430594EA050F08BF90EA020FA4
:1002B0001FBF54EA000C55EA020C7FEA645C7FEA37
:1002C000655C00F0E2804FEA5454D4EB5555B8BF5A
:1002D0006D420CDD2C4480EA020281EA030382EACB
:1002E000000083EA010180EA020281EA0303362D5D
:1002F00088BF30BD11F0004F4FEA01314FF4801C30
:100300004CEA113102D0404261EB410113F0004F41
:100310004FEA03334CEA133302D0524263EB4303F8
:1003200094EA050F00F0A780A4F10104D5F1200E96
:100330000DDB02FA0EFC22FA05F2801841F10001F1
:1003400003FA0EF2801843FA05F359410EE0A5F1C5
:1003500020050EF1200E012A03FA0EFC28BF4CF0F6
:10036000020C43FA05F3C01851EBE37101F00045AC
:1003700007D54FF0000EDCF1000C7EEB00006EEBB9
:100380000101B1F5801F1BD3B1F5001F0CD3490843
:100390005FEA30004FEA3C0C04F101044FEA44529A
:1003A00012F5800F80F09A80BCF1004F08BF5FEA21
:1003B000500C50F1000041EB045141EA050130BD01
:1003C0005FEA4C0C404141EB010111F4801FA4F1A4
:1003D0000104E9D191F0000F04BF01460020B1FAF9
:1003E00081F308BF2033A3F10B03B3F120020CDA31
:1003F0000C3208DD02F1140CC2F10C0201FA0CF00F
:1004000021FA02F10CE002F11402D8BFC2F1200C73
:1004100001FA02F120FA0CFCDCBF41EA0C01904029
:10042000E41AA2BF01EB0451294330BD6FEA040472
:100430001F3C1CDA0C340EDC04F11404C4F120025D
:1004400020FA04F001FA02F340EA030021FA04F36F
:1004500045EA030130BDC4F10C04C4F1200220FAC6
:1004600002F001FA04F340EA0300294630BD21FA04
:1004700004F0294630BD94F0000F83F4801306BFCA
:1004800081F480110134013D4EE77FEA645C18BFBE
:100490007FEA655C29D094EA050F08BF90EA020F55
:1004A00005D054EA000C04BF1946104630BD91EA4D
:1004B000030F1EBF0021002030BD5FEA545C05D150
:1004C0004000494128BF41F0004130BD14F580048F
:1004D0003CBF01F5801130BD01F0004545F0FE4103
:1004E00041F470014FF0000030BD7FEA645C1ABF38
:1004F000194610467FEA655C1CBF0B46024650EA6F
:10050000013406BF52EA033591EA030F41F400219A
:1005100030BD00BF90F0000F04BF0021704730B520
:100520004FF4806404F132044FF000054FF00001F5
:1005300050E700BF90F0000F04BF0021704730B5B6
:100540004FF4806404F1320410F0004548BF40428B
:100550004FF000013EE700BF42004FEAE2014FEAE0
:1005600031014FEA02701FBF12F07F4393F07F4FBB
:1005700081F06051704732F07F4208BF704793F0BE
:100580007F4F04BF41F40021704730B54FF46074D1
:1005900001F0004521F000411CE700BF50EA0102D4
:1005A00008BF704730B54FF000050AE050EA01027D
:1005B00008BF704730B511F0004502D5404261EBED
:1005C00041014FF4806404F132045FEA915C3FF42E
:1005D000D8AE4FF003025FEADC0C18BF03325FEACB
:1005E000DC0C18BF033202EBDC02C2F1200300FA7C
:1005F00003FC20FA02F001FA03FE40EA0E0021FAA1
:1006000002F11444BDE600BF70B54FF0FF0C4CF48E
:10061000E06C1CEA11541DBF1CEA135594EA0C0F40
:1006200095EA0C0F00F0DEF82C4481EA030621EA7B
:100630004C5123EA4C5350EA013518BF52EA0335B6
:1006400041F4801143F4801338D0A0FB02CE4FF068
:100650000005E1FB02E506F00042E0FB03E54FF098
:100660000006E1FB03569CF0000F18BF4EF0010E90
:10067000A4F1FF04B6F5007F64F5407404D25FEA8C
:100680004E0E6D4146EB060642EAC62141EA55513F
:100690004FEAC52040EA5E504FEACE2EB4F1FD0C81
:1006A00088BFBCF5E06F1ED8BEF1004F08BF5FEAFF
:1006B000500E50F1000041EB045170BD06F00046B1
:1006C00046EA010140EA020081EA0301B4EB5C045E
:1006D000C2BFD4EB0C0541EA045170BD41F4801156
:1006E0004FF0000E013C00F3AB8014F1360FDEBF7B
:1006F000002001F0004170BDC4F10004203C35DA57
:100700000C341BDC04F11404C4F1200500FA05F3D9
:1007100020FA04F001FA05F240EA020001F000427A
:1007200021F0004110EBD37021FA04F642EB0601F0
:100730005EEA430E08BF20EAD37070BDC4F10C041A
:10074000C4F1200500FA04F320FA05F001FA04F2DE
:1007500040EA020001F0004110EBD37041F10001CA
:100760005EEA430E08BF20EAD37070BDC4F12005D5
:1007700000FA05F24EEA020E20FA04F301FA05F23D
:1007800043EA020321FA04F001F0004121FA04F2E5
:1007900020EA020000EBD3705EEA430E08BF20EAB5
:1007A000D37070BD94F0000F0FD101F000464000EF
:1007B00041EB010111F4801F08BF013CF7D041EA71
:1007C000060195F0000F18BF704703F00046520075
:1007D00043EB030313F4801F08BF013DF7D043EA46
:1007E0000603704794EA0C0F0CEA135518BF95EAFC
:1007F0000C0F0CD050EA410618BF52EA4306D1D183
:1008000081EA030101F000414FF0000070BD50EAA1
:10081000410606BF1046194652EA430619D094EA2B
:100820000C0F02D150EA013613D195EA0C0F05D115
:1008300052EA03361CBF104619460AD181EA030169
:1008400001F0004141F0FE4141F470014FF0000021
:1008500070BD41F0FE4141F4780170BD70B54FF0BC
:10086000FF0C4CF4E06C1CEA11541DBF1CEA13553C
:1008700094EA0C0F95EA0C0F00F0A7F8A4EB05041E
:1008800081EA030E52EA03354FEA013100F0888015
:100890004FEA03334FF0805545EA131343EA1263DE
:1008A0004FEA022245EA111545EA10654FEA002693
:1008B0000EF000419D4208BF964244F1FD0404F54C
:1008C000407402D25B084FEA3202B61A65EB0305A8
:1008D0005B084FEA32024FF480104FF4002CB6EB65
:1008E000020E75EB030E22BFB61A754640EA0C00E5
:1008F0005B084FEA3202B6EB020E75EB030E22BF25
:10090000B61A754640EA5C005B084FEA3202B6EB65
:10091000020E75EB030E22BFB61A754640EA9C0024
:100920005B084FEA3202B6EB020E75EB030E22BFF4
:10093000B61A754640EADC0055EA060E18D04FEAB2
:10094000051545EA16754FEA06164FEAC30343EA52
:1009500052734FEAC2025FEA1C1CC0D111F4801F1F
:100960000BD141EA00014FF000004FF0004CB6E718
:1009700011F4801F04BF01430020B4F1FD0C88BFB7
:10098000BCF5E06F3FF6AFAEB5EB030C04BFB6EBC2
:10099000020C5FEA500C50F1000041EB045170BDB5
:1009A0000EF0004E4EEA113114EB5C04C2BFD4EBE2
:1009B0000C0541EA045170BD41F480114FF0000E66
:1009C000013C90E645EA060E8DE60CEA135594EAE2
:1009D0000C0F08BF95EA0C0F3FF43BAF94EA0C0FE5
:1009E0000AD150EA01347FF434AF95EA0C0F7FF45A
:1009F00025AF104619462CE795EA0C0F06D152EAAE
:100A000003353FF4FDAE1046194622E750EA410691
:100A100018BF52EA43067FF4C5AE50EA41047FF4A2
:100A20000DAF52EA43057FF4EBAE12E74FF0FF3C07
:100A300006E000BF4FF0010C02E000BF4FF0010CD8
:100A40004DF804CD4FEA410C7FEA6C5C4FEA430C51
:100A500018BF7FEA6C5C1BD001B050EA410C0CBFA0
:100A600052EA430C91EA030F02BF90EA020F002002
:100A7000704710F1000F91EA030F58BF994208BF69
:100A800090422CBFD8176FEAE37040F00100704726
:100A90004FEA410C7FEA6C5C02D150EA013C07D17D
:100AA0004FEA430C7FEA6C5CD6D152EA033CD3D0C8
:100AB0005DF8040B704700BF8446104662468C46C2
:100AC0001946634600E000BF01B5FFF7B7FF0028F5
:100AD00048BF10F1000F01BD4DF808EDFFF7F4FF1E
:100AE0000CBF012000205DF808FB00BF4DF808EDA9
:100AF000FFF7EAFF34BF012000205DF808FB00BFCC
:100B00004DF808EDFFF7E0FF94BF012000205DF8ED
:100B100008FB00BF4DF808EDFFF7CEFF94BF0120A2
:100B200000205DF808FB00BF4DF808EDFFF7C4FF9B
:100B300034BF012000205DF808FB00BF4FEA4102EE
:100B400012F5001215D211D56FF47873B3EB62521F
:100B500012D94FEAC12343F0004343EA505311F046
:100B6000004F23FA02F018BF404270474FF00000D8
:100B7000704750EA013005D111F0004008BF6FF016
:100B8000004070474FF00000704700BF4A0011D28C
:100B900012F5001211D20DD56FF47873B3EB6252D7
:100BA0000ED44FEAC12343F0004343EA505323FAE3
:100BB00002F070474FF00000704750EA013002D158
:100BC0004FF0FF3070474FF0000070474FEA41028E
:100BD000B2F1E04324BFB3F5001CDCF1FE5C0DD99B
:100BE00001F0004C4FEAC0024CEA5070B2F1004FE5
:100BF00040EB830008BF20F00100704711F0804FE8
:100C000021D113F13872BCBF01F00040704741F4AC
:100C100080114FEA5252C2F11802C2F1200C10FAB0
:100C20000CF320FA02F018BF40F001004FEAC12394
:100C30004FEAD32303FA0CFC40EA0C0023FA02F338
:100C40004FEA4303CCE77FEA625307D150EA01330E
:100C50001EBF4FF0FE4040F44000704701F00040DE
:100C600040F0FE4040F40000704700BF53B94AB95D
:100C7000002908BF00281CBF4FF0FF314FF0FF30A4
:100C800000F072B9ADF1080C6DE904CE00F006F881
:100C9000DDF804E0DDE9022304B070472DE9F047F8
:100CA000089E04468846002B4BD18A42154667D9D8
:100CB000B2FA82F24AB1C2F1200701FA02F320FA35
:100CC00007F7954047EA030894404FEA154E230C76
:100CD000B8FBFEF71FFA85FC0EFB178843EA0843B2
:100CE00007FB0CF1994209D9EB1807F1FF3080F0AE
:100CF0001B81994240F21881023F2B445B1AA4B237
:100D0000B3FBFEF00EFB103344EA034400FB0CFC83
:100D1000A44509D92C1900F1FF3380F00781A445BF
:100D200040F2048102382C4440EA0740A4EB0C0452
:100D300000271EB1D4400023C6E900433946BDE870
:100D4000F0878B4209D9002E00F0EB800027C6E91E
:100D5000000138463946BDE8F087B3FA83F7002F23
:100D600047D18B4202D3824200F2FA80841A61EBAF
:100D7000030301209846002EE0D0C6E90048DDE7D5
:100D800002B9FFDEB2FA82F2002A40F08F80491BDE
:100D90004FEA154E1FFA85F80127B1FBFEFC230C24
:100DA0000EFB1C1143EA014308FB0CF1994207D9E1
:100DB000EB180CF1FF3002D2994200F2CD8084464C
:100DC000591AA3B2B1FBFEF00EFB101443EA04441F
:100DD00008FB00F8A04507D92C1900F1FF3302D217
:100DE000A04500F2B6801846A4EB080440EA0C4087
:100DF0009FE7C7F1200CBB4022FA0CFE4EEA030E1F
:100E000001FA07F420FA0CF521FA0CF34FEA1E4818
:100E10002543B3FBF8F92C0C08FB19331FFA8EFAA3
:100E200044EA034309FB0AF49C4202FA07F200FA7F
:100E300007F10BD91EEB030309F1FF3080F0878027
:100E40009C4240F28480A9F1020973441B1BADB29D
:100E5000B3FBF8F008FB103345EA034400FB0AFA41
:100E6000A24508D91EEB040400F1FF336BD2A24562
:100E700069D90238744440EA0940A0FB0289A4EB16
:100E80000A044C45C2464B4654D351D0002E69D07B
:100E9000B1EB0A0564EB030404FA0CFCFD40FC40D2
:100EA0004CEA0505C6E90054002747E7C2F12003D4
:100EB00020FA03F7954001FA02F021FA03F34FEA12
:100EC000154E3843010CB3FBFEF71FFA85F80EFBF5
:100ED000173341EA034107FB08F38B4204FA02F49B
:100EE00007D9691807F1FF3C2FD28B422DD9023F59
:100EF0002944CB1A81B2B3FBFEF00EFB103341EA5A
:100F0000034100FB08F38B4207D9691800F1FF3C4D
:100F100017D28B4215D902382944C91A40EA07472B
:100F20003BE73746304609E70746E7E61846FBE663
:100F30004145ABD2B8EB020A69EB0E020138134609
:100F4000A4E76046E9E7184695E76746D1E781469A
:100F50007CE702382C4447E7ACF1020C2B442FE726
:100F6000384608E73746E9E6704700BF2DE9F04FFD
:100F70008DB000240794089409940A940B9401946A
:100F8000614B1A6B42F010021A631A6B02F01002E6
:100F90000192019A02941A6B42F080021A631A6B52
:100FA00002F080020292029A03941A6B42F0040249
:100FB0001A631A6B02F004020392039A04941A6BE8
:100FC00042F001021A631A6B02F001020492049AC1
:100FD00005941A6B42F002021A631A6B02F00202C5
:100FE0000592059A06941A6B42F008021A631B6B6D
:100FF00003F008030693069BDFF814A1224608219C
:10100000504601F023FCDFF80CB1224648F21041B3
:10101000584601F01BFC22464FF440413B4801F08A
:1010200015FCDFF8F490224640F61421484601F002
:101030000DFCDFF8E88022464FF40061404601F0E5
:1010400005FC0827079701250895099403260A96A9
:1010500007A9504601F016FB0795DFF8C4A0CDF8AC
:1010600020A0099507A9404601F00CFB0423079333
:10107000CDF820A0099507A9584601F003FB48F2D6
:1010800010430793089509940A9607A9584601F05A
:10109000F9FA4FF440430793089509940A9607A973
:1010A0001A4801F0EFFA4FF445430793CDF820A01A
:1010B000099507A9484601F0E5FA40F6142307937D
:1010C000089509940A9607A9484601F0DBFA4FF4FF
:1010D00000630793089509940A9607A9404601F012
:1010E000D1FA22462146062001F0D6FB062001F067
:1010F00007FC22462146384601F0CEFB384601F077
:10110000FFFB0DB0BDE8F08F003802400004024044
:101110000010024000000240000C024000080240A3
:101120000000111000B58DB02022002104A807F0A6
:1011300070F90023019302931148124A0260436040
:1011400083604FF6FF72C260036143610323039320
:1011500001230593099303A900F02FFC50B9002344
:101160000193029301A9064800F062FD28B90DB071
:101170005DF804FB02F0B4F9F1E702F0B1F9F6E72B
:10118000800800200000014000B58DB02022002121
:1011900004A807F03EF900230193029311484FF091
:1011A00080420260436083604FF6FF72C260036159
:1011B0000323039301230593099303A900F0FDFB87
:1011C00050B900230193029301A9064800F030FDB5
:1011D00028B90DB05DF804FB02F082F9F1E702F0E6
:1011E0007FF9F6E7BC08002000B58DB02022002171
:1011F00004A807F00EF90023019302931148124A44
:101200000260436083604FF6FF72C2600361032394
:10121000039301230593099303A900F0CEFB50B972
:1012200000230193029301A9064800F001FD28B9AB
:101230000DB05DF804FB02F053F9F1E702F050F94C
:10124000F6E700BF4408002000040040F0B58DB070
:1012500000230793089309930A930B9303684C4A5E
:10126000934207D0B3F1804F35D04A4A934257D0CA
:101270000DB0F0BD00250095474B5A6C42F00102BD
:101280005A645A6C02F001020092009A01951A6B9E
:1012900042F010021A631B6B03F010030193019BD1
:1012A0004FF400730793022708970124099403233E
:1012B0000A930B94394E07A9304601F0E3F94FF435
:1012C00000630793089709940A950B9407A9304681
:1012D00001F0D8F9CCE70021029103F50E331A6C26
:1012E00042F001021A641A6C02F001020292029AA0
:1012F00003911A6B42F001021A631B6B03F00103A6
:101300000393039B2223079302230893012309934A
:1013100003220A920B9307A9214801F0B3F9A7E72A
:10132000002204921C4B196C41F002011964196CE3
:1013300001F00201049104990592196B41F0010139
:101340001963196B01F001010591059906921A6B59
:1013500042F004021A631B6B03F004030693069B1E
:1013600080230793022408940126099603250A95F1
:101370000B9407A90A4801F085F9402307930894C4
:1013800009960A950B9407A9064801F07BF96FE7C7
:1013900000000140000400400038024000100240FC
:1013A00000000240000802400268094B9A4200D047
:1013B000704782B000230193064B5A6C42F0020240
:1013C0005A645B6C03F002030193019B02B0704707
:1013D000000401400038024000B587B000230193AB
:1013E0000293039304930593026803F1804303F58A
:1013F00082339A4202D007B05DF804FB00230093C9
:101400000A4B1A6B42F004021A631B6B03F00403CD
:101410000093009B4FF46073019302230293032314
:10142000059301A9024801F02DF9E4E700380240D4
:101430000008024000B591B000230E930F9307936C
:10144000089309930A930B930C930D9300930193C4
:10145000029303930493059306932D482D4A02604B
:1014600043602022826042F60312C260036143613E
:1014700000F08AFA002838D100230E930F930EA9AA
:10148000234800F0D5FB002832D1602307930023C6
:10149000089309930A930B930C930D93042207A9C5
:1014A0001B4800F009FB30BB082207A9184800F0D0
:1014B00003FB18BB0C2207A9154800F0FDFA00BB7E
:1014C0000023009301930293039304934FF400527B
:1014D0000592069369460E4800F0D3FBA0B90C486C
:1014E000FFF77AFF11B05DF804FB01F0F9FFC3E7E5
:1014F00001F0F6FFC9E701F0F3FFD5E701F0F0FFD7
:10150000D8E701F0EDFFDBE701F0EAFFE7E700BF16
:10151000080800200004014008B50A480A4B03608F
:101520004FF4E133436000238360C36003610C2206
:1015300042618361C36100F06BFD00B908BD01F039
:10154000CFFFFBE7380900200010014008B50A482A
:101550000A4B03604FF4E133436000238360C360B0
:1015600003610C2242618361C36100F051FD00B947
:1015700008BD01F0B5FFFBE77809002000440040FA
:1015800008B50A480A4B03604FF416534360002322
:101590008360C36003610C2242618361C36100F018
:1015A00037FD00B908BD01F09BFFFBE7F8080020FC
:1015B0000048004000B58DB00023079308930993BD
:1015C0000A930B9303683E4A934208D03D4A9342E4
:1015D0002AD03D4A93424CD00DB05DF804FB002167
:1015E00001913A4B5A6C42F010025A645A6C02F064
:1015F00010020192019A02911A6B42F002021A63E0
:101600001B6B03F002030293029BC0230793022388
:1016100008930123099303230A9307230B9307A934
:101620002B4801F02FF8D7E700210391274B1A6CC4
:1016300042F400321A641A6C02F400320392039AE4
:1016400004911A6B42F008021A631B6B03F0080343
:101650000493049B602307930223089301230993B7
:1016600003230A9307230B9307A91A4801F00AF8EA
:10167000B2E700210591154B1A6C42F480221A64DE
:101680001A6C02F480220592059A06911A6B42F0B8
:1016900002021A631B6B03F002030693069B4FF4CE
:1016A00040630793022308930123099303230A93BA
:1016B00007230B9307A9064800F0E4FF8CE700BF5F
:1016C0000010014000440040004800400038024043
:1016D00000040240000C024000238B4221DA10B4C7
:1016E0000BE000BF4FF060421268002AF9D04FF0C3
:1016F0006042147001338B420FDAC45C4FF06042D9
:10170000D2F8802E12F0010FF4D04FF06042D2F8E0
:10171000002E12F0010FEDD0E4E718465DF8044BFF
:1017200070471846704708B508461146FFF7D4FFC2
:1017300008BD7047FEE7FEE7FEE7FEE7704770472B
:10174000704708B501F03EF908BD08B5012001F069
:1017500083F808BD08B5042001F07EF808BD00003C
:1017600000B583B0002100910C4B5A6C42F48042CA
:101770005A645A6C02F480420092009A01911A6CE9
:1017800042F080521A641B6C03F080530193019B5A
:10179000072001F06FF803B05DF804FB0038024049
:1017A00070B4036A23F001030362036A4268846928
:1017B00024F073040D6845EA040623F002048B68E4
:1017C00023430C4DA84202D00B4CA0420BD123F076
:1017D0000803CD682B4323F0040322F440724D69C3
:1017E00015438A692A43426086614A6842630362FC
:1017F00070BC7047000001400004014030B4036A2F
:1018000023F480730362036A4268C46924F073049A
:101810000D682C4323F400738D6843EA05230E4DB5
:10182000A84203D005F58065A8420ED123F40063D9
:10183000CD6843EA052323F4806322F440524D69C6
:1018400042EA05128D6942EA05124260C4614A68A3
:10185000C263036230BC70470000014030B4036AC9
:1018600023F480530362036A4468C26922F4E642A7
:101870000D6842EA052223F400538D6843EA0533DC
:10188000094DA84203D005F58065A84204D124F48F
:1018900080444D6944EA85144460C2614A68026428
:1018A000036230BC704700BF00000140022380F893
:1018B00039300268136843F001031360012380F894
:1018C000393000207047000003682E4A904212D041
:1018D000B0F1804F0FD0A2F57C4290420BD002F5C0
:1018E0008062904207D002F58062904203D002F5F8
:1018F0007842904203D123F070034A681343214A8F
:1019000090422AD0B0F1804F27D0A2F57C4290427D
:1019100023D002F5806290421FD002F5806290428F
:101920001BD002F57842904217D002F570529042D7
:1019300013D002F5806290420FD002F5806290428F
:101940000BD0A2F59832904207D002F58062904207
:1019500003D002F58062904203D123F44073CA6839
:10196000134303608B68C3620B688362054B984224
:1019700003D003F58063984201D10B69036301230F
:101980004361704700000140A8B110B5044690F8CB
:1019900039305BB1022384F83930211D2068FFF70C
:1019A00093FF012384F83930002010BD80F83830CF
:1019B000FFF7FAFCEEE701207047002847D0F8B5A2
:1019C00005460C4690F83930002B3BD0022385F8B1
:1019D0003930294651F8042B936823F007039360AC
:1019E0002868FFF771FF29688A688E690F6A206886
:1019F000104326F4407626F00306A268A36942EA63
:101A00000323334323F47C4323F0FC03E668E269B9
:101A100046EA02261E43226A1303226943EA02139E
:101A2000334327F0AA076268646942EA04123A4322
:101A3000886029688B612B681A62012385F8393028
:101A40000020F8BD80F83830FFF700FCBEE7012029
:101A50007047000030B4036A23F010030362036A86
:101A60004468826922F4E6420D6842EA052223F0C6
:101A700020038D6843EA05130E4DA84203D005F5F7
:101A80008065A8420ED123F08003CD6843EA051398
:101A900023F0400324F440644D6944EA85048D69D1
:101AA00044EA8504446082614A688263036230BC10
:101AB000704700BF0000014038B590F83830012B66
:101AC00066D00D460446012380F83830022380F8A2
:101AD00039300C2A1AD8DFE802F007191919201931
:101AE00019193419191947000068FFF759FE2268BF
:101AF000936943F0080393612268936923F0040318
:101B000093612268936929690B439361012384F8E7
:101B10003930002084F8380038BD0068FFF79AFF9C
:101B20002268936943F4006393612268936923F404
:101B30008063936122689369296943EA0123936171
:101B4000E4E70068FFF75AFE2268D36943F0080310
:101B5000D3612268D36923F00403D3612268D36977
:101B600029690B43D361D1E70068FFF777FE22684C
:101B7000D36943F40063D3612268D36923F480639B
:101B8000D3612268D369296943EA0123D361BDE7A0
:101B90000220C1E710B4012303FA01F4036A23EA27
:101BA00004030362036A8A40134303625DF8044B33
:101BB0007047000010B5044601220068FFF7EAFFF5
:101BC0002368094A934203D002F58062934203D10D
:101BD0005A6C42F400425A642268136843F00103CD
:101BE0001360002010BD00BF0000014010B5044686
:101BF00061B1042916D0012200210068FFF7CAFF55
:101C0000012204212068FFF7C5FF04E00122002122
:101C10000068FFF7BFFF2268136843F001031360F9
:101C2000002010BD012204210068FFF7B3FFF2E796
:101C300090F83830012B22D030B4012280F83820BF
:101C4000022380F839300468636823F0700363600E
:101C5000046863680D682B4363600468A36823F01D
:101C60008003A3600468A36849680B43A36080F8FD
:101C70003920002380F83830184630BC70470220E5
:101C8000704790F83830012B25D0012380F8383088
:101C9000CB6823F440738A68134323F480634A6853
:101CA000134323F400630A68134323F480530A693F
:101CB000134323F400534A69134323F480438A698E
:101CC000134323F40043134302685364002380F852
:101CD0003830184670470220704700002DE9F8435D
:101CE000044601680A6922F44052C36813430B6139
:101CF0000168CA6822F4164222F00C028368006967
:101D0000034360690343E06903431343CB602168E5
:101D10004A6922F44072A36913434B61E369B3F546
:101D2000004F60D02368B84A934200F0148102F556
:101D30008062934200F00F8100F084FC00EB800091
:101D400000EB80006568AD00B0FBF5F5AF4FA7FB79
:101D500005356D092E0100F075FC00EB800000EBED
:101D600080006568AD00B0FBF5F900F06BFC00EB9E
:101D7000800000EB80006568AD00B0FBF5F5A7FBC7
:101D800005356D094FF0640808FB15952D013235B6
:101D9000A7FB05356D0905F0F005354400F052FC50
:101DA00000EB800000EB80006668B600B0FBF6F642
:101DB00000F048FC00EB800000EB800063689B00B3
:101DC000B0FBF3F0A7FB0030400908FB10684FEAB6
:101DD000081808F13208A7FB0837C7F34317236830
:101DE0002F449F600DE12368874A93425BD002F540
:101DF0008062934257D000F025FC00EB800000EB9E
:101E0000800065686D00B0FBF5F5804FA7FB0535D8
:101E10006D092E0100F016FC00EB800000EB800045
:101E200065686D00B0FBF5F900F00CFC00EB80007C
:101E300000EB800065686D00B0FBF5F5A7FB05358C
:101E40006D094FF0640808FB1595ED003235A7FBCE
:101E500005356D096D0005F4F875354400F0F2FBA9
:101E600000EB800000EB800066687600B0FBF6F6C1
:101E700000F0E8FB00EB800000EB800063685B0093
:101E8000B0FBF3F3A7FB03235B0908FB13684FEADE
:101E9000C80808F13208A7FB0837C7F342172368C0
:101EA0002F449F60ADE000F0DDFB00EB800000EB15
:101EB000800065686D00B0FBF5F5544FA7FB053554
:101EC0006D092E0100F0CEFB00EB800000EB8000DE
:101ED00065686D00B0FBF5F900F0C4FB00EB800015
:101EE00000EB800065686D00B0FBF5F5A7FB0535DC
:101EF0006D094FF0640808FB1595ED003235A7FB1E
:101F000005356D096D0005F4F875354400F0AAFB40
:101F100000EB800000EB800066687600B0FBF6F610
:101F200000F0A0FB00EB800000EB800063685B002A
:101F3000B0FBF3F3A7FB03235B0908FB13684FEA2D
:101F4000C80808F13208A7FB0837C7F3421723680F
:101F50002F449F6055E000F085FB00EB800000EB14
:101F600080006568AD00B0FBF5F5284FA7FB05358F
:101F70006D092E0100F076FB00EB800000EB800085
:101F80006568AD00B0FBF5F900F06CFB00EB80007C
:101F900000EB80006568AD00B0FBF5F5A7FB0535EB
:101FA0006D094FF0640808FB15952D013235A7FB2C
:101FB00005356D0905F0F005354400F053FB00EBE5
:101FC000800000EB80006668B600B0FBF6F600F01B
:101FD00049FB00EB800000EB800063689B00B0FBD6
:101FE000F3F0A7FB0030400908FB10684FEA08181F
:101FF00008F13208A7FB0837C7F3431723682F44BB
:102000009F60BDE8F88300BF001001401F85EB51C1
:1020100058B310B5044690F839300BB3242384F834
:1020200039302268D36823F40053D3602046FFF789
:1020300055FE2268136923F49043136122685369A3
:1020400023F02A0353612268D36843F40053D3601A
:102050000020E063202384F8393084F83A3010BD42
:1020600080F83830FFF7A6FAD8E701207047000063
:10207000002800F0BB8170B582B00446036813F0FD
:10208000010F3BD0A74B9B6803F00C03042B2CD013
:10209000A44B9B6803F00C03082B21D06368B3F5B5
:1020A000803F4FD0B3F5A02F52D09E4B1A6822F438
:1020B00080321A601A6822F480221A606368002B4A
:1020C00050D000F08BFC0546964B1B6813F4003F84
:1020D00014D100F083FC401B6428F5D903208AE169
:1020E000904B5B6813F4800FD8D08E4B1B6813F4B1
:1020F000003F03D06368002B00F07A81236813F05F
:10210000020F55D0874B9B6813F00C0F3ED0854BC8
:102110009B6803F00C03082B33D0E368002B68D0D6
:10212000814B01221A6000F059FC05467D4B1B686B
:1021300013F0020F54D100F051FC401B0228F5D9D6
:10214000032058E1774A136843F480331360B5E7FE
:10215000744B1A6842F480221A601A6842F4803282
:102160001A60ABE700F03AFC05466E4B1B6813F4AF
:10217000003FC3D000F032FC401B6428F5D9032097
:1021800039E1684B5B6813F4800FC6D1654B1B685F
:1021900013F0020F04D0E368012B01D001202AE1E3
:1021A000604A136823F0F803216943EAC10313600E
:1021B000236813F0080F40D0636963B35B4B0122BF
:1021C0001A6000F00BFC0546564B5B6F13F0020FD4
:1021D00033D100F003FC401B0228F5D903200AE1AB
:1021E000504A136823F0F803216943EAC1031360DE
:1021F000DEE74D4B00221A6000F0F0FB0546494B2C
:102200001B6813F0020FD3D000F0E8FB401B02283C
:10221000F5D90320EFE0454B00221A6000F0DEFB09
:102220000546404B5B6F13F0020F06D000F0D6FB63
:10223000401B0228F5D90320DDE0236813F0040FCA
:1022400079D0384B1B6C13F0805F33D1002301939E
:10225000344B1A6C42F080521A641B6C03F08053AA
:102260000193019B0125324B1B6813F4807F23D01F
:10227000A368012B34D0052B38D02A4B1A6F22F0DB
:1022800001021A671A6F22F004021A67A368002B72
:1022900036D000F0A3FB0646224B1B6F13F0020F53
:1022A00048D100F09BFB801B41F288339842F3D960
:1022B0000320A0E00025D6E71D4A136843F480738D
:1022C000136000F08BFB0646194B1B6813F4807FEC
:1022D000CED100F083FB801B0228F5D903208AE0D1
:1022E000104A136F43F001031367CFE70D4B1A6FCA
:1022F00042F004021A671A6F42F001021A67C5E73A
:1023000000F06CFB0646074B1B6F13F0020F11D059
:1023100000F064FB801B41F288339842F3D903201C
:1023200069E000BF0038024000004742800E47428B
:1023300000700040E5B9A369002B5BD0304A926879
:1023400002F00C02082A58D0022B17D02D4B002285
:102350001A6000F043FB0446294B1B6813F0007F12
:1023600042D000F03BFB001B0228F5D9032042E0DD
:10237000234A136C23F080531364DCE7214B0022C3
:102380001A6000F02BFB05461D4B1B6813F0007F05
:1023900006D000F023FB401B0228F5D903202AE0D9
:1023A000E369226A1343626A43EA8213A26A52080B
:1023B000013A43EA0243E26A43EA0263104A536085
:1023C000104B01221A6000F009FB04460C4B1B68FD
:1023D00013F0007F06D100F001FB001B0228F5D9A5
:1023E000032008E0002006E0002004E00120704700
:1023F000012000E0002002B070BD0120FBE700BF1B
:102400000038024060004742324B9B6803F00C03E7
:10241000042B5CD0082B01D02F4870472DE9F04BDE
:102420002C4B5A6802F03F025B6813F4800F2BD0EC
:10243000284B5B68C3F388131E4600275C01002508
:10244000E41A65EB0705A90141EA9461A001001BAC
:1024500061EB0501CB0043EA5073C400A01943EBC4
:1024600007014B0243EAD053440220461946002399
:10247000FEF7FCFB174B5B68C3F3014301335B00C2
:10248000B0FBF3F0BDE8F08B124B5B68C3F388132D
:102490001E4600275C010025E41A65EB0705A9012B
:1024A00041EA9461A001001B61EB0501CB0043EA06
:1024B0005073C400A01943EB07018B0243EA905309
:1024C0008402204619460023FEF7D0FBD2E70348DA
:1024D000704700BF003802400024F40000127A0068
:1024E000002800F09D8070B504464F4B1B6803F038
:1024F0000F038B4209D2CBB24B4A1370136803F01F
:102500000F038B4201D0012070BD236813F0020F2E
:1025100017D013F0040F04D0444A936843F4E053F7
:102520009360236813F0080F04D0404A936843F483
:10253000604393603D4A936823F0F003A06803432F
:1025400093600D46236813F0010F32D06368012BAE
:1025500021D09A1E012A25D9344A126812F0020F9E
:1025600060D032498A6822F0030213438B6000F086
:1025700035FA06462D4B9B6803F00C036268B3EBFB
:10258000820F16D000F02AFA801B41F2883398425D
:10259000F0D90320B8E7254A126812F4003FE0D1D1
:1025A0000120B1E7214A126812F0007FD9D1012041
:1025B000AAE71D4B1B6803F00F03AB4209D9EAB22F
:1025C000194B1A701B6803F00F03AB4201D00120B6
:1025D0009AE7236813F0040F06D0144A936823F493
:1025E000E053E1680B439360236813F0080F07D0B2
:1025F0000E4A936823F46043216943EAC103936060
:10260000FFF702FF094B9B68C3F30313084AD35C2F
:10261000D840084B1860002000F094F9002073E7C0
:102620000120704701206FE7003C02400038024063
:10263000C89300080C000020014B1868704700BFC9
:102640000C00002008B5FFF7F7FF044B9B68C3F3AD
:102650008223034AD35CD84008BD00BF0038024043
:10266000D893000808B5FFF7E7FF044B9B68C3F356
:102670004233034AD35CD84008BD00BF0038024053
:10268000D893000800230F2B00F2D780F0B482B05B
:1026900039E0072200E00022B2403A430234674E9C
:1026A00046F82420664A1468EA4302EA04064F68A2
:1026B00017F4803F01D045EA0406614C2660646847
:1026C00002EA04064F6817F4003F01D045EA040609
:1026D0005B4C6660A46802EA04064F6817F4801F2A
:1026E00001D045EA0406564CA660E46822404E68D4
:1026F00016F4001F01D045EA0402514CE260013398
:102700000F2B00F2978001229A400C6804EA020520
:10271000AA42F4D14C68022C01D0122C10D1DE0850
:10272000083650F826C003F00704A7000F24BC4069
:102730002CEA040C0C69BC4044EA0C0440F8264026
:1027400004685F000326BE40F64306EA040C4C68AA
:1027500004F00304BC4044EA0C0404604C6804F137
:10276000FF3CBCF1010F03D9112C01D0122C10D168
:10277000846806EA040CCC68BC4044EA0C0484601B
:10278000446824EA02024C68C4F300149C401443D9
:102790004460C26816408A68BA403243C2604A68E0
:1027A00012F0805FABD000220192264A546C44F4B0
:1027B00080445464526C02F480420192019A9C0855
:1027C000A61C1E4A52F8267003F0030296000F2240
:1027D000B24027EA02071C4A90423FF45CAF02F580
:1027E000806290421AD002F58062904218D002F5C1
:1027F0008062904216D002F58062904214D002F5B9
:102800008062904212D002F58062904210D002F5B0
:10281000806290423FF43DAF08223DE701223BE752
:10282000022239E7032237E7042235E7052233E79E
:10283000062231E702B0F0BC704770470038014013
:10284000003C0140003802400000024012B9090477
:10285000816170478161704708B5054B5B69034230
:1028600000D108BD024B586102F082FDF9E700BFBC
:10287000003C0140074AD36823F4E0631B041B0CAF
:10288000000200F4E060184340F0BF6040F4003004
:10289000D060704700ED00E030B4174BDB68C3F345
:1028A0000223C3F10704042C28BF04241D1D062D98
:1028B00018D9033B4FF0FF3505FA04F421EA04016F
:1028C000994005FA03F322EA0303194300280BDBBE
:1028D0000901C9B200F1604000F5614080F80013C1
:1028E00030BC70470023E5E700F00F000901C9B2D2
:1028F000024B1954F4E700BF00ED00E014ED00E0D6
:1029000000F01F02400901239340024A42F82030A0
:10291000704700BF00E100E00138B0F1807F0AD2CB
:10292000064B5860064AF02182F823100020986078
:1029300007221A6070470120704700BF10E000E0D6
:1029400000ED00E010B504460E4B18784FF47A7392
:10295000B3FBF0F30C4A1068B0FBF3F0FFF7DCFFB9
:1029600068B90F2C01D901200AE0002221464FF05E
:10297000FF30FFF791FF054B1C60002000E00120B5
:1029800010BD00BF040000200C0000200800002043
:1029900008B50B4B1A6842F400721A601A6842F4C8
:1029A00080621A601A6842F480721A600320FFF78E
:1029B00061FF0020FFF7C6FFFEF7D2FE002008BD32
:1029C000003C0240034A1168034B1B780B44136020
:1029D000704700BFB809002004000020014B1868B0
:1029E000704700BFB809002038B50446FFF7F6FF6E
:1029F0000546B4F1FF3F02D0044B1B781C44FFF79F
:102A0000EDFF401BA042FAD338BD00BF04000020F8
:102A10000F49D1F8883043F47003C1F888300D4B6A
:102A20001A6842F001021A60002098601A6822F0C9
:102A3000847222F480321A60074A5A601A6822F4BB
:102A400080221A60D8604FF000638B60704700BF2F
:102A500000ED00E0003802401030002408B50B48BB
:102A60000B4B03600B4B436000238360C3604FF448
:102A70008042026143618361C361036200F042FAF4
:102A800000B908BD00F02CFDFBE700BFBC09002029
:102A900000540040A086010030B589B000230393A4
:102AA00004930593069307930268154B9A4201D04D
:102AB00009B030BD00250195124C236B43F0020391
:102AC0002363236B03F002030193019B4FF44073D4
:102AD00003931223049301230593032306930423F2
:102AE000079303A90848FFF7CDFD0295236C43F433
:102AF00000132364236C03F400130293029BD7E7B3
:102B000000540040003802400004024003685A6943
:102B100012F4806F0DD06FF480625A610423036455
:102B200000230363202280F83D2080F83C30012000
:102B3000704700207047F8B506460C4617461D46FC
:102B40001EE02DB1FFF74AFF069BC01AA84217D915
:102B500000233363202286F83D2086F83E3086F835
:102B60003C3003201AE033685B6924EA03039BB21C
:102B7000B3FA83F35B099F420FD1B5F1FF3FE0D178
:102B8000C4F30743012BEED033689B6924EA0303A7
:102B90009BB2B3FA83F35B09EDE70020F8BDF8B50B
:102BA00004460D4616461F4632E01A6842F400728B
:102BB0001A6023686FF480625A610423236400233F
:102BC0002363202284F83D2084F83C3001202DE04E
:102BD00026B1FFF703FFC01BB04219D900232363BE
:102BE000202284F83D2084F83C3003201EE0236836
:102BF0005B6925EA03039BB2003318BF0123A3B12D
:102C000023685A6912F4806FCFD1B6F1FF3FDFD14C
:102C1000C5F30743012BEAD023689B6925EA030328
:102C20009BB2003318BF0123E9E70020F8BD000084
:102C3000F0B583B004460D4616461F46C36A042B02
:102C40000DD0012B0BD013F5803F08D0036B122B56
:102C50000AD10268136843F48073136004E02268A9
:102C6000136843F4807313600097334600224FF0DB
:102C700001112046FFF75FFF58BB2369B3F5804F72
:102C800010D1236805F0FE051D613B46324615490B
:102C90002046FFF784FF0346E0B1236C042B1ED1CE
:102CA000012317E0EB11226803F0060343F0F00361
:102CB00013613B4632460C492046FFF770FF20B1B6
:102CC000236C042B09D1012304E02368EDB21D61BC
:102CD000DBE70323184603B0F0BD0323FAE7032321
:102CE000F8E700BF02000100080001002DE9F041F3
:102CF00084B004460D4616461F46C26A01680B683A
:102D000043F480630B60042A0DD0012A0BD012F526
:102D1000803F08D0036B112B0AD10268136843F47B
:102D20008073136004E02268136843F480731360B7
:102D30000097334600224FF001112046FFF7FBFEBB
:102D4000002852D12369B3F5804F12D1236845F092
:102D50000105EDB21D613B4632462A492046FFF788
:102D60001EFF0346002841D0236C042B48D10123C9
:102D70003CE04FEAE51808F00608236848F0F00246
:102D80001A613B46324620492046FFF708FF20B132
:102D9000236C042B2ED1012328E02368EDB21D61A2
:102DA0003B46324617492046FFF7F9FE20B1236C17
:102DB000042B21D1012319E00022039223685969D1
:102DC0000391996903910399196841F4807119601D
:102DD000009733464FF001112046FFF7ACFE68B96B
:102DE000226848F0F1031361B5E70323184604B0E5
:102DF000BDE8F0810323F9E70323F7E70323F5E7B1
:102E00000323F3E7020001000800010070B5044647
:102E10000D46164623685B6913F0800F19D12046D2
:102E2000FFF774FEB8B9B5F1FF3FF3D025B1FFF756
:102E3000D5FD801BA842EDD9236C43F02003236409
:102E400000232363202284F83D2084F83C300320B3
:102E500000E0002070BD0120FCE770B504460D467F
:102E6000164623685B6913F0040F19D12046FFF75B
:102E70004DFEB8B9B5F1FF3FF3D025B1FFF7AEFD78
:102E8000801BA842EDD9236C43F020032364002368
:102E90002363202284F83D2084F83C30032000E0A6
:102EA000002070BD0120FCE770B505460C461646B3
:102EB0002B685A6912F0400F22D15A6912F0100F94
:102EC00011D124B1FFF78AFD801BA042F0D92B6CF1
:102ED00043F020032B64202385F83D30002385F840
:102EE0003C30032070BD6FF010025A6100232B6448
:102EF0002B63202285F83D2085F83C300120F1E746
:102F00000020EFE7002800F0828010B5044690F81A
:102F10003D30002B41D0242384F83D3022681368D3
:102F200023F001031360FFF78DFB3A4BA3FB002353
:102F30009B0C226853606168374A914232D8013352
:102F4000226813626368344A934235D85B00B0FB51
:102F5000F3F0C0F30B03032B00D804202368D861DF
:102F6000E369216A22680B4313602369E1682268E0
:102F70000B4393606369A16922680B43D3602268A5
:102F8000136843F00103136000202064202384F8B9
:102F90003D30206384F83E0010BD80F83C30FFF7E0
:102FA0007BFDB8E74FF4967202FB03F31B4AA2FBCA
:102FB00003239B090133C3E7A16889B903EB4302EB
:102FC000B0FBF2F2C2F30B02B2FA82F25209E2B99A
:102FD00091B903EB4303B0FBF3F040F40040BDE7CD
:102FE00003EB830202EB8202B0FBF2F2C2F30B02AC
:102FF000B2FA82F25209EAE703EB830303EB83039D
:10300000B0FBF3F040F44040A8E70120A6E7012020
:10301000704700BF83DE1B43A0860100D34D6210C2
:103020002DE9F04184B004460E4690461F46FFF756
:10303000D5FC94F83D30DBB2202B04D0022630467C
:1030400004B0BDE8F08105460090192301225449DF
:103050002046FFF770FD002840F0998094F83C303E
:10306000012B00F09680012384F83C3023681A6815
:1030700012F0010F03D11A6842F001021A602268AF
:10308000136823F400631360212384F83D30102378
:1030900084F83E3000232364C4F824806785A3F5B8
:1030A0008033E362638D23852B460A9A314620469E
:1030B000FFF7BEFD064660B1236C042B04D100234C
:1030C00084F83C300126BAE7002384F83C3003261C
:1030D000B5E70023039323685A6903929B6903931E
:1030E000039B10E0236C042B55D12268136843F432
:1030F000007313600126A2E72A460A992046FFF7CB
:10310000ACFE00282BD1238D002B32D02A460A9901
:103110002046FFF77BFE0028E4D1636A5A1C6262F6
:1031200022681B781361638D013B9BB26385238DFD
:10313000013B9BB223852268516911F0040FDBD05B
:10314000002BD9D0636A591C61621B781361638DAF
:10315000013B9BB26385238D013B2385CCE7236C28
:10316000042B1AD12268136843F4007313600126FC
:1031700065E72268136843F400731360202384F822
:103180003D30002384F83E3084F83C3057E7022677
:1031900055E7022653E7032651E703264FE700BF12
:1031A000020010002DE9F04186B004460E4690461C
:1031B0001F46FFF713FC94F83D30DBB2202B04D000
:1031C0000226304606B0BDE8F0810546009019237E
:1031D00001228C492046FFF7AEFC002840F04B81CD
:1031E00094F83C30012B00F04881012384F83C30F6
:1031F00023681A6812F0010F03D11A6842F0010225
:103200001A602268136823F400631360222384F891
:103210003D30102384F83E3000232364C4F824801A
:103220006785A3F58033E362638D23852B460C9A73
:1032300031462046FFF75AFD064660B1236C042B49
:1032400004D1002384F83C300126BAE7002384F837
:103250003C300326B5E7238D5BB9029323685A6996
:1032600002929A690292029A1A6842F400721A60F3
:103270007AE0012B0FD0022B1FD02268136843F491
:10328000806313600023059323685A6905929B6944
:103290000593059B68E02268136823F4806313603C
:1032A0000023039323685A6903929A690392039A4D
:1032B0001A6842F400721A6056E02268136823F418
:1032C000806313602268136843F400631360002373
:1032D000049323685A6904929B690493049B43E016
:1032E0002A460C992046FFF7DFFD68B923681A6962
:1032F000636A591C61621A70238D013B2385638DBB
:10330000013B9BB263852FE0236C202B01D001266B
:1033100057E7032655E700950C9B00223A492046C3
:10332000FFF709FC002840F0AA802268136843F4E4
:103330000073136023681A69636A591C61621A700A
:10334000238D013B2385638D013B9BB263852368FD
:103350001A69636A591C61621A70238D013B2385C7
:10336000638D013B9BB26385238D002B7AD0032BA9
:103370004CD8012BB4D0022BCDD000950C9B002251
:1033800021492046FFF7D7FB00287AD1226813682D
:1033900023F48063136023681A69636A591C6162AD
:1033A0001A70238D013B2385638D013B9BB263859E
:1033B00000950C9B002214492046FFF7BCFB002817
:1033C00061D12268136843F40073136023681A699B
:1033D000636A591C61621A70238D013B2385638DDA
:1033E000013B9BB2638523681A69636A591C616259
:1033F0001A70238D013B2385638D013B9BB263854E
:10340000B2E700BF02001000040001002A460C9938
:103410002046FFF749FDF0B923681A69636A591C11
:1034200061621A70238D013B2385638D013B9BB242
:10343000638523685A6912F0040F95D01A69636A8C
:10344000591C61621A70238D013B2385638D013BFA
:103450009BB2638588E7236C202B01D00126B0E660
:103460000326AEE6202384F83D30002384F83E3066
:1034700084F83C30A5E60226A3E60226A1E6032650
:103480009FE603269DE603269BE600BFDFF834D0C7
:10349000002103E00C4B5B58435004310B480C4BAC
:1034A00042189A42F6D30B4A02E0002342F8043B4A
:1034B000094B9A42F9D3FFF7ABFA04F073FF00F01F
:1034C0006BF8704700000220649C00080000002098
:1034D000AC000020AC000020140A0020FEE7FEE74C
:1034E00008B5D7210148FFF7FAFF00BFE0930008B5
:1034F00000B595B03022002108A804F08AFF00230F
:10350000039304930593069307930193204A116C48
:1035100041F080511164126C02F080520192019AC4
:1035200002931C4B1A6842F480421A601B6803F431
:1035300080430293029B012308934FF48033099345
:1035400002230E934FF480020F9204221092A822BD
:10355000119212930723139308A8FEF789FD98B9D7
:103560000F23039302230493002305934FF4A053E6
:1035700006934FF480530793052103A8FEF7B0FF8D
:1035800020B915B05DF804FBFFF7AAFFFFF7A8FF0D
:10359000003802400070004010B52DED028B84B061
:1035A000FFF7F6F9FFF7A4FFFDF7E0FCFFF756FA87
:1035B000FDF7B8FDFDF7E8FDFDF716FEFDF73AFF54
:1035C000FDF7AAFFFDF7C2FFFDF7DAFF00F0F3FBFE
:1035D00001F050F81E4805F055F8FFF7FFF90446D2
:1035E00000F022FA1B4805F04DF8FFF7F7F9001B31
:1035F0000928F7D9FFF7F2F9044600F0C5F99FED65
:10360000168AB0EE480A154801F0F2FBB0EE480AFF
:10361000134801F0C5FE0A2101A801F049F8DDEDCB
:10362000037AFDEEE77A17EE903ADDED027AFDEED1
:10363000E77A17EE902ADDED017AFDEEE77A17EED4
:10364000901A084804F096FF0A2004F0ABFFC9E77F
:10365000F4930008089400080000000054010020C2
:10366000AC0100201094000870470000012800D031
:1036700070474FF6FF739942FAD170B5094800249C
:10368000046044608460084E084D3246294602F0CA
:1036900059FB07480460446084603246294602F0C2
:1036A00051FB70BDD40000200000002069360008E6
:1036B000C8000020172807D0282803D0034A044B4D
:1036C0001A607047034AFAE7024AF8E70000A0418F
:1036D000100000207B096D4108B52DED028BB0EE86
:1036E000408A5A4801F0F4FA00284CD1584801F0B9
:1036F00073FADFED587AB4EEE70AF1EE10FA23DD43
:10370000534801F069FADFED547AB4EEE70AF1EEBE
:1037100010FA19D5514BD3ED007A514B93ED007A45
:1037200077EE876AF4EEC86AF1EE10FA1CD477EEF1
:10373000C77AF4EEC87AF1EE10FA1BDD9FED490A64
:10374000494801F02DFE0CE0414801F045FAB5EE84
:10375000C00AF1EE10FA13DD9FED420A424801F073
:103760001FFEBDEC028B08BD9FED400A3E4801F0F4
:1037700017FEF6E79FED3E0A3B4801F011FEF0E729
:103780009FED3A0AEAE7314801F0A2FA012857D141
:10379000324BD3ED007A78EE677AF0EEE77A9FED60
:1037A0002E7AF4EEC77AF1EE10FA29D8284801F003
:1037B00013FA2B4BD3ED007AF4EEC07AF1EE10FA47
:1037C00012D4234801F008FA254BD3ED007AF1EE2C
:1037D000677AF4EEC07AF1EE10FA0BDD9FED230A62
:1037E000214801F0DDFDBCE79FED1E0A1E4801F0F7
:1037F000D7FDB6E79FED1E0A1B4801F0D1FDB0E7EB
:10380000134801F0E9F9B0EEC00ADFED137AB4EE27
:10381000E70AF1EE10FA0DD5B5EEC08AF1EE10FA16
:1038200005DD9FED100A104801F0BAFD99E79FED04
:103830000F0AF8E79FED0E0A0B4801F0B1FD90E783
:103840009FED0B0A084801F0ABFD8AE75401002008
:10385000B80100207CD920BE7CD9203EE0000020A9
:1038600044000020333333BFAC0100203333333FF7
:10387000000000000000000008B50F4B93ED027A35
:103880000E4BD3ED027A77EE677A17EE900AFCF7CB
:1038900063FE07A3D3E90023FCF7B6FE0022084B22
:1038A000FCF7DCFFFDF792F9064B186008BD00BF7E
:1038B000182D4454FB210940D4000020C8000020EA
:1038C00000806640E000002010B52DED028B04461C
:1038D00010EE100AFCF740FE28A3D3E90023FCF702
:1038E00093FEFDF773F908EE100A00EE100A204669
:1038F000FFF7E0FEB0EE480A2046FFF7EDFEFFF7C7
:10390000BBFF194B1B699C4210DC184BD3ED007AAE
:1039100038EE678AF0EEC87A17EE900AFCF71CFEC4
:103920000FA3D3E90023FDF7EBF848B9104B93ED53
:10393000000A0D4801F05CFA0020BDEC028B10BDBE
:103940009FED0C8AB0EE480A074801F051FAB0EE3C
:10395000480A094801F024FD0120EEE7AFF300809A
:103960007B14AE47E17AA43F54010020E000002020
:103970001000002000000000AC010020399D52A280
:1039800046DF913F0000000010B52DED048B86B09E
:103990001F4801F0C2FA1F4801F05EFD03AC0A2186
:1039A000204600F085FE1C4B94E8070083E80700E2
:1039B00093ED008AD3ED018A93ED029A174B93EDB4
:1039C000007ADFED177A67EE277A17EE900AFCF798
:1039D000C3FD0DA3D3E90023FCF740FFBDEEC99A58
:1039E000FDEEE88ABDEEC88AFDF7A8F8009019EE52
:1039F000103A18EE902A18EE101A0A4804F0BAFD90
:103A000006B0BDEC048B10BD182D4454FB210940B9
:103A100054010020AC010020C8000020E00000207C
:103A2000000034432094000830B585B0FEF7D6FF7F
:103A3000044601AD0A21284600F03AFE144B95E8F1
:103A4000070083E807000025052DFCDCFEF7C6FF14
:103A5000001B0928FAD9FEF7C1FF0446FFF794FFBF
:103A6000A9000C4A0A44D2ED007A0B4B0B4493EDAB
:103A7000000AFDEEE77A17EE900AFFF725FF00280F
:103A8000E4D02946054804F075FD0135DCE700BFA8
:103A9000D40000202C000020140000205C940008BA
:103AA00008B54FF6FF710120FFF7E0FD08BD704734
:103AB00007EE901AF8EE676ADFED217A86EEA77AB4
:103AC00090ED016AD0ED025AD0ED037AC7EE876A15
:103AD00076EE867A27EE257A37EE467A36EEA66AB5
:103AE00037EE467A67EE807A90ED076A26EE077A1F
:103AF00077EE877A90ED087A67EE266A77EEA67AF7
:103B000090ED067A77EE877AC0ED067A90ED047A2A
:103B1000F4EEC77AF1EE10FA09DC90ED057AF4EED6
:103B2000C77AF1EE10FA04D580ED067A01E080ED57
:103B3000067A80ED086A80ED070A90ED060A704764
:103B400000007A4470470000054B064A9A63203211
:103B5000DA63054A1A64054A1A65054A5A657047C8
:103B600054010020E4000020440100209A99593FAC
:103B70003333733F024B034A9A60034ADA6070475B
:103B8000AC010020240100204C0100200B4B0C4A0A
:103B90009A610C4ADA6100221A620B4959620B4998
:103BA00099620B4B4FF0804119624FF0814159628D
:103BB0009A62084ADA62084A1A6370475401002080
:103BC000000020410000FA4200001842000018C224
:103BD000AC010020CDCCAC3FCDCCACBF044B054AF2
:103BE0001A6001229A80044A9A6004229A817047DE
:103BF000540100200008024000000240074A084B20
:103C00009A4209D0583A12F13801F8D002F1400333
:103C10009942F4D0043BFBE7704700BFAC010020A1
:103C200054010020F8B5204C2048A061204BA3602F
:103C30001022A28123610425A5820826E6611D4980
:103C400021601D4A6260A063A3F58063A3624FF404
:103C50000063A385194B23634FF40047A786E563F0
:103C600021626262A065A3644FF48063A4F84C30C3
:103C700003F1804303F503332365A4F854600C2754
:103C8000E7650F4B23640F4B6364FDF70FFE31466E
:103C9000A069FDF78FFF2946A06BFDF78BFF394622
:103CA000A06BFDF787FFF8BDE400002008080020A6
:103CB000000C024000001842CDCC4C3E00000240F7
:103CC0001CC7B13FCDCCCC3D10B5094C4FF4875348
:103CD000A380084820601821FDF788FF4FF47C631B
:103CE000A3810548A0601821FDF780FF10BD00BF2B
:103CF00044010020BC08002044080020012800D016
:103D0000704738B54FF6FF73994200D038BD002197
:103D10001F4B002920DB00221A6100229A61DA6120
:103D20001A621C4C5C61DA621A635A6303F138044C
:103D30000246002A04DB002544F8045B013AF8E758
:103D40000024A3F8444000229A64DA641C641A65D3
:103D50005A6558330139DCE70F4C22460F490020E1
:103D600001F0F0FF0E4800228260028200234361CE
:103D70008361C260036243628362064AC261436335
:103D80008363C3632246074901F0DCFFBEE700BF3F
:103D900054010020A494000800000020FD3B00080E
:103DA000AC010020453B000810B50446242101F079
:103DB000CEFF204610BD08B5FFF734FFFFF784FFA4
:103DC000FFF7E4FEFFF70AFFFFF7BEFEFFF7D2FEA4
:103DD00008BD08B54FF6FF710120FFF78FFF08BD42
:103DE00070477047704770477047000010B50A4829
:103DF0000A4B0360D02280F82820002280F830206F
:103E000080F83120064C23603C23237401F008F92C
:103E1000204601F087F810BD0C020020BC090020EC
:103E2000EC01002010B52DED028BF8B007EE900AE2
:103E3000B8EE677ADFEDA67A87EE278A022211466E
:103E400067A801F02BFB9DF8DC3113B19DF8DD3143
:103E50001BB926219F48FFF742FB4FF07E53679323
:103E60009DF8DC311BB19DF8DD31012B03D82621F3
:103E70009848FFF734FBF1EE487ACDED687A9DF86B
:103E8000DC31012B02D99DF8DD311BB92621914887
:103E9000FFF725FB00236B939DF8DC31012B40F2EB
:103EA00007819DF8DD31012B40F202814FF07E53F6
:103EB0006C930122022156A801F0F0FA9DF8983186
:103EC00013B19DF899311BB926218248FFF707FBF2
:103ED0008DED568A9DF89831012B02D99DF89931C4
:103EE0001BB926217B48FFF7FAFA00235A930222D6
:103EF000012145A801F0D2FA9DF8543113B19DF883
:103F000055311BB926217348FFF7E9FA4FF07E536C
:103F100045939DF854311BB19DF85531012B03D8C1
:103F200026216C48FFF7DBFA002346930222114654
:103F300034A801F0B3FA9DF8103113B19DF8113196
:103F40001BB926216348FFF7CAFA634B34939DF8E7
:103F500010311BB19DF81131012B03D826215D488A
:103F6000FFF7BDFA002335939DF81031012B02D9DC
:103F70009DF811311BB926215648FFF7B0FA0023EE
:103F800038939DF81031012B40F297809DF8113144
:103F9000012B40F29280504B39930222114623A804
:103FA00001F07CFA9DF8CC3013B19DF8CD301BB9EF
:103FB00026214848FFF793FA484B23939DF8CC30CD
:103FC0001BB19DF8CD30012B03D826214148FFF7C6
:103FD00086FA002324939DF8CC30012B02D99DF85A
:103FE000CD301BB926213B48FFF779FA00232793F0
:103FF0009DF8CC30012B65D99DF8CD30012B61D9CE
:10400000374B28930122114612A801F047FA9DF878
:10401000883013B19DF889301BB926212D48FFF750
:104020005EFA304B129367A901A801F05DFA2E4C9D
:1040300001A9204601F0D5FB56A901A801F054FAC8
:1040400001A904F1440001F0CCFB45A901A801F04D
:104050004BFA01A904F1880001F0C3FB022101A879
:1040600001F041FB422201A904F1CC0004F0C6F9A1
:1040700034A901A801F038FA01A904F5887001F00B
:10408000B0FB23A901A801F02FFA01A904F5AA7039
:1040900001F0A7FB12A901A801F026FA01A904F575
:1040A000CC7001F09EFB002078B0BDEC028B10BDFF
:1040B00026210848FFF713FAF8E626210548FFF7FE
:1040C0000EFA68E726210348FFF709FA98E700BFD0
:1040D00000007A44B0940008000020416F12833A37
:1040E000A69B443B0AD7233D4002002070B50446FE
:1040F0000E461546012202210C3001F0CFF90122B3
:10410000114604F1500001F0C9F90122114604F1F1
:10411000940001F0C3F90122022104F1D80001F05A
:10412000BDF901232371A6602560204670BD000003
:104130002DE9F0412DED028BADF52A7D0446B0EE60
:10414000408A037913B30368084698470023237114
:1041500094F84C3013B194F84D301BB92621AF4878
:10416000FFF7BDF984ED038A94F84C3013B194F84D
:104170004D301BB92621A948FFF7B1F994ED030A88
:104180000DF52A7DBDEC028BBDE8F081F0EE608A72
:1041900090F8903013B190F891301BB926219F48C8
:1041A000FFF79DF9C4ED148A94F8D43013B194F854
:1041B000D5301BB926219948FFF791F984ED258A5E
:1041C000A16855A801F090F904F10C05294655A8FD
:1041D00001F054FA4426324655A966A804F00EF9B7
:1041E000A168314477A801F07FF904F1500177A864
:1041F00001F044FA324677A988A804F0FFF888A9AC
:1042000066A801F08FF9324666A999A804F0F6F87D
:1042100042273A4699A9284604F0F0F8A16855A823
:1042200001F062F9A16801F5887155A801F026FA3C
:10423000324655A966A804F0E1F8A16877A801F014
:104240002DFA77A966A801F019FA324666A988A85E
:1042500004F0D4F8A16801F5AA7188A801F062F908
:10426000324688A999A804F0C9F8A0683A4699A9E5
:1042700000F5887004F0C2F8A16801F588710DEBB3
:10428000060001F031F9A1688831684601F006FAAC
:1042900069460DEB060001F0F1F932460DEB06011F
:1042A00022A804F0ABF8A168883133A801F01CF90A
:1042B000A16801F5887133A801F0E0F9324633A90D
:1042C00044A804F09BF8A168883155A801F0E6F9EC
:1042D00055A944A801F0D2F9324644A966A804F0D1
:1042E0008DF8A16801F5CC7166A801F01BF9324682
:1042F00066A977A804F082F89DF81D229DF81C128B
:1043000088A801F0CBF888A977A801F08BFA0028DB
:1043100070D088A922A801F0B1F94426324622A91A
:1043200099A804F06BF804F1D8074FF04208424610
:1043300099A9384604F062F8394688A801F0D4F803
:1043400004F1940166A801F0CFF8A168883144A86F
:1043500001F0CAF8294644A801F090F9324644A970
:1043600055A804F04BF855A966A801F00BF93246A0
:1043700066A977A804F042F877A988A801F07EF929
:10438000324688A999A804F039F899A9284601F07D
:10439000C9F8A168CC3177A801F0A6F8394655A82C
:1043A00001F0A2F8A168883155A801F067F93246FA
:1043B00055A966A804F022F866A977A801F0E2F8EA
:1043C000324677A988A804F019F8A16801F5887128
:1043D00088A801F053F9324688A999A804F00EF88C
:1043E000A068424699A900F5887004F007F8BBE67A
:1043F0000130C0B29DF8603283428AD900239DF813
:1044000061229A42F4D903EB8002AAA901EB82024D
:10441000002142F8881C0133DBB2F0E7B0940008B9
:1044200010B504460022114601F038F8002211466A
:1044300004F1440001F032F80022114604F1880032
:1044400001F02CF80022114604F1CC0001F026F80E
:104450000022114604F5887001F020F80022114670
:1044600004F5AA7001F01AF80022114604F5CC7088
:1044700001F014F8204610BD012800D070474FF617
:10448000FF739942FAD12DE9F0412DED028B60487E
:1044900000238380C380038143818381C3810025FE
:1044A000056145618561C56105624562594C2246D9
:1044B000594901F047FC594845608560C560456130
:1044C0008561C5612246564901F03CFC55480560AE
:1044D000456085602246544901F034FC9FED538AC3
:1044E000534EB0EE480A304600F0BBFF514D224615
:1044F0002946304601F026FC4F4EB0EE480A3046C1
:1045000000F0AFFF22462946304601F01BFC4B4E1F
:10451000B0EE480A304600F0A4FF22462946304655
:1045200001F010FC464EB0EE480A304600F099FF0C
:1045300022462946304601F005FC424EB0EE480ABC
:10454000304600F08EFF22462946304601F0FAFB45
:104550003D4EB0EE480A304600F083FF2246294621
:10456000304601F0EFFB394EB0EE480A304600F01D
:1045700078FF22462946304601F0E4FB344EB0EE87
:10458000480A304600F06DFF22462946304601F0C9
:10459000D9FB304EB0EE480A304600F062FF2246AA
:1045A0002946304601F0CEFB2B4D2846FFF738FF59
:1045B00022462A49284601F0C5FB294FDFF8A8808A
:1045C0003A4629464046FFF791FD264E224631469F
:1045D000404601F0B7FBDFF894803A462946404652
:1045E000FFF784FD22463146404601F0ABFBDFF881
:1045F00080803A4629464046FFF778FD22463146FC
:10460000404601F09FFBBDEC028BBDE8F08100BF8E
:104610000C02002000000020E53D0008EC01002015
:10462000E73D00081C040020693600083333B33E20
:10463000C4070020E13D0008D0070020DC0700206F
:10464000A0070020AC070020B8070020600600206B
:104650006C0600207806002040020020E93D00089A
:10466000253E0008E33D00084405002084060020A4
:104670002804002010B584B0FFF7B8FB01AC4FF45C
:104680007A720649204600F0EBFD054B94E80700DE
:1046900083E80700002004B010BD00BF0C0200201A
:1046A0001C04002003680A6802600B607047000069
:1046B000F0B52DED0C8B93B004460F460023069306
:1046C0000793089303930493059303604360836007
:1046D000A34D284600F0B8FDA24E304600F056FC2F
:1046E000EB6900932B6A01936B6A0293694606A8F3
:1046F000FFF7D8FF01A907A8FFF7D4FF02A908A870
:10470000FFF7D0FF95ED049AD5ED058A95ED068A61
:10471000954BD3ED007A39EE679AD3ED017A78EEB6
:10472000E78AD3ED027A38EE678A73680093B3683C
:104730000193F3680293694603A8FFF7B3FF01A949
:1047400004A8FFF7AFFF02A905A8FFF7ABFF12A966
:10475000069B41F8243D854800F088FEB0EE40DA23
:1047600012A9079B41F8203D814800F07FFEF0EE42
:1047700040BA12A9089B41F81C3D7E4800F076FE25
:10478000F0EE409A12A919EE103A41F8183D7A4815
:1047900000F06CFEB0EE40AA12A918EE903A41F873
:1047A000143D764800F062FEF0EE40DA12A918EEF1
:1047B000103A41F8103D724800F058FEB0EE40BA91
:1047C00012A9039B41F80C3D6E4800F04FFEB0EE7D
:1047D000409A12A9049B41F8083D6B4800F046FE40
:1047E000F0EE408A12A9059B41F8043D674800F0AD
:1047F0003DFEB0EE408AF0EE690AB0EE6B0A01F0C1
:10480000BFFC10EE100AFBF7A7FE53A3D3E9002369
:10481000FBF7FAFEFCF7DAF93946F0EE4A0A00EE49
:10482000100A5B48FFF784FC10EE106A10EE100AC5
:10483000FBF792FE48A3D3E90023FCF70FF841EC05
:104840001A0B41EC100B01F0F3FB51EC100BFCF7D1
:10485000BDF90CEE900AB0EE4A0AF0EE6A0A01F0D9
:1048600087FB51EC100BFCF7B1F90CEE100A6BEE64
:10487000AC0A69EE8C9A70EEA90AB1EE4D0A01F00D
:104880007FFC10EE100AFBF767FE33A3D3E9002389
:10489000FBF7BAFEFCF79AF93946F0EE6D0A00EE26
:1048A000100A3C48FFF744FC10EE105A10EE100AB4
:1048B000FBF752FE28A3D3E90023FBF7CFFF41EC1F
:1048C0001A0B41EC100B01F0B3FB51EC100BFCF791
:1048D0007DF909EE900AB0EE4A0AF0EE6A0A01F09C
:1048E00047FB51EC100BFCF771F928EE2C0A68EE2F
:1048F0008C7A07EE100A29EE079A68EEAC8A68EE09
:10490000A98A79EE288A28EE0C8A28EE298A78EE80
:10491000880A30EE670A01F033FC10EE100AFBF74C
:104920001BFE0DA3D3E90023FBF76EFEFCF74EF947
:104930003946F0EE4B0A00EE100A1748FFF7F8FB75
:104940002660656084ED020A204613B0BDEC0C8B36
:10495000F0BD00BFAFF300806666666666A64C4099
:104960000C020020EC0100201C040020C4070020E1
:10497000D0070020DC070020A0070020AC070020A3
:10498000B8070020600600206C0600207806002092
:1049900044050020840600202804002008B54FF6B6
:1049A000FF710120FFF768FD08BD0000034B93FB7A
:1049B000F0F080B2013880B2704700BF00BD010541
:1049C00070B506460D4614464FF4FA50FFF7EEFF59
:1049D00000FB04F0064B83FB00230344C017C0EB2D
:1049E000E33033683433AD0880B243F8250070BD3E
:1049F0000180008008B50A46C1698069FFF7E0FFC1
:104A000008BD000000000000F8B5044610EE105A82
:104A10000068FBF7A1FD02460B460BA1D1E900019E
:104A2000FBF71CFF06460F462846FBF795FD02469E
:104A30000B4630463946FBF7E7FDFCF7A7F881B295
:104A40002046FFF7D7FFF8BD00000000E0FFEF4071
:104A500010B5044661B1012915D000228189806812
:104A6000FDF7F4FE0022A18A2069FDF7EFFE10BDDC
:104A7000012281898068FDF7E9FE0022A18A206970
:104A8000FDF7E4FEF3E7002281898068FDF7DEFE92
:104A90000122A18A2069FDF7D9FEE8E710B52DEDC6
:104AA000028B0446006890ED008AB4EEC08AF1EEF5
:104AB00010FA08D4B1EE488AB4EEC08AF1EE10FACA
:104AC00001DCB0EE408AD0ED017AB1EE677AB4EE47
:104AD000C87AF1EE10FA0FDCF4EEC87AF1EE10FAB3
:104AE00013D40221FFF7B4FF9FED0C0A2068FFF7F3
:104AF0008BFFBDEC028B10BD0021FFF7A9FFB0EECC
:104B0000C80A2068FFF780FFF3E70121FFF7A0FF45
:104B1000B0EEC80A2068FFF777FFEAE70000000060
:104B2000F8B50546046823681B68586A00B2FBF7AD
:104B300001FD14A3D3E90023FBF766FD0022104B0F
:104B4000FBF762FD06460F46A38803EB830358007C
:104B5000FBF7F0FC02460B4630463946FBF77EFE7B
:104B6000FCF734F8A86023681B685B6AAA881344C2
:104B7000AB8023681B6800225A62F8BDAFF3008047
:104B800000408F40182D4454FB21194090ED020A3B
:104B9000704700000000000010B5044680ED030AD5
:104BA00003689B8807EE903AF8EEE77A67EE807A22
:104BB00017EE900AFBF7D0FC05A3D3E90023FBF71F
:104BC0004DFEFBF7BBFFA08010BD00BFAFF3008020
:104BD000182D4454FB211940F8B50446B0F90430AF
:104BE00005682A681268506A03FA80F0FBF7A2FC95
:104BF00025A3D3E90023FBF707FD06460F46A88847
:104C0000FBF798FC02460B4630463946FBF726FE7A
:104C1000FBF7DCFFE060FBF79FFC06460F461AA39C
:104C2000D3E90023FBF780FF68B9E068FBF794FC49
:104C300006460F4616A3D3E90023FBF757FF88B9B2
:104C400094ED030AF8BD10A3D3E90023304639469A
:104C5000FBF722FBFBF7BAFF00EE100A2046FFF736
:104C60009BFFE2E708A3D3E9002330463946FBF770
:104C700015FBFBF7ABFF00EE100A2046FFF78CFF99
:104C8000DEE700BFAFF30080182D4454FB2119402C
:104C9000182D4454FB2119C00C4BD3ED007AF4EECF
:104CA000C07AF1EE10FA0AD4B0EE087A77EEC77A3D
:104CB000064BC3ED007A054B93ED000A7047B0EE4A
:104CC000087A77EE877AC3ED007AF4E7E8070020E8
:104CD00010B500F140042046FFF77EFFDFED427A79
:104CE000B4EEE70AF1EE10FA0DDB2046FFF774FF91
:104CF00010EE100AFBF730FC2FA3D3E90023FBF7DB
:104D0000FFFE00284ED12046FFF766FF10EE100A86
:104D1000FBF722FC2AA3D3E90023FBF7F1FE60B1E5
:104D20002046FFF759FF10EE100AFBF715FC26A3EB
:104D3000D3E90023FBF7EEFEB0BB2046FFF74CFFA4
:104D400010EE100AFBF708FC21A3D3E90023FBF7C0
:104D5000E1FE60B12046FFF73FFF10EE100AFBF7BF
:104D6000FBFB1DA3D3E90023FBF7CAFEF0B92046E5
:104D7000FFF732FFDFED1D7AB4EEE70AF1EE10FA2D
:104D800016D82046FFF728FF10EE100AFBF7E4FBC9
:104D900013A3D3E90023FBF7BDFE08B1012002E015
:104DA000022000E0002010BD0020FCE70120FAE70F
:104DB0000220F8E7AFF30080182D440CD10907401A
:104DC000182D449C253A0BC0182D4430E61518C008
:104DD000182D449C253A0B40182D4430E6151840F8
:104DE000182D440CD10907C0920A863E920A86BE4D
:104DF00038B52DED028B0546B0EE408AFFF768FF0F
:104E000000285BD105F14000FFF7E6FE01F070F9E4
:104E1000D5ED147A67EE807A67EE887A77EE887A35
:104E2000AB6B93ED000AB4EEE70AF1EE10FA52D53F
:104E30002846FFF731FFB0EE408A05F1140405F172
:104E40004000FFF7A3FE38EE400A94ED016A94EDAE
:104E5000027AD4ED037ADFED2D5AC7EEA56A76EE1D
:104E6000267A27EE257A37EE467A36EEA66A37EEB0
:104E7000467A60EE277A94ED076A27EE067A77EE97
:104E8000877A94ED087A66EE876A77EEA67A94EDD3
:104E9000067A77EE877AC4ED067A94ED047AF4EE1A
:104EA000C77AF1EE10FA19DC94ED057AF4EEC77AC0
:104EB000F1EE10FA14D584ED067A11E005F1400008
:104EC000FFF78AFE01F014F9D5ED157A60EE677AE6
:104ED00067EE887AA2E7B0EE670AA9E784ED067A62
:104EE00084ED086A84ED070A94ED068AB0EE480A5C
:104EF00005F13800FFF7D2FDB0EE480A05F13C009D
:104F0000FFF7CCFDBDEC028B38BD00BF0AD7233CB8
:104F100008B54030FFF740FE08BD08B54030FFF748
:104F2000FFFD08BD2DE9F04383B00646164C4FF057
:104F3000000884F8008078236370017C05270097BF
:104F4000022322460068FEF76BF805460123237012
:104F500060236370317C0097022322463068FEF79D
:104F60005FF881460223237084F801803068317C29
:104F700000972246FEF754F845EA0905EDB22843AA
:104F800040B203B0BDE8F083EC070020F0B583B079
:104F90000446224E03233370017C0527009701232A
:104FA00032460068FEF73CF80546217C0097062350
:104FB000721C2068FEF7F6F873781B021BB2B278F9
:104FC000134306EE903A73791B021BB2B279134376
:104FD00007EE103AF3781B021BB23279134307EE47
:104FE000903AF8EEE66A94ED056A76EEC66AB8EE97
:104FF000C77A94ED066A37EE467AF8EEE77A94EDD2
:10500000076A77EEC67AC4ED016A84ED027AC4EDD0
:10501000037A284340B203B0F0BD00BFEC07002084
:105020002DE9F04383B00546294C6B2323704FF0E4
:10503000000984F8019090F828100A2700970223AD
:1050400022460068FDF7ECFF0646192323706370C3
:1050500095F828100097022322462868FDF7E0FF04
:1050600080461A23237084F8019095F82810009741
:10507000022322462868FDF7D3FF1B23237095F8EF
:105080003130DB00637095F828104FF00509CDF83A
:105090000090022322462868FDF7C2FF07461C2322
:1050A000237095F83030DB006370286895F828107D
:1050B000CDF8009002232246FDF7B2FF46EA08062B
:1050C000F6B23E43F6B2304340B203B0BDE8F083DF
:1050D000F4070020F0B583B00546154C3B23237040
:1050E00090F8281005270097012322460068FDF755
:1050F00097FF064695F82810009706232246286851
:10510000FEF750F82178090209B263781943A278B2
:10511000120212B2E3781A4323791B021BB264799C
:1051200023436981AA81EB81304340B203B0F0BDD3
:10513000F4070020F0B583B00546154C43232370D7
:1051400090F8281005270097012322460068FDF7F4
:1051500067FF064695F82810009706232246286820
:10516000FEF720F82178090209B263781943A27882
:10517000120212B2E3781A4323791B021BB264793C
:105180002343A980EA802B81304340B203B0F0BDB5
:10519000F407002010B50446FFF79CFF94F8302078
:1051A000124B33F8123007EE903AF8EE677AB4F902
:1051B0000A3006EE103AB4F90C3006EE903AB4F923
:1051C0000E3007EE103AB8EEC66AC6EE275AF8EE71
:1051D000E66A86EEA76AB8EEC77AC7EE276AC4ED1C
:1051E000075A84ED086AC4ED096A10BDD894000816
:1051F00010B50446FFF79EFF94F83120114B03EBE6
:105200008203D3ED007AB4F9043006EE103AB4F913
:10521000063006EE903AB4F9083007EE103AB8EED0
:10522000C66AC6EE275AF8EEE66A86EEA76AB8EEB8
:10523000C77AC7EE276AC4ED045A84ED056AC4ED47
:10524000066A10BDC894000838B50546FFF7A2FFEE
:1052500004462846FFF7CCFF204340B238BD00008B
:10526000F0B52DED028B93B004460E461746002391
:105270000360436083600C930D930E939FED3B8A14
:10528000B0EE480A09A800F0ECF8B0EE480A06A80B
:1052900000F0E7F8B0EE480A03A800F0E2F80025B5
:1052A000BD425ED23046FFF7A3FF336900937369B6
:1052B0000193B369029369460CA8FFF7F3F901A9BA
:1052C0000DA8FFF7EFF902A90EA8FFF7EBF912A955
:1052D0000C9B41F80C3D09A800F0C8F8F0EE408A9C
:1052E00012A90D9B41F8083D06A800F0BFF8B0EEEA
:1052F000408A12A90E9B41F8043D03A800F0B6F8BD
:10530000CDED0C8A8DED0D8A8DED0E0A013507EE7F
:10531000905AB8EE677AF7EE006AC6EE877A94ED97
:10532000006A78EEC68AD4ED016A38EE668A94ED9A
:10533000027A30EE470A67EEA88A27EE888A67EE7F
:10534000807A78EE868AC4ED008A38EE268A84ED6B
:10535000018A77EE877AC4ED027A0120FDF744FBDB
:105360009EE7204613B0BDEC028BF0BD3333B33E55
:10537000012800D0704710B5064C23690133236122
:105380009FED050A2046FFF7C3FD2169034803F09E
:10539000F1F810BD54010020920A0640E094000884
:1053A00070B52DED028B0546B0EE408A00F108067F
:1053B0003046FFF773FB05F11C0405F10C00FFF705
:1053C000E5FB38EE400A94ED016A94ED027AD4EDE3
:1053D000037ADFED205AC7EEA56A76EE267A27EE2D
:1053E000257A37EE467A36EEA66A37EE467A60EED2
:1053F000277A94ED076A27EE067A77EE877A94ED9E
:10540000087A66EE876A77EEA67A94ED067A77EEEA
:10541000877AC4ED067A94ED047AF4EEC77AF1EE59
:1054200010FA09DC94ED057AF4EEC77AF1EE10FA81
:1054300004D584ED067A01E084ED067A84ED086AED
:1054400084ED070A94ED060A3046FFF727FBBDEC12
:10545000028B70BD0AD7233C08B50C30FFF760FB08
:1054600008BD80ED010A012202727047037A83B9F8
:1054700091ED007AD0ED007A77EE676A90ED017ACF
:1054800027EE267A77EE877AC0ED007A90ED000A53
:105490007047002303720B680360F7E770B504469A
:1054A0000D461646042901D8042A03D90F210D48B8
:1054B000FEF715F884F8405084F84160002101E0BF
:1054C0000131C9B203290BD80023032BF8D803EB11
:1054D000810204EB8202002010600133DBB2F4E7AA
:1054E000204670BDF894000830B491F8403080F840
:1054F000403091F8413080F84130002401E001341F
:10550000E4B2032C0CD80022032AF8D802EB84035F
:105510009B00CD182D6803441D600132D2B2F3E721
:1055200030BC704738B504460D46B1F84020B0F89D
:1055300040309A4201D1002006E034211048FDF7A6
:10554000CEFFF8E70130C0B294F84030834214D95E
:10555000002294F841309342F4D902EB80039B007F
:10556000E91891ED007A2344D3ED007A77EE877A3B
:10557000C3ED007A0132D2B2EBE7204638BD00BF5E
:10558000F894000838B504460D46B1F84020B0F84C
:1055900040309A4201D1002006E043211048FDF737
:1055A0009EFFF8E70130C0B294F84030834214D92E
:1055B000002294F841309342F4D902EB80039B001F
:1055C000E91891ED007A2344D3ED007A77EEC77A9B
:1055D000C3ED007A0132D2B2EBE7204638BD00BFFE
:1055E000F894000870B506460C46154691F841201F
:1055F00095F840309A4208D195F8412094F840102F
:105600003046FFF74BFF00202CE063211948FDF7DF
:1056100066FFF1E701EB800306EB830383ED007A7D
:105620000131C9B295F841308B4219D900239FED61
:10563000127A94F841209A42ECD903EB800204EBF1
:105640008202D2ED007A01EB830205EB8202D2EDF9
:10565000006A67EEA67A37EE277A0133DBB2E8E715
:105660000130C0B294F84030834201D90021D9E71B
:10567000304670BDF89400080000000010B592B0EC
:1056800004460A46014601A8FFF7ACFF422201A9E1
:10569000204602F0B3FE204612B010BD38B50546D4
:1056A0000C4691F8402091F84110FFF7F7FE0021D9
:1056B00001E00131C9B294F840308B4211D9002386
:1056C00094F841209A42F4D901EB830204EB820260
:1056D000106803EB810205EB820210600133DBB23C
:1056E000EEE7284638BD38B504460D460A46FFF7B2
:1056F000D5FE002001E00130C0B294F84030834272
:105700000DD9002394F841209A42F4D903EB80028A
:1057100004EB8202002111600133DBB2F2E70023C7
:10572000AB4209D203EB83018A0022444FF07E5141
:1057300011600133DBB2F3E7204638BDF8B504460B
:105740000D46164690F840308B4201D3934203D267
:10575000A5210D48FDF7C3FEB54213D0002394F8F0
:1057600041209A420ED903EB850104EB81010868C0
:1057700003EB860204EB820217680F6010600133AE
:10578000DBB2ECE7F8BD00BFF8940008F8B50446BA
:105790000D46164690F841308B4201D3934203D216
:1057A000B5210C48FDF79BFEB54211D0002194F8BD
:1057B00040308B420CD98B005A1904EB82021068DE
:1057C000334404EB83031F68176018600131EEE770
:1057D000F8BD00BFF894000803780A7802700B70D7
:1057E0007047F8B506460F4640314030FFF7F4FFEA
:1057F00007F1410106F14100FFF7EEFF002501E04E
:105800000135EDB2032D0CD80024032CF8D804EB9D
:105810008500800039183044FEF744FF0134E4B2BB
:10582000F3E7F8BD2DE9F04F2DED028BC9B08246AC
:10583000039190F8403090F84120934203D191F8C1
:105840004020934214D0C821CC48FDF748FE9AF876
:10585000401037A8FFF747FF514626A8FFF744FE40
:105860009AF8401015A8FFF73EFF0023019306E0C9
:1058700091F841309342E6D1E9E7029B01939AF80F
:105880004030019A934240F210815FFA82F99DF80C
:10589000D830994503D29DF8D930994503D32621B4
:1058A000B748FDF71CFE9DF8046006EB86029300E6
:1058B00048AA134453ED227AF0EEE77A9FEDB17ACD
:1058C000F4EEC77AF1EE10FA21D49DF8D83099455C
:1058D00003D29DF8D930994503D32621A848FDF776
:1058E000FEFD06EB8602930048AA134453ED227A8C
:1058F000F0EEE77A9FEDA37AF4EEC77AF1EE10FAB4
:1059000000F11382019B01330293009386E0019B17
:105910005C1C15E026219A48FDF7E1FDE3B206EB99
:10592000830348AA02EB830353ED227AF0EEE77A71
:105930009FED947AF4EEC77AF1EE10FA0EDC0134A2
:105940009AF84030A342C0D9E5B29DF8D8309D42C4
:10595000E0D29DF8D9309945E0D3DBE74A462946A5
:1059600026A8FFF7EBFE4A46294615A8FFF7E6FEF4
:105970004A46294637A8FFF7E1FE019A214637A893
:10598000FFF704FFA1E726217D48FDF7A8FD04EB02
:10599000870448AB03EB840454ED227A37EEC88ABF
:1059A00004ED228A01359AF84030AB4233D99DF894
:1059B0001C31984503D29DF81D31994503D326210A
:1059C0006F48FDF78CFD06EB870348AA02EB8303C3
:1059D00013ED118A5FFA85FB9DF8D830994503D203
:1059E0009DF8D9309B4503D326216548FDF777FD07
:1059F000ECB204EB860348AA02EB830353ED227A50
:105A000028EE278A9DF8D8309845BCD29DF8D93029
:105A10009B45BCD3B7E7009B013300939AF8403015
:105A2000009A93427FF629AF5FFA82F89DF8D8304A
:105A3000984503D29DF8D930994503D32621504883
:105A4000FDF74DFD9DF8007006EB870348AA02EBB9
:105A5000830353ED228A9DF8D830994503D29DF8EF
:105A6000D930994503D326214548FDF738FD06EB8B
:105A70008602930048AA134413ED228A9DF81C3134
:105A8000984503D29DF81D31994503D326213C4802
:105A9000FDF725FDC8EE887A06EB870348AA02EBDE
:105AA000830343ED117A019D7DE700239B46CDF8EA
:105AB00000A056E026213248FDF711FD04EB8804D2
:105AC00048AB03EB840454ED337A37EEC88A04ED17
:105AD000338A0136B7423AD95FFA87F9F4B29DF8B2
