:020000040800F2
:10000000200800209D010008072E0008C5280008D0
:10001000052E00087D040008E137000800000000FC
:100020000000000000000000000000002B2E00086F
:100030001505000800000000292E00082D2E0008DC
:10004000B7010008B7010008B7010008B7010008B0
:10005000B7010008B7010008B7010008350500081E
:10006000B70100083B050008B7010008B701000808
:1000700081040008B70100088D040008B7010008DA
:10008000B7010008B7010008B7010008B701000870
:10009000B7010008B7010008B701000841050008D2
:1000A000B7010008B7010008B7010008B701000850
:1000B000B7010008B7010008B7010008B701000840
:1000C000B7010008B7010008B7010008B701000830
:1000D000B7010008B7010008B7010008D5370008CC
:1000E00017050008B7010008B7010008B7010008AC
:1000F000B7010008B7010008B7010008B701000800
:10010000B7010008B7010008B7010008B7010008EF
:10011000B7010008B7010008B7010008B7010008DF
:10012000B7010008B7010008B7010008B7010008CF
:10013000B7010008B7010008B7010008B7010008BF
:10014000B7010008B7010008B7010008B7010008AF
:10015000B7010008B7010008B7010008B70100089F
:10016000B7010008B7010008B7010008B70100088F
:10017000B7010008B7010008B7010008000000003F
:10018000B7010008B7010008DFF80CD000F064F9EF
:100190000048004731390008200800200648804701
:1001A00006480047FEE7FEE7FEE7FEE7FEE7FEE75C
:1001B000FEE7FEE7FEE7FEE7DD2E00088901000806
:1001C0002DE9F05F0546002092469B46884606468C
:1001D000814640241BE0284641464746224600F01F
:1001E000CDF853465A46C01A914110D311461846CD
:1001F000224600F0B4F82D1A67EB01084F4622465C
:100200000120002100F0ABF817EB00094E41201E41
:10021000A4F10104DFDC484631462A464346BDE8E6
:10022000F09F2DE9FE4F81EA030404F0004421F021
:10023000004100944FF0000B23F0004350EA01040A
:100240005ED052EA03045BD0C3F30A54C1F30A55EB
:100250002C44A4F2F3340194A0FB0254C1F3130123
:1002600041F48011C3F3130343F4801301FB0244F0
:1002700000FB034E840A970A44EA815447EA8357F5
:10028000A4FB076802958D0A05FB07854FEA932CAE
:1002900004FB0C542705029D4FEA065847EA16371F
:1002A000B5EB08056EEB070C870E920E47EA811737
:1002B00042EA8312A7FB0201B6EB0B0164EB0004D8
:1002C0002B0D43EA0C335E1844EB1C50DA465146C2
:1002D000E7FB0201C5F313044FEA0B3343EA14535F
:1002E0004FEA0432019C43EA0603A4F10C04029491
:1002F000009CCDE900B400F060F803B0BDE8F08FD9
:1003000000200146F9E7C1F30A5210B5C1F3130109
:1003100040F2FF3341F480119A4201DA002010BD0F
:1003200040F233439A42A2F2334203DC524200F0DD
:1003300025F810BD904010BD00F0004230F00040A4
:100340000AD0C10D01F56071C0F3160042EA0151F7
:10035000C208400711437047002001467047202A19
:1003600004DB203A00FA02F1002070479140C2F10C
:10037000200320FA03F3194390407047202A04DB3E
:10038000203A21FA02F00021704721FA02F3D0400E
:10039000C2F12002914008431946704710B5141E5F
:1003A00073F1000408DA401C41F1000192185B412E
:1003B0001A4301D120F0010010BD2DE9F04D924605
:1003C0009B4611B1B1FA81F202E0B0FA80F220321C
:1003D0009046FFF7C4FF04460F4640EA0A0041EA90
:1003E0000B0153465A46084313D0114653EA010005
:1003F00019D0C8F140025046FFF7C0FF05460E462F
:10040000504659464246FFF7AAFF084305D001204F
:1004100004E020463946BDE8F08D0020054346EA59
:10042000E0762C4337430A986305E40AA0EB080002
:100430000022FD0A44EA47540A3002D50020014652
:10044000E9E7010510196941DDE90845001969412D
:10045000BDE8F04DA2E70000064C074D06E0E0685D
:1004600040F0010394E8070098471034AC42F6D3FB
:10047000FFF78EFEDC3C0008FC3C0008FEE70000B5
:10048000014800F07DB800005C030020014800F046
:1004900077B80000BC03002001681823CAB2103AE4
:1004A000B2FBF3F2054B6FF30901032A9B5CC365B2
:1004B00000D9091D8165084670470000BC3C000852
:1004C00010B5014600208B698A6A4FF0C07453B1A1
:1004D000B3F5005F15D072B1012A0CD0022A0AD000
:1004E000032A09D104E01AB1012A06D0022A03D155
:1004F000C96AC90100D5012010BDC96AA142FAD05C
:1005000010BD002AF7D0012AF2D0022AF3D0032A24
:10051000F3D010BD704710B54FF4005000F0F8FA5A
:100520004FF4804000F0F4FABDE810404FF4004072
:1005300000F0EEBA022000F0EBBA082000F0E8BAB2
:1005400010B5202000F0E4FA802000F0E1FABDE8C8
:1005500010404FF4007000F0DBBA90F8351002291B
:1005600003D08021416501207047052180F83510B6
:100570000068016821F0010101600020704700005F
:100580002DE9F84304464FF00009CDF80090634888
:100590004FF41651A56D0068B0FBF1F72E6894F882
:1005A0005C10082000FA01F131420FD021680A687E
:1005B00052070BD50A6822F004020A6094F85C1016
:1005C0008840A860606D40F00100606594F85C10A0
:1005D0004FF0010808FA01F0304208D0216849695B
:1005E000090604D5A860606D40F00200606594F8CB
:1005F0005C1004208840304208D0216809688907CF
:1006000004D5A860606D40F00400606594F85C104B
:1006100010208840304218D021680968090714D595
:10062000A86020680168490304D50068000308D564
:10063000A16C07E00168C90503D4016821F0080135
:100640000160216C09B12046884794F85C10202095
:100650008840304231D021680968C9062DD5A8608C
:1006600094F8350005282068016806D0490347D56D
:10067000006800031DD4616C1CE021F016010160CC
:100680002068416921F080014161206C08B9A06CAB
:1006900020B12068016821F00801016094F85C1025
:1006A0003F208840A86084F8349084F83580216D1C
:1006B0001FE0E16B09B120468847606D00282BD010
:1006C000606DC00714D0052084F8350020680168EB
:1006D00021F0010101600098401C0090B84203D84D
:1006E00020680068C007F6D184F8349084F835801B
:1006F000E16C002910D001B02046BDE8F043084766
:100700000168C905D5D4016821F01001016084F8A1
:10071000349084F83580CCE7BDE8F88318000020D9
:100720002DE9F041044600F0BBFB0546002C7CD0CF
:10073000A249206888423ED0A049183188423AD068
:100740009E493031884236D09C494831884232D067
:100750009A49603188422ED09849783188422AD00F
:1007600096499031884226D09449A831884222D0B7
:10077000934988421FD09249183188421BD0904932
:100780003031884217D08E494831884213D08C4985
:10079000603188420FD08A49783188420BD088492D
:1007A0009031884207D08649A831884203D0C821B9
:1007B00084A003F03FF86068C0B1B0F1007F15D0AD
:1007C000B0F1806F12D0B0F1C06F0FD0B0F1006FF8
:1007D0000CD0B0F1206F09D0B0F1406F06D0B0F16D
:1007E000606F03D0C92177A003F024F8A06838B166
:1007F000402805D0802803D0CA2172A003F01AF83F
:10080000E068B0F5007F04D018B1CB216DA003F0F3
:1008100011F82069B0F5806F04D018B1CC2169A01F
:1008200003F008F8606958B100E071E0B0F5006FBE
:1008300006D0B0F5805F03D0CD2162A002F0FAFFB0
:10084000A06948B1B0F5005F06D0B0F5804F03D085
:10085000CE215CA002F0EEFFE06940B1B0F5807FF0
:1008600005D0202803D0CF2156A002F0E3FF206A54
:1008700060B1B0F5803F09D0B0F5003F06D0B0F5CB
:10088000403F03D0D0214FA002F0D4FF606A00287F
:1008900032D0042806D0D1214AA002F0CBFF606AF2
:1008A000002829D0A06A48B1012807D0022805D025
:1008B000032803D0D62143A002F0BCFFE06A60B158
:1008C000B0F5000F09D0B0F1807F06D0B0F1C07F45
:1008D00003D0D7213BA002F0ADFF206B60B1B0F593
:1008E000001F09D0B0F5800F06D0B0F5C00F03D0BF
:1008F000D82134A002F09EFF002684F83460022044
:1009000084F835002068016821F0010101600EE0E3
:100910000120BDE8F08100BF00F0C2FA401B0528AD
:1009200005D920206065032084F83500F1E72068B0
:100930000068C007F0D12268116830480140D4E94E
:1009400001031843D4E903352B4318436369184363
:10095000A3691843E3691843236A18430843616A8B
:10096000042903D1D4E90B1319430843106020680C
:100970004069656A20F0070128460D4301270428D5
:100980000CD1A06A0543E06A40B12046FFF798FD0C
:1009900020B14020606584F83570B9E72068456172
:1009A0002046FFF779FD94F85C203F21914081605B
:1009B000666584F835700020ABE7000010600240E7
:1009C000106402402E2E2F447269766572732F5385
:1009D000544D3332463478785F48414C5F447269F5
:1009E0007665722F5372632F73746D333266347869
:1009F000785F68616C5F646D612E63003F8010F00A
:100A000070B5044600F04CFA0546601C02D004485C
:100A10000078044400F044FA401BA042FAD370BDB1
:100A20000C0000202DE9F041264C05462DED028BEF
:100A30000127208F244E9FED258AA8420AD124A0A9
:100A400002F0D0FE307820B9B0EE480A204603F01C
:100A5000DBF86770B4F87400A8420CD120A002F053
:100A6000C1FE307828B91748B0EE480A3C3003F090
:100A7000CBF884F83D70B4F8B000A8420CD11CA0AB
:100A800002F0B0FE307828B90E48B0EE480A78304F
:100A900003F0BAF884F87970B4F8EC00A8420CD1ED
:100AA00017A002F09FFE307828B90648B0EE480A39
:100AB000B43003F0A9F884F8B570BDEC028BBDE842
:100AC000F08100002000002008000020000000004D
:100AD000486F6D653A206D6F746F722031200A0087
:100AE000486F6D653A206D6F746F722032200A0076
:100AF000486F6D653A206D6F746F722033200A0065
:100B0000486F6D653A206D6F746F722034200A0053
:100B1000044910B50A68024202D00860FFF782FF5C
:100B200010BD0000143C01402DE9F84F0446A048D8
:100B30000D4684421BD09F48844218D09E48844270
:100B400015D09E48844212D09D4884420FD09D48C3
:100B500084420CD09C48844209D09C48844206D0F0
:100B60009B48844203D0C3219AA002F063FE286808
:100B70000104090C01D0000C03D0C42195A002F09F
:100B800059FE6868F8B101281DD011281BD0022831
:100B900019D0122817D09E49884214D09D49884206
:100BA00011D09D4988420ED09C4988420BD09C4967
:100BB000884208D09B49884205D0032803D0C5212C
:100BC00084A002F037FEA86838B1012805D00228B9
:100BD00003D0C6217FA002F02DFE00264FF0010BAE
:100BE0000BFA06F02F688246074057457ED16868A9
:100BF000022801D012282ED12869F8B109281DD069
:100C000001281BD0022819D0032817D0042815D09A
:100C1000052813D0062811D007280FD008280DD09A
:100C20000A280BD00B2809D00C2807D00D2805D096
:100C30000F2803D0D72167A002F0FCFDF00804EBD9
:100C40008002106A7107CB0E0F21994088432969F1
:100C500099400143116220687200032101FA02F8F1
:100C60002979914601F0030120EA080001FA09F10F
:100C7000014321606868012805D0022803D01128AB
:100C800001D012281CD1E86848B1012807D00228F9
:100C900005D0032803D0EA214EA002F0CBFDA068C6
:100CA000E96820EA080001FA09F10143A1606068DF
:100CB000297920EA0A00C1F30011B14001436160C3
:100CC000E068A96820EA080001FA09F10143E1603F
:100CD0006868C00065D55448016841F480410160EE
:100CE000006826F0030100F4804000E059E0009025
:100CF0004E480A18D2F80808B1070B0F0F21994087
:100D000088432B498C4201D1002123E029498C42A0
:100D100001D101211EE028498C4201D1022119E0B4
:100D200026498C4201D1032114E025498C4201D18E
:100D300004210FE023498C4201D105210AE0224918
:100D40008C4201D1062105E020498C4201D10721C6
:100D500000E0082199400143C2F8081834490868A6
:100D60006A68B843D20300D5384308603049091D8A
:100D700008686A68B843920300D5384308602C4974
:100D8000083108686A68B843D20200D53843086061
:100D900027490C3108686A68B843920200D5384385
:100DA0000860761C102EFFF41BAFBDE8F88F000022
:100DB000000002400004024000080240000C024013
:100DC000001002400014024000180240001C0240C3
:100DD000002002402E2E2F447269766572732F53C5
:100DE000544D3332463478785F48414C5F447269E1
:100DF0007665722F5372632F73746D333266347855
:100E0000785F68616C5F6770696F2E630000000037
:100E1000000011100000211000003110000012101D
:100E2000000022100000321044380240003001401F
:100E3000003C014070B515460C00064604D140F256
:100E4000AF1108A002F0F6FC45B1012D04D04FF41B
:100E5000D87104A002F0EEFCB46170BD2004B06152
:100E600070BD00002E2E2F447269766572732F5369
:100E7000544D3332463478785F48414C5F44726950
:100E80007665722F5372632F73746D3332663478C4
:100E9000785F68616C5F6770696F2E6300000000A7
:100EA00001488068704700000C00002002488168FB
:100EB00002781144816070470C0000200B4810B587
:100EC000016841F400710160016841F480610160D2
:100ED000016841F480710160032000F0EBF800200C
:100EE00000F006F800F024F8002010BD003C02409D
:100EF00070B50D4D04464FF47A712878B1FBF0F0CF
:100F00000A490968B1FBF0F000F0F3FC48B9102C75
:100F100007D200222146501E00F07CF800206C60B1
:100F200070BD012070BD00000C00002018000020E2
:100F30001F4808B5016841F480410160006800F471
:100F4000804000901A48001F016841F08051016004
:100F5000006800F080500090032000F0ABF8002201
:100F600011466FF00B0000F055F8002211466FF0AB
:100F70000A0000F04FF8002211466FF0090000F05F
:100F800049F800221146501F00F044F80022114693
:100F9000101F00F03FF800221146901E00F03AF8B2
:100FA0000022BDE808401146501E00F033B8000092
:100FB0004438024010B5040003D5CE2106A002F04B
:100FC00039FC04F01F01012088406109890001F10A
:100FD000E021C1F8000110BD2E2E2F447269766504
:100FE00072732F53544D3332463478785F48414CF6
:100FF0005F4472697665722F5372632F73746D3319
:1010000032663478785F68616C5F636F727465789C
:101010002E63000070B515460C460646102A03D311
:10102000BA2114A002F006FC102C03D3BB2111A09E
:1010300002F000FC1E480068C0F30223C3F107025F
:101040002046042A00D90422191D072901D20023B1
:1010500000E0DB1E012404FA02F1491E0140994020
:101060009C40641E2C4021433046BDE8704001F096
:10107000CBBE00002E2E2F447269766572732F53FB
:10108000544D3332463478785F48414C5F4472693E
:101090007665722F5372632F73746D3332663478B2
:1010A000785F68616C5F636F727465782E630000AF
:1010B0000CED00E010B5044607280BD0062C09D033
:1010C000052C07D0042C05D0032C03D0A22108A0A6
:1010D00002F0B0FB154904F0070208684FF6FF0361
:1010E000184040EA0220124A1043086010BD000078
:1010F0002E2E2F447269766572732F53544D3332FE
:10110000463478785F48414C5F4472697665722F47
:101110005372632F73746D3332663478785F68610D
:101120006C5F636F727465782E6300000CED00E0F5
:101130000000FA052DE9F0470E4604007DD0206836
:10114000401E0E2804D94FF414717AA002F072FBED
:1011500096B1012E10D0022E0ED0032E0CD0042EEC
:101160000AD0052E08D0062E06D0072E04D040F255
:10117000512170A002F05EFBDFF8F081D8F800008A
:10118000F7B200F00F00B04207D288F80070D8F82C
:10119000000000F00F00B0424FD12068744D81076D
:1011A00029D5400703D5286840F4E050286020780E
:1011B000000703D5286840F460402860A068A0B10B
:1011C000802812D0902810D0A0280ED0B0280CD0A3
:1011D000C0280AD0D02808D0E02806D0F02804D0B3
:1011E0004FF41D7153A002F025FB2868A16820F080
:1011F000F000084328602078C00743D0DFF87091E2
:101200006068A9F1080988B1012822D0022824D0F9
:10121000032822D040F27B2146A002F00BFB60683D
:10122000012816D0022818D0032816D0D9F80000BB
:101230008007002833DA286800E030E0616820F099
:10124000030008432860FFF72BFE814641F2883AED
:1012500011E0D9F800008003EBE7D9F80000800125
:10126000E7E700BFFFF71CFEA0EB0901514502D9DB
:101270000320BDE8F0872868616800F00C00B0EB3F
:10128000810FEFD1D8F80010404601F00F01B142B4
:1012900007D90770006800F00F00B04201D00120AC
:1012A000E7E720784FF4805640074FF4A0574FF4FB
:1012B000C0584FF4E05914D5E06860B1B0420AD08C
:1012C000B84208D0404506D0484504D040F2B92184
:1012D00018A002F0AFFA2868E16820F4E050084353
:1012E00028602078000715D5206960B1B0420AD087
:1012F000B84208D0404506D0484504D04FF430717C
:101300000CA002F097FA2868216920F4604040EAB6
:10131000C100286000F058F82968164AC1F303118B
:10132000515CC840144908600020FFF7E1FD00202F
:101330009FE700002E2E2F447269766572732F533B
:10134000544D3332463478785F48414C5F4472697B
:101350007665722F5372632F73746D3332663478EF
:10136000785F68616C5F7263632E6300003C0240CB
:1013700008380240C43C00081800002001480068FA
:1013800070470000180000200448054900680968FB
:10139000044AC1F38221515CC84070471800002004
:1013A00008380240D43C0008044805490068096830
:1013B000044AC1F34231515CC84070471800002014
:1013C00008380240D43C0008154810B5006810F0F9
:1013D0000C02144813D01449042A0FD0082A0ED145
:1013E0000F4C241F2268236802F03F025B0207D5DE
:1013F0002068C0F38810A0FB010106E0084610BD7C
:101400002168C1F38811A1FB00010023FEF7D8FE7B
:101410002168C1F30141491C4900B0FBF1F010BD46
:10142000083802400024F40040787D012DE9F84F8F
:1014300004007DD020680F2803D9F821F2A002F023
:10144000F9F92078DFF8F8B3FE4DC00756D0606890
:101450004FF480364FF4A02738B1B04205D0B842DF
:1014600003D0FD21E8A002F0E5F9DBF800105846B2
:10147000C1F38101012909D00068C0F3810002286D
:101480000BD1EF48001F0068400206D52868800392
:1014900034D560680028CCD030E06068B04203D119
:1014A000286840F480300CE0B842286803D140F44A
:1014B00080202860F4E720F480302860286820F439
:1014C00080202860606860B1FFF7EAFC064604E00F
:1014D000FFF7E6FC801B64287ED828688003F7D5D8
:1014E0000CE0FFF7DDFC064605E000BFFFF7D8FC87
:1014F000801B6428F0D828688003F7D42078DFF8B0
:10150000488380074FF0000956D5E06830B10128C4
:1015100004D040F22F11BCA002F08CF920691F28E2
:1015200004D94FF49871B8A002F084F9584600E04D
:1015300092E0DBF8001011F00C0F09D00068C0F346
:101540008100022811D1BE48001F006840020CD45F
:101550002868800702D5E06801287DD128682169C4
:1015600020F0F80040EAC10016E0E068B0B10120C8
:10157000C8F80000FFF794FC064604E0FFF790FC73
:10158000801B0228A8D828688007F7D5286820F093
:10159000F801206941EAC00028600DE0C8F8009019
:1015A000FFF77EFC064604E0FFF77AFC801B02286A
:1015B00092D828688007F7D4207800072ED5A04E4F
:1015C000A24F60696C36D0B1012808D04FF4B871D1
:1015D0008DA002F02FF900E04DE1606978B10120A3
:1015E0003860FFF75DFC074605E000BFFFF758FCD9
:1015F000C01B0228C6D830688007F7D50EE0C7F8B0
:101600000090FFF74DFC074605E000BFFFF748FCE0
:10161000C01B0228B6D830688007F7D4207840076E
:1016200076D5A068002740B1012806D0052804D04F
:101630004FF4CE7174A002F0FDF8DFF804A20AF1B5
:10164000380ADAF80000C0000DD4DAF8001041F0D2
:101650008051CAF8001000E0D4E0DAF80000012759
:1016600000F0805000907A4E3068C00511D4306888
:1016700040F480703060FFF713FC009006E000BF7C
:10168000FFF70EFC0099401A022891D83068C00577
:10169000F6D56B4EA068683601280FD00528306853
:1016A00010D020F001003060306820F0040030607D
:1016B000A068B8B1FFF7F4FB00900FE0306840F08D
:1016C0000100F4E740F004003060F7E7FFF7E8FBC3
:1016D0000099411A41F2883081428BD830688007E6
:1016E000F4D50EE0FFF7DCFB009007E0FFF7D8FB36
:1016F0000099411A41F2883081428BD830688007C6
:10170000F4D42FB1DAF8001021F08051CAF800109B
:10171000A069002875D0012809D0022807D040F21E
:10172000DF1139A002F086F8A0690028F2D0DBF8BA
:101730000000C0F38100022864D0A069022805D00F
:10174000C8F86090FFF7ACFB044697E0E06938B159
:10175000B0F5800F04D04FF4F4712BA002F06AF8BA
:10176000206A3F2804D940F2E91127A002F062F86C
:10177000606A3238B0F5BF7F04D94FF4F57122A00A
:1017800002F058F8A06A02280AD0042808D00628D7
:1017900006D0082804D040F2EB111BA002F04AF852
:1017A000E06A801E0D2804D94FF4F67116A002F0ED
:1017B00041F84746C8F86090FFF772FB064604E020
:1017C000FFF76EFB801B022855D828688001F7D4EC
:1017D000D4E907010843A16A1E4A490802EB014106
:1017E000626A41EA8211084394F82C1040EA0161D0
:1017F0001348001F016001203866FFF751FB0446C3
:101800002FE03EE03FE000002E2E2F447269766507
:1018100072732F53544D3332463478785F48414CBD
:101820005F4472697665722F5372632F73746D33E0
:1018300032663478785F68616C5F7263632E630030
:10184000083802400038024000004742800E4742FC
:10185000007000400000FFFFFFF722FB001B022882
:1018600009D828688001F7D50BE000BFFFF718FB07
:10187000001B022802D90320BDE8F88F28688001E8
:10188000F4D40020F8E70120F6E7000010B54FF08F
:10189000E024042809D020B140F2D91105A001F0BC
:1018A000C9FF206920F0040002E0206940F0040034
:1018B000206110BD2E2E2F447269766572732F53EE
:1018C000544D3332463478785F48414C5F447269F6
:1018D0007665722F5372632F73746D33326634786A
:1018E000785F68616C5F636F727465782E63000067
:1018F000704710B5401EB0F1807F01D3012010BDAC
:101900004FF0E02460610F21601701F07DFA0020A4
:10191000A06107202061002010BD10B5FFF7E8FF8F
:1019200010BD000070B50C4605460068404988426D
:1019300007D04049884204D040F272613EA001F0D5
:1019400079FF2068B0F5006F05D020B140F27361D7
:1019500039A001F06FFF6068B0F5806F05D020B14D
:1019600040F2746134A001F065FFA06868B1B0F581
:10197000807F0AD0B0F5007F07D0B0F5407F04D05B
:1019800040F275612CA001F055FFE068FF2804D9F2
:1019900040F2766128A001F04DFF2069B0F5805F2C
:1019A00005D020B140F2776123A001F043FF6069C8
:1019B00038B1B0F5005F04D04FF4CF611EA001F044
:1019C00039FFA069B0F5804F05D020B140F27961B0
:1019D00019A001F02FFF95F83800012825D001202B
:1019E00085F83800E068A26820F44070104362680F
:1019F00020F480601043226820F4006010432269C4
:101A000020F480501043626920F400501043A26912
:101A100020F480401043002120F4004010432A6845
:101A2000506485F83810002070BD022070BD0000A1
:101A300000000140000401402E2E2F44726976659B
:101A400072732F53544D3332463478785F48414C8B
:101A50005F4472697665722F5372632F73746D33AE
:101A600032663478785F68616C5F74696D5F657841
:101A70002E63000070B50D46044600683049884268
:101A800019D0B0F1804F16D02E49884213D02E497C
:101A9000884210D02D4988420DD02D4988420AD065
:101AA0002C49884207D02C49884204D040F24A6130
:101AB0002AA001F0BFFE286890B1102810D020287D
:101AC0000ED030280CD040280AD0502808D06028EA
:101AD00006D0702804D040F24B6120A001F0AAFE8D
:101AE0006868802805D020B140F24C611BA001F04D
:101AF000A1FE94F8380001281FD0012084F8380096
:101B0000022184F8391021684A6822F070024A6084
:101B100021684A682B681A434A6021688A6822F063
:101B200080028A6021688A686B681A438A6084F838
:101B30003900002084F8380070BD022070BD00001C
:101B4000000001400004004000080040000C00407C
:101B50000010004000140040000401402E2E2F44CD
:101B60007269766572732F53544D333246347878E8
:101B70005F48414C5F4472697665722F5372632FE0
:101B800073746D3332663478785F68616C5F746942
:101B90006D5F65782E63000010B5044601681E482D
:101BA00081422BD0B1F1804F28D01C48814225D0F2
:101BB0001B48814222D01B4881421FD01A488142D3
:101BC0001CD01A48814219D01948814216D01948B0
:101BD000814213D01848814210D0184881420DD05C
:101BE000174881420AD01748814207D016488142DF
:101BF00004D04FF4997115A001F01CFE022084F866
:101C000039002068016841F001010160012084F879
:101C10003900002010BD0000000001400004004019
:101C200000080040000C004000100040001400407C
:101C300000040140004001400044014000480140D0
:101C400000180040001C0040002000402E2E2F44B1
:101C50007269766572732F53544D333246347878F7
:101C60005F48414C5F4472697665722F5372632FEF
:101C700073746D3332663478785F68616C5F746951
:101C80006D2E63002DE9F0410C4605007DD06549BD
:101C90002868884219D0B0F1804F16D06249884236
:101CA00013D06249884210D0614988420DD0614901
:101CB00088420AD06049884207D06049884204D0EF
:101CC00040F6FA015EA001F0B5FD2068012808D0B9
:101CD000022806D0032804D040F6FB0158A001F0EA
:101CE000A9FDA068012808D0022806D0032804D046
:101CF00040F6FC0152A001F09DFDA069012808D02A
:101D0000022806D0032804D040F6FD014CA001F0C3
:101D100091FD606840B1022806D00A2804D040F640
:101D2000FE0147A001F086FD606940B1022806D09F
:101D30000A2804D040F6FF0141A001F07BFDE068D5
:101D400050B1042808D0082806D00C2804D04FF43D
:101D500010613BA001F06EFDE06950B1042808D08D
:101D6000082806D00C2804D040F6011134A001F058
:101D700061FD20690F2804D940F6021130A001F05E
:101D800059FD206A0F2806D900E008E040F603114B
:101D90002BA001F04FFD95F8390018B108E00120A3
:101DA000BDE8F081002085F83800284600F064F88E
:101DB000022085F839002868816821F007018160D8
:101DC000291D286801F0B4F82A6890689169166A9C
:101DD0002368A769034340F20330814341EA0721A6
:101DE000A068E76908434FF6FC418843E16840EA90
:101DF000072001432069276A000140EA07300843B1
:101E00006168646926F0AA0646EA041421439360D7
:101E10002A68906128680162012085F83900002055
:101E2000BEE7000000000140000400400008004040
:101E3000000C004000040140004001400018004038
:101E40002E2E2F447269766572732F53544D3332A0
:101E5000463478785F48414C5F4472697665722FEA
:101E60005372632F73746D3332663478785F6861B0
:101E70006C5F74696D2E630070B502682948022397
:101E80000124032586B0824210D12748016841F021
:101E9000010101600068694600F0010005904FF4FF
:101EA00020608DE839002148049423E01E49204831
:101EB000091FB2F1804F10D01E4EB2421ED10A68E7
:101EC00042F002020A60096801F002010591C02196
:101ED0008DE83A00049369460CE00A6842F001027A
:101EE0000A60096801F00101059122218DE83A009C
:101EF0000494F0E7FEF718FE06B070BD0E4882426B
:101F0000FAD1086840F0040008600868694600F0EB
:101F1000040005904FF440508DE8390007480493C1
:101F2000E8E7000000000140443802400010024091
:101F3000000002400004004000080040000C024085
:101F400070B5044602681B480D46824219D0B2F1B2
:101F5000804F16D01848824213D01848824210D0C1
:101F6000174882420DD0174882420AD01648824252
:101F700007D01648824204D040F6881114A001F020
:101F800059FC95B1042D04D001220021206801F0F4
:101F90002FF801220421206801F02AF82068016846
:101FA00041F001010160002070BD01220021206884
:101FB000F2E700000000014000040040000800407B
:101FC000000C0040000401400040014000180040A7
:101FD0002E2E2F447269766572732F53544D33320F
:101FE000463478785F48414C5F4472697665722F59
:101FF0005372632F73746D3332663478785F68611F
:102000006C5F74696D2E630000B50068094985B086
:1020100088420DD14FF47070009002200190002092
:10202000029003200390049069460348FEF77CFD6C
:1020300005B000BD00040140000802402DE9F05F3A
:10204000044690F8380092460D4601284ED04FF0D5
:10205000010B84F838B0BAF1000F10D0BAF1040FB8
:102060000DD0BAF1080F0AD0BAF10C0F07D0BAF1AF
:10207000180F04D040F6484176A001F0DBFB286839
:10208000602806D0702804D040F6494171A001F0C4
:10209000D1FBA86830B1022804D040F64A416DA0B7
:1020A00001F0C8FB286930B1042804D040F64B4148
:1020B00068A001F0BFFB022084F839007349744B1B
:1020C000744E754FDFF8D4C1DFF8D491754A4FF0E4
:1020D0008048BAF1000F0CD0BAF1040F3ED0BAF12B
:1020E000080F66D0BAF10C0F62D187E00220BDE87C
:1020F000F09F206888421ED040451CD098421AD0DC
:10210000B04218D0B84216D0604514D0484512D01D
:10211000654988420FD0654988420CD090420AD068
:102120006349884207D06349884204D040F653414E
:1021300048A001F07FFB2946206800F0D1FF20680D
:10214000816941F0080181612068816921F0040101
:102150008161206881692A69114328E020688842EA
:1021600012D0404510D098420ED0B0420CD0B842A8
:102170000AD0604508D0484506D0904204D040F6C9
:10218000624134A001F056FB2946206800F0D4FFDC
:102190002068816941F4006181612068816921F4CE
:1021A00080618161206881692A6941EA0221816137
:1021B0004AE0206888420ED040450CD098420AD0B0
:1021C000B04208D0B84206D0604504D040F6714114
:1021D00020A001F02FFB2946206801F009F82068B3
:1021E000C16941F00801C1612068C16921F00401A1
:1021F000C1612068C1692A69114324E020688842CE
:102200000ED040450CD098420AD0B04208D0B84217
:1022100006D0604504D04FF448610EA001F00AFBDF
:102220002946206801F054F82068C16941F4006132
:10223000C1612068C16921F48061C1612068C16900
:102240002A6941EA0221C16184F839B0002084F88A
:1022500038004CE72E2E2F447269766572732F5327
:10226000544D3332463478785F48414C5F4472694C
:102270007665722F5372632F73746D3332663478C0
:10228000785F68616C5F74696D2E630000000140C7
:102290000004004000080040000C00400004014021
:1022A0000040014000180040004401400048014047
:1022B000001C00400020004010B504004FD0324800
:1022C000226882422BD0B2F1804F28D02F48824220
:1022D00025D02F48824222D02E4882421FD02E483D
:1022E00082421CD02D48824219D02D48824216D0FD
:1022F0002C48824213D02C48824210D02B48824274
:102300000DD02B4882420AD02A48824207D02A4860
:10231000824204D040F2F13128A001F08BFAA0688B
:1023200060B110280AD0202808D0402806D06028A4
:1023300004D040F2F23121A001F07CFA206950B1C2
:10234000B0F5807F07D0B0F5007F04D040F2F331C4
:102350001AA001F06FFA94F8390010B107E00120DB
:1023600010BD002084F83800204600F043F8022019
:1023700084F83900211D206800F0DAFD012084F87E
:102380003900002010BD00000000014000040040A2
:1023900000080040000C0040001000400014004005
:1023A0000004014000400140004401400048014059
:1023B00000180040001C0040002000402E2E2F443A
:1023C0007269766572732F53544D33324634787880
:1023D0005F48414C5F4472697665722F5372632F78
:1023E00073746D3332663478785F68616C5F7469DA
:1023F0006D2E630008B500680649884208D106487A
:10240000016841F002010160006800F002000090E4
:1024100008BD000000040140443802402DE9F041AD
:10242000054600683C4E3D4F0C46B04207D1002C9B
:1024300053D0042C51D0082C4FD00C2C4DD0B0F1DF
:10244000804F60D03649884207D1002C45D0042CFB
:1024500043D0082C41D00C2C3FD03249884206D1C1
:10246000BCB3042C39D0082C37D00C2C35D02E49D5
:10247000884206D16CB3042C2FD0082C2DD00C2C04
:102480002BD0B84206D124B3042C26D0082C24D05B
:102490000C2C22D02549884202D1D4B1042C1CD066
:1024A0002349884200D1A4B12249884200D184B195
:1024B0002149884202D164B1042C0ED01F498842C0
:1024C00000D134B11E49884200D114B140F25241CA
:1024D00000E002E01BA001F0ADF9012221462868CE
:1024E00000F086FD2868B04201D0B84203D1416CAB
:1024F00041F4004141642868016841F00101016034
:102500000020BDE8F081002CE7D0042CE5D0082C99
:10251000E3D00C2CE1D0D9E70000014000040140D9
:102520000004004000080040000C00400040014052
:10253000004401400048014000180040001C0040D9
:10254000002000402E2E2F447269766572732F533F
:10255000544D3332463478785F48414C5F44726959
:102560007665722F5372632F73746D3332663478CD
:10257000785F68616C5F74696D2E6300704700005E
:1025800070B5026804461068D168536910F00F0FE7
:1025900050D003F0010501F4907635435DD0C207B9
:1025A00005D0CA0503D5E26B42F00102E26342079F
:1025B00005D5DA0703D0E26B42F00202E26382073C
:1025C00005D5DA0703D0E26B42F00402E2630207AA
:1025D00005D5DA0703D0E26B42F00802E263E26B52
:1025E000002A33D0800604D5880602D5204600F0A4
:1025F000D7FE20684069E16BC0F38010090700D462
:1026000028B3204600F0BEFE2068416949061AD56D
:10261000416921F040014161606BA0B11B49016536
:10262000606BFDF79AFF002810D0606B016DBDE86C
:1026300070400847830610D58B060ED52046BDE8AE
:10264000704000F0ADBE2046FFF798FF70BD2046F9
:10265000FFF794FF0020E06370BD030606D50B066C
:1026600004D52046BDE8704001F082B84006F3D59D
:102670004806F1D5D168204621F04001D1602021E3
:1026800084F8391000F01DF970BD000075330008A2
:1026900070B5040022D0A0693A4E00283A493B4A5E
:1026A0003B4B20681CD08D15B0420BD0884209D01E
:1026B000904207D0984205D0294636A001F0BAF8DA
:1026C000A06900B3A069A8421DD0B0F5007F1AD060
:1026D000B0F5407F17D040F2011111E0012070BD2C
:1026E000B04210D088420ED090420CD03849884277
:1026F00009D03849884206D0984204D040F20511EA
:1027000024A001F097F8A06838B1B0F5805F04D03C
:1027100040F207111FA001F08DF8E06938B1B0F563
:10272000004F04D04FF484711AA001F083F894F89C
:102730003900002520B984F83850204600F04CF8C4
:10274000242084F839002068C16821F40051C16058
:10275000204600F06BFE2068016921F49041016180
:102760002068416921F02A0141612068C16841F473
:102770000051C160E563202084F8390084F83A00F4
:10278000002070BD0010014000440040004800409F
:10279000001401402E2E2F447269766572732F53F8
:1027A000544D3332463478785F48414C5F44726907
:1027B0007665722F5372632F73746D33326634787B
:1027C000785F68616C5F756172742E630000000051
:1027D000004C0040005000402DE9F04106460068E2
:1027E0002D4986B0884254D12C480024016841F418
:1027F000802101600068694600F4802005904FF454
:10280000406000900220019001200290032003907C
:10281000072004902248FEF787F9234D21484FF006
:1028200000672860C5E901744FF48068C5E9034872
:102830006C61AC61EC612C6228466C62FDF770FF44
:1028400018B16F2119A000F0CCFF7563AE63164D6F
:10285000144860353030E5E802074020A5E8110152
:10286000114845F814496030AC61EC612C626C622F
:10287000FDF756FF18B181210CA000F0B2FF3563BF
:10288000002211462720AE63FEF7C4FB2720FEF787
:1028900091FB06B0BDE8F08100480040403802409E
:1028A00000040240286002405C0300202E2E2F43CB
:1028B0006F72652F5372632F75736172742E63008C
:1028C00070477047FEE700002DE9F04F7E4887B063
:1028D0000024016841F010010160016801F010015D
:1028E0000591016841F004010160016801F00401F3
:1028F0000591016841F080010160016801F08001EB
:102900000591016841F001010160016801F00101D8
:102910000591016841F002010160016801F00201C6
:102920000591016841F0080101600068DFF89CB181
:1029300000F0080040F60F08059000224146584676
:10294000FEF778FA002225216148FEF773FA4FF46A
:102950008859002249465F48FEF76CFA4FF4014A55
:10296000002251465C48FEF765FA0022B8215B4818
:10297000FEF760FA4EF2D5400326CDE9000669461F
:1029800002945448FEF7D0F8554F0A20CDE90007CD
:102990000125694602954F48FEF7C6F82020CDE98B
:1029A0000007694602954B48FEF7BEF86803CDE97B
:1029B0000007694602955846FEF7B6F8B003CDE920
:1029C0000007694602955846FEF7AEF8CDF800803C
:1029D000CDE90154694658460394FEF7A5F841F63F
:1029E0001D60CDE90006694602943B48FEF79CF85D
:1029F00041F23040CDE90006694602945846FEF7A0
:102A000093F825200090CDE901546946304803949D
:102A1000FEF78AF84FF25210CDE90006694602949B
:102A20002B48FEF781F8CDF80090CDE901546946B6
:102A300028480394FEF778F84CF64770CDE9000675
:102A4000694602942548FEF76FF8CDF800A0CDE95D
:102A50000154694620480394FEF766F8B8200090B8
:102A6000CDE9015469461D480394FEF75DF84FF423
:102A70002070CDE90007694602951548FEF754F825
:102A8000002211460720FEF7C5FA0720FEF792FA4A
:102A9000002211460920FEF7BDFA0920FEF78AFA46
:102AA000002211461720FEF7B5FA1720FEF782FA2A
:102AB000002211462820FEF7ADFA2820FEF77AFA08
:102AC00007B0BDE8F08F0000303802400008024037
:102AD000000402400010024000000240000C0240CE
:102AE0000000211010B518488CB016490024C0E928
:102AF00000144FF6FF71C0E90241046144610320F4
:102B0000CDE900040120CDE902040494CDE905409B
:102B1000079469460C480894FFF7B4F818B14E21A1
:102B20000AA000F05EFE099409A907480A94FEF77E
:102B3000A1FF002803D0552104A000F052FE0CB0E4
:102B400010BD000000000140F00100202E2E2F4398
:102B50006F72652F5372632F74696D2E63000000CE
:102B600010B517488CB04FF080410024C0E9001424
:102B70004FF6FF71C0E9024104610320CDE9000472
:102B80000120CDE902040494CDE90540079469468B
:102B90000B480894FFF776F818B16F2109A000F0F0
:102BA00020FE099409A906480A94FEF763FF00284D
:102BB00003D0762103A000F014FE0CB010BD00007D
:102BC0002C0200202E2E2F436F72652F5372632F1D
:102BD00074696D2E6300000010B517488CB015495C
:102BE0000024C0E900144FF6FF71C0E902410461FE
:102BF0000320CDE900040120CDE902040494CDE9CD
:102C00000540079469460C480894FFF73BF818B153
:102C100090210AA000F0E5FD099409A906480A944C
:102C2000FEF728FF002803D0972104A000F0D9FD6B
:102C30000CB010BD00040040680200202E2E2F436F
:102C40006F72652F5372632F74696D2E63000000DD
:102C500010B517488CB015490024C0E900144FF690
:102C6000FF71C0E9024104610320CDE900040120A5
:102C7000CDE902040494CDE90540079469460C4867
:102C80000894FEF7FFFF18B1B1210AA000F0A9FDDA
:102C9000099409A906480A94FEF7ECFE002803D01F
:102CA000B82104A000F09DFD0CB010BD000800404C
:102CB000A40200202E2E2F436F72652F5372632FB4
:102CC00074696D2E6300000010B5344890B032492D
:102CD0000024C0E900142021816042F60311C0E9FC
:102CE00003144461FFF7E8FA18B1CB212CA000F0DF
:102CF00078FD0E940EA929480F94FEF7BBFE18B17B
:102D0000D22127A000F06DFD6020CDE900040294DF
:102D10000394049405940022694620480694FFF722
:102D20008DF918B1DE211EA000F05BFD042269467A
:102D30001A48FFF783F918B1E32119A000F051FDFB
:102D4000082269461548FFF779F918B1E82114A05F
:102D500000F047FD0C2269461048FFF76FF918B1E3
:102D6000ED210FA000F03DFD0794089409944FF465
:102D700000500A94CDE90B4007A908480D94FEF7CE
:102D8000D1FD18B1F92106A000F02BFD0348FFF793
:102D90003BF910B010BD000000040140E00200202B
:102DA0002E2E2F436F72652F5372632F74696D2E11
:102DB000630000000D4810B50B4901604FF4E1318C
:102DC0004160002181600C22C160C0E90412816170
:102DD000C161FFF75DFC002805D0BDE8104045212A
:102DE00003A000F0FEBC10BD004800401C03002002
:102DF0002E2E2F436F72652F5372632F757361727E
:102E0000742E6300FEE770470907090E002806DAF2
:102E100000F00F0000F1E02080F8141D704700F171
:102E2000E02080F8001470477047704710B5FEF737
:102E30003DF8BDE81040FEF770BD000030B52548F4
:102E400093B00025016841F080510160006800F0F6
:102E5000805011902048016841F480410160006871
:102E6000022400F4804011900120009000040190A1
:102E70008001CDE90640082008904FF4A870CDE904
:102E8000090404200B906846FEF7D0FA00B1FEE773
:102E90000CA90F2081E831004FF4A0500F904FF49F
:102EA0008050109005210CA8FEF744F900B1FEE710
:102EB000FEF764FA4FF47A71B0FBF1F0FEF719FDFA
:102EC0000420FEF7E3FC00221146501EFEF7A2F894
:102ED00013B030BD40380240007000401048016817
:102EE00041F4700101600F48016841F00101016087
:102EF0000C4A00210832116002680B4B1A40026034
:102F0000031D0A4A1A60026822F480220260054802
:102F10000C30016002495806803908607047000093
:102F200088ED00E000380240FFFFF6FE103000247C
:102F3000F0B50268234B244D244E254F254C4FF00D
:102F4000804C984209D0604507D0A84205D0B042D5
:102F500003D0B84201D0A04204D122F0700E4A68DA
:102F600042EA0E0298421BD0604519D0A84217D001
:102F7000B04215D0B84213D0A04211D0164DA8428D
:102F80000ED0164DA8420BD0154DA84208D0154DB5
:102F9000A84205D0144DA84202D0144DA84203D136
:102FA00022F44075CA682A4302608A68C2620A68CD
:102FB0008262984201D0A04201D1096901630121D6
:102FC0004161F0BD000001400004004000080040E5
:102FD000000C00400004014000400140004401405A
:102FE0000048014000180040001C00400020004044
:102FF00070B50446214816460D46844225D0B4F1EA
:10300000804F22D01E4884421FD01E4884421CD0CC
:103010001D48844219D01D48844216D01C48844261
:1030200013D01C48844210D01B4884420DD01B484A
:1030300084420AD01A48844207D01A48844204D0F5
:1030400041F2882118A000F0F5FB65B1042D0AD0EB
:10305000082D08D00C2D06D0182D04D041F289215E
:1030600011A000F0E7FB0120216AA8408143216202
:10307000206AAE403043206270BD00000000014075
:103080000004004000080040000C00400004014023
:103090000040014000440140004801400018004049
:1030A000001C0040002000402E2E2F4472697665DF
:1030B00072732F53544D3332463478785F48414C05
:1030C0005F4472697665722F5372632F73746D3328
:1030D00032663478785F68616C5F74696D2E630066
:1030E00030B5026A22F001020262026A4368846912
:1030F0000D6824F07304254322F002048A682243F9
:103100000B4CA04202D00B4CA0420BD122F0080481
:10311000CA6823F4407322434C6922F004021C4322
:103120008B6923434360856149684163026230BD16
:1031300000000140000401402DE9F0410446006A0E
:103140000D4620F010002062206A6768A1692A6895
:1031500021F4E64141EA0228A96820F0200040EA73
:1031600001161348844202D01248844217D1E868FD
:1031700030B1082804D041F205210FA000F05AFB1D
:10318000E96826F0800040EA011020F040066969F5
:1031900027F4406040EA8100A96940EA810767603E
:1031A000C4F818806868A0632662BDE8F08100005A
:1031B00000000140000401402E2E2F447269766504
:1031C00072732F53544D3332463478785F48414CF4
:1031D0005F4472697665722F5372632F73746D3317
:1031E00032663478785F68616C5F74696D2E630055
:1031F0002DE9F0410446006A0D4620F480702062FB
:10320000206A6768E16920F4007021F07302296880
:1032100041EA0208A96840EA01261D48844202D01A
:103220001C4884422BD1E86830B1082804D041F210
:10323000173119A000F0FEFAA869B0F5007F05D09B
:1032400020B141F2183114A000F0F4FA6869B0F529
:10325000807F05D020B141F219310FA000F0EAFAC9
:10326000E96826F4006040EA012020F4806669697C
:1032700027F4405040EA0110A96940EA011767604D
:10328000C4F81C806868E0632662BDE8F081000035
:1032900000000140000401402E2E2F447269766523
:1032A00072732F53544D3332463478785F48414C13
:1032B0005F4472697665722F5372632F73746D3336
:1032C00032663478785F68616C5F74696D2E630074
:1032D0002DE9F0410446006A0D4620F4805020623A
:1032E000206A6668E1692A6821F4E64141EA022819
:1032F000A96820F4005040EA01370E48844202D009
:103300000D4884420ED16869B0F5807F05D020B1A8
:1033100041F25D3109A000F08DFA696926F4804020
:1033200040EA81166660C4F81C80686820642762E1
:10333000BDE8F08100000140000401402E2E2F4422
:103340007269766572732F53544D333246347878F0
:103350005F48414C5F4472697665722F5372632FE8
:1033600073746D3332663478785F68616C5F74694A
:103370006D2E630010B5806B0021C185C184FFF7FD
:10338000FDF810BD0168CA6822F49072CA60016835
:103390004A6922F001024A61202180F83A10704700
:1033A00010B590F83A10222901D0022010BD816892
:1033B000B1F5805F11D00169002901681FD049680B
:1033C00001F07F03816A4A1C82620B70C18D491E25
:1033D0000904090CC18518D026E00269816A002A17
:1033E0000268526805D0D2B20A80816A491C8162A3
:1033F000ECE7C2F308020A80816A891CF7E74A6891
:10340000816A4B1C83620A70E0E70168CA6822F493
:103410009072CA6001684A6922F001024A61202163
:1034200080F83A10FFF74CFA002010BD2DE9F0416A
:1034300004464068BC49884204D340F68511BBA0CD
:1034400000F0F8F9E06838B1B0F5005F04D040F65C
:103450008611B6A000F0EEF9206950B1B0F5806F8A
:1034600007D0B0F5C06F04D040F68711AFA000F0D0
:10347000E1F960694FF6F371084200D120B940F6D6
:103480008811AAA000F0D6F92268106920F44051F2
:10349000E068084310612268D06849F20C618843F3
:1034A0002369A168E569194363692B431943014303
:1034B000D1602268506920F44071A06908435061CE
:1034C000E2696425B2F5004FA748A84922684FF089
:1034D00032083FD08A4201D082427CD1FDF764FF9E
:1034E00000EBC00101EB001061688900B0FBF1F650
:1034F000FDF75AFF00EBC00101EB00106168890085
:10350000B0FBF1F0B0FBF5F06FF01801484306EBAB
:10351000800108EB0110B0FBF5F000F0F006FDF7BC
:1035200043FF00EBC00101EB001061688900B0FBB4
:10353000F1F0B0FBF5F006EB0016FDF735FF00EB00
:10354000C00101EB001061688900B0FBF1F7FDF7E5
:103550002BFFD2E08A4201D082423DD1FDF724FF09
:1035600000EBC00101EB001061684900B0FBF1F015
:10357000B0FBF5F00601FDF717FF00EBC00101EB12
:10358000001061684900B0FBF1F7FDF70DFF00EB9B
:10359000C00101EB001061684900B0FBF1F0B0FB25
:1035A000F5F06FF01801484307EB800108EBC1000C
:1035B000B0FBF5F000F0F80006EB4006FDF7F4FE76
:1035C00000EBC00101EB001061684900B0FBF1F7AE
:1035D000FDF7EAFE3CE055E0FDF7D6FE00EBC0014A
:1035E00001EB001061684900B0FBF1F0B0FBF5F0B1
:1035F0000601FDF7C9FE00EBC00101EB0010616898
:103600004900B0FBF1F7FDF7BFFE00EBC00101EB95
:10361000001061684900B0FBF1F0B0FBF5F06FF00D
:103620001801484307EB800108EBC100B0FBF5F03F
:1036300000F0F80006EB4006FDF7A6FE00EBC00127
:1036400001EB001061684900B0FBF1F7FDF79CFE4B
:1036500000EBC00101EB001061684900B0FBF1F024
:10366000B0FBF5F06FF01801484307EB800108EB61
:10367000C100B0FBF5F000F007002168304488601D
:10368000BDE8F081FDF780FE00EBC00101EB00100A
:1036900061688900B0FBF1F6FDF776FE00EBC00132
:1036A00001EB001061688900B0FBF1F0B0FBF5F0B0
:1036B0006FF01801484306EB800108EB0110B0FBE6
:1036C000F5F000F0F006FDF75FFE00EBC00101EB46
:1036D000001061688900B0FBF1F0B0FBF5F006EB7B
:1036E0000016FDF751FE00EBC00101EB0010616810
:1036F0008900B0FBF1F7FDF747FE00EBC00101EBDD
:10370000001061688900B0FBF1F0B0FBF5F06FF0DC
:103710001801484307EB800108EB0110B0FBF5F0FE
:1037200000F00F00A9E70000A137A0002E2E2F44C3
:103730007269766572732F53544D333246347878FC
:103740005F48414C5F4472697665722F5372632FF4
:1037500073746D3332663478785F68616C5F75615D
:1037600072742E630000000000140140001001403C
:1037700090F83910212901D0022070478168B1F5F5
:10378000805F016A0BD04A1C0262026809785160AE
:10379000C18C491E0904090CC1840ED017E00988A8
:1037A0000268C1F30801516001690029016A02D071
:1037B000491C0162ECE7891CFBE70168CA6822F03A
:1037C0008002CA600068C16841F04001C160002009
:1037D000704700000148FEF7D3BE00001C03002024
:1037E000FEE7FEE7014A024900F013B889380008F5
:1037F0000400002002E008C8121F08C1002AFAD104
:1038000070477047002001E001C1121F002AFBD160
:1038100070472DE9F04116460F460446002503E0A7
:103820003946B047641C6D1C20780028F8D1284622
:10383000BDE8F0817047000010B518210D48FEF773
:103840007FFB18210C48FEF77BFB18210B48FEF785
:1038500077FB18210A48FEF773FB0A4805494162C5
:10386000054901660549C0F89C100549C0F8D81003
:1038700010BD0000F00100202C0200206802002092
:10388000A40200202000002008490968C90706D0CA
:10389000064980390968CA074FF0604101D1704775
:1038A00000BF0A68002AFBD008707047800E00E055
:1038B00070B500201A4C02465FF00103C0EB001106
:1038C00004F8210004EB8101401C4A7081F8293082
:1038D0000428F3DB00F054F8FFF7AEFF114808238B
:1038E000E06224F8303F10498215A163A2870F4A95
:1038F00062670422A4F878200222C4F8B000A4F879
:10390000B42015036060258120252164A4F844506B
:10391000E167A4F88030C4F8B800A4F8BC2070BDFA
:103920002000002000080240001002400004024075
:10393000FDF7B6FA0446FDF7C1FAFFF77FFAFEF786
:10394000C3FFFFF7C1F9FFF735FAFFF7CBF8FFF731
:1039500007F9FFF741F9FFF77BF900F0C5F800F030
:1039600001F9064DFDF79CFA2968001B8842F9D938
:10397000FDF796FA044600F09BF9F3E700000020FB
:1039800070B500209FED250A254C0546C0EB0011BF
:1039900004EB8101401C81ED020A4D600428F5DB37
:1039A0002048FEF7F9F800211E48FEF737FD0421F4
:1039B0001C48FEF733FD08211A48FEF72FFD0C21A5
:1039C0001848FEF72BFD1848E060811524F8101FF9
:1039D00004226060C801208114482561A063C014DE
:1039E000A087134808212064A4F84410E2646067AB
:1039F0001022A4F878202022E067A4F88020C4F8E0
:103A00008810C4F8B0008020A4F8B4000948C4F8B5
:103A1000B80024F8BC2F0C20A06070BD000000008E
:103A200020000020E00200200000024000080240C8
:103A3000000C02400004024070B5FAEE080A2DEDB9
:103A4000028BB2EE080A254800F016F92348FAEE78
:103A5000080A3830B2EE080A054600F00DF91F4892
:103A6000FAEE080A7030B2EE080A044600F004F9D3
:103A70001A48FAEE080AA830B2EE080A064600F024
:103A8000FBF89FED178ADFED178A1448B0EE481A4D
:103A9000F0EE480AB0EE680A00F041F8B0EE481ABD
:103AA000F0EE480AB0EE680A284600F038F8B0EEAA
:103AB000481AF0EE480AB0EE680A204600F02FF8E7
:103AC000B0EE481AF0EE480AB0EE680ABDEC028B80
:103AD0003046BDE8704000F022B800001001002020
:103AE00000000000295C0F3F10B5FFF7E1FEBDE8C4
:103AF0001040FFF7A1BF036A0A46C0691946AFF339
:103B0000008042F603135A434FF6FF73B2FBF3F201
:103B1000036821F00300343092B21A50704710B598
:103B200004462DED028BB0EEC00AB0EE418AF0EEF5
:103B3000608A10EE100AFCF7FFFBB0EEE80AC4E959
:103B4000000110EE100AFCF7F7FBB0EEC80AC4E95A
:103B5000020110EE100AFCF7EFFBC4E90401BDEC12
:103B6000028B10BD10B50F4C02E00220FCF748FF9D
:103B7000607848B994F83D0030B994F8790018B9E4
:103B800094F8B5000028F0D00749012008700749D3
:103B900000204862890348620549086005490860B9
:103BA00010BD00002000002008000020000001409F
:103BB000240400402408004010B5044689B10129BE
:103BC00013D0022915D003291CD1218A0122E068D3
:103BD000FDF730F9218B60690122BDE81040FDF747
:103BE00029B9218A0122E06806E0218A0022E068E2
:103BF000EEE7218A0022E068FDF71CF9218B002204
:103C00006069EAE710BD000070B505462DED028B36
:103C1000B0EE408AB0EEC80A10EE100AFCF78CFB3A
:103C20009FED131B53EC112BFCF7FBFAFCF76BFB1E
:103C3000B5EEC08A84B2F1EE10FA01DD002105E094
:103C4000B5EEC08AF1EE10FA05D201212846FFF741
:103C5000B3FF214604E003212846FFF7ADFF002112
:103C6000BDEC028B2846BDE87040FFF744BF000062
:103C7000000000004055B54080ED0B0AC0ED0C0A75
:103C80007047000010B5044659B1012908D1218EB2
:103C90000022E06AFDF7CEF85FF0010084F8290009
:103CA00010BD218E0122E06AFDF7C4F80020F5E77F
:103CB00000210148FFF7E6BF5C0000200006101657
:103CC00000061016000000000000000001020304BE
:103CD000060708090000000001020304FC3C00087C
:103CE000000000201C000000F4370008183D000808
:103CF0001C0000200408000004380008090000002F
:103D000000000000000000000100000010000000A2
:083D1000000000000024F40093
:040000050800018965
:00000001FF
