:020000040800F2
:1000000000000220093D00088F1600089116000824
:1000100093160008951600089716000800000000C7
:10002000000000000000000000000000C13A0008CD
:100030009916000800000000613B0008C53B00085D
:10004000593D0008593D0008593D0008593D000838
:10005000593D00089B1600089D160008593D0008F0
:10006000593D0008593D0008593D0008593D000818
:10007000593D0008593D0008593D0008593D000808
:10008000593D0008593D0008593D0008593D0008F8
:10009000593D0008593D0008593D0008593D0008E8
:1000A000593D0008593D0008593D0008593D0008D8
:1000B000593D0008593D0008593D0008593D0008C8
:1000C000593D0008593D0008593D0008593D0008B8
:1000D000593D0008593D0008593D0008593D0008A8
:1000E000A7160008593D0008593D0008C51600082C
:1000F000D5160008E5160008593D0008593D0008CE
:10010000593D0008593D0008F5160008593D000802
:10011000593D0008593D0008593D0008593D000867
:10012000593D0008593D0008593D0008593D000857
:10013000593D0008593D0008593D0008593D000847
:10014000593D0008593D0008593D0008593D000837
:10015000593D0008593D0008593D0008593D000827
:10016000593D0008593D0008593D0008593D000817
:10017000593D0008593D0008593D000800000000A5
:08018000593D0008593D00083B
:1001900010B5054C237833B9044B13B10448AFF3C1
:1001A00000800123237010BDB40000200000000077
:1001B000E4A2000808B5034B1BB103490348AFF3A1
:1001C000008008BD00000000B8000020E4A2000884
:1001D00010F8012B11F8013B012A28BF9A42F7D0F1
:1001E000D01A70470000000000000000000000006E
:1001F00001F0FF01102A2BDB10F0070F08D010F8D8
:10020000013B013A8B422DD010F0070F42B3F6D1DB
:10021000F0B441EA012141EA014122F007047FF0F4
:1002200000070023F0E80256083C85EA010586EA4B
:10023000010685FA47F5A3FA87F586FA47F6A5FA87
:1002400087F68EB9EED1F0BC01F0FF0102F0070293
:1002500032B110F8013B013A83EA010313B1F8D13E
:100260000020704701387047002D06BF354603381F
:10027000073815F0010F07D1013015F4807F02BF58
:10028000013015F4C03F0130F0BC0138704700BFA9
:1002900081F0004102E000BF83F0004330B54FEA37
:1002A00041044FEA430594EA050F08BF90EA020FA4
:1002B0001FBF54EA000C55EA020C7FEA645C7FEA37
:1002C000655C00F0E2804FEA5454D4EB5555B8BF5A
:1002D0006D420CDD2C4480EA020281EA030382EACB
:1002E000000083EA010180EA020281EA0303362D5D
:1002F00088BF30BD11F0004F4FEA01314FF4801C30
:100300004CEA113102D0404261EB410113F0004F41
:100310004FEA03334CEA133302D0524263EB4303F8
:1003200094EA050F00F0A780A4F10104D5F1200E96
:100330000DDB02FA0EFC22FA05F2801841F10001F1
:1003400003FA0EF2801843FA05F359410EE0A5F1C5
:1003500020050EF1200E012A03FA0EFC28BF4CF0F6
:10036000020C43FA05F3C01851EBE37101F00045AC
:1003700007D54FF0000EDCF1000C7EEB00006EEBB9
:100380000101B1F5801F1BD3B1F5001F0CD3490843
:100390005FEA30004FEA3C0C04F101044FEA44529A
:1003A00012F5800F80F09A80BCF1004F08BF5FEA21
:1003B000500C50F1000041EB045141EA050130BD01
:1003C0005FEA4C0C404141EB010111F4801FA4F1A4
:1003D0000104E9D191F0000F04BF01460020B1FAF9
:1003E00081F308BF2033A3F10B03B3F120020CDA31
:1003F0000C3208DD02F1140CC2F10C0201FA0CF00F
:1004000021FA02F10CE002F11402D8BFC2F1200C73
:1004100001FA02F120FA0CFCDCBF41EA0C01904029
:10042000E41AA2BF01EB0451294330BD6FEA040472
:100430001F3C1CDA0C340EDC04F11404C4F120025D
:1004400020FA04F001FA02F340EA030021FA04F36F
:1004500045EA030130BDC4F10C04C4F1200220FAC6
:1004600002F001FA04F340EA0300294630BD21FA04
:1004700004F0294630BD94F0000F83F4801306BFCA
:1004800081F480110134013D4EE77FEA645C18BFBE
:100490007FEA655C29D094EA050F08BF90EA020F55
:1004A00005D054EA000C04BF1946104630BD91EA4D
:1004B000030F1EBF0021002030BD5FEA545C05D150
:1004C0004000494128BF41F0004130BD14F580048F
:1004D0003CBF01F5801130BD01F0004545F0FE4103
:1004E00041F470014FF0000030BD7FEA645C1ABF38
:1004F000194610467FEA655C1CBF0B46024650EA6F
:10050000013406BF52EA033591EA030F41F400219A
:1005100030BD00BF90F0000F04BF0021704730B520
:100520004FF4806404F132044FF000054FF00001F5
:1005300050E700BF90F0000F04BF0021704730B5B6
:100540004FF4806404F1320410F0004548BF40428B
:100550004FF000013EE700BF42004FEAE2014FEAE0
:1005600031014FEA02701FBF12F07F4393F07F4FBB
:1005700081F06051704732F07F4208BF704793F0BE
:100580007F4F04BF41F40021704730B54FF46074D1
:1005900001F0004521F000411CE700BF50EA0102D4
:1005A00008BF704730B54FF000050AE050EA01027D
:1005B00008BF704730B511F0004502D5404261EBED
:1005C00041014FF4806404F132045FEA915C3FF42E
:1005D000D8AE4FF003025FEADC0C18BF03325FEACB
:1005E000DC0C18BF033202EBDC02C2F1200300FA7C
:1005F00003FC20FA02F001FA03FE40EA0E0021FAA1
:1006000002F11444BDE600BF70B54FF0FF0C4CF48E
:10061000E06C1CEA11541DBF1CEA135594EA0C0F40
:1006200095EA0C0F00F0DEF82C4481EA030621EA7B
:100630004C5123EA4C5350EA013518BF52EA0335B6
:1006400041F4801143F4801338D0A0FB02CE4FF068
:100650000005E1FB02E506F00042E0FB03E54FF098
:100660000006E1FB03569CF0000F18BF4EF0010E90
:10067000A4F1FF04B6F5007F64F5407404D25FEA8C
:100680004E0E6D4146EB060642EAC62141EA55513F
:100690004FEAC52040EA5E504FEACE2EB4F1FD0C81
:1006A00088BFBCF5E06F1ED8BEF1004F08BF5FEAFF
:1006B000500E50F1000041EB045170BD06F00046B1
:1006C00046EA010140EA020081EA0301B4EB5C045E
:1006D000C2BFD4EB0C0541EA045170BD41F4801156
:1006E0004FF0000E013C00F3AB8014F1360FDEBF7B
:1006F000002001F0004170BDC4F10004203C35DA57
:100700000C341BDC04F11404C4F1200500FA05F3D9
:1007100020FA04F001FA05F240EA020001F000427A
:1007200021F0004110EBD37021FA04F642EB0601F0
:100730005EEA430E08BF20EAD37070BDC4F10C041A
:10074000C4F1200500FA04F320FA05F001FA04F2DE
:1007500040EA020001F0004110EBD37041F10001CA
:100760005EEA430E08BF20EAD37070BDC4F12005D5
:1007700000FA05F24EEA020E20FA04F301FA05F23D
:1007800043EA020321FA04F001F0004121FA04F2E5
:1007900020EA020000EBD3705EEA430E08BF20EAB5
:1007A000D37070BD94F0000F0FD101F000464000EF
:1007B00041EB010111F4801F08BF013CF7D041EA71
:1007C000060195F0000F18BF704703F00046520075
:1007D00043EB030313F4801F08BF013DF7D043EA46
:1007E0000603704794EA0C0F0CEA135518BF95EAFC
:1007F0000C0F0CD050EA410618BF52EA4306D1D183
:1008000081EA030101F000414FF0000070BD50EAA1
:10081000410606BF1046194652EA430619D094EA2B
:100820000C0F02D150EA013613D195EA0C0F05D115
:1008300052EA03361CBF104619460AD181EA030169
:1008400001F0004141F0FE4141F470014FF0000021
:1008500070BD41F0FE4141F4780170BD70B54FF0BC
:10086000FF0C4CF4E06C1CEA11541DBF1CEA13553C
:1008700094EA0C0F95EA0C0F00F0A7F8A4EB05041E
:1008800081EA030E52EA03354FEA013100F0888015
:100890004FEA03334FF0805545EA131343EA1263DE
:1008A0004FEA022245EA111545EA10654FEA002693
:1008B0000EF000419D4208BF964244F1FD0404F54C
:1008C000407402D25B084FEA3202B61A65EB0305A8
:1008D0005B084FEA32024FF480104FF4002CB6EB65
:1008E000020E75EB030E22BFB61A754640EA0C00E5
:1008F0005B084FEA3202B6EB020E75EB030E22BF25
:10090000B61A754640EA5C005B084FEA3202B6EB65
:10091000020E75EB030E22BFB61A754640EA9C0024
:100920005B084FEA3202B6EB020E75EB030E22BFF4
:10093000B61A754640EADC0055EA060E18D04FEAB2
:10094000051545EA16754FEA06164FEAC30343EA52
:1009500052734FEAC2025FEA1C1CC0D111F4801F1F
:100960000BD141EA00014FF000004FF0004CB6E718
:1009700011F4801F04BF01430020B4F1FD0C88BFB7
:10098000BCF5E06F3FF6AFAEB5EB030C04BFB6EBC2
:10099000020C5FEA500C50F1000041EB045170BDB5
:1009A0000EF0004E4EEA113114EB5C04C2BFD4EBE2
:1009B0000C0541EA045170BD41F480114FF0000E66
:1009C000013C90E645EA060E8DE60CEA135594EAE2
:1009D0000C0F08BF95EA0C0F3FF43BAF94EA0C0FE5
:1009E0000AD150EA01347FF434AF95EA0C0F7FF45A
:1009F00025AF104619462CE795EA0C0F06D152EAAE
:100A000003353FF4FDAE1046194622E750EA410691
:100A100018BF52EA43067FF4C5AE50EA41047FF4A2
:100A20000DAF52EA43057FF4EBAE12E74FF0FF3C07
:100A300006E000BF4FF0010C02E000BF4FF0010CD8
:100A40004DF804CD4FEA410C7FEA6C5C4FEA430C51
:100A500018BF7FEA6C5C1BD001B050EA410C0CBFA0
:100A600052EA430C91EA030F02BF90EA020F002002
:100A7000704710F1000F91EA030F58BF994208BF69
:100A800090422CBFD8176FEAE37040F00100704726
:100A90004FEA410C7FEA6C5C02D150EA013C07D17D
:100AA0004FEA430C7FEA6C5CD6D152EA033CD3D0C8
:100AB0005DF8040B704700BF8446104662468C46C2
:100AC0001946634600E000BF01B5FFF7B7FF0028F5
:100AD00048BF10F1000F01BD4DF808EDFFF7F4FF1E
:100AE0000CBF012000205DF808FB00BF4DF808EDA9
:100AF000FFF7EAFF34BF012000205DF808FB00BFCC
:100B00004DF808EDFFF7E0FF94BF012000205DF8ED
:100B100008FB00BF4DF808EDFFF7CEFF94BF0120A2
:100B200000205DF808FB00BF4DF808EDFFF7C4FF9B
:100B300034BF012000205DF808FB00BF4FEA4102EE
:100B400012F5001215D211D56FF47873B3EB62521F
:100B500012D94FEAC12343F0004343EA505311F046
:100B6000004F23FA02F018BF404270474FF00000D8
:100B7000704750EA013005D111F0004008BF6FF016
:100B8000004070474FF00000704700BF4A0011D28C
:100B900012F5001211D20DD56FF47873B3EB6252D7
:100BA0000ED44FEAC12343F0004343EA505323FAE3
:100BB00002F070474FF00000704750EA013002D158
:100BC0004FF0FF3070474FF0000070474FEA41028E
:100BD000B2F1E04324BFB3F5001CDCF1FE5C0DD99B
:100BE00001F0004C4FEAC0024CEA5070B2F1004FE5
:100BF00040EB830008BF20F00100704711F0804FE8
:100C000021D113F13872BCBF01F00040704741F4AC
:100C100080114FEA5252C2F11802C2F1200C10FAB0
:100C20000CF320FA02F018BF40F001004FEAC12394
:100C30004FEAD32303FA0CFC40EA0C0023FA02F338
:100C40004FEA4303CCE77FEA625307D150EA01330E
:100C50001EBF4FF0FE4040F44000704701F00040DE
:100C600040F0FE4040F40000704700BF53B94AB95D
:100C7000002908BF00281CBF4FF0FF314FF0FF30A4
:100C800000F072B9ADF1080C6DE904CE00F006F881
:100C9000DDF804E0DDE9022304B070472DE9F047F8
:100CA000089E04468846002B4BD18A42154667D9D8
:100CB000B2FA82F24AB1C2F1200701FA02F320FA35
:100CC00007F7954047EA030894404FEA154E230C76
:100CD000B8FBFEF71FFA85FC0EFB178843EA0843B2
:100CE00007FB0CF1994209D9EB1807F1FF3080F0AE
:100CF0001B81994240F21881023F2B445B1AA4B237
:100D0000B3FBFEF00EFB103344EA034400FB0CFC83
:100D1000A44509D92C1900F1FF3380F00781A445BF
:100D200040F2048102382C4440EA0740A4EB0C0452
:100D300000271EB1D4400023C6E900433946BDE870
:100D4000F0878B4209D9002E00F0EB800027C6E91E
:100D5000000138463946BDE8F087B3FA83F7002F23
:100D600047D18B4202D3824200F2FA80841A61EBAF
:100D7000030301209846002EE0D0C6E90048DDE7D5
:100D800002B9FFDEB2FA82F2002A40F08F80491BDE
:100D90004FEA154E1FFA85F80127B1FBFEFC230C24
:100DA0000EFB1C1143EA014308FB0CF1994207D9E1
:100DB000EB180CF1FF3002D2994200F2CD8084464C
:100DC000591AA3B2B1FBFEF00EFB101443EA04441F
:100DD00008FB00F8A04507D92C1900F1FF3302D217
:100DE000A04500F2B6801846A4EB080440EA0C4087
:100DF0009FE7C7F1200CBB4022FA0CFE4EEA030E1F
:100E000001FA07F420FA0CF521FA0CF34FEA1E4818
:100E10002543B3FBF8F92C0C08FB19331FFA8EFAA3
:100E200044EA034309FB0AF49C4202FA07F200FA7F
:100E300007F10BD91EEB030309F1FF3080F0878027
:100E40009C4240F28480A9F1020973441B1BADB29D
:100E5000B3FBF8F008FB103345EA034400FB0AFA41
:100E6000A24508D91EEB040400F1FF336BD2A24562
:100E700069D90238744440EA0940A0FB0289A4EB16
:100E80000A044C45C2464B4654D351D0002E69D07B
:100E9000B1EB0A0564EB030404FA0CFCFD40FC40D2
:100EA0004CEA0505C6E90054002747E7C2F12003D4
:100EB00020FA03F7954001FA02F021FA03F34FEA12
:100EC000154E3843010CB3FBFEF71FFA85F80EFBF5
:100ED000173341EA034107FB08F38B4204FA02F49B
:100EE00007D9691807F1FF3C2FD28B422DD9023F59
:100EF0002944CB1A81B2B3FBFEF00EFB103341EA5A
:100F0000034100FB08F38B4207D9691800F1FF3C4D
:100F100017D28B4215D902382944C91A40EA07472B
:100F20003BE73746304609E70746E7E61846FBE663
:100F30004145ABD2B8EB020A69EB0E020138134609
:100F4000A4E76046E9E7184695E76746D1E781469A
:100F50007CE702382C4447E7ACF1020C2B442FE726
:100F6000384608E73746E9E6704700BF2DE9F04705
:100F70008CB000240794089409940A940B9401946B
:100F8000704B1A6B42F010021A631A6B02F01002D7
:100F90000192019A02941A6B42F004021A631A6BCE
:100FA00002F004020292029A03941A6B42F0800249
:100FB0001A631A6B02F080020392039A04941A6B6C
:100FC00042F001021A631A6B02F001020492049AC1
:100FD00005941A6B42F002021A631A6B02F00202C5
:100FE0000592059A06941A6B42F008021A631B6B6D
:100FF00003F008030693069BDFF85881224640F66B
:101000001401404601F0EBFB4F4E224648F20451DA
:10101000304601F0E4FB4D4F22464FF205013846C1
:1010200001F0DDFB5023079308940994DFF828A111
:1010300007A9504601F0E8FA4FF4A8430793089433
:10104000099407A9404601F0DFFA1423079301250C
:10105000089509940A9407A9404601F0D5FA079526
:10106000DFF8F890CDF820900223099307A93046C5
:1010700001F0CAFA04230793089509940A9407A972
:10108000304601F0C1FA102307930894099507A987
:10109000304601F0B9FA4FF480430793CDF8209021
:1010A000099507A9504601F0AFFA4FF42043079382
:1010B000CDF82090099507A9254801F0A5FA40F63A
:1010C000027307930894099407A9384601F09CFA23
:1010D0004FF470430793089509940A9407A938467A
:1010E00001F092FA4FF405430793089509940A9585
:1010F00007A9304601F088FA4FF40063079308957A
:1011000009940A9507A9404601F07EFA052607963C
:10111000089509940A9507A9384601F075FA224600
:101120003146062001F086FB062001F0B7FB22467F
:101130003146282001F07EFB282001F0AFFB0CB0E7
:10114000BDE8F0870038024000000240000C024079
:10115000000402400008024000100240000011108C
:1011600000B58DB02022002104A808F0ECF800237F
:10117000019302931148124A0260436083604FF664
:10118000FF72C2600361436103230393012305934C
:10119000099303A900F08EFD50B900230193029337
:1011A00001A9064800F0C0FE28B90DB05DF804FBA7
:1011B00002F0E0FDF1E702F0DDFDF6E7CC0C0020E7
:1011C0000000014000B58DB02022002104A808F0E5
:1011D000BAF800230193029311484FF08042026055
:1011E000436083604FF6FF72C26003610323039381
:1011F00001230593099303A900F05CFD50B9002376
:101200000193029301A9064800F08EFE28B90DB0A3
:101210005DF804FB02F0AEFDF1E702F0ABFDF6E78E
:10122000080D002000B58DB02022002104A808F090
:101230008AF80023019302931148124A0260436026
:1012400083604FF6FF72C26003610323039301239F
:101250000593099303A900F02DFD50B900230193D4
:10126000029301A9064800F05FFE28B90DB05DF8B1
:1012700004FB02F07FFDF1E702F07CFDF6E700BF22
:10128000900C002000040040F0B58DB000230793BF
:10129000089309930A930B9303684C4A934207D02F
:1012A000B3F1804F35D04A4A934257D00DB0F0BDCC
:1012B00000250095474B5A6C42F001025A645A6C63
:1012C00002F001020092009A01951A6B42F010029E
:1012D0001A631B6B03F010030193019B4FF400731F
:1012E0000793022708970124099403230A930B9478
:1012F000394E07A9304601F087F94FF40063079390
:10130000089709940A950B9407A9304601F07CF9D7
:10131000CCE70021029103F50E331A6C42F0010272
:101320001A641A6C02F001020292029A03911A6B7B
:1013300042F001021A631B6B03F001030393039B4A
:1013400022230793022308930123099303220A927D
:101350000B9307A9214801F057F9A7E7002204924F
:101360001C4B196C41F002011964196C01F0020167
:10137000049104990592196B41F001011963196BED
:1013800001F001010591059906921A6B42F00402E1
:101390001A631B6B03F004030693069B80230793D9
:1013A000022408940126099603250A950B9407A99F
:1013B0000A4801F029F940230793089409960A95F1
:1013C0000B9407A9064801F01FF96FE700000140E0
:1013D00000040040003802400010024000000240BB
:1013E000000802400268164B9A4200D0704710B5C0
:1013F00082B00024019403F59A335A6C42F0020241
:101400005A645B6C03F002030193019B22460521A1
:101410002B2001F00FFA2B2001F040FA2246052183
:101420002C2001F007FA2C2001F038FA2246052181
:101430002D2001F0FFF92D2001F030FA02B010BD8F
:101440000004014000B587B0002301930293039389
:1014500004930593026803F1804303F582339A42B3
:1014600002D007B05DF804FB002300930A4B1A6B0F
:1014700042F004021A631B6B03F004030093009B09
:101480004FF460730193022302930323059301A990
:10149000024801F0B9F8E4E70038024000080240D1
:1014A00000B591B000230E930F930793089309930F
:1014B0000A930B930C930D93009301930293039360
:1014C0000493059306932D482D4A02604360202221
:1014D000826042F60312C2600361436100F0D1FBF7
:1014E000002838D100230E930F930EA9234800F053
:1014F0001BFD002832D16023079300230893099332
:101500000A930B930C930D93042207A91B4800F038
:101510004FFC30BB082207A9184800F049FC18BB53
:101520000C2207A9154800F043FC00BB00230093E0
:1015300001930293039304934FF400520592069390
:1015400069460E4800F019FDA0B90C48FFF77AFF74
:1015500011B05DF804FB02F00DFCC3E702F00AFCD9
:10156000C9E702F007FCD5E702F004FCD8E702F077
:1015700001FCDBE702F0FEFBE7E700BF540C0020B4
:101580000004014008B50B480B4B03600B4B436054
:1015900000238360C3604FF4804202614361836132
:1015A000C361036201F0C2FB00B908BD02F0E2FBB7
:1015B000FBE700BF440D002000540040A08601005E
:1015C00030B589B0002303930493059306930793E2
:1015D0000268154B9A4201D009B030BD0025019533
:1015E000124C236B43F002032363236B03F00203CB
:1015F0000193019B4FF4407303931223049301233F
:101600000593032306930423079303A9084800F0D6
:10161000FBFF0295236C43F400132364236C03F453
:1016200000130293029BD7E70054004000380240A9
:101630000004024000238B4221DA10B40BE000BF0B
:101640004FF060421268002AF9D04FF060421470E7
:1016500001338B420FDAC45C4FF06042D2F8802E27
:1016600012F0010FF4D04FF06042D2F8002E12F0C9
:10167000010FEDD0E4E718465DF8044B70471846BB
:10168000704708B508461146FFF7D4FF08BD7047FC
:10169000FEE7FEE7FEE7FEE77047704708B501206A
:1016A00001F0A8F808BD08B54FF4005001F0A2F809
:1016B0004FF4804001F09EF84FF4004001F09AF89A
:1016C00008BD000008B5024800F0A4F908BD00BF3D
:1016D000540C002008B5024800F09CF908BD00BF7A
:1016E000540C002008B5024800F094F908BD00BF72
:1016F000540C002008B5024800F08CF908BD00BF6A
:10170000F84E002010B582B000240094114B5A6CA2
:1017100042F480425A645A6C02F480420092009A69
:1017200001941A6C42F080521A641B6C03F08053CF
:101730000193019B22460F216FF0010001F07AF81E
:1017400022460521084601F075F8052001F0A6F8AB
:1017500002B010BD003802400F49D1F8883043F480
:101760007003C1F888300D4B1A6842F001021A600C
:10177000002098601A6822F0847222F480321A6085
:10178000074A5A601A6822F480221A60D8604FF023
:1017900000638B60704700BF00ED00E0003802403E
:1017A00010300024034B0360034B0B608023136055
:1017B000704700BFD0020020D000002070B59CB060
:1017C0001E4C15AD26460FCE0FC596E8070085E8DE
:1017D0000700002115A802F006F9194B18600EAD9C
:1017E00004F11C060FCE0FC596E8070085E8070038
:1017F00000210EA802F0F7F8124B186007AD04F1B3
:1018000038060FCE0FC596E8070085E807000021CF
:1018100007A802F0E8F80C4B18606D4654340FCC62
:101820000FC594E8070085E807000021684602F02C
:10183000DAF8064B18601CB070BD00BF00A30008AA
:10184000EC0D0020440E0020F42E00209C0E002001
:1018500010B588B000220146322000F0EBFF3220A4
:1018600001F01CF800240194144B1A6C42F0080299
:101870001A641B6C03F008030193019B02A903A8DF
:1018800000F0A4FE00F092FE43000D48A0FB0323ED
:101890009B0C013B0B480C4A026040F2E732C260ED
:1018A00043600461846000F0D3F910B1012008B0F6
:1018B00010BD044800F09EF8F9E700BF0038024070
:1018C00083DE1B43F84E0020000C004070B4036A16
:1018D00023F001030362036A4268846924F07304FD
:1018E0000D6845EA040623F002048B6823430C4D7F
:1018F000A84202D00B4CA0420BD123F00803CD68C4
:101900002B4323F0040322F440724D6915438A6986
:101910002A43426086614A684263036270BC704732
:10192000000001400004014030B4036A23F48073D6
:101930000362036A4268C46924F073040D682C438F
:1019400023F400738D6843EA05230E4DA84203D0AB
:1019500005F58065A8420ED123F40063CD6843EA03
:10196000052323F4806322F440524D6942EA0512B4
:101970008D6942EA05124260C4614A68C26303622B
:1019800030BC70470000014030B4036A23F4805338
:101990000362036A4468C26922F4E6420D6842EABF
:1019A000052223F400538D6843EA0533094DA8420C
:1019B00003D005F58065A84204D124F480444D6924
:1019C00044EA85144460C2614A680264036230BC20
:1019D000704700BF000001407047022380F8393093
:1019E0000268136843F001031360012380F8393063
:1019F000002070470268D36843F00103D360026897
:101A0000136843F00103136000207047704770476C
:101A10007047704710B5044603681A6912F0020F48
:101A200011D0DA6812F0020F0DD06FF002021A61C5
:101A30000123037603689B6913F0030F70D0FFF74F
:101A4000E6FF0023237623681A6912F0040F12D0F0
:101A5000DA6812F0040F0ED06FF004021A6102234C
:101A6000237623689B6913F4407F5FD02046FFF7FD
:101A7000CEFF0023237623681A6912F0080F12D0D4
:101A8000DA6812F0080F0ED06FF008021A61042312
:101A900023762368DB6913F0030F4ED02046FFF74F
:101AA000B6FF0023237623681A6912F0100F12D0B4
:101AB000DA6812F0100F0ED06FF010021A610823CE
:101AC00023762368DB6913F4407F3DD02046FFF77F
:101AD0009EFF0023237623681A6912F0010F03D0BA
:101AE000DA6812F0010F36D123681A6912F0800FFC
:101AF00003D0DA6812F0800F34D123681A6912F02B
:101B0000400F03D0DA6812F0400F32D123681A690F
:101B100012F0200F03D0DA6812F0200F30D110BD80
:101B2000FFF774FF2046FFF773FF8AE72046FFF7B1
:101B30006DFF2046FFF76CFF9BE72046FFF766FF2F
:101B40002046FFF765FFACE72046FFF75FFF204622
:101B5000FFF75EFFBDE76FF001021A61204602F059
:101B6000FDF8C1E76FF080021A61204600F032FAFA
:101B7000C3E76FF040021A612046FFF74AFFC5E74E
:101B80006FF020021A61204600F023FAC7E7000038
:101B900003682E4A904212D0B0F1804F0FD0A2F5C8
:101BA0007C4290420BD002F58062904207D002F551
:101BB0008062904203D002F57842904203D123F034
:101BC00070034A681343214A90422AD0B0F1804FF3
:101BD00027D0A2F57C42904223D002F58062904249
:101BE0001FD002F5806290421BD002F578429042ED
:101BF00017D002F57052904213D002F580629042E5
:101C00000FD002F5806290420BD0A2F5983290423C
:101C100007D002F58062904203D002F580629042C4
:101C200003D123F44073CA68134303608B68C36213
:101C30000B688362054B984203D003F5806398429A
:101C400001D10B6903630123436170470000014028
:101C5000A8B110B5044690F839305BB1022384F87E
:101C60003930211D2068FFF793FF012384F83930B4
:101C7000002010BD80F83830FFF7AEFEEEE70120FF
:101C80007047A8B110B5044690F839305BB1022313
:101C900084F83930211D2068FFF77AFF012384F88A
:101CA0003930002010BD80F83830FFF79BFBEEE79D
:101CB00001207047002847D0F8B505460C4690F83B
:101CC0003930002B3BD0022385F83930294651F8B2
:101CD000042B936823F0070393602868FFF758FFED
:101CE00029688A688E690F6A2068104326F4407656
:101CF00026F00306A268A36942EA0323334323F4D0
:101D00007C4323F0FC03E668E26946EA02261E43B0
:101D1000226A1303226943EA0213334327F0AA0716
:101D20006268646942EA04123A43886029688B61F8
:101D30002B681A62012385F839300020F8BD80F83D
:101D40003830FFF7A1FABEE70120704730B4036ACC
:101D500023F010030362036A4468826922F4E642B6
:101D60000D6842EA052223F020038D6843EA05133B
:101D70000E4DA84203D005F58065A8420ED123F090
:101D80008003CD6843EA051323F0400324F4406444
:101D90004D6944EA85048D6944EA850444608261A2
:101DA0004A688263036230BC704700BF0000014094
:101DB00038B590F83830012B66D00D460446012323
:101DC00080F83830022380F839300C2A1AD8DFE83E
:101DD00002F007191919201919193419191947008E
:101DE0000068FFF773FD2268936943F0080393616D
:101DF0002268936923F00403936122689369296937
:101E00000B439361012384F83930002084F83800B3
:101E100038BD0068FFF79AFF2268936943F40063B6
:101E200093612268936923F48063936122689369C4
:101E3000296943EA01239361E4E70068FFF774FD31
:101E40002268D36943F00803D3612268D36923F081
:101E50000403D3612268D36929690B43D361D1E7B5
:101E60000068FFF791FD2268D36943F40063D361F2
:101E70002268D36923F48063D3612268D369296916
:101E800043EA0123D361BDE70220C1E710B4012377
:101E900003FA01F4036A23EA04030362036A8A4033
:101EA000134303625DF8044B7047000010B504460D
:101EB00001220068FFF7EAFF2368094A934203D032
:101EC00002F58062934203D15A6C42F400425A6494
:101ED0002268136843F001031360002010BD00BFA7
:101EE0000000014010B5044661B1042916D001225A
:101EF00000210068FFF7CAFF012204212068FFF7D4
:101F0000C5FF04E0012200210068FFF7BFFF22683F
:101F1000136843F001031360002010BD0122042167
:101F20000068FFF7B3FFF2E790F83830012B22D0BA
:101F300030B4012280F83820022380F83930046858
:101F4000636823F070036360046863680D682B4363
:101F500063600468A36823F08003A3600468A36837
:101F600049680B43A36080F83920002380F838309B
:101F7000184630BC70470220704790F83830012B6B
:101F800025D0012380F83830CB6823F440738A6869
:101F9000134323F480634A68134323F400630A68FD
:101FA000134323F480530A69134323F400534A690B
:101FB000134323F480438A69134323F400431343F8
:101FC00002685364002380F83830184670470220B6
:101FD0007047704770470000002800F0BB8170B563
:101FE00082B00446036813F0010F3BD0A74B9B68F7
:101FF00003F00C03042B2CD0A44B9B6803F00C03C0
:10200000082B21D06368B3F5803F4FD0B3F5A02FE4
:1020100052D09E4B1A6822F480321A601A6822F459
:1020200080221A606368002B50D000F069FC0546DE
:10203000964B1B6813F4003F14D100F061FC401B69
:102040006428F5D903208AE1904B5B6813F4800F74
:10205000D8D08E4B1B6813F4003F03D06368002B6D
:1020600000F07A81236813F0020F55D0874B9B68EC
:1020700013F00C0F3ED0854B9B6803F00C03082B2C
:1020800033D0E368002B68D0814B01221A6000F046
:1020900037FC05467D4B1B6813F0020F54D100F04E
:1020A0002FFC401B0228F5D9032058E1774A13681A
:1020B00043F480331360B5E7744B1A6842F480220E
:1020C0001A601A6842F480321A60ABE700F018FC1C
:1020D00005466E4B1B6813F4003FC3D000F010FCA4
:1020E000401B6428F5D9032039E1684B5B6813F481
:1020F000800FC6D1654B1B6813F0020F04D0E36854
:10210000012B01D001202AE1604A136823F0F80373
:10211000216943EAC1031360236813F0080F40D01C
:10212000636963B35B4B01221A6000F0E9FB05466B
:10213000564B5B6F13F0020F33D100F0E1FB401BF5
:102140000228F5D903200AE1504A136823F0F80366
:10215000216943EAC1031360DEE74D4B00221A6098
:1021600000F0CEFB0546494B1B6813F0020FD3D09D
:1021700000F0C6FB401B0228F5D90320EFE0454BD9
:1021800000221A6000F0BCFB0546404B5B6F13F069
:10219000020F06D000F0B4FB401B0228F5D9032043
:1021A000DDE0236813F0040F79D0384B1B6C13F07B
:1021B000805F33D100230193344B1A6C42F080527C
:1021C0001A641B6C03F080530193019B0125324B71
:1021D0001B6813F4807F23D0A368012B34D0052B18
:1021E00038D02A4B1A6F22F001021A671A6F22F0B8
:1021F00004021A67A368002B36D000F081FB064664
:10220000224B1B6F13F0020F48D100F079FB801BAB
:1022100041F288339842F3D90320A0E00025D6E7A5
:102220001D4A136843F48073136000F069FB06468F
:10223000194B1B6813F4807FCED100F061FB801B2B
:102240000228F5D903208AE0104A136F43F00103F6
:102250001367CFE70D4B1A6F42F004021A671A6F2B
:1022600042F001021A67C5E700F04AFB0646074B39
:102270001B6F13F0020F11D000F042FB801B41F2E4
:1022800088339842F3D9032069E000BF0038024048
:1022900000004742800E474200700040E5B9A36944
:1022A000002B5BD0304A926802F00C02082A58D00A
:1022B000022B17D02D4B00221A6000F021FB0446A0
:1022C000294B1B6813F0007F42D000F019FB001B64
:1022D0000228F5D9032042E0234A136C23F08053EF
:1022E0001364DCE7214B00221A6000F009FB05466D
:1022F0001D4B1B6813F0007F06D000F001FB401B54
:102300000228F5D903202AE0E369226A1343626AAE
:1023100043EA8213A26A5208013A43EA0243E26A9C
:1023200043EA0263104A5360104B01221A6000F026
:10233000E7FA04460C4B1B6813F0007F06D100F04F
:10234000DFFA001B0228F5D9032008E0002006E090
:10235000002004E001207047012000E0002002B0CE
:1023600070BD0120FBE700BF00380240600047421B
:10237000324B9B6803F00C03042B5CD0082B01D07C
:102380002F4870472DE9F04B2C4B5A6802F03F0262
:102390005B6813F4800F2BD0284B5B68C3F3881362
:1023A0001E4600275C010025E41A65EB0705A9011C
:1023B00041EA9461A001001B61EB0501CB0043EAF7
:1023C0005073C400A01943EB07014B0243EAD053FA
:1023D0004402204619460023FEF748FC174B5B6871
:1023E000C3F3014301335B00B0FBF3F0BDE8F08BB6
:1023F000124B5B68C3F388131E4600275C0100255F
:10240000E41A65EB0705A90141EA9461A001001BEC
:1024100061EB0501CB0043EA5073C400A01943EB04
:1024200007018B0243EA9053840220461946002399
:10243000FEF71CFCD2E70348704700BF003802409B
:102440000024F40000127A00002800F09D8070B58E
:1024500004464F4B1B6803F00F038B4209D2CBB2EB
:102460004B4A1370136803F00F038B4201D0012015
:1024700070BD236813F0020F17D013F0040F04D0BF
:10248000444A936843F4E0539360236813F0080FC1
:1024900004D0404A936843F4604393603D4A936894
:1024A00023F0F003A068034393600D46236813F004
:1024B000010F32D06368012B21D09A1E012A25D941
:1024C000344A126812F0020F60D032498A6822F052
:1024D000030213438B6000F013FA06462D4B9B68F2
:1024E00003F00C036268B3EB820F16D000F008FA19
:1024F000801B41F288339842F0D90320B8E7254A7F
:10250000126812F4003FE0D10120B1E7214A1268BD
:1025100012F0007FD9D10120AAE71D4B1B6803F000
:102520000F03AB4209D9EAB2194B1A701B6803F0CA
:102530000F03AB4201D001209AE7236813F0040F88
:1025400006D0144A936823F4E053E1680B43936088
:10255000236813F0080F07D00E4A936823F46043F2
:10256000216943EAC1039360FFF702FF094B9B68AF
:10257000C3F30313084AD35CD840084B186000200B
:10258000FFF766F9002073E70120704701206FE72D
:10259000003C02400038024070A300080400002004
:1025A000014B1868704700BF0400002008B5FFF712
:1025B000F7FF044B9B68C3F38223034AD35CD840E4
:1025C00008BD00BF0038024080A300080F2303604D
:1025D0000B4B9A6802F0030242609A6802F0F00224
:1025E00082609A6802F4E052C2609B68DB0803F4E0
:1025F000E0530361034B1B6803F00F030B6070474C
:1026000000380240003C024000230F2B00F2D7802C
:10261000F0B482B039E0072200E00022B2403A4331
:102620000234674E46F82420664A1468EA4302EAF8
:1026300004064F6817F4803F01D045EA0406614C58
:102640002660646802EA04064F6817F4003F01D070
:1026500045EA04065B4C6660A46802EA04064F681B
:1026600017F4801F01D045EA0406564CA660E468C2
:1026700022404E6816F4001F01D045EA0402514C76
:10268000E26001330F2B00F2978001229A400C6820
:1026900004EA0205AA42F4D14C68022C01D0122CA3
:1026A00010D1DE08083650F826C003F00704A70052
:1026B0000F24BC402CEA040C0C69BC4044EA0C0416
:1026C00040F8264004685F000326BE40F64306EA51
:1026D000040C4C6804F00304BC4044EA0C0404609D
:1026E0004C6804F1FF3CBCF1010F03D9112C01D05F
:1026F000122C10D1846806EA040CCC68BC4044EA71
:102700000C048460446824EA02024C68C4F3001498
:102710009C4014434460C26816408A68BA40324301
:10272000C2604A6812F0805FABD000220192264A54
:10273000546C44F480445464526C02F4804201921C
:10274000019A9C08A61C1E4A52F8267003F0030248
:1027500096000F22B24027EA02071C4A90423FF43B
:102760005CAF02F5806290421AD002F5806290421E
:1027700018D002F58062904216D002F58062904235
:1027800014D002F58062904212D002F5806290422D
:1027900010D002F5806290423FF43DAF08223DE741
:1027A00001223BE7022239E7032237E7042235E71B
:1027B000052233E7062231E702B0F0BC70477047CC
:1027C00000380140003C0140003802400000024057
:1027D0000369194201D1002070470120704712B9E6
:1027E00009048161704781617047436959404161C3
:1027F0007047000008B5054B5B69034200D108BD76
:10280000024B586104F0F4F9F9E700BF003C0140C5
:10281000074AD36823F4E0631B041B0C000200F496
:10282000E060184340F0BF6040F40030D060704773
:1028300000ED00E030B4174BDB68C3F30223C3F1B3
:102840000704042C28BF04241D1D062D18D9033BA2
:102850004FF0FF3505FA04F421EA0401994005FA26
:1028600003F322EA0303194300280BDB0901C9B271
:1028700000F1604000F5614080F8001330BC704703
:102880000023E5E700F00F000901C9B2024B19541B
:10289000F4E700BF00ED00E014ED00E000F01F02DF
:1028A000400901239340024A42F82030704700BF9C
:1028B00000E100E008B50B4B1A6842F400721A60A0
:1028C0001A6842F480621A601A6842F480721A60D0
:1028D0000320FFF79DFF0020FEF7BAFFFEF712FF6F
:1028E000002008BD003C0240034A1168034B1B78DE
:1028F0000B441360704700BF344F002008000020D5
:10290000014B1868704700BF344F002038B50446AB
:10291000FFF7F6FF0546B4F1FF3F02D0044B1B78EA
:102920001C44FFF7EDFF401BA042FAD338BD00BFA7
:102930000800002003685A6912F4806F0DD06FF40C
:1029400080625A610423036400230363202280F819
:102950003D2080F83C300120704700207047F8B5DA
:1029600006460C4617461D461EE02DB1FFF7C8FF70
:10297000069BC01AA84217D900233363202286F889
:102980003D2086F83E3086F83C3003201AE033685C
:102990005B6924EA03039BB2B3FA83F35B099F42AA
:1029A0000FD1B5F1FF3FE0D1C4F30743012BEED0C7
:1029B00033689B6924EA03039BB2B3FA83F35B0990
:1029C000EDE70020F8BDF8B504460D4616461F4653
:1029D00032E01A6842F400721A6023686FF4806271
:1029E0005A610423236400232363202284F83D20BA
:1029F00084F83C3001202DE026B1FFF781FFC01B99
:102A0000B04219D900232363202284F83D2084F8A2
:102A10003C3003201EE023685B6925EA03039BB278
:102A2000003318BF0123A3B123685A6912F4806FE1
:102A3000CFD1B6F1FF3FDFD1C5F30743012BEAD079
:102A400023689B6925EA03039BB2003318BF012367
:102A5000E9E70020F8BD0000F0B583B004460D465C
:102A600016461F46C36A042B0DD0012B0BD013F55D
:102A7000803F08D0036B122B0AD10268136843F41D
:102A80008073136004E02268136843F4807313605A
:102A90000097334600224FF001112046FFF75FFFF9
:102AA00058BB2369B3F5804F10D1236805F0FE05AC
:102AB0001D613B46324615492046FFF784FF034619
:102AC000E0B1236C042B1ED1012317E0EB11226827
:102AD00003F0060343F0F00313613B4632460C4912
:102AE0002046FFF770FF20B1236C042B09D101238E
:102AF00004E02368EDB21D61DBE70323184603B051
:102B0000F0BD0323FAE70323F8E700BF020001004A
:102B1000080001002DE9F04184B004460D46164638
:102B20001F46C26A01680B6843F480630B60042A85
:102B30000DD0012A0BD012F5803F08D0036B112B6A
:102B40000AD10268136843F48073136004E02268BA
:102B5000136843F4807313600097334600224FF0EC
:102B600001112046FFF7FBFE002852D12369B3F57F
:102B7000804F12D1236845F00105EDB21D613B463F
:102B800032462A492046FFF71EFF0346002841D05F
:102B9000236C042B48D101233CE04FEAE51808F0F0
:102BA0000608236848F0F0021A613B463246204985
:102BB0002046FFF708FF20B1236C042B2ED1012300
:102BC00028E02368EDB21D613B4632461749204696
:102BD000FFF7F9FE20B1236C042B21D1012319E06A
:102BE000002203922368596903919969039103991B
:102BF000196841F480711960009733464FF0011154
:102C00002046FFF7ACFE68B9226848F0F103136173
:102C1000B5E70323184604B0BDE8F0810323F9E7C4
:102C20000323F7E70323F5E70323F3E7020001009B
:102C30000800010070B504460D46164623685B691E
:102C400013F0800F19D12046FFF774FEB8B9B5F123
:102C5000FF3FF3D025B1FFF753FE801BA842EDD90B
:102C6000236C43F02003236400232363202284F891
:102C70003D2084F83C30032000E0002070BD01209E
:102C8000FCE770B504460D46164623685B6913F0F1
:102C9000040F19D12046FFF74DFEB8B9B5F1FF3F3B
:102CA000F3D025B1FFF72CFE801BA842EDD9236C91
:102CB00043F02003236400232363202284F83D2073
:102CC00084F83C30032000E0002070BD0120FCE7C8
:102CD00070B505460C4616462B685A6912F0400F2F
:102CE00022D15A6912F0100F11D124B1FFF708FE5A
:102CF000801BA042F0D92B6C43F020032B642023CF
:102D000085F83D30002385F83C30032070BD6FF01E
:102D100010025A6100232B642B63202285F83D208A
:102D200085F83C300120F1E70020EFE7002800F0B3
:102D3000828010B5044690F83D30002B41D024230A
:102D400084F83D302268136823F001031360FFF715
:102D50002DFC3A4BA3FB00239B0C22685360616857
:102D6000374A914232D80133226813626368344A89
:102D7000934235D85B00B0FBF3F0C0F30B03032B99
:102D800000D804202368D861E369216A22680B43D4
:102D900013602369E16822680B4393606369A1694A
:102DA00022680B43D3602268136843F00103136069
:102DB00000202064202384F83D30206384F83E0006
:102DC00010BD80F83C30FEF7FBFBB8E74FF496727D
:102DD00002FB03F31B4AA2FB03239B090133C3E756
:102DE000A16889B903EB4302B0FBF2F2C2F30B0214
:102DF000B2FA82F25209E2B991B903EB4303B0FB94
:102E0000F3F040F40040BDE703EB830202EB8202E3
:102E1000B0FBF2F2C2F30B02B2FA82F25209EAE715
:102E200003EB830303EB8303B0FBF3F040F4404078
:102E3000A8E70120A6E70120704700BF83DE1B43FF
:102E4000A0860100D34D62102DE9F04184B0044604
:102E50000E4690461F46FFF753FD94F83D30DBB217
:102E6000202B04D00226304604B0BDE8F081054690
:102E700000901923012254492046FFF770FD0028D5
:102E800040F0998094F83C30012B00F096800123AB
:102E900084F83C3023681A6812F0010F03D11A68D5
:102EA00042F001021A602268136823F40063136081
:102EB000212384F83D30102384F83E30002323641E
:102EC000C4F824806785A3F58033E362638D23858E
:102ED0002B460A9A31462046FFF7BEFD064660B1F2
:102EE000236C042B04D1002384F83C300126BAE77C
:102EF000002384F83C300326B5E7002303932368BE
:102F00005A6903929B690393039B10E0236C042B83
:102F100055D12268136843F4007313600126A2E7B9
:102F20002A460A992046FFF7ACFE00282BD1238DB4
:102F3000002B32D02A460A992046FFF77BFE002854
:102F4000E4D1636A5A1C626222681B781361638D44
:102F5000013B9BB26385238D013B9BB22385226895
:102F6000516911F0040FDBD0002BD9D0636A591CD2
:102F700061621B781361638D013B9BB26385238D76
:102F8000013B2385CCE7236C042B1AD122681368FC
:102F900043F400731360012665E72268136843F465
:102FA00000731360202384F83D30002384F83E3002
:102FB00084F83C3057E7022655E7022653E70326FC
:102FC00051E703264FE700BF020010002DE9F04152
:102FD00086B004460E4690461F46FFF791FC94F8D3
:102FE0003D30DBB2202B04D00226304606B0BDE8CF
:102FF000F08105460090192301228C492046FFF7F5
:10300000AEFC002840F04B8194F83C30012B00F0DE
:103010004881012384F83C3023681A6812F0010FBC
:1030200003D11A6842F001021A602268136823F47F
:1030300000631360222384F83D30102384F83E306F
:1030400000232364C4F824806785A3F58033E362FA
:10305000638D23852B460C9A31462046FFF75AFD97
:10306000064660B1236C042B04D1002384F83C3065
:103070000126BAE7002384F83C300326B5E7238D08
:103080005BB9029323685A6902929A690292029A82
:103090001A6842F400721A607AE0012B0FD0022BFA
:1030A0001FD02268136843F48063136000230593E4
:1030B00023685A6905929B690593059B68E022681D
:1030C000136823F4806313600023039323685A6911
:1030D00003929A690392039A1A6842F400721A6082
:1030E00056E02268136823F4806313602268136833
:1030F00043F4006313600023049323685A69049225
:103100009B690493049B43E02A460C992046FFF7F1
:10311000DFFD68B923681A69636A591C61621A7015
:10312000238D013B2385638D013B9BB263852FE09B
:10313000236C202B01D0012657E7032655E7009585
:103140000C9B00223A492046FFF709FC002840F07A
:10315000AA802268136843F40073136023681A6915
:10316000636A591C61621A70238D013B2385638D4C
:10317000013B9BB2638523681A69636A591C6162CB
:103180001A70238D013B2385638D013B9BB26385C0
:10319000238D002B7AD0032B4CD8012BB4D0022BDB
:1031A000CDD000950C9B002221492046FFF7D7FB8C
:1031B00000287AD12268136823F48063136023689F
:1031C0001A69636A591C61621A70238D013B238559
:1031D000638D013B9BB2638500950C9B00221449D3
:1031E0002046FFF7BCFB002861D12268136843F436
:1031F0000073136023681A69636A591C61621A704C
:10320000238D013B2385638D013B9BB2638523683E
:103210001A69636A591C61621A70238D013B238508
:10322000638D013B9BB26385B2E700BF02001000D3
:10323000040001002A460C992046FFF749FDF0B929
:1032400023681A69636A591C61621A70238D013BF5
:103250002385638D013B9BB2638523685A6912F015
:10326000040F95D01A69636A591C61621A70238D24
:10327000013B2385638D013B9BB2638588E7236C0B
:10328000202B01D00126B0E60326AEE6202384F8E9
:103290003D30002384F83E3084F83C30A5E6022619
:1032A000A3E60226A1E603269FE603269DE6032663
:1032B0009BE600BF00F1080343604FF0FF328260DD
:1032C000C3600361002303607047002303617047FC
:1032D00043684B609A688A609A6851609960086197
:1032E000036801330360704730B40D68B5F1FF3FE8
:1032F00002D000F1080202E0026904E01A465368B5
:103300001C68AC42FAD953684B6099608A6051607E
:10331000086103680133036030BC70470369426889
:10332000816891608268416851605A68824205D024
:1033300000220261186801381860704782685A607C
:10334000F6E70000084B1B681B683BB1064B1B6887
:10335000DB68DB685A68054B1A607047034B4FF017
:10336000FF321A60704700BF28030020FC030020D2
:103370002DE9F04780469946089D099F0A9C266BD7
:1033800002F18042013A06EB820626F0070600238E
:103390000F2B07D8C85CE21882F83400CA5C0AB167
:1033A0000133F5E7002384F84330062D00D90625C4
:1033B000E56265644FF0000AC4F848A0201DFFF7DD
:1033C00084FF04F11800FFF780FF2461C5F10705B1
:1033D000A5616462C4F84CA084F850A04A464146F6
:1033E000304600F057FB206007B13C60BDE8F08735
:1033F00038B5002407E004EB840293000E4818441B
:10340000FFF758FF0134062CF5D90C4D2846FFF77D
:1034100051FF0B4C2046FFF74DFF0A48FFF74AFFCC
:103420000948FFF747FF0948FFF744FF084B1D60B5
:10343000084B1C6038BD00BF30030020D4030020BF
:10344000E803002004040020300400201C040020B5
:10345000280300202C03002010B5044600F042FB96
:10346000204A1368013313601F4B1B685BB11F4B6D
:103470001B686BB91C4B1B68DA6AE36A9A4207D86F
:10348000194B1C6004E0184B1C601368012B26D0FC
:10349000174A136801331360E36A01229A40154901
:1034A000086802430A6003EB83039A00211D124857
:1034B0001044FFF70DFF00F037FB0C4B1B686BB19E
:1034C000094B1B68DA6AE36A9A4207D20B4B4FF04A
:1034D00080521A60BFF34F8FBFF36F8F10BDFFF79D
:1034E00087FFD5E7BC030020240300201804002038
:1034F000CC030020D00300203003002004ED00E0C6
:1035000070B504460E461D4B1D681D4B18680430EF
:10351000FFF704FF50B91A4B1B68DA6A012303FA5C
:1035200002F218490B6823EA02030B60B4F1FF3F73
:1035300013D02C44124B1B685C60A54216D8124B6A
:1035400018680F4B19680431FFF7CEFE0F4B1B684C
:10355000A34212D90D4B1C600FE0002EE9D0084B9E
:10356000196804310A48FFF7B3FE06E0094B1868F2
:10357000034B19680431FFF7B7FE70BD4404002007
:1035800024030020D003002028030020FC03002097
:103590001C0400202C03002030B587B00B9D0C9C30
:1035A0004DB18CB94FF0500383F31188BFF36F8F87
:1035B000BFF34F8FFEE74FF0500383F31188BFF343
:1035C0006F8FBFF34F8FFEE72563002503950294AD
:1035D00005AD01950A9D0095FFF7CAFE2046FFF74D
:1035E0003BFF059807B030BD10B588B000240594A6
:1035F000069407AA06A905A8FEF7D4F8059B02932E
:10360000069B019300942346079A0D490D48FFF746
:10361000C3FF08B908B010BD4FF0500383F3118801
:10362000BFF36F8FBFF34F8F074B4FF0FF321A601E
:10363000064B01221A60064B1C6000F0EFFAE9E726
:10364000BCA3000811390008FC0300201804002066
:1036500044040020024A136801331360704700BF1E
:10366000C8030020F8B53A4B1B68002B64D1394BD6
:103670001D6801351D60C5B9374B1B681B6843B118
:103680004FF0500383F31188BFF36F8FBFF34F8F59
:10369000FEE7314A1168314B186810601960304AF2
:1036A000136801331360FFF74DFE2E4B1B68AB42CE
:1036B00038D900242C4B1B68DB6A03EB83039A0088
:1036C0002A4B9B58012B3CD901243AE00124224B80
:1036D0001B681B6843B3204B1B68DB68DE6873689C
:1036E0009D4226D3371D3846FFF718FEB36A1BB13B
:1036F00006F11800FFF712FEF36A01229A401C49F6
:10370000086802430A6003EB83039A0039461748AE
:103710001044FFF7DDFDF26A134B1B68DB6A9A4227
:10372000D4D2D4E70024D2E70E4B4FF0FF321A6018
:10373000C0E70C4A1360BDE70E4A136801331360FB
:1037400000240D4B1B6803B101242046F8BD00BFC7
:10375000C803002044040020280300202C0300207C
:1037600000040020FC03002024030020300300207C
:10377000D0030020C40300204804002038B5334B98
:103780001B6843B94FF0500383F31188BFF36F8F69
:10379000BFF34F8FFEE700F0A5F92C4B1A68013AF2
:1037A0001A601B68002B4DD1294B1B6823B90024DC
:1037B00000F0BAF9204638BD0024264B1B681BB325
:1037C000244BDB68DC6804F11800FFF7A7FD251D1A
:1037D0002846FFF7A3FDE36A01229A401E490868C4
:1037E00002430A6003EB83039A0029461B481044F6
:1037F000FFF76EFDE26A1A4B1B68DB6A9A42DCD364
:10380000184B01221A60D8E70CB1FFF79BFD164B4D
:103810001C6854B1FFF726FF10B1124B01221A6049
:10382000013CF7D1104B00221A600E4B1B685BB1B4
:103830000E4B4FF080521A60BFF34F8FBFF36F8F64
:103840000124B5E70024B3E70024B1E7C803002052
:10385000BC03002004040020D0030020300300201B
:103860002403002048040020C403002004ED00E0ED
:1038700010B5A8B104460F4B1B6843B14FF050037D
:1038800083F31188BFF36F8FBFF34F8FFEE7FFF70E
:10389000E1FE00212046FFF733FEFFF76FFF38B946
:1038A000054B4FF080521A60BFF34F8FBFF36F8FFD
:1038B00010BD00BFC803002004ED00E0114B1B68E1
:1038C000FBB110B5FFF7C6FE0F4B1C68FFF756FFA4
:1038D00024B90C4B1B68002BF4D110BD00F002F989
:1038E000094BDB68D8680430FFF718FD074A1368F6
:1038F000013B1360034A1368013B136000F014F9A5
:10390000E7E77047C003002030040020BC0300201C
:1039100008B5FFF7D3FF064B1B68012BF9D9054B00
:103920004FF080521A60BFF34F8FBFF36F8FF0E7F5
:103930003003002004ED00E0204B1B681BB1204B3E
:1039400001221A6070471E4B00221A601D4B1B6833
:10395000B3FA83F3DBB2C3F11F0303EB83018A00E5
:1039600019498A5842B94FF0500383F31188BFF3C5
:103970006F8FBFF34F8FFEE710B413489A00D4182F
:10398000A10001444C6864684C601A4491000831FD
:10399000084484420BD003EB83039A000A4B134480
:1039A0005B68DA68094B1A605DF8044B7047616820
:1039B0000548142202FB03025160ECE7C803002013
:1039C00048040020D00300203003002024030020FE
:1039D000842801D0033070470020704708B5FFF7F6
:1039E00003FE002008BD2DE9F04184B0044688465E
:1039F000456806680769B0F90800FFF7E9FF6369E1
:103A0000A26902920193009043463A463146284605
:103A1000FFF7C2FD04B0BDE8F08108B5034600B968
:103A200001231846FFF724FF002008BD0B4B1B683D
:103A3000B3F1FF3F08D04FF0500383F31188BFF379
:103A40006F8FBFF34F8FFEE74FF0500383F3118862
:103A5000BFF36F8FBFF34F8FFEE700BF0C00002056
:103A600006480068006880F3088862B661B6BFF354
:103A70004F8FBFF36F8F00DF00BF000008ED00E045
:103A8000DFF80C00016841F470010160704700002C
:103A900088ED00E04FF0807340F8043C21F0010114
:103AA00040F8081C054B40F80C3C40F8202C6FF007
:103AB000020340F8243C4438704700BF2D3A000808
:103AC000074B19680868B0E8F04F80F30988BFF326
:103AD0006F8F4FF0000080F311887047AFF30080C4
:103AE000240300204FF0500383F31188BFF36F8F3E
:103AF000BFF34F8F0A4A136801331360012B00D0C4
:103B00007047084B1B6813F0FF0FF9D04FF05003BC
:103B100083F31188BFF36F8FBFF34F8FFEE700BFB2
:103B20000C00002004ED00E0094B1B6843B94FF086
:103B3000500383F31188BFF36F8FBFF34F8FFEE7FE
:103B4000013B034A13600BB983F31188704700BF30
:103B50000C00002000000000000000000000000039
:103B6000EFF30980BFF36F8F154B1A681EF0100F2B
:103B700008BF20ED108A20E9F04F10604DF8043D99
:103B80004FF0500080F31188BFF34F8FBFF36F8F5A
:103B9000FFF7D2FE4FF0000080F3118808BC1968CF
:103BA0000868B0E8F04F1EF0100F08BFB0EC108AA4
:103BB00080F30988BFF36F8F704700BFAFF30080B9
:103BC0002403002008B54FF0500383F31188BFF39E
:103BD0006F8FBFF34F8FFFF745FD18B1034B4FF0C9
:103BE00080521A60002383F3118808BD04ED00E0C1
:103BF000064B1B68064AA2FB03239B09013B054AAF
:103C00001360054B07221A60704700BF04000020B4
:103C1000D34D621014E000E010E000E0314B1A6870
:103C2000314B9A420DD02F4B1A68304B9A4211D12A
:103C30004FF0500383F31188BFF36F8FBFF34F8FA3
:103C4000FEE74FF0500383F31188BFF36F8FBFF38C
:103C50004F8FFEE700B583B0254B1A78D2B20192A0
:103C6000FF221A701B78DBB28DF803309DF8033009
:103C700003F050031F4A13701F4B07221A609DF870
:103C8000033013F0800F0AD01B4A1368013B136006
:103C90009DF803305B00DBB28DF80330EFE7164A86
:103CA00013681B0203F4E0631360019BDBB2104A4C
:103CB0001370124B1A6842F470021A601A6842F0CC
:103CC00070421A60FFF794FF0D4B00221A60FFF755
:103CD000D7FE0C4A136843F040431360FFF7C0FE61
:103CE000FFF7A4FE00ED00E071C20F4170C20F416A
:103CF00000E400E04C0400205004002020ED00E02F
:103D00000C00002034EF00E0DFF834D0002103E0A5
:103D10000C4B5B58435004310B480C4B42189A42F1
:103D2000F6D30B4A02E0002342F8043B094B9A42C7
:103D3000F9D3FDF711FD05F0CFFA00F07BF87047DD
:103D4000000002206CA9000800000020B400002040
:103D5000B40000203C4F0020FEE7000008B50268D8
:103D6000034B9A4200D008BDFEF7BEFDFBE700BF43
:103D7000000C004008B54FF480410348FEF735FDC4
:103D8000C820FEF7C3FDF6E7000C024000B595B071
:103D90003022002108A805F0D6FA002303930493EB
:103DA0000593069307930193204A116C41F08051CB
:103DB0001164126C02F080520192019A02931C4B22
:103DC0001A6842F480421A601B6803F4804302932D
:103DD000029B012308934FF48033099302230E932F
:103DE0004FF480020F9204221092A8221192129393
:103DF0000723139308A8FEF7EFF898B90F2303934E
:103E000002230493002305934FF4A05306934FF429
:103E100080530793052103A8FEF716FB20B915B0C0
:103E20005DF804FBFFF7A6FFFFF7A4FF0038024090
:103E30000070004030B52DED028B85B0FEF73AFDE5
:103E4000FFF7A4FFFDF792F8FDF78AF9FDF7BAF93D
:103E5000FDF7E8F9FDF724FB404C01224FF4004147
:103E60002046FEF7BCFC01224FF400512046FEF72D
:103E7000B6FCFDF787FB01F039FB00224FF400414F
:103E80002046FEF7ACFC00224FF400512046FEF71E
:103E9000A6FC00F0CBFE324805F08EFBFEF730FDAD
:103EA0000446FDF78BFCFFF799FD9FED2E8A03E09A
:103EB000FEF726FDA04214D1F2EE0E7AB4EEE78AA8
:103EC000F1EE10FAF4DD254D4FF480412846FEF75F
:103ED0008CFC4FF480512846FEF787FC9FED218A29
:103EE000E6E7214805F068FBF7EE007A38EE278A0E
:103EF000FEF706FD044601F04FFFDFED1A8A1B4D69
:103F0000B0EE680A284602F003FBB0EE680A05F13D
:103F1000580002F0FDFAB0EE680A154802F0FEFE05
:103F20000A2101A801F0FCFADDED037AFDEEE77A43
:103F300017EE903ADDED027AFDEEE77A17EE902A61
:103F4000DDED017AFDEEE77A17EE901A094805F0EB
:103F5000ABFA0A2005F0C0FAAEE700BF000C024041
:103F6000C4A3000800000000D8A30008F404002047
:103F7000A4050020E0A3000808B54FF480410348E1
:103F8000FEF733FCC820FEF7C1FCF6E7000C024048
:103F900008B54FF480415F48FEF71AFC08BB0123C7
:103FA0005D4A13705D4A13705D4805F07DFA4FF469
:103FB00080615848FEF70CFC002840F09180594879
:103FC00005F072FA0022062A00F3A380564B03EB99
:103FD0008203D3ED007AF1EE677AC3ED007A013205
:103FE000F1E710215148FEF7F3FB20BB504805F0E4
:103FF0005BFA494B02221A704E4BD3ED017AB0EEB8
:10400000007A77EEC77AFDEEE77A4B4AC2ED047A82
:10401000C2ED1A7A444B93ED017A0022062AC6DCDF
:10402000414B03EB8203D3ED007A77EEC77AC3ED01
:10403000007A0132F2E74FF480513648FEF7C8FBB0
:1040400000BB3E4805F030FA334B04221A70394B5E
:10405000D3ED027AFDEEE77A374AC2ED047AC2ED7B
:104060001A7A314B93ED027A0022062A9FDC2E4BFE
:1040700003EB8203D3ED007A77EEC77AC3ED007AC3
:104080000132F2E702212E48FEF7A2FB08BB2D48C1
:1040900005F00AFA204B07221A70264BD3ED057A59
:1040A000FDEEE77A244AC2ED047AC2ED1A7A1E4B7D
:1040B00093ED057A0022062A3FF779AF1A4B03EBFE
:1040C0008203D3ED007A77EEC77AC3ED007A01322E
:1040D000F1E71D4805F0E8F90F4B01221A7066E779
:1040E00010211A48FEF774FB80B1194805F0DCF97D
:1040F0000022062A0DDC0C4B03EB8203D3ED007A81
:10410000F1EE677AC3ED007A0132F2E7114805F06B
:10411000CBF908BD000802406C04002054040020C4
:1041200068A40008BCA4000814000020000002409D
:1041300078A4000830000020F404002084A40008C3
:10414000000C024098A40008ACA400080010024033
:10415000D8A40008C8A4000803680A6802600B60BD
:10416000704700000000000030B52DED028B85B0D7
:10417000044603780A2B00F23583DFE813F00B00C6
:10418000E0000A016B01BB01E5010F024802A70232
:10419000030337039E4B1B781BB99E4A1278002AF3
:1041A00035D1002B51D14FF480419B48FEF710FBD5
:1041B00028B110219948FEF70BFB00284ED10022B0
:1041C00004219548FEF70BFB914B01221A70914B8D
:1041D00000221A70924B1A6801925A6802929B68E8
:1041E0000393904C01A92046FFF7B6FF02A9201DBA
:1041F000FFF7B2FF03A904F10800FFF7ADFF01F0DC
:104200006BFD002877D1884805F0D6F9EAE2844BA7
:104210001A6801925A6802929B680393814C01A923
:104220002046FFF799FF02A9201DFFF795FF03A97C
:1042300004F10800FFF790FFD4ED027AB0EE007AA7
:1042400077EE877AC4ED027AADE7724B00221A70DE
:10425000012204217048FEF7C2FAA4E74FF480510E
:104260006D48FEF7B5FA0028A9D002216F48FEF785
:10427000AFFA0028A3D04FF400716C48FEF7A8FAFB
:10428000002848D1694C00224FF480512046FEF7A7
:10429000A6FA00224FF400512046FEF7A0FA0022B1
:1042A0004FF480412046FEF79AFA00224FF4004175
:1042B0002046FEF794FA002204215748FEF78FFAB1
:1042C000534B00221A705A4B1B78BFF35B8F13F0CD
:1042D000010F13D0FEF714FB564B1B68C31AB3F53E
:1042E000FA7FC0F07F8201F0F7FC002800F07A82AC
:1042F000FFF74EFE76E2FFF74BFE84E74C4803F0F3
:104300009BFA0028E6D0FEF7FBFA4A4B18604848B3
:1043100003F09EFADEE79FED488A484CB0EE480A6B
:10432000204602F0F5F8B0EE480A04F1580002F019
:10433000EFF8B0EE480A424802F04AFD52E2414826
:1043400005F0B2F8404BD3ED007A404B93ED000AF4
:10435000FDEEE77A17EE900A01F0FAFD002800F072
:10436000418202232370314C4FF480512046FEF7E6
:104370003CFA4FF400512046FEF737FA4FF48041E3
:104380002046FEF732FA4FF400412046FEF72DFAA0
:1043900028E22F4805F088F82C4B93ED010A6320A2
:1043A00001F0D6FD4FF400612048FEF711FA68B124
:1043B000224BD3ED047AF8EEE77A234B93ED017AA2
:1043C000F4EEC77AF1EE10FA40F30C820323237067
:1043D0001D4BD3ED017AFDEEE77A184AC2ED047A5F
:1043E000C2ED1A7A114C4FF480512046FEF7FDF9C8
:1043F0004FF400512046FEF7F8F94FF48041204673
:10440000FEF7F3F94FF400412046FEF7EEF9E9E13B
:104410005404002011000020000802400000024067
:10442000100C00201C0C0020F0A30008000C02401F
:10443000580400206004002000000000F404002064
:10444000A405002004A4000830000020140000206F
:104450000CA40008BA4805F027F8BA4B93ED020AFD
:10446000642001F075FD4FF48071B748FEF7B0F994
:1044700080B9B64B93ED047AB8EEC77AB44BD3ED5E
:10448000027AF7EE006A77EEE67AB4EEE77AF1EEBA
:1044900010FA0DDCAD4BD3ED047AF8EEE77AAC4BB5
:1044A00093ED027AF4EEC77AF1EE10FA40F39A81B6
:1044B00004232370A64BD3ED027AFDEEE77AA34ADC
:1044C000C2ED047AC2ED1A7A9F4C4FF48051204617
:1044D000FEF78BF94FF400512046FEF786F94FF4B2
:1044E00080412046FEF781F94FF400412046FEF757
:1044F0007CF977E1974804F0D7FF954BD3ED037A29
:10450000904B93ED030AFDEEE77A17EE900A01F067
:104510001FFD002800F06681052323708A4C4FF4AC
:1045200080512046FEF761F94FF400512046FEF716
:104530005CF94FF480412046FEF757F94FF40041F3
:104540002046FEF752F94DE1834804F0ADFF804B61
:10455000D3ED047A7B4B93ED040AFDEEE77A17EE78
:10456000900A01F0F5FC002800F03C81062323703E
:10457000754C4FF480512046FEF737F94FF4005147
:104580002046FEF732F94FF480412046FEF72DF920
:104590004FF400412046FEF728F923E16F4804F06C
:1045A00083FF6F4B1B7893B9694BD3ED057A654B4D
:1045B00093ED050AFDEEE77A17EE900A01F0C8FCCC
:1045C000002800F00F81664B01221A700AE101F009
:1045D00003FB002800F0068107232370614B0022B3
:1045E0001A70594C4FF480512046FEF7FEF84FF4F4
:1045F00000512046FEF7F9F84FF480412046FEF7BF
:10460000F4F84FF400412046FEF7EFF8EAE0564890
:1046100004F04AFF9FED558A4C4DB0EE480A2846FB
:1046200001F076FFB0EE480A05F1580001F070FF86
:10463000B0EE480A4E4802F0CBFB4FF4006142480E
:10464000FEF7C6F898BB474B1B78002B00F0CA80DA
:1046500008232370474B93ED007ADFED477A67EE2E
:10466000277A17EE900AFBF777FF33A3D3E90023ED
:10467000FCF7F4F8FCF7AAFA324B9861394B0022A8
:104680001A70314C4FF480512046FEF7AEF84FF4CB
:1046900000512046FEF7A9F84FF480412046FEF76E
:1046A000A4F84FF400412046FEF79FF89AE04FF43B
:1046B00080712548FEF78CF80028C4D04FF4806143
:1046C0002148FEF785F80028BDD08BE02B4804F088
:1046D000EBFE2B4B1B788BB91D4BD3ED067A194B98
:1046E00093ED060AFDEEE77A17EE900A01F030FC32
:1046F000002877D0224B01221A7073E001F06CFA87
:1047000000286FD0092323700F4C4FF480512046AE
:10471000FEF76BF84FF400512046FEF766F84FF4B1
:1047200080412046FEF761F84FF400412046FEF735
:104730005CF857E0AFF30080182D4454FB2109408A
:1047400018A4000814000020000C0240F40400200B
:104750003000002024A4000830A400083CA4000875
:104760005C0400205404002048A40008000000005D
:10477000A4050020280C00200000344354A40008A5
:104780005D040020224804F017FF9FED228A224C8E
:10479000B0EE480A204601F0BBFEB0EE480A04F134
:1047A000580001F0B5FEB0EE480A1C4802F0B6FA17
:1047B0001B4C4FF480512046FEF717F84FF4005180
:1047C0002046FEF712F84FF480412046FEF70DF820
:1047D0004FF400412046FEF708F801220421114859
:1047E000FDF7FDFF05B0BDEC028B30BD0A4CB2EE0B
:1047F000040A204601F08CFEB2EE040A04F15800CF
:1048000001F086FE9FED030A044802F087FAE9E70B
:1048100060A4000800000000F4040020A4050020AB
:10482000000C02400000024010B50948FFF79CFC54
:10483000084C204601F08EFD074B83ED000A04F181
:10484000580001F087FD054B83ED000A012010BDE3
:104850006C0400203005002064040020680400205F
:104860007047000007EE901AF8EE676ADFED217AD4
:1048700086EEA77A90ED016AD0ED025AD0ED037A68
:10488000C7EE876A76EE867A27EE257A37EE467A85
:1048900036EEA66A37EE467A67EE807A90ED076AC2
:1048A00026EE077A77EE877A90ED087A67EE266A29
:1048B00077EEA67A90ED067A77EE877AC0ED067AE3
:1048C00090ED047AF4EEC77AF1EE10FA09DC90ED7F
:1048D000057AF4EEC77AF1EE10FA04D580ED067A87
:1048E00001E080ED067A80ED086A80ED070A90ED20
:1048F000060A704700007A447047D0ED016A90EDD7
:10490000027AD0ED077A70EE277AC0ED077A67EE6B
:10491000877A90ED047AF4EEC77AF1EE10FA18DD9A
:104920000023C361F0EE477A20EE260A70EE277A64
:10493000C0ED067AF4EEC77AF1EE10FA15DC90EDD0
:10494000057AF4EEC77AF1EE10FA10D580ED067A0A
:104950000DE090ED056AF4EEC67AF1EE10FAE3D5BB
:104960000023C361F0EE467ADEE780ED067A90ED33
:10497000060A704770470000074B08499963084AC8
:10498000DA632031C3F890100C32C3F89420054A42
:104990005A65C3F8AC207047F4040020700400206E
:1049A000D004002048E1FA3E024B034A9A60034AD1
:1049B000DA607047A4050020B0040020E80400205D
:1049C00030B4134B134D9D61134CDC6100221A620D
:1049D00012485862124999621D675C679A67D867E6
:1049E000C3F880100F4B104999621049D9621A63BD
:1049F0000F4959630F4999630F49D9640F491965E4
:104A00005A654FF07F529A650D4ADA6530BC70479F
:104A1000F40400206666E63F0000F04100008C418F
:104A200000008CC1A405002033331340000048422D
:104A300000000C4100000CC19A99993E17B75139FA
:104A40000000C0BF044B054A1A6001229A80044A44
:104A50009A6004229A817047F40400200008024002
:104A600000000240034B044A934201D0583BFAE74E
:104A7000704700BFA4050020F4040020F8B51E4CC8
:104A80001E48A0611E4AA2604FF48063A381226188
:104A90004FF48073A3820C27E7611A4921601A4BF7
:104AA0006360A063194DA5624FF40065A58522637C
:104AB0004FF40042A2860425E56321626362A0658B
:104AC000134AA2640121A4F84C102265A4F85450A2
:104AD0000826E6650F4A22646364FCF77EFF2946D8
:104AE000A069FDF7E3F93946A06BFDF7DFF9314620
:104AF000A06DFDF7DBF9F8BD70040020540C002018
:104B00000000024000008C41CDCCCC3D00080240AA
:104B1000000C02408FC20D4138B50F4C00232370AA
:104B20004FF47A6525810D4860601821FDF7DAF9A8
:104B300001232373A5820A4820611821FDF7D2F9C9
:104B40000223237641F60E7323840648E061182180
:104B5000FDF7C8F938BD00BFD0040020CC0C002000
:104B6000080D0020900C0020012800D070474FF65F
:104B7000FF739942FAD110B51E4B002815DB0021B6
:104B8000196100229A61DA611A621B4C5C61DA6277
:104B90001A635A63996319645A649A64DA641965EA
:104BA000D9635A6558330138E7E7144C2246144953
:104BB000002002F050FE13480022826002610023B0
:104BC00043618361C3610262C2608362C362036343
:104BD000094A4262C36303644364C3640365436573
:104BE000094A8264036643662246084902F033FE9E
:104BF00010BD00BFF404002040A500080000002004
:104C0000654A0008A405002054A50008754900085D
:104C100010B50446202102F023FE204610BD10B539
:104C20000446242102F01CFE204610BD08B5FFF703
:104C300025FFFFF771FFFFF7C3FEFFF703FFFFF745
:104C40009BFEFFF7B1FE08BD08B54FF6FF710120CE
:104C5000FFF78AFF08BD704770477047704770477D
:104C60007047000010B50A480A4B0360D02280F854
:104C70002820002280F8302080F83120064C236064
:104C80003C23237401F00CFE204601F08BFD10BD87
:104C90002C060020440D00200C06002010B52DED40
:104CA000028BF8B007EE900AB8EE677ADFEDA67ACD
:104CB00087EE278A0222114667A802F069F99DF85B
:104CC000DC3113B19DF8DD311BB926219F48FFF778
:104CD00053F94FF07E5367939DF8DC311BB19DF87B
:104CE000DD31012B03D826219848FFF745F9F1EE75
:104CF000487ACDED687A9DF8DC31012B02D99DF818
:104D0000DD311BB926219148FFF736F900236B935B
:104D10009DF8DC31012B40F207819DF8DD31012B3C
:104D200040F202814FF07E536C930122022156A87B
:104D300002F02EF99DF8983113B19DF899311BB905
:104D400026218248FFF718F98DED568A9DF8983193
:104D5000012B02D99DF899311BB926217B48FFF719
:104D60000BF900235A930222012145A802F010F901
:104D70009DF8543113B19DF855311BB92621734864
:104D8000FFF7FAF84FF07E5345939DF854311BB16D
:104D90009DF85531012B03D826216C48FFF7ECF81C
:104DA000002346930222114634A802F0F1F89DF840
:104DB000103113B19DF811311BB926216348FFF75B
:104DC000DBF8634B34939DF810311BB19DF8113122
:104DD000012B03D826215D48FFF7CEF80023359339
:104DE0009DF81031012B02D99DF811311BB92621F4
:104DF0005648FFF7C1F8002338939DF81031012B76
:104E000040F297809DF81131012B40F29280504B77
:104E100039930222114623A802F0BAF89DF8CC304B
:104E200013B19DF8CD301BB926214848FFF7A4F8EF
:104E3000484B23939DF8CC301BB19DF8CD30012B0E
:104E400003D826214148FFF797F8002324939DF8C3
:104E5000CC30012B02D99DF8CD301BB926213B481F
:104E6000FFF78AF8002327939DF8CC30012B65D9F2
:104E70009DF8CD30012B61D9374B28930122114683
:104E800012A802F085F89DF8883013B19DF889309A
:104E90001BB926212D48FFF76FF8304B129367A9F5
:104EA00001A802F09BF82E4C01A9204602F013FA4B
:104EB00056A901A802F092F801A904F1440002F0F9
:104EC0000AFA45A901A802F089F801A904F18800AD
:104ED00002F001FA022101A802F07FF9422201A9A1
:104EE00004F1CC0004F024FA34A901A802F076F809
:104EF00001A904F5887002F0EEF923A901A802F0D7
:104F00006DF801A904F5AA7002F0E5F912A901A84B
:104F100002F064F801A904F5CC7002F0DCF900207D
:104F200078B0BDEC028B10BD26210848FFF724F8AD
:104F3000F8E626210548FFF71FF868E72621034811
:104F4000FFF71AF898E700BF00007A4460A5000850
:104F5000000020416F12833AA69B443B0AD7233DB1
:104F60006006002070B504460E4615460122022157
:104F70000C3002F00DF80122114604F1500002F04D
:104F800007F80122114604F1940002F001F8012211
:104F9000022104F1D80001F0FBFF01232371A66078
:104FA0002560204670BD00002DE9F0412DED028BFB
:104FB000ADF52A7D0446B0EE408A037913B3036849
:104FC000084698470023237194F84C3013B194F8A5
:104FD0004D301BB92621AF48FEF7CEFF84ED038A82
:104FE00094F84C3013B194F84D301BB92621A948E0
:104FF000FEF7C2FF94ED030A0DF52A7DBDEC028B8E
:10500000BDE8F081F0EE608A90F8903013B190F82E
:1050100091301BB926219F48FEF7AEFFC4ED148ADC
:1050200094F8D43013B194F8D5301BB9262199489F
:10503000FEF7A2FF84ED258AA16855A801F0CEFFF6
:1050400004F10C05294655A802F092F84426324690
:1050500055A966A804F06CF9A168314477A801F05D
:10506000BDFF04F1500177A802F082F8324677A91B
:1050700088A804F05DF988A966A801F0CDFF324642
:1050800066A999A804F054F942273A4699A92846F6
:1050900004F04EF9A16855A801F0A0FFA16801F540
:1050A000887155A802F064F8324655A966A804F044
:1050B0003FF9A16877A802F06BF877A966A802F01B
:1050C00057F8324666A988A804F032F9A16801F5BC
:1050D000AA7188A801F0A0FF324688A999A804F017
:1050E00027F9A0683A4699A900F5887004F020F9DC
:1050F000A16801F588710DEB060001F06FFFA16852
:105100008831684602F044F869460DEB060002F06B
:105110002FF832460DEB060122A804F009F9A16828
:10512000883133A801F05AFFA16801F5887133A8CE
:1051300002F01EF8324633A944A804F0F9F8A16839
:10514000883155A802F024F855A944A802F010F8B7
:10515000324644A966A804F0EBF8A16801F5CC71C9
:1051600066A801F059FF324666A977A804F0E0F876
:105170009DF81D229DF81C1288A801F009FF88A93E
:1051800077A802F0C9F8002870D088A922A801F0F9
:10519000EFFF4426324622A999A804F0C9F804F189
:1051A000D8074FF04208424699A9384604F0C0F8A3
:1051B000394688A801F012FF04F1940166A801F0B5
:1051C0000DFFA168883144A801F008FF294644A8D2
:1051D00001F0CEFF324644A955A804F0A9F855A91C
:1051E00066A801F049FF324666A977A804F0A0F846
:1051F00077A988A801F0BCFF324688A999A804F0D5
:1052000097F899A9284601F007FFA168CC3177A843
:1052100001F0E4FE394655A801F0E0FEA1688831AE
:1052200055A801F0A5FF324655A966A804F080F8FC
:1052300066A977A801F020FF324677A988A804F074
:1052400077F8A16801F5887188A801F091FF3246CE
:1052500088A999A804F06CF8A068424699A900F5BD
:10526000887004F065F8BBE60130C0B29DF860328A
:1052700083428AD900239DF861229A42F4D903EB34
:105280008002AAA901EB8202002142F8881C0133A6
:10529000DBB2F0E760A5000810B504460022114615
:1052A00001F076FE0022114604F1440001F070FE88
:1052B0000022114604F1880001F06AFE0022114626
:1052C00004F1CC0001F064FE0022114604F5887060
:1052D00001F05EFE0022114604F5AA7001F058FEAE
:1052E0000022114604F5CC7001F052FE204610BD9C
:1052F000012800D070474FF6FF739942FAD12DE98B
:10530000F0412DED028B604800238380C380038130
:1053100043818381C3810025056145618561C56144
:1053200005624562594C2246594902F094FA59489F
:1053300045608560C56045618561C5612246564905
:1053400002F089FA55480560456085602246544957
:1053500002F081FA9FED538A534EB0EE480A304670
:1053600001F0F8FD514D22462946304602F073FA0D
:105370004F4EB0EE480A304601F0ECFD2246294679
:10538000304602F068FA4B4EB0EE480A304601F063
:10539000E1FD22462946304602F05DFA464EB0EE67
:1053A000480A304601F0D6FD22462946304602F032
:1053B00052FA424EB0EE480A304601F0CBFD22468A
:1053C0002946304602F047FA3D4EB0EE480A3046D4
:1053D00001F0C0FD22462946304602F03CFA394E23
:1053E000B0EE480A304601F0B5FD22462946304667
:1053F00002F031FA344EB0EE480A304601F0AAFD10
:1054000022462946304602F026FA304EB0EE480ACF
:10541000304601F09FFD22462946304602F01BFA35
:105420002B4D2846FFF738FF22462A49284602F02E
:1054300012FA294FDFF8A8803A4629464046FFF77E
:1054400091FD264E22463146404602F004FADFF82E
:1054500094803A4629464046FFF784FD224631466D
:10546000404602F0F8F9DFF880803A462946404687
:10547000FFF778FD22463146404602F0ECF9BDECDC
:10548000028BBDE8F08100BF2C0600200000002048
:105490005D4C00080C0600205F4C00083C08002012
:1054A0005B4C0008295C0F3DE40B0020574C0008C2
:1054B000F00B0020FC0B0020C00B0020CC0B0020C8
:1054C000D80B0020800A00208C0A0020980A0020B7
:1054D00060060020614C00089D4C0008594C0008F3
:1054E00064090020A40A00204808002010B584B0F8
:1054F000FFF7B8FB01AC4FF47A720649204601F081
:10550000EDFA054B94E8070083E80700002004B09B
:1055100010BD00BF2C0600203C0800200000000049
:10552000F0B52DED0C8B93B004460F460023069387
:105530000793089303930493059303604360836088
:10554000D54D284601F0BEFAD44E304601F05EF942
:10555000EB6900932B6A01936B6A0293694606A874
:10556000FEF7FAFD01A907A8FEF7F6FD02A908A8B3
:10557000FEF7F2FD95ED049AD5ED058A95ED068AC4
:10558000C74BD3ED007A39EE679AD3ED017A78EE06
:10559000E78AD3ED027A38EE678A73680093B368BE
:1055A0000193F3680293694603A8FEF7D5FD01A9AC
:1055B00004A8FEF7D1FD02A905A8FEF7CDFDDDED9B
:1055C000037A9FEDB87A77EEC77ACDED037ADDEDF9
:1055D000047A9FEDB57A77EE877ACDED047ADDED2A
:1055E000057A9FEDB27A77EE877ACDED057A12A92A
:1055F000069B41F8243DAE4801F0B1FCB0EE40DA24
:1056000012A9079B41F8203DAA4801F0A8FCF0EE42
:1056100040BA12A9089B41F81C3DA74801F09FFC25
:10562000F0EE409A12A919EE103A41F8183DA3483D
:1056300001F095FCB0EE40AA12A918EE903A41F89C
:10564000143D9F4801F08BFCF0EE40DA12A918EEF1
:10565000103A41F8103D9B4801F081FCB0EE40BA91
:1056600012A9039B41F80C3D974801F078FCB0EE7D
:10567000409A12A9049B41F8083D944801F06FFC40
:10568000F0EE408A12A9059B41F8043D904801F0D4
:1056900066FCB0EE408AF0EE690AB0EE6B0A02F0EA
:1056A00003FB10EE100AFAF757FF79A3D3E90023A2
:1056B000FAF7AAFFFBF78AFA3946F0EE4A0A00EE3B
:1056C000100A8448FFF770FC10EE106A10EE100A02
:1056D000FAF742FF6EA3D3E90023FBF7BFF841ECD2
:1056E0001A0B41EC100B02F07FFA51EC100BFBF798
:1056F0006DFA0CEE900AB0EE4A0AF0EE6A0A02F079
:10570000BFF951EC100BFBF761FA0CEE100A6BEECF
:10571000AC0A69EE8C9A70EEA90AB1EE4D0A02F05D
:10572000C3FA10EE100AFAF717FF59A3D3E90023C2
:10573000FAF76AFFFBF74AFA3946F0EE6D0A00EE17
:10574000100A6548FFF730FC10EE105A10EE100AF0
:10575000FAF702FF4EA3D3E90023FBF77FF841ECF1
:105760001A0B41EC100B02F03FFA51EC100BFBF757
:105770002DFA09EE900AB0EE4A0AF0EE6A0A02F03B
:105780007FF951EC100BFBF721FA0AEE100A534B8C
:105790001B78002B55D128EE2C0A68EE8C7A29EE66
:1057A0000A9A68EEAC8A68EEA98A79EE288A28EE11
:1057B0000C8A28EE298A78EE880A30EE670A02F011
:1057C00073FA10EE100AFAF7C7FE31A3D3E90023EB
:1057D000FAF71AFFFBF7FAF900EE100A404BD3ED87
:1057E000007A9FED407AF4EEC77AF1EE10FA06DB0C
:1057F0009FED3D7AF4EEC77AF1EE10FA0DD99FEDE8
:105800003B7AF4EEC77AF1EE10FA0BDB9FED387AB3
:10581000F4EEC77AF1EE10FA04D8B5EEC00AF1EE54
:1058200010FA6BD43946F0EE4B0A3248FFF7BCFB56
:105830002660656084ED020A204613B0BDEC0C8B37
:10584000F0BD28EE2C7A28EE8C0A69EE0A7A68EE12
:10585000AC0A60EEA90A77EEA07A68EE0C0A60EE58
:10586000A90A77EEA00A37EE400A02F01DFA10EE00
:10587000100AFAF771FE06A3D3E90023FAF7C4FE73
:10588000FBF7A4F9164B1860144B00221A7082E73C
:105890006666666666A64C402C0600200C06002054
:1058A0003C0800200000BC42000070429A191643D8
:1058B000E40B0020F00B0020FC0B0020C00B0020AC
:1058C000CC0B0020D80B0020800A00208C0A00207E
:1058D000980A002064090020A40A00204C0000203F
:1058E000080C00200000B44200003443000034C320
:1058F0000000B4C2480800200000B4435FED027A03
:1059000030EE270A8EE700BF08B54FF6FF71012081
:10591000FFF7EEFC08BD0000012800D070474FF6ED
:10592000FF739942FAD170B50948002404604460BD
:105930008460084E084D3246294601F08CFF074826
:105940000460446084603246294601F084FF70BDE3
:105950001C0C0020000000205B4C0008100C0020F4
:1059600008B52DED028B264BD3ED007A30EE670A99
:10597000DFED247A60EE277A17EE900AFAF7ECFD55
:1059800019A3D3E90023FAF769FFFBF71FF908EE23
:10599000100AB5EEC08AF1EE10FA12DBFAF7DCFD60
:1059A00013A3D3E90023FBF7BFF838B9B0EE480AD8
:1059B000154801F00DFABDEC028B08BDB2EE068A67
:1059C000F4E7FAF7C9FD0CA3D3E90023FBF78EF83F
:1059D00008B1BAEE068AB0EE480A0B4801F0F8F9B1
:1059E000E9E700BFAFF30080182D4454FB210940C4
:1059F000E3505AF3FFFF2540E3505AF3FFFF25C061
:105A0000280C002000003443A40500200000000002
:105A100008B52DED028B204BD3ED007A30EE670AEE
:105A2000DFED1E7A60EE277A17EE900AFAF794FD02
:105A300015A3D3E90023FAF711FFFBF7C7F808EE27
:105A4000100AF0EEC87A17EE900AFAF785FD10A357
:105A5000D3E90023FBF754F860B9B5EEC08AF1EE44
:105A600010FA0DDDBAEE060A0D4801F0B1F9BDECF1
:105A7000028B08BD9FED0B0A094801F0A9F9F6E772
:105A8000B2EE060AF0E700BF182D4454FB2109408E
:105A9000E3505AF3FFFF2540280C00200000344358
:105AA000A40500200000000008B52DED028BB0EE2B
:105AB000408A184B1B6883420ED0174800F090FDB7
:105AC000D8B1154800F08CFD01281DD09FED130AB8
:105AD000134801F023F914E0124BD3ED007A124A77
