:020000040800F2
:1000000000000220993D0008B7190008B91900083E
:10001000BB190008BD190008BF1900080000000046
:10002000000000000000000000000000C1190008EE
:10003000C319000800000000C5190008C71900080E
:10004000E93D0008E93D0008E93D0008E93D0008F8
:10005000E93D0008E93D0008CF190008E93D000826
:10006000D9190008E3190008ED190008E93D000856
:10007000E93D0008E93D0008E93D0008E93D0008C8
:10008000E93D0008E93D0008E93D0008E93D0008B8
:10009000E93D0008E93D0008E93D0008F7190008BE
:1000A000E93D0008E93D0008E93D0008E93D000898
:1000B000E93D0008E93D0008E93D0008E93D000888
:1000C000E93D0008E93D0008E93D0008E93D000878
:1000D000E93D0008E93D0008E93D0008E93D000868
:1000E0000B1A0008E93D0008E93D0008E93D000859
:1000F000E93D0008E93D0008E93D0008E93D000848
:10010000E93D0008E93D0008E93D0008E93D000837
:10011000E93D0008E93D0008E93D0008E93D000827
:10012000E93D0008E93D0008E93D0008E93D000817
:10013000E93D0008E93D0008E93D0008E93D000807
:10014000E93D0008E93D0008E93D0008E93D0008F7
:10015000E93D0008E93D0008E93D0008E93D0008E7
:10016000E93D0008E93D0008E93D0008E93D0008D7
:10017000E93D0008E93D0008E93D000800000000F5
:08018000E93D0008E93D00081B
:1001900010B5054C237833B9044B13B10448AFF3C1
:1001A00000800123237010BDBC000020000000006F
:1001B00098AF000808B5034B1BB103490348AFF3E0
:1001C000008008BD00000000C000002098AF0008BB
:1001D00010F8012B11F8013B012A28BF9A42F7D0F1
:1001E000D01A70470000000000000000000000006E
:1001F00001F0FF01102A2BDB10F0070F08D010F8D8
:10020000013B013A8B422DD010F0070F42B3F6D1DB
:10021000F0B441EA012141EA014122F007047FF0F4
:1002200000070023F0E80256083C85EA010586EA4B
:10023000010685FA47F5A3FA87F586FA47F6A5FA87
:1002400087F68EB9EED1F0BC01F0FF0102F0070293
:1002500032B110F8013B013A83EA010313B1F8D13E
:100260000020704701387047002D06BF354603381F
:10027000073815F0010F07D1013015F4807F02BF58
:10028000013015F4C03F0130F0BC0138704700BFA9
:1002900081F0004102E000BF83F0004330B54FEA37
:1002A00041044FEA430594EA050F08BF90EA020FA4
:1002B0001FBF54EA000C55EA020C7FEA645C7FEA37
:1002C000655C00F0E2804FEA5454D4EB5555B8BF5A
:1002D0006D420CDD2C4480EA020281EA030382EACB
:1002E000000083EA010180EA020281EA0303362D5D
:1002F00088BF30BD11F0004F4FEA01314FF4801C30
:100300004CEA113102D0404261EB410113F0004F41
:100310004FEA03334CEA133302D0524263EB4303F8
:1003200094EA050F00F0A780A4F10104D5F1200E96
:100330000DDB02FA0EFC22FA05F2801841F10001F1
:1003400003FA0EF2801843FA05F359410EE0A5F1C5
:1003500020050EF1200E012A03FA0EFC28BF4CF0F6
:10036000020C43FA05F3C01851EBE37101F00045AC
:1003700007D54FF0000EDCF1000C7EEB00006EEBB9
:100380000101B1F5801F1BD3B1F5001F0CD3490843
:100390005FEA30004FEA3C0C04F101044FEA44529A
:1003A00012F5800F80F09A80BCF1004F08BF5FEA21
:1003B000500C50F1000041EB045141EA050130BD01
:1003C0005FEA4C0C404141EB010111F4801FA4F1A4
:1003D0000104E9D191F0000F04BF01460020B1FAF9
:1003E00081F308BF2033A3F10B03B3F120020CDA31
:1003F0000C3208DD02F1140CC2F10C0201FA0CF00F
:1004000021FA02F10CE002F11402D8BFC2F1200C73
:1004100001FA02F120FA0CFCDCBF41EA0C01904029
:10042000E41AA2BF01EB0451294330BD6FEA040472
:100430001F3C1CDA0C340EDC04F11404C4F120025D
:1004400020FA04F001FA02F340EA030021FA04F36F
:1004500045EA030130BDC4F10C04C4F1200220FAC6
:1004600002F001FA04F340EA0300294630BD21FA04
:1004700004F0294630BD94F0000F83F4801306BFCA
:1004800081F480110134013D4EE77FEA645C18BFBE
:100490007FEA655C29D094EA050F08BF90EA020F55
:1004A00005D054EA000C04BF1946104630BD91EA4D
:1004B000030F1EBF0021002030BD5FEA545C05D150
:1004C0004000494128BF41F0004130BD14F580048F
:1004D0003CBF01F5801130BD01F0004545F0FE4103
:1004E00041F470014FF0000030BD7FEA645C1ABF38
:1004F000194610467FEA655C1CBF0B46024650EA6F
:10050000013406BF52EA033591EA030F41F400219A
:1005100030BD00BF90F0000F04BF0021704730B520
:100520004FF4806404F132044FF000054FF00001F5
:1005300050E700BF90F0000F04BF0021704730B5B6
:100540004FF4806404F1320410F0004548BF40428B
:100550004FF000013EE700BF42004FEAE2014FEAE0
:1005600031014FEA02701FBF12F07F4393F07F4FBB
:1005700081F06051704732F07F4208BF704793F0BE
:100580007F4F04BF41F40021704730B54FF46074D1
:1005900001F0004521F000411CE700BF50EA0102D4
:1005A00008BF704730B54FF000050AE050EA01027D
:1005B00008BF704730B511F0004502D5404261EBED
:1005C00041014FF4806404F132045FEA915C3FF42E
:1005D000D8AE4FF003025FEADC0C18BF03325FEACB
:1005E000DC0C18BF033202EBDC02C2F1200300FA7C
:1005F00003FC20FA02F001FA03FE40EA0E0021FAA1
:1006000002F11444BDE600BF70B54FF0FF0C4CF48E
:10061000E06C1CEA11541DBF1CEA135594EA0C0F40
:1006200095EA0C0F00F0DEF82C4481EA030621EA7B
:100630004C5123EA4C5350EA013518BF52EA0335B6
:1006400041F4801143F4801338D0A0FB02CE4FF068
:100650000005E1FB02E506F00042E0FB03E54FF098
:100660000006E1FB03569CF0000F18BF4EF0010E90
:10067000A4F1FF04B6F5007F64F5407404D25FEA8C
:100680004E0E6D4146EB060642EAC62141EA55513F
:100690004FEAC52040EA5E504FEACE2EB4F1FD0C81
:1006A00088BFBCF5E06F1ED8BEF1004F08BF5FEAFF
:1006B000500E50F1000041EB045170BD06F00046B1
:1006C00046EA010140EA020081EA0301B4EB5C045E
:1006D000C2BFD4EB0C0541EA045170BD41F4801156
:1006E0004FF0000E013C00F3AB8014F1360FDEBF7B
:1006F000002001F0004170BDC4F10004203C35DA57
:100700000C341BDC04F11404C4F1200500FA05F3D9
:1007100020FA04F001FA05F240EA020001F000427A
:1007200021F0004110EBD37021FA04F642EB0601F0
:100730005EEA430E08BF20EAD37070BDC4F10C041A
:10074000C4F1200500FA04F320FA05F001FA04F2DE
:1007500040EA020001F0004110EBD37041F10001CA
:100760005EEA430E08BF20EAD37070BDC4F12005D5
:1007700000FA05F24EEA020E20FA04F301FA05F23D
:1007800043EA020321FA04F001F0004121FA04F2E5
:1007900020EA020000EBD3705EEA430E08BF20EAB5
:1007A000D37070BD94F0000F0FD101F000464000EF
:1007B00041EB010111F4801F08BF013CF7D041EA71
:1007C000060195F0000F18BF704703F00046520075
:1007D00043EB030313F4801F08BF013DF7D043EA46
:1007E0000603704794EA0C0F0CEA135518BF95EAFC
:1007F0000C0F0CD050EA410618BF52EA4306D1D183
:1008000081EA030101F000414FF0000070BD50EAA1
:10081000410606BF1046194652EA430619D094EA2B
:100820000C0F02D150EA013613D195EA0C0F05D115
:1008300052EA03361CBF104619460AD181EA030169
:1008400001F0004141F0FE4141F470014FF0000021
:1008500070BD41F0FE4141F4780170BD70B54FF0BC
:10086000FF0C4CF4E06C1CEA11541DBF1CEA13553C
:1008700094EA0C0F95EA0C0F00F0A7F8A4EB05041E
:1008800081EA030E52EA03354FEA013100F0888015
:100890004FEA03334FF0805545EA131343EA1263DE
:1008A0004FEA022245EA111545EA10654FEA002693
:1008B0000EF000419D4208BF964244F1FD0404F54C
:1008C000407402D25B084FEA3202B61A65EB0305A8
:1008D0005B084FEA32024FF480104FF4002CB6EB65
:1008E000020E75EB030E22BFB61A754640EA0C00E5
:1008F0005B084FEA3202B6EB020E75EB030E22BF25
:10090000B61A754640EA5C005B084FEA3202B6EB65
:10091000020E75EB030E22BFB61A754640EA9C0024
:100920005B084FEA3202B6EB020E75EB030E22BFF4
:10093000B61A754640EADC0055EA060E18D04FEAB2
:10094000051545EA16754FEA06164FEAC30343EA52
:1009500052734FEAC2025FEA1C1CC0D111F4801F1F
:100960000BD141EA00014FF000004FF0004CB6E718
:1009700011F4801F04BF01430020B4F1FD0C88BFB7
:10098000BCF5E06F3FF6AFAEB5EB030C04BFB6EBC2
:10099000020C5FEA500C50F1000041EB045170BDB5
:1009A0000EF0004E4EEA113114EB5C04C2BFD4EBE2
:1009B0000C0541EA045170BD41F480114FF0000E66
:1009C000013C90E645EA060E8DE60CEA135594EAE2
:1009D0000C0F08BF95EA0C0F3FF43BAF94EA0C0FE5
:1009E0000AD150EA01347FF434AF95EA0C0F7FF45A
:1009F00025AF104619462CE795EA0C0F06D152EAAE
:100A000003353FF4FDAE1046194622E750EA410691
:100A100018BF52EA43067FF4C5AE50EA41047FF4A2
:100A20000DAF52EA43057FF4EBAE12E74FF0FF3C07
:100A300006E000BF4FF0010C02E000BF4FF0010CD8
:100A40004DF804CD4FEA410C7FEA6C5C4FEA430C51
:100A500018BF7FEA6C5C1BD001B050EA410C0CBFA0
:100A600052EA430C91EA030F02BF90EA020F002002
:100A7000704710F1000F91EA030F58BF994208BF69
:100A800090422CBFD8176FEAE37040F00100704726
:100A90004FEA410C7FEA6C5C02D150EA013C07D17D
:100AA0004FEA430C7FEA6C5CD6D152EA033CD3D0C8
:100AB0005DF8040B704700BF8446104662468C46C2
:100AC0001946634600E000BF01B5FFF7B7FF0028F5
:100AD00048BF10F1000F01BD4DF808EDFFF7F4FF1E
:100AE0000CBF012000205DF808FB00BF4DF808EDA9
:100AF000FFF7EAFF34BF012000205DF808FB00BFCC
:100B00004DF808EDFFF7E0FF94BF012000205DF8ED
:100B100008FB00BF4DF808EDFFF7CEFF94BF0120A2
:100B200000205DF808FB00BF4DF808EDFFF7C4FF9B
:100B300034BF012000205DF808FB00BF4FEA410CE4
:100B40007FEA6C5C02D150EA013C0AD14FEA430CC7
:100B50007FEA6C5C02D152EA033C02D14FF0000004
:100B600070474FF0010070474FEA410212F5001242
:100B700015D211D56FF47873B3EB625212D94FEAE4
:100B8000C12343F0004343EA505311F0004F23FACE
:100B900002F018BF404270474FF00000704750EA23
:100BA000013005D111F0004008BF6FF000407047E0
:100BB0004FF00000704700BF4A0011D212F500123A
:100BC00011D20DD56FF47873B3EB62520ED44FEAA5
:100BD000C12343F0004343EA505323FA02F0704725
:100BE0004FF00000704750EA013002D14FF0FF3063
:100BF00070474FF0000070474FEA4102B2F1E04306
:100C000024BFB3F5001CDCF1FE5C0DD901F0004CF3
:100C10004FEAC0024CEA5070B2F1004F40EB830043
:100C200008BF20F00100704711F0804F21D113F16F
:100C30003872BCBF01F00040704741F480114FEAA8
:100C40005252C2F11802C2F1200C10FA0CF320FA31
:100C500002F018BF40F001004FEAC1234FEAD3234E
:100C600003FA0CFC40EA0C0023FA02F34FEA4303B8
:100C7000CCE77FEA625307D150EA01331EBF4FF041
:100C8000FE4040F44000704701F0004040F0FE405C
:100C900040F40000704700BF53B94AB9002908BFAB
:100CA00000281CBF4FF0FF314FF0FF3000F072B949
:100CB000ADF1080C6DE904CE00F006F8DDF804E0B3
:100CC000DDE9022304B070472DE9F047089E044691
:100CD0008846002B4BD18A42154667D9B2FA82F278
:100CE0004AB1C2F1200701FA02F320FA07F7954052
:100CF00047EA030894404FEA154E230CB8FBFEF771
:100D00001FFA85FC0EFB178843EA084307FB0CF12A
:100D1000994209D9EB1807F1FF3080F01B81994205
:100D200040F21881023F2B445B1AA4B2B3FBFEF0E1
:100D30000EFB103344EA034400FB0CFCA44509D924
:100D40002C1900F1FF3380F00781A44540F20481A3
:100D500002382C4440EA0740A4EB0C0400271EB1E3
:100D6000D4400023C6E900433946BDE8F0878B42F2
:100D700009D9002E00F0EB800027C6E900013846B3
:100D80003946BDE8F087B3FA83F7002F47D18B428D
:100D900002D3824200F2FA80841A61EB030301203D
:100DA0009846002EE0D0C6E90048DDE702B9FFDE34
:100DB000B2FA82F2002A40F08F80491B4FEA154EAA
:100DC0001FFA85F80127B1FBFEFC230C0EFB1C115A
:100DD00043EA014308FB0CF1994207D9EB180CF1E7
:100DE000FF3002D2994200F2CD808446591AA3B254
:100DF000B1FBFEF00EFB101443EA044408FB00F8BC
:100E0000A04507D92C1900F1FF3302D2A04500F20A
:100E1000B6801846A4EB080440EA0C409FE7C7F1EF
:100E2000200CBB4022FA0CFE4EEA030E01FA07F436
:100E300020FA0CF521FA0CF34FEA1E482543B3FBC8
:100E4000F8F92C0C08FB19331FFA8EFA44EA034315
:100E500009FB0AF49C4202FA07F200FA07F10BD9E7
:100E60001EEB030309F1FF3080F087809C4240F2C3
:100E70008480A9F1020973441B1BADB2B3FBF8F0E7
:100E800008FB103345EA034400FB0AFAA24508D9DF
:100E90001EEB040400F1FF336BD2A24569D902387E
:100EA000744440EA0940A0FB0289A4EB0A044C45C3
:100EB000C2464B4654D351D0002E69D0B1EB0A053F
:100EC00064EB030404FA0CFCFD40FC404CEA05050D
:100ED000C6E90054002747E7C2F1200320FA03F7D0
:100EE000954001FA02F021FA03F34FEA154E384318
:100EF000010CB3FBFEF71FFA85F80EFB173341EA2E
:100F0000034107FB08F38B4204FA02F407D969187E
:100F100007F1FF3C2FD28B422DD9023F2944CB1A37
:100F200081B2B3FBFEF00EFB103341EA034100FB3C
:100F300008F38B4207D9691800F1FF3C17D28B42A6
:100F400015D902382944C91A40EA07473BE7374612
:100F5000304609E70746E7E61846FBE64145ABD2CF
:100F6000B8EB020A69EB0E0201381346A4E76046AB
:100F7000E9E7184695E76746D1E781467CE70238FE
:100F80002C4447E7ACF1020C2B442FE7384608E726
:100F90003746E9E6704700BF2DE9F0478CB00024E2
:100FA0000794089409940A940B940194854B1A6B46
:100FB00042F080021A631A6B02F080020192019AD9
:100FC00002941A6B42F004021A631A6B02F00402D4
:100FD0000292029A03941A6B42F001021A631A6B8E
:100FE00002F001020392039A04941A6B42F0100279
:100FF0001A631A6B02F010020492049A05941A6B99
:1010000042F002021A631A6B02F002020592059A7C
:1010100006941A6B42F008021A631B6B03F0080374
:101020000693069B684F22464FF20501384601F0B1
:10103000A3FDDFF8A48122464FF40541404601F0AC
:101040009BFDDFF8989122464FF4E051484601F0AD
:1010500093FD0C2307935D4E08960125099507A97A
:10106000484601F0A5FC079508960223099307A9B5
:10107000404601F09DFC102307930896099507A9A7
:10108000404601F095FC4FF4A0430793089609955C
:1010900007A94F4801F08CFC4FF4005307930896C2
:1010A0000995DFF83CA107A9504601F081FC4FF4F7
:1010B000004307930896099407A9504601F078FC6D
:1010C0004FF4A0630793434B0893099507A938464B
:1010D00001F06EFC4FF4206307930896099507A969
:1010E000384601F065FC4FF2010307930895099417
:1010F0000A9407A9384601F05BFC4FF4807307930C
:10110000089509940A9407A9404601F051FC4FF450
:10111000044307930895099403260A9607A94046B5
:1011200001F046FC4FF4A0530793089509940A94E4
:1011300007A9484601F03CFC4FF40063079308956B
:1011400009940A9607A9484601F032FC0423079344
:10115000089509940A9607A9384601F029FC224609
:101160002146062001F032FD062001F063FD2246F3
:101170002146082001F02AFD082001F05BFD2246EF
:101180002146092001F022FD092001F053FD2246ED
:1011900021460A2001F01AFD0A2001F04BFD2246EB
:1011A0002146172001F012FD172001F043FD2246D1
:1011B0002146282001F00AFD282001F03BFD0CB05B
:1011C000BDE8F08700380240000C0240000011101A
:1011D0000010024000002110000002400008024000
:1011E0000004024000B58DB02022002104A808F0C0
:1011F00004FF0023019302931148124A02604360E6
:1012000083604FF6FF72C26003614361032303935F
:1012100001230593099303A900F065FD50B900234C
:101220000193029301A9064800F098FE28B90DB079
:101230005DF804FB02F0DAFDF1E702F0D7FDF6E716
:10124000340900200000014000B58DB020220021AB
:1012500004A808F0D2FE00230193029311484FF036
:1012600080420260436083604FF6FF72C260036198
:101270000323039301230593099303A900F033FD8E
:1012800050B900230193029301A9064800F066FEBD
:1012900028B90DB05DF804FB02F0A8FDF1E702F0FB
:1012A000A5FDF6E77009002000B58DB020220021D1
:1012B00004A808F0A2FE0023019302931148124AE9
:1012C0000260436083604FF6FF72C26003610323D4
:1012D000039301230593099303A900F004FD50B97A
:1012E00000230193029301A9064800F037FE28B9B4
:1012F0000DB05DF804FB02F079FDF1E702F076FD38
:10130000F6E700BFF808002000040040F0B58DB0FB
:1013100000230793089309930A930B9303684C4A9D
:10132000934207D0B3F1804F35D04A4A934257D009
:101330000DB0F0BD00250095474B5A6C42F00102FC
:101340005A645A6C02F001020092009A01951A6BDD
:1013500042F010021A631B6B03F010030193019B10
:101360004FF400730793022708970124099403237D
:101370000A930B94394E07A9304601F019FB4FF43C
:1013800000630793089709940A950B9407A93046C0
:1013900001F00EFBCCE70021029103F50E331A6C2D
:1013A00042F001021A641A6C02F001020292029ADF
:1013B00003911A6B42F001021A631B6B03F00103E5
:1013C0000393039B2223079302230893012309938A
:1013D00003220A920B9307A9214801F0E9FAA7E733
:1013E000002204921C4B196C41F002011964196C23
:1013F00001F00201049104990592196B41F0010179
:101400001963196B01F001010591059906921A6B98
:1014100042F004021A631B6B03F004030693069B5D
:1014200080230793022408940126099603250A9530
:101430000B9407A90A4801F0BBFA402307930894CC
:1014400009960A950B9407A9064801F0B1FA6FE7CF
:10145000000001400004004000380240001002403B
:1014600000000240000802400268094B9A4200D086
:10147000704782B000230193064B5A6C42F002027F
:101480005A645B6C03F002030193019B02B0704746
:10149000000401400038024000B587B000230193EA
:1014A0000293039304930593026803F1804303F5C9
:1014B00082339A4202D007B05DF804FB0023009308
:1014C0000A4B1A6B42F004021A631B6B03F004030D
:1014D0000093009B4FF46073019302230293032354
:1014E000059301A9024801F063FAE4E700380240DD
:1014F0000008024000B591B000230E930F930793AC
:10150000089309930A930B930C930D930093019303
:10151000029303930493059306932D482D4A02608A
:1015200043602022826042F60312C260036143617D
:1015300000F0C0FB002838D100230E930F930EA9B2
:10154000234800F00BFD002832D1602307930023CD
:10155000089309930A930B930C930D93042207A904
:101560001B4800F03FFC30BB082207A9184800F0D8
:1015700039FC18BB0C2207A9154800F033FC00BB4E
:101580000023009301930293039304934FF40052BA
:101590000592069369460E4800F009FDA0B90C4873
:1015A000FFF77AFF11B05DF804FB02F01FFCC3E700
:1015B00002F01CFCC9E702F019FCD5E702F016FCAA
:1015C000D8E702F013FCDBE702F010FCE7E700BF0E
:1015D000BC0800200004014008B50B480B4B036019
:1015E0000B4B436000238360C3604FF48042026171
:1015F00043618361C361036202F00AF900B908BD67
:1016000002F0F4FBFBE700BFAC09002000540040EF
:10161000A086010008B50B480B4B03600B4B4360E1
:1016200000238360C3604FF48042026143618361A1
:10163000C361036202F0ECF800B908BD02F0D6FB0A
:10164000FBE700BF000A002000580040A086010010
:1016500030B58BB000230593069307930893099345
:1016600003682A4A934204D0294A934227D00BB0F8
:1016700030BD00250195274C236B43F00203236303
:10168000236B03F002030193019B4FF44073059316
:10169000122306930123079303230893042309933A
:1016A00005A91D4801F084F90295236C43F4001349
:1016B0002364236C03F400130293029BD7E70025F5
:1016C0000395144C236B43F002032363236B03F055
:1016D00002030393039B4FF4406305931223069385
:1016E00001230793032308930423099305A90A48B8
:1016F00001F05EF90495236C43F480032364236CAA
:1017000003F480030493049BB1E700BF005400403E
:1017100000580040003802400004024010B58EB06E
:1017200000240A940B940C940D942422214601A8C1
:1017300008F063FC1E481F4B03604FF48033436086
:1017400084600461012383610462C4621A4A826274
:10175000C460C3610463436101F08CFBF0B90F23E3
:101760000A9301230B9300230C930AA9104801F05C
:1017700085FCB0B90F2301930123029305930393D2
:10178000002309930D4A089207930693049301A935
:10179000074801F03BFD38B90EB010BD02F026FB42
:1017A000DDE702F023FBE5E702F020FBF4E700BFF2
:1017B000540A0020002001400100000F01000F002A
:1017C00000B589B000230393049305930693079310
:1017D000026803F1804303F590339A4202D009B0C6
:1017E0005DF804FB0021019103F58C335A6C42F43F
:1017F00080725A645A6C02F480720192019A0291CA
:101800001A6B42F004021A631B6B03F00403029389
:10181000029B222303930323049303A9014801F0AD
:10182000C7F8DCE70008024008B50A480A4B036025
:101830004FF4E133436000238360C36003610C22F3
:1018400042618361C36100F079FD00B908BD02F017
:10185000CDFAFBE79C0A00200010014008B50A48B9
:101860000A4B03604FF4E133436000238360C3609D
:1018700003610C2242618361C36100F05FFD00B926
:1018800008BD02F0B3FAFBE7DC0A00200044004088
:1018900000B58BB000230593069307930893099333
:1018A0000368294A934205D0284A934227D00BB0B7
:1018B0005DF804FB00210191254B5A6C42F01002A7
:1018C0005A645A6C02F010020192019A02911A6B4A
:1018D00042F002021A631B6B03F002030293029BA5
:1018E000C023059302230693012307930323089340
:1018F0000723099305A9174801F05AF8D7E70021F3
:101900000391134B1A6C42F400321A641A6C02F4FD
:1019100000320392039A04911A6B42F008021A6390
:101920001B6B03F008030493049B602305930223BD
:10193000069301230793032308930723099305A91B
:10194000054801F035F8B2E70010014000440040BE
:101950000038024000040240000C024000238B4289
:1019600021DA10B40BE000BF4FF060421268002A89
:10197000F9D04FF06042147001338B420FDAC45C2F
:101980004FF06042D2F8802E12F0010FF4D04FF0E9
:101990006042D2F8002E12F0010FEDD0E4E71846B5
:1019A0005DF8044B70471846704708B50846114665
:1019B000FFF7D4FF08BD7047FEE7FEE7FEE7FEE74E
:1019C00070477047704708B501F096F908BD08B533
:1019D000012001F0DBF808BD08B5042001F0D6F8BD
:1019E00008BD08B5082001F0D1F808BD08B51020E1
:1019F00001F0CCF808BD08B54FF4807001F0C6F8CE
:101A00004FF4007001F0C2F808BD08B54FF48060D3
:101A100001F0BCF84FF4006001F0B8F84FF48050CA
:101A200001F0B4F84FF4005001F0B0F84FF48040EA
:101A300001F0ACF84FF4004001F0A8F808BD000038
:101A400000B583B0002100910C4B5A6C42F48042E7
:101A50005A645A6C02F480420092009A01911A6C06
:101A600042F080521A641B6C03F080530193019B77
:101A7000072001F099F803B05DF804FB003802403C
:101A80000F49D1F8883043F47003C1F888300D4B0A
:101A90001A6842F001021A60002098601A6822F069
:101AA000847222F480321A60074A5A601A6822F45B
:101AB00080221A60D8604FF000638B60704700BFCF
:101AC00000ED00E0003802401030002470B4036ADA
:101AD00023F001030362036A4268846924F07304FB
:101AE0000D6845EA040623F002048B6823430C4D7D
:101AF000A84202D00B4CA0420BD123F00803CD68C2
:101B00002B4323F0040322F440724D6915438A6984
:101B10002A43426086614A684263036270BC704730
:101B2000000001400004014030B4036A23F48073D4
:101B30000362036A4268C46924F073040D682C438D
:101B400023F400738D6843EA05230E4DA84203D0A9
:101B500005F58065A8420ED123F40063CD6843EA01
:101B6000052323F4806322F440524D6942EA0512B2
:101B70008D6942EA05124260C4614A68C263036229
:101B800030BC70470000014030B4036A23F4805336
:101B90000362036A4468C26922F4E6420D6842EABD
:101BA000052223F400538D6843EA0533094DA8420A
:101BB00003D005F58065A84204D124F480444D6922
:101BC00044EA85144460C2614A680264036230BC1E
:101BD000704700BF00000140022380F839300268DE
:101BE000136843F001031360012380F839300020AB
:101BF0007047000003682E4A904212D0B0F1804F27
:101C00000FD0A2F57C4290420BD002F58062904248
:101C100007D002F58062904203D002F578429042EC
:101C200003D123F070034A681343214A90422AD01B
:101C3000B0F1804F27D0A2F57C42904223D002F52C
:101C4000806290421FD002F5806290421BD002F564
:101C50007842904217D002F57052904213D002F5AC
:101C6000806290420FD002F5806290420BD0A2F5C4
:101C70009832904207D002F58062904203D002F57C
:101C80008062904203D123F44073CA681343036017
:101C90008B68C3620B688362054B984203D003F5DF
:101CA0008063984201D10B6903630123436170474C
:101CB00000000140A8B110B5044690F839305BB17E
:101CC000022384F83930211D2068FFF793FF012398
:101CD00084F83930002010BD80F83830FFF7C4FB9D
:101CE000EEE701207047002847D0F8B505460C46BE
:101CF00090F83930002B3BD0022385F83930294643
:101D000051F8042B936823F0070393602868FFF7CA
:101D100071FF29688A688E690F6A2068104326F46B
:101D2000407626F00306A268A36942EA0323334300
:101D300023F47C4323F0FC03E668E26946EA0226CA
:101D40001E43226A1303226943EA0213334327F036
:101D5000AA076268646942EA04123A438860296803
:101D60008B612B681A62012385F839300020F8BD99
:101D700080F83830FFF7CAFABEE70120704700004C
:101D800030B4036A23F010030362036A4468826973
:101D900022F4E6420D6842EA052223F020038D6812
:101DA00043EA05130E4DA84203D005F58065A8420D
:101DB0000ED123F08003CD6843EA051323F04003DE
:101DC00024F440644D6944EA85048D6944EA85043D
:101DD000446082614A688263036230BC704700BF1E
:101DE0000000014038B590F83830012B66D00D4620
:101DF0000446012380F83830022380F839300C2A59
:101E00001AD8DFE802F0071919192019191934191D
:101E1000191947000068FFF759FE2268936943F0DB
:101E2000080393612268936923F004039361226895
:101E3000936929690B439361012384F839300020A9
:101E400084F8380038BD0068FFF79AFF226893696C
:101E500043F4006393612268936923F48063936180
:101E600022689369296943EA01239361E4E70068E2
:101E7000FFF75AFE2268D36943F00803D361226852
:101E8000D36923F00403D3612268D36929690B4322
:101E9000D361D1E70068FFF777FE2268D36943F486
:101EA0000063D3612268D36923F48063D36122681D
:101EB000D369296943EA0123D361BDE70220C1E761
:101EC00010B4012303FA01F4036A23EA0403036252
:101ED000036A8A40134303625DF8044B70470000B5
:101EE00010B5044601220068FFF7EAFF2368094A9B
:101EF000934203D002F58062934203D15A6C42F4BC
:101F000000425A642268136843F001031360002002
:101F100010BD00BF0000014010B5044661B10429A6
:101F200016D0012200210068FFF7CAFF0122042118
:101F30002068FFF7C5FF04E0012200210068FFF7D9
:101F4000BFFF2268136843F001031360002010BD37
:101F5000012204210068FFF7B3FFF2E790F8383060
:101F6000012B22D030B4012280F83820022380F8DF
:101F700039300468636823F0700363600468636841
:101F80000D682B4363600468A36823F08003A3609B
:101F90000468A36849680B43A36080F839200023D4
:101FA00080F83830184630BC70470220704790F8EF
:101FB0003830012B25D0012380F83830CB6823F44A
:101FC00040738A68134323F480634A68134323F4FD
:101FD00000630A68134323F480530A69134323F40C
:101FE00000534A69134323F480438A69134323F45B
:101FF0000043134302685364002380F838301846C6
:1020000070470220704700002DE9F843044601683C
:102010000A6922F44052C36813430B610168CA681D
:1020200022F4164222F00C028368006903436069BF
:102030000343E06903431343CB6021684A6922F4F8
:102040004072A36913434B61E369B3F5004F60D05D
:102050002368B84A934200F0148102F580629342EB
:1020600000F00F8100F084FC00EB800000EB8000AA
:102070006568AD00B0FBF5F5AF4FA7FB05356D0901
:102080002E0100F075FC00EB800000EB800065681D
:10209000AD00B0FBF5F900F06BFC00EB800000EB4D
:1020A00080006568AD00B0FBF5F5A7FB05356D094F
:1020B0004FF0640808FB15952D013235A7FB053557
:1020C0006D0905F0F005354400F052FC00EB80008E
:1020D00000EB80006668B600B0FBF6F600F048FC46
:1020E00000EB800000EB800063689B00B0FBF3F026
:1020F000A7FB0030400908FB10684FEA081808F1F8
:102100003208A7FB0837C7F3431723682F449F60A3
:102110000DE12368874A93425BD002F580629342C7
:1021200057D000F025FC00EB800000EB80006568D4
:102130006D00B0FBF5F5804FA7FB05356D092E014D
:1021400000F016FC00EB800000EB800065686D007D
:10215000B0FBF5F900F00CFC00EB800000EB800018
:1021600065686D00B0FBF5F5A7FB05356D094FF00F
:10217000640808FB1595ED003235A7FB05356D09A0
:102180006D0005F4F875354400F0F2FB00EB8000BB
:1021900000EB800066687600B0FBF6F600F0E8FB26
:1021A00000EB800000EB800063685B00B0FBF3F3A2
:1021B000A7FB03235B0908FB13684FEAC80808F173
:1021C0003208A7FB0837C7F3421723682F449F60E4
:1021D000ADE000F0DDFB00EB800000EB8000656807
:1021E0006D00B0FBF5F5544FA7FB05356D092E01C9
:1021F00000F0CEFB00EB800000EB800065686D0016
:10220000B0FBF5F900F0C4FB00EB800000EB8000B0
:1022100065686D00B0FBF5F5A7FB05356D094FF05E
:10222000640808FB1595ED003235A7FB05356D09EF
:102230006D0005F4F875354400F0AAFB00EB800052
:1022400000EB800066687600B0FBF6F600F0A0FBBD
:1022500000EB800000EB800063685B00B0FBF3F3F1
:10226000A7FB03235B0908FB13684FEAC80808F1C2
:102270003208A7FB0837C7F3421723682F449F6033
:1022800055E000F085FB00EB800000EB8000656806
:10229000AD00B0FBF5F5284FA7FB05356D092E0104
:1022A00000F076FB00EB800000EB80006568AD007D
:1022B000B0FBF5F900F06CFB00EB800000EB800058
:1022C0006568AD00B0FBF5F5A7FB05356D094FF06E
:1022D000640808FB15952D013235A7FB05356D09FE
:1022E00005F0F005354400F053FB00EB800000EBF7
:1022F00080006668B600B0FBF6F600F049FB00EB24
:10230000800000EB800063689B00B0FBF3F0A7FB4C
:102310000030400908FB10684FEA081808F132083D
:10232000A7FB0837C7F3431723682F449F60BDE816
:10233000F88300BF001001401F85EB5158B310B562
:10234000044690F839300BB3242384F839302268DE
:10235000D36823F40053D3602046FFF755FE22686C
:10236000136923F4904313612268536923F02A030D
:1023700053612268D36843F40053D3600020E063C4
:10238000202384F8393084F83A3010BD80F8383092
:10239000FFF77EFAD8E7012070470000002800F020
:1023A000BB8170B582B00446036813F0010F3BD0C7
:1023B000A74B9B6803F00C03042B2CD0A44B9B6809
:1023C00003F00C03082B21D06368B3F5803F4FD096
:1023D000B3F5A02F52D09E4B1A6822F480321A60B7
:1023E0001A6822F480221A606368002B50D000F033
:1023F0008FFC0546964B1B6813F4003F14D100F088
:1024000087FC401B6428F5D903208AE1904B5B6868
:1024100013F4800FD8D08E4B1B6813F4003F03D009
:102420006368002B00F07A81236813F0020F55D007
:10243000874B9B6813F00C0F3ED0854B9B6803F0D5
:102440000C03082B33D0E368002B68D0814B0122AA
:102450001A6000F05DFC05467D4B1B6813F0020F0F
:1024600054D100F055FC401B0228F5D9032058E157
:10247000774A136843F480331360B5E7744B1A68E6
:1024800042F480221A601A6842F480321A60ABE784
:1024900000F03EFC05466E4B1B6813F4003FC3D0B2
:1024A00000F036FC401B6428F5D9032039E1684B65
:1024B0005B6813F4800FC6D1654B1B6813F0020FE5
:1024C00004D0E368012B01D001202AE1604A13689F
:1024D00023F0F803216943EAC1031360236813F072
:1024E000080F40D0636963B35B4B01221A6000F0B0
:1024F0000FFC0546564B5B6F13F0020F33D100F013
:1025000007FC401B0228F5D903200AE1504A136852
:1025100023F0F803216943EAC1031360DEE74D4B62
:1025200000221A6000F0F4FB0546494B1B6813F0CB
:10253000020FD3D000F0ECFB401B0228F5D903209A
:10254000EFE0454B00221A6000F0E2FB0546404BED
:102550005B6F13F0020F06D000F0DAFB401B02287D
:10256000F5D90320DDE0236813F0040F79D0384B50
:102570001B6C13F0805F33D100230193344B1A6C32
:1025800042F080521A641B6C03F080530193019B4C
:102590000125324B1B6813F4807F23D0A368012BE5
:1025A00034D0052B38D02A4B1A6F22F001021A675B
:1025B0001A6F22F004021A67A368002B36D000F0CD
:1025C000A7FB0646224B1B6F13F0020F48D100F009
:1025D0009FFB801B41F288339842F3D90320A0E08F
:1025E0000025D6E71D4A136843F48073136000F09A
:1025F0008FFB0646194B1B6813F4807FCED100F089
:1026000087FB801B0228F5D903208AE0104A136F4C
:1026100043F001031367CFE70D4B1A6F42F004023A
:102620001A671A6F42F001021A67C5E700F070FBE3
:102630000646074B1B6F13F0020F11D000F068FB2A
:10264000801B41F288339842F3D9032069E000BF30
:102650000038024000004742800E474200700040B0
:10266000E5B9A369002B5BD0304A926802F00C02F6
:10267000082A58D0022B17D02D4B00221A6000F0E8
:1026800047FB0446294B1B6813F0007F42D000F043
:102690003FFB001B0228F5D9032042E0234A136CBC
:1026A00023F080531364DCE7214B00221A6000F012
:1026B0002FFB05461D4B1B6813F0007F06D000F072
:1026C00027FB401B0228F5D903202AE0E369226A90
:1026D0001343626A43EA8213A26A5208013A43EA48
:1026E0000243E26A43EA0263104A5360104B01223C
:1026F0001A6000F00DFB04460C4B1B6813F0007FC2
:1027000006D100F005FB001B0228F5D9032008E0E4
:10271000002006E0002004E001207047012000E0D6
:10272000002002B070BD0120FBE700BF003802406E
:1027300060004742324B9B6803F00C03042B5CD0D3
:10274000082B01D02F4870472DE9F04B2C4B5A68CD
:1027500002F03F025B6813F4800F2BD0284B5B68BC
:10276000C3F388131E4600275C010025E41A65EBBD
:102770000705A90141EA9461A001001B61EB050175
:10278000CB0043EA5073C400A01943EB07014B028E
:1027900043EAD0534402204619460023FEF77CFA50
:1027A000174B5B68C3F3014301335B00B0FBF3F0ED
:1027B000BDE8F08B124B5B68C3F388131E460027FD
:1027C0005C010025E41A65EB0705A90141EA946163
:1027D000A001001B61EB0501CB0043EA5073C4006C
:1027E000A01943EB07018B0243EA90538402204671
:1027F00019460023FEF750FAD2E70348704700BF9E
:10280000003802400024F40000127A00002800F092
:102810009D8070B504464F4B1B6803F00F038B423D
:1028200009D2CBB24B4A1370136803F00F038B42EB
:1028300001D0012070BD236813F0020F17D013F0F0
:10284000040F04D0444A936843F4E0539360236830
:1028500013F0080F04D0404A936843F46043936038
:102860003D4A936823F0F003A068034393600D464C
:10287000236813F0010F32D06368012B21D09A1E18
:10288000012A25D9344A126812F0020F60D0324969
:102890008A6822F0030213438B6000F039FA06467F
:1028A0002D4B9B6803F00C036268B3EB820F16D0CC
:1028B00000F02EFA801B41F288339842F0D90320B1
:1028C000B8E7254A126812F4003FE0D10120B1E7D1
:1028D000214A126812F0007FD9D10120AAE71D4BCE
:1028E0001B6803F00F03AB4209D9EAB2194B1A7007
:1028F0001B6803F00F03AB4201D001209AE7236865
:1029000013F0040F06D0144A936823F4E053E168EF
:102910000B439360236813F0080F07D00E4A9368A7
:1029200023F46043216943EAC1039360FFF702FF88
:10293000094B9B68C3F30313084AD35CD840084B88
:102940001860002000F098F9002073E7012070471C
:1029500001206FE7003C024000380240B0AF0008A1
:1029600004000020014B1868704700BF04000020DD
:1029700008B5FFF7F7FF044B9B68C3F38223034AB4
:10298000D35CD84008BD00BF00380240C0AF00088B
:1029900008B5FFF7E7FF044B9B68C3F34233034AD4
:1029A000D35CD84008BD00BF00380240C0AF00086B
:1029B00000230F2B00F2D780F0B482B039E0072259
:1029C00000E00022B2403A430234674E46F8242029
:1029D000664A1468EA4302EA04064F6817F4803F27
:1029E00001D045EA0406614C2660646802EA0406E8
:1029F0004F6817F4003F01D045EA04065B4C66605F
:102A0000A46802EA04064F6817F4801F01D045EA63
:102A10000406564CA660E46822404E6816F4001F77
:102A200001D045EA0402514CE26001330F2B00F261
:102A3000978001229A400C6804EA0205AA42F4D168
:102A40004C68022C01D0122C10D1DE08083650F848
:102A500026C003F00704A7000F24BC402CEA040C96
:102A60000C69BC4044EA0C0440F8264004685F004E
:102A70000326BE40F64306EA040C4C6804F0030447
:102A8000BC4044EA0C0404604C6804F1FF3CBCF117
:102A9000010F03D9112C01D0122C10D1846806EA41
:102AA000040CCC68BC4044EA0C048460446824EA0A
:102AB00002024C68C4F300149C4014434460C26892
:102AC00016408A68BA403243C2604A6812F0805F9A
:102AD000ABD000220192264A546C44F480445464E2
:102AE000526C02F480420192019A9C08A61C1E4A74
:102AF00052F8267003F0030296000F22B24027EA34
:102B000002071C4A90423FF45CAF02F5806290429B
:102B10001AD002F58062904218D002F5806290428D
:102B200016D002F58062904214D002F58062904285
:102B300012D002F58062904210D002F5806290427D
:102B40003FF43DAF08223DE701223BE7022239E78F
:102B5000032237E7042235E7052233E7062231E76F
:102B600002B0F0BC7047704700380140003C0140A3
:102B7000003802400000024012B909048161704728
:102B800081617047436959404161704708B5054B01
:102B90005B69034200D108BD024B586103F0ECFDB4
:102BA000F9E700BF003C0140074AD36823F4E06323
:102BB0001B041B0C000200F4E060184340F0BF60EF
:102BC00040F40030D060704700ED00E030B4174BA7
:102BD000DB68C3F30223C3F10704042C28BF0424D9
:102BE0001D1D062D18D9033B4FF0FF3505FA04F4DF
:102BF00021EA0401994005FA03F322EA0303194389
:102C000000280BDB0901C9B200F1604000F561400A
:102C100080F8001330BC70470023E5E700F00F0098
:102C20000901C9B2024B1954F4E700BF00ED00E0FE
:102C300014ED00E000F01F02400901239340024A16
:102C400042F82030704700BF00E100E00138B0F1E9
:102C5000807F0AD2064B5860064AF02182F8231082
:102C60000020986007221A6070470120704700BF5B
:102C700010E000E000ED00E010B504460E4B1878BF
:102C80004FF47A73B3FBF0F30C4A1068B0FBF3F027
:102C9000FFF7DCFF68B90F2C01D901200AE0002200
:102CA00021464FF0FF30FFF791FF054B1C600020DD
:102CB00000E0012010BD00BF08000020040000203B
:102CC0000C00002008B50B4B1A6842F400721A6021
:102CD0001A6842F480621A601A6842F480721A60BC
:102CE0000320FFF761FF0020FFF7C6FFFEF7A8FEF5
:102CF000002008BD003C0240034A1168034B1B78CA
:102D00000B441360704700BF1C0B0020080000201C
:102D1000014B1868704700BF1C0B002038B50446F3
:102D2000FFF7F6FF0546B4F1FF3F02D0044B1B78D6
:102D30001C44FFF7EDFF401BA042FAD338BD00BF93
:102D400008000020494B5A6822F440325A605A6801
:102D500041680A435A600268536823F480735360E1
:102D600002685368016943EA0123536002685368AB
:102D700023F0407353600268536881680B435360CB
:102D80000268936823F40063936002689368C168E3
:102D90000B439360826A364B9A4249D0026893682B
:102DA00023F07063936002689368816A0B439360B9
:102DB0000268936823F04053936002689368C16A85
:102DC0000B4393600268936823F0020393600268E8
:102DD0009368816943EA41039360036A002B32D10F
:102DE0000268536823F4006353600268D36A23F4D3
:102DF0007003D3620168CB6AC269013A43EA0253A5
:102E0000CB620268936823F400739360026893684E
:102E1000016B43EA412393600268936823F4806363
:102E2000936002689368416943EA81239360704725
:102E30000268936823F0706393600268936823F0DC
:102E400040539360BEE70268536843F400635360E5
:102E50000268536823F46043536001684B68426A18
:102E6000013A43EA42334B60BFE700BF0023014011
:102E70000100000F30B310B50446036C43B1236C5E
:102E800013F0100F0AD00120002384F83C3010BD4D
:102E9000436480F83C30FEF793FCF0E7236C23F4A6
:102EA000885323F0020343F0020323642046FFF714
:102EB00049FF00206064236C23F0030343F0010307
:102EC0002364E1E70120704782B00023019390F86A
:102ED0003C30012B63D0012380F83C3003689A68B2
:102EE00012F0010F13D19A6842F001029A60304B40
:102EF0001B68304AA2FB03239B0C03EB43030193A3
:102F000002E0019B013B0193019B002BF9D1026878
:102F1000936813F0010F44D0036C23F4E06323F0B3
:102F2000010343F480730364536813F4806F05D086
:102F3000036C23F4405343F480530364036C13F491
:102F4000805F19D0436C23F006034364002380F8AC
:102F50003C306FF022031360174B5B6813F01F0FB8
:102F60000DD103689A6812F0405F1DD19A6842F053
:102F700080429A60002015E000234364E6E703687E
:102F80000E4A934201D000200CE09A6812F0405F94
:102F90000CD19A6842F080429A60002002E0022040
:102FA00000E0002002B070470020FBE70020F9E7B6
:102FB0000400002083DE1B43002301400020014069
:102FC00003689A6812F4806F03D09B6813F4807FC3
:102FD0001CD170B50D460446FFF79AFE06462368DD
:102FE0001A6812F0020F1AD1B5F1FF3FF7D025B1E0
:102FF000FFF78EFE801BA842F1D9236C43F0040337
:103000002364002384F83C3003202DE0036C43F05C
:1030100020030364002380F83C30012070476FF0E8
:1030200012021A60236C43F40073236423689A68C5
:1030300012F0405F17D1A269BAB9DA6A12F4700FC0
:1030400003D09B6813F4806F11D1236C23F4807339
:103050002364236C13F4805F0BD1236C43F00103D2
:103060002364002000E0002070BD0020FCE7002069
:10307000FAE70020F8E70368D86C704730B482B0F4
:103080000023019390F83C30012B00F0B78001231E
:1030900080F83C300B68092B3ED90568EA689BB282
:1030A00003EB43031E3B072404FA03F322EA030362
:1030B000EB600568EA688C680B8803EB43031E3BF2
:1030C00004FA03F31343EB604B68062B3AD8056808
:1030D0006A6B03EB8303053B1F2404FA03F322EA24
:1030E00003036B6305686A6B4B6803EB8303053B63
:1030F0000C8804FA03F313436B630268404B9A4253
:1031000050D002683E4B9A4255D0002380F83C30A4
:10311000184602B030BC704705682A699BB203EBC1
:103120004303072404FA03F322EA03032B6105682F
:103130002A698C680B8803EB430304FA03F31343F7
:103140002B61C1E70C2B16D805682A6B03EB8303B0
:10315000233B1F2404FA03F322EA03032B630568CD
:103160002A6B4B6803EB8303233B0C8804FA03F3BD
:1031700013432B63C1E70568EA6A03EB8303413B12
:103180001F2404FA03F322EA0303EB620568EA6AE8
:103190004B6803EB8303413B0C8804FA03F31343AE
:1031A000EB62AAE70B68122BABD1164A536843F4C3
:1031B00080035360A5E70B68103B012BA5D8114A8B
:1031C000536843F4000353600B68102B9DD10E4BE2
:1031D0001B6802F1467202F52E3202F28332A2FB24
:1031E00003239B0C03EB83035A00019202E0019B33
:1031F000013B0193019B002BF9D186E7022088E770
:1032000000200140002301400400002090F83C30E1
:10321000012B00F0F98030B4012380F83C300B68BA
:10322000092B7DD90568EA689BB203EB43031E3B7B
:10323000072404FA03F322EA0303EB600568EA6853
:103240008C680B8803EB43031E3B04FA03F3134320
:10325000EB600268936B23F4401393630468A36BE1
:103260000A69013A43EA0253A3630568AA6B4B68F3
:103270000C691B1BDBB20333DBB203EB83031F249C
:1032800004FA03F322EA0303AB630568AA6B4B68F5
:103290000C691B1BDBB20333DBB203EB83030C882B
:1032A00004FA03F31343AB63CA69584B9A424DD0F7
:1032B0000268936823F47023936002689368CC6972
:1032C000234393600268936823F440139360026879
:1032D00093680C6A234393608B69002B41D002688A
:1032E000536843F4806353604B69002B3FD00268FE
:1032F000536843F4805353604B68022B57D0032B21
:1033000062D0012B39D00268136A23F47F6323F063
:103310000F0313620268136ACC682343136238E018
:1033200005682A699BB203EB4303072404FA03F3FD
:1033300022EA03032B6105682A698C680B8803EB7A
:10334000430304FA03F313432B6182E70268936893
:1033500023F4702393600268936823F4401393600E
:10336000BAE70268536823F480635360BCE70268DD
:10337000536823F480535360BEE70268536923F413
:103380007F6323F00F03536102685369CC682343C2
:10339000536102681E4B9A4223D002681C4B9A422A
:1033A00028D0002380F83C30184630BC70470268B3
:1033B000936923F47F6323F00F0393610268936999
:1033C000CC6823439361E4E70268D36923F47F6305
:1033D00023F00F03D3610268D369CC682343D36120
:1033E000D7E70B68122BD8D10A4A536843F48003FD
:1033F0005360D2E70B68103B012BD2D8054A5368C3
:1034000043F400035360CCE70220704701000F0033
:10341000002001400023014003685A6912F4806FC4
:103420000DD06FF480625A610423036400230363A8
:10343000202280F83D2080F83C3001207047002099
:103440007047F8B506460C4617461D461EE02DB1DE
:10345000FFF75EFC069BC01AA84217D9002333630E
:10346000202286F83D2086F83E3086F83C30032046
:103470001AE033685B6924EA03039BB2B3FA83F36F
:103480005B099F420FD1B5F1FF3FE0D1C4F3074381
:10349000012BEED033689B6924EA03039BB2B3FA95
:1034A00083F35B09EDE70020F8BDF8B504460D464F
:1034B00016461F4632E01A6842F400721A6023680A
:1034C0006FF480625A610423236400232363202263
:1034D00084F83D2084F83C3001202DE026B1FFF730
:1034E00017FCC01BB04219D900232363202284F8A3
:1034F0003D2084F83C3003201EE023685B6925EA08
:1035000003039BB2003318BF0123A3B123685A6998
:1035100012F4806FCFD1B6F1FF3FDFD1C5F307437F
:10352000012BEAD023689B6925EA03039BB2003391
:1035300018BF0123E9E70020F8BD0000F0B583B013
:1035400004460D4616461F46C36A042B0DD0012BB8
:103550000BD013F5803F08D0036B122B0AD1026801
:10356000136843F48073136004E02268136843F423
:10357000807313600097334600224FF001112046FC
:10358000FFF75FFF58BB2369B3F5804F10D1236865
:1035900005F0FE051D613B46324615492046FFF702
:1035A00084FF0346E0B1236C042B1ED1012317E0F6
:1035B000EB11226803F0060343F0F00313613B466E
:1035C00032460C492046FFF770FF20B1236C042BD4
:1035D00009D1012304E02368EDB21D61DBE7032379
:1035E000184603B0F0BD0323FAE70323F8E700BF52
:1035F00002000100080001002DE9F04184B00446FA
:103600000D4616461F46C26A01680B6843F4806384
:103610000B60042A0DD0012A0BD012F5803F08D090
:10362000036B112B0AD10268136843F48073136093
:1036300004E02268136843F48073136000973346F4
:1036400000224FF001112046FFF7FBFE002852D167
:103650002369B3F5804F12D1236845F00105EDB21F
:103660001D613B4632462A492046FFF71EFF0346AE
:10367000002841D0236C042B48D101233CE04FEAC1
:10368000E51808F00608236848F0F0021A613B4686
:10369000324620492046FFF708FF20B1236C042B57
:1036A0002ED1012328E02368EDB21D613B4632464E
:1036B00017492046FFF7F9FE20B1236C042B21D1D6
:1036C000012319E000220392236859690391996943
:1036D00003910399196841F480711960009733468A
:1036E0004FF001112046FFF7ACFE68B9226848F0A0
:1036F000F1031361B5E70323184604B0BDE8F08178
:103700000323F9E70323F7E70323F5E70323F3E7AD
:10371000020001000800010070B504460D4616467F
:1037200023685B6913F0800F19D12046FFF774FE00
:10373000B8B9B5F1FF3FF3D025B1FFF7E9FA801B27
:10374000A842EDD9236C43F02003236400232363B4
:10375000202284F83D2084F83C30032000E0002043
:1037600070BD0120FCE770B504460D46164623687F
:103770005B6913F0040F19D12046FFF74DFEB8B96D
:10378000B5F1FF3FF3D025B1FFF7C2FA801BA84285
:10379000EDD9236C43F0200323640023236320220C
:1037A00084F83D2084F83C30032000E0002070BD08
:1037B0000120FCE770B505460C4616462B685A6991
:1037C00012F0400F22D15A6912F0100F11D124B11A
:1037D000FFF79EFA801BA042F0D92B6C43F0200328
:1037E0002B64202385F83D30002385F83C300320EE
:1037F00070BD6FF010025A6100232B642B632022EE
:1038000085F83D2085F83C300120F1E70020EFE706
:10381000002800F0828010B5044690F83D30002B5F
:1038200041D0242384F83D302268136823F001033B
:103830001360FFF79DF83A4BA3FB00239B0C226813
:1038400053606168374A914232D80133226813626B
:103850006368344A934235D85B00B0FBF3F0C0F3A1
:103860000B03032B00D804202368D861E369216A85
:1038700022680B4313602369E16822680B4393605D
:103880006369A16922680B43D3602268136843F01F
:103890000103136000202064202384F83D3020635E
:1038A00084F83E0010BD80F83C30FDF7D1FEB8E74B
:1038B0004FF4967202FB03F31B4AA2FB03239B09FE
:1038C0000133C3E7A16889B903EB4302B0FBF2F20D
:1038D000C2F30B02B2FA82F25209E2B991B903EBD8
:1038E0004303B0FBF3F040F40040BDE703EB830279
:1038F00002EB8202B0FBF2F2C2F30B02B2FA82F2E6
:103900005209EAE703EB830303EB8303B0FBF3F015
:1039100040F44040A8E70120A6E70120704700BF1F
:1039200083DE1B43A0860100D34D62102DE9F041D8
:1039300084B004460E4690461F46FFF7E9F994F816
:103940003D30DBB2202B04D00226304604B0BDE867
:10395000F081054600901923012254492046FFF7C3
:1039600070FD002840F0998094F83C30012B00F065
:103970009680012384F83C3023681A6812F0010F06
:1039800003D11A6842F001021A602268136823F416
:1039900000631360212384F83D30102384F83E3007
:1039A00000232364C4F824806785A3F58033E36291
:1039B000638D23852B460A9A31462046FFF7BEFDCC
:1039C000064660B1236C042B04D1002384F83C30FC
:1039D0000126BAE7002384F83C300326B5E700232C
:1039E000039323685A6903929B690393039B10E036
:1039F000236C042B55D12268136843F400731360C1
:103A00000126A2E72A460A992046FFF7ACFE0028C5
:103A10002BD1238D002B32D02A460A992046FFF75E
:103A20007BFE0028E4D1636A5A1C626222681B781C
:103A30001361638D013B9BB26385238D013B9BB278
:103A400023852268516911F0040FDBD0002BD9D0F7
:103A5000636A591C61621B781361638D013B9BB2E1
:103A60006385238D013B2385CCE7236C042B1AD17E
:103A70002268136843F400731360012665E7226827
:103A8000136843F400731360202384F83D3000234F
:103A900084F83E3084F83C3057E7022655E702268A
:103AA00053E7032651E703264FE700BF020010004B
:103AB0002DE9F04186B004460E4690461F46FFF7BA
:103AC00027F994F83D30DBB2202B04D00226304693
:103AD00006B0BDE8F08105460090192301228C490B
:103AE0002046FFF7AEFC002840F04B8194F83C30B4
:103AF000012B00F04881012384F83C3023681A68C8
:103B000012F0010F03D11A6842F001021A60226814
:103B1000136823F400631360222384F83D301023DC
:103B200084F83E3000232364C4F824806785A3F51D
:103B30008033E362638D23852B460C9A3146204601
:103B4000FFF75AFD064660B1236C042B04D1002315
:103B500084F83C300126BAE7002384F83C30032681
:103B6000B5E7238D5BB9029323685A6902929A697B
:103B70000292029A1A6842F400721A607AE0012BEB
:103B80000FD0022B1FD02268136843F480631360A8
:103B90000023059323685A6905929B690593059B49
:103BA00068E02268136823F48063136000230393A2
:103BB00023685A6903929A690392039A1A6842F435
:103BC00000721A6056E02268136823F48063136061
:103BD0002268136843F4006313600023049323688E
:103BE0005A6904929B690493049B43E02A460C990A
:103BF0002046FFF7DFFD68B923681A69636A591C1C
:103C000061621A70238D013B2385638D013B9BB25A
:103C100063852FE0236C202B01D0012657E7032674
:103C200055E700950C9B00223A492046FFF709FC16
:103C3000002840F0AA802268136843F400731360E0
:103C400023681A69636A591C61621A70238D013BEB
:103C50002385638D013B9BB2638523681A69636A80
:103C6000591C61621A70238D013B2385638D013BD2
:103C70009BB26385238D002B7AD0032B4CD8012B6C
:103C8000B4D0022BCDD000950C9B002221492046B8
:103C9000FFF7D7FB00287AD12268136823F48063EA
:103CA000136023681A69636A591C61621A70238D54
:103CB000013B2385638D013B9BB2638500950C9B83
:103CC000002214492046FFF7BCFB002861D122687E
:103CD000136843F40073136023681A69636A591CFC
:103CE00061621A70238D013B2385638D013B9BB27A
:103CF000638523681A69636A591C61621A70238D8F
:103D0000013B2385638D013B9BB26385B2E700BF16
:103D100002001000040001002A460C992046FFF71B
:103D200049FDF0B923681A69636A591C61621A7007
:103D3000238D013B2385638D013B9BB26385236803
:103D40005A6912F0040F95D01A69636A591C6162AE
:103D50001A70238D013B2385638D013B9BB26385E4
:103D600088E7236C202B01D00126B0E60326AEE6BF
:103D7000202384F83D30002384F83E3084F83C3022
:103D8000A5E60226A3E60226A1E603269FE6032671
:103D90009DE603269BE600BFDFF834D0002103E058
:103DA0000C4B5B58435004310B480C4B42189A4261
:103DB000F6D30B4A02E0002342F8043B094B9A4237
:103DC000F9D3FDF75DFE06F0E1F800F06BF87047FF
:103DD000000002207CB6000800000020BC0000208B
:103DE000BC000020240B0020FEE7FEE708B5E6211A
:103DF0000148FFF7FAFF00BFC8AF000800B595B053
:103E00003022002108A806F0F8F800230393049359
:103E10000593069307930193204A116C41F080515A
:103E20001164126C02F080520192019A02931C4BB1
:103E30001A6842F480421A601B6803F480430293BC
:103E4000029B012308934FF48033099302230E93BE
:103E50004FF480020F9204221092A8221192129322
:103E60000723139308A8FEF799FA98B90F23039331
:103E700002230493002305934FF4A05306934FF4B9
:103E800080530793052103A8FEF7C0FC20B915B0A5
:103E90005DF804FBFFF7AAFFFFF7A8FF0038024018
:103EA0000070004030B52DED028B85B0FEF70AFFA3
:103EB000FFF7A4FFFDF770F8FDF794F9FDF7C4F9DB
:103EC000FDF7F2F9FDF716FBFDF7AEFCFDF7C6FCBA
:103ED000FDF724FC3E4C01224FF400512046FEF732
:103EE0004BFE01224FF400412046FEF745FEFDF750
:103EF00073FBFDF78FFB01F071F800F00FFC354804
:103F0000FEF7E2FF00224FF400512046FEF734FE98
:103F100000224FF400412046FEF72EFE2E4806F008
:103F2000A5F9FEF7F5FE054600F0E0F92B4806F08E
:103F30009DF9274C4FF480512046FEF723FE4FF4A5
:103F400000512046FEF71EFE4FF480412046FEF74A
:103F500019FE4FF400412046FEF714FEFEF7D8FE8E
:103F6000A842E3D0FEF7D4FE054601F0C9FD9FED5F
:103F70001C8A1C4CB0EE480A204602F08DF8B0EEC8
:103F8000480A04F15C0002F087F8B0EE480A1648CF
:103F900002F0CCFC0A2101A801F03EF8DDED037A25
:103FA000FDEEE77A17EE903ADDED027AFDEEE77A64
:103FB00017EE902ADDED017AFDEEE77A17EE901A02
:103FC0000A4806F0CBF80A2006F0E0F8AEE700BF9A
:103FD000000C0240540A0020DCAF0008F0AF0008DB
:103FE00000000000540100200C020020F8AF00087F
:103FF000F0B52DED028B85B0044601F081FD2378EC
:10400000092B00F23A81DFE813F00A0086009600DF
:10401000AC00C100D000DF00EE00F9001E019C489A
:1040200006F09CF89FED9B8A9B4DB0EE480A28460F
:1040300002F032F8B0EE480A05F15C0002F02CF80C
:10404000B0EE480A954802F0CBFC9FED958A05F149
:104050003C07B0EE480A384601F0FEFF9835B0EE56
:10406000480A284601F0F8FF01AE0A21304600F068
:10407000D3FF8C4B96E8070083E80700384601F031
:1040800047FF9FED898A60EE087A17EE900AFCF7E9
:1040900063FA7DA3D3E90023FCF7E0FB06460F4655
:1040A000284601F035FF60EE087A17EE900AFCF71B
:1040B00053FA75A3D3E90023FCF7D0FBFCF754FDBA
:1040C000054630463946FCF74FFD2A4601467748FB
:1040D00006F044F8764B1B78002B00F0CE800123CD
:1040E0002370744C00224FF480512046FEF744FDAB
:1040F00000224FF400512046FEF73EFD00224FF40F
:1041000080412046FEF738FD00224FF40041204652
:10411000FEF732FDB1E0684806F020F8674B93EDFA
:10412000000A674B186801F003FB002800F0A58027
:1041300002232370A1E0634806F010F85F4B93ED73
:10414000010A642001F0F4FA5F4B1B78002B00F0A9
:104150009480032323705A4B5A684F4B1A61DA66D6
:104160008BE05A4805F0FAFF544B93ED010A6420A6
:1041700001F0DEFA564B1B78002B7ED00323237010
:104180004F4B9A68444B1A61DA6676E0514805F065
:10419000E5FF4A4B93ED030A494BD86801F0C8FA92
:1041A00000286AD00523237067E04B4805F0D6FF4E
:1041B000424B93ED040A424B186901F0B9FA00280A
:1041C0005BD00623237058E0444805F0C7FF3B4B03
:1041D00093ED050A3A4B586901F0AAFA00284CD031
:1041E0000723237049E03E4805F0B8FF01F06CFB5F
:1041F00020B1082323702E4B00221A70394805F095
:10420000ADFF2B4B1B7853B12C4B93ED060A2C4B77
:10421000986901F08DFA80B3092323702DE09FED9A
:104220001D8A1D4CB0EE480A204601F035FFB0EE65
:10423000480A04F15C0001F02FFFB0EE480A17486D
:1042400002F0CEFB19E001F03FFB274806F00EF824
:10425000184C4FF480512046FEF794FC4FF4005167
:104260002046FEF78FFC4FF480412046FEF78AFC83
:104270004FF400412046FEF785FC05B0BDEC028BF3
:10428000F0BD00BFAFF30080182D4454FB2109405E
:1042900008B0000800000000540100200C020020BB
:1042A000DB0FC93F84080020000034431CB0000825
:1042B000DA000020000C024040B00008140000208A
:1042C0003000002048B00008D900002050B000089D
:1042D000D80000205CB0000864B000086CB0000892
:1042E00074B0000880B000088CB0000830B585B00C
:1042F000FEF70EFD044601AD0A21284600F08CFEB3
:10430000124B95E8070083E8070001F065FC0023E5
:104310000F4A13700F4A1370062B0ADC0E4A02EB89
:104320008302D2ED007AF1EE677AC2ED007A0133B2
:10433000F2E7FEF7EDFC001B0928FAD9FEF7E8FCCE
:1043400004460448FFF754FEF3E700BF840800204A
:10435000DA000020DB00002014000020704700007D
:1043600007EE901AF8EE676ADFED217A86EEA77AFB
:1043700090ED016AD0ED025AD0ED037AC7EE876A5C
:1043800076EE867A27EE257A37EE467A36EEA66AFC
:1043900037EE467A67EE807A90ED076A26EE077A66
:1043A00077EE877A90ED087A67EE266A77EEA67A3E
:1043B00090ED067A77EE877AC0ED067A90ED047A72
:1043C000F4EEC77AF1EE10FA09DC90ED057AF4EE1E
:1043D000C77AF1EE10FA04D580ED067A01E080ED9F
:1043E000067A80ED086A80ED070A90ED060A7047AC
:1043F00000007A447047D0ED016A90ED027AD0ED6A
:10440000077A70EE277AC0ED077A67EE877A90ED2B
:10441000047AF4EEC77AF1EE10FA18DD0023C361D6
:10442000F0EE477A20EE260A70EE277AC0ED067A83
:10443000F4EEC77AF1EE10FA15DC90ED057AF4EEA1
:10444000C77AF1EE10FA10D580ED067A0DE090ED06
:10445000056AF4EEC67AF1EE10FAE3D50023C361E3
:10446000F0EE467ADEE780ED067A90ED060A7047B8
:1044700070470000094B0A4999630A4ADA63203100
:10448000C3F894100832C3F898204FF07A525A6556
:104490009A65C3F8B020C3F8B420704754010020D7
:1044A000DC0000203C010020024B034A9A60034AD2
:1044B000DA6070470C0200201C0100204C01002033
:1044C00030B4134B4FF080419961124DDD610022F1
:1044D0001A62114C5C621148986259679D67DA67ED
:1044E000C3F88040C3F884000D4B9962D9621A6307
:1044F0000C4959630C4999630C49D9640C491965F5
:104500005A654FF07F529A650A4ADA6530BC7047A7
:10451000540100200000F04100008C4100008CC1DB
:104520000C02002048E11A4048E11AC03333333FFF
:104530000AD7233C0000C0BF044B054A1A60012281
:104540009A80044A9A6004229A817047540100209C
:104550000008024000000240034B044A934201D08D
:104560005C3BFAE7704700BF0C02002054010020BA
:10457000F8B51F4C1F48A0611F4BA3600425A581FF
:1045800023610123A3820827E7611C4921601C4A9B
:104590006260A0631B4BA3624FF40063A3851A4BB8
:1045A00023634FF40046A686E56321626262A0653C
:1045B000A3644FF48072A4F84C2023654FF4806309
:1045C000A4F854300C26E665104B2364104B63644A
:1045D000FDF702FB3946A069FDF782FC2946A06B76
:1045E000FDF77EFC3146A06DFDF77AFCF8BD00BFFB
:1045F000DC000020BC080020000C024000008C41C0
:10460000CDCC4C3E000802400000024048E11A4078
:10461000CDCCCC3D38B50C4C4FF47A65A5800B4819
:1046200020601821FDF778FCA5810948A0601821B9
:10463000FDF772FC46F64023A3820648206118214C
:10464000FDF76AFC38BD00BF3C0100207009002066
:1046500034090020F8080020012800D070474FF6E8
:10466000FF739942FAD110B51E4B002816DB0021CA
:10467000196100229A61DA611A621B4C5C61DA628C
:104680001A635A63996319645A649A64DA641965FF
:10469000D9635A659A655C330138E6E7134C2246C4
:1046A0001349002002F0CAFE124800228260026113
:1046B000002343618361C3610262C2608362C3629B
:1046C0000363094A4262C36303644364C3640365CA
:1046D0004365094A8264036643662246074902F03D
:1046E000ADFE10BD54010020E8B00008000000201D
:1046F000594500080C020020FCB000087144000875
:1047000010B50446202102F09EFE204610BD10B5D3
:104710000446242102F097FE204610BD08B5FFF79D
:1047200027FFFFF777FFFFF7CBFEFFF705FFFFF748
:10473000A1FEFFF7B9FE08BD08B54FF6FF710120D5
:10474000FFF78AFF08BD7047704770477047704792
:104750007047000010B50A480A4B0360D02280F869
:104760002820002280F8302080F83120064C236079
:104770003C23237401F058FE204601F0D7FD10BD04
:1047800094020020AC0900207402002010B52DED29
:10479000028BF8B007EE900AB8EE677ADFEDA67AE2
:1047A00087EE278A0222114667A802F0F3F99DF8E6
:1047B000DC3113B19DF8DD311BB926219F48FFF78D
:1047C00014FB4FF07E5367939DF8DC311BB19DF8CD
:1047D000DD31012B03D826219848FFF706FBF1EEC7
:1047E000487ACDED687A9DF8DC31012B02D99DF82D
:1047F000DD311BB926219148FFF7F7FA00236B93AF
:104800009DF8DC31012B40F207819DF8DD31012B51
:1048100040F202814FF07E536C930122022156A890
:1048200002F0B8F99DF8983113B19DF899311BB990
:1048300026218248FFF7D9FA8DED568A9DF89831E6
:10484000012B02D99DF899311BB926217B48FFF72E
:10485000CCFA00235A930222012145A802F09AF9CA
:104860009DF8543113B19DF855311BB92621734879
:10487000FFF7BBFA4FF07E5345939DF854311BB1BF
:104880009DF85531012B03D826216C48FFF7ADFA6E
:10489000002346930222114634A802F07BF99DF8CA
:1048A000103113B19DF811311BB926216348FFF770
:1048B0009CFA634B34939DF810311BB19DF8113174
:1048C000012B03D826215D48FFF78FFA002335938B
:1048D0009DF81031012B02D99DF811311BB9262109
:1048E0005648FFF782FA002338939DF81031012BC8
:1048F00040F297809DF81131012B40F29280504B8D
:1049000039930222114623A802F044F99DF8CC30D5
:1049100013B19DF8CD301BB926214848FFF765FA41
:10492000484B23939DF8CC301BB19DF8CD30012B23
:1049300003D826214148FFF758FA002324939DF815
:10494000CC30012B02D99DF8CD301BB926213B4834
:10495000FFF74BFA002327939DF8CC30012B65D944
:104960009DF8CD30012B61D9374B28930122114698
:1049700012A802F00FF99DF8883013B19DF8893024
:104980001BB926212D48FFF730FA304B129367A947
:1049900001A802F025F92E4C01A9204602F09DFA4B
:1049A00056A901A802F01CF901A904F1440002F083
:1049B00094FA45A901A802F013F901A904F18800AD
:1049C00002F08BFA022101A802F009FA422201A9A1
:1049D00004F1CC0005F006FB34A901A802F000F9AF
:1049E00001A904F5887002F078FA23A901A802F061
:1049F000F7F801A904F5AA7002F06FFA12A901A84C
:104A000002F0EEF801A904F5CC7002F066FA00207D
:104A100078B0BDEC028B10BD26210848FFF7E5F900
:104A2000F8E626210548FFF7E0F968E72621034864
:104A3000FFF7DBF998E700BF00007A4408B10008EF
:104A4000000020416F12833AA69B443B0AD7233DC6
:104A5000C802002070B504460E4615460122022108
:104A60000C3002F097F80122114604F1500002F0D8
:104A700091F80122114604F1940002F08BF8012212
:104A8000022104F1D80002F085F801232371A66009
:104A90002560204670BD00002DE9F0412DED028B10
:104AA000ADF52A7D0446B0EE408A037913B303685E
:104AB000084698470023237194F84C3013B194F8BA
:104AC0004D301BB92621AF48FFF78FF984ED038ADB
:104AD00094F84C3013B194F84D301BB92621A948F5
:104AE000FFF783F994ED030A0DF52A7DBDEC028BE7
:104AF000BDE8F081F0EE608A90F8903013B190F844
:104B000091301BB926219F48FFF76FF9C4ED148A35
:104B100094F8D43013B194F8D5301BB926219948B4
:104B2000FFF763F984ED258AA16855A802F058F8CB
:104B300004F10C05294655A802F01CF9442632461A
:104B400055A966A805F04EFAA168314477A802F08D
:104B500047F804F1500177A802F00CF9324677A922
:104B600088A805F03FFA88A966A802F057F83246EF
:104B700066A999A805F036FA42273A4699A9284627
:104B800005F030FAA16855A802F02AF8A16801F5ED
:104B9000887155A802F0EEF8324655A966A805F0CE
:104BA00021FAA16877A802F0F5F877A966A802F0C3
:104BB000E1F8324666A988A805F014FAA16801F563
:104BC000AA7188A802F02AF8324688A999A805F0A7
:104BD00009FAA0683A4699A900F5887005F002FA2A
:104BE000A16801F588710DEB060001F0F9FFA168DD
:104BF0008831684602F0CEF869460DEB060002F0F7
:104C0000B9F832460DEB060122A805F0EBF9A168D0
:104C1000883133A801F0E4FFA16801F5887133A859
:104C200002F0A8F8324633A944A805F0DBF9A168E0
:104C3000883155A802F0AEF855A944A802F09AF8B8
:104C4000324644A966A805F0CDF9A16801F5CC71FA
:104C500066A801F0E3FF324666A977A805F0C2F91D
:104C60009DF81D229DF81C1288A801F093FF88A9C9
:104C700077A802F053F9002870D088A922A802F082
:104C800079F84426324622A999A805F0ABF904F137
:104C9000D8074FF04208424699A9384605F0A2F9D4
:104CA000394688A801F09CFF04F1940166A801F040
:104CB00097FFA168883144A801F092FF294644A8D3
:104CC00002F058F8324644A955A805F08BF955A9C9
:104CD00066A801F0D3FF324666A977A805F082F9ED
:104CE00077A988A802F046F8324688A999A805F065
:104CF00079F999A9284601F091FFA168CC3177A8EC
:104D000001F06EFF394655A801F06AFFA1688831AD
:104D100055A802F02FF8324655A966A805F062F9A9
:104D200066A977A801F0AAFF324677A988A805F0FE
:104D300059F9A16801F5887188A802F01BF832467C
:104D400088A999A805F04EF9A068424699A900F5EE
:104D5000887005F047F9BBE60130C0B29DF86032BB
:104D600083428AD900239DF861229A42F4D903EB49
:104D70008002AAA901EB8202002142F8881C0133BB
:104D8000DBB2F0E708B1000810B504460022114676
:104D900001F000FF0022114604F1440001F0FAFE88
:104DA0000022114604F1880001F0F4FE00221146B1
:104DB00004F1CC0001F0EEFE0022114604F58870EB
:104DC00001F0E8FE0022114604F5AA7001F0E2FEAF
:104DD0000022114604F5CC7001F0DCFE204610BD27
:104DE000012800D070474FF6FF739942FAD12DE9A0
:104DF000F0412DED028B604800238380C380038146
:104E000043818381C3810025056145618561C56159
:104E100005624562594C2246594902F00FFB594838
:104E200045608560C56045618561C561224656491A
:104E300002F004FB554805604560856022465449F0
:104E400002F0FCFA9FED538A534EB0EE480A30460A
:104E500001F082FE514D22462946304602F0EEFA1C
:104E60004F4EB0EE480A304601F076FE2246294603
:104E7000304602F0E3FA4B4EB0EE480A304601F0FD
:104E80006BFE22462946304602F0D8FA464EB0EE76
:104E9000480A304601F060FE22462946304602F0BC
:104EA000CDFA424EB0EE480A304601F055FE224699
:104EB0002946304602F0C2FA3D4EB0EE480A30466E
:104EC00001F04AFE22462946304602F0B7FA394E32
:104ED000B0EE480A304601F03FFE224629463046F1
:104EE00002F0ACFA344EB0EE480A304601F034FE1F
:104EF00022462946304602F0A1FA304EB0EE480A6A
:104F0000304601F029FE22462946304602F096FA44
:104F10002B4D2846FFF738FF22462A49284602F043
:104F20008DFA294FDFF8A8803A4629464046FFF718
:104F300091FD264E22463146404602F07FFADFF8C8
:104F400094803A4629464046FFF784FD2246314682
:104F5000404602F073FADFF880803A462946404620
:104F6000FFF778FD22463146404602F067FABDEC75
:104F7000028BBDE8F08100BF9402002000000020F9
:104F80004D470008740200204F470008A404002089
:104F90004B470008295C0F3D4C080020474700089C
:104FA0005808002064080020280800203408002049
:104FB00040080020E8060020F4060020000700203A
:104FC000C8020020514700088D47000849470008E3
:104FD000CC0500200C070020B004002010B584B0E0
:104FE000FFF7B8FB01AC4FF47A720649204601F096
:104FF0003BFB054B94E8070083E80700002004B062
:1050000010BD00BF94020020A404002003680A68B9
:1050100002600B6070470000F0B52DED0C8B93B073
:1050200004460F46002306930793089303930493C3
:105030000593036043608360D54D284601F008FB6B
:10504000D44E304601F0A6F9EB6900932B6A019328
:105050006B6A0293694606A8FFF7D8FF01A907A863
:10506000FFF7D4FF02A908A8FFF7D0FF95ED049A37
:10507000D5ED058A95ED068AC74BD3ED007A39EE5A
:10508000679AD3ED017A78EEE78AD3ED027A38EEAB
:10509000678A73680093B3680193F3680293694663
:1050A00003A8FFF7B3FF01A904A8FFF7AFFF02A908
:1050B00005A8FFF7ABFFDDED037A9FEDB87A77EE39
:1050C000877ACDED037ADDED047AB3EE097A77EED7
:1050D000C77ACDED047ADDED057A9FEDB17A77EEF2
:1050E000877ACDED057A12A9069B41F8243DAD489B
:1050F00001F037FDB0EE40DA12A9079B41F8203DE0
:10510000A94801F02EFDF0EE40BA12A9089B41F823
:105110001C3DA64801F025FDF0EE409A12A919EEBB
:10512000103A41F8183DA24801F01BFDB0EE40AA2C
:1051300012A918EE903A41F8143D9E4801F011FD75
:10514000F0EE40DA12A918EE103A41F8103D9A48F4
:1051500001F007FDB0EE40BA12A9039B41F80C3DE7
:10516000964801F0FEFCB0EE409A12A9049B41F86B
:10517000083D934801F0F5FCF0EE408A12A9059B2A
:1051800041F8043D8F4801F0ECFCB0EE408AF0EEAF
:10519000690AB0EE6B0A02F017FD10EE100AFBF779
:1051A000DBF979A3D3E90023FBF72EFAFBF724FD03
:1051B0003946F0EE4A0A00EE100A8348FFF76CFC0D
:1051C00010EE106A10EE100AFBF7C6F96EA3D3E9D1
:1051D0000023FBF743FB41EC1A0B41EC100B02F0F0
:1051E000F7FA51EC100BFBF707FD0CEE900AB0EE4E
:1051F0004A0AF0EE6A0A02F037FA51EC100BFBF79C
:10520000FBFC0CEE100A6BEEAC0A69EE8C9A70EEA9
:10521000A90AB1EE4D0A02F0D7FC10EE100AFBF716
:105220009BF959A3D3E90023FBF7EEF9FBF7E4FC64
:105230003946F0EE6D0A00EE100A6448FFF72CFCC8
:1052400010EE105A10EE100AFBF786F94EA3D3E9C0
:105250000023FBF703FB41EC1A0B41EC100B02F0AF
:10526000B7FA51EC100BFBF7C7FC09EE900AB0EE51
:105270004A0AF0EE6A0A02F0F7F951EC100BFBF75C
:10528000BBFC0AEE100A524B1B78002B55D128EEBE
:105290002C0A68EE8C7A29EE0A9A68EEAC8A68EEDF
:1052A000A98A79EE288A28EE0C8A28EE298A78EED7
:1052B000880A30EE670A02F087FC10EE100AFBF74E
:1052C0004BF931A3D3E90023FBF79EF9FBF794FCDC
:1052D00000EE100A3F4BD3ED007A9FED3F7AF4EEDB
:1052E000C77AF1EE10FA06DB9FED3C7AF4EEC77A4E
:1052F000F1EE10FA0DD99FED3A7AF4EEC77AF1EE9D
:1053000010FA0BDB9FED377AF4EEC77AF1EE10FA64
:1053100004D8B5EEC00AF1EE10FA69D43946F0EEC1
:105320004B0A3148FFF7B8FB2660656084ED020A3E
:10533000204613B0BDEC0C8BF0BD28EE2C7A28EE85
:105340008C0A69EE0A7A68EEAC0A60EEA90A77EE7A
:10535000A07A68EE0C0A60EEA90A77EEA00A37EE92
:10536000400A02F031FC10EE100AFBF7F5F806A334
:10537000D3E90023FBF748F9FBF73EFC154B186017
:10538000134B00221A7082E76666666666A64C407A
:105390009402002074020020A40400200080A24394
:1053A00000007A434C0800205808002064080020C0
:1053B000280800203408002040080020E8060020CB
:1053C000F406002000070020CC0500200C07002078
:1053D0004C000020700800200000B442000034435C
:1053E000000034C30000B4C2B00400200000B44385
:1053F0005FED027A30EE270A90E700BF08B54FF65E
:10540000FF710120FFF7ECFC08BD0000012800D06F
:1054100070474FF6FF739942FAD170B509480024DE
:10542000046044608460084E084D3246294602F00C
:1054300005F807480460446084603246294601F05C
:10544000FDFF70BD84080020000000204B470008CD
:105450007808002038B52DED028B1F4B9B688342E6
:1054600038D01D4B1B69834232D04FF07F531B4C09
:1054700023601B4D284600F04BFDB0EE408A05F13D
:105480005C0000F045FD38EE400A30EE000AD4ED35
:10549000007A20EE278AB0EEC87AF4EEC77AF1EEF1
:1054A00010FA03D8C8EE076A27EEA68A0D4C37EE2D
:1054B000C80A204600F0F0FD084B93ED000A38EED4
:1054C000000A04F15C0000F0E7FDBDEC028B38BD82
:1054D000054BCCE7044BCAE7300000205000002009
:1054E0009001002054010020E4388E3F00000000AD
:1054F00008B52DED028B264BD3ED007A30EE670A0E
:10550000DFED247A60EE277A17EE900AFBF724F895
:1055100019A3D3E90023FBF7A1F9FBF76DFB08EE14
:10552000100AB5EEC08AF1EE10FA12DBFBF714F8A0
:1055300013A3D3E90023FBF7F7FA38B9B0EE480A12
:10554000154801F04DFABDEC028B08BDB1EE088A9A
:10555000F4E7FBF701F80CA3D3E90023FBF7C6FA45
:1055600008B1B9EE088AB0EE480A0B4801F038FAE3
:10557000E9E700BFAFF30080182D4454FB21094038
:105580008DD80401000018408DD80401000018C017
:1055900090080020000034430C02002000000000AE
:1055A00008B52DED028B204BD3ED007A30EE670A63
:1055B000DFED1E7A60EE277A17EE900AFAF7CCFF3D
:1055C00015A3D3E90023FBF749F9FBF715FB08EE18
:1055D000100AF0EEC87A17EE900AFAF7BDFF10A392
:1055E000D3E90023FBF78CFA60B9B5EEC08AF1EE7F
:1055F00010FA0DDDB9EE080A0D4801F0F1F9BDEC25
:10560000028B08BD9FED0B0A094801F0E9F9F6E7A6
:10561000B1EE080AF0E700BF182D4454FB21094001
:105620008DD8040100001840900800200000344389
:105630000C0200200000000008B52DED028BB0EE3A
:10564000408A0D4800F090FD50B10B4800F08CFDF1
:1056500001280CD09FED090A094801F067F903E021
:10566000B0EE480AFFF744FFBDEC028B08BDB0EE78
:10567000480AFFF795FFF7E75401002000000000FB
:105680000C0200200000000008B52DED028B204B1D
:105690001B78EBB11F4B93ED027A1F4BD3ED027ACF
:1056A00077EE677A17EE900AFAF756FF16A3D3E95A
:1056B0000023FAF7A9FF0022184BFBF7CFF8FBF7FE
:1056C0009BFA174B1860174B1860BDEC028B08BD96
:1056D000154800F0D9FD58B9114B93ED008A1348D5
:1056E00000F05EFC38EE400A0E4B83ED000AECE75A
:1056F0000E4800F055FC0B4BD3ED007A30EE270A34
:10570000074B83ED000AE0E7182D4454FB210940C4
:1057100010000020840800207808002000806640E7
:10572000900800209C08002054010020180200204E
:105730002DE9F0472DED028B84B0054610EE100ADE
:10574000FAF70AFF5DA3D3E90023FAF75DFFFBF741
:1057500053FA08EE100A00EE100A2846FFF77AFE08
:105760004F4B9B68AB4203D04D4B9B69AB426DD115
:105770009FED4C0A4C4801F033F9FFF785FF4B4C85
:10578000D4F810A04A4BD3ED007ADFED4A8A67EED9
:10579000A87A17EE900AFAF7DFFE3DA3D3E90023BB
:1057A000FBF75CF806460F4604F13C0000F0B0FB46
:1057B00060EE287A17EE900AFAF7CEFE34A3D3E90A
:1057C0000023FBF74BF88046894604F1980000F06F
:1057D0009FFB60EE287A17EE900AFAF7BDFE2CA325
:1057E000D3E90023FBF73AF8CDE9020140464946E8
:1057F000FBF7BAF9804630463946FBF7B5F906465D
:10580000DDE90201FBF7B0F900904346324651460C
:10581000294804F0A3FC2369E26E134403EBD3731D
:10582000B5EB630F2CDC224BD3ED007A38EE678AA0
:10583000F0EEC87A17EE900AFAF78EFE16A3D3E9B7
:105840000023FBF75DF938B900201AE0B0EE480AF2
:105850002846FFF7F1FE90E79FED128AB0EE480A66
:10586000204600F019FCB0EE480A04F15C0000F09C
:1058700013FCB0EE480A0C4801F058F8012000E093
:10588000002004B0BDEC028BBDE8F087AFF30080D0
:10589000182D4454FB2109409A9999999999B93F37
:1058A00030000020000000000C0200205401002005
:1058B0009008002000003443ACB10008399D52A28A
:1058C00046DF913F000000002DE9F0472DED028BEF
:1058D00084B0634E356906F13C04204600F060FB5D
:1058E0009FED608A60EE087A17EE900AFAF734FEB0
:1058F00055A3D3E90023FAF7B1FF80468946D6F8CD
:105900006CA006F1980000F04BFB60EE087A17EEF1
:10591000900AFAF721FE4CA3D3E90023FAF79EFF81
:10592000CDE90201504BD3ED007A67EE887A17EE8D
:10593000900AFAF711FE44A3D3E90023FAF78EFF89
:1059400006460F4640464946FBF70EF9804630466C
:105950003946FBF709F90190DDE90201FBF704F98B
:105960000090534642462946404804F0F7FB204643
:1059700000F016FB10EE100AFAF7EEFD34A3D3E99F
:105980000023FBF7D1F888B1204600F009FB10EEA8
:10599000100AFAF7E1FD30A3D3E90023FBF7A6F8DC
:1059A00020B1A4F13C031B69002B36D1B1EE040AEF
:1059B0002B4800F071FB2E4B00221A702D4800F08E
:1059C000EFFA10EE100AFAF7C7FD21A3D3E900237E
:1059D000FBF7AAF878B1274800F0E2FA10EE100AB7
:1059E000FAF7BAFD1CA3D3E90023FBF77FF810B147
:1059F0001B4BDB6EDBB9B1EE040A1F4800F04CFB19
:105A00001E4B00221A701A4B1B78CBB11B4B187817
:105A100004B0BDEC028BBDE8F0879FED190AA4F13C
:105A20003C0000F039FB124B01221A70C6E79FEDD3
:105A3000140A114800F030FB104B01221A70E2E703
:105A40000020E5E7AFF30080182D4454FB21094006
:105A500044031FEA0604F83FEC5669BEEF3FFA3FE5
:105A600054010020000034439008002064B1000875
:105A700075080020EC010020B0010020760800200D
:105A80000000000038B52DED028BFDF741F9174BF2
:105A90001B68C01AB0F5FA6F0BD2154B1C78ACB965
:105AA000B6EE000A134800F041FF2046BDEC028B21
:105AB00038BD9FED110A0F4800F038FF01224FF466
:105AC00080510E48FDF758F80124EEE79FED0A8A51
:105AD000084DB0EE480A284600F028FFB0EE480A0C
