:020000040800F2
:1000000000000220713500081F17000821170008A2
:100010002317000825170008271700080000000014
:100020000000000000000000000000002917000888
:100030002B170008000000002D1700082F170008DC
:10004000C1350008C1350008C1350008C1350008B8
:10005000C1350008C13500083717000841170008EE
:100060004B170008551700085F170008C135000836
:10007000C1350008C1350008C1350008C135000888
:10008000C1350008C1350008C1350008C135000878
:10009000C1350008C1350008C135000869170008DE
:1000A000C1350008C1350008C1350008C135000858
:1000B000C1350008C1350008C1350008C135000848
:1000C000C1350008C1350008C1350008C135000838
:1000D000C1350008C1350008C1350008C135000828
:1000E0007D170008C1350008C1350008C13500087A
:1000F000C1350008C1350008C1350008C135000808
:10010000C1350008C1350008C1350008C1350008F7
:10011000C1350008C1350008C1350008C1350008E7
:10012000C1350008C1350008C1350008C1350008D7
:10013000C1350008C1350008C1350008C1350008C7
:10014000C1350008C1350008C1350008C1350008B7
:10015000C1350008C1350008C1350008C1350008A7
:10016000C1350008C1350008C1350008C135000897
:10017000C1350008C1350008C13500080000000085
:08018000C1350008C13500087B
:1001900010B5054C237833B9044B13B10448AFF3C1
:1001A00000800123237010BD7C00002000000000AF
:1001B0000489000808B5034B1BB103490348AFF39A
:1001C000008008BD000000008000002004890008B5
:1001D00010F8012B11F8013B012A28BF9A42F7D0F1
:1001E000D01A70470000000000000000000000006E
:1001F00001F0FF01102A2BDB10F0070F08D010F8D8
:10020000013B013A8B422DD010F0070F42B3F6D1DB
:10021000F0B441EA012141EA014122F007047FF0F4
:1002200000070023F0E80256083C85EA010586EA4B
:10023000010685FA47F5A3FA87F586FA47F6A5FA87
:1002400087F68EB9EED1F0BC01F0FF0102F0070293
:1002500032B110F8013B013A83EA010313B1F8D13E
:100260000020704701387047002D06BF354603381F
:10027000073815F0010F07D1013015F4807F02BF58
:10028000013015F4C03F0130F0BC0138704700BFA9
:1002900081F0004102E000BF83F0004330B54FEA37
:1002A00041044FEA430594EA050F08BF90EA020FA4
:1002B0001FBF54EA000C55EA020C7FEA645C7FEA37
:1002C000655C00F0E2804FEA5454D4EB5555B8BF5A
:1002D0006D420CDD2C4480EA020281EA030382EACB
:1002E000000083EA010180EA020281EA0303362D5D
:1002F00088BF30BD11F0004F4FEA01314FF4801C30
:100300004CEA113102D0404261EB410113F0004F41
:100310004FEA03334CEA133302D0524263EB4303F8
:1003200094EA050F00F0A780A4F10104D5F1200E96
:100330000DDB02FA0EFC22FA05F2801841F10001F1
:1003400003FA0EF2801843FA05F359410EE0A5F1C5
:1003500020050EF1200E012A03FA0EFC28BF4CF0F6
:10036000020C43FA05F3C01851EBE37101F00045AC
:1003700007D54FF0000EDCF1000C7EEB00006EEBB9
:100380000101B1F5801F1BD3B1F5001F0CD3490843
:100390005FEA30004FEA3C0C04F101044FEA44529A
:1003A00012F5800F80F09A80BCF1004F08BF5FEA21
:1003B000500C50F1000041EB045141EA050130BD01
:1003C0005FEA4C0C404141EB010111F4801FA4F1A4
:1003D0000104E9D191F0000F04BF01460020B1FAF9
:1003E00081F308BF2033A3F10B03B3F120020CDA31
:1003F0000C3208DD02F1140CC2F10C0201FA0CF00F
:1004000021FA02F10CE002F11402D8BFC2F1200C73
:1004100001FA02F120FA0CFCDCBF41EA0C01904029
:10042000E41AA2BF01EB0451294330BD6FEA040472
:100430001F3C1CDA0C340EDC04F11404C4F120025D
:1004400020FA04F001FA02F340EA030021FA04F36F
:1004500045EA030130BDC4F10C04C4F1200220FAC6
:1004600002F001FA04F340EA0300294630BD21FA04
:1004700004F0294630BD94F0000F83F4801306BFCA
:1004800081F480110134013D4EE77FEA645C18BFBE
:100490007FEA655C29D094EA050F08BF90EA020F55
:1004A00005D054EA000C04BF1946104630BD91EA4D
:1004B000030F1EBF0021002030BD5FEA545C05D150
:1004C0004000494128BF41F0004130BD14F580048F
:1004D0003CBF01F5801130BD01F0004545F0FE4103
:1004E00041F470014FF0000030BD7FEA645C1ABF38
:1004F000194610467FEA655C1CBF0B46024650EA6F
:10050000013406BF52EA033591EA030F41F400219A
:1005100030BD00BF90F0000F04BF0021704730B520
:100520004FF4806404F132044FF000054FF00001F5
:1005300050E700BF90F0000F04BF0021704730B5B6
:100540004FF4806404F1320410F0004548BF40428B
:100550004FF000013EE700BF42004FEAE2014FEAE0
:1005600031014FEA02701FBF12F07F4393F07F4FBB
:1005700081F06051704732F07F4208BF704793F0BE
:100580007F4F04BF41F40021704730B54FF46074D1
:1005900001F0004521F000411CE700BF50EA0102D4
:1005A00008BF704730B54FF000050AE050EA01027D
:1005B00008BF704730B511F0004502D5404261EBED
:1005C00041014FF4806404F132045FEA915C3FF42E
:1005D000D8AE4FF003025FEADC0C18BF03325FEACB
:1005E000DC0C18BF033202EBDC02C2F1200300FA7C
:1005F00003FC20FA02F001FA03FE40EA0E0021FAA1
:1006000002F11444BDE600BF70B54FF0FF0C4CF48E
:10061000E06C1CEA11541DBF1CEA135594EA0C0F40
:1006200095EA0C0F00F0DEF82C4481EA030621EA7B
:100630004C5123EA4C5350EA013518BF52EA0335B6
:1006400041F4801143F4801338D0A0FB02CE4FF068
:100650000005E1FB02E506F00042E0FB03E54FF098
:100660000006E1FB03569CF0000F18BF4EF0010E90
:10067000A4F1FF04B6F5007F64F5407404D25FEA8C
:100680004E0E6D4146EB060642EAC62141EA55513F
:100690004FEAC52040EA5E504FEACE2EB4F1FD0C81
:1006A00088BFBCF5E06F1ED8BEF1004F08BF5FEAFF
:1006B000500E50F1000041EB045170BD06F00046B1
:1006C00046EA010140EA020081EA0301B4EB5C045E
:1006D000C2BFD4EB0C0541EA045170BD41F4801156
:1006E0004FF0000E013C00F3AB8014F1360FDEBF7B
:1006F000002001F0004170BDC4F10004203C35DA57
:100700000C341BDC04F11404C4F1200500FA05F3D9
:1007100020FA04F001FA05F240EA020001F000427A
:1007200021F0004110EBD37021FA04F642EB0601F0
:100730005EEA430E08BF20EAD37070BDC4F10C041A
:10074000C4F1200500FA04F320FA05F001FA04F2DE
:1007500040EA020001F0004110EBD37041F10001CA
:100760005EEA430E08BF20EAD37070BDC4F12005D5
:1007700000FA05F24EEA020E20FA04F301FA05F23D
:1007800043EA020321FA04F001F0004121FA04F2E5
:1007900020EA020000EBD3705EEA430E08BF20EAB5
:1007A000D37070BD94F0000F0FD101F000464000EF
:1007B00041EB010111F4801F08BF013CF7D041EA71
:1007C000060195F0000F18BF704703F00046520075
:1007D00043EB030313F4801F08BF013DF7D043EA46
:1007E0000603704794EA0C0F0CEA135518BF95EAFC
:1007F0000C0F0CD050EA410618BF52EA4306D1D183
:1008000081EA030101F000414FF0000070BD50EAA1
:10081000410606BF1046194652EA430619D094EA2B
:100820000C0F02D150EA013613D195EA0C0F05D115
:1008300052EA03361CBF104619460AD181EA030169
:1008400001F0004141F0FE4141F470014FF0000021
:1008500070BD41F0FE4141F4780170BD70B54FF0BC
:10086000FF0C4CF4E06C1CEA11541DBF1CEA13553C
:1008700094EA0C0F95EA0C0F00F0A7F8A4EB05041E
:1008800081EA030E52EA03354FEA013100F0888015
:100890004FEA03334FF0805545EA131343EA1263DE
:1008A0004FEA022245EA111545EA10654FEA002693
:1008B0000EF000419D4208BF964244F1FD0404F54C
:1008C000407402D25B084FEA3202B61A65EB0305A8
:1008D0005B084FEA32024FF480104FF4002CB6EB65
:1008E000020E75EB030E22BFB61A754640EA0C00E5
:1008F0005B084FEA3202B6EB020E75EB030E22BF25
:10090000B61A754640EA5C005B084FEA3202B6EB65
:10091000020E75EB030E22BFB61A754640EA9C0024
:100920005B084FEA3202B6EB020E75EB030E22BFF4
:10093000B61A754640EADC0055EA060E18D04FEAB2
:10094000051545EA16754FEA06164FEAC30343EA52
:1009500052734FEAC2025FEA1C1CC0D111F4801F1F
:100960000BD141EA00014FF000004FF0004CB6E718
:1009700011F4801F04BF01430020B4F1FD0C88BFB7
:10098000BCF5E06F3FF6AFAEB5EB030C04BFB6EBC2
:10099000020C5FEA500C50F1000041EB045170BDB5
:1009A0000EF0004E4EEA113114EB5C04C2BFD4EBE2
:1009B0000C0541EA045170BD41F480114FF0000E66
:1009C000013C90E645EA060E8DE60CEA135594EAE2
:1009D0000C0F08BF95EA0C0F3FF43BAF94EA0C0FE5
:1009E0000AD150EA01347FF434AF95EA0C0F7FF45A
:1009F00025AF104619462CE795EA0C0F06D152EAAE
:100A000003353FF4FDAE1046194622E750EA410691
:100A100018BF52EA43067FF4C5AE50EA41047FF4A2
:100A20000DAF52EA43057FF4EBAE12E74FF0FF3C07
:100A300006E000BF4FF0010C02E000BF4FF0010CD8
:100A40004DF804CD4FEA410C7FEA6C5C4FEA430C51
:100A500018BF7FEA6C5C1BD001B050EA410C0CBFA0
:100A600052EA430C91EA030F02BF90EA020F002002
:100A7000704710F1000F91EA030F58BF994208BF69
:100A800090422CBFD8176FEAE37040F00100704726
:100A90004FEA410C7FEA6C5C02D150EA013C07D17D
:100AA0004FEA430C7FEA6C5CD6D152EA033CD3D0C8
:100AB0005DF8040B704700BF8446104662468C46C2
:100AC0001946634600E000BF01B5FFF7B7FF0028F5
:100AD00048BF10F1000F01BD4DF808EDFFF7F4FF1E
:100AE0000CBF012000205DF808FB00BF4DF808EDA9
:100AF000FFF7EAFF34BF012000205DF808FB00BFCC
:100B00004DF808EDFFF7E0FF94BF012000205DF8ED
:100B100008FB00BF4DF808EDFFF7CEFF94BF0120A2
:100B200000205DF808FB00BF4DF808EDFFF7C4FF9B
:100B300034BF012000205DF808FB00BF4FEA4102EE
:100B400012F5001215D211D56FF47873B3EB62521F
:100B500012D94FEAC12343F0004343EA505311F046
:100B6000004F23FA02F018BF404270474FF00000D8
:100B7000704750EA013005D111F0004008BF6FF016
:100B8000004070474FF00000704700BF4A0011D28C
:100B900012F5001211D20DD56FF47873B3EB6252D7
:100BA0000ED44FEAC12343F0004343EA505323FAE3
:100BB00002F070474FF00000704750EA013002D158
:100BC0004FF0FF3070474FF0000070474FEA41028E
:100BD000B2F1E04324BFB3F5001CDCF1FE5C0DD99B
:100BE00001F0004C4FEAC0024CEA5070B2F1004FE5
:100BF00040EB830008BF20F00100704711F0804FE8
:100C000021D113F13872BCBF01F00040704741F4AC
:100C100080114FEA5252C2F11802C2F1200C10FAB0
:100C20000CF320FA02F018BF40F001004FEAC12394
:100C30004FEAD32303FA0CFC40EA0C0023FA02F338
:100C40004FEA4303CCE77FEA625307D150EA01330E
:100C50001EBF4FF0FE4040F44000704701F00040DE
:100C600040F0FE4040F40000704700BF53B94AB95D
:100C7000002908BF00281CBF4FF0FF314FF0FF30A4
:100C800000F072B9ADF1080C6DE904CE00F006F881
:100C9000DDF804E0DDE9022304B070472DE9F047F8
:100CA000089E04468846002B4BD18A42154667D9D8
:100CB000B2FA82F24AB1C2F1200701FA02F320FA35
:100CC00007F7954047EA030894404FEA154E230C76
:100CD000B8FBFEF71FFA85FC0EFB178843EA0843B2
:100CE00007FB0CF1994209D9EB1807F1FF3080F0AE
:100CF0001B81994240F21881023F2B445B1AA4B237
:100D0000B3FBFEF00EFB103344EA034400FB0CFC83
:100D1000A44509D92C1900F1FF3380F00781A445BF
:100D200040F2048102382C4440EA0740A4EB0C0452
:100D300000271EB1D4400023C6E900433946BDE870
:100D4000F0878B4209D9002E00F0EB800027C6E91E
:100D5000000138463946BDE8F087B3FA83F7002F23
:100D600047D18B4202D3824200F2FA80841A61EBAF
:100D7000030301209846002EE0D0C6E90048DDE7D5
:100D800002B9FFDEB2FA82F2002A40F08F80491BDE
:100D90004FEA154E1FFA85F80127B1FBFEFC230C24
:100DA0000EFB1C1143EA014308FB0CF1994207D9E1
:100DB000EB180CF1FF3002D2994200F2CD8084464C
:100DC000591AA3B2B1FBFEF00EFB101443EA04441F
:100DD00008FB00F8A04507D92C1900F1FF3302D217
:100DE000A04500F2B6801846A4EB080440EA0C4087
:100DF0009FE7C7F1200CBB4022FA0CFE4EEA030E1F
:100E000001FA07F420FA0CF521FA0CF34FEA1E4818
:100E10002543B3FBF8F92C0C08FB19331FFA8EFAA3
:100E200044EA034309FB0AF49C4202FA07F200FA7F
:100E300007F10BD91EEB030309F1FF3080F0878027
:100E40009C4240F28480A9F1020973441B1BADB29D
:100E5000B3FBF8F008FB103345EA034400FB0AFA41
:100E6000A24508D91EEB040400F1FF336BD2A24562
:100E700069D90238744440EA0940A0FB0289A4EB16
:100E80000A044C45C2464B4654D351D0002E69D07B
:100E9000B1EB0A0564EB030404FA0CFCFD40FC40D2
:100EA0004CEA0505C6E90054002747E7C2F12003D4
:100EB00020FA03F7954001FA02F021FA03F34FEA12
:100EC000154E3843010CB3FBFEF71FFA85F80EFBF5
:100ED000173341EA034107FB08F38B4204FA02F49B
:100EE00007D9691807F1FF3C2FD28B422DD9023F59
:100EF0002944CB1A81B2B3FBFEF00EFB103341EA5A
:100F0000034100FB08F38B4207D9691800F1FF3C4D
:100F100017D28B4215D902382944C91A40EA07472B
:100F20003BE73746304609E70746E7E61846FBE663
:100F30004145ABD2B8EB020A69EB0E020138134609
:100F4000A4E76046E9E7184695E76746D1E781469A
:100F50007CE702382C4447E7ACF1020C2B442FE726
:100F6000384608E73746E9E6704700BF2DE9F04309
:100F70008DB000240794089409940A940B9401946A
:100F80007E4B1A6B42F080021A631A6B02F08002E9
:100F90000192019A02941A6B42F004021A631A6BCE
:100FA00002F004020292029A03941A6B42F00102C8
:100FB0001A631A6B02F001020392039A04941A6BEB
:100FC00042F010021A631A6B02F010020492049AA3
:100FD00005941A6B42F002021A631A6B02F00202C5
:100FE0000592059A06941A6B42F008021A631B6B6D
:100FF00003F008030693069BDFF8989122464FF40E
:101000000541484601F04AFCDFF88C8122464FF446
:10101000E051404601F042FC594E2246052130463F
:1010200001F03CFC0E230793564F089701250995C4
:1010300007A9404601F04EFB112307930897099535
:1010400007A9484601F046FB4FF4A04307930897D1
:10105000099507A94C4801F03DFB4FF42043079345
:101060000897099507A9494801F034FB4FF4A0639C
:101070000793474B0893099507A9304601F02AFBCF
:101080004FF4206307930897099507A9304601F0AC
:1010900021FB4FF480730793089509940A9407A9DC
:1010A000484601F017FB4FF4044307930895099451
:1010B00003270A9707A9484601F00CFB4FF4A053F9
:1010C0000793089509940A9407A9404601F002FB8A
:1010D0004FF400630793089509940A9707A94046BF
:1010E00001F0F8FA0795089509940A9407A9304683
:1010F00001F0F0FA04230793089509940A9707A9C9
:10110000304601F0E7FA22462146062001F0ECFBCA
:10111000062001F01DFC22462146072001F0E4FBD9
:10112000072001F015FC22462146082001F0DCFBD7
:10113000082001F00DFC22462146092001F0D4FBD5
:10114000092001F005FC224621460A2001F0CCFBD3
:101150000A2001F0FDFB22462146172001F0C4FBC6
:10116000172001F0F5FB22462146282001F0BCFBA8
:10117000282001F0EDFB0DB0BDE8F08300380240FF
:10118000000C024000001110001002400004024058
:1011900000002110000002400008024000B58DB0A0
:1011A0002022002104A806F0DEFB00230193029315
:1011B0001148124A0260436083604FF6FF72C260BA
:1011C000036143610323039301230593099303A957
:1011D00000F01BFC50B900230193029301A90648BB
:1011E00000F04EFD28B90DB05DF804FB02F0EAF9FD
:1011F000F1E702F0E7F9F6E7D0080020000001402F
:1012000000B58DB02022002104A806F0ACFB00231D
:101210000193029311484FF0804202604360836063
:101220004FF6FF72C260036103230393012305930A
:10123000099303A900F0E9FB50B90023019302933D
:1012400001A9064800F01CFD28B90DB05DF804FBAB
:1012500002F0B8F9F1E702F0B5F9F6E70C09002061
:1012600000B58DB02022002104A806F07CFB0023ED
:10127000019302931148124A0260436083604FF663
:10128000FF72C26003610323039301230593099353
:1012900003A900F0BAFB50B900230193029301A9FE
:1012A000064800F0EDFC28B90DB05DF804FB02F033
:1012B00089F9F1E702F086F9F6E700BF940800200B
:1012C00000040040F0B58DB0002307930893099304
:1012D0000A930B9303684C4A934207D0B3F1804FB3
:1012E00035D04A4A934257D00DB0F0BD0025009545
:1012F000474B5A6C42F001025A645A6C02F00102E8
:101300000092009A01951A6B42F010021A631B6B4F
:1013100003F010030193019B4FF40073079302271E
:1013200008970124099403230A930B94394E07A9C3
:10133000304601F0CFF94FF4006307930897099402
:101340000A950B9407A9304601F0C4F9CCE70021B7
:10135000029103F50E331A6C42F001021A641A6C02
:1013600002F001020292029A03911A6B42F001020A
:101370001A631B6B03F001030393039B2223079360
:10138000022308930123099303220A920B9307A9CE
:10139000214801F09FF9A7E7002204921C4B196C29
:1013A00041F002011964196C01F0020104910499E1
:1013B0000592196B41F001011963196B01F00101EC
:1013C0000591059906921A6B42F004021A631B6B91
:1013D00003F004030693069B8023079302240894DA
:1013E0000126099603250A950B9407A90A4801F0DE
:1013F00071F940230793089409960A950B9407A95D
:10140000064801F067F96FE7000001400004004062
:101410000038024000100240000002400008024074
:101420000268094B9A4200D0704782B000230193B2
:10143000064B5A6C42F002025A645B6C03F00203E2
:101440000193019B02B07047000401400038024044
:1014500000B587B00023019302930393049305938F
:10146000026803F1804303F582339A4202D007B049
:101470005DF804FB002300930A4B1A6B42F0040250
:101480001A631B6B03F004030093009B4FF460731B
:101490000193022302930323059301A9024801F05B
:1014A00019F9E4E7003802400008024000B591B0A5
:1014B00000230E930F930793089309930A930B93BA
:1014C0000C930D930093019302930393049305935C
:1014D00006932D482D4A026043602022826042F626
:1014E0000312C2600361436100F076FA002838D12C
:1014F00000230E930F930EA9234800F0C1FB002890
:1015000032D1602307930023089309930A930B9326
:101510000C930D93042207A91B4800F0F5FA30BB89
:10152000082207A9184800F0EFFA18BB0C2207A9F7
:10153000154800F0E9FA00BB0023009301930293E1
:10154000039304934FF400520592069369460E48A4
:1015500000F0BFFBA0B90C48FFF77AFF11B05DF8AF
:1015600004FB02F02FF8C3E702F02CF8C9E702F001
:1015700029F8D5E702F026F8D8E702F023F8DBE7F0
:1015800002F020F8E7E700BF5808002000040140FF
:1015900008B50A480A4B03604FF4E1334360002367
:1015A0008360C36003610C2242618361C36100F008
:1015B00057FD00B908BD02F005F8FBE74809002017
:1015C0000010014008B50A480A4B03604FF4E133AC
:1015D000436000238360C36003610C224261836126
:1015E000C36100F03DFD00B908BD01F0EBFFFBE772
:1015F000880900200044004000B58BB0002305930B
:1016000006930793089309930368294A934205D0E8
:10161000284A934227D00BB05DF804FB00210191CA
:10162000254B5A6C42F010025A645A6C02F01002B8
:101630000192019A02911A6B42F002021A631B6B2B
:1016400003F002030293029BC02305930223069337
:1016500001230793032308930723099305A9174838
:1016600001F038F8D7E700210391134B1A6C42F4CC
:1016700000321A641A6C02F400320392039A049145
:101680001A6B42F008021A631B6B03F00803049301
:10169000049B6023059302230693012307930323EE
:1016A00008930723099305A9054801F013F8B2E749
:1016B0000010014000440040003802400004024095
:1016C000000C024000238B4221DA10B40BE000BF73
:1016D0004FF060421268002AF9D04FF06042147057
:1016E00001338B420FDAC45C4FF06042D2F8802E97
:1016F00012F0010FF4D04FF06042D2F8002E12F039
:10170000010FEDD0E4E718465DF8044B704718462A
:10171000704708B508461146FFF7D4FF08BD70476B
:10172000FEE7FEE7FEE7FEE770477047704708B543
:1017300001F070F908BD08B5012001F0B5F808BD49
:1017400008B5022001F0B0F808BD08B5042001F08A
:10175000ABF808BD08B5082001F0A6F808BD08B52B
:10176000102001F0A1F808BD08B54FF4807001F019
:101770009BF84FF4007001F097F808BD08B54FF4DE
:10178000806001F091F84FF4006001F08DF84FF4A3
:10179000805001F089F84FF4005001F085F84FF4C3
:1017A000804001F081F84FF4004001F07DF808BD61
:1017B00000B583B0002100910C4B5A6C42F480427A
:1017C0005A645A6C02F480420092009A01911A6C99
:1017D00042F080521A641B6C03F080530193019B0A
:1017E000072001F06FF803B05DF804FB00380240F9
:1017F00070B4036A23F001030362036A42688469D8
:1018000024F073040D6845EA040623F002048B6893
:1018100023430C4DA84202D00B4CA0420BD123F025
:101820000803CD682B4323F0040322F440724D6972
:1018300015438A692A43426086614A6842630362AB
:1018400070BC7047000001400004014030B4036ADE
:1018500023F480730362036A4268C46924F073044A
:101860000D682C4323F400738D6843EA05230E4D65
:10187000A84203D005F58065A8420ED123F4006389
:10188000CD6843EA052323F4806322F440524D6976
:1018900042EA05128D6942EA05124260C4614A6853
:1018A000C263036230BC70470000014030B4036A79
:1018B00023F480530362036A4468C26922F4E64257
:1018C0000D6842EA052223F400538D6843EA05338C
:1018D000094DA84203D005F58065A84204D124F43F
:1018E00080444D6944EA85144460C2614A680264D8
:1018F000036230BC704700BF00000140022380F843
:1019000039300268136843F001031360012380F843
:10191000393000207047000003682E4A904212D0F0
:10192000B0F1804F0FD0A2F57C4290420BD002F56F
:101930008062904207D002F58062904203D002F5A7
:101940007842904203D123F070034A681343214A3E
:1019500090422AD0B0F1804F27D0A2F57C4290422D
:1019600023D002F5806290421FD002F5806290423F
:101970001BD002F57842904217D002F57052904287
:1019800013D002F5806290420FD002F5806290423F
:101990000BD0A2F59832904207D002F580629042B7
:1019A00003D002F58062904203D123F44073CA68E9
:1019B000134303608B68C3620B688362054B9842D4
:1019C00003D003F58063984201D10B6903630123BF
:1019D0004361704700000140A8B110B5044690F87B
:1019E00039305BB1022384F83930211D2068FFF7BC
:1019F00093FF012384F83930002010BD80F838307F
:101A0000FFF70EFDEEE701207047002847D0F8B53C
:101A100005460C4690F83930002B3BD0022385F860
:101A20003930294651F8042B936823F0070393605B
:101A30002868FFF771FF29688A688E690F6A206835
:101A4000104326F4407626F00306A268A36942EA12
:101A50000323334323F47C4323F0FC03E668E26969
:101A600046EA02261E43226A1303226943EA02134E
:101A7000334327F0AA076268646942EA04123A43D2
:101A8000886029688B612B681A62012385F83930D8
:101A90000020F8BD80F83830FFF714FCBEE70120C5
:101AA0007047000030B4036A23F010030362036A36
:101AB0004468826922F4E6420D6842EA052223F076
:101AC00020038D6843EA05130E4DA84203D005F5A7
:101AD0008065A8420ED123F08003CD6843EA051348
:101AE00023F0400324F440644D6944EA85048D6981
:101AF00044EA8504446082614A688263036230BCC0
:101B0000704700BF0000014038B590F83830012B15
:101B100066D00D460446012380F83830022380F851
:101B200039300C2A1AD8DFE802F0071919192019E0
:101B300019193419191947000068FFF759FE22686E
:101B4000936943F0080393612268936923F00403C7
:101B500093612268936929690B439361012384F897
:101B60003930002084F8380038BD0068FFF79AFF4C
:101B70002268936943F4006393612268936923F4B4
:101B80008063936122689369296943EA0123936121
:101B9000E4E70068FFF75AFE2268D36943F00803C0
:101BA000D3612268D36923F00403D3612268D36927
:101BB00029690B43D361D1E70068FFF777FE2268FC
:101BC000D36943F40063D3612268D36923F480634B
:101BD000D3612268D369296943EA0123D361BDE750
:101BE0000220C1E710B4012303FA01F4036A23EAD7
:101BF00004030362036A8A40134303625DF8044BE3
:101C00007047000010B5044601220068FFF7EAFFA4
:101C10002368094A934203D002F58062934203D1BC
:101C20005A6C42F400425A642268136843F001037C
:101C30001360002010BD00BF0000014010B5044635
:101C400061B1042916D0012200210068FFF7CAFF04
:101C5000012204212068FFF7C5FF04E001220021D2
:101C60000068FFF7BFFF2268136843F001031360A9
:101C7000002010BD012204210068FFF7B3FFF2E746
:101C800090F83830012B22D030B4012280F838206F
:101C9000022380F839300468636823F070036360BE
:101CA000046863680D682B4363600468A36823F0CD
:101CB0008003A3600468A36849680B43A36080F8AD
:101CC0003920002380F83830184630BC7047022095
:101CD000704790F83830012B25D0012380F8383038
:101CE000CB6823F440738A68134323F480634A6803
:101CF000134323F400630A68134323F480530A69EF
:101D0000134323F400534A69134323F480438A693D
:101D1000134323F40043134302685364002380F801
:101D20003830184670470220704700002DE9F8430C
:101D3000044601680A6922F44052C36813430B61E8
:101D40000168CA6822F4164222F00C028368006916
:101D5000034360690343E06903431343CB60216895
:101D60004A6922F44072A36913434B61E369B3F5F6
:101D7000004F60D02368B84A934200F0148102F506
:101D80008062934200F00F8100F084FC00EB800041
:101D900000EB80006568AD00B0FBF5F5AF4FA7FB29
:101DA00005356D092E0100F075FC00EB800000EB9D
:101DB00080006568AD00B0FBF5F900F06BFC00EB4E
:101DC000800000EB80006568AD00B0FBF5F5A7FB77
:101DD00005356D094FF0640808FB15952D01323566
:101DE000A7FB05356D0905F0F005354400F052FC00
:101DF00000EB800000EB80006668B600B0FBF6F6F2
:101E000000F048FC00EB800000EB800063689B0062
:101E1000B0FBF3F0A7FB0030400908FB10684FEA65
:101E2000081808F13208A7FB0837C7F343172368DF
:101E30002F449F600DE12368874A93425BD002F5EF
:101E40008062934257D000F025FC00EB800000EB4D
:101E5000800065686D00B0FBF5F5804FA7FB053588
:101E60006D092E0100F016FC00EB800000EB8000F5
:101E700065686D00B0FBF5F900F00CFC00EB80002C
:101E800000EB800065686D00B0FBF5F5A7FB05353C
:101E90006D094FF0640808FB1595ED003235A7FB7E
:101EA00005356D096D0005F4F875354400F0F2FB59
:101EB00000EB800000EB800066687600B0FBF6F671
:101EC00000F0E8FB00EB800000EB800063685B0043
:101ED000B0FBF3F3A7FB03235B0908FB13684FEA8E
:101EE000C80808F13208A7FB0837C7F34217236870
:101EF0002F449F60ADE000F0DDFB00EB800000EBC5
:101F0000800065686D00B0FBF5F5544FA7FB053503
:101F10006D092E0100F0CEFB00EB800000EB80008D
:101F200065686D00B0FBF5F900F0C4FB00EB8000C4
:101F300000EB800065686D00B0FBF5F5A7FB05358B
:101F40006D094FF0640808FB1595ED003235A7FBCD
:101F500005356D096D0005F4F875354400F0AAFBF0
:101F600000EB800000EB800066687600B0FBF6F6C0
:101F700000F0A0FB00EB800000EB800063685B00DA
:101F8000B0FBF3F3A7FB03235B0908FB13684FEADD
:101F9000C80808F13208A7FB0837C7F342172368BF
:101FA0002F449F6055E000F085FB00EB800000EBC4
:101FB00080006568AD00B0FBF5F5284FA7FB05353F
:101FC0006D092E0100F076FB00EB800000EB800035
:101FD0006568AD00B0FBF5F900F06CFB00EB80002C
:101FE00000EB80006568AD00B0FBF5F5A7FB05359B
:101FF0006D094FF0640808FB15952D013235A7FBDC
:1020000005356D0905F0F005354400F053FB00EB94
:10201000800000EB80006668B600B0FBF6F600F0CA
:1020200049FB00EB800000EB800063689B00B0FB85
:10203000F3F0A7FB0030400908FB10684FEA0818CE
:1020400008F13208A7FB0837C7F3431723682F446A
:102050009F60BDE8F88300BF001001401F85EB5171
:1020600058B310B5044690F839300BB3242384F8E4
:1020700039302268D36823F40053D3602046FFF739
:1020800055FE2268136923F4904313612268536953
:1020900023F02A0353612268D36843F40053D360CA
:1020A0000020E063202384F8393084F83A3010BDF2
:1020B00080F83830FFF7A0FAD8E701207047000019
:1020C000002800F0BB8170B582B00446036813F0AD
:1020D000010F3BD0A74B9B6803F00C03042B2CD0C3
:1020E000A44B9B6803F00C03082B21D06368B3F565
:1020F000803F4FD0B3F5A02F52D09E4B1A6822F4E8
:1021000080321A601A6822F480221A606368002BF9
:1021100050D000F08BFC0546964B1B6813F4003F33
:1021200014D100F083FC401B6428F5D903208AE118
:10213000904B5B6813F4800FD8D08E4B1B6813F460
:10214000003F03D06368002B00F07A81236813F00E
:10215000020F55D0874B9B6813F00C0F3ED0854B78
:102160009B6803F00C03082B33D0E368002B68D086
:10217000814B01221A6000F059FC05467D4B1B681B
:1021800013F0020F54D100F051FC401B0228F5D986
:10219000032058E1774A136843F480331360B5E7AE
:1021A000744B1A6842F480221A601A6842F4803232
:1021B0001A60ABE700F03AFC05466E4B1B6813F45F
:1021C000003FC3D000F032FC401B6428F5D9032047
:1021D00039E1684B5B6813F4800FC6D1654B1B680F
:1021E00013F0020F04D0E368012B01D001202AE193
:1021F000604A136823F0F803216943EAC1031360BE
:10220000236813F0080F40D0636963B35B4B01226E
:102210001A6000F00BFC0546564B5B6F13F0020F83
:1022200033D100F003FC401B0228F5D903200AE15A
:10223000504A136823F0F803216943EAC10313608D
:10224000DEE74D4B00221A6000F0F0FB0546494BDB
:102250001B6813F0020FD3D000F0E8FB401B0228EC
:10226000F5D90320EFE0454B00221A6000F0DEFBB9
:102270000546404B5B6F13F0020F06D000F0D6FB13
:10228000401B0228F5D90320DDE0236813F0040F7A
:1022900079D0384B1B6C13F0805F33D1002301934E
:1022A000344B1A6C42F080521A641B6C03F080535A
:1022B0000193019B0125324B1B6813F4807F23D0CF
:1022C000A368012B34D0052B38D02A4B1A6F22F08B
:1022D00001021A671A6F22F004021A67A368002B22
:1022E00036D000F0A3FB0646224B1B6F13F0020F03
:1022F00048D100F09BFB801B41F288339842F3D910
:102300000320A0E00025D6E71D4A136843F480733C
:10231000136000F08BFB0646194B1B6813F4807F9B
:10232000CED100F083FB801B0228F5D903208AE080
:10233000104A136F43F001031367CFE70D4B1A6F79
:1023400042F004021A671A6F42F001021A67C5E7E9
:1023500000F06CFB0646074B1B6F13F0020F11D009
:1023600000F064FB801B41F288339842F3D90320CC
:1023700069E000BF0038024000004742800E47423B
:1023800000700040E5B9A369002B5BD0304A926829
:1023900002F00C02082A58D0022B17D02D4B002235
:1023A0001A6000F043FB0446294B1B6813F0007FC2
:1023B00042D000F03BFB001B0228F5D9032042E08D
:1023C000234A136C23F080531364DCE7214B002273
:1023D0001A6000F02BFB05461D4B1B6813F0007FB5
:1023E00006D000F023FB401B0228F5D903202AE089
:1023F000E369226A1343626A43EA8213A26A5208BB
:10240000013A43EA0243E26A43EA0263104A536034
:10241000104B01221A6000F009FB04460C4B1B68AC
:1024200013F0007F06D100F001FB001B0228F5D954
:10243000032008E0002006E0002004E001207047AF
:10244000012000E0002002B070BD0120FBE700BFCA
:102450000038024060004742324B9B6803F00C0397
:10246000042B5CD0082B01D02F4870472DE9F04B8E
:102470002C4B5A6802F03F025B6813F4800F2BD09C
:10248000284B5B68C3F388131E4600275C010025B8
:10249000E41A65EB0705A90141EA9461A001001B5C
:1024A00061EB0501CB0043EA5073C400A01943EB74
:1024B00007014B0243EAD053440220461946002349
:1024C000FEF7D4FB174B5B68C3F3014301335B009A
:1024D000B0FBF3F0BDE8F08B124B5B68C3F38813DD
:1024E0001E4600275C010025E41A65EB0705A901DB
:1024F00041EA9461A001001B61EB0501CB0043EAB6
:102500005073C400A01943EB07018B0243EA9053B8
:102510008402204619460023FEF7A8FBD2E70348B1
:10252000704700BF003802400024F40000127A0017
:10253000002800F09D8070B504464F4B1B6803F0E7
:102540000F038B4209D2CBB24B4A1370136803F0CE
:102550000F038B4201D0012070BD236813F0020FDE
:1025600017D013F0040F04D0444A936843F4E053A7
:102570009360236813F0080F04D0404A936843F433
:10258000604393603D4A936823F0F003A0680343DF
:1025900093600D46236813F0010F32D06368012B5E
:1025A00021D09A1E012A25D9344A126812F0020F4E
:1025B00060D032498A6822F0030213438B6000F036
:1025C00035FA06462D4B9B6803F00C036268B3EBAB
:1025D000820F16D000F02AFA801B41F2883398420D
:1025E000F0D90320B8E7254A126812F4003FE0D181
:1025F0000120B1E7214A126812F0007FD9D10120F1
:10260000AAE71D4B1B6803F00F03AB4209D9EAB2DE
:10261000194B1A701B6803F00F03AB4201D0012065
:102620009AE7236813F0040F06D0144A936823F442
:10263000E053E1680B439360236813F0080F07D061
:102640000E4A936823F46043216943EAC10393600F
:10265000FFF702FF094B9B68C3F30313084AD35CDF
:10266000D840084B1860002000F094F9002073E770
:102670000120704701206FE7003C02400038024013
:10268000208900080C000020014B1868704700BF2B
:102690000C00002008B5FFF7F7FF044B9B68C3F35D
:1026A0008223034AD35CD84008BD00BF00380240F3
:1026B0003089000808B5FFF7E7FF044B9B68C3F3B8
:1026C0004233034AD35CD84008BD00BF0038024003
:1026D0003089000800230F2B00F2D780F0B482B0BD
:1026E00039E0072200E00022B2403A430234674E4C
:1026F00046F82420664A1468EA4302EA04064F6852
:1027000017F4803F01D045EA0406614C26606468F6
:1027100002EA04064F6817F4003F01D045EA0406B8
:102720005B4C6660A46802EA04064F6817F4801FD9
:1027300001D045EA0406564CA660E46822404E6883
:1027400016F4001F01D045EA0402514CE260013347
:102750000F2B00F2978001229A400C6804EA0205D0
:10276000AA42F4D14C68022C01D0122C10D1DE0800
:10277000083650F826C003F00704A7000F24BC4019
:102780002CEA040C0C69BC4044EA0C0440F82640D6
:1027900004685F000326BE40F64306EA040C4C685A
:1027A00004F00304BC4044EA0C0404604C6804F1E7
:1027B000FF3CBCF1010F03D9112C01D0122C10D118
:1027C000846806EA040CCC68BC4044EA0C048460CB
:1027D000446824EA02024C68C4F300149C40144389
:1027E0004460C26816408A68BA403243C2604A6890
:1027F00012F0805FABD000220192264A546C44F460
:1028000080445464526C02F480420192019A9C0804
:10281000A61C1E4A52F8267003F0030296000F22EF
:10282000B24027EA02071C4A90423FF45CAF02F52F
:10283000806290421AD002F58062904218D002F570
:102840008062904216D002F58062904214D002F568
:102850008062904212D002F58062904210D002F560
:10286000806290423FF43DAF08223DE701223BE702
:10287000022239E7032237E7042235E7052233E74E
:10288000062231E702B0F0BC7047704700380140C3
:10289000003C0140003802400000024012B9090427
:1028A000816170478161704708B5054B5B690342E0
:1028B00000D108BD024B586102F03AFEF9E700BFB3
:1028C000003C0140074AD36823F4E0631B041B0C5F
:1028D000000200F4E060184340F0BF6040F40030B4
:1028E000D060704700ED00E030B4174BDB68C3F3F5
:1028F0000223C3F10704042C28BF04241D1D062D48
:1029000018D9033B4FF0FF3505FA04F421EA04011E
:10291000994005FA03F322EA0303194300280BDB6D
:102920000901C9B200F1604000F5614080F8001370
:1029300030BC70470023E5E700F00F000901C9B281
:10294000024B1954F4E700BF00ED00E014ED00E085
:1029500000F01F02400901239340024A42F8203050
:10296000704700BF00E100E00138B0F1807F0AD27B
:10297000064B5860064AF02182F823100020986028
:1029800007221A6070470120704700BF10E000E086
:1029900000ED00E010B504460E4B18784FF47A7342
:1029A000B3FBF0F30C4A1068B0FBF3F0FFF7DCFF69
:1029B00068B90F2C01D901200AE0002221464FF00E
:1029C000FF30FFF791FF054B1C60002000E0012065
:1029D00010BD00BF040000200C00002008000020F3
:1029E00008B50B4B1A6842F400721A601A6842F478
:1029F00080621A601A6842F480721A600320FFF73E
:102A000061FF0020FFF7C6FFFEF7D2FE002008BDE1
:102A1000003C0240034A1168034B1B780B441360CF
:102A2000704700BFC809002004000020014B18684F
:102A3000704700BFC809002038B50446FFF7F6FF0D
:102A40000546B4F1FF3F02D0044B1B781C44FFF74E
:102A5000EDFF401BA042FAD338BD00BF04000020A8
:102A60000F49D1F8883043F47003C1F888300D4B1A
:102A70001A6842F001021A60002098601A6822F079
:102A8000847222F480321A60074A5A601A6822F46B
:102A900080221A60D8604FF000638B60704700BFDF
:102AA00000ED00E0003802401030002408B50B486B
:102AB0000B4B03600B4B436000238360C3604FF4F8
:102AC0008042026143618361C361036200F08CFA5A
:102AD00000B908BD00F076FDFBE700BFCC0900207F
:102AE00000540040A086010008B50B480B4B036062
:102AF0000B4B436000238360C3604FF4804202614C
:102B000043618361C361036200F06EFA00B908BDDE
:102B100000F058FDFBE700BF200A002000580040ED
:102B2000A086010030B58BB0002305930693079370
:102B30000893099303682A4A934204D0294A93428E
:102B400027D00BB030BD00250195274C236B43F0F7
:102B500002032363236B03F002030193019B4FF4F1
:102B600040730593122306930123079303230893CD
:102B70000423099305A91D48FFF7ACFD0295236CBA
:102B800043F400132364236C03F400130293029BA9
:102B9000D7E700250395144C236B43F0020323630E
:102BA000236B03F002030393039B4FF440630593ED
:102BB0001223069301230793032308930423099305
:102BC00005A90A48FFF786FD0495236C43F48003AA
:102BD0002364236C03F480030493049BB1E700BFD8
:102BE00000540040005800400038024000040240F9
:102BF00003685A6912F4806F0DD06FF480625A61D5
:102C00000423036400230363202280F83D2080F81E
:102C10003C300120704700207047F8B506460C464E
:102C200017461D461EE02DB1FFF700FF069BC01A98
:102C3000A84217D900233363202286F83D2086F866
:102C40003E3086F83C3003201AE033685B6924EAA2
:102C500003039BB2B3FA83F35B099F420FD1B5F133
:102C6000FF3FE0D1C4F30743012BEED033689B69EB
:102C700024EA03039BB2B3FA83F35B09EDE7002078
:102C8000F8BDF8B504460D4616461F4632E01A68F0
:102C900042F400721A6023686FF480625A61042360
:102CA000236400232363202284F83D2084F83C30F1
:102CB00001202DE026B1FFF7B9FEC01BB04219D9A3
:102CC00000232363202284F83D2084F83C30032035
:102CD0001EE023685B6925EA03039BB2003318BF3B
:102CE0000123A3B123685A6912F4806FCFD1B6F1E2
:102CF000FF3FDFD1C5F30743012BEAD023689B696F
:102D000025EA03039BB2003318BF0123E9E7002043
:102D1000F8BD0000F0B583B004460D4616461F46C8
:102D2000C36A042B0DD0012B0BD013F5803F08D0C4
:102D3000036B122B0AD10268136843F4807313608B
:102D400004E02268136843F48073136000973346ED
:102D500000224FF001112046FFF75FFF58BB2369A7
:102D6000B3F5804F10D1236805F0FE051D613B4689
:102D7000324615492046FFF784FF0346E0B1236C35
:102D8000042B1ED1012317E0EB11226803F0060388
:102D900043F0F00313613B4632460C492046FFF7EF
:102DA00070FF20B1236C042B09D1012304E02368B8
:102DB000EDB21D61DBE70323184603B0F0BD03232A
:102DC000FAE70323F8E700BF020001000800010052
:102DD0002DE9F04184B004460D4616461F46C26AEE
:102DE00001680B6843F480630B60042A0DD0012A4C
:102DF0000BD012F5803F08D0036B112B0AD102686B
:102E0000136843F48073136004E02268136843F48A
:102E1000807313600097334600224FF00111204663
:102E2000FFF7FBFE002852D12369B3F5804F12D182
:102E3000236845F00105EDB21D613B4632462A4943
:102E40002046FFF71EFF0346002841D0236C042BC9
:102E500048D101233CE04FEAE51808F00608236852
:102E600048F0F0021A613B46324620492046FFF7FF
:102E700008FF20B1236C042B2ED1012328E0236806
:102E8000EDB21D613B46324617492046FFF7F9FE79
:102E900020B1236C042B21D1012319E000220392DD
:102EA000236859690391996903910399196841F459
:102EB00080711960009733464FF001112046FFF7EB
:102EC000ACFE68B9226848F0F1031361B5E703234B
:102ED000184604B0BDE8F0810323F9E70323F7E7C0
:102EE0000323F5E70323F3E70200010008000100D4
:102EF00070B504460D46164623685B6913F0800FD3
:102F000019D12046FFF774FEB8B9B5F1FF3FF3D0F1
:102F100025B1FFF78BFD801BA842EDD9236C43F050
:102F20002003236400232363202284F83D2084F8B7
:102F30003C30032000E0002070BD0120FCE770B5AC
:102F400004460D46164623685B6913F0040F19D139
:102F50002046FFF74DFEB8B9B5F1FF3FF3D025B1DC
:102F6000FFF764FD801BA842EDD9236C43F02003DA
:102F7000236400232363202284F83D2084F83C301E
:102F8000032000E0002070BD0120FCE770B505467D
:102F90000C4616462B685A6912F0400F22D15A6926
:102FA00012F0100F11D124B1FFF740FD801BA04299
:102FB000F0D92B6C43F020032B64202385F83D309F
:102FC000002385F83C30032070BD6FF010025A6179
:102FD00000232B642B63202285F83D2085F83C30AC
:102FE0000120F1E70020EFE7002800F0828010B513
:102FF000044690F83D30002B41D0242384F83D3026
:103000002268136823F001031360FFF743FB3A4B78
:10301000A3FB00239B0C226853606168374A9142EE
:1030200032D80133226813626368344A934235D838
:103030005B00B0FBF3F0C0F30B03032B00D80420BC
:103040002368D861E369216A22680B43136023690E
:10305000E16822680B4393606369A16922680B43AE
:10306000D3602268136843F00103136000202064DA
:10307000202384F83D30206384F83E0010BD80F8A2
:103080003C30FFF74FFDB8E74FF4967202FB03F3B5
:103090001B4AA2FB03239B090133C3E7A16889B93B
:1030A00003EB4302B0FBF2F2C2F30B02B2FA82F27C
:1030B0005209E2B991B903EB4303B0FBF3F040F4DA
:1030C0000040BDE703EB830202EB8202B0FBF2F2A9
:1030D000C2F30B02B2FA82F25209EAE703EB83036E
:1030E00003EB8303B0FBF3F040F44040A8E701207A
:1030F000A6E70120704700BF83DE1B43A0860100C6
:10310000D34D62102DE9F04184B004460E4690463E
:103110001F46FFF78BFC94F83D30DBB2202B04D028
:103120000226304604B0BDE8F08105460090192320
:10313000012254492046FFF770FD002840F0998095
:1031400094F83C30012B00F09680012384F83C3049
:1031500023681A6812F0010F03D11A6842F00102C5
:103160001A602268136823F400631360212384F833
:103170003D30102384F83E3000232364C4F82480BB
:103180006785A3F58033E362638D23852B460A9A16
:1031900031462046FFF7BEFD064660B1236C042B86
:1031A00004D1002384F83C300126BAE7002384F8D8
:1031B0003C300326B5E70023039323685A69039242
:1031C0009B690393039B10E0236C042B55D1226869
:1031D000136843F4007313600126A2E72A460A9994
:1031E0002046FFF7ACFE00282BD1238D002B32D0D8
:1031F0002A460A992046FFF77BFE0028E4D1636A3D
:103200005A1C626222681B781361638D013B9BB27A
:103210006385238D013B9BB223852268516911F0A0
:10322000040FDBD0002BD9D0636A591C61621B7874
:103230001361638D013B9BB26385238D013B238525
:10324000CCE7236C042B1AD12268136843F4007373
:103250001360012665E72268136843F40073136066
:10326000202384F83D30002384F83E3084F83C303D
:1032700057E7022655E7022653E7032651E70326C0
:103280004FE700BF020010002DE9F04186B0044670
:103290000E4690461F46FFF7C9FB94F83D30DBB25F
:1032A000202B04D00226304606B0BDE8F08105464A
:1032B0000090192301228C492046FFF7AEFC00281C
:1032C00040F04B8194F83C30012B00F04881012301
:1032D00084F83C3023681A6812F0010F03D11A6891
:1032E00042F001021A602268136823F4006313603D
:1032F000222384F83D30102384F83E3000232364D9
:10330000C4F824806785A3F58033E362638D238549
:103310002B460C9A31462046FFF75AFD064660B10F
:10332000236C042B04D1002384F83C300126BAE737
:10333000002384F83C300326B5E7238D5BB9029364
:1033400023685A6902929A690292029A1A6842F4B0
:1033500000721A607AE0012B0FD0022B1FD0226876
:10336000136843F4806313600023059323685A694C
:1033700005929B690593059B68E02268136823F416
:10338000806313600023039323685A6903929A6948
:103390000392039A1A6842F400721A6056E0226897
:1033A000136823F4806313602268136843F4006396
:1033B00013600023049323685A6904929B69049361
:1033C000049B43E02A460C992046FFF7DFFD68B9CD
:1033D00023681A69636A591C61621A70238D013B64
:1033E0002385638D013B9BB263852FE0236C202BEB
:1033F00001D0012657E7032655E700950C9B0022D4
:103400003A492046FFF709FC002840F0AA802268CC
:10341000136843F40073136023681A69636A591CC4
:1034200061621A70238D013B2385638D013B9BB242
:10343000638523681A69636A591C61621A70238D57
:10344000013B2385638D013B9BB26385238D002B5C
:103450007AD0032B4CD8012BB4D0022BCDD00095C1
:103460000C9B002221492046FFF7D7FB00287AD188
:103470002268136823F48063136023681A69636AFF
:10348000591C61621A70238D013B2385638D013BBA
:103490009BB2638500950C9B002214492046FFF7E0
:1034A000BCFB002861D12268136843F400731360E9
:1034B00023681A69636A591C61621A70238D013B83
:1034C0002385638D013B9BB2638523681A69636A18
:1034D000591C61621A70238D013B2385638D013B6A
:1034E0009BB26385B2E700BF020010000400010038
:1034F0002A460C992046FFF749FDF0B923681A695E
:10350000636A591C61621A70238D013B2385638DA8
:10351000013B9BB2638523685A6912F0040F95D072
:103520001A69636A591C61621A70238D013B2385F5
:10353000638D013B9BB2638588E7236C202B01D010
:103540000126B0E60326AEE6202384F83D300023B2
:1035500084F83E3084F83C30A5E60226A3E6022635
:10356000A1E603269FE603269DE603269BE600BF11
:10357000DFF834D0002103E00C4B5B58435004319A
:103580000B480C4B42189A42F6D30B4A02E0002338
:1035900042F8043B094B9A42F9D3FFF761FA04F071
:1035A000ABF900F06BF8704700000220048E0008B1
:1035B000000000207C0000207C000020780A002011
:1035C000FEE7FEE708B5D7210148FFF7FAFF00BF85
:1035D0003889000800B595B03022002108A804F011
:1035E000C2F9002303930493059306930793019371
:1035F000204A116C41F080511164126C02F080522B
:103600000192019A02931C4B1A6842F480421A609C
:103610001B6803F480430293029B012308934FF439
:103620008033099302230E934FF480020F920422F9
:103630001092A822119212930723139308A8FEF761
:103640003FFD98B90F2303930223049300230593AE
:103650004FF4A05306934FF480530793052103A81A
:10366000FEF766FF20B915B05DF804FBFFF7AAFF6F
:10367000FFF7A8FF003802400070004010B52DEDA4
:10368000028B84B0FFF7ACF9FFF7A4FFFDF76EFCE7
:10369000FFF70CFAFDF782FDFDF7B2FDFDF7E0FD47
:1036A000FDF704FFFDF774FFFDF78CFFFFF71CFA31
:1036B00000F053FC01F0B0F81E4804F08DFAFFF75B
:1036C000B5F9044600F092FA1B4804F085FAFFF7BA
:1036D000ADF9001B0928F7D9FFF7A8F9044600F057
:1036E00065FA9FED168AB0EE480A154801F0F6FB20
:1036F000B0EE480A134801F043FF0A2101A801F087
:10370000ABF8DDED037AFDEEE77A17EE903ADDEDEA
:10371000027AFDEEE77A17EE902ADDED017AFDEEF2
:10372000E77A17EE901A084804F0CEF90A2004F060
:10373000E3F9C9E74C89000860890008000000002F
:1037400040010020F801002068890008704700004F
:10375000012800D070474FF6FF739942FAD170B537
:1037600009480024046044608460084E084D3246D5
:10377000294602F0D3FB0748046044608460324667
:10378000294602F0CBFB70BDAC00002000000020F9
:103790004D3700089800002038B52DED028B172812
:1037A00027D02D2823D0144B144D2B60144C2046C9
:1037B00001F0EAFAB0EE408A04F15C0001F0E4FAAC
:1037C00038EE408A95ED000A28EE008A3C3C30EE47
:1037D000480A204601F082FB95ED000A38EE000A07
:1037E00004F15C0001F07AFBBDEC028B38BD054BA7
:1037F000DAE7044BD8E700BF0000A040100000202B
:103800007C0100205555554008B52DED028BB0EEDA
:10381000408A484801F0CCFB00284FD1464804F0CC
:1038200053F9464801F0FCFADFED457AB4EEE70AB9
:10383000F1EE10FA23DD414801F0F2FADFED417AB2
:10384000B4EEE70AF1EE10FA19D53F4BD3ED007A4A
:103850003E4B93ED007A77EE876AF4EEC86AF1EE9C
:1038600010FA1CD477EEC77AF4EEC87AF1EE10FAAB
:103870001BDD9FED370A374801F082FE0CE02F4830
:1038800001F0CEFAB5EEC00AF1EE10FA13DD9FEDAD
:10389000300A304801F074FEBDEC028B08BD9FED8C
:1038A0002E0A2C4801F06CFEF6E79FED2C0A294801
:1038B00001F066FEF0E79FED280AEAE71D4801F0F7
:1038C00077FB012808D0264804F0FEF89FED230A74
:1038D000204801F055FEDFE7224804F0F5F81748CC
:1038E00001F09EFA194BD3ED007AF4EEC07AF1EEB6
:1038F00010FA12D4114801F093FA144BD3ED007A68
:10390000F1EE677AF4EEC07AF1EE10FA0BDD9FED7E
:10391000120A104801F034FEBEE79FED0D0A0D4873
:1039200001F02EFEB8E79FED0D0A0A4801F028FECF
:10393000B2E700BF4001002078890008040200209F
:103940007CD920BE7CD9203EC0000020140000207D
:103950009A9919BFF80100209A99193F00000000B8
:10396000888900088089000808B5114BD3ED027AD8
:10397000104B93ED027A77EEC77AF1EE677A17EE85
:10398000900AFCF7E9FD08A3D3E90023FCF73CFE0D
:103990000022094BFCF762FFFDF718F9074B18608E
:1039A00008BD00BFAFF30080182D4454FB2109402F
:1039B000AC0000209800002000806640C00000207D
:1039C0002DE9F0472DED028B84B0064610EE100A6B
:1039D000FCF7C2FD73A3D3E90023FCF715FEFDF746
:1039E000F5F808EE900A00EE100A3046FFF7D4FE14
:1039F000B0EE680A3046FFF707FF5F4C204601F043
:103A0000BDF95E4B83ED000A04F15C05284601F028
:103A1000B5F95B4B83ED000A204601F001FA594BE2
:103A200083ED000A284601F0FBF9574B83ED000AAD
:103A3000FFF79AFF204601F04FFA07B2284601F03F
:103A40004BFA0FFA80FA204601F09EF99FED4F8A5B
:103A500060EE087A17EE900AFCF77EFD42A3D3E9E8
:103A60000023FCF7FBFE80468946284601F08CF9CE
:103A700060EE087A17EE900AFCF76EFD3AA3D3E9E0
:103A80000023FCF7EBFECDE9020140464946FDF775
:103A900055F88046DDE90201FDF750F800904346F5
:103AA000524639463A4804F00FF8204601F0B8F97A
:103AB00060EE087A17EE900AFCF74EFD2AA3D3E9D0
:103AC0000023FCF7CBFE80468946284601F0A8F982
:103AD00060EE087A17EE900AFCF73EFD22A3D3E9C8
:103AE0000023FCF7BBFEFDF729F805464046494692
:103AF000FDF724F82A460146264803F0E5FF54F86E
:103B00002C3C43F31E03B34227DB234BD3ED007A57
:103B100078EEE78AF0EEE87A17EE900AFCF71CFDE3
:103B200013A3D3E90023FCF7EBFF08B9002015E04D
:103B30009FED1A8A3C3CB0EE480A204601F0CEF9CF
:103B4000B0EE480A04F15C0001F0C8F9B0EE480A92
:103B5000134801F015FD012000E0002004B0BDEC89
:103B6000028BBDE8F08700BF182D4454FB210940AB
:103B70009A9999999999B93F7C010020B800002041
:103B8000BC000020A4000020A80000200000344356
:103B900090890008C8890008C000002000000000CB
:103BA000F8010020399D52A246DF913F10B584B044
:103BB0000B4C204601F091FA04F15C0001F08DFA03
:103BC000084801F09DF801AC0A21204600F044FEAF
:103BD000054B94E8070083E8070004B010BD00BF60
:103BE00040010020040200209800002030B585B07C
:103BF000FEF71CFF044601AD0A21284600F02CFE0A
:103C00000C4B95E8070083E80700FEF70FFF001B49
:103C10000928FAD9FEF70AFF0446FFF7C7FF9FED10
:103C2000060A6420FFF7CCFE0028EED0012005B084
:103C300030BD00BFAC0000200000344208B54FF694
:103C4000FF710120FFF784FD08BD704707EE901A51
:103C5000F8EE676ADFED217A86EEA77A90ED016AC9
:103C6000D0ED025AD0ED037AC7EE876A76EE867AF7
:103C700027EE257A37EE467A36EEA66A37EE467A92
:103C800067EE807A90ED076A26EE077A77EE877AFC
:103C900090ED087A67EE266A77EEA67A90ED067ABE
:103CA00077EE877AC0ED067A90ED047AF4EEC77A63
:103CB000F1EE10FA09DC90ED057AF4EEC77AF1EE38
:103CC00010FA04D580ED067A01E080ED067A80EDE9
:103CD000086A80ED070A90ED060A704700007A44F2
:103CE00070470000094B0A4999630A4ADA63203198
:103CF000C3F894100832C3F8982007495965074A59
:103D00009A65C3F8B010C3F8B42070474001002092
:103D1000C80000202801002014AE473F1F856B3FDC
:103D2000024B034A9A60034ADA607047F8010020A8
:103D3000080100203801002030B40F4B4FF08045BF
:103D40009D610E4CDC6100221A620D4858620D49DB
:103D500099625D679C67DA67C3F88000C3F88410D6
:103D6000094B0A4999620A49D9621A63094A5A6396
:103D7000094A9A6330BC7047400100200000F041BE
:103D800000008841000088C1F8010020CDCC0C4023
:103D900000009040CDCCAC3FCDCCACBF044B054A2D
:103DA0001A6001229A80044A9A6004229A8170471C
:103DB000400100200008024000000240034B044A7A
:103DC000934201D05C3BFAE7704700BFF801002046
:103DD00040010020F8B51F4C1F48A0611F4BA36095
:103DE0000122A28123610425A5820827E7611C49DD
:103DF00021601C4A6260A063A3F58063A3624FF454
:103E00000063A385184B23634FF40046A686E56341
:103E100021626262A065A3644FF48062A4F84C2022
:103E200023654FF48073A4F854300C26E665002314
:103E300023640E4B6364FDF761FD3946A069FDF70D
:103E4000E1FE2946A06BFDF7DDFE3146A06DFDF7D2
:103E5000D9FEF8BDC800002058080020000C024020
:103E600000008841CDCC4C3E00000240CDCCCC3D82
:103E700038B50C4C4FF47A65A5800B4820601821AA
:103E8000FDF7DCFEA5810948A0601821FDF7D6FEEC
:103E90004FF4B453A382064820611821FDF7CEFEEB
:103EA00038BD00BF280100200C090020D0080020E8
:103EB00094080020012800D070474FF6FF73994204
:103EC000FAD110B51B4B002816DB00211961002226
:103ED0009A61DA611A62184C5C61DA621A635A6399
:103EE000996319645A649A64DA641965D9635A65E6
:103EF0009A655C330138E6E7104C224610490020F1
:103F000002F00CF80F480022826002610023436136
:103F10008361C3610262C2608362C3620363064A53
:103F20004262C363036443642246074901F0F6FF1B
:103F300010BD00BF400100200C8A000800000020D6
:103F4000BD3D0008F8010020E13C000810B5044622
:103F5000242101F0E8FF204610BD08B5FFF73AFF25
:103F6000FFF786FFFFF7E8FEFFF718FFFFF7BAFE3F
:103F7000FFF7D6FE08BD08B54FF6FF710120FFF729
:103F800099FF08BD70477047704770477047000041
:103F900010B50A480A4B0360D02280F8282000227E
:103FA00080F8302080F83120064C23603C232374B5
:103FB00001F016F9204601F095F810BD60020020CE
:103FC000CC0900204002002010B52DED028BF8B086
:103FD00007EE900AB8EE677ADFEDA67A87EE278AB9
:103FE0000222114667A801F045FB9DF8DC3113B1B0
:103FF0009DF8DD311BB926219F48FFF7E2FA4FF00B
:104000007E5367939DF8DC311BB19DF8DD31012BA8
:1040100003D826219848FFF7D4FAF1EE487ACDED7F
:10402000687A9DF8DC31012B02D99DF8DD311BB98E
:1040300026219148FFF7C5FA00236B939DF8DC31E8
:10404000012B40F207819DF8DD31012B40F2028106
:104050004FF07E536C930122022156A801F00AFB17
:104060009DF8983113B19DF899311BB926218248EA
:10407000FFF7A7FA8DED568A9DF89831012B02D9EA
:104080009DF899311BB926217B48FFF79AFA002346
:104090005A930222012145A801F0ECFA9DF854310F
:1040A00013B19DF855311BB926217348FFF789FAE2
:1040B0004FF07E5345939DF854311BB19DF8553117
:1040C000012B03D826216C48FFF77BFA0023469387
:1040D0000222114634A801F0CDFA9DF8103113B137
:1040E0009DF811311BB926216348FFF76AFA634B2B
:1040F00034939DF810311BB19DF81131012B03D879
:1041000026215D48FFF75DFA002335939DF81031B5
:10411000012B02D99DF811311BB926215648FFF712
:1041200050FA002338939DF81031012B40F297800C
:104130009DF81131012B40F29280504B39930222AD
:10414000114623A801F096FA9DF8CC3013B19DF8E2
:10415000CD301BB926214848FFF733FA484B23934B
:104160009DF8CC301BB19DF8CD30012B03D8262112
:104170004148FFF726FA002324939DF8CC30012B09
:1041800002D99DF8CD301BB926213B48FFF719FA1B
:10419000002327939DF8CC30012B65D99DF8CD30B5
:1041A000012B61D9374B28930122114612A801F047
:1041B00061FA9DF8883013B19DF889301BB926212A
:1041C0002D48FFF7FEF9304B129367A901A801F0C3
:1041D00077FA2E4C01A9204601F0EFFB56A901A861
:1041E00001F06EFA01A904F1440001F0E6FB45A9D3
:1041F00001A801F065FA01A904F1880001F0DDFBD6
:10420000022101A801F05BFB422201A904F1CC00CC
:1042100003F09EFB34A901A801F052FA01A904F5AC
:10422000887001F0CAFB23A901A801F049FA01A98D
:1042300004F5AA7001F0C1FB12A901A801F040FA2F
:1042400001A904F5CC7001F0B8FB002078B0BDECFA
:10425000028B10BD26210848FFF7B3F9F8E62621A6
:104260000548FFF7AEF968E726210348FFF7A9F9EB
:1042700098E700BF00007A44188A00080000204137
:104280006F12833AA69B443B0AD7233D9402002039
:1042900070B504460E461546012202210C3001F08D
:1042A000E9F90122114604F1500001F0E3F901227D
:1042B000114604F1940001F0DDF90122022104F11C
:1042C000D80001F0D7F901232371A66025602046AC
:1042D00070BD00002DE9F0412DED028BADF52A7D7A
:1042E0000446B0EE408A037913B303680846984742
:1042F0000023237194F84C3013B194F84D301BB95E
:104300002621AF48FFF75DF984ED038A94F84C301D
:1043100013B194F84D301BB92621A948FFF751F984
:1043200094ED030A0DF52A7DBDEC028BBDE8F0810A
:10433000F0EE608A90F8903013B190F891301BB98C
:1043400026219F48FFF73DF9C4ED148A94F8D43034
:1043500013B194F8D5301BB926219948FFF731F9EC
:1043600084ED258AA16855A801F0AAF904F10C058D
:10437000294655A801F06EFA4426324655A966A88A
:1043800003F0E6FAA168314477A801F099F904F145
:10439000500177A801F05EFA324677A988A803F0A9
:1043A000D7FA88A966A801F0A9F9324666A999A8A2
:1043B00003F0CEFA42273A4699A9284603F0C8FAF4
:1043C000A16855A801F07CF9A16801F5887155A88C
:1043D00001F040FA324655A966A803F0B9FAA1687F
:1043E00077A801F047FA77A966A801F033FA3246B8
:1043F00066A988A803F0ACFAA16801F5AA7188A89B
:1044000001F07CF9324688A999A803F0A1FAA068C6
:104410003A4699A900F5887003F09AFAA16801F567
:1044200088710DEB060001F04BF9A16888316846F0
:1044300001F020FA69460DEB060001F00BFA324656
:104440000DEB060122A803F083FAA168883133A896
:1044500001F036F9A16801F5887133A801F0FAF985
:10446000324633A944A803F073FAA168883155A8ED
:1044700001F000FA55A944A801F0ECF9324644A92C
:1044800066A803F065FAA16801F5CC7166A801F091
:1044900035F9324666A977A803F05AFA9DF81D222D
:1044A0009DF81C1288A801F0E5F888A977A801F00A
:1044B000A5FA002870D088A922A801F0CBF94426DB
:1044C000324622A999A803F043FA04F1D8074FF025
:1044D0004208424699A9384603F03AFA394688A874
:1044E00001F0EEF804F1940166A801F0E9F8A16882
:1044F000883144A801F0E4F8294644A801F0AAF95B
:10450000324644A955A803F023FA55A966A801F03C
:1045100025F9324666A977A803F01AFA77A988A880
:1045200001F098F9324688A999A803F011FA99A9DF
:10453000284601F0E3F8A168CC3177A801F0C0F873
:10454000394655A801F0BCF8A168883155A801F09A
:1045500081F9324655A966A803F0FAF966A977A849
:1045600001F0FCF8324677A988A803F0F1F9A168B8
:1045700001F5887188A801F06DF9324688A999A8DB
:1045800003F0E6F9A068424699A900F5887003F0A7
:10459000DFF9BBE60130C0B29DF8603283428AD9B0
:1045A00000239DF861229A42F4D903EB8002AAA964
:1045B00001EB8202002142F8881C0133DBB2F0E7F4
:1045C000188A000810B504460022114601F052F87E
:1045D0000022114604F1440001F04CF8002211467B
:1045E00004F1880001F046F80022114604F1CC00E5
:1045F00001F040F80022114604F5887001F03AF805
:104600000022114604F5AA7001F034F80022114688
:1046100004F5CC7001F02EF8204610BD012800D022
:1046200070474FF6FF739942FAD12DE9F0412DED15
:10463000028B604800238380C38003814381838190
:10464000C3810025056145618561C56105624562DB
:10465000594C2246594901F061FC59484560856032
:10466000C56045618561C5612246564901F056FC29
:1046700055480560456085602246544901F04EFC6E
:104680009FED538A534EB0EE480A304600F0D4FFF7
:10469000514D22462946304601F040FC4F4EB0EEC7
:1046A000480A304600F0C8FF22462946304601F04D
:1046B00035FC4B4EB0EE480A304600F0BDFF2246B6
:1046C0002946304601F02AFC464EB0EE480A3046F4
:1046D00000F0B2FF22462946304601F01FFC424E50
:1046E000B0EE480A304600F0A7FF22462946304681
:1046F00001F014FC3D4EB0EE480A304600F09CFF3D
:1047000022462946304601F009FC394EB0EE480AEF
:10471000304600F091FF22462946304601F0FEFB6C
:10472000344EB0EE480A304600F086FF2246294655
:10473000304601F0F3FB304EB0EE480A304600F050
:104740007BFF22462946304601F0E8FB2B4D2846E8
:10475000FFF738FF22462A49284601F0DFFB294FA0
:10476000DFF8A8803A4629464046FFF791FD264EDD
:1047700022463146404601F0D1FBDFF894803A46AC
:1047800029464046FFF784FD22463146404601F067
:10479000C5FBDFF880803A4629464046FFF778FDA2
:1047A00022463146404601F0B9FBBDEC028BBDE824
:1047B000F08100BF6002002000000020893F000857
:1047C000400200208B3F0008700400204D37000895
:1047D000295C0F3D18080020853F000824080020B0
:1047E00030080020F4070020000800200C080020FA
:1047F000B4060020C0060020CC0600209402002051
:104800008D3F0008C93F0008873F00089805002039
:10481000D80600207C04002010B584B0FFF7B8FB58
:1048200001AC4FF47A720649204600F0F9FD054BC1
:1048300094E8070083E80700002004B010BD00BF23
:10484000600200207004002003680A6802600B60A8
:104850007047000000000000F0B52DED0C8B93B008
:1048600004460F460023069307930893039304938B
:104870000593036043608360AF4D284600F0C4FD9C
:10488000AE4E304600F062FCEB6900932B6A019358
:104890006B6A0293694606A8FFF7D6FF01A907A82D
:1048A000FFF7D2FF02A908A8FFF7CEFF95ED049A03
:1048B000D5ED058A95ED068AA14BD3ED007A39EE48
:1048C000679AD3ED017A78EEE78AD3ED027A38EE73
:1048D000678A73680093B3680193F368029369462B
:1048E00003A8FFF7B1FF01A904A8FFF7ADFF02A9D4
:1048F00005A8FFF7A9FFDDED037A9FED927A77EE29
:10490000877ACDED037ADDED047A9FED8F7A77EE2D
:10491000877ACDED047ADDED057AB3EE0C7A77EE89
:10492000C77ACDED057A12A9069B41F8243D874848
:1049300000F087FEB0EE40DA12A9079B41F8203D57
:10494000834800F07EFEF0EE40BA12A9089B41F8C1
:104950001C3D804800F075FEF0EE409A12A919EE59
:10496000103A41F8183D7C4800F06BFEB0EE40AACA
:1049700012A918EE903A41F8143D784800F061FE13
:10498000F0EE40DA12A918EE103A41F8103D7448E2
:1049900000F057FEB0EE40BA12A9039B41F80C3D5F
:1049A000704800F04EFEB0EE409A12A9049B41F808
:1049B000083D6D4800F045FEF0EE408A12A9059BC7
:1049C00041F8043D694800F03CFEB0EE408AF0EE4C
:1049D000690AB0EE6B0A01F077FC10EE100AFBF7E3
:1049E000BBFD53A3D3E90023FBF70EFEFCF7EEF863
:1049F0003946F0EE4A0A00EE100A5D48FFF76AFCFD
:104A000010EE106A10EE100AFBF7A6FD48A3D3E9DA
:104A10000023FBF723FF41EC1A0B41EC100B01F0D4
:104A2000F3FB51EC100BFCF7D1F80CEE900AB0EE52
:104A30004A0AF0EE6A0A01F087FB51EC100BFCF712
:104A4000C5F80CEE100A6BEEAC0A69EE8C9A70EEAB
:104A5000A90AB1EE4D0A01F037FC10EE100AFBF77F
:104A60007BFD33A3D3E90023FBF7CEFDFCF7AEF8C3
:104A70003946F0EE6D0A00EE100A3E48FFF72AFCB8
:104A800010EE105A10EE100AFBF766FD28A3D3E9CA
:104A90000023FBF7E3FE41EC1A0B41EC100B01F095
:104AA000B3FB51EC100BFCF791F809EE900AB0EE55
:104AB0004A0AF0EE6A0A01F047FB51EC100BFCF7D2
:104AC00085F828EE2C0A68EE8C7A07EE100A29EE9B
:104AD000079A68EEAC8A68EEA98A79EE288A28EEF1
:104AE0000C8A28EE298A78EE880A30EE670A01F0EF
:104AF000EBFB10EE100AFBF72FFD0DA3D3E900230B
:104B0000FBF782FDFCF762F83946F0EE4B0A00EE47
:104B1000100A1948FFF7DEFB2660656084ED020A83
:104B2000204613B0BDEC0C8BF0BD00BFAFF300808E
:104B30006666666666A64C40600200204002002061
:104B40007004002000000D430000274318080020D7
:104B50002408002030080020F4070020000800206E
:104B60000C080020B4060020C0060020CC0600205F
:104B700098050020D80600207C04002008B54FF6D8
:104B8000FF710120FFF74AFD08BD0000034B93FBB6
:104B9000F0F080B2013880B2704700BF00BD01055F
:104BA00070B506460D4614464FF4FA50FFF7EEFF77
:104BB00000FB04F0064B83FB00230344C017C0EB4B
:104BC000E33033683433AD0880B243F8250070BD5C
:104BD0000180008008B50A46C1698069FFF7E0FFDF
:104BE00008BD000000000000F8B5044610EE105AA1
:104BF0000068FBF7B1FC02460B460BA1D1E90001AE
:104C0000FBF72CFE06460F462846FBF7A5FC02469E
:104C10000B4630463946FBF7F7FCFBF7B7FF81B28E
:104C20002046FFF7D7FFF8BD00000000E0FFEF408F
:104C300010B5044661B1012915D000228189806830
:104C4000FDF72CFE0022A18A2069FDF727FE10BD8A
:104C5000012281898068FDF721FE0022A18A206956
:104C6000FDF71CFEF3E7002281898068FDF716FE40
:104C70000122A18A2069FDF711FEE8E710B52DEDAC
:104C8000028B0446006890ED008AB4EEC08AF1EE13
:104C900010FA08D4B1EE488AB4EEC08AF1EE10FAE8
:104CA00001DCB0EE408AD0ED017AB1EE677AB4EE65
:104CB000C87AF1EE10FA0FDCF4EEC87AF1EE10FAD1
:104CC00013D40221FFF7B4FF9FED0C0A2068FFF711
:104CD0008BFFBDEC028B10BD0021FFF7A9FFB0EEEA
:104CE000C80A2068FFF780FFF3E70121FFF7A0FF64
:104CF000B0EEC80A2068FFF777FFEAE7000000007F
:104D0000F8B5044605682B681B68586A00B2FBF7C3
:104D100011FC18A3D3E90023FBF776FC0022144B07
:104D2000FBF772FC06460F46AB8803EB8303580083
:104D3000FBF700FC02460B4630463946FBF78EFD7A
:104D4000FBF744FFA0602B681B685B6A626802FA8D
:104D500083F363602B681B685B6A626902FA83F302
:104D600063612B681B6800225A62F8BDAFF30080B4
:104D700000408F40182D4454FB21194090ED020A49
:104D80007047000000000000F8B50446436905685C
:104D90002A681268506A03FA80F0FBF7CBFB0CA379
:104DA000D3E90023FBF730FC06460F46A888FBF743
:104DB000C1FB02460B4630463946FBF74FFDFBF779
:104DC00005FF206100EE100AF8BD00BFAFF30080C0
:104DD000182D4454FB21194010B5044680ED030AF8
:104DE00003689B8807EE903AF8EEE77A67EE807AE0
:104DF00017EE900AFBF7B0FB06A3D3E90023FBF7FD
:104E00002DFDFBF79BFE6060014802F05DFE10BDCA
:104E1000308A0008182D4454FB211940000000007E
:104E2000F8B50446436805682A681268506A03FAB0
:104E300080F0FBF77FFB24A3D3E90023FBF7E4FB1F
:104E400006460F46A888FBF775FB02460B46304620
:104E50003946FBF703FDFBF7B9FEE060FBF77CFB8F
:104E600006460F4618A3D3E90023FBF75DFE68B999
:104E7000E068FBF771FB06460F4615A3D3E9002354
:104E8000FBF734FE88B994ED030AF8BD0EA3D3E90D
:104E9000002330463946FBF7FFF9FBF797FE00EE9B
:104EA000100A2046FFF798FFE2E707A3D3E90023A3
:104EB00030463946FBF7F2F9FBF788FE00EE100AA0
:104EC0002046FFF789FFDEE7182D4454FB211940E7
:104ED000182D4454FB2119C04068704738B52DED9A
:104EE000028B0546836B93ED008AB4EEC80AF1EE9F
:104EF00010FA06DCB1EE488AB4EEC08AF1EE10FA80
:104F000040DD05F1140405F13C00FFF737FF38EEF2
:104F1000400A94ED016A94ED027AD4ED037ADFED54
:104F2000225AC7EEA56A76EE267A27EE257A37EE64
:104F3000467A36EEA66A37EE467A60EE277A94ED28
:104F4000076A27EE067A77EE877A94ED087A66EE9E
:104F5000876A77EEA67A94ED067A77EE877AC4EDC3
:104F6000067A94ED047AF4EEC77AF1EE10FA0CDCCE
:104F700094ED057AF4EEC77AF1EE10FA07D584EDD8
:104F8000067A04E0B0EE408ABBE784ED067A84ED51
:104F9000086A84ED070A94ED060A05F13800FFF768
:104FA0006DFEBDEC028B38BD0AD7233C000000002B
:104FB00010B500F13C042046FFF732FFDFED427AE6
:104FC000B4EEE70AF1EE10FA0DDB2046FFF728FFFA
:104FD00010EE100AFBF7C0FA2FA3D3E90023FBF76A
:104FE0008FFD00284ED12046FFF71AFF10EE100A61
:104FF000FBF7B2FA2AA3D3E90023FBF781FD60B1E6
:105000002046FFF70DFF10EE100AFBF7A5FA26A3C6
:10501000D3E90023FBF77EFDB0BB2046FFF700FF7E
:1050200010EE100AFBF798FA21A3D3E90023FBF74F
:1050300071FD60B12046FFF7F3FE10EE100AFBF79A
:105040008BFA1DA3D3E90023FBF75AFDF0B92046E4
:10505000FFF7E6FEDFED1D7AB4EEE70AF1EE10FA97
:1050600016D82046FFF7DCFE10EE100AFBF774FAA4
:1050700013A3D3E90023FBF74DFD08B1012002E0A3
:10508000022000E0002010BD0020FCE70120FAE72C
:105090000220F8E7AFF30080182D440CD109074037
:1050A000182D449C253A0BC0182D4430E61518C025
:1050B000182D449C253A0B40182D4430E615184015
:1050C000182D440CD10907C0920A863E920A86BE6A
:1050D00008B53C30FFF780FE08BD08B53C30FFF74F
:1050E0000FFE08BD2DE9F04383B00646164C4FF085
:1050F000000884F8008078236370017C05270097FE
:10510000022322460068FDF7FDFF054601232370B8
:1051100060236370317C0097022322463068FDF7DC
:10512000F1FF81460223237084F801803068317CCE
:1051300000972246FDF7E6FF45EA0905EDB2284350
:1051400040B203B0BDE8F0833C080020F0B583B066
:105150000446224E03233370017C05270097012368
:1051600032460068FDF7CEFF0546217C00970623F6
:10517000721C2068FEF788F873781B021BB2B278A5
:10518000134306EE903A73791B021BB2B2791343B4
:1051900007EE103AF3781B021BB23279134307EE85
:1051A000903AF8EEE66A94ED056A76EEC66AB8EED5
:1051B000C77A94ED066A37EE467AF8EEE77A94ED10
:1051C000076A77EEC67AC4ED016A84ED027AC4ED0F
:1051D000037A284340B203B0F0BD00BF3C08002072
:1051E0002DE9F04383B00546294C6B2323704FF023
:1051F000000984F8019090F828100A2700970223EC
:1052000022460068FDF77EFF06461923237063706F
:1052100095F828100097022322462868FDF772FFB0
:1052200080461A23237084F8019095F8281000977F
:10523000022322462868FDF765FF1B23237095F89B
:105240003130DB00637095F828104FF00509CDF878
:105250000090022322462868FDF754FF07461C23CE
:10526000237095F83030DB006370286895F82810BB
:10527000CDF8009002232246FDF744FF46EA0806D7
:10528000F6B23E43F6B2304340B203B0BDE8F0831D
:1052900044080020F0B583B00546154C3B2323702D
:1052A00090F8281005270097012322460068FDF793
:1052B00029FF064695F828100097062322462868FD
:1052C000FDF7E2FF2178090209B263781943A27859
:1052D000120212B2E3781A4323791B021BB26479DB
:1052E00023436981AA81EB81304340B203B0F0BD12
:1052F00044080020F0B583B00546154C43232370C5
:1053000090F8281005270097012322460068FDF732
:10531000F9FE064695F828100097062322462868CD
:10532000FDF7B2FF2178090209B263781943A27828
:10533000120212B2E3781A4323791B021BB264797A
:105340002343A980EA802B81304340B203B0F0BDF3
:105350004408002010B50446FFF79CFF94F8302065
:10536000124B33F8123007EE903AF8EE677AB4F940
:105370000A3006EE103AB4F90C3006EE903AB4F961
:105380000E3007EE103AB8EEC66AC6EE275AF8EEAF
:10539000E66A86EEA76AB8EEC77AC7EE276AC4ED5A
:1053A000075A84ED086AC4ED096A10BD508A0008E6
:1053B00010B50446FFF79EFF94F83120114B03EB24
:1053C0008203D3ED007AB4F9043006EE103AB4F952
:1053D000063006EE903AB4F9083007EE103AB8EE0F
:1053E000C66AC6EE275AF8EEE66A86EEA76AB8EEF7
:1053F000C77AC7EE276AC4ED045A84ED056AC4ED86
:10540000066A10BD408A000838B50546FFF7A2FFBE
:1054100004462846FFF7CCFF204340B238BD0000C9
:10542000F0B52DED028B93B004460E4617460023CF
:105430000360436083600C930D930E939FED3B8A52
:10544000B0EE480A09A800F0F7F8B0EE480A06A83E
:1054500000F0F2F8B0EE480A03A800F0EDF80025DD
:10546000BD425ED23046FFF7A3FF336900937369F4
:105470000193B369029369460CA8FFF7E5F901A906
:105480000DA8FFF7E1F902A90EA8FFF7DDF912A9AF
:105490000C9B41F80C3D09A800F0D3F8F0EE408ACF
:1054A00012A90D9B41F8083D06A800F0CAF8B0EE1D
:1054B000408A12A90E9B41F8043D03A800F0C1F8F0
:1054C000CDED0C8A8DED0D8A8DED0E0A013507EEBE
:1054D000905AB8EE677AF7EE006AC6EE877A94EDD6
:1054E000006A78EEC68AD4ED016A38EE668A94EDD9
:1054F000027A30EE470A67EEA88A27EE888A67EEBE
:10550000807A78EE868AC4ED008A38EE268A84EDA9
:10551000018A77EE877AC4ED027A0120FDF78CFAD2
:105520009EE7204613B0BDEC028BF0BD3333B33E93
:1055300008B5B0F5807F0DD0B0F5806F10D0012890
:1055400014D10B480369013303619FED0A0AFFF789
:10555000BFFD0BE0084B01221A70084802F03CFB2B
:10556000054B01221A70054802F036FB08BD00BF4A
:1055700040010020C0920140C4000020588A000869
:1055800070B52DED028B0546B0EE408A00F108069D
:105590003046FFF773FB05F1240405F10C00FFF71B
:1055A000EDFB38EE400A94ED016A94ED027AD4EDF9
:1055B000037ADFED205AC7EEA56A76EE267A27EE4B
:1055C000257A37EE467A36EEA66A37EE467A60EEF0
:1055D000277A94ED076A27EE067A77EE877A94EDBC
:1055E000087A66EE876A77EEA67A94ED067A77EE09
:1055F000877AC4ED067A94ED047AF4EEC77AF1EE78
:1056000010FA09DC94ED057AF4EEC77AF1EE10FA9F
:1056100004D584ED067A01E084ED067A84ED086A0B
:1056200084ED070A94ED060A3046FFF727FBBDEC30
:10563000028B70BD0AD7233C80ED010A0122027261
:105640007047037A83B991ED007AD0ED007A77EE56
:10565000676A90ED017A27EE267A77EE877AC0EDB9
:10566000007A90ED000A7047002303720B68036014
:10567000F7E7000070B504460D461646042901D828
:10568000042A03D90F210D48FDF79BFF84F84050F1
:1056900084F84160002101E00131C9B203290BD82F
:1056A0000023032BF8D803EB810204EB82020020D5
:1056B00010600133DBB2F4E7204670BD6C8A00084D
:1056C00030B491F8403080F8403091F8413080F8A3
:1056D0004130002401E00134E4B2032C0CD8002254
:1056E000032AF8D802EB84039B00CD182D680344ED
:1056F0001D600132D2B2F3E730BC704738B50446C2
:105700000D46B1F84020B0F840309A4201D1002057
:1057100006E034211048FDF754FFF8E70130C0B22D
:1057200094F84030834214D9002294F841309342D7
:10573000F4D902EB80039B00E91891ED007A234431
:10574000D3ED007A77EE877AC3ED007A0132D2B2D8
:10575000EBE7204638BD00BF6C8A000838B5044628
:105760000D46B1F84020B0F840309A4201D10020F7
:1057700006E043211048FDF724FFF8E70130C0B2EE
:1057800094F84030834214D9002294F84130934277
:10579000F4D902EB80039B00E91891ED007A2344D1
:1057A000D3ED007A77EEC77AC3ED007A0132D2B238
:1057B000EBE7204638BD00BF6C8A000870B506468E
:1057C0000C46154691F8412095F840309A4208D190
:1057D00095F8412094F840103046FFF74BFF002029
:1057E0002CE063211948FDF7ECFEF1E701EB8003A3
:1057F00006EB830383ED007A0131C9B295F841309D
:105800008B4219D900239FED127A94F841209A42D5
:10581000ECD903EB800204EB8202D2ED007A01EBBB
:10582000830205EB8202D2ED006A67EEA67A37EEBC
:10583000277A0133DBB2E8E70130C0B294F8403098
:10584000834201D90021D9E7304670BD6C8A000837
:105850000000000010B592B004460A46014601A8B7
:10586000FFF7ACFF422201A9204602F071F8204662
:1058700012B010BD38B505460C4691F8402091F89D
:105880004110FFF7F7FE002101E00131C9B294F8A1
:1058900040308B4211D9002394F841209A42F4D928
:1058A00001EB830204EB8202106803EB810205EB3B
:1058B000820210600133DBB2EEE7284638BD38B50E
:1058C00004460D460A46FFF7D5FE002001E00130F0
:1058D000C0B294F8403083420DD9002394F841209F
:1058E0009A42F4D903EB800204EB8202002111609A
:1058F0000133DBB2F2E70023AB4209D203EB8301B1
:105900008A0022444FF07E5111600133DBB2F3E78D
:10591000204638BDF8B504460D46164690F840308E
:105920008B4201D3934203D2A5210D48FDF749FED6
:10593000B54213D0002394F841209A420ED903EBCC
:10594000850104EB8101086803EB860204EB820207
:1059500017680F6010600133DBB2ECE7F8BD00BFE1
:105960006C8A0008F8B504460D46164690F841309A
:105970008B4201D3934203D2B5210C48FDF721FE9F
:10598000B54211D0002194F840308B420CD98B00E5
:105990005A1904EB82021068334404EB83031F6836
:1059A000176018600131EEE7F8BD00BF6C8A00088F
:1059B00003780A7802700B707047F8B506460F46F8
:1059C00040314030FFF7F4FF07F1410106F141009B
:1059D000FFF7EEFF002501E00135EDB2032D0CD8F5
:1059E0000024032CF8D804EB8500800039183044DB
:1059F000FEF72AFF0134E4B2F3E7F8BD2DE9F04FDA
:105A00002DED028BC9B08246039190F8403090F89A
:105A10004120934203D191F84020934214D0C821F1
:105A2000CC48FDF7CEFD9AF8401037A8FFF747FFA6
:105A3000514626A8FFF744FE9AF8401015A8FFF734
:105A40003EFF0023019306E091F841309342E6D1F6
:105A5000E9E7029B01939AF84030019A934240F2A1
:105A600010815FFA82F99DF8D830994503D29DF8EC
:105A7000D930994503D32621B748FDF7A2FD9DF8FB
:105A8000046006EB8602930048AA134453ED227A81
:105A9000F0EEE77A9FEDB17AF4EEC77AF1EE10FA04
:105AA00021D49DF8D830994503D29DF8D930994535
:105AB00003D32621A848FDF784FD06EB8602930058
:105AC00048AA134453ED227AF0EEE77A9FEDA37AC9
:105AD000F4EEC77AF1EE10FA00F11382019B013364
