:020000040800F2
:1000000000000220853D0008B3190008B51900085A
:10001000B7190008B9190008BB1900080000000052
:10002000000000000000000000000000BD190008F2
:10003000BF19000800000000C1190008C31900081A
:10004000D53D0008D53D0008D53D0008D53D000848
:10005000D53D0008D53D0008CB190008D53D000866
:10006000D5190008DF190008E9190008D53D000876
:10007000D53D0008D53D0008D53D0008D53D000818
:10008000D53D0008D53D0008D53D0008D53D000808
:10009000D53D0008D53D0008D53D0008F3190008FE
:1000A000D53D0008D53D0008D53D0008D53D0008E8
:1000B000D53D0008D53D0008D53D0008D53D0008D8
:1000C000D53D0008D53D0008D53D0008D53D0008C8
:1000D000D53D0008D53D0008D53D0008D53D0008B8
:1000E000FF190008D53D0008D53D0008D53D0008A2
:1000F000D53D0008D53D0008D53D0008D53D000898
:10010000D53D0008D53D0008D53D0008D53D000887
:10011000D53D0008D53D0008D53D0008D53D000877
:10012000D53D0008D53D0008D53D0008D53D000867
:10013000D53D0008D53D0008D53D0008D53D000857
:10014000D53D0008D53D0008D53D0008D53D000847
:10015000D53D0008D53D0008D53D0008D53D000837
:10016000D53D0008D53D0008D53D0008D53D000827
:10017000D53D0008D53D0008D53D00080000000031
:08018000D53D0008D53D000843
:1001900010B5054C237833B9044B13B10448AFF3C1
:1001A00000800123237010BD7800002000000000B3
:1001B00048A4000808B5034B1BB103490348AFF33B
:1001C000008008BD000000007C00002048A400085A
:1001D00010F8012B11F8013B012A28BF9A42F7D0F1
:1001E000D01A70470000000000000000000000006E
:1001F00001F0FF01102A2BDB10F0070F08D010F8D8
:10020000013B013A8B422DD010F0070F42B3F6D1DB
:10021000F0B441EA012141EA014122F007047FF0F4
:1002200000070023F0E80256083C85EA010586EA4B
:10023000010685FA47F5A3FA87F586FA47F6A5FA87
:1002400087F68EB9EED1F0BC01F0FF0102F0070293
:1002500032B110F8013B013A83EA010313B1F8D13E
:100260000020704701387047002D06BF354603381F
:10027000073815F0010F07D1013015F4807F02BF58
:10028000013015F4C03F0130F0BC0138704700BFA9
:1002900081F0004102E000BF83F0004330B54FEA37
:1002A00041044FEA430594EA050F08BF90EA020FA4
:1002B0001FBF54EA000C55EA020C7FEA645C7FEA37
:1002C000655C00F0E2804FEA5454D4EB5555B8BF5A
:1002D0006D420CDD2C4480EA020281EA030382EACB
:1002E000000083EA010180EA020281EA0303362D5D
:1002F00088BF30BD11F0004F4FEA01314FF4801C30
:100300004CEA113102D0404261EB410113F0004F41
:100310004FEA03334CEA133302D0524263EB4303F8
:1003200094EA050F00F0A780A4F10104D5F1200E96
:100330000DDB02FA0EFC22FA05F2801841F10001F1
:1003400003FA0EF2801843FA05F359410EE0A5F1C5
:1003500020050EF1200E012A03FA0EFC28BF4CF0F6
:10036000020C43FA05F3C01851EBE37101F00045AC
:1003700007D54FF0000EDCF1000C7EEB00006EEBB9
:100380000101B1F5801F1BD3B1F5001F0CD3490843
:100390005FEA30004FEA3C0C04F101044FEA44529A
:1003A00012F5800F80F09A80BCF1004F08BF5FEA21
:1003B000500C50F1000041EB045141EA050130BD01
:1003C0005FEA4C0C404141EB010111F4801FA4F1A4
:1003D0000104E9D191F0000F04BF01460020B1FAF9
:1003E00081F308BF2033A3F10B03B3F120020CDA31
:1003F0000C3208DD02F1140CC2F10C0201FA0CF00F
:1004000021FA02F10CE002F11402D8BFC2F1200C73
:1004100001FA02F120FA0CFCDCBF41EA0C01904029
:10042000E41AA2BF01EB0451294330BD6FEA040472
:100430001F3C1CDA0C340EDC04F11404C4F120025D
:1004400020FA04F001FA02F340EA030021FA04F36F
:1004500045EA030130BDC4F10C04C4F1200220FAC6
:1004600002F001FA04F340EA0300294630BD21FA04
:1004700004F0294630BD94F0000F83F4801306BFCA
:1004800081F480110134013D4EE77FEA645C18BFBE
:100490007FEA655C29D094EA050F08BF90EA020F55
:1004A00005D054EA000C04BF1946104630BD91EA4D
:1004B000030F1EBF0021002030BD5FEA545C05D150
:1004C0004000494128BF41F0004130BD14F580048F
:1004D0003CBF01F5801130BD01F0004545F0FE4103
:1004E00041F470014FF0000030BD7FEA645C1ABF38
:1004F000194610467FEA655C1CBF0B46024650EA6F
:10050000013406BF52EA033591EA030F41F400219A
:1005100030BD00BF90F0000F04BF0021704730B520
:100520004FF4806404F132044FF000054FF00001F5
:1005300050E700BF90F0000F04BF0021704730B5B6
:100540004FF4806404F1320410F0004548BF40428B
:100550004FF000013EE700BF42004FEAE2014FEAE0
:1005600031014FEA02701FBF12F07F4393F07F4FBB
:1005700081F06051704732F07F4208BF704793F0BE
:100580007F4F04BF41F40021704730B54FF46074D1
:1005900001F0004521F000411CE700BF50EA0102D4
:1005A00008BF704730B54FF000050AE050EA01027D
:1005B00008BF704730B511F0004502D5404261EBED
:1005C00041014FF4806404F132045FEA915C3FF42E
:1005D000D8AE4FF003025FEADC0C18BF03325FEACB
:1005E000DC0C18BF033202EBDC02C2F1200300FA7C
:1005F00003FC20FA02F001FA03FE40EA0E0021FAA1
:1006000002F11444BDE600BF70B54FF0FF0C4CF48E
:10061000E06C1CEA11541DBF1CEA135594EA0C0F40
:1006200095EA0C0F00F0DEF82C4481EA030621EA7B
:100630004C5123EA4C5350EA013518BF52EA0335B6
:1006400041F4801143F4801338D0A0FB02CE4FF068
:100650000005E1FB02E506F00042E0FB03E54FF098
:100660000006E1FB03569CF0000F18BF4EF0010E90
:10067000A4F1FF04B6F5007F64F5407404D25FEA8C
:100680004E0E6D4146EB060642EAC62141EA55513F
:100690004FEAC52040EA5E504FEACE2EB4F1FD0C81
:1006A00088BFBCF5E06F1ED8BEF1004F08BF5FEAFF
:1006B000500E50F1000041EB045170BD06F00046B1
:1006C00046EA010140EA020081EA0301B4EB5C045E
:1006D000C2BFD4EB0C0541EA045170BD41F4801156
:1006E0004FF0000E013C00F3AB8014F1360FDEBF7B
:1006F000002001F0004170BDC4F10004203C35DA57
:100700000C341BDC04F11404C4F1200500FA05F3D9
:1007100020FA04F001FA05F240EA020001F000427A
:1007200021F0004110EBD37021FA04F642EB0601F0
:100730005EEA430E08BF20EAD37070BDC4F10C041A
:10074000C4F1200500FA04F320FA05F001FA04F2DE
:1007500040EA020001F0004110EBD37041F10001CA
:100760005EEA430E08BF20EAD37070BDC4F12005D5
:1007700000FA05F24EEA020E20FA04F301FA05F23D
:1007800043EA020321FA04F001F0004121FA04F2E5
:1007900020EA020000EBD3705EEA430E08BF20EAB5
:1007A000D37070BD94F0000F0FD101F000464000EF
:1007B00041EB010111F4801F08BF013CF7D041EA71
:1007C000060195F0000F18BF704703F00046520075
:1007D00043EB030313F4801F08BF013DF7D043EA46
:1007E0000603704794EA0C0F0CEA135518BF95EAFC
:1007F0000C0F0CD050EA410618BF52EA4306D1D183
:1008000081EA030101F000414FF0000070BD50EAA1
:10081000410606BF1046194652EA430619D094EA2B
:100820000C0F02D150EA013613D195EA0C0F05D115
:1008300052EA03361CBF104619460AD181EA030169
:1008400001F0004141F0FE4141F470014FF0000021
:1008500070BD41F0FE4141F4780170BD70B54FF0BC
:10086000FF0C4CF4E06C1CEA11541DBF1CEA13553C
:1008700094EA0C0F95EA0C0F00F0A7F8A4EB05041E
:1008800081EA030E52EA03354FEA013100F0888015
:100890004FEA03334FF0805545EA131343EA1263DE
:1008A0004FEA022245EA111545EA10654FEA002693
:1008B0000EF000419D4208BF964244F1FD0404F54C
:1008C000407402D25B084FEA3202B61A65EB0305A8
:1008D0005B084FEA32024FF480104FF4002CB6EB65
:1008E000020E75EB030E22BFB61A754640EA0C00E5
:1008F0005B084FEA3202B6EB020E75EB030E22BF25
:10090000B61A754640EA5C005B084FEA3202B6EB65
:10091000020E75EB030E22BFB61A754640EA9C0024
:100920005B084FEA3202B6EB020E75EB030E22BFF4
:10093000B61A754640EADC0055EA060E18D04FEAB2
:10094000051545EA16754FEA06164FEAC30343EA52
:1009500052734FEAC2025FEA1C1CC0D111F4801F1F
:100960000BD141EA00014FF000004FF0004CB6E718
:1009700011F4801F04BF01430020B4F1FD0C88BFB7
:10098000BCF5E06F3FF6AFAEB5EB030C04BFB6EBC2
:10099000020C5FEA500C50F1000041EB045170BDB5
:1009A0000EF0004E4EEA113114EB5C04C2BFD4EBE2
:1009B0000C0541EA045170BD41F480114FF0000E66
:1009C000013C90E645EA060E8DE60CEA135594EAE2
:1009D0000C0F08BF95EA0C0F3FF43BAF94EA0C0FE5
:1009E0000AD150EA01347FF434AF95EA0C0F7FF45A
:1009F00025AF104619462CE795EA0C0F06D152EAAE
:100A000003353FF4FDAE1046194622E750EA410691
:100A100018BF52EA43067FF4C5AE50EA41047FF4A2
:100A20000DAF52EA43057FF4EBAE12E74FF0FF3C07
:100A300006E000BF4FF0010C02E000BF4FF0010CD8
:100A40004DF804CD4FEA410C7FEA6C5C4FEA430C51
:100A500018BF7FEA6C5C1BD001B050EA410C0CBFA0
:100A600052EA430C91EA030F02BF90EA020F002002
:100A7000704710F1000F91EA030F58BF994208BF69
:100A800090422CBFD8176FEAE37040F00100704726
:100A90004FEA410C7FEA6C5C02D150EA013C07D17D
:100AA0004FEA430C7FEA6C5CD6D152EA033CD3D0C8
:100AB0005DF8040B704700BF8446104662468C46C2
:100AC0001946634600E000BF01B5FFF7B7FF0028F5
:100AD00048BF10F1000F01BD4DF808EDFFF7F4FF1E
:100AE0000CBF012000205DF808FB00BF4DF808EDA9
:100AF000FFF7EAFF34BF012000205DF808FB00BFCC
:100B00004DF808EDFFF7E0FF94BF012000205DF8ED
:100B100008FB00BF4DF808EDFFF7CEFF94BF0120A2
:100B200000205DF808FB00BF4DF808EDFFF7C4FF9B
:100B300034BF012000205DF808FB00BF4FEA410CE4
:100B40007FEA6C5C02D150EA013C0AD14FEA430CC7
:100B50007FEA6C5C02D152EA033C02D14FF0000004
:100B600070474FF0010070474FEA410212F5001242
:100B700015D211D56FF47873B3EB625212D94FEAE4
:100B8000C12343F0004343EA505311F0004F23FACE
:100B900002F018BF404270474FF00000704750EA23
:100BA000013005D111F0004008BF6FF000407047E0
:100BB0004FF00000704700BF4A0011D212F500123A
:100BC00011D20DD56FF47873B3EB62520ED44FEAA5
:100BD000C12343F0004343EA505323FA02F0704725
:100BE0004FF00000704750EA013002D14FF0FF3063
:100BF00070474FF0000070474FEA4102B2F1E04306
:100C000024BFB3F5001CDCF1FE5C0DD901F0004CF3
:100C10004FEAC0024CEA5070B2F1004F40EB830043
:100C200008BF20F00100704711F0804F21D113F16F
:100C30003872BCBF01F00040704741F480114FEAA8
:100C40005252C2F11802C2F1200C10FA0CF320FA31
:100C500002F018BF40F001004FEAC1234FEAD3234E
:100C600003FA0CFC40EA0C0023FA02F34FEA4303B8
:100C7000CCE77FEA625307D150EA01331EBF4FF041
:100C8000FE4040F44000704701F0004040F0FE405C
:100C900040F40000704700BF53B94AB9002908BFAB
:100CA00000281CBF4FF0FF314FF0FF3000F072B949
:100CB000ADF1080C6DE904CE00F006F8DDF804E0B3
:100CC000DDE9022304B070472DE9F047089E044691
:100CD0008846002B4BD18A42154667D9B2FA82F278
:100CE0004AB1C2F1200701FA02F320FA07F7954052
:100CF00047EA030894404FEA154E230CB8FBFEF771
:100D00001FFA85FC0EFB178843EA084307FB0CF12A
:100D1000994209D9EB1807F1FF3080F01B81994205
:100D200040F21881023F2B445B1AA4B2B3FBFEF0E1
:100D30000EFB103344EA034400FB0CFCA44509D924
:100D40002C1900F1FF3380F00781A44540F20481A3
:100D500002382C4440EA0740A4EB0C0400271EB1E3
:100D6000D4400023C6E900433946BDE8F0878B42F2
:100D700009D9002E00F0EB800027C6E900013846B3
:100D80003946BDE8F087B3FA83F7002F47D18B428D
:100D900002D3824200F2FA80841A61EB030301203D
:100DA0009846002EE0D0C6E90048DDE702B9FFDE34
:100DB000B2FA82F2002A40F08F80491B4FEA154EAA
:100DC0001FFA85F80127B1FBFEFC230C0EFB1C115A
:100DD00043EA014308FB0CF1994207D9EB180CF1E7
:100DE000FF3002D2994200F2CD808446591AA3B254
:100DF000B1FBFEF00EFB101443EA044408FB00F8BC
:100E0000A04507D92C1900F1FF3302D2A04500F20A
:100E1000B6801846A4EB080440EA0C409FE7C7F1EF
:100E2000200CBB4022FA0CFE4EEA030E01FA07F436
:100E300020FA0CF521FA0CF34FEA1E482543B3FBC8
:100E4000F8F92C0C08FB19331FFA8EFA44EA034315
:100E500009FB0AF49C4202FA07F200FA07F10BD9E7
:100E60001EEB030309F1FF3080F087809C4240F2C3
:100E70008480A9F1020973441B1BADB2B3FBF8F0E7
:100E800008FB103345EA034400FB0AFAA24508D9DF
:100E90001EEB040400F1FF336BD2A24569D902387E
:100EA000744440EA0940A0FB0289A4EB0A044C45C3
:100EB000C2464B4654D351D0002E69D0B1EB0A053F
:100EC00064EB030404FA0CFCFD40FC404CEA05050D
:100ED000C6E90054002747E7C2F1200320FA03F7D0
:100EE000954001FA02F021FA03F34FEA154E384318
:100EF000010CB3FBFEF71FFA85F80EFB173341EA2E
:100F0000034107FB08F38B4204FA02F407D969187E
:100F100007F1FF3C2FD28B422DD9023F2944CB1A37
:100F200081B2B3FBFEF00EFB103341EA034100FB3C
:100F300008F38B4207D9691800F1FF3C17D28B42A6
:100F400015D902382944C91A40EA07473BE7374612
:100F5000304609E70746E7E61846FBE64145ABD2CF
:100F6000B8EB020A69EB0E0201381346A4E76046AB
:100F7000E9E7184695E76746D1E781467CE70238FE
:100F80002C4447E7ACF1020C2B442FE7384608E726
:100F90003746E9E6704700BF2DE9F0478CB00024E2
:100FA0000794089409940A940B940194854B1A6B46
:100FB00042F080021A631A6B02F080020192019AD9
:100FC00002941A6B42F004021A631A6B02F00402D4
:100FD0000292029A03941A6B42F001021A631A6B8E
:100FE00002F001020392039A04941A6B42F0100279
:100FF0001A631A6B02F010020492049A05941A6B99
:1010000042F002021A631A6B02F002020592059A7C
:1010100006941A6B42F008021A631B6B03F0080374
:101020000693069B684F22464FF20501384601F0B1
:1010300099FDDFF8A08122464FF40541404601F0BA
:1010400091FDDFF8949122464FF4E051484601F0BB
:1010500089FD0C2307935D4E08960125099507A984
:10106000484601F09BFC079508960223099307A9BF
:10107000404601F093FC102307930896099507A9B1
:10108000404601F08BFC4FF4A04307930896099566
:1010900007A94F4801F082FC4FF4005307930896CC
:1010A0000995DFF838A107A9504601F077FC4FF405
:1010B000004307930896099407A9504601F06EFC77
:1010C0004FF4A06307930894099407A9384601F0E8
:1010D00065FC4FF4206307930896099507A93846E5
:1010E00001F05CFC4FF201030793089509940A9400
:1010F00007A9384601F052FC4FF480730793089516
:1011000009940A9407A9404601F048FC4FF40443AF
:1011100007930895099403260A9607A9404601F00B
:101120003DFC4FF4A0530793089509940A9407A92E
:10113000484601F033FC4FF4006307930895099487
:101140000A9607A9484601F029FC0423079308954D
:1011500009940A9607A9384601F020FC2246214648
:10116000062001F029FD062001F05AFD2246214605
:10117000082001F021FD082001F052FD2246214601
:10118000092001F019FD092001F04AFD22462146FF
:101190000A2001F011FD0A2001F042FD22462146FD
:1011A000172001F009FD172001F03AFD22462146E3
:1011B000282001F001FD282001F032FD0CB0BDE82F
:1011C000F08700BF00380240000C02400000111000
:1011D00000100240000002400008024000040240EB
:1011E00000B58DB02022002104A808F05EF900238C
:1011F000019302931148124A0260436083604FF6E4
:10120000FF72C260036143610323039301230593CB
:10121000099303A900F05DFD50B9002301930293E7
:1012200001A9064800F090FE28B90DB05DF804FB56
:1012300002F0D2FDF1E702F0CFFDF6E7F008002062
:101240000000014000B58DB02022002104A808F064
:101250002CF900230193029311484FF08042026061
:10126000436083604FF6FF72C26003610323039300
:1012700001230593099303A900F02BFD50B9002326
:101280000193029301A9064800F05EFE28B90DB053
:101290005DF804FB02F0A0FDF1E702F09DFDF6E72A
:1012A0002C09002000B58DB02022002104A808F0F0
:1012B000FCF80023019302931148124A0260436034
:1012C00083604FF6FF72C26003610323039301231F
:1012D0000593099303A900F0FCFC50B90023019386
:1012E000029301A9064800F02FFE28B90DB05DF861
:1012F00004FB02F071FDF1E702F06EFDF6E700BFBE
:10130000B408002000040040F0B58DB0002307931E
:10131000089309930A930B9303684C4A934207D0AE
:10132000B3F1804F35D04A4A934257D00DB0F0BD4B
:1013300000250095474B5A6C42F001025A645A6CE2
:1013400002F001020092009A01951A6B42F010021D
:101350001A631B6B03F010030193019B4FF400739E
:101360000793022708970124099403230A930B94F7
:10137000394E07A9304601F011FB4FF40063079383
:10138000089709940A950B9407A9304601F006FBCB
:10139000CCE70021029103F50E331A6C42F00102F2
:1013A0001A641A6C02F001020292029A03911A6BFB
:1013B00042F001021A631B6B03F001030393039BCA
:1013C00022230793022308930123099303220A92FD
:1013D0000B9307A9214801F0E1FAA7E70022049244
:1013E0001C4B196C41F002011964196C01F00201E7
:1013F000049104990592196B41F001011963196B6D
:1014000001F001010591059906921A6B42F0040260
:101410001A631B6B03F004030693069B8023079358
:10142000022408940126099603250A950B9407A91E
:101430000A4801F0B3FA40230793089409960A95E5
:101440000B9407A9064801F0A9FA6FE700000140D4
:10145000000400400038024000100240000002403A
:10146000000802400268094B9A4200D0704782B0DF
:1014700000230193064B5A6C42F002025A645B6CE3
:1014800003F002030193019B02B070470004014086
:101490000038024000B587B0002301930293039304
:1014A00004930593026803F1804303F582339A4263
:1014B00002D007B05DF804FB002300930A4B1A6BBF
:1014C00042F004021A631B6B03F004030093009BB9
:1014D0004FF460730193022302930323059301A940
:1014E000024801F05BFAE4E70038024000080240DD
:1014F00000B591B000230E930F93079308930993BF
:101500000A930B930C930D9300930193029303930F
:101510000493059306932D482D4A026043602022D0
:10152000826042F60312C2600361436100F0B8FBBF
:10153000002838D100230E930F930EA9234800F002
:1015400003FD002832D160230793002308930993F9
:101550000A930B930C930D93042207A91B4800F0E8
:1015600037FC30BB082207A9184800F031FC18BB33
:101570000C2207A9154800F02BFC00BB00230093A8
:1015800001930293039304934FF400520592069340
:1015900069460E4800F001FDA0B90C48FFF77AFF3C
:1015A00011B05DF804FB02F017FCC3E702F014FC75
:1015B000C9E702F011FCD5E702F00EFCD8E702F013
:1015C0000BFCDBE702F008FCE7E700BF780800202F
:1015D0000004014008B50B480B4B03600B4B436004
:1015E00000238360C3604FF48042026143618361E2
:1015F000C361036202F002F900B908BD02F0ECFB1E
:10160000FBE700BF6809002000540040A0860100ED
:1016100008B50B480B4B03600B4B43600023836002
:10162000C3604FF48042026143618361C36103621E
:1016300002F0E4F800B908BD02F0CEFBFBE700BF02
:10164000BC09002000580040A086010030B58BB0D6
:1016500000230593069307930893099303682A4A86
:10166000934204D0294A934227D00BB030BD0025C5
:101670000195274C236B43F002032363236B03F094
:1016800002030193019B4FF44073059312230693C9
:1016900001230793032308930423099305A91D48F5
:1016A00001F07CF90295236C43F400132364236C4E
:1016B00003F400130293029BD7E700250395144C13
:1016C000236B43F002032363236B03F002030393B2
:1016D000039B4FF440630593122306930123079362
:1016E000032308930423099305A90A4801F056F936
:1016F0000495236C43F480032364236C03F4800378
:101700000493049BB1E700BF005400400058004020
:10171000003802400004024010B58EB000240A9444
:101720000B940C940D942422214601A807F0BDFED1
:101730001E481F4B03604FF4803343608460046194
:10174000012383610462C4621A4A8262C460C36175
:101750000463436101F084FBF0B90F230A93012372
:101760000B9300230C930AA9104801F07DFCB0B93B
:101770000F230193012302930593039300230993FD
:101780000D4A089207930693049301A9074801F0B4
:1017900033FD38B90EB010BD02F01EFBDDE702F0DC
:1017A0001BFBE5E702F018FBF4E700BF100A00207E
:1017B000002001400100000F01000F0000B589B0BA
:1017C000002303930493059306930793026803F1A0
:1017D000804303F590339A4202D009B05DF804FBD0
:1017E0000021019103F58C335A6C42F480725A64E3
:1017F0005A6C02F480720192019A02911A6B42F0C3
:1018000004021A631B6B03F004030293029B22235E
:1018100003930323049303A9014801F0BFF8DCE715
:101820000008024008B50A480A4B03604FF4E13350
:10183000436000238360C36003610C2242618361C3
:10184000C36100F071FD00B908BD02F0C5FAFBE705
:10185000580A00200010014008B50A480A4B0360EE
:101860004FF4E133436000238360C36003610C22C3
:1018700042618361C36100F057FD00B908BD02F009
:10188000ABFAFBE7980A00200044004000B58BB09B
:101890000023059306930793089309930368294A45
:1018A000934205D0284A934227D00BB05DF804FB41
:1018B00000210191254B5A6C42F010025A645A6C77
:1018C00002F010020192019A02911A6B42F0020298
:1018D0001A631B6B03F002030293029BC023059360
:1018E00002230693012307930323089307230993F5
:1018F00005A9174801F052F8D7E700210391134BCF
:101900001A6C42F400321A641A6C02F40032039228
:10191000039A04911A6B42F008021A631B6B03F0DE
:1019200008030493049B6023059302230693012379
:101930000793032308930723099305A9054801F09A
:101940002DF8B2E70010014000440040003802408A
:1019500000040240000C024000238B4221DA10B444
:101960000BE000BF4FF060421268002AF9D04FF040
:101970006042147001338B420FDAC45C4FF0604256
:10198000D2F8802E12F0010FF4D04FF06042D2F85E
:10199000002E12F0010FEDD0E4E718465DF8044B7D
:1019A00070471846704708B508461146FFF7D4FF40
:1019B00008BD7047FEE7FEE7FEE7FEE770477047A9
:1019C000704708B501F08EF908BD08B5012001F097
:1019D000D3F808BD08B5042001F0CEF808BD08B55D
:1019E000082001F0C9F808BD08B5102001F0C4F8BE
:1019F00008BD08B54FF4007001F0BEF808BD08B589
:101A00004FF4006001F0B8F84FF4805001F0B4F8E2
:101A10004FF4005001F0B0F84FF4804001F0ACF802
:101A20004FF4004001F0A8F808BD000000B583B0F5
:101A3000002100910C4B5A6C42F480425A645A6C5B
:101A400002F480420092009A01911A6C42F0805296
:101A50001A641B6C03F080530193019B072001F073
:101A600099F803B05DF804FB003802400F49D1F843
:101A7000883043F47003C1F888300D4B1A6842F087
:101A800001021A60002098601A6822F0847222F421
:101A900080321A60074A5A601A6822F480221A605B
:101AA000D8604FF000638B60704700BF00ED00E02E
:101AB000003802401030002470B4036A23F00103A0
:101AC0000362036A4268846924F073040D6845EA7E
:101AD000040623F002048B6823430C4DA84202D075
:101AE0000B4CA0420BD123F00803CD682B4323F00D
:101AF000040322F440724D6915438A692A43426007
:101B000086614A684263036270BC7047000001400E
:101B10000004014030B4036A23F480730362036A53
:101B20004268C46924F073040D682C4323F40073E5
:101B30008D6843EA05230E4DA84203D005F5806564
:101B4000A8420ED123F40063CD6843EA052323F4B1
:101B5000806322F440524D6942EA05128D6942EADF
:101B600005124260C4614A68C263036230BC7047B8
:101B70000000014030B4036A23F480530362036A17
:101B80004468C26922F4E6420D6842EA052223F461
:101B900000538D6843EA0533094DA84203D005F58B
:101BA0008065A84204D124F480444D6944EA851438
:101BB0004460C2614A680264036230BC704700BF7F
:101BC00000000140022380F839300268136843F0B6
:101BD00001031360012380F83930002070470000B2
:101BE00003682E4A904212D0B0F1804F0FD0A2F578
:101BF0007C4290420BD002F58062904207D002F501
:101C00008062904203D002F57842904203D123F0E3
:101C100070034A681343214A90422AD0B0F1804FA2
:101C200027D0A2F57C42904223D002F580629042F8
:101C30001FD002F5806290421BD002F5784290429C
:101C400017D002F57052904213D002F58062904294
:101C50000FD002F5806290420BD0A2F598329042EC
:101C600007D002F58062904203D002F58062904274
:101C700003D123F44073CA68134303608B68C362C3
:101C80000B688362054B984203D003F5806398424A
:101C900001D10B69036301234361704700000140D8
:101CA000A8B110B5044690F839305BB1022384F82E
:101CB0003930211D2068FFF793FF012384F8393064
:101CC000002010BD80F83830FFF7CCFBEEE7012094
:101CD0007047002847D0F8B505460C4690F83930D3
:101CE000002B3BD0022385F83930294651F8042BCC
:101CF000936823F0070393602868FFF771FF296852
:101D00008A688E690F6A2068104326F4407626F0B0
:101D10000306A268A36942EA0323334323F47C4306
:101D200023F0FC03E668E26946EA02261E43226AC3
:101D30001303226943EA0213334327F0AA076268B8
:101D4000646942EA04123A43886029688B612B680F
:101D50001A62012385F839300020F8BD80F8383048
:101D6000FFF7D2FABEE701207047000030B4036AE3
:101D700023F010030362036A4468826922F4E64296
:101D80000D6842EA052223F020038D6843EA05131B
:101D90000E4DA84203D005F58065A8420ED123F070
:101DA0008003CD6843EA051323F0400324F4406424
:101DB0004D6944EA85048D6944EA85044460826182
:101DC0004A688263036230BC704700BF0000014074
:101DD00038B590F83830012B66D00D460446012303
:101DE00080F83830022380F839300C2A1AD8DFE81E
:101DF00002F007191919201919193419191947006E
:101E00000068FFF759FE2268936943F00803936165
:101E10002268936923F00403936122689369296916
:101E20000B439361012384F83930002084F8380093
:101E300038BD0068FFF79AFF2268936943F4006396
:101E400093612268936923F48063936122689369A4
:101E5000296943EA01239361E4E70068FFF75AFE2A
:101E60002268D36943F00803D3612268D36923F061
:101E70000403D3612268D36929690B43D361D1E795
:101E80000068FFF777FE2268D36943F40063D361EB
:101E90002268D36923F48063D3612268D3692969F6
:101EA00043EA0123D361BDE70220C1E710B4012357
:101EB00003FA01F4036A23EA04030362036A8A4013
:101EC000134303625DF8044B7047000010B50446ED
:101ED00001220068FFF7EAFF2368094A934203D012
:101EE00002F58062934203D15A6C42F400425A6474
:101EF0002268136843F001031360002010BD00BF87
:101F00000000014010B5044661B1042916D0012239
:101F100000210068FFF7CAFF012204212068FFF7B3
:101F2000C5FF04E0012200210068FFF7BFFF22681F
:101F3000136843F001031360002010BD0122042147
:101F40000068FFF7B3FFF2E790F83830012B22D09A
:101F500030B4012280F83820022380F83930046838
:101F6000636823F070036360046863680D682B4343
:101F700063600468A36823F08003A3600468A36817
:101F800049680B43A36080F83920002380F838307B
:101F9000184630BC70470220704790F83830012B4B
:101FA00025D0012380F83830CB6823F440738A6849
:101FB000134323F480634A68134323F400630A68DD
:101FC000134323F480530A69134323F400534A69EB
:101FD000134323F480438A69134323F400431343D8
:101FE00002685364002380F8383018467047022096
:101FF000704700002DE9F843044601680A6922F49D
:102000004052C36813430B610168CA6822F4164248
:1020100022F00C0283680069034360690343E069AE
:1020200003431343CB6021684A6922F44072A369D9
:1020300013434B61E369B3F5004F60D02368B84A9E
:10204000934200F0148102F58062934200F00F8108
:1020500000F084FC00EB800000EB80006568AD00C0
:10206000B0FBF5F5AF4FA7FB05356D092E0100F06C
:1020700075FC00EB800000EB80006568AD00B0FBF4
:10208000F5F900F06BFC00EB800000EB8000656868
:10209000AD00B0FBF5F5A7FB05356D094FF0640801
:1020A00008FB15952D013235A7FB05356D0905F0A7
:1020B000F005354400F052FC00EB800000EB80009E
:1020C0006668B600B0FBF6F600F048FC00EB800056
:1020D00000EB800063689B00B0FBF3F0A7FB0030CF
:1020E000400908FB10684FEA081808F13208A7FBFE
:1020F0000837C7F3431723682F449F600DE1236817
:10210000874A93425BD002F58062934257D000F039
:1021100025FC00EB800000EB800065686D00B0FBE3
:10212000F5F5804FA7FB05356D092E0100F016FC73
:1021300000EB800000EB800065686D00B0FBF5F9F6
:1021400000F00CFC00EB800000EB800065686D0087
:10215000B0FBF5F5A7FB05356D094FF0640808FBEA
:102160001595ED003235A7FB05356D096D0005F4B9
:10217000F875354400F0F2FB00EB800000EB8000C6
:1021800066687600B0FBF6F600F0E8FB00EB800036
:1021900000EB800063685B00B0FBF3F3A7FB032355
:1021A0005B0908FB13684FEAC80808F13208A7FB6F
:1021B0000837C7F3421723682F449F60ADE000F053
:1021C000DDFB00EB800000EB800065686D00B0FB7C
:1021D000F5F5544FA7FB05356D092E0100F0CEFB38
:1021E00000EB800000EB800065686D00B0FBF5F946
:1021F00000F0C4FB00EB800000EB800065686D0020
:10220000B0FBF5F5A7FB05356D094FF0640808FB39
:102210001595ED003235A7FB05356D096D0005F408
:10222000F875354400F0AAFB00EB800000EB80005D
:1022300066687600B0FBF6F600F0A0FB00EB8000CD
:1022400000EB800063685B00B0FBF3F3A7FB0323A4
:102250005B0908FB13684FEAC80808F13208A7FBBE
:102260000837C7F3421723682F449F6055E000F0FA
:1022700085FB00EB800000EB80006568AD00B0FBE3
:10228000F5F5284FA7FB05356D092E0100F076FB0B
:1022900000EB800000EB80006568AD00B0FBF5F955
:1022A00000F06CFB00EB800000EB80006568AD0087
:1022B000B0FBF5F5A7FB05356D094FF0640808FB89
:1022C00015952D013235A7FB05356D0905F0F00593
:1022D000354400F053FB00EB800000EB80006668A3
:1022E000B600B0FBF6F600F049FB00EB800000EB17
:1022F000800063689B00B0FBF3F0A7FB003040094F
:1023000008FB10684FEA081808F13208A7FB0837E5
:10231000C7F3431723682F449F60BDE8F88300BFCD
:10232000001001401F85EB5158B310B5044690F8DA
:1023300039300BB3242384F839302268D36823F46E
:102340000053D3602046FFF755FE2268136923F43B
:10235000904313612268536923F02A035361226872
:10236000D36843F40053D3600020E063202384F853
:10237000393084F83A3010BD80F83830FFF786FAEB
:10238000D8E7012070470000002800F0BB8170B53D
:1023900082B00446036813F0010F3BD0A74B9B6843
:1023A00003F00C03042B2CD0A44B9B6803F00C030C
:1023B000082B21D06368B3F5803F4FD0B3F5A02F31
:1023C00052D09E4B1A6822F480321A601A6822F4A6
:1023D00080221A606368002B50D000F08FFC054605
:1023E000964B1B6813F4003F14D100F087FC401B90
:1023F0006428F5D903208AE1904B5B6813F4800FC1
:10240000D8D08E4B1B6813F4003F03D06368002BB9
:1024100000F07A81236813F0020F55D0874B9B6838
:1024200013F00C0F3ED0854B9B6803F00C03082B78
:1024300033D0E368002B68D0814B01221A6000F092
:102440005DFC05467D4B1B6813F0020F54D100F074
:1024500055FC401B0228F5D9032058E1774A136840
:1024600043F480331360B5E7744B1A6842F480225A
:102470001A601A6842F480321A60ABE700F03EFC42
:1024800005466E4B1B6813F4003FC3D000F036FCCA
:10249000401B6428F5D9032039E1684B5B6813F4CD
:1024A000800FC6D1654B1B6813F0020F04D0E368A0
:1024B000012B01D001202AE1604A136823F0F803C0
:1024C000216943EAC1031360236813F0080F40D069
:1024D000636963B35B4B01221A6000F00FFC054691
:1024E000564B5B6F13F0020F33D100F007FC401B1B
:1024F0000228F5D903200AE1504A136823F0F803B3
:10250000216943EAC1031360DEE74D4B00221A60E4
:1025100000F0F4FB0546494B1B6813F0020FD3D0C3
:1025200000F0ECFB401B0228F5D90320EFE0454BFF
:1025300000221A6000F0E2FB0546404B5B6F13F08F
:10254000020F06D000F0DAFB401B0228F5D9032069
:10255000DDE0236813F0040F79D0384B1B6C13F0C7
:10256000805F33D100230193344B1A6C42F08052C8
:102570001A641B6C03F080530193019B0125324BBD
:102580001B6813F4807F23D0A368012B34D0052B64
:1025900038D02A4B1A6F22F001021A671A6F22F004
:1025A00004021A67A368002B36D000F0A7FB06468A
:1025B000224B1B6F13F0020F48D100F09FFB801BD2
:1025C00041F288339842F3D90320A0E00025D6E7F2
:1025D0001D4A136843F48073136000F08FFB0646B6
:1025E000194B1B6813F4807FCED100F087FB801B52
:1025F0000228F5D903208AE0104A136F43F0010343
:102600001367CFE70D4B1A6F42F004021A671A6F77
:1026100042F001021A67C5E700F070FB0646074B5F
:102620001B6F13F0020F11D000F068FB801B41F20A
:1026300088339842F3D9032069E000BF0038024094
:1026400000004742800E474200700040E5B9A36990
:10265000002B5BD0304A926802F00C02082A58D056
:10266000022B17D02D4B00221A6000F047FB0446C6
:10267000294B1B6813F0007F42D000F03FFB001B8A
:102680000228F5D9032042E0234A136C23F080533B
:102690001364DCE7214B00221A6000F02FFB054693
:1026A0001D4B1B6813F0007F06D000F027FB401B7A
:1026B0000228F5D903202AE0E369226A1343626AFB
:1026C00043EA8213A26A5208013A43EA0243E26AE9
:1026D00043EA0263104A5360104B01221A6000F073
:1026E0000DFB04460C4B1B6813F0007F06D100F075
:1026F00005FB001B0228F5D9032008E0002006E0B6
:10270000002004E001207047012000E0002002B01A
:1027100070BD0120FBE700BF003802406000474267
:10272000324B9B6803F00C03042B5CD0082B01D0C8
:102730002F4870472DE9F04B2C4B5A6802F03F02AE
:102740005B6813F4800F2BD0284B5B68C3F38813AE
:102750001E4600275C010025E41A65EB0705A90168
:1027600041EA9461A001001B61EB0501CB0043EA43
:102770005073C400A01943EB07014B0243EAD05346
:102780004402204619460023FEF786FA174B5B6881
:10279000C3F3014301335B00B0FBF3F0BDE8F08B02
:1027A000124B5B68C3F388131E4600275C010025AB
:1027B000E41A65EB0705A90141EA9461A001001B39
:1027C00061EB0501CB0043EA5073C400A01943EB51
:1027D00007018B0243EA90538402204619460023E6
:1027E000FEF75AFAD2E70348704700BF00380240AC
:1027F0000024F40000127A00002800F09D8070B5DB
:1028000004464F4B1B6803F00F038B4209D2CBB237
:102810004B4A1370136803F00F038B4201D0012061
:1028200070BD236813F0020F17D013F0040F04D00B
:10283000444A936843F4E0539360236813F0080F0D
:1028400004D0404A936843F4604393603D4A9368E0
:1028500023F0F003A068034393600D46236813F050
:10286000010F32D06368012B21D09A1E012A25D98D
:10287000344A126812F0020F60D032498A6822F09E
:10288000030213438B6000F039FA06462D4B9B6818
:1028900003F00C036268B3EB820F16D000F02EFA3F
:1028A000801B41F288339842F0D90320B8E7254ACB
:1028B000126812F4003FE0D10120B1E7214A12680A
:1028C00012F0007FD9D10120AAE71D4B1B6803F04D
:1028D0000F03AB4209D9EAB2194B1A701B6803F017
:1028E0000F03AB4201D001209AE7236813F0040FD5
:1028F00006D0144A936823F4E053E1680B439360D5
:10290000236813F0080F07D00E4A936823F460433E
:10291000216943EAC1039360FFF702FF094B9B68FB
:10292000C3F30313084AD35CD840084B1860002057
:1029300000F098F9002073E70120704701206FE74D
:10294000003C02400038024060A40008040000205F
:10295000014B1868704700BF0400002008B5FFF75E
:10296000F7FF044B9B68C3F38223034AD35CD84030
:1029700008BD00BF0038024070A4000808B5FFF78A
:10298000E7FF044B9B68C3F34233034AD35CD84050
:1029900008BD00BF0038024070A4000800230F2BC0
:1029A00000F2D780F0B482B039E0072200E00022C4
:1029B000B2403A430234674E46F82420664A14680F
:1029C000EA4302EA04064F6817F4803F01D045EA63
:1029D0000406614C2660646802EA04064F6817F436
:1029E000003F01D045EA04065B4C6660A46802EA39
:1029F00004064F6817F4801F01D045EA0406564CC0
:102A0000A660E46822404E6816F4001F01D045EA33
:102A10000402514CE26001330F2B00F29780012237
:102A20009A400C6804EA0205AA42F4D14C68022CD0
:102A300001D0122C10D1DE08083650F826C003F061
:102A40000704A7000F24BC402CEA040C0C69BC400E
:102A500044EA0C0440F8264004685F000326BE40A8
:102A6000F64306EA040C4C6804F00304BC4044EA54
:102A70000C0404604C6804F1FF3CBCF1010F03D965
:102A8000112C01D0122C10D1846806EA040CCC68F9
:102A9000BC4044EA0C048460446824EA02024C68A6
:102AA000C4F300149C4014434460C26816408A6812
:102AB000BA403243C2604A6812F0805FABD0002255
:102AC0000192264A546C44F480445464526C02F4DB
:102AD00080420192019A9C08A61C1E4A52F8267058
:102AE00003F0030296000F22B24027EA02071C4AB5
:102AF00090423FF45CAF02F5806290421AD002F53A
:102B00008062904218D002F58062904216D002F5A1
:102B10008062904214D002F58062904212D002F599
:102B20008062904210D002F5806290423FF43DAF47
:102B300008223DE701223BE7022239E7032237E77B
:102B4000042235E7052233E7062231E702B0F0BC64
:102B50007047704700380140003C01400038024097
:102B60000000024012B90904816170478161704719
:102B7000436959404161704708B5054B5B690342A1
:102B800000D108BD024B586103F012F9F9E700BF0C
:102B9000003C0140074AD36823F4E0631B041B0C8C
:102BA000000200F4E060184340F0BF6040F40030E1
:102BB000D060704700ED00E030B4174BDB68C3F322
:102BC0000223C3F10704042C28BF04241D1D062D75
:102BD00018D9033B4FF0FF3505FA04F421EA04014C
:102BE000994005FA03F322EA0303194300280BDB9B
:102BF0000901C9B200F1604000F5614080F800139E
:102C000030BC70470023E5E700F00F000901C9B2AE
:102C1000024B1954F4E700BF00ED00E014ED00E0B2
:102C200000F01F02400901239340024A42F820307D
:102C3000704700BF00E100E00138B0F1807F0AD2A8
:102C4000064B5860064AF02182F823100020986055
:102C500007221A6070470120704700BF10E000E0B3
:102C600000ED00E010B504460E4B18784FF47A736F
:102C7000B3FBF0F30C4A1068B0FBF3F0FFF7DCFF96
:102C800068B90F2C01D901200AE0002221464FF03B
:102C9000FF30FFF791FF054B1C60002000E0012092
:102CA00010BD00BF08000020040000200C00002020
:102CB00008B50B4B1A6842F400721A601A6842F4A5
:102CC00080621A601A6842F480721A600320FFF76B
:102CD00061FF0020FFF7C6FFFEF7A8FE002008BD39
:102CE000003C0240034A1168034B1B780B441360FD
:102CF000704700BFD80A002008000020014B186868
:102D0000704700BFD80A002038B50446FFF7F6FF29
:102D10000546B4F1FF3F02D0044B1B781C44FFF77B
:102D2000EDFF401BA042FAD338BD00BF08000020D1
:102D3000494B5A6822F440325A605A6841680A4343
:102D40005A600268536823F48073536002685368C2
:102D5000016943EA012353600268536823F040731A
:102D600053600268536881680B435360026893683C
:102D700023F40063936002689368C1680B43936017
:102D8000826A364B9A4249D00268936823F0706396
:102D9000936002689368816A0B439360026893684A
:102DA00023F04053936002689368C16A0B439360B9
:102DB0000268936823F00203936002689368816954
:102DC00043EA41039360036A002B32D102685368DF
:102DD00023F4006353600268D36A23F47003D36260
:102DE0000168CB6AC269013A43EA0253CB620268C6
:102DF000936823F40073936002689368016B43EA5D
:102E0000412393600268936823F4806393600268AF
:102E10009368416943EA812393607047026893682D
:102E200023F0706393600268936823F040539360CB
:102E3000BEE70268536843F4006353600268536856
:102E400023F46043536001684B68426A013A43EAE5
:102E500042334B60BFE700BF002301400100000F79
:102E600030B310B50446036C43B1236C13F0100F5C
:102E70000AD00120002384F83C3010BD436480F860
:102E80003C30FEF79BFCF0E7236C23F4885323F0DF
:102E9000020343F0020323642046FFF749FF0020AA
:102EA0006064236C23F0030343F001032364E1E730
:102EB0000120704782B00023019390F83C30012B31
:102EC00063D0012380F83C3003689A6812F0010F48
:102ED00013D19A6842F001029A60304B1B68304A65
:102EE000A2FB03239B0C03EB4303019302E0019B32
:102EF000013B0193019B002BF9D10268936813F009
:102F0000010F44D0036C23F4E06323F0010343F486
:102F100080730364536813F4806F05D0036C23F44B
:102F2000405343F480530364036C13F4805F19D05F
:102F3000436C23F006034364002380F83C306FF0B9
:102F400022031360174B5B6813F01F0F0DD103684A
:102F50009A6812F0405F1DD19A6842F080429A60F0
:102F6000002015E000234364E6E703680E4A93421D
:102F700001D000200CE09A6812F0405F0CD19A68F2
:102F800042F080429A60002002E0022000E000202F
:102F900002B070470020FBE70020F9E704000020A2
:102FA00083DE1B43002301400020014003689A6830
:102FB00012F4806F03D09B6813F4807F1CD170B52E
:102FC0000D460446FFF79AFE064623681A6812F07B
:102FD000020F1AD1B5F1FF3FF7D025B1FFF78EFEF2
:102FE000801BA842F1D9236C43F00403236400231F
:102FF00084F83C3003202DE0036C43F0200303648D
:10300000002380F83C30012070476FF012021A60F4
:10301000236C43F40073236423689A6812F0405FC2
:1030200017D1A269BAB9DA6A12F4700F03D09B689B
:1030300013F4806F11D1236C23F480732364236C09
:1030400013F4805F0BD1236C43F001032364002051
:1030500000E0002070BD0020FCE70020FAE700201F
:10306000F8E70368D86C704730B482B0002301934E
:1030700090F83C30012B00F0B780012380F83C3001
:103080000B68092B3ED90568EA689BB203EB430342
:103090001E3B072404FA03F322EA0303EB600568EE
:1030A000EA688C680B8803EB43031E3B04FA03F3C6
:1030B0001343EB604B68062B3AD805686A6B03EB49
:1030C0008303053B1F2404FA03F322EA03036B6323
:1030D00005686A6B4B6803EB8303053B0C8804FAB5
:1030E00003F313436B630268404B9A4250D002686B
:1030F0003E4B9A4255D0002380F83C30184602B02F
:1031000030BC704705682A699BB203EB4303072470
:1031100004FA03F322EA03032B6105682A698C6829
:103120000B8803EB430304FA03F313432B61C1E75A
:103130000C2B16D805682A6B03EB8303233B1F2453
:1031400004FA03F322EA03032B6305682A6B4B6836
:1031500003EB8303233B0C8804FA03F313432B6331
:10316000C1E70568EA6A03EB8303413B1F2404FAC5
:1031700003F322EA0303EB620568EA6A4B6803EB98
:103180008303413B0C8804FA03F31343EB62AAE781
:103190000B68122BABD1164A536843F4800353607B
:1031A000A5E70B68103B012BA5D8114A536843F4DF
:1031B000000353600B68102B9DD10E4B1B6802F16E
:1031C000467202F52E3202F28332A2FB03239B0CDD
:1031D00003EB83035A00019202E0019B013B019340
:1031E000019B002BF9D186E7022088E700200140EF
:1031F000002301400400002090F83C30012B00F037
:10320000F98030B4012380F83C300B68092B7DD95C
:103210000568EA689BB203EB43031E3B072404FAEC
:1032200003F322EA0303EB600568EA688C680B8805
:1032300003EB43031E3B04FA03F31343EB60026802
:10324000936B23F4401393630468A36B0A69013AF8
:1032500043EA0253A3630568AA6B4B680C691B1B06
:10326000DBB20333DBB203EB83031F2404FA03F363
:1032700022EA0303AB630568AA6B4B680C691B1B4E
:10328000DBB20333DBB203EB83030C8804FA03F3F2
:103290001343AB63CA69584B9A424DD00268936896
:1032A00023F47023936002689368CC69234393608E
:1032B0000268936823F440139360026893680C6A71
:1032C000234393608B69002B41D00268536843F419
:1032D000806353604B69002B3FD00268536843F40E
:1032E000805353604B68022B57D0032B62D0012BC5
:1032F00039D00268136A23F47F6323F00F0313624B
:103300000268136ACC682343136238E005682A69AF
:103310009BB203EB4303072404FA03F322EA0303FB
:103320002B6105682A698C680B8803EB430304FA58
:1033300003F313432B6182E70268936823F470233D
:1033400093600268936823F440139360BAE70268BD
:10335000536823F480635360BCE70268536823F426
:1033600080535360BEE70268536923F47F6323F000
:103370000F03536102685369CC68234353610268A9
:103380001E4B9A4223D002681C4B9A4228D000233D
:1033900080F83C30184630BC70470268936923F4CB
:1033A0007F6323F00F03936102689369CC68234322
:1033B0009361E4E70268D36923F47F6323F00F038A
:1033C000D3610268D369CC682343D361D7E70B6824
:1033D000122BD8D10A4A536843F480035360D2E7D2
:1033E0000B68103B012BD2D8054A536843F4000305
:1033F0005360CCE70220704701000F00002001401D
:103400000023014003685A6912F4806F0DD06FF4F5
:1034100080625A610423036400230363202280F83E
:103420003D2080F83C300120704700207047F8B5FF
:1034300006460C4617461D461EE02DB1FFF75EFC02
:10344000069BC01AA84217D900233363202286F8AE
:103450003D2086F83E3086F83C3003201AE0336881
:103460005B6924EA03039BB2B3FA83F35B099F42CF
:103470000FD1B5F1FF3FE0D1C4F30743012BEED0EC
:1034800033689B6924EA03039BB2B3FA83F35B09B5
:10349000EDE70020F8BDF8B504460D4616461F4678
:1034A00032E01A6842F400721A6023686FF4806296
:1034B0005A610423236400232363202284F83D20DF
:1034C00084F83C3001202DE026B1FFF717FCC01B2B
:1034D000B04219D900232363202284F83D2084F8C8
:1034E0003C3003201EE023685B6925EA03039BB29E
:1034F000003318BF0123A3B123685A6912F4806F07
:10350000CFD1B6F1FF3FDFD1C5F30743012BEAD09E
:1035100023689B6925EA03039BB2003318BF01238C
:10352000E9E70020F8BD0000F0B583B004460D4681
:1035300016461F46C36A042B0DD0012B0BD013F582
:10354000803F08D0036B122B0AD10268136843F442
:103550008073136004E02268136843F4807313607F
:103560000097334600224FF001112046FFF75FFF1E
:1035700058BB2369B3F5804F10D1236805F0FE05D1
:103580001D613B46324615492046FFF784FF03463E
:10359000E0B1236C042B1ED1012317E0EB1122684C
:1035A00003F0060343F0F00313613B4632460C4937
:1035B0002046FFF770FF20B1236C042B09D10123B3
:1035C00004E02368EDB21D61DBE70323184603B076
:1035D000F0BD0323FAE70323F8E700BF0200010070
:1035E000080001002DE9F04184B004460D4616465E
:1035F0001F46C26A01680B6843F480630B60042AAB
:103600000DD0012A0BD012F5803F08D0036B112B8F
:103610000AD10268136843F48073136004E02268DF
:10362000136843F4807313600097334600224FF011
:1036300001112046FFF7FBFE002852D12369B3F5A4
:10364000804F12D1236845F00105EDB21D613B4664
:1036500032462A492046FFF71EFF0346002841D084
:10366000236C042B48D101233CE04FEAE51808F015
:103670000608236848F0F0021A613B4632462049AA
:103680002046FFF708FF20B1236C042B2ED1012325
:1036900028E02368EDB21D613B46324617492046BB
:1036A000FFF7F9FE20B1236C042B21D1012319E08F
:1036B0000022039223685969039199690391039940
:1036C000196841F480711960009733464FF0011179
:1036D0002046FFF7ACFE68B9226848F0F103136199
:1036E000B5E70323184604B0BDE8F0810323F9E7EA
:1036F0000323F7E70323F5E70323F3E702000100C1
:103700000800010070B504460D46164623685B6943
:1037100013F0800F19D12046FFF774FEB8B9B5F148
:10372000FF3FF3D025B1FFF7E9FA801BA842EDD99E
:10373000236C43F02003236400232363202284F8B6
:103740003D2084F83C30032000E0002070BD0120C3
:10375000FCE770B504460D46164623685B6913F016
:10376000040F19D12046FFF74DFEB8B9B5F1FF3F60
:10377000F3D025B1FFF7C2FA801BA842EDD9236C24
:1037800043F02003236400232363202284F83D2098
:1037900084F83C30032000E0002070BD0120FCE7ED
:1037A00070B505460C4616462B685A6912F0400F54
:1037B00022D15A6912F0100F11D124B1FFF79EFAED
:1037C000801BA042F0D92B6C43F020032B642023F4
:1037D00085F83D30002385F83C30032070BD6FF044
:1037E00010025A6100232B642B63202285F83D20B0
:1037F00085F83C300120F1E70020EFE7002800F0D9
:10380000828010B5044690F83D30002B41D024232F
:1038100084F83D302268136823F001031360FFF73A
:103820009DF83A4BA3FB00239B0C22685360616810
:10383000374A914232D80133226813626368344AAE
:10384000934235D85B00B0FBF3F0C0F30B03032BBE
:1038500000D804202368D861E369216A22680B43F9
:1038600013602369E16822680B4393606369A1696F
:1038700022680B43D3602268136843F0010313608E
:1038800000202064202384F83D30206384F83E002B
:1038900010BD80F83C30FDF7D9FEB8E74FF49672C2
:1038A00002FB03F31B4AA2FB03239B090133C3E77B
:1038B000A16889B903EB4302B0FBF2F2C2F30B0239
:1038C000B2FA82F25209E2B991B903EB4303B0FBB9
:1038D000F3F040F40040BDE703EB830202EB820209
:1038E000B0FBF2F2C2F30B02B2FA82F25209EAE73B
:1038F00003EB830303EB8303B0FBF3F040F440409E
:10390000A8E70120A6E70120704700BF83DE1B4324
:10391000A0860100D34D62102DE9F04184B0044629
:103920000E4690461F46FFF7E9F994F83D30DBB2AA
:10393000202B04D00226304604B0BDE8F0810546B5
:1039400000901923012254492046FFF770FD0028FA
:1039500040F0998094F83C30012B00F096800123D0
:1039600084F83C3023681A6812F0010F03D11A68FA
:1039700042F001021A602268136823F400631360A6
:10398000212384F83D30102384F83E300023236443
:10399000C4F824806785A3F58033E362638D2385B3
:1039A0002B460A9A31462046FFF7BEFD064660B117
:1039B000236C042B04D1002384F83C300126BAE7A1
:1039C000002384F83C300326B5E7002303932368E3
:1039D0005A6903929B690393039B10E0236C042BA9
:1039E00055D12268136843F4007313600126A2E7DF
:1039F0002A460A992046FFF7ACFE00282BD1238DDA
:103A0000002B32D02A460A992046FFF77BFE002879
:103A1000E4D1636A5A1C626222681B781361638D69
:103A2000013B9BB26385238D013B9BB223852268BA
:103A3000516911F0040FDBD0002BD9D0636A591CF7
:103A400061621B781361638D013B9BB26385238D9B
:103A5000013B2385CCE7236C042B1AD12268136821
:103A600043F400731360012665E72268136843F48A
:103A700000731360202384F83D30002384F83E3027
:103A800084F83C3057E7022655E7022653E7032621
:103A900051E703264FE700BF020010002DE9F04177
:103AA00086B004460E4690461F46FFF727F994F865
:103AB0003D30DBB2202B04D00226304606B0BDE8F4
:103AC000F08105460090192301228C492046FFF71A
:103AD000AEFC002840F04B8194F83C30012B00F004
:103AE0004881012384F83C3023681A6812F0010FE2
:103AF00003D11A6842F001021A602268136823F4A5
:103B000000631360222384F83D30102384F83E3094
:103B100000232364C4F824806785A3F58033E3621F
:103B2000638D23852B460C9A31462046FFF75AFDBC
:103B3000064660B1236C042B04D1002384F83C308A
:103B40000126BAE7002384F83C300326B5E7238D2D
:103B50005BB9029323685A6902929A690292029AA7
:103B60001A6842F400721A607AE0012B0FD0022B1F
:103B70001FD02268136843F4806313600023059309
:103B800023685A6905929B690593059B68E0226842
:103B9000136823F4806313600023039323685A6936
:103BA00003929A690392039A1A6842F400721A60A7
:103BB00056E02268136823F4806313602268136858
:103BC00043F4006313600023049323685A6904924A
:103BD0009B690493049B43E02A460C992046FFF717
:103BE000DFFD68B923681A69636A591C61621A703B
:103BF000238D013B2385638D013B9BB263852FE0C1
:103C0000236C202B01D0012657E7032655E70095AA
:103C10000C9B00223A492046FFF709FC002840F09F
:103C2000AA802268136843F40073136023681A693A
:103C3000636A591C61621A70238D013B2385638D71
:103C4000013B9BB2638523681A69636A591C6162F0
:103C50001A70238D013B2385638D013B9BB26385E5
:103C6000238D002B7AD0032B4CD8012BB4D0022B00
:103C7000CDD000950C9B002221492046FFF7D7FBB1
:103C800000287AD12268136823F4806313602368C4
:103C90001A69636A591C61621A70238D013B23857E
:103CA000638D013B9BB2638500950C9B00221449F8
:103CB0002046FFF7BCFB002861D12268136843F45B
:103CC0000073136023681A69636A591C61621A7071
:103CD000238D013B2385638D013B9BB26385236864
:103CE0001A69636A591C61621A70238D013B23852E
:103CF000638D013B9BB26385B2E700BF02001000F9
:103D0000040001002A460C992046FFF749FDF0B94E
:103D100023681A69636A591C61621A70238D013B1A
:103D20002385638D013B9BB2638523685A6912F03A
:103D3000040F95D01A69636A591C61621A70238D49
:103D4000013B2385638D013B9BB2638588E7236C30
:103D5000202B01D00126B0E60326AEE6202384F80E
:103D60003D30002384F83E3084F83C30A5E602263E
:103D7000A3E60226A1E603269FE603269DE6032688
:103D80009BE600BFDFF834D0002103E00C4B5B580A
:103D9000435004310B480C4B42189A42F6D30B4A5D
:103DA00002E0002342F8043B094B9A42F9D3FDF7A5
:103DB0005DFE05F043FB00F06BF870470000022049
:103DC0008CA9000800000020780000207800002066
:103DD000E00A0020FEE7FEE708B5E7210148FFF70B
:103DE000FAFF00BF78A4000800B595B0302200218A
:103DF00008A805F05AFB0023039304930593069348
:103E000007930193204A116C41F080511164126CA8
:103E100002F080520192019A02931C4B1A6842F4FC
:103E200080421A601B6803F480430293029B0123C3
:103E300008934FF48033099302230E934FF48002CA
:103E40000F9204221092A822119212930723139327
:103E500008A8FEF799FA98B90F2303930223049355
:103E6000002305934FF4A05306934FF48053079318
:103E7000052103A8FEF7C0FC20B915B05DF804FBCE
:103E8000FFF7AAFFFFF7A8FF0038024000700040CC
:103E900030B52DED028B85B0FEF70AFFFFF7A4FFCA
:103EA000FDF77AF8FDF79CF9FDF7CCF9FDF7FAF983
:103EB000FDF71EFBFDF7B6FCFDF7CEFCFDF72CFC75
:103EC0003E4C01224FF400512046FEF74BFE0122EA
:103ED0004FF400412046FEF745FEFDF77BFBFDF762
:103EE00097FB00F0F3FE00F091FA3548FEF7E2FF91
:103EF00000224FF400512046FEF734FE00224FF41A
:103F000000412046FEF72EFE2E4805F007FCFEF786
:103F1000F5FE054600F062F82B4805F0FFFB274C44
:103F20004FF480512046FEF723FE4FF40051204607
:103F3000FEF71EFE4FF480412046FEF719FE4FF4B7
:103F400000412046FEF714FEFEF7D8FEA842E3D05B
:103F5000FEF7D4FE054601F067F99FED1C8A1C4C64
:103F6000B0EE480A204601F0B3FBB0EE480A04F177
:103F7000580001F0ADFBB0EE480A164801F0EEFF24
:103F80000A2101A800F0C0FEDDED037AFDEEE77A1C
:103F900017EE903ADDED027AFDEEE77A17EE902A01
:103FA000DDED017AFDEEE77A17EE901A0A4805F08A
:103FB0002DFB0A2005F042FBAEE700BF000C0240DB
:103FC000100A00208CA40008A0A400080000000033
:103FD0001C010020CC010020A8A4000830B585B049
:103FE000FEF78CFE044601AD0A21284600F08CFE47
:103FF0000D4B95E8070083E80700FEF77FFE001BE6
:104000000928FAD9FEF77AFE044601F00DF9074DAA
:10401000B1EE080A284601F05BFBB1EE080A05F193
:10402000580001F055FBE8E7440800201C0100207F
:104030007047000007EE901AF8EE676ADFED217A0C
:1040400086EEA77A90ED016AD0ED025AD0ED037AA0
:10405000C7EE876A76EE867A27EE257A37EE467ABD
:1040600036EEA66A37EE467A67EE807A90ED076AFA
:1040700026EE077A77EE877A90ED087A67EE266A61
:1040800077EEA67A90ED067A77EE877AC0ED067A1B
:1040900090ED047AF4EEC77AF1EE10FA09DC90EDB7
:1040A000057AF4EEC77AF1EE10FA04D580ED067ABF
:1040B00001E080ED067A80ED086A80ED070A90ED58
:1040C000060A704700007A447047D0ED016A90ED0F
:1040D000027AD0ED077A70EE277AC0ED077A67EEA4
:1040E000877A90ED047AF4EEC77AF1EE10FA18DDD3
:1040F0000023C361F0EE477A20EE260A70EE277A9D
:10410000C0ED067AF4EEC77AF1EE10FA15DC90ED08
:10411000057AF4EEC77AF1EE10FA10D580ED067A42
:104120000DE090ED056AF4EEC67AF1EE10FAE3D5F3
:104130000023C361F0EE467ADEE780ED067A90ED6B
:10414000060A704770470000074B08499963084A00
:10415000DA632031C3F890100C32C3F89420054A7A
:104160005A65C3F8AC2070471C010020980000205D
:10417000F800002048E1FA3E024B034A9A60034AE5
:10418000DA607047CC010020D80000201001002028
:10419000164B174A9A61174ADA61174A1A6217488A
:1041A0005862174999624FF080421A67154A5A6758
:1041B00000229A67D867C3F88010134B4FF07E51E6
:1041C00099621249D9621A63114959631149996375
:1041D0004FF07851D964104919655A654FF07C52F7
:1041E0009A654FF03F42DA65704700BF1C0100201E
:1041F0006666E63F000008424260653C00008C4174
:1042000000008CC10000F041CC0100200000C84239
:1042100048E11A4048E11AC06F12033A044B054ABC
:104220001A6001229A80044A9A6004229A81704797
:104230001C0100200008024000000240034B044A19
:10424000934201D0583BFAE7704700BFCC010020F1
:104250001C010020F8B51F4C1F48A0611F4BA36034
:104260000425A58123610123A3820827E7611C4956
:1042700021601C4A6260A0631B4BA3624FF4006381
:10428000A3851A4B23634FF40046A686E56321629B
:104290006262A065A3644FF48072A4F84C20236589
:1042A0004FF48063A4F854300C26E665104B236469
:1042B000104B6364FDF786FC3946A069FDF706FEE6
:1042C0002946A06BFDF702FE3146A06DFDF7FEFD0D
:1042D000F8BD00BF9800002078080020000C0240C4
:1042E00000008C41CDCC4C3E000802400000024052
:1042F00048E11A40CDCCCC3D38B50F4C002323709B
:104300004FF47A6525810D4860601821FDF7FAFDAC
:1043100001232373A5820A4820611821FDF7F2FDCD
:104320000223237646F6402323840648E0611821C1
:10433000FDF7E8FD38BD00BFF80000202C09002083
:10434000F0080020B4080020012800D070474FF684
:10435000FF739942FAD110B51E4B002815DB0021DE
:10436000196100229A61DA611A621B4C5C61DA629F
:104370001A635A63996319645A649A64DA64196512
:10438000D9635A6558330138E7E7144C224614497B
:10439000002002F0ADFA134800228260026100237F
:1043A00043618361C3610262C2608362C36203636B
:1043B000094A4262C36303644364C364036543659B
:1043C000094A8264036643662246084902F090FA6D
:1043D00010BD00BF1C0100200CA50008000000203B
:1043E0003D420008CC01002020A5000845410008FE
:1043F00010B50446202102F080FA204610BD10B509
:104400000446242102F079FA204610BD08B5FFF7D2
:1044100021FFFFF771FFFFF7BBFEFFF7FFFEFFF77E
:1044200093FEFFF7A9FE08BD08B54FF6FF71012006
:10443000FFF78AFF08BD70477047704770477047A5
:104440007047000010B50A480A4B0360D02280F87C
:104450002820002280F8302080F83120064C23608C
:104460003C23237401F0FCFA204601F07BFA10BDD6
:1044700054020020680900203402002010B52DED00
:10448000028BF8B007EE900AB8EE677ADFEDA67AF5
:1044900087EE278A0222114667A801F0D5FD9DF814
:1044A000DC3113B19DF8DD311BB926219F48FFF7A0
:1044B00092FC4FF07E5367939DF8DC311BB19DF861
:1044C000DD31012B03D826219848FFF784FCF1EE5B
:1044D000487ACDED687A9DF8DC31012B02D99DF840
:1044E000DD311BB926219148FFF775FC00236B9342
:1044F0009DF8DC31012B40F207819DF8DD31012B65
:1045000040F202814FF07E536C930122022156A8A3
:1045100001F09AFD9DF8983113B19DF899311BB9BE
:1045200026218248FFF757FC8DED568A9DF8983179
:10453000012B02D99DF899311BB926217B48FFF741
:104540004AFC00235A930222012145A801F07CFD78
:104550009DF8543113B19DF855311BB9262173488C
:10456000FFF739FC4FF07E5345939DF854311BB152
:104570009DF85531012B03D826216C48FFF72BFC01
:10458000002346930222114634A801F05DFD9DF8F8
:10459000103113B19DF811311BB926216348FFF783
:1045A0001AFC634B34939DF810311BB19DF8113107
:1045B000012B03D826215D48FFF70DFC002335931E
:1045C0009DF81031012B02D99DF811311BB926211C
:1045D0005648FFF700FC002338939DF81031012B5B
:1045E00040F297809DF81131012B40F29280504BA0
:1045F00039930222114623A801F026FD9DF8CC3004
:1046000013B19DF8CD301BB926214848FFF7E3FBD5
:10461000484B23939DF8CC301BB19DF8CD30012B36
:1046200003D826214148FFF7D6FB002324939DF8A9
:10463000CC30012B02D99DF8CD301BB926213B4847
:10464000FFF7C9FB002327939DF8CC30012B65D9D8
:104650009DF8CD30012B61D9374B289301221146AB
:1046600012A801F0F1FC9DF8883013B19DF8893053
:104670001BB926212D48FFF7AEFB304B129367A9DB
:1046800001A801F007FD2E4C01A9204601F07FFE94
:1046900056A901A801F0FEFC01A904F1440001F0B3
:1046A00076FE45A901A801F0F5FC01A904F18800F6
:1046B00001F06DFE022101A801F0EBFD422201A9EB
:1046C00004F1CC0004F0E6FE34A901A801F0E2FCFC
:1046D00001A904F5887001F05AFE23A901A801F090
:1046E000D9FC01A904F5AA7001F051FE12A901A894
:1046F00001F0D0FC01A904F5CC7001F048FE0020C7
:1047000078B0BDEC028B10BD26210848FFF763FB93
:10471000F8E626210548FFF75EFB68E726210348F7
:10472000FFF759FB98E700BF00007A442CA500086A
:10473000000020416F12833AA69B443B0AD7233DD9
:104740008802002070B504460E461546012202215B
:104750000C3001F079FC0122114604F1500001F007
:1047600073FC0122114604F1940001F06DFC01225A
:10477000022104F1D80001F067FC01232371A66037
:104780002560204670BD00002DE9F0412DED028B23
:10479000ADF52A7D0446B0EE408A037913B3036871
:1047A000084698470023237194F84C3013B194F8CD
:1047B0004D301BB92621AF48FFF70DFB84ED038A6E
:1047C00094F84C3013B194F84D301BB92621A94808
:1047D000FFF701FB94ED030A0DF52A7DBDEC028B7A
:1047E000BDE8F081F0EE608A90F8903013B190F857
:1047F00091301BB926219F48FFF7EDFAC4ED148ACA
:1048000094F8D43013B194F8D5301BB926219948C7
:10481000FFF7E1FA84ED258AA16855A801F03AFC7A
:1048200004F10C05294655A801F0FEFC4426324649
:1048300055A966A804F02EFEA168314477A801F0BE
:1048400029FC04F1500177A801F0EEFC324677A96B
:1048500088A804F01FFE88A966A801F039FC32463A
:1048600066A999A804F016FE42273A4699A9284657
:1048700004F010FEA16855A801F00CFCA16801F538
:10488000887155A801F0D0FC324655A966A804F0FD
:1048900001FEA16877A801F0D7FC77A966A801F00E
:1048A000C3FC324666A988A804F0F4FDA16801F5AE
:1048B000AA7188A801F00CFC324688A999A804F0D6
:1048C000E9FDA0683A4699A900F5887004F0E2FD78
:1048D000A16801F588710DEB060001F0DBFBA16812
:1048E0008831684601F0B0FC69460DEB060001F026
:1048F0009BFC32460DEB060122A804F0CBFDA1681B
:10490000883133A801F0C6FBA16801F5887133A88E
:1049100001F08AFC324633A944A804F0BBFDA1682B
:10492000883155A801F090FC55A944A801F07CFC01
:10493000324644A966A804F0ADFDA16801F5CC712A
:1049400066A801F0C5FB324666A977A804F0A2FD6F
:104950009DF81D229DF81C1288A801F075FB88A9FE
:1049600077A801F035FD002870D088A922A801F0B1
:104970005BFC4426324622A999A804F08BFD04F181
:10498000D8074FF04208424699A9384604F082FD04
:10499000394688A801F07EFB04F1940166A801F075
:1049A00079FBA168883144A801F074FB294644A82A
:1049B00001F03AFC324644A955A804F06BFD55A914
:1049C00066A801F0B5FB324666A977A804F062FD3F
:1049D00077A988A801F028FC324688A999A804F094
:1049E00059FD99A9284601F073FBA168CC3177A83D
:1049F00001F050FB394655A801F04CFBA168883105
:104A000055A801F011FC324655A966A804F042FDF4
:104A100066A977A801F08CFB324677A988A804F034
:104A200039FDA16801F5887188A801F0FDFB3246C7
:104A300088A999A804F02EFDA068424699A900F51E
:104A4000887004F027FDBBE60130C0B29DF86032EB
:104A500083428AD900239DF861229A42F4D903EB5C
:104A60008002AAA901EB8202002142F8881C0133CE
:104A7000DBB2F0E72CA5000810B504460022114671
:104A800001F0E2FA0022114604F1440001F0DCFAE0
:104A90000022114604F1880001F0D6FA00221146E6
:104AA00004F1CC0001F0D0FA0022114604F5887020
:104AB00001F0CAFA0022114604F5AA7001F0C4FA06
:104AC0000022114604F5CC7001F0BEFA204610BD5C
:104AD000012800D070474FF6FF739942FAD12DE9B3
:104AE000F0412DED028B604800238380C380038159
:104AF00043818381C3810025056145618561C5616D
:104B000005624562594C2246594901F0F1FE594867
:104B100045608560C56045618561C561224656492D
:104B200001F0E6FE5548056045608560224654491F
:104B300001F0DEFE9FED538A534EB0EE480A304638
:104B400001F064FA514D22462946304601F0D0FE6C
:104B50004F4EB0EE480A304601F058FA2246294638
:104B6000304601F0C5FE4B4EB0EE480A304601F02B
:104B70004DFA22462946304601F0BAFE464EB0EEC6
:104B8000480A304601F042FA22462946304601F0F2
:104B9000AFFE424EB0EE480A304601F037FA2246E8
:104BA0002946304601F0A4FE3D4EB0EE480A30469C
:104BB00001F02CFA22462946304601F099FE394E82
:104BC000B0EE480A304601F021FA22462946304626
:104BD00001F08EFE344EB0EE480A304601F016FA6F
:104BE00022462946304601F083FE304EB0EE480A98
:104BF000304601F00BFA22462946304601F078FE95
:104C00002B4D2846FFF738FF22462A49284601F057
:104C10006FFE294FDFF8A8803A4629464046FFF745
:104C200091FD264E22463146404601F061FEDFF8F6
:104C300094803A4629464046FFF784FD2246314695
:104C4000404601F055FEDFF880803A46294640464E
:104C5000FFF778FD22463146404601F049FEBDECA3
:104C6000028BBDE8F08100BF54020020000000204C
:104C70003D440008340200203F4400086404002042
:104C80003B440008295C0F3D0C0800203744000815
:104C90001808002024080020E8070020F40700205E
:104CA00000080020A8060020B4060020C00600204E
:104CB00088020020414400087D440008394400086F
:104CC0008C050020CC0600207004002010B584B0B4
:104CD000FFF7B8FB01AC4FF47A720649204600F0AA
:104CE000DFFF054B94E8070083E80700002004B0CD
:104CF00010BD00BF540200206404002003680A684D
:104D000002600B6070470000F0B52DED0C8B93B086
:104D100004460F46002306930793089303930493D6
:104D20000593036043608360CB4D284600F0ACFFE1
:104D3000CA4E304600F04AFEEB6900932B6A01939D
:104D40006B6A0293694606A8FFF7D8FF01A907A876
:104D5000FFF7D4FF02A908A8FFF7D0FF95ED049A4A
:104D6000D5ED058A95ED068ABD4BD3ED007A39EE77
:104D7000679AD3ED017A78EEE78AD3ED027A38EEBE
:104D8000678A73680093B3680193F3680293694676
:104D900003A8FFF7B3FF01A904A8FFF7AFFF02A91B
:104DA00005A8FFF7ABFFDDED037A9FEDAE7A77EE56
:104DB000877ACDED037A9DED047AF3EE096A37EE3A
:104DC000667A8DED047ADDED056A9FEDA76A76EED1
:104DD000866ACDED056AFDEEE66A16EE903ABDEE06
:104DE000C77A17EE102AFDEEE77A17EE901A9F4861
:104DF00004F00CFC0A2004F021FC12A9069B41F8E7
:104E0000243D9B4801F007F9B0EE40DA12A9079B58
:104E100041F8203D974801F0FEF8F0EE40BA12A9A3
:104E2000089B41F81C3D944801F0F5F8F0EE409ADB
:104E300012A919EE103A41F8183D904801F0EBF82C
:104E4000B0EE40AA12A918EE903A41F8143D8C48F1
:104E500001F0E1F8F0EE40DA12A918EE103A41F84C
:104E6000103D884801F0D7F8B0EE40BA12A9039B74
:104E700041F80C3D844801F0CEF8B0EE409A12A9FA
:104E8000049B41F8083D814801F0C5F8F0EE408AE6
:104E900012A9059B41F8043D7D4801F0BCF8B0EE35
:104EA000408AF0EE690AB0EE6B0A02F0E5F810EE07
:104EB000100AFBF751FB66A3D3E90023FBF7A4FB21
:104EC000FBF79AFE3946F0EE4A0A00EE100A7148E6
:104ED000FFF75AFC10EE106A10EE100AFBF73CFBCD
:104EE0005BA3D3E90023FBF7B9FC41EC1A0B41ECBF
:104EF000100B01F0C5FE51EC100BFBF77DFE0CEE24
:104F0000900AB0EE4A0AF0EE6A0A01F005FE51EC92
:104F1000100BFBF771FE0CEE100A6BEEAC0A69EE9B
:104F20008C9A70EEA90AB1EE4D0A02F0A5F810EEC7
:104F3000100AFBF711FB46A3D3E90023FBF764FB40
:104F4000FBF75AFE3946F0EE6D0A00EE100A5248A1
:104F5000FFF71AFC10EE105A10EE100AFBF7FCFADD
:104F60003BA3D3E90023FBF779FC41EC1A0B41EC9E
:104F7000100B01F085FE51EC100BFBF73DFE09EE26
:104F8000900AB0EE4A0AF0EE6A0A01F0C5FD51EC53
:104F9000100BFBF731FE0AEE100A404B1B78002B7A
:104FA00040F08A8028EE2C0A68EE8C7A29EE0A9A64
:104FB00068EEAC8A68EEA98A79EE288A28EE0C8A17
:104FC00028EE298A78EE880A30EE670A02F054F853
:104FD00010EE100AFBF7C0FA1DA3D3E90023FBF77C
:104FE00013FBFBF709FE00EE100A2D4BD3ED007A00
:104FF0009FED2C7AF4EEC77AF1EE10FA06DB9FED06
:105000002A7AF4EEC77AF1EE10FA0DD99FED277ADD
:10501000F4EEC77AF1EE10FA0BDB9FED257AF4EE91
:10502000C77AF1EE10FA04D8B5EEC00AF1EE10FA24
:1050300069D43946F0EE4B0A1E48FFF7A5FB2660FF
:10504000656084ED020A204613B0BDEC0C8BF0BD08
:105050006666666666A64C40540200203402002054
:10506000640400200080A24300007A43A8A4000842
:105070000C0800201808002024080020E807002061
:10508000F407002000080020A8060020B406002035
:10509000C00600208C050020CC0600201100002056
:1050A000300800200000B44200003443000034C344
:1050B0000000B4C27004002028EE2C7A28EE8C0A7E
:1050C00069EE0A7A68EEAC0A60EEA90A77EEA07A79
:1050D00068EE0C0A60EEA90A77EEA00A37EE400AE5
:1050E00001F0CAFF10EE100AFBF736FA0BA3D3E962
:1050F0000023FBF789FAFBF77FFD054B1860054B92
:1051000000221A704EE7DFED047A30EE270A90E7AE
:1051100030080020110000200000B4436666666677
:1051200066A64C4008B54FF6FF710120FFF7D0FC92
:1051300008BD0000012800D070474FF6FF73994268
:10514000FAD170B509480024046044608460084EB8
:10515000084D3246294601F0CBFB07480460446005
:1051600084603246294601F0C3FB70BD440800202C
:10517000000000203B440008380800200000000028
:1051800008B52DED028B204B1B78EBB11F4B93ED37
:10519000027A1F4BD3ED027A77EE677A17EE900A08
:1051A000FBF7DAF916A3D3E90023FBF72DFA002267
:1051B000184BFBF753FBFBF71FFD174B1860174B02
:1051C0001860BDEC028B08BD154800F079FB58B99A
:1051D000114B93ED008A134800F0EAF938EE400ACB
:1051E0000E4B83ED000AECE70E4800F0E1F90B4BA3
:1051F000D3ED007A30EE270A074B83ED000AE0E793
:10520000182D4454FB2109401000002044080020C0
:105210003808002000806640500800205808002010
:105220001C010020D801002030B585B0324D284641
:1052300000F093FB05F1580000F08FFB2F4800F0C1
:105240002BF901AC0A212046FFF75EFD2C4B94E8B8
:10525000070083E80700284600F0A2FAA0B9284B0F
:10526000D3ED027AFDEEE77A17EE901A254804F0A6
:10527000CDF9254C2046FDF71DFE05212046FDF702
:1052800095FE20B105B030BDFFF77AFFE7E7204675
:10529000FDF7E7FE07EE900AF8EE677A1B4CC4EDC7
:1052A000007A17EE900AFBF757F90DA3D3E9002314
:1052B000FBF7AAF90022164BFBF7A6F99FED0A1B94
:1052C00041EC100B01F03CFD09A3D3E9002351ECA4
:1052D000100BFBF799F9FBF78FFC2060D2E700BFBA
:1052E0006666666666660A40598638D6C56DF1BF41
:1052F000F6285C8FC2154F401C010020D801002009
:105300003808002044A50008100A00205408002096
:105310000000303F08B54FF6FF710120FFF70AFF8C
:1053200008BD0000034B93FBF0F080B2013880B25F
:10533000704700BF00BD010570B506460D46144616
:105340004FF4FA50FFF7EEFF00FB04F0064B83FB2F
:1053500000230344C017C0EBE33033683433AD0897
:1053600080B243F8250070BD0180008008B50A4670
:10537000C1698069FFF7E0FF08BD00000000000080
:10538000F8B5044610EE105A0068FBF7E5F802463F
:105390000B460BA1D1E90001FBF760FA06460F4668
:1053A0002846FBF7D9F802460B4630463946FBF74C
:1053B0002BF9FBF701FC81B22046FFF7D7FFF8BDC0
:1053C00000000000E0FFEF4010B5044661B1012984
:1053D00015D0002281898068FDF7C4FB0022A18AD4
:1053E0002069FDF7BFFB10BD012281898068FDF7B0
:1053F000B9FB0022A18A2069FDF7B4FBF3E7002284
:1054000081898068FDF7AEFB0122A18A2069FDF742
:10541000A9FBE8E710B52DED028B0446006890ED7E
:10542000008AB4EEC08AF1EE10FA08D4B1EE488AD0
:10543000B4EEC08AF1EE10FA01DCB0EE408AD0ED95
:10544000017AB1EE677AB4EEC87AF1EE10FA0FDCA9
:10545000F4EEC87AF1EE10FA13D40221FFF7B4FF8C
:105460009FED0C0A2068FFF78BFFBDEC028B10BD8F
:105470000021FFF7A9FFB0EEC80A2068FFF780FF00
:10548000F3E70121FFF7A0FFB0EEC80A2068FFF79D
:1054900077FFEAE700000000F8B5044605686B688E
:1054A0001B68586A00B2FBF745F818A3D3E900233C
:1054B000FBF7AAF80022144BFBF7A6F806460F46A6
:1054C0002B8903EB83035800FBF734F802460B46A5
:1054D00030463946FBF7C2F9FBF78EFBA0606B68DC
:1054E0001B685B6A626802FA83F363606B681B681F
:1054F0005B6A626902FA83F363616B681B6800226E
:105500005A62F8BDAFF3008000408F40182D44541C
:10551000FB21194090ED020A7047000000000000D6
:10552000F8B50446436905686A681268506A03FA68
:1055300080F0FAF7FFFF0CA3D3E90023FBF764F830
:1055400006460F462889FAF7F5FF02460B46304615
:105550003946FBF783F9FBF74FFB206100EE100A99
:10556000F8BD00BFAFF30080182D4454FB21194053
:1055700010B5044680ED030A03681B8907EE903AD4
:10558000F8EEE77A67EE807A17EE900AFAF7E4FF12
:1055900005A3D3E90023FBF761F9FBF7E5FA6060A7
:1055A00010BD00BFAFF30080182D4454FB211940FB
:1055B000F8B50446436805686A681268506A03FAD9
:1055C00080F0FAF7B7FF2CA3D3E90023FBF71CF810
:1055D00006460F462889FAF7ADFF02460B463046CD
:1055E0003946FBF73BF9FBF707FBE060FAF7B4FF3E
:1055F00021A3D3E90023FBF797FA58B9E068FAF73B
:10560000ABFF20A3D3E90023FBF770FAD0B994EDE8
:10561000030AF8BD2B781A4A582101FB03231A69A3
:1056200001321A61E068FAF797FF13A3D3E9002368
:10563000FAF732FEFBF7E0FA00EE100A2046FFF719
:1056400097FFDBE723681B780D4A582101FB0323F2
:105650001A6901321A61E068FAF77EFF06A3D3E9FE
:105660000023FAF71BFEFBF7C7FA00EE100A2046EC
:10567000FFF77EFFCBE700BF182D4454FB211940F4
:105680001C010020182D4454FB2119C0000000000B
:1056900010B5044680ED040A03681B8907EE903AB2
:1056A000F8EEE77A67EE807A17EE900AFAF754FF81
:1056B00005A3D3E90023FBF7D1F8FBF755FA6061A6
:1056C00010BD00BFAFF30080182D4454FB211940DA
:1056D00038B52DED028B0546836B93ED008AB4EE51
:1056E000C80AF1EE10FA06DCB1EE488AB4EEC08AC0
:1056F000F1EE10FA40DD05F1140405F13C00FFF76E
:1057000009FF38EE400A94ED016A94ED027AD4ED77
:10571000037ADFED225AC7EEA56A76EE267A27EEE7
:10572000257A37EE467A36EEA66A37EE467A60EE8E
:10573000277A94ED076A27EE067A77EE877A94ED5A
:10574000087A66EE876A77EEA67A94ED067A77EEA7
:10575000877AC4ED067A94ED047AF4EEC77AF1EE16
:1057600010FA0CDC94ED057AF4EEC77AF1EE10FA3B
:1057700007D584ED067A04E0B0EE408ABBE784EDFD
:10578000067A84ED086A84ED070A94ED060A05F1AD
:105790003800FFF73FFEBDEC028B38BD0AD7233C33
:1057A00010B500F13C042046FFF702FFDFED427A1E
:1057B000B4EEE70AF1EE10FA0DDB2046FFF7F8FE33
:1057C00010EE100AFAF7C8FE2FA3D3E90023FBF767
:1057D00097F900284ED12046FFF7EAFE10EE100A96
:1057E000FAF7BAFE2AA3D3E90023FBF789F960B1DF
:1057F0002046FFF7DDFE10EE100AFAF7ADFE26A3F5
:10580000D3E90023FBF786F9B0BB2046FFF7D0FEB3
:1058100010EE100AFAF7A0FE21A3D3E90023FBF74C
:1058200079F960B12046FFF7C3FE10EE100AFAF7CF
:1058300093FE1DA3D3E90023FBF762F9F0B92046DC
:10584000FFF7B6FEDFED1D7AB4EEE70AF1EE10FACF
:1058500016D82046FFF7ACFE10EE100AFAF77CFED1
:1058600013A3D3E90023FBF755F908B1012002E0A7
:10587000022000E0002010BD0020FCE70120FAE734
:105880000220F8E7AFF30080182D440CD10907403F
:10589000182D449C253A0BC0182D4430E61518C02D
:1058A000182D449C253A0B40182D4430E61518401D
:1058B000182D440CD10907C0920A863E920A86BE72
:1058C00010B500F13C042046FFF772FEB5EEC00AA9
:1058D000F1EE10FA0CDB2046FFF76AFE10EE100A1C
:1058E000FAF73AFE14A3D3E90023FBF709F9F0B95C
:1058F0002046FFF75DFE10EE100AFAF72DFE10A30A
:10590000D3E90023FBF7FCF808B9002010BD2046BE
:10591000FFF74EFE10EE100AFAF71EFE0AA3D3E9B7
:105920000023FBF7F7F80028F0D00120EEE7012074
:10593000ECE700BFAFF30080182D4454FB21094071
:10594000182D4454FB2109C0182D4454FB2119C0C3
:1059500008B53C30FFF70CFE08BD08B53C30FFF73A
:105960009BFD08BD2DE9F04383B00646164C4FF071
:10597000000884F8008078236370017C0527009775
:10598000022322460068FDF7C7FF05460123237066
:1059900060236370317C0097022322463068FDF754
:1059A000BBFF81460223237084F801803068317C7C
:1059B00000972246FDF7B0FF45EA0905EDB22843FE
:1059C00040B203B0BDE8F0835C080020F0B583B0BE
:1059D0000446224E03233370017C052700970123E0
:1059E00032460068FDF798FF0546217C00970623A4
:1059F000721C2068FEF752F873781B021BB2B27853
:105A0000134306EE903A73791B021BB2B27913432B
:105A100007EE103AF3781B021BB23279134307EEFC
:105A2000903AF8EEE66A94ED056A76EEC66AB8EE4C
:105A3000C77A94ED066A37EE467AF8EEE77A94ED87
:105A4000076A77EEC67AC4ED016A84ED027AC4ED86
:105A5000037A284340B203B0F0BD00BF5C080020C9
:105A60002DE9F04383B00546294C6B2323704FF09A
:105A7000000984F8019090F828100A270097022363
:105A800022460068FDF748FF06461923237063701D
:105A900095F828100097022322462868FDF73CFF5E
:105AA00080461A23237084F8019095F828100097F7
:105AB000022322462868FDF72FFF1B23237095F849
:105AC0003130DB00637095F828104FF00509CDF8F0
:105AD0000090022322462868FDF71EFF07461C237C
