:020000040800F2
:10000000800800209D010008F32C00081529000835
:10001000F12C0008ED0A0008A535000800000000DA
:10002000000000000000000000000000172D000884
:10003000EF0A000800000000152D0008192D000827
:10004000B7010008B7010008B7010008B7010008B0
:10005000B7010008B7010008B7010008070B000846
:10006000B7010008B7010008B7010008B701000890
:10007000B7010008B7010008B7010008B701000880
:10008000B7010008B7010008B7010008B701000870
:10009000B7010008B7010008B70100080D0B000800
:1000A000B7010008B7010008B7010008B701000850
:1000B000B7010008B7010008B7010008B701000840
:1000C000B7010008B7010008B7010008B701000830
:1000D000B7010008B7010008B7010008B701000820
:1000E000F10A0008B7010008B7010008B7010008CD
:1000F000B7010008B7010008B7010008B701000800
:10010000B7010008B7010008B7010008B7010008EF
:10011000B7010008B7010008B7010008B7010008DF
:10012000B7010008B7010008B7010008B7010008CF
:10013000B7010008B7010008B7010008B7010008BF
:10014000B7010008B7010008B7010008B7010008AF
:10015000B7010008B7010008B7010008B70100089F
:10016000B7010008B7010008B7010008B70100088F
:10017000B7010008B7010008B7010008000000003F
:10018000B7010008B7010008DFF80CD000F072FBDF
:1001900000480047455C000880080020064880476A
:1001A00006480047FEE7FEE7FEE7FEE7FEE7FEE75C
:1001B000FEE7FEE7FEE7FEE7C92D0008890100081B
:1001C0002DE9F05F0546002092469B46884606468C
:1001D000814640241BE0284641464746224600F01F
:1001E00064FA53465A46C01A914110D31146184634
:1001F000224600F04BFA2D1A67EB01084F462246C3
:100200000120002100F042FA17EB00094E41201EA8
:10021000A4F10104DFDC484631462A464346BDE8E6
:10022000F09F2DE9FE4F804681EA0300C00F0C4687
:10023000009021F0004123F00045B8EB0200A941F5
:1002400005D24046214690461C460B46024623F006
:100250000040104347D0270DC7F30A00C3F30A51EB
:100260000290401A019040286BDAC3F3130040F467
:10027000801B0098924620B10023D2EB030A63EB67
:100280000B0B01985946C0F14002504600F0FEF9B0
:1002900006460D4650465946019A00F016FA10EBF4
:1002A00008006141002487EA115284EAE7731A4387
:1002B00040D0009A62B3019A012A4FEA075215DC36
:1002C000001B61EB02014FF0004202EA0752CDE948
:1002D0000042001C41F5801132462B4600F04DFAD9
:1002E00003B0BDE8F08F40462146F9E7001B61EB03
:1002F0000201001C41F5801300185B412018A2F593
:10030000001747EB030140EAD570B6196D4111E0C3
:100310006D084FEA360645EAC0754FEA0752001BE2
:1003200061EB0201001C41F5801149084FEA3000E1
:100330000019514132462B4603B0BDE8F04F00F0A2
:100340000DBA0098012240000023D0EB020263EBBB
:10035000E073009821464FEAE074B8EB000061EBCF
:100360000401E9E783F000435BE781F0004158E7CF
:100370002DE9FE4F81EA030404F0004421F000411E
:1003800000944FF0000B23F0004350EA01045ED0CC
:1003900052EA03045BD0C3F30A54C1F30A552C4458
:1003A000A4F2F3340194A0FB0254C1F3130141F40D
:1003B0008011C3F3130343F4801301FB024400FBD9
:1003C000034E840A970A44EA815447EA8357A4FB00
:1003D000076802958D0A05FB07854FEA932C04FBFD
:1003E0000C542705029D4FEA065847EA1637B5EB2D
:1003F00008056EEB070C870E920E47EA811742EA5A
:100400008312A7FB0201B6EB0B0164EB00042B0D7A
:1004100043EA0C335E1844EB1C50DA465146E7FBC6
:100420000201C5F313044FEA0B3343EA14534FEAB6
:100430000432019C43EA0603A4F10C040294009CDC
:10044000CDE900B400F099F903B0BDE8F08F0020C9
:100450000146F9E72DE9F04D81EA030404F0004B71
:1004600021F0004514464FF0000A23F0004150EA05
:10047000050220D054EA01021DD0C5F30A570246F6
:10048000C5F31303C1F31300C1F30A5640F48015FA
:1004900043F48013A7EB0608101BD64608F2FD387C
:1004A00073EB050002D308F1010801E092185B41EB
:1004B000B8F1000F03DA00200146BDE8F08D0020FE
:1004C0004FF48011064684460EE0171B73EB0507B8
:1004D00005D3121B63EB050306434CEA010C4908E4
:1004E0004FEA300092185B4150EA0107EDD152EA21
:1004F000030012D082EA040083EA0501084305D014
:10050000101BAB4106D20122002306E000224FF06F
:10051000004302E06FF0010253101AEB06004CEBAF
:10052000085110EB0A0041EB0B01BDE8F04D00F063
:1005300015B90EB5C10F80EAE0700844CA07002162
:1005400040F233438DE80E000A460B4600F015F9E1
:1005500003B000BD0EB540F2334102910021CDE958
:1005600000110A460B4600F008F903B000BDC1F3C4
:100570000A5210B5C1F3130140F2FF3341F4801168
:100580009A4201DA002010BD40F233439A42A2F2AF
:10059000334203DC524200F088F810BD904010BD99
:1005A00000F0004230F000400AD0C10D01F560714A
:1005B000C0F3160042EA0151C208400711437047D8
:1005C000002001467047000030B5041E71F10004A0
:1005D00004DB4FF00044404264EB0101141E73F150
:1005E000000405DB1C464FF00043524263EB04035A
:1005F0008B4208BF824230BD30B5041E71F1000449
:1006000004DB4FF00044404264EB0101141E73F11F
:10061000000405DB1C464FF00043524263EB040329
:10062000994208BF904230BD01F0004330B421F040
:10063000004150EA010206D00A0DA2F56072C1F332
:100640001301002A02DC30BC00207047440F44EA4A
:10065000C104C100E01830BC00EBC25000F047B844
:1006600030B50B46014600202022012409E021FA82
:1006700002F59D4205D303FA02F5491B04FA02F57F
:100680002844151EA2F10102F1DC30BD202A04DB52
:10069000203A00FA02F1002070479140C2F1200395
:1006A00020FA03F3194390407047202A04DB203AD4
:1006B00021FA02F00021704721FA02F3D040C2F182
:1006C00020029140084319467047202A06DBCB17C9
:1006D000203A41FA02F043EAE07306E041FA02F3FD
:1006E000D040C2F1200291400843194670470029CA
:1006F000A8BF7047401C490008BF20F001007047A8
:1007000010B4B0FA80FC00FA0CF050EA010404BF07
:1007100010BC704749B1CCF1200421FA04F411FA5D
:100720000CF118BF012121430843A3EB0C01CB1DA1
:100730004FEA00614FEA102042BF002010BC704712
:1007400000EBC35010440029A4BF10BC7047401CEC
:10075000490008BF20F0010010BC704710B5141EFE
:1007600073F1000408DA401C41F1000192185B416A
:100770001A4301D120F0010010BD2DE9F04D924641
:100780009B4611B1B1FA81F202E0B0FA80F2203258
:100790009046FFF77BFF04460F4640EA0A0041EA15
:1007A0000B0153465A46084313D0114653EA010041
:1007B00019D0C8F140025046FFF777FF05460E46B4
:1007C000504659464246FFF761FF084305D00120D5
:1007D00004E020463946BDE8F08D0020054346EA96
:1007E000E0762C4337430A986305E40AA0EB08003F
:1007F0000022FD0A44EA47540A3002D5002001468F
:10080000E9E7010510196941DDE908450019694169
:10081000BDE8F04DA2E770B521F0004303430CD0D2
:10082000C1F30A550024D5EB040564EB0403D61785
:10083000AD1AB34102DB0020014670BD201841EB28
:10084000025170BDC1F30A52C1F3130140F2FF33EC
:1008500041F480119A4202DA00200146704740F2CA
:1008600033439A42A2F2334202DC5242FFF71DBFE9
:10087000FFF70CBF064C074D06E0E06840F00103AF
:1008800094E8070098471034AC42F6D3FFF780FC99
:1008900020640008406400082DE9F04D00231A464A
:1008A0001B1A8A4103DB00200146BDE8F08DC1F32D
:1008B0000A52C1F3130141F480154FF0000BD10728
:1008C00002D100186D41521E0027044640F2FF116C
:1008D000384601EB620A3E468046024600204FF44D
:1008E0008011FFF7E2FEC2197141BB1846EB01000F
:1008F000B4EB030C75EB000C04D3E41A65EB0005B4
:1009000017460E46241908F101006D41804634282F
:10091000E3DDF91946EB0600091BA84103D24FF0AD
:10092000FF32134601E0002213461BEB070046EBA3
:100930000A51BDE8F04DFFF711BF70B5C1F30A527F
:1009400001F000450024C1F3130140F2FF3341F4EC
:1009500080119A4201DA002070BD40F233439A427E
:10096000A2F2334203DC5242FFF79FFE00E09040C8
:100970002C43F1D0404270BD10B504464A4841684E
:1009800021F4403141604168626811434160206850
:10099000416821F48071416020684168226941EA20
:1009A000022141602068416821F040714160206867
:1009B0004168A268114341602068816821F40061A8
:1009C000816020688168E26811438160A06A6FF0ED
:1009D0007061C8422068816821F070618160206880
:1009E00081680CD0A26A114381602068816821F07F
:1009F0004051816020688168E26A114301E021F082
:100A0000405181602068816821F002018160206886
:100A10008168A26941EA42018160206A00283ED0D3
:100A2000606A401E072804D940F227611FA004F025
:100A300086FD2068416841F400614160206841689A
:100A400021F46041416020684168264B626A03EBF3
:100A50004232114341602068C16A21F47001C162D1
:100A60002068C16AA28B204B03EB02521143C16282
:100A70002068816821F40071816020688168226BA0
:100A800041EA422181602068816821F480618160AF
:100A900020688168626941EA8221816010BD206816
:100AA000416821F40061D5E7002301402E2E2F4438
:100AB0007269766572732F53544D333246347878A9
:100AC0005F48414C5F4472697665722F5372632FA1
:100AD00073746D3332663478785F68616C5F61641B
:100AE000632E630000E0FFFF0000F0FFFEE77047A9
:100AF00010B54FF4006000F087FABDE810404FF4E5
:100B0000005000F081BA022000F07EBA802000F090
:100B10007BBA0000F8B500260546009608680C462A
:100B2000122804D940F215515DA004F008FD606858
:100B3000401E0F2804D940F2165159A004F0FFFCC2
:100B4000A06890B1012810D002280ED003280CD044
:100B500004280AD0052808D0062806D0072804D083
:100B600040F217514EA004F0EAFC95F83C00012831
:100B700019D0012085F83C00206807212A6809283F
:100B800013D9D3680A3800EB400081408B43D3600F
:100B90002178A0680A3901EB410188402968CA68B8
:100BA0001043C86010E00220F8BD136900EB40005C
:100BB00081408B4313612178A06801EB410188409B
:100BC00029680A691043086160681F21072813D249
:100BD0002A68536B401E00EB800081408B435363B7
:100BE00021792088491E80B201EB81018840296863
:100BF0004A6B1043486327E02A680D2812D2136B12
:100C0000C01F00EB800081408B4313632179208853
:100C1000C91F80B201EB8101884029680A6B10432B
:100C2000086311E0D36A0D3800EB800081408B43EC
:100C3000D362217920880D3980B201EB810188408F
:100C40002968CA6A1043C86224492A6822488A422D
:100C500006D12268122A03D1426842F4800242601F
:100C60002A688A4218D12168102901D0112913D18C
:100C7000416841F400014160206810280CD11848F7
:100C800018490068B0FBF1F000EB8000400000E084
:100C9000401E00900028FBD185F83C600020F8BD84
:100CA0002E2E2F447269766572732F53544D333252
:100CB000463478785F48414C5F4472697665722F9C
:100CC0005372632F73746D3332663478785F686162
:100CD0006C5F6164632E63000023014000200140CB
:100CE0009800002040420F002DE9F04704004FF02B
:100CF00000057DD07149206888420AD07049884239
:100D000007D07049884204D040F20B116EA004F065
:100D100016FC606868B1B0F5803F0AD0B0F5003FBE
:100D200007D0B0F5403F04D04FF4867166A004F0C0
:100D300006FCA0684FF080774FF000784FF04079C4
:100D400050B1B84208D0404506D0484504D040F2E2
:100D50000D115DA004F0F3FB206930B1012804D02F
:100D60004FF4877158A004F0EAFBA06930B1012864
:100D700004D040F20F1154A004F0E1FB604EA06AD1
:100D800080B3B8422ED040452CD048452AD0B0F18F
:100D9000806F27D0B0F1A06F24D0B0F1C06F21D008
:100DA000B0F1E06F1ED0B0F1006F1BD0B0F1106F4A
:100DB00018D0B0F1206F15D0B0F1306F12D0B0F173
:100DC000406F0FD0B0F1506F0CD0B0F1606F09D010
:100DD000B0F1706F06D0B04204D04FF488713AA0E1
:100DE00004F0ADFBE06848B1B0F5006F06D000E05C
:100DF00041E040F2111134A004F0A1FBE069401E73
:100E00000F2804D94FF489712FA004F098FB206BB0
:100E100030B1012804D040F213112BA004F08FFB55
:100E20006069012807D030B1022804D04FF48A71DC
:100E300025A004F084FB206A30B1012804D040F2E0
:100E4000151121A004F07BFBA06AB0420FD0E06A2C
:100E500068B1B0F1805F0AD0B0F1005F07D0B0F1A7
:100E6000405F04D040F2191117A004F068FB206C19
:100E7000002618B108E00120BDE8F087666484F818
:100E80003C60204600F03EF8206CC00610D4206C78
:100E900020F4885040F0020020642046FFF76CFDEB
:100EA0006664206C20F0020040F00100206400E045
:100EB000012584F83C602846DEE700000020014060
:100EC00000210140002201402E2E2F4472697665D8
:100ED00072732F53544D3332463478785F48414C07
:100EE0005F4472697665722F5372632F73746D332A
:100EF00032663478785F68616C5F6164632E63008A
:100F00000100000F00B500680C4987B0884212D17B
:100F10000B480021026842F480720260006800F40D
:100F200080700590102000900320CDE901016946F2
:100F3000044800F075F807B000BD00000020014033
:100F4000443802400008024070B5014629482A4D45
:100F50002A4C022913D0802922D0B1F5006F30D05D
:100F6000B1F5005F1BD18114254800F0DFF900289E
:100F7000688B39D0401C6883E068401C38E0012150
:100F800000F0D4F90028688804D0401C68802068EC
:100F9000401C03E0401E68802068401E206070BD39
:100FA000402100F0C3F90028688904D0401C688102
:100FB0006068401C03E0401E68816068401E6060FD
:100FC00070BD4FF400710F4800F0B0F90028688A36
:100FD00004D0401C6882A068401C03E0401E688268
:100FE000A068401EA06070BD401E6883E068401E7F
:100FF000E06070BD00000240A0020020000300205D
:10100000000C024000100240044910B50A68024278
:1010100002D00860FFF798FF10BD0000143C0140AB
:101020002DE9F84F0446A0480D4684421BD09F4846
:10103000844218D09E48844215D09E48844212D0E3
:101040009D4884420FD09D4884420CD09C488442E5
:1010500009D09C48844206D09B48844203D0C321D7
:101060009AA004F06CFA28680104090C01D0000C65
:1010700003D0C42195A004F062FA6868F8B1012891
:101080001DD011281BD0022819D0122817D09E4934
:10109000884214D09D49884211D09D4988420ED083
:1010A0009C4988420BD09C49884208D09B49884281
:1010B00005D0032803D0C52184A004F040FAA86815
:1010C00038B1012805D0022803D0C6217FA004F042
:1010D00036FA00264FF0010B0BFA06F02F68824615
:1010E000074057457ED16868022801D012282ED1CA
:1010F0002869F8B109281DD001281BD0022819D071
:10110000032817D0042815D0052813D0062811D09D
:1011100007280FD008280DD00A280BD00B2809D09B
:101120000C2807D00D2805D00F2803D0D72167A0A1
:1011300004F005FAF00804EB8002106A7107CB0E88
:101140000F21994088432969994001431162206821
:101150007200032101FA02F82979914601F0030196
:1011600020EA080001FA09F10143216068680128BA
:1011700005D0022803D0112801D012281CD1E8681C
:1011800048B1012807D0022805D0032803D0EA215E
:101190004EA004F0D4F9A068E96820EA080001FA3A
:1011A00009F10143A1606068297920EA0A00C1F3CE
:1011B0000011B14001436160E068A96820EA0800BD
:1011C00001FA09F10143E1606868C00065D554483F
:1011D000016841F480410160006826F0030100F4D9
:1011E000804000E059E000904E480A18D2F8080804
:1011F000B1070B0F0F21994088432B498C4201D135
:10120000002123E029498C4201D101211EE0284917
:101210008C4201D1022119E026498C4201D10321DF
:1012200014E025498C4201D104210FE023498C426E
:1012300001D105210AE022498C4201D1062105E0B5
:1012400020498C4201D1072100E008219940014347
:10125000C2F80818344908686A68B843D20300D550
:10126000384308603049091D08686A68B84392032A
:1012700000D5384308602C49083108686A68B843CB
:10128000D20200D53843086027490C3108686A68E3
:10129000B843920200D538430860761C102EFFF444
:1012A0001BAFBDE8F88F00000000024000040240C0
:1012B00000080240000C02400010024000140240EE
:1012C00000180240001C0240002002402E2E2F4435
:1012D0007269766572732F53544D33324634787881
:1012E0005F48414C5F4472697665722F5372632F79
:1012F00073746D3332663478785F68616C5F6770E1
:10130000696F2E6300000000000011100000211022
:1013100000003110000012100000221000003210F6
:101320004438024000300140003C014070B50C00E0
:10133000054604D14FF4C77103A004F000F92869F1
:10134000204000D0012070BD2E2E2F44726976659A
:1013500072732F53544D3332463478785F48414C82
:101360005F4472697665722F5372632F73746D33A5
:1013700032663478785F68616C5F6770696F2E637E
:101380000000000070B515460C00064604D140F27E
:10139000AF1108A004F0D3F845B1012D04D04FF4EB
:1013A000D87104A004F0CBF8B46170BD2004B06122
:1013B00070BD00002E2E2F447269766572732F5314
:1013C000544D3332463478785F48414C5F447269FB
:1013D0007665722F5372632F73746D33326634786F
:1013E000785F68616C5F6770696F2E630000000052
:1013F00001488068704700008C0000200248816826
:1014000002781144816070478C0000200B4810B5B1
:10141000016841F400710160016841F4806101607C
:10142000016841F480710160032000F0EBF80020B6
:1014300000F006F800F024F8002010BD003C024047
:1014400070B50D4D04464FF47A712878B1FBF0F079
:101450000A490968B1FBF0F000F0F1FC48B9102C22
:1014600007D200222146501E00F07CF800206C605C
:1014700070BD012070BD00008C000020980000208D
:101480001F4808B5016841F480410160006800F41C
:10149000804000901A48001F016841F080510160AF
:1014A000006800F080500090032000F0ABF80022AC
:1014B00011466FF00B0000F055F8002211466FF056
:1014C0000A0000F04FF8002211466FF0090000F00A
:1014D00049F800221146501F00F044F8002211463E
:1014E000101F00F03FF800221146901E00F03AF85D
:1014F0000022BDE808401146501E00F033B800003D
:101500004438024010B5040003D5CE2106A004F0F3
:1015100016F804F01F01012088406109890001F1DB
:10152000E021C1F8000110BD2E2E2F4472697665AE
:1015300072732F53544D3332463478785F48414CA0
:101540005F4472697665722F5372632F73746D33C3
:1015500032663478785F68616C5F636F7274657847
:101560002E63000070B515460C460646102A03D3BC
:10157000BA2114A003F0E3FF102C03D3BB2111A068
:1015800003F0DDFF1E480068C0F30223C3F1070229
:101590002046042A00D90422191D072901D200235C
:1015A00000E0DB1E012404FA02F1491E01409940CB
:1015B0009C40641E2C4021433046BDE8704001F041
:1015C00099BB00002E2E2F447269766572732F53DB
:1015D000544D3332463478785F48414C5F447269E9
:1015E0007665722F5372632F73746D33326634785D
:1015F000785F68616C5F636F727465782E6300005A
:101600000CED00E010B5044607280BD0062C09D0DD
:10161000052C07D0042C05D0032C03D0A22108A050
:1016200003F08DFF154904F0070208684FF6FF0329
:10163000184040EA0220124A1043086010BD000022
:101640002E2E2F447269766572732F53544D3332A8
:10165000463478785F48414C5F4472697665722FF2
:101660005372632F73746D3332663478785F6861B8
:101670006C5F636F727465782E6300000CED00E0A0
:101680000000FA052DE9F0470E4604007DD02068E1
:10169000401E0E2804D94FF414717AA003F04FFFB6
:1016A00096B1012E10D0022E0ED0032E0CD0042E97
:1016B0000AD0052E08D0062E06D0072E04D040F200
:1016C000512170A003F03BFFDFF8F081D8F8000053
:1016D000F7B200F00F00B04207D288F80070D8F8D7
:1016E000000000F00F00B0424FD12068744D810718
:1016F00029D5400703D5286840F4E05028602078B9
:10170000000703D5286840F460402860A068A0B1B5
:10171000802812D0902810D0A0280ED0B0280CD04D
:10172000C0280AD0D02808D0E02806D0F02804D05D
:101730004FF41D7153A003F002FF2868A16820F048
:10174000F000084328602078C00743D0DFF870918C
:101750006068A9F1080988B1012822D0022824D0A4
:10176000032822D040F27B2146A003F0E8FE606807
:10177000012816D0022818D0032816D0D9F8000066
:101780008007002833DA286800E030E0616820F044
:10179000030008432860FFF72BFE814641F2883A98
:1017A00011E0D9F800008003EBE7D9F800008001D0
:1017B000E7E700BFFFF71CFEA0EB0901514502D986
:1017C0000320BDE8F0872868616800F00C00B0EBEA
:1017D000810FEFD1D8F80010404601F00F01B1425F
:1017E00007D90770006800F00F00B04201D0012057
:1017F000E7E720784FF4805640074FF4A0574FF4A6
:10180000C0584FF4E05914D5E06860B1B0420AD036
:10181000B84208D0404506D0484504D040F2B9212E
:1018200018A003F08CFE2868E16820F4E05008431B
:1018300028602078000715D5206960B1B0420AD031
:10184000B84208D0404506D0484504D04FF4307126
:101850000CA003F074FE2868216920F4604040EA7F
:10186000C100286000F058F82968164AC1F3031136
:10187000515CC840144908600020FFF7E1FD0020DA
:101880009FE700002E2E2F447269766572732F53E6
:10189000544D3332463478785F48414C5F44726926
:1018A0007665722F5372632F73746D33326634789A
:1018B000785F68616C5F7263632E6300003C024076
:1018C000083802405862000898000020014800686B
:1018D0007047000098000020044805490068096826
:1018E000044AC1F38221515CC8407047980000202F
:1018F0000838024068620008044805490068096821
:10190000044AC1F34231515CC8407047980000203E
:101910000838024068620008154810B5006810F0E9
:101920000C02144813D04110042A0FD0082A0ED1FB
:101930000F4C241F2268236802F03F025B0207D588
:101940002068C0F38810A0FB010106E0084610BD26
:101950002168C1F38811A1FB00010023FEF730FCD0
:101960002168C1F30141491C4900B0FBF1F010BDF1
:10197000083802400024F4002DE9F84F04007DD01F
:1019800020680F2803D9F821F2A003F0D8FD2078B1
:10199000DFF8F8B3FE4DC00756D060684FF48036CC
:1019A0004FF4A02738B1B04205D0B84203D0FD2192
:1019B000E8A003F0C4FDDBF800105846C1F3810134
:1019C000012909D00068C0F3810002280BD1EF483B
:1019D000001F0068400206D52868800334D560687F
:1019E0000028CCD030E06068B04203D1286840F4D1
:1019F00080300CE0B842286803D140F48020286091
:101A0000F4E720F480302860286820F480202860E3
:101A1000606860B1FFF7ECFC064604E0FFF7E8FC05
:101A2000801B64287ED828688003F7D50CE0FFF778
:101A3000DFFC064605E000BFFFF7DAFC801B6428E8
:101A4000F0D828688003F7D42078DFF8488380072F
:101A50004FF0000956D5E06830B1012804D040F2BB
:101A60002F11BCA003F06BFD20691F2804D94FF48F
:101A70009871B8A003F063FD584600E092E0DBF8EF
:101A8000001011F00C0F09D00068C0F3810002288B
:101A900011D1BE48001F006840020CD4286880079E
:101AA00002D5E06801287DD12868216920F0F8007E
:101AB00040EAC10016E0E068B0B10120C8F80000BB
:101AC000FFF796FC064604E0FFF792FC801B022815
:101AD000A8D828688007F7D5286820F0F801206981
:101AE00041EAC00028600DE0C8F80090FFF780FCD4
:101AF000064604E0FFF77CFC801B022892D8286889
:101B00008007F7D4207800072ED5A04EA24F606939
:101B10006C36D0B1012808D04FF4B8718DA003F015
:101B20000EFD00E04DE1606978B101203860FFF7FB
:101B30005FFC074605E000BFFFF75AFCC01B022808
:101B4000C6D830688007F7D50EE0C7F80090FFF7D9
:101B50004FFC074605E000BFFFF74AFCC01B022808
:101B6000B6D830688007F7D42078400776D5A068CB
:101B7000002740B1012806D0052804D04FF4CE71CB
:101B800074A003F0DCFCDFF804A20AF1380ADAF8EA
:101B90000000C0000DD4DAF8001041F08051CAF8FE
:101BA000001000E0D4E0DAF80000012700F08050D7
:101BB00000907A4E3068C00511D4306840F48070CF
:101BC0003060FFF715FC009006E000BFFFF710FC47
:101BD0000099401A022891D83068C005F6D56B4E9E
:101BE000A068683601280FD00528306810D020F092
:101BF00001003060306820F004003060A068B8B1A7
:101C0000FFF7F6FB00900FE0306840F00100F4E7CA
:101C100040F004003060F7E7FFF7EAFB0099411A53
:101C200041F2883081428BD830688007F4D50EE0CD
:101C3000FFF7DEFB009007E0FFF7DAFB0099411A9F
:101C400041F2883081428BD830688007F4D42FB1BC
:101C5000DAF8001021F08051CAF80010A0690028BD
:101C600075D0012809D0022807D040F2DF1139A031
:101C700003F065FCA0690028F2D0DBF80000C0F397
:101C80008100022864D0A069022805D0C8F86090BD
:101C9000FFF7AEFB044697E0E06938B1B0F5800F7E
:101CA00004D04FF4F4712BA003F049FC206A3F28C4
:101CB00004D940F2E91127A003F041FC606A3238F0
:101CC000B0F5BF7F04D94FF4F57122A003F037FCC3
:101CD000A06A02280AD0042808D0062806D00828BE
:101CE00004D040F2EB111BA003F029FCE06A801E37
:101CF0000D2804D94FF4F67116A003F020FC4746D6
:101D0000C8F86090FFF774FB064604E0FFF770FB2D
:101D1000801B022855D828688001F7D4D4E9070130
:101D20000843A16A1E4A490802EB0141626A41EA7E
:101D30008211084394F82C1040EA01611348001FF7
:101D4000016001203866FFF753FB04462FE03EE0B8
:101D50003FE000002E2E2F447269766572732F5378
:101D6000544D3332463478785F48414C5F44726951
:101D70007665722F5372632F73746D3332663478C5
:101D8000785F68616C5F7263632E6300083802409D
:101D90000038024000004742800E47420070004079
:101DA0000000FFFFFFF724FB001B022809D828686A
:101DB0008001F7D50BE000BFFFF71AFB001B0228DC
:101DC00002D90320BDE8F88F28688001F4D40020F0
:101DD000F8E70120F6E7000010B54FF0E0240428F2
:101DE00009D020B140F2D91105A003F0A8FB206969
:101DF00020F0040002E0206940F00400206110BDE2
:101E00002E2E2F447269766572732F53544D3332E0
:101E1000463478785F48414C5F4472697665722F2A
:101E20005372632F73746D3332663478785F6861F0
:101E30006C5F636F727465782E630000704710B535
:101E4000401EB0F1807F01D3012010BD4FF0E0248F
:101E500060610F21601700F04DFF0020A061072096
:101E60002061002010BD10B5FFF7E8FF10BD000095
:101E700070B50C46054600684049884207D0404985
:101E8000884204D040F272613EA003F058FB206803
:101E9000B0F5006F05D020B140F2736139A003F0B6
:101EA0004EFB6068B0F5806F05D020B140F27461E0
:101EB00034A003F044FBA06868B1B0F5807F0AD07D
:101EC000B0F5007F07D0B0F5407F04D040F27561D7
:101ED0002CA003F034FBE068FF2804D940F27661BF
:101EE00028A003F02CFB2069B0F5805F05D020B15D
:101EF00040F2776123A003F022FB606938B1B0F5AE
:101F0000005F04D04FF4CF611EA003F018FBA0695E
:101F1000B0F5804F05D020B140F2796119A003F0EF
:101F20000EFB95F83800012825D0012085F83800EF
:101F3000E068A26820F440701043626820F480607A
:101F40001043226820F400601043226920F480507E
:101F50001043626920F400501043A26920F48040CD
:101F60001043002120F4004010432A68506485F893
:101F70003810002070BD022070BD0000000001403C
:101F8000000401402E2E2F447269766572732F5320
:101F9000544D3332463478785F48414C5F4472691F
:101FA0007665722F5372632F73746D333266347893
:101FB000785F68616C5F74696D5F65782E6300009F
:101FC00070B50D46044600683049884219D0B0F11A
:101FD000804F16D02E49884213D02E49884210D007
:101FE0002D4988420DD02D4988420AD02C4988427B
:101FF00007D02C49884204D040F24A612AA003F05D
:102000009EFA286890B1102810D020280ED03028D1
:102010000CD040280AD0502808D0602806D070285C
:1020200004D040F24B6120A003F089FA6868802850
:1020300005D020B140F24C611BA003F080FA94F867
:10204000380001281FD0012084F83800022184F8CC
:10205000391021684A6822F070024A6021684A6893
:102060002B681A434A6021688A6822F080028A60DD
:1020700021688A686B681A438A6084F839000020F6
:1020800084F8380070BD022070BD000000000140DF
:102090000004004000080040000C00400010004018
:1020A00000140040000401402E2E2F447269766512
:1020B00072732F53544D3332463478785F48414C15
:1020C0005F4472697665722F5372632F73746D3338
:1020D00032663478785F68616C5F74696D5F6578CB
:1020E0002E63000010B5044601681E4881422BD0C3
:1020F000B1F1804F28D01C48814225D01B48814235
:1021000022D01B4881421FD01A4881421CD01A4855
:10211000814219D01948814216D01948814213D002
:102120001848814210D0184881420DD0174881428A
:102130000AD01748814207D01648814204D04FF494
:10214000997115A003F0FBF9022084F8390020688A
:10215000016841F001010160012084F8390000208C
:1021600010BD0000000001400004004000080040D5
:10217000000C00400010004000140040000401402A
:102180000040014000440140004801400018004068
:10219000001C0040002000402E2E2F4472697665FE
:1021A00072732F53544D3332463478785F48414C24
:1021B0005F4472697665722F5372632F73746D3347
:1021C00032663478785F68616C5F74696D2E630085
:1021D00000B50068094985B088420DD14FF4707090
:1021E00000900220019000200290039003200490B0
:1021F00069460348FEF714FF05B000BD0004014026
:10220000000802402DE9F05F044690F8380092463D
:102210000D4601284ED04FF0010B84F838B0BAF1CA
:10222000000F10D0BAF1040F0DD0BAF1080F0AD088
:10223000BAF10C0F07D0BAF1180F04D040F648419C
:1022400076A003F07CF92868602806D0702804D0B6
:1022500040F6494171A003F072F9A86830B1022834
:1022600004D040F64A416DA003F069F9286930B105
:10227000042804D040F64B4168A003F060F9022026
:1022800084F839007349744B744E754FDFF8D4C12C
:10229000DFF8D491754A4FF08048BAF1000F0CD0A6
:1022A000BAF1040F3ED0BAF1080F66D0BAF10C0FA4
:1022B00062D187E00220BDE8F09F206888421ED0EE
:1022C00040451CD098421AD0B04218D0B84216D01F
:1022D000604514D0484512D0654988420FD0654901
:1022E00088420CD090420AD06349884207D06349A3
:1022F000884204D040F6534148A003F020F9294613
:10230000206800F063FE2068816941F00801816166
:102310002068816921F004018161206881692A694E
:10232000114328E02068884212D0404510D09842DE
:102330000ED0B0420CD0B8420AD0604508D0484513
:1023400006D0904204D040F6624134A003F0F7F882
:102350002946206800F066FE2068816941F400612A
:1023600081612068816921F48061816120688169CF
:102370002A6941EA022181614AE0206888420ED040
:1023800040450CD098420AD0B04208D0B84206D09E
:10239000604504D040F6714120A003F0D0F82946F2
:1023A000206800F09BFE2068C16941F00801C1610E
:1023B0002068C16921F00401C1612068C1692A69EE
:1023C000114324E0206888420ED040450CD098424A
:1023D0000AD0B04208D0B84206D0604504D04FF4CD
:1023E00048610EA003F0ABF82946206800F0E6FE35
:1023F0002068C16941F40061C1612068C16921F4AC
:102400008061C1612068C1692A6941EA0221C16114
:1024100084F839B0002084F838004CE72E2E2F4481
:102420007269766572732F53544D3332463478781F
:102430005F48414C5F4472697665722F5372632F17
:1024400073746D3332663478785F68616C5F746979
:102450006D2E6300000001400004004000080040B1
:10246000000C004000040140004001400018004002
:102470000044014000480140001C00400020004092
:1024800010B504004FD03248226882422BD0B2F1FE
:10249000804F28D02F48824225D02F48824222D018
:1024A0002E4882421FD02E4882421CD02D488242A4
:1024B00019D02D48824216D02C48824213D02C4885
:1024C000824210D02B4882420DD02B4882420AD043
:1024D0002A48824207D02A48824204D040F2F13191
:1024E00028A003F02CF8A06860B110280AD020289A
:1024F00008D0402806D0602804D040F2F23121A054
:1025000003F01DF8206950B1B0F5807F07D0B0F519
:10251000007F04D040F2F3311AA003F010F894F8D1
:10252000390010B107E0012010BD002084F8380008
:10253000204600F043F8022084F83900211D20686D
:1025400000F06CFC012084F83900002010BD000070
:10255000000001400004004000080040000C004062
:102560000010004000140040000401400040014001
:10257000004401400048014000180040001C004099
:10258000002000402E2E2F447269766572732F53FF
:10259000544D3332463478785F48414C5F44726919
:1025A0007665722F5372632F73746D33326634788D
:1025B000785F68616C5F74696D2E630008B50068B0
:1025C0000B49884212D10B48016841F002010160B9
:1025D0000068002200F00200009011462D20FEF756
:1025E000C1FFBDE808402D20FEF78CBF08BD0000EC
:1025F00000040140443802402DE9F04105460068DE
:102600003C4E3D4F0C46B04207D1002C53D0042C19
:1026100051D0082C4FD00C2C4DD0B0F1804F60D051
:102620003649884207D1002C45D0042C43D0082CD1
:1026300041D00C2C3FD03249884206D1BCB3042C87
:1026400039D0082C37D00C2C35D02E49884206D1F1
:102650006CB3042C2FD0082C2DD00C2C2BD0B842CE
:1026600006D124B3042C26D0082C24D00C2C22D044
:102670002549884202D1D4B1042C1CD02349884278
:1026800000D1A4B12249884200D184B121498842B5
:1026900002D164B1042C0ED01F49884200D134B15C
:1026A0001E49884200D114B140F2524100E002E0DC
:1026B0001BA002F044FF01222146286800F00EFC16
:1026C0002868B04201D0B84203D1416C41F40041C6
:1026D00041642868016841F0010101600020BDE803
:1026E000F081002CE7D0042CE5D0082CE3D00C2C92
:1026F000E1D0D9E70000014000040140000400409F
:1027000000080040000C004000400140004401402F
:102710000048014000180040001C0040002000401C
:102720002E2E2F447269766572732F53544D3332B7
:10273000463478785F48414C5F4472697665722F01
:102740005372632F73746D3332663478785F6861C7
:102750006C5F74696D2E630070B5040022D0A069AF
:102760003A4E00283A493B4A3B4B20681CD08D1515
:10277000B0420BD0884209D0904207D0984205D091
:10278000294636A002F0DBFEA06900B3A069A8428A
:102790001DD0B0F5007F1AD0B0F5407F17D040F2C1
:1027A000011111E0012070BDB04210D088420ED05E
:1027B00090420CD03849884209D03849884206D026
:1027C000984204D040F2051124A002F0B8FEA0689F
:1027D00038B1B0F5805F04D040F207111FA002F0BD
:1027E000AEFEE06938B1B0F5004F04D04FF484710B
:1027F0001AA002F0A4FE94F83900002520B984F84C
:102800003850204600F04CF8242084F83900206825
:10281000C16821F40051C160204600F021FD20680C
:10282000016921F4904101612068416921F02A0188
:1028300041612068C16841F40051C160E563202016
:1028400084F8390084F83A00002070BD001001407F
:102850000044004000480040001401402E2E2F4448
:102860007269766572732F53544D333246347878DB
:102870005F48414C5F4472697665722F5372632FD3
:1028800073746D3332663478785F68616C5F75613C
:1028900072742E6300000000004C004000500040A5
:1028A00030B50068164D022101220323072487B0AA
:1028B000A8420ED11348056845F010050560006870
:1028C00000F01000059058028DE81F0069460E4880
:1028D00012E00E4DA84211D10A48001F056845F4C8
:1028E00080250560006800F4802005904FF440606A
:1028F0008DE81F0069460648FEF792FB07B030BD21
:1029000000100140443802400000024000480040EE
:1029100000040240FEE700007FB51548134900247B
:1029200001604FF48031C0E90114046184611149F0
:102930000462C0E90A140125C460C56145610463ED
:10294000FEF7D2F918B148210BA000F02CFE0E20A2
:10295000CDE90005694602940548FEF7DBF800283A
:1029600003D0522104A000F01EFE7FBD00200140D4
:10297000A00000200100000F2E2E2F436F72652F44
:102980005372632F6164632E630000002DE9F04FE2
:102990006C4887B00024016841F0100101600168B3
:1029A00001F010010591016841F004010160016826
:1029B00001F004010591016841F0800101600168A6
:1029C00001F080010591016841F001010160016899
:1029D00001F001010591016841F002010160016807
:1029E00001F002010591016841F0080101600068F1
:1029F000DFF854A100F008004CF2AA08059000226C
:102A000041465046FEF7BEFCDFF840B14FF4A059F6
:102A1000002249465846FEF7B5FC002201214C48E9
:102A2000FEF7B0FC4FF2FE500325CDE900056946E4
:102A300002944748FEF7F4FA4EF62F00CDE9000560
:102A4000694602945846FEF7EBFA412001268DE8CC
:102A5000510069463F48FEF7E3FA3F4F8220CDE937
:102A60000007694602943B48FEF7DAFA49F63C1043
:102A7000CDE90005694602943648FEF7D1FA4FF2D7
:102A8000F730CDE90005694602943448FEF7C8FAEC
:102A900070028DE8510069462D48FEF7C1FAF00238
:102AA000CDE90007694602942948FEF7B9FA40F6D5
:102AB0005570CDE90005694602945046FEF7B0FA1C
:102AC00030038DE8510069465046FEF7A9FA7003BD
:102AD000CDE90007694602945046FEF7A1FACDE918
:102AE000008669465046CDE90245FEF799FACDE9E0
:102AF000009669465846CDE90245FEF791FA0096E0
:102B0000694613480196CDE90245FEF789FA00228D
:102B100011460720FEF726FD0720FEF7F3FC0022F2
:102B200011461720FEF71EFD1720FEF7EBFC0022D2
:102B300011462820FEF716FD2820FEF7E3FC07B01B
:102B4000BDE8F08F30380240000C0240000802401F
:102B5000001002400000024000001110000402407A
:102B600030B5354D91B033480024C5E9000420202C
:102B7000A8604FF4FA5003F0EDFAC5E903042846C3
:102B80006C61FFF77DFC18B141212CA000F00BFD1A
:102B90000E940EA928480F94FFF712FA18B1482195
:102BA00026A000F000FD6020CDE90004029403940B
:102BB00004940594002269461F480694FFF722FBFF
:102BC00018B154211DA000F0EEFC042269461A48F9
:102BD000FFF718FB18B1592118A000F0E4FC0822F7
:102BE00069461548FFF70EFB18B15E2113A000F0EF
:102BF000DAFC0C2269461048FFF704FB18B1632188
:102C00000EA000F0D0FC0794089409944FF40050F3
:102C10000A94CDE90B4007A907480D94FFF728F95E
:102C200018B16F2105A000F0BEFC0348FFF7D0FAF1
:102C300011B030BD00040140E80000202E2E2F43CB
:102C40006F72652F5372632F74696D2E63000000DD
:102C50000D4810B50B4901604FF4E131416000218E
:102C600081600C22C160C0E904128161C161FFF77B
:102C700073FD002805D0BDE81040432103A000F0FB
:102C800092BC10BD00100140600100202E2E2F4389
:102C90006F72652F5372632F75736172742E6300A8
:102CA0000D4810B50B4901604FF4E131416000213E
:102CB00081600C22C160C0E904128161C161FFF72B
:102CC0004BFD002805D0BDE81040562103A000F0C0
:102CD0006ABC10BD00480040A00100202E2E2F43EA
:102CE0006F72652F5372632F75736172742E630058
:102CF000FEE770470907090E002806DA00F00F000A
:102D000000F1E02080F8141D704700F1E02080F809
:102D1000001470477047704710B5FEF76FFBBDE8B1
:102D20001040FFF7A0B8000030B5254893B000254B
:102D3000016841F080510160006800F080501190FE
:102D40002048016841F4804101600068022400F4D9
:102D50008040119001200090000401908001CDE995
:102D60000640082008904FF4A870CDE9090404201B
:102D70000B906846FEF700FE00B1FEE70CA90F209D
:102D800081E831004FF4A0500F904FF48050109024
:102D900005210CA8FEF776FC00B1FEE7FEF796FDD4
:102DA0004FF47A71B0FBF1F0FFF749F80420FFF718
:102DB00013F800221146501EFEF7D4FB13B030BDAD
:102DC00040380240007000401048016841F4700132
:102DD00001600F48016841F0010101600C4A0021C7
:102DE0000832116002680B4B1A400260031D0A4A48
:102DF0001A60026822F48022026005480C300160EB
:102E000002495806803908607047000088ED00E0EC
:102E100000380240FFFFF6FE10300024F0B50268D3
:102E2000234B244D244E254F254C4FF0804C984287
:102E300009D0604507D0A84205D0B04203D0B842BF
:102E400001D0A04204D122F0700E4A6842EA0E027C
:102E500098421BD0604519D0A84217D0B04215D077
:102E6000B84213D0A04211D0164DA8420ED0164D34
:102E7000A8420BD0154DA84208D0154DA84205D048
:102E8000144DA84202D0144DA84203D122F440753B
:102E9000CA682A4302608A68C2620A6882629842EB
:102EA00001D0A04201D10969016301214161F0BD56
:102EB000000001400004004000080040000C0040F9
:102EC000000401400040014000440140004801402E
:102ED00000180040001C00400020004070B504466F
:102EE000214816460D46844225D0B4F1804F22D0A9
:102EF0001E4884421FD01E4884421CD01D48844274
:102F000019D01D48844216D01C48844213D01C4856
:102F1000844210D01B4884420DD01B4884420AD002
:102F20001A48844207D01A48844204D041F28821CA
:102F300018A002F004FB65B1042D0AD0082D08D0BA
:102F40000C2D06D0182D04D041F2892111A002F0D9
:102F5000F6FA0120216AA84081432162206AAE402E
:102F60003043206270BD00000000014000040040BA
:102F700000080040000C00400004014000400140F7
:102F8000004401400048014000180040001C00407F
:102F9000002000402E2E2F447269766572732F53E5
:102FA000544D3332463478785F48414C5F447269FF
:102FB0007665722F5372632F73746D333266347873
:102FC000785F68616C5F74696D2E630030B5026A6A
:102FD00022F001020262026A436884690D6824F0EB
:102FE0007304254322F002048A6822430B4CA0425A
:102FF00002D00B4CA0420BD122F00804CA6823F483
:10300000407322434C6922F004021C438B69234322
:103010004360856149684163026230BD0000014040
:10302000000401402DE9F0410446006A0D4620F0FD
:1030300010002062206A6768A1692A6821F4E641CD
:1030400041EA0228A96820F0200040EA011613484E
:10305000844202D01248844217D1E86830B108286F
:1030600004D041F205210FA002F069FAE96826F0C8
:10307000800040EA011020F04006696927F44060B2
:1030800040EA8100A96940EA81076760C4F81880B6
:103090006868A0632662BDE8F0810000000001407E
:1030A000000401402E2E2F447269766572732F53EF
:1030B000544D3332463478785F48414C5F447269EE
:1030C0007665722F5372632F73746D333266347862
:1030D000785F68616C5F74696D2E63002DE9F04163
:1030E0000446006A0D4620F480702062206A6768FA
:1030F000E16920F4007021F07302296841EA0208B6
:10310000A96840EA01261D48844202D01C48844236
:103110002BD1E86830B1082804D041F2173119A04A
:1031200002F00DFAA869B0F5007F05D020B141F298
:10313000183114A002F003FA6869B0F5807F05D059
:1031400020B141F219310FA002F0F9F9E96826F433
:10315000006040EA012020F48066696927F440504D
:1031600040EA0110A96940EA01176760C4F81C80B1
:103170006868E0632662BDE8F0810000000001405D
:10318000000401402E2E2F447269766572732F530E
:10319000544D3332463478785F48414C5F4472690D
:1031A0007665722F5372632F73746D333266347881
:1031B000785F68616C5F74696D2E63002DE9F04182
:1031C0000446006A0D4620F480502062206A66683A
:1031D000E1692A6821F4E64141EA0228A96820F45D
:1031E000005040EA01370E48844202D00D48844224
:1031F0000ED16869B0F5807F05D020B141F25D3114
:1032000009A002F09CF9696926F4804040EA811621
:103210006660C4F81C80686820642762BDE8F0819D
:1032200000000140000401402E2E2F447269766593
:1032300072732F53544D3332463478785F48414C83
:103240005F4472697665722F5372632F73746D33A6
:1032500032663478785F68616C5F74696D2E6300E4
:103260002DE9F04104464068BC49884204D340F649
:103270008511BBA002F063F9E06838B1B0F5005FDA
:1032800004D040F68611B6A002F059F9206950B179
:10329000B0F5806F07D0B0F5C06F04D040F687114D
:1032A000AFA002F04CF960694FF6F371084200D10B
:1032B00020B940F68811AAA002F041F922681069ED
:1032C00020F44051E068084310612268D06849F258
:1032D0000C6188432369A168E569194363692B433D
:1032E00019430143D1602268506920F44071A069FC
:1032F00008435061E2696425B2F5004FA748A84928
:1033000022684FF032083FD08A4201D082427CD1FD
:10331000FEF7F2FA00EBC00101EB001061688900D2
:10332000B0FBF1F6FEF7E8FA00EBC00101EB00108C
:1033300061688900B0FBF1F0B0FBF5F06FF01801A7
:10334000484306EB800108EB0110B0FBF5F000F0FC
:10335000F006FEF7D1FA00EBC00101EB0010616846
:103360008900B0FBF1F0B0FBF5F006EB0016FEF7BC
:10337000C3FA00EBC00101EB001061688900B0FBEB
:10338000F1F7FEF7B9FAD2E08A4201D082423DD18C
:10339000FEF7B2FA00EBC00101EB001061684900D2
:1033A000B0FBF1F0B0FBF5F00601FEF7A5FA00EB7B
:1033B000C00101EB001061684900B0FBF1F7FEF7B6
:1033C0009BFA00EBC00101EB001061684900B0FB03
:1033D000F1F0B0FBF5F06FF01801484307EB800106
:1033E00008EBC100B0FBF5F000F0F80006EB40067A
:1033F000FEF782FA00EBC00101EB001061684900A2
:10340000B0FBF1F7FEF778FA3CE055E0FEF764FA1E
:1034100000EBC00101EB001061684900B0FBF1F066
:10342000B0FBF5F00601FEF757FA00EBC00101EB27
:10343000001061684900B0FBF1F7FEF74DFA00EBB0
:10344000C00101EB001061684900B0FBF1F0B0FB76
:10345000F5F06FF01801484307EB800108EBC1005D
:10346000B0FBF5F000F0F80006EB4006FEF734FA8A
:1034700000EBC00101EB001061684900B0FBF1F7FF
:10348000FEF72AFA00EBC00101EB00106168490069
:10349000B0FBF1F0B0FBF5F06FF01801484307EB1B
:1034A000800108EBC100B0FBF5F000F007002168D7
:1034B00030448860BDE8F081FEF70EFA00EBC001F1
:1034C00001EB001061688900B0FBF1F6FEF704FA29
:1034D00000EBC00101EB001061688900B0FBF1F066
:1034E000B0FBF5F06FF01801484306EB800108EBE4
:1034F0000110B0FBF5F000F0F006FEF7EDF900EB7F
:10350000C00101EB001061688900B0FBF1F0B0FB75
:10351000F5F006EB0016FEF7DFF900EBC00101EB5A
:10352000001061688900B0FBF1F7FEF7D5F900EBF8
:10353000C00101EB001061688900B0FBF1F0B0FB45
:10354000F5F06FF01801484307EB800108EB01101C
:10355000B0FBF5F000F00F00A9E70000A137A000D4
:103560002E2E2F447269766572732F53544D333269
:10357000463478785F48414C5F4472697665722FB3
:103580005372632F73746D3332663478785F686179
:103590006C5F756172742E630000000000140140BE
:1035A00000100140FEE7FEE70FB4054B10B503A97C
:1035B000044A029801F02CFC10BC5DF814FB0000DA
:1035C000395900080000002003B401984100009818
:1035D00050EAC12018BF04204A0D18BF40F0010076
:1035E00040F2FF72B2EB515F08BF40F002000128C9
:1035F00008BF052002B0704710B52F499FED2C1B66
:103600002DED020B84B0059820F000408842D8BF11
:103610009DED040B2DDD2949884209D1049840B95C
:103620004FF0010001F02CFB01F0EAFA06B010BDEA
:1036300005DB9DED040B01F0CFFA06B010BD684626
:103640009DED040B00F0C8FE10F0030004BF9DEDDB
:10365000021B9DED000B0CD001280ED09DED021B2E
:103660009DED000B022817D0012001F005FA06B0ED
:1036700010BD01F0CDF806B010BD9DED021B9DED13
:10368000000B012001F0F8F951EC100B81F0004122
:1036900006B041EC100B10BD01F0BAF851EC100B64
:1036A00081F0004106B041EC100B10BD000000009D
:1036B0000000000000000000FB21E93F0000F07F57
:1036C0002DE9F04D2DED040B2DED0E8B96B0DDE9BF
:1036D0002550279CDDF890A025F0004624F00048F6
:1036E000BAF1000F14BF0121002101EB4502FC4992
:1036F00053184A1093422AD3002814BF01230023F1
:1037000003EB44030B44F7498B4220D358EA0001F2
:103710009FEDF59B76D0DFF8D8B35D4503D1BAF1C4
:10372000000F05D188E0BAF1000F08BF002100D0DA
:10373000012101EB450111F5001F08D8002814BF35
:103740000121002101EB440111F5001F0BD99DED72
:10375000261B9DED240B16B0BDEC0E8B04B0BDE80E
:10376000F04D01F043BA0027002DBCBFE149884568
:1037700021DAE1498845A8BF02271CDAC3451ADCD3
:10378000DE4901EB2851142908DDC1F1340220FA89
:1037900002F101FA02F282420DD108E058B9C1F1FA
:1037A000140228FA02F101FA02F2424503D101F0B3
:1037B0000101C1F1020756EA0A0124D1002C22DAE4
:1037C000002D18BF022F01D0012F0AD0022001F0D6
:1037D00057FA16B0BDEC0E8B04B0BDE8F04D01F009
:1037E000E3B9022001F04CFA01F0DEF951EC100BC4
:1037F00081F0004141EC100B16B0BDEC0E8B04B013
:10380000BDE8F08D18E09FEDBEAB9FEDBF8B0028AB
:1038100071D1B848804522D105F1804010F5801063
:1038200008BFBAF1000F07D0B3450ADC002CA8BFCF
:103830009DED260BE0DA0DE0B0EE490AF0EE690AE4
:10384000DAE7002C06DA9DED260B51EC100B81F027
:1038500000416FE0AE48784490ED000BCCE7D845CE
:103860004DD1002C48DA2EB186423AD1BAF1000F80
:1038700042D126E0BAF1000F13D0022001F000FA85
:1038800001F0CEF98DED020B9DED240B8DED000BBB
:1038900010EE900A039961F31E0003909DED020B58
:1038A000AAE78DED02AB9DED240B1AEE901A10EEF7
:1038B000900A8DED000B61F31E0003909DED020B4D
:1038C0009AE78DED028B9DED240B18EE901A10EE09
:1038D000900A8DED000B61F31E0003909DED020B2D
:1038E0008AE709DA9DED240B51EC190B53EC102BF0
:1038F000FCF7B0FD1EE020E09DED240B7CE7864246
:103900001BDAB4F1804F0DD0A4F10050B0F1FF509C
:1039100013D1002D11DB9DED240B51EC100B02F0A7
:10392000E1FB07E09DED240B53EC102B51EC100B49
:1039300000F0C2BC41EC100B5EE79DED240B51EC96
:10394000100B01F0CAFFBAF1000FCDE90E0142D110
:103950009FED710B46B3A6F1E040B0F17F600CD053
:103960005E4538D1002D00DAA7B3022F0CBF01202D
:103970004FF0FF30FCF7DDFDDCE7002D01DD002C12
:103980000DDA002D01DD002C1FDB002D16DA002CD6
:1039900014DB012F08BF9FED620B3FF42DAFB0EE9B
:1039A0004A0AF0EE6A0A27E7022F18BF002D0CD052
:1039B000012F0AD1002DFFF61FAF06E0002DB8BF82
:1039C000002C08DA012F3FF417AFB0EE480AF0EEF2
:1039D000680A11E71BE0012000EBE57050EA0701DF
:1039E00015D0791EB0EE498AF0EE698A084308BF07
:1039F0009FED4D8B4E480025804570DD4D494E486A
:103A0000884514DDB0420DDB002C19DB2FE00120CE
:103A100001F036F916B0BDEC0E8B04B0BDE8F04DE8
:103A200001F0EEB8B34502DC002C09DC1FE0864251
:103A300002DA002C1BDA03E05E452BDD002C16DDDC
:103A4000022001F01DF901F0EBF88DED020B53ECB3
:103A50001A2B51EC180BFCF78BFCCDE900010399F4
:103A6000019861F31E0003909DED020BC4E6022055
:103A700001F006F901F0E4F810EE901A18EE900A41
:103A80008DED020B8DED008B61F31E0003909DED1B
:103A9000020BB1E69DED0E0B53EC192B51EC100B04
:103AA000FCF760FC9FED260BCDE9080153EC102BD1
:103AB0009DED080B51EC100BFCF75AFC9FED221BFF
:103AC00053EC112BFCF751FC9DED081B53EC112B13
:103AD000FCF74EFC9FED1E1B53EC112B3CE08CE0E1
:103AE000FFFF1F00FFFF0F00000000000000F03F7D
:103AF0000000F03F0000F07F0000404301FCFFFFAA
:103B0000000000000000F07F000000000000000046
:103B1000CE2A00000000000000000000000000802D
:103B2000000000000000F0FF000000000000F0BFF7
:103B30000000E0410000F043FFFFEF3F0000000005
:103B4000000000000000D03F555555555555D53F54
:103B5000000000000000E03FFCF707FC9DED080BB3
:103B600041EC1A0B53EC102B51EC100BFCF700FC42
:103B700053EC1A2BFCF7FCFB41EC1A0B9FEDFE0BF0
:103B800053EC102B9DED080B51EC100BFCF7F0FBE8
:103B900041EC1B0B9FEDFA0B51EC1A0B53EC102B65
:103BA000FCF7E6FB41EC1A0B9FEDF70B53EC102BE7
:103BB0009DED080B51EC100BFCF7DAFB53EC1A2BC4
:103BC000FCF7D0FB41EC1A0B51EC1B0B53EC1A2BFE
:103BD000FCF727FB0690CDE906519DED060B53EC53
:103BE0001B2B51EC100BFCF7BDFB53EC1A2BFCF715
:103BF000BCFB41EC100B00F0A1B90020B6F5801F12
:103C00000EDA9FEDE30B53EC102B9DED0E0B51ECF8
:103C1000100BFCF7ADFBCDE90E016FF034000E4642
:103C200000EB2650A0F2FF37C6F31300DA4940F04C
:103C30007F6646F040568842D8BF002408DDD74949
:103C40008142C8BF012403DC0024A6F580167F1C36
:103C5000D348784400EBC4000F9690ED00CB9DED67
:103C60000E0B53EC1C2B51EC100BFCF77BFB9DED6A
:103C70000E0B41EC1B0B53EC1C2B51EC100BFCF707
:103C8000D0FA41EC100B51EC190B53EC102BFCF754
:103C9000E1FB41EC1D0B51EC1B0B53EC1D2BFCF716
:103CA00067FB41EC1A0BBF488DED10AB78441095C3
:103CB00090ED000B4FF0005040EA660000EB8440AE
:103CC0008DED080B00F5002009909DED080B53ECDD
:103CD0001C2B51EC100BFCF745FB9DED0E1B53EC20
:103CE000112BFCF742FB41EC100B53EC102B9DED1C
:103CF000100B51EC100BFCF73BFB9DED080B41EC5E
:103D00001C0B53EC102B9DED100B51EC100BFCF722
:103D10002FFB53EC1B2BFCF728FB53EC1C2BFCF765
:103D200021FB53EC1D2BFCF723FB41EC1C0B53EC4C
:103D30001A2B51EC1A0BFCF71BFB41EC1B0B9A489E
:103D40000621B0EE4B0AF0EE6B0A784400F018FE44
:103D5000B0EE401AF0EE601AB0EE41DAF0EE61DA41
:103D600053EC1B2B51EC1B0BFCF702FB53EC1D2BF4
:103D7000FCF7FEFA9DED100B41EC1B0B53EC1A2BDC
:103D800051EC100BFCF74DFA53EC1C2BFCF7F0FA3E
:103D900053EC1B2BFCF745FA9DED100B41EC1B0B74
:103DA00053EC102B51EC100BFCF7E2FA41EC1D0B1D
:103DB0009FED7FEB53EC1E2BFCF733FA53EC1B2BE0
:103DC000FCF72FFA0890CDE908519DED080B53EC54
:103DD0001E2B51EC100BFCF7C5FA53EC1D2BFCF716
:103DE000C1FA53EC1B2BFCF7C0FA9DED080B41EC1C
:103DF0001D0B53EC102B9DED100B51EC100BFCF731
:103E0000B7FA41EC1B0B53EC1A2B51EC1D0BFCF7D2
:103E1000AFFA9DED080B41EC1A0B53EC102B51EC53
:103E20001C0BFCF7A5FA53EC1A2BFCF7FAF941EC42
:103E30001A0B51EC1B0B53EC1A2BFCF7F2F90C90FC
:103E4000CDE90C519DED0C0B53EC1B2B51EC100BE1
:103E5000FCF788FA53EC1A2BFCF787FA41EC1B0BA2
:103E60009FED550B53EC102B9DED0C0B51EC100BF3
:103E7000FCF77EFA41EC1A0B9FED510B51EC1B0B3A
:103E800053EC102BFCF774FA41EC1B0B9FED4E0B1F
:103E900053EC102B9DED0C0B51EC100BFCF768FA5A
:103EA00053EC1B2BFCF7BDF941EC100B4848784450
:103EB00000EBC40090ED001B51EC100B53EC112BE8
:103EC000FCF7AFF941EC1B0B3846FCF732FBCDE9B0
:103ED000080153EC1B2B51EC1A0BFCF7A2F941EC37
:103EE000100B3C48784400EBC40090ED00CB51EC43
:103EF000100B53EC1C2BFCF794F99DED081B53ECB5
:103F0000112BFCF78EF90690CDE906519DED080BBB
:103F100053EC102B9DED060B51EC100BFCF722FA25
:103F200053EC1C2BFCF71EFA53EC1A2BFCF71AFA75
:103F300053EC1B2BFCF719FA41EC100B9DED261BE3
:103F400053EC102B8DED001B00959DED260B51ECD5
:103F5000100BFCF70DFA9DED000B41EC1A0B53EC26
:103F6000102B9DED260B51EC100BFCF7FBF99DED92
:103F7000061B53EC112B2FE0000000604715F73FA4
:103F8000FE822B654715F73F44DF5DF80BAE543ECC
:103F900000000000000040438E9803007AB60B003A
:103FA0001A260000782600005225000000000000BC
:103FB0000000000000000840000000E009C7EE3FDC
:103FC000FD033ADC09C7EE3FF5015B14E02F3EBE6E
:103FD000DE23000098230000FCF7CAF953EC1A2BEB
:103FE000FCF71FF99DED060B41EC1A0B53EC102B5F
:103FF0009DED000B51EC100BFCF7BAF9CDE90C016B
:104000009DED0C0B51EC1A0B53EC102BFCF709F93E
:10401000CDE902010C46AA498C422FDB611A084304
:1040200018D19DED0C0B53EC102B9DED020B51ECB8
:10403000100BFCF797F941EC1B0B9FEDA30B51EC18
:104040001A0B53EC102BFCF7ECF853EC1B2BFCF782
:10405000D3FA2DD2022000F013FE00F0E1FD10EEA5
:10406000901A18EE900A8DED020B8DED008B61F326
:104070001E0003909DED020BFFF7BEBB944A24F097
:104080000041914214D39349214408437FF4EFAC9B
:104090009DED0C0B53EC102B9DED020B51EC100B16
:1040A000FCF760F953EC1A2BFCF7A6FA7FF6DFACAD
:1040B00024F000408849894A002601EB20518242C1
:1040C0002BDA481C4FF4801121FA00F02044844A76
:1040D000C0F30A517A44A1F2FF3192ED000B814AFC
:1040E0008DED080BCA4020EA0202C0F3130040F431
:1040F0008010C1F1140120FA01F60992002CB8BF1A
:1041000076429DED080B53EC102B9DED0C0B51EC02
:10411000100BFCF727F9CDE90C019DED0C0B51ECD0
:104120001A0B53EC102BFCF77CF89FED6F0B0890EB
:10413000CDE9085153EC102B9DED080B51EC100B01
:10414000FCF716F941EC1B0B9FED690B53EC102BA0
:104150009DED080B51EC100BFCF70AF99DED0C0BD3
:1041600041EC1C0B53EC102B9DED080B51EC100B8C
:10417000FCF7F8F853EC1A2BFCF7F7F89FED5E1BF1
:1041800053EC112BFCF7F4F853EC1C2BFCF749F81B
:1041900041EC1A0B51EC1B0B53EC1A2BFCF741F8BA
:1041A000CDE902019DED020B53EC1B2B51EC100BE2
:1041B000FCF7D8F853EC1A2BFCF7D7F89DED020B5F
:1041C00041EC1A0B53EC102B51EC100BFCF7D0F810
:1041D000CDE908014A489DED080B0521784400F01F
:1041E000CFFB9DED081B51EC100B53EC112BFCF792
:1041F000BFF89DED021B53EC112BFCF7B6F8CDE98F
:1042000006019DED020B53EC1A2B51EC100BFCF741
:10421000AFF853EC1A2BFCF704F89FED3B0B41EC85
:104220001A0B53EC102B9DED060B51EC100BFCF709
:1042300099F89DED060B41EC1B0B53EC102B9DEDFB
:10424000020B51EC100BFCF793F853EC1B2BFCF713
:1042500001F953EC1A2BFCF785F89DED021B53EC8A
:10426000112BFCF77FF853EC192BFCF77EF8CDE906
:10427000020101EB065001150029C8BF039015DCAF
:104280009DED020B324651EC100BFCF7C4FAFFF720
:104290009BF9042808BF00F0D3FC32469DED020BC9
:1042A00051EC100BFCF7B7FACDE902019DED020BC2
:1042B00051EC180B53EC102BFCF75AF8FFF73ABBF4
:1042C0000000904000000000FE822B654715973CDF
:1042D00000CC904000346F3F01FCFFFF0000E03F46
:1042E00050220000FFFF0F0000000000432EE63FB9
:1042F000396CA80C615C20BEEF39FAFE422EE63F15
:10430000F02000000000000000000000000000405D
:1043100010B52F499FED2C1B2DED020B84B0059895
:1043200020F000408842DCBF00209DED040B32DD10
:104330002849884209D1049840B94FF0010000F0A3
:104340009FFC00F05DFC06B010BD05DB9DED040B8D
:1043500000F042FC06B010BD68469DED040B00F075
:104360003BF810F0030011D0012818D09DED021B7E
:104370009DED000B02281AD000F04AFA51EC100B08
:1043800081F0004106B041EC100B10BD9DED021B09
:104390009DED000B012000F06FFB06B010BD9DED00
:1043A000021B9DED000B00F033FA06B010BD01209A
:1043B00000F062FB51EC100B81F0004106B041ECC3
:1043C000100B10BD00000000000000000000000005
:1043D000FB21E93F0000F07F2DE9F14F04462DED70
:1043E000020B2DED088B8AB09FEDE70B80ED020BE1
:1043F000139EE74826F0004585420ADC9DED120B2E
:10440000002084ED000B0AB0BDEC088B03B0BDE8C2
:10441000F08FE0489FEDE0AB9FEDE1BBA84247DDA8
:10442000E14F9FEDE39B9FEDE48B9DED120B53EC71
:104430001A2B51EC100B002E1CDDFBF793FF41EC07
:10444000100BBD4208D053EC1B2B51EC100BFBF7AB
:1044500089FFC4E900010BE053EC192B51EC100B60
:10446000FBF780FF53EC182BFBF77CFFC4E900013E
:104470000120C8E7FBF7D5FE41EC100BBD4208D088
:1044800053EC1B2B51EC100BFBF7CBFEC4E90001E6
:104490000BE053EC192B51EC100BFBF7C2FE53EC65
:1044A000182BFBF7BEFEC4E900014FF0FF30AAE76E
:1044B000C348A84279DB9DED120B51EC100B01F0C3
:1044C0000CFA41EC180B9FEDC00B53EC102BFBF7D3
:1044D0004FFF9FEDBF1B53EC112BFBF7A2FEFCF728
:1044E0002CFA0746FCF725F841EC190B53EC1A2B74
:1044F000FBF73EFF53EC182BFBF737FF41EC180B93
:1045000053EC1B2B51EC190BFBF732FFDFF8C8A261
:1045100041EC100B4FEA15580125FA4453EC102BCF
:1045200051EC180BFBF71EFF032DC4E900013DD031
:10453000C1F30A5005EB4511A8EB00001139814287
:1045400034DA0AEB051BB0EE48AA9BED000BF0EE47
:1045500068AA53EC102B51EC190BFBF709FF41EC47
:104560001B0B51EC1A0B53EC1B2BFBF7FBFE41EC26
:10457000180B51EC1A0B53EC182BFBF7F3FE53EC12
:104580001B2BFBF7EFFE9BED020B41EC1A0B53ECE0
:10459000102B51EC190BFBF7EBFE53EC1A2BFBF72E
:1045A000E1FE41EC100B6D1CB8E70EE0002EA8BF39
:1045B0003846BFF628AF94ED000B51EC100B81F09C
:1045C0000041C4E9000178421DE7C6F3130040F43E
:1045D000801EC6F30A50A0F2F530471100F01F0507
:1045E000C5F12000DDF848B0089000200690079043
:1045F0000520EC467949002D07EB0002794408BFFD
:1046000051F8221009D051F8223001EB8201AB4061
:104610004A68089922FA01F11943A1FB0E26A1FB71
:104620000B131A449A4234BF0123002303EB0608FC
:104630000CEB8003D3E901A60E448E4234BF012166
:10464000002192448A4411B1924502D903E0924577
:1046500001D2012100E00021C3E901A641444CF848
:104660002010011EA0F10100C4DC029800F10050EE
:10467000850F0298DDE903678000DDF81480FBF701
:1046800058FF41EC1A0B3046FBF764FF9FED541BBB
:1046900053EC112BFBF76CFE41EC1B0B3846FBF780
:1046A00059FF9FED511B53EC112BFBF761FE41ECC1
:1046B000180B4046FBF74EFF9FED4D1B53EC112BA3
:1046C000FBF756FE41EC190B51EC180B53EC192B70
:1046D000FBF7A7FD53EC1B2BFBF7A3FD53EC1A2BA9
:1046E000FBF79FFDCDE90801002008909DED080B28
:1046F00053EC1A2B51EC100BFBF734FE53EC1B2B35
:10470000FBF730FE53EC182BFBF72CFE53EC192B68
:10471000FBF72BFE9FED381B53EC112BFBF728FE0C
:104720009FED370B41EC180B53EC102B9DED080B54
:1047300051EC100BFBF71CFE53EC182BFBF771FD33
:104740009FED310B41EC180B53EC102B9DED080B3A
:1047500051EC100BFBF70CFE53EC182BFBF761FD33
:1047600041EC100B139810F0004F06D06D4251EC45
:10477000100B81F0004141EC100B284684ED000B3A
:1047800041E6000000000000000000000000000002
:10479000FB21E93F7CD9024000004054FB21F93F56
:1047A0003163621A61B4D03DFB21F93F0000000083
:1047B0000000601A61B4D03D7370032E8A19A33BC8
:1047C000FB2139410000000083C8C96D305FE43F20
:1047D000000000000000E03F121E0000601D00000D
:1047E000000000000000103E000000000000103C2F
:1047F000000000000000103A182D4454FB21F93D40
:104800003326A611460B113C00000054FB21F93D54
:1048100010B52DED040B2DED088B82B0B0EE419A52
:10482000F0EE619A0B9820F000449FED4BABB4F191
:10483000795F11DA9DED0A0B51EC100BFCF77DF856
:10484000002801BFB0EE4A0AF0EE6A0A02B0BDECE1
:10485000088B04BF04B010BD9DED0A0B53EC102B68
:1048600051EC100BFBF784FD41EC180B3C48062182
:10487000B0EE480AF0EE680A784400F081F853EC94
:10488000182B51EC100BFBF773FD9DED0A0B41EC5F
:104890001B0B53EC192B51EC100BFBF769FD41EC92
:1048A000190B53EC1B2B51EC180BFBF761FD53EC70
:1048B000192BFBF757FD9FED2C0B41EC190B53EC1B
:1048C000102B51EC180BFBF753FD41EC100B284853
:1048D000844210DA53EC192B51EC100BFBF742FD1C
:1048E00053EC1A2BFBF741FD41EC100B02B0BDEC71
:1048F000088B04B010BD1F48A042BCBF9FED1E1B1B
:104900008DED001B06DBA4F5001001900020009047
:104910009DED001B51EC100B53EC112BFBF722FD0E
:104920009DED000B41EC180B53EC102B51EC1A0BC6
:10493000FBF718FD41EC1A0B53EC192B51EC180B3B
:10494000FBF710FD53EC1A2BFBF70FFD41EC100B9E
:10495000CCE7000000000000000000000000F03F75
:104960007C1A000000000000000000000000E03F92
:104970003333D33F0000E93F000000000000D23F86
:1049800070B504462DED028B4D1E00EBC500B0EE58
:10499000408AF0EE608A90ED000B35F0060017D0EB
:1049A00053EC182B51EC100BFBF7E2FC41EC100B15
:1049B0006D1E04EBC50090ED001B51EC100B53EC89
:1049C000112BFBF72EFC41EC100B35F00600E7D164
:1049D000022D36D0042D1CD0062D1CBFBDEC028B41
:1049E00070BD53EC182B51EC100BFBF7C1FC94ED90
:1049F0000A1B53EC112BFBF714FC53EC182BFBF7A1
:104A0000B7FC94ED081B53EC112BFBF70AFC41ECAF
:104A1000100B53EC182B51EC100BFBF7A9FC94ED89
:104A2000061B53EC112BFBF7FCFB53EC182BFBF78D
:104A30009FFC94ED040B53EC102BFBF7F2FB41ECC5
:104A4000100B53EC182B51EC100BFBF791FC94ED71
:104A5000021B53EC112BFBF7E4FB53EC182BFBF779
:104A600087FC94ED001B53EC112BFBF7DAFBBDEC3C
:104A7000028B41EC100B70BD31B504462DED040BDB
:104A80002DED0A8BB0EE41BAF0EE61BA0B989DEDB8
:104A90000A0B20F00040B0F1795F0DDA51EC100BF9
:104AA000FEF792FD042808BF00F0CAF89DED0A0B3E
:104AB000BDEC0A8B05B030BD53EC102B51EC100B44
:104AC000FBF756FC41EC180B9DED0A0B53EC182B31
:104AD00051EC100BFBF74CFC41EC190B2C48B0EEE1
:104AE000480AF0EE680A05217844FFF749FF9FED78
:104AF0002ACBB0EE40AAF0EE60AA9CB353EC1C2B7C
:104B000051EC190BFBF734FC41EC1C0B53EC1A2B4A
:104B100051EC190BFBF72CFC9FED210B41EC190B11
:104B200053EC102B51EC1B0BFBF722FC53EC192B15
:104B3000FBF718FC53EC182BFBF71AFC53EC1B2B60
:104B4000FBF710FC53EC1C2BFBF70CFC9DED0A1B38
:104B500053EC112BFBF709FCBDEC0A8B05B041ECC3
:104B6000100B30BDFFE753EC1A2B51EC180BFBF781
:104B7000FFFB53EC1C2BFBF754FB53EC192BFBF7FF
:104B8000F7FB9DED0A1B53EC112BFBF74AFBE3E708
:104B90000C19000000000000495555555555C5BF7A
:104BA000000000000000E03F9FED070B10B553EC44
:104BB000102B9FED070B51EC100BFBF74BFC41EC5E
:104BC000100B10BD000000000000000000000000FD
:104BD000000000000000F03F10B553EC102B51EC2A
:104BE000100BFBF71EFB41EC100B10BD10B553EC86
:104BF000112B51EC100BFBF714FB41EC100B10BD0B
:104C00009FED050B10B553EC102B51EC100BFBF77F
:104C100021FC41EC100B10BD000000000000000062
:104C20009FED050B10B553EC102B51EC100BFBF75F
:104C30009FFB41EC100B10BD000000000000007055
:104C40009FED050B10B553EC102B51EC100BFBF73F
:104C50008FFB41EC100B10BD0000000000000010A5
:104C600002E008C8121F08C1002AFAD17047704735
:104C7000002001E001C1121F002AFBD17047000093
:104C800001490860704700009C0000202DE9FF5F8B
:104C900082B00021DDE90430020DDDF840B00343AD
:104CA00018D044F61050A2F2FF3242431514119866
:104CB00001281FD0A5EB0B00401C5FEA000A4FF053
:104CC00000064E4FDFF83891B046504615D5CAF170
:104CD000000413E0119801244AA3012801D16FEACE
:104CE0000B010298119AC0E90031C0E9024206B0F6
:104CF000BDE8F09FCBF10000DFE704460021404A09
:104D0000491842EB0450CDE9001012E0E00707D04B
:104D100032463B4640464946FBF72AFB80468946D9
:104D200032463B4610461946FBF722FB06460F4625
:104D30006410002CEAD1DDE90401DDE90023BAF1B9
:104D4000000F06DAFBF714FB42464B46FBF710FB5D
:104D500005E0FBF77FFB42464B46FBF77BFB044637
:104D60000E460022284BFBF747FC03D84FF0FF30DC
:104D7000014607E00022254B20463146FBF751FA59
:104D8000FBF760FD102409E0002C0ADB0A22002357
:104D9000FBF716FA039B30321A55641E50EA0102E3
:104DA000F2D1641C039AC4F111031444119A012A2C
:104DB00003D0012208430DD10AE0084304D00020AB
:104DC0004FF0110B119072E7A3EB0B056D1E0DE078
:104DD0005B4504DD4FF0000205F1010504E003DA54
:104DE0004FF00002A5F10105002AECD002981199BC
:104DF000C0E90231C0E9004579E700000000144035
:104E00000000F03F300000000000F0430000E03FF1
:104E10002DE9FF4F95B09B468946064600250FE2D7
:104E2000252877D100242746F84A0121059400E07F
:104E3000044316F8013F203B01FA03F01042F7D17A
:104E400030782A2811D06FF02F033078A0F130028B
:104E5000092A16D8059A44F0020402EB820203EBF9
:104E600042021044761C0590EFE759F8042B059296
:104E7000002A03DA504244F40054059044F002043E
:104E8000761C30782E2816D116F8010F44F0040451
:104E90002A280DD06FF02F023078A0F13003092BB3
:104EA00009D807EB870302EB4303C718761CF3E727
:104EB00059F8047B761C30786C280FD006DC4C281F
:104EC00017D068280DD06A2814D104E0742810D0B7
:104ED0007A280FD10DE044F400140AE044F4801461
:104EE00001E044F440147278824202D104F5801447
:104EF000761C761C307866280BD013DC582877D0C7
:104F000009DC002875D04528F6D04628F4D047287B
:104F10001AD19DE118E0632835D0642879D065283E
:104F200012D195E1702873D008DC6728F1D0692888
:104F30006FD06E280DD06F2806D1B5E073282CD025
:104F4000752875D0782874D05A46179990476D1CEB
:104F500075E1C4F30250022809D003280DD0D9F816
:104F6000001004280DD00D6009F1040967E1D9F89B
:104F70000010EA17C1E90052F6E7D9F800100D80D9
:104F8000F2E70D70F0E719F8041B8DF8001000200F
:104F90008DF80100EA46012003E059F804AB4FF018
:104FA000FF3061074FF0000102D40DE008F101016C
:104FB0008846B9420FDA8045F8DB1AF80810002954
:104FC000F4D108E008F1010188468142FADB1AF8C1
:104FD00008100029F6D105985B46A0EB080721468A
:104FE0003846179A00F094FA284400EB080507E0C9
:104FF0004DE029E10DE01AF8010B5A461799904748
:10500000B8F10108F7D25B4621463846179A13E1FA
:1050100042E00A220092C4F302524FF0000A022A30
:1050200008D059F804CB032A4FEAEC710AD00DE0FE
:1050300029E02AE009F1070121F00702F2E802C1A4
:10504000914609E00FFA8CFC4FEAEC71042A03D177
:105050004FFA8CFC4FEAEC71002907DA0A4600216E
:10506000DCF1000C61EB02012D2202E0220504D5E7
:105070002B228DF80420012203E0E20701D0202238
:10508000F7E7904659E00A2102E010220DE01021D6
:105090004FF0000A00910BE010224FF0000A44F09C
:1050A00004040827009203E008224FF0000A00924F
:1050B000C4F30252022A05D059F804CB0021032A76
:1050C00008D009E009F1070121F00702F2E802C166
:1050D000914605E01FFA8CFC042A01D10CF0FF0C6C
:1050E0004FF00008220728D5702806D0009B83F0D7
:1050F000100353EA0A0305D00EE040228DF8042085
:10510000012208E05CEA010206D030228DF804207A
:105110008DF8050002229046009B83F0080353EAB5
:105120000A030AD15CEA010201D1620705D53022E7
:105130008DF804204FF001087F1E582804D034A0B9
:1051400003900EA802900DE036A0F9E753466046A2
:10515000009AFBF735F884460398825C0298401E5B
:10516000029002705CEA0100F0D1029806A9081AC8
:1051700000F1200A600702D524F4803400E0012702
:10518000574502DDA7EB0A0000E0002000EB0A0112
:10519000009005984144401A0590E00306D45B4610
:1051A0002146179A059800F0B3F90544002706E058
:1051B00001A85A46C05D179990476D1C7F1C474552
:1051C000F6DBE0030CD55B462146179A059800F004
:1051D0009FF9054404E030205A46179990476D1C0A
:1051E0000099481E00900029F5DC08E00298029919
:1051F0005A460078491C0291179990476D1CBAF1E4
:105200000001AAF1010AF1DC65E1000009280100B2
:10521000303132333435363738396162636465662C
:1052200000000000303132333435363738394142EE
:10523000434445460000000000F058F90544761C40
:10524000307800287FF4ECAD19B02846BDE8F08F27
:10525000620700D4062709F1070222F0070CFCE8D8
:105260000223E14603F000485FEA080C02D00FF287
:10527000702C0DE05FEA045C02D50FF2682C07E0A9
:105280005FEAC47C02D00FF2602C01E0AFF2700C38
:105290004FF0FF3823F00043CDF850C065280CD004
:1052A00006DC452809D046281DD047283DD13DE0E1
:1052B000662818D067287ED138E00021112F01DB45
:1052C000112000E0781CCDE9000106A90EA8FFF727
:1052D000DDFCDDE90F010E9A03910021009207F138
:1052E000010A04914DE04FF000400097CDE9011014
:1052F00006A90EA8FFF7CAFCDDE90F0203920E9B78
:1053000011990022DDF80CA00093049211B9791CC8
:1053100000EB010AB7EB0A0004D4C0F1FF3007F13B
:10532000010A0490AAEB0700019044E0012F00DA83
:1053300001270021112F01DD112000E03846CDE9C1
:10534000000106A90EA8FFF7A1FCDDE90F010E9AE6
:105350000391002104910092BA4621070CD40399CD
:10536000514500DA8A46BAF1010F05DD009AAAF12B
:105370000101515C302908D0B84202DA10F1040F63
:1053800006DA0121CDE9011015E0AAF10101E9E7F2
:10539000002805DC049901440491AAEB000102E015
:1053A000411C514500DD8A460499401A401C019079
:1053B0004FF000400290200704D40198504501DBD3
:1053C000CDF8048000208DF84F0002980DF14F07B2
:1053D000B0F1004F25D02B200E9002984FF002081C
:1053E00000280CDA404202902D200E9007E00A219E
:1053F0000298FBF735F93031029007F8011DB8F13A
:105400000001A8F10108F2DC02980028EFD1791E12
:105410000E980870307800F0200040F0450007F842
:10542000020D12A8C01B00F107081498007800B103
:10543000012000EB0A01019801EBE071059841445D
:10544000401A401E0590E00306D45B462146179A99
:10545000059800F05DF805441498007818B15A4694
:10546000179990476D1CE00324D55B462146179A97
:10547000059800F04DF805441CE00498002807DB6F
:10548000DDE90301884203DD0098405C179901E0E3
:10549000179930205A469047049805F10105401CA1
:1054A00004900198401E019004D12E205A4617996D
:1054B00090476D1CBAF10001AAF1010ADDDC05E09C
:1054C00017F8010B5A46179990476D1CB8F1000167
:1054D000A8F10108F4DC5B462146179A0598ABE673
:1054E0002D0000002B000000200000002DE9F041FD
:1054F000044600251E461746880404D405E03946B4
:105500002020B0476D1C641EF9D52846BDE8F08107
:105510002DE9F041044600251E469046C80301D5FA
:10552000302700E02027880404D505E041463846AE
:10553000B0476D1C641EF9D52846BDE8F081704760
:1055400010B504462DED028B90F900009FED0D8BF8
:1055500040B1012806D0022801D003280ED1B4F9A9
:10556000020002E0B4F902004042FAF7E2FF53EC15
:10557000182BFAF7FDFEFBF757F86060BDEC028BC5
:1055800010BD0000FCC00FFCC02FFB3F2DE9F04711
:105590006C4C00252DED088B04EBC500FFF7D0FF08
:1055A0006D1C042DF8DB94ED010AD4ED050AB6EE6E
:1055B000009A654D30EE200A20EE090A85ED050AB5
:1055C00094ED030AD4ED070A30EE200A20EE090A12
:1055D00085ED060A66886789B4F81280B4F81A90D7
:1055E0002869FAF7DDFF9FED598B53EC182BFAF77A
:1055F00018FE41EC100BFEF78BFEB0EE40AAF0EE69
:1056000060AA6869FAF7CCFF53EC1A2BFAF7B0FEE0
:1056100041EC1A0B2869FAF7C3FF53EC182BFAF781
:1056200000FE41EC100BFDF7E7FFB0EE40BA95ED40
:10563000060AF0EE60BAB1EE400A10EE100AFAF770
:10564000AFFF53EC1B2BFAF793FE53EC1A2BFAF730
:1056500089FE41EC1A0B2868FAF7A2FF53EC1A2BCB
:10566000FAF7DFFDFAF7E0FF28602869FAF798FFFC
:1056700053EC182BFAF7D5FD41EC100BFEF748FE62
:10568000B0EE40AAF0EE60AAA869FAF789FF53ECE1
:105690001A2BFAF76DFE41EC1A0B2869FAF780FF16
:1056A00053EC182BFAF7BDFD41EC100BFDF7A4FFEE
:1056B000B0EE408A95ED050AF0EE608AB1EE400A40
:1056C00010EE100AFAF76CFF53EC182BFAF750FEA5
:1056D00053EC1A2BFAF7A5FD41EC180B6868FAF7A2
:1056E0005FFF53EC182BFAF79CFDFAF79DFF6860FB
:1056F00094ED050AD4ED010A9FED161A30EE600A0A
:10570000D4ED070A30EE200AD4ED030A30EE600A29
:10571000C0EE010A95ED040A00EE890A85ED040A3F
:105720006088801B60806089C01B6081618AA1EBFA
:1057300008006082618BA1EB09006083BDEC088BDF
:10574000BDE8F087A002002040000020EA2E44546B
:10575000FB21E93F004053442DE9F047DFF8C090BA
:10576000DFF8C080DFF8D0A000262DED068B9FED7E
:105770002AAB9FED2D8B9FED2E9B00BF06EB4600C5
:105780000AEB0014002584ED02AB09EB800700BF93
:1057900057F8250000EE100A08EB8500B8EEC00AA5
:1057A000D0ED000A20EE200A10EE100AFAF7F8FEFB
:1057B00094ED021B53EC112BFAF733FD6D1C032DF6
:1057C000C4E90201E4DB94ED020B53EC182B51EC1D
:1057D000100BFAF711FF02D394ED020B05E0B0EEC7
:1057E000480AF0EE680A84ED020B53EC192B51ECD9
:1057F000100BFAF7E9FE05D2B0EE490AF0EE690A9D
:1058000084ED020B207800F061FB761C042EB5DBE2
:10581000BDEC068BBDE8F087000000000000000032
:1058200028620008C0020020000000000030A140F3
:10583000000000000030A1C0E001002070B5044667
:105840002DED068B30EE608A80ED078A90ED060A1A
:1058500018EE100A78EE408AFAF7A2FE94ED021BC9
:1058600053EC112BFAF784FD41EC190B206AFAF77F
:1058700097FE53EC192BFAF7D4FCFAF7D5FE206209
:10588000054684ED068A18EE900AFAF789FE94ED33
:10589000041B53EC112BFAF76BFD41EC190B284656
:1058A000FAF77EFE41EC1A0B18EE100AFAF778FEB2
:1058B00094ED001B53EC112BFAF75AFD53EC1A2B05
:1058C000FAF7AFFC53EC192BFAF7ABFCC4E90A0169
:1058D00041EC100BBDEC068B70BD82B0CDE9000130
:1058E00021F0004001909DED000B02B051EC100B37
:1058F0007047000010B52DED028BB0EE408AF0EE3F
:10590000608A9FED0B0B51EC180B53EC102BFAF740
:105910005BFE08D251EC180B81F0004141EC100BFA
:10592000BDEC028B10BDB0EE480AF0EE680AF7E756
:10593000000000000000000008490968C90706D0FF
:10594000064980390968CA074FF0604101D17047A4
:1059500000BF0A68002AFBD008707047800E00E084
:105960002DE9F04F2DED0E8B91B0F0EE418AB0EEA7
:10597000608AB0EE40AA914C84ED0C9BFFF706FEC6
:105980008F4D904E904895ED000A84ED000A96EDFB
:10599000000A84ED010A90ED000A84ED020A9FEDF1
:1059A0008B0A85ED000A86ED000A2AEE0A0A84EDCC
:1059B00006AA84ED078AC4ED088A08EE080ADFED1E
:1059C000840A28EEA01AF6EE000A61EE200A00EE24
:1059D000A00A10EE100AFAF7E3FD41EC100B9FED60
:1059E0007DDBB0EE4D1AF0EE6D1AFDF769FEB0EEFC
:1059F000409AF0EE609A9FED790B51EC190B53EC45
:105A0000102BFAF727FDFAF70FFE00EE100A754883
:105A100084ED090ACAEE000AC0ED000AC8EE000AC9
:105A2000C0ED010AC8EE800AC0ED020AFFF794FE3D
:105A3000FFF7ACFD9FED6CCB9FED6DEB70E000BF11
:105A4000FFF7A4FD5D4C606AFAF7AAFD41EC1B0B61
:105A50005D4800688246FAF7A3FD53EC192BFAF76C
:105A600087FC9FED651B53EC112BFAF781FC53EC7F
:105A70001B2BFAF7EFFCFAF7D7FD5A4983468860EB
:105A80006068FAF78DFD06460F462068FAF788FD34
:105A900004460D4618EE100AFAF782FDCDE906011C
:105AA0005046FAF77DFDCDE90401D8F80000FAF779
:105AB00077FDCDE90201D9F80000FAF771FDCDE9D3
:105AC00000015846FAF76CFD824646488B4640680E
:105AD000FAF766FD8046434889460068FAF760FD9C
