:020000040800F2
:10000000280600209D01000883260008A52200087C
:1000100081260008F9030008992F0008000000005D
:10002000000000000000000000000000A7260008FB
:10003000FB03000800000000A5260008A926000810
:10004000B7010008B7010008B7010008B7010008B0
:10005000B7010008B7010008B70100081304000841
:10006000B7010008B7010008B7010008B701000890
:10007000B7010008B7010008B7010008B701000880
:10008000B7010008B7010008B7010008B701000870
:10009000B7010008B7010008B701000819040008FB
:1000A000B7010008B7010008B7010008B701000850
:1000B000B7010008B7010008B7010008B701000840
:1000C000B7010008B7010008B7010008B701000830
:1000D000B7010008B7010008B7010008B701000820
:1000E000FD030008B7010008B7010008B7010008C8
:1000F000B7010008B7010008B7010008B701000800
:10010000B7010008B7010008B7010008B7010008EF
:10011000B7010008B7010008B7010008B7010008DF
:10012000B7010008B7010008B7010008B7010008CF
:10013000B7010008B7010008B7010008B7010008BF
:10014000B7010008B7010008B7010008B7010008AF
:10015000B7010008B7010008B7010008B70100089F
:10016000B7010008B7010008B7010008B70100088F
:10017000B7010008B7010008B7010008000000003F
:10018000B7010008B7010008DFF80CD000F068F8EC
:1001900000480047F5300008280600200648804740
:1001A00006480047FEE7FEE7FEE7FEE7FEE7FEE75C
:1001B000FEE7FEE7FEE7FEE7592700088901000891
:1001C0002DE9F05F0546002092469B46884606468C
:1001D000814640241BE0284641464746224600F01F
:1001E0002FF853465A46C01A914110D3114618466B
:1001F000224600F016F82D1A67EB01084F462246FA
:100200000120002100F00DF817EB00094E41201EDF
:10021000A4F10104DFDC484631462A464346BDE8E6
:10022000F09F202A04DB203A00FA02F100207047F8
:100230009140C2F1200320FA03F319439040704724
:10024000202A04DB203A21FA02F00021704721FA2B
:1002500002F3D040C2F12002914008431946704792
:10026000064C074D06E0E06840F0010394E8070003
:1002700098471034AC42F6D3FFF78AFF9434000855
:10028000B434000810B504464A48416821F44031AE
:10029000416041686268114341602068416821F40F
:1002A0008071416020684168226941EA0221416011
:1002B0002068416821F04071416020684168A2686F
:1002C000114341602068816821F4006181602068E9
:1002D0008168E26811438160A06A6FF07061C84272
:1002E0002068816821F070618160206881680CD08D
:1002F000A26A114381602068816821F040518160C9
:1003000020688168E26A114301E021F04051816078
:100310002068816821F00201816020688168A269FB
:1003200041EA42018160206A00283ED0606A401E96
:10033000072804D940F227611FA002F0B9FE206807
:10034000416841F4006141602068416821F46041E6
:10035000416020684168264B626A03EB42321143D8
:1003600041602068C16A21F47001C1622068C16ADD
:10037000A28B204B03EB02521143C16220688168BB
:1003800021F40071816020688168226B41EA42217A
:1003900081602068816821F48061816020688168C3
:1003A000626941EA8221816010BD2068416821F4C0
:1003B0000061D5E7002301402E2E2F447269766537
:1003C00072732F53544D3332463478785F48414C22
:1003D0005F4472697665722F5372632F73746D3345
:1003E00032663478785F68616C5F6164632E6300A5
:1003F00000E0FFFF0000F0FFFEE7704710B54FF48C
:10040000006000F06DFABDE810404FF4005000F0BD
:1004100067BA022000F064BA802000F061BA0000E0
:10042000F8B500260546009608680C46122804D93F
:1004300040F215515DA002F03BFE6068401E0F289F
:1004400004D940F2165159A002F032FEA06890B1D2
:10045000012810D002280ED003280CD004280AD07E
:10046000052808D0062806D0072804D040F21751E6
:100470004EA002F01DFE95F83C00012819D0012085
:1004800085F83C00206807212A68092813D9D36819
:100490000A3800EB400081408B43D3602178A0688C
:1004A0000A3901EB410188402968CA681043C860D5
:1004B00010E00220F8BD136900EB400081408B433F
:1004C00013612178A06801EB4101884029680A691D
:1004D0001043086160681F21072813D22A68536BF4
:1004E000401E00EB800081408B43536321792088BC
:1004F000491E80B201EB8101884029684A6B104394
:10050000486327E02A680D2812D2136BC01F00EB46
:10051000800081408B43136321792088C91F80B2FA
:1005200001EB8101884029680A6B1043086311E0E0
:10053000D36A0D3800EB800081408B43D362217970
:1005400020880D3980B201EB810188402968CA6A90
:100550001043C86224492A6822488A4206D1226888
:10056000122A03D1426842F4800242602A688A4219
:1005700018D12168102901D0112913D1416841F403
:1005800000014160206810280CD118481849006803
:10059000B0FBF1F000EB8000400000E0401E009056
:1005A0000028FBD185F83C600020F8BD2E2E2F449A
:1005B0007269766572732F53544D333246347878AE
:1005C0005F48414C5F4472697665722F5372632FA6
:1005D00073746D3332663478785F68616C5F616420
:1005E000632E630000230140002001401000002022
:1005F00040420F002DE9F04704004FF000057DD088
:100600007149206888420AD07049884207D07049F1
:10061000884204D040F20B116EA002F049FD6068E0
:1006200068B1B0F5803F0AD0B0F5003F07D0B0F513
:10063000403F04D04FF4867166A002F039FDA068F7
:100640004FF080774FF000784FF0407950B1B842CA
:1006500008D0404506D0484504D040F20D115DA0B9
:1006600002F026FD206930B1012804D04FF48771D3
:1006700058A002F01DFDA06930B1012804D040F25D
:100680000F1154A002F014FD604EA06A80B3B8426E
:100690002ED040452CD048452AD0B0F1806F27D0CD
:1006A000B0F1A06F24D0B0F1C06F21D0B0F1E06FF5
:1006B0001ED0B0F1006F1BD0B0F1106F18D0B0F1A8
:1006C000206F15D0B0F1306F12D0B0F1406F0FD065
:1006D000B0F1506F0CD0B0F1606F09D0B0F1706F15
:1006E00006D0B04204D04FF488713AA002F0E0FC8A
:1006F000E06848B1B0F5006F06D000E041E040F29C
:10070000111134A002F0D4FCE069401E0F2804D976
:100710004FF489712FA002F0CBFC206B30B101287F
:1007200004D040F213112BA002F0C2FC6069012832
:1007300007D030B1022804D04FF48A7125A002F00E
:10074000B7FC206A30B1012804D040F2151121A075
:1007500002F0AEFCA06AB0420FD0E06A68B1B0F11E
:10076000805F0AD0B0F1005F07D0B0F1405F04D0E5
:1007700040F2191117A002F09BFC206C002618B162
:1007800008E00120BDE8F087666484F83C602046FC
:1007900000F03EF8206CC00610D4206C20F4885085
:1007A00040F0020020642046FFF76CFD6664206C78
:1007B00020F0020040F00100206400E0012584F8F0
:1007C0003C602846DEE70000002001400021014097
:1007D000002201402E2E2F447269766572732F53CA
:1007E000544D3332463478785F48414C5F447269E7
:1007F0007665722F5372632F73746D33326634785B
:10080000785F68616C5F6164632E63000100000FB4
:1008100000B500680C4987B0884212D10B4800210E
:10082000026842F480720260006800F480700590F3
:10083000102000900320CDE901016946044800F032
:100840005BF807B000BD00000020014044380240C2
:100850000008024010B501461D481E4C022910D068
:10086000802919D0B1F5006F21D0B1F5005F12D108
:100870008114194800F0C6F90028E08C24D0401CEF
:1008800023E0012100F0BEF90028608801D0401C5F
:1008900000E0401E608010BD402100F0B3F9002848
:1008A000E08901D0401C00E0401EE08110BD4FF403
:1008B00000710A4800F0A6F90028608B01D0401CA6
:1008C00000E0401E608310BD401EE08410BD0000AB
:1008D00000000240F4010020000C02400010024021
:1008E000044910B50A68024202D00860FFF7B2FF5F
:1008F00010BD0000143C01402DE9F84F0446A0480B
:100900000D4684421BD09F48844218D09E488442A2
:1009100015D09E48844212D09D4884420FD09D48F5
:1009200084420CD09C48844209D09C48844206D022
:100930009B48844203D0C3219AA002F0B9FB2868E7
:100940000104090C01D0000C03D0C42195A002F0D1
:10095000AFFB6868F8B101281DD011281BD0022810
:1009600019D0122817D09E49884214D09D49884238
:1009700011D09D4988420ED09C4988420BD09C4999
:10098000884208D09B49884205D0032803D0C5215E
:1009900084A002F08DFBA86838B1012805D0022898
:1009A00003D0C6217FA002F083FB00264FF0010B8D
:1009B0000BFA06F02F688246074057457ED16868DB
:1009C000022801D012282ED12869F8B109281DD09B
:1009D00001281BD0022819D0032817D0042815D0CD
:1009E000052813D0062811D007280FD008280DD0CD
:1009F0000A280BD00B2809D00C2807D00D2805D0C9
:100A00000F2803D0D72167A002F052FBF00804EBB7
:100A10008002106A7107CB0E0F2199408843296923
:100A200099400143116220687200032101FA02F823
:100A30002979914601F0030120EA080001FA09F141
:100A4000014321606868012805D0022803D01128DD
:100A500001D012281CD1E86848B1012807D002282B
:100A600005D0032803D0EA214EA002F021FBA068A4
:100A7000E96820EA080001FA09F10143A160606811
:100A8000297920EA0A00C1F30011B14001436160F5
:100A9000E068A96820EA080001FA09F10143E16071
:100AA0006868C00065D55448016841F48041016020
:100AB000006826F0030100F4804000E059E0009057
:100AC0004E480A18D2F80808B1070B0F0F219940B9
:100AD00088432B498C4201D1002123E029498C42D3
:100AE00001D101211EE028498C4201D1022119E0E7
:100AF00026498C4201D1032114E025498C4201D1C1
:100B000004210FE023498C4201D105210AE022494A
:100B10008C4201D1062105E020498C4201D10721F8
:100B200000E0082199400143C2F8081834490868D8
:100B30006A68B843D20300D5384308603049091DBC
:100B400008686A68B843920300D5384308602C49A6
:100B5000083108686A68B843D20200D53843086093
:100B600027490C3108686A68B843920200D53843B7
:100B70000860761C102EFFF41BAFBDE8F88F000054
:100B8000000002400004024000080240000C024045
:100B9000001002400014024000180240001C0240F5
:100BA000002002402E2E2F447269766572732F53F7
:100BB000544D3332463478785F48414C5F44726913
:100BC0007665722F5372632F73746D333266347887
:100BD000785F68616C5F6770696F2E63000000006A
:100BE0000000111000002110000031100000121050
:100BF0000000221000003210443802400030014052
:100C0000003C014070B50C00054604D14FF4C7719B
:100C100003A002F04DFA2869204000D0012070BDE9
:100C20002E2E2F447269766572732F53544D3332D2
:100C3000463478785F48414C5F4472697665722F1C
:100C40005372632F73746D3332663478785F6861E2
:100C50006C5F6770696F2E630000000070B5154609
:100C60000C00064604D140F2AF1108A002F020FAB1
:100C700045B1012D04D04FF4D87104A002F018FA48
:100C8000B46170BD2004B06170BD00002E2E2F44F1
:100C90007269766572732F53544D333246347878C7
:100CA0005F48414C5F4472697665722F5372632FBF
:100CB00073746D3332663478785F68616C5F677027
:100CC000696F2E63000000000148806870470000D3
:100CD0000400002002488168027811448160704756
:100CE000040000200B4810B5016841F40071016058
:100CF000016841F480610160016841F48071016024
:100D0000032000F0EBF8002000F006F800F024F8D3
:100D1000002010BD003C024070B50D4D04464FF45C
:100D20007A712878B1FBF0F00A490968B1FBF0F05C
:100D300000F0F1FC48B9102C07D200222146501EC9
:100D400000F07CF800206C6070BD012070BD0000D8
:100D500004000020100000201F4808B5016841F47D
:100D600080410160006800F4804000901A48001F34
:100D7000016841F080510160006800F080500090EF
:100D8000032000F0ABF8002211466FF00B0000F0DA
:100D900055F8002211466FF00A0000F04FF80022CB
:100DA00011466FF0090000F049F800221146501F6B
:100DB00000F044F800221146101F00F03FF8002216
:100DC0001146901E00F03AF80022BDE80840114696
:100DD000501E00F033B800004438024010B5040043
:100DE00003D5CE2106A002F063F904F01F01012013
:100DF00088406109890001F1E021C1F8000110BDBE
:100E00002E2E2F447269766572732F53544D3332F0
:100E1000463478785F48414C5F4472697665722F3A
:100E20005372632F73746D3332663478785F686100
:100E30006C5F636F727465782E63000070B5154641
:100E40000C460646102A03D3BA2114A002F030F94A
:100E5000102C03D3BB2111A002F02AF91E48006810
:100E6000C0F30223C3F107022046042A00D904225A
:100E7000191D072901D2002300E0DB1E012404FA1A
:100E800002F1491E014099409C40641E2C402143C0
:100E90003046BDE8704001F0F5BB00002E2E2F4417
:100EA0007269766572732F53544D333246347878B5
:100EB0005F48414C5F4472697665722F5372632FAD
:100EC00073746D3332663478785F68616C5F636F1A
:100ED000727465782E6300000CED00E010B50446D6
:100EE00007280BD0062C09D0052C07D0042C05D0E0
:100EF000032C03D0A22108A002F0DAF8154904F06F
:100F0000070208684FF6FF03184040EA0220124A21
:100F10001043086010BD00002E2E2F4472697665C4
:100F200072732F53544D3332463478785F48414CB6
:100F30005F4472697665722F5372632F73746D33D9
:100F400032663478785F68616C5F636F727465785D
:100F50002E6300000CED00E00000FA052DE9F047DB
:100F60000E4604007DD02068401E0E2804D94FF4A0
:100F700014717AA002F09CF896B1012E10D0022EC6
:100F80000ED0032E0CD0042E0AD0052E08D0062E2B
:100F900006D0072E04D040F2512170A002F088F84C
:100FA000DFF8F081D8F80000F7B200F00F00B0428F
:100FB00007D288F80070D8F8000000F00F00B042A7
:100FC0004FD12068744D810729D5400703D5286883
:100FD00040F4E05028602078000703D5286840F4EA
:100FE00060402860A068A0B1802812D0902810D05E
:100FF000A0280ED0B0280CD0C0280AD0D02808D005
:10100000E02806D0F02804D04FF41D7153A002F060
:101010004FF82868A16820F0F00008432860207885
:10102000C00743D0DFF870916068A9F1080988B162
:10103000012822D0022824D0032822D040F27B218C
:1010400046A002F035F86068012816D0022818D0B2
:10105000032816D0D9F800008007002833DA286862
:1010600000E030E0616820F0030008432860FFF7EB
:101070002BFE814641F2883A11E0D9F80000800346
:10108000EBE7D9F800008001E7E700BFFFF71CFE9F
:10109000A0EB0901514502D90320BDE8F08728687B
:1010A000616800F00C00B0EB810FEFD1D8F80010B0
:1010B000404601F00F01B14207D90770006800F007
:1010C0000F00B04201D00120E7E720784FF48056AE
:1010D00040074FF4A0574FF4C0584FF4E05914D5CF
:1010E000E06860B1B0420AD0B84208D0404506D0AE
:1010F000484504D040F2B92118A001F0D9FF286872
:10110000E16820F4E050084328602078000715D5F6
:10111000206960B1B0420AD0B84208D0404506D03C
:10112000484504D04FF430710CA001F0C1FF28688D
:10113000216920F4604040EAC100286000F058F8BE
:101140002968164AC1F30311515CC840144908606C
:101150000020FFF7E1FD00209FE700002E2E2F4426
:101160007269766572732F53544D333246347878F2
:101170005F48414C5F4472697665722F5372632FEA
:1011800073746D3332663478785F68616C5F726354
:10119000632E6300003C0240083802407C340008A3
:1011A0001000002001480068704700001000002077
:1011B0000448054900680968044AC1F38221515C6A
:1011C000C840704710000020083802408C340008E6
:1011D0000448054900680968044AC1F34231515C7A
:1011E000C840704710000020083802408C340008C6
:1011F000154810B5006810F00C02144813D04110C7
:10120000042A0FD0082A0ED10F4C241F226823680D
:1012100002F03F025B0207D52068C0F38810A0FBF4
:10122000010106E0084610BD2168C1F38811A1FB49
:1012300000010023FEF7C4FF2168C1F30141491CEE
:101240004900B0FBF1F010BD083802400024F40062
:101250002DE9F84F04007DD020680F2803D9F8212C
:10126000F2A001F025FF2078DFF8F8B3FE4DC007AB
:1012700056D060684FF480364FF4A02738B1B042A2
:1012800005D0B84203D0FD21E8A001F011FFDBF842
:1012900000105846C1F38101012909D00068C0F34C
:1012A000810002280BD1EF48001F0068400206D5DC
:1012B0002868800334D560680028CCD030E06068AE
:1012C000B04203D1286840F480300CE0B84228686E
:1012D00003D140F480202860F4E720F480302860B7
:1012E000286820F480202860606860B1FFF7ECFC7B
:1012F000064604E0FFF7E8FC801B64287ED82868D7
:101300008003F7D50CE0FFF7DFFC064605E000BFE1
:10131000FFF7DAFC801B6428F0D828688003F7D434
:101320002078DFF8488380074FF0000956D5E06841
:1013300030B1012804D040F22F11BCA001F0B8FE5A
:1013400020691F2804D94FF49871B8A001F0B0FEAD
:10135000584600E092E0DBF8001011F00C0F09D0C5
:101360000068C0F38100022811D1BE48001F006848
:1013700040020CD42868800702D5E06801287DD19E
:101380002868216920F0F80040EAC10016E0E06812
:10139000B0B10120C8F80000FFF796FC064604E053
:1013A000FFF792FC801B0228A8D828688007F7D591
:1013B000286820F0F801206941EAC00028600DE0AB
:1013C000C8F80090FFF780FC064604E0FFF77CFCBD
:1013D000801B022892D828688007F7D4207800075D
:1013E0002ED5A04EA24F60696C36D0B1012808D02E
:1013F0004FF4B8718DA001F05BFE00E04DE1606933
:1014000078B101203860FFF75FFC074605E000BFB8
:10141000FFF75AFCC01B0228C6D830688007F7D5F2
:101420000EE0C7F80090FFF74FFC074605E000BF4D
:10143000FFF74AFCC01B0228B6D830688007F7D4F3
:101440002078400776D5A068002740B1012806D053
:10145000052804D04FF4CE7174A001F029FEDFF806
:1014600004A20AF1380ADAF80000C0000DD4DAF854
:10147000001041F08051CAF8001000E0D4E0DAF822
:101480000000012700F0805000907A4E3068C005BF
:1014900011D4306840F480703060FFF715FC009084
:1014A00006E000BFFFF710FC0099401A022891D80F
:1014B0003068C005F6D56B4EA068683601280FD09D
:1014C0000528306810D020F001003060306820F02E
:1014D00004003060A068B8B1FFF7F6FB00900FE0A1
:1014E000306840F00100F4E740F004003060F7E7B6
:1014F000FFF7EAFB0099411A41F2883081428BD80C
:1015000030688007F4D50EE0FFF7DEFB009007E0BF
:10151000FFF7DAFB0099411A41F2883081428BD8FB
:1015200030688007F4D42FB1DAF8001021F0805130
:10153000CAF80010A069002875D0012809D0022837
:1015400007D040F2DF1139A001F0B2FDA0690028F8
:10155000F2D0DBF80000C0F38100022864D0A0695B
:10156000022805D0C8F86090FFF7AEFB044697E06C
:10157000E06938B1B0F5800F04D04FF4F4712BA0BE
:1015800001F096FD206A3F2804D940F2E91127A016
:1015900001F08EFD606A3238B0F5BF7F04D94FF498
:1015A000F57122A001F084FDA06A02280AD0042867
:1015B00008D0062806D0082804D040F2EB111BA062
:1015C00001F076FDE06A801E0D2804D94FF4F67113
:1015D00016A001F06DFD4746C8F86090FFF774FB58
:1015E000064604E0FFF770FB801B022855D82868E8
:1015F0008001F7D4D4E907010843A16A1E4A4908CB
:1016000002EB0141626A41EA8211084394F82C100E
:1016100040EA01611348001F016001203866FFF7AE
:1016200053FB04462FE03EE03FE000002E2E2F4407
:101630007269766572732F53544D3332463478781D
:101640005F48414C5F4472697665722F5372632F15
:1016500073746D3332663478785F68616C5F72637F
:10166000632E630008380240003802400000474201
:10167000800E4742007000400000FFFFFFF724FB90
:10168000001B022809D828688001F7D50BE000BFAD
:10169000FFF71AFB001B022802D90320BDE8F88FD0
:1016A00028688001F4D40020F8E70120F6E7000064
:1016B00010B54FF0E024042809D020B140F2D91130
:1016C00005A001F0F5FC206920F0040002E020698B
:1016D00040F00400206110BD2E2E2F447269766503
:1016E00072732F53544D3332463478785F48414CEF
:1016F0005F4472697665722F5372632F73746D3312
:1017000032663478785F68616C5F636F7274657895
:101710002E630000704710B5401EB0F1807F01D3EA
:10172000012010BD4FF0E02460610F21601700F030
:10173000A9FF0020A06107202061002010BD10B586
:10174000FFF7E8FF10BD000070B50C4605460068C5
:101750004049884207D04049884204D040F2726133
:101760003EA001F0A5FC2068B0F5006F05D020B1C7
:1017700040F2736139A001F09BFC6068B0F5806FA6
:1017800005D020B140F2746134A001F091FCA06852
:1017900068B1B0F5807F0AD0B0F5007F07D0B0F512
:1017A000407F04D040F275612CA001F081FCE0681C
:1017B000FF2804D940F2766128A001F079FC206965
:1017C000B0F5805F05D020B140F2776123A001F031
:1017D0006FFC606938B1B0F5005F04D04FF4CF61A1
:1017E0001EA001F065FCA069B0F5804F05D020B1C6
:1017F00040F2796119A001F05BFC95F838000128EE
:1018000025D0012085F83800E068A26820F44070F7
:101810001043626820F480601043226820F4006066
:101820001043226920F480501043626920F4005074
:101830001043A26920F480401043002120F40040AE
:1018400010432A68506485F83810002070BD0220CB
:1018500070BD000000000140000401402E2E2F4406
:101860007269766572732F53544D333246347878EB
:101870005F48414C5F4472697665722F5372632FE3
:1018800073746D3332663478785F68616C5F746945
:101890006D5F65782E63000070B50D4604460068E4
:1018A0003049884219D0B0F1804F16D02E49884275
:1018B00013D02E49884210D02D4988420DD02D4991
:1018C00088420AD02C49884207D02C49884204D04B
:1018D00040F24A612AA001F0EBFB286890B1102881
:1018E00010D020280ED030280CD040280AD0502804
:1018F00008D0602806D0702804D040F24B6120A0A8
:1019000001F0D6FB6868802805D020B140F24C6118
:101910001BA001F0CDFB94F8380001281FD0012056
:1019200084F83800022184F8391021684A6822F0CE
:1019300070024A6021684A682B681A434A6021682D
:101940008A6822F080028A6021688A686B681A437C
:101950008A6084F83900002084F8380070BD0220C5
:1019600070BD00000000014000040040000800407D
:10197000000C004000100040001400400004014032
:101980002E2E2F447269766572732F53544D333265
:10199000463478785F48414C5F4472697665722FAF
:1019A0005372632F73746D3332663478785F686175
:1019B0006C5F74696D5F65782E63000010B5044636
:1019C00001681E4881422BD0B1F1804F28D01C48BD
:1019D000814225D01B48814222D01B4881421FD022
:1019E0001A4881421CD01A48814219D019488142B4
:1019F00016D01948814213D01848814210D0184897
:101A000081420DD0174881420AD01748814207D041
:101A10001648814204D04FF4997115A001F048FB9B
:101A2000022084F839002068016841F0010101605A
:101A3000012084F83900002010BD000000000140A2
:101A40000004004000080040000C0040001000406E
:101A500000140040000401400040014000440140E7
:101A60000048014000180040001C004000200040D9
:101A70002E2E2F447269766572732F53544D333274
:101A8000463478785F48414C5F4472697665722FBE
:101A90005372632F73746D3332663478785F686184
:101AA0006C5F74696D2E630000B50068094985B0EC
:101AB00088420DD14FF470700090022001900020F8
:101AC000029003900320049069460348FEF714FF38
:101AD00005B000BD00040140000802402DE9F05FA0
:101AE000044690F8380092460D4601284ED04FF03B
:101AF000010B84F838B0BAF1000F10D0BAF1040F1E
:101B00000DD0BAF1080F0AD0BAF10C0F07D0BAF114
:101B1000180F04D040F6484176A001F0C9FA2868B1
:101B2000602806D0702804D040F6494171A001F029
:101B3000BFFAA86830B1022804D040F64A416DA02F
:101B400001F0B6FA286930B1042804D040F64B41C0
:101B500068A001F0ADFA022084F839007349744B93
:101B6000744E754FDFF8D4C1DFF8D491754A4FF049
:101B70008048BAF1000F0CD0BAF1040F3ED0BAF190
:101B8000080F66D0BAF10C0F62D187E00220BDE8E1
:101B9000F09F206888421ED040451CD098421AD041
:101BA000B04218D0B84216D0604514D0484512D083
:101BB000654988420FD0654988420CD090420AD0CE
:101BC0006349884207D06349884204D040F65341B4
:101BD00048A001F06DFA2946206800F0BFFE206899
:101BE000816941F0080181612068816921F0040167
:101BF0008161206881692A69114328E02068884250
:101C000012D0404510D098420ED0B0420CD0B8420D
:101C10000AD0604508D0484506D0904204D040F62E
:101C2000624134A001F044FA2946206800F0C2FE67
:101C30002068816941F4006181612068816921F433
:101C400080618161206881692A6941EA022181619C
:101C50004AE0206888420ED040450CD098420AD015
:101C6000B04208D0B84206D0604504D040F6714179
:101C700020A001F01DFA2946206800F0F7FE206838
:101C8000C16941F00801C1612068C16921F0040106
:101C9000C1612068C1692A69114324E02068884233
:101CA0000ED040450CD098420AD0B04208D0B8427D
:101CB00006D0604504D04FF448610EA001F0F8F959
:101CC0002946206800F042FF2068C16941F40061A4
:101CD000C1612068C16921F48061C1612068C16966
:101CE0002A6941EA0221C16184F839B0002084F8F0
:101CF00038004CE72E2E2F447269766572732F538D
:101D0000544D3332463478785F48414C5F447269B1
:101D10007665722F5372632F73746D333266347825
:101D2000785F68616C5F74696D2E6300000001402C
:101D30000004004000080040000C00400004014086
:101D400000400140001800400044014000480140AC
:101D5000001C00400020004010B504004FD0324865
:101D6000226882422BD0B2F1804F28D02F48824285
:101D700025D02F48824222D02E4882421FD02E48A2
:101D800082421CD02D48824219D02D48824216D062
:101D90002C48824213D02C48824210D02B488242D9
:101DA0000DD02B4882420AD02A48824207D02A48C6
:101DB000824204D040F2F13128A001F079F9A06804
:101DC00060B110280AD0202808D0402806D060280A
:101DD00004D040F2F23121A001F06AF9206950B13B
:101DE000B0F5807F07D0B0F5007F04D040F2F3312A
:101DF0001AA001F05DF994F8390010B107E0012054
:101E000010BD002084F83800204600F043F802207E
:101E100084F83900211D206800F0C8FC012084F8F6
:101E20003900002010BD0000000001400004004007
:101E300000080040000C004000100040001400406A
:101E400000040140004001400044014000480140BE
:101E500000180040001C0040002000402E2E2F449F
:101E60007269766572732F53544D333246347878E5
:101E70005F48414C5F4472697665722F5372632FDD
:101E800073746D3332663478785F68616C5F74693F
:101E90006D2E630008B500680B49884212D10B48CB
:101EA000016841F0020101600068002200F00200B8
:101EB000009011462D20FEF7C1FFBDE808402D20FF
:101EC000FEF78CBF08BD000000040140443802400A
:101ED0002DE9F041054600683C4E3D4F0C46B042AE
:101EE00007D1002C53D0042C51D0082C4FD00C2CEF
:101EF0004DD0B0F1804F60D03649884207D1002CD8
:101F000045D0042C43D0082C41D00C2C3FD0324972
:101F1000884206D1BCB3042C39D0082C37D00C2C05
:101F200035D02E49884206D16CB3042C2FD0082C12
:101F30002DD00C2C2BD0B84206D124B3042C26D0A3
:101F4000082C24D00C2C22D02549884202D1D4B1AF
:101F5000042C1CD02349884200D1A4B122498842D4
:101F600000D184B12149884202D164B1042C0ED041
:101F70001F49884200D134B11E49884200D114B1B2
:101F800040F2524100E002E01BA001F091F8012272
:101F90002146286800F06AFC2868B04201D0B842A7
:101FA00003D1416C41F4004141642868016841F06B
:101FB000010101600020BDE8F081002CE7D0042C75
:101FC000E5D0082CE3D00C2CE1D0D9E7000001408B
:101FD000000401400004004000080040000C0040E4
:101FE000004001400044014000480140001800400A
:101FF000001C0040002000402E2E2F4472697665A0
:1020000072732F53544D3332463478785F48414CC5
:102010005F4472697665722F5372632F73746D33E8
:1020200032663478785F68616C5F74696D2E630026
:1020300070B5040022D0A0693A4E00283A493B4AC4
:102040003B4B20681CD08D15B0420BD0884209D084
:10205000904207D0984205D0294636A001F028F8D2
:10206000A06900B3A069A8421DD0B0F5007F1AD0C6
:10207000B0F5407F17D040F2011111E0012070BD92
:10208000B04210D088420ED090420CD038498842DD
:1020900009D03849884206D0984204D040F2051150
:1020A00024A001F005F8A06838B1B0F5805F04D035
:1020B00040F207111FA000F0FBFFE06938B1B0F556
:1020C000004F04D04FF484711AA000F0F1FF94F88F
:1020D0003900002520B984F83850204600F04CF82B
:1020E000242084F839002068C16821F40051C160BF
:1020F000204600F07DFD2068016921F490410161D6
:102100002068416921F02A0141612068C16841F4D9
:102110000051C160E563202084F8390084F83A005A
:10212000002070BD00100140004400400048004005
:10213000001401402E2E2F447269766572732F535E
:10214000544D3332463478785F48414C5F4472696D
:102150007665722F5372632F73746D3332663478E1
:10216000785F68616C5F756172742E6300000000B7
:10217000004C00400050004030B50068164D022170
:1021800001220323072487B0A8420ED11348056813
:1021900045F010050560006800F010000590580239
:1021A0008DE81F0069460E4812E00E4DA84211D17D
:1021B0000A48001F056845F480250560006800F4A2
:1021C000802005904FF440608DE81F006946064866
:1021D000FEF792FB07B030BD0010014044380240CA
:1021E0000000024000480040000402402DE9F8438E
:1021F000044690F83A00994616460D4620284FD1DD
:1022000095B18EB194F83800012849D0012084F8A6
:1022100038000027E763222084F83A00FEF754FDD7
:10222000A6858046E68531E00120BDE8F883E08D93
:10223000401EE085A0684346B0F5805F4FF0000285
:102240004FF020012046CDF8009004D000F072FE3F
:1022500098B10320E9E700F06DFE0028F9D120696C
:1022600000282068406803D0C1B225F8011B0DE0AA
:10227000C0F3080125F8021B08E020690028206847
:10228000406801D000F07F0005F8010BE08D0028C8
:10229000CDD1202084F83A0084F838700020C4E7BB
:1022A0000220C2E7FEE700007FB51548134900246D
:1022B00001604FF48031C0E9011404618461114967
:1022C0000462C0E90A140125C460C5614561046364
:1022D000FEF790F918B148210BA000F05EFE0E2029
:1022E000CDE90005694602940548FEF799F80028F3
:1022F00003D0522104A000F050FE7FBD0020014019
:10230000140000200100000F2E2E2F436F72652F46
:102310005372632F6164632E630000002DE9F04F58
:102320006C4887B00024016841F010010160016829
:1023300001F010010591016841F00401016001689C
:1023400001F004010591016841F08001016001681C
:1023500001F080010591016841F00101016001680F
:1023600001F001010591016841F00201016001687D
:1023700001F002010591016841F008010160006867
:10238000DFF854A100F008004CF2AA0805900022E2
:1023900041465046FEF762FCDFF840B14FF4A059C9
:1023A000002249465846FEF759FC002201214C48BC
:1023B000FEF754FC4FF2FE500325CDE900056946B7
:1023C00002944748FEF798FA4EF62F00CDE9000533
:1023D000694602945846FEF78FFA412001268DE89F
:1023E000510069463F48FEF787FA3F4F8220CDE90A
:1023F0000007694602943B48FEF77EFA49F63C1016
:10240000CDE90005694602943648FEF775FA4FF2A9
:10241000F730CDE90005694602943448FEF76CFABE
:1024200070028DE8510069462D48FEF765FAF0020A
:10243000CDE90007694602942948FEF75DFA40F6A7
:102440005570CDE90005694602945046FEF754FAEE
:1024500030038DE8510069465046FEF74DFA70038F
:10246000CDE90007694602945046FEF745FACDE9EA
:10247000008669465046CDE90245FEF73DFACDE9B2
:10248000009669465846CDE90245FEF735FA0096B2
:10249000694613480196CDE90245FEF72DFA002260
:1024A00011460720FEF7CAFC0720FEF797FC002222
:1024B00011461720FEF7C2FC1720FEF78FFC002202
:1024C00011462820FEF7BAFC2820FEF787FC07B04B
:1024D000BDE8F08F30380240000C02400008024096
:1024E00000100240000002400000111000040240F1
:1024F00030B5354D91B033480024C5E900042020A3
:10250000A8604FF4FA5000F051FFC5E903042846D3
:102510006C61FFF721FC18B141212CA000F03DFDBA
:102520000E940EA928480F94FFF7B6F918B1482168
:1025300026A000F032FD6020CDE90004029403944F
:1025400004940594002269461F480694FFF7C6FAD2
:1025500018B154211DA000F020FD042269461A483C
:10256000FFF7BCFA18B1592118A000F016FD082297
:1025700069461548FFF7B2FA18B15E2113A000F0C2
:102580000CFD0C2269461048FFF7A8FA18B1632128
:102590000EA000F002FD0794089409944FF4005037
:1025A0000A94CDE90B4007A907480D94FFF7CCF832
:1025B00018B16F2105A000F0F0FC0348FFF774FA92
:1025C00011B030BD000401405C0000202E2E2F43CE
:1025D0006F72652F5372632F74696D2E6300000054
:1025E0000D4810B50B4901604FF4E1314160002105
:1025F00081600C22C160C0E904128161C161FFF7F2
:1026000017FD002805D0BDE81040432103A000F0CD
:10261000C4BC10BD00100140D40000202E2E2F435A
:102620006F72652F5372632F75736172742E63001E
:102630000D4810B50B4901604FF4E13141600021B4
:1026400081600C22C160C0E904128161C161FFF7A1
:10265000EFFC002805D0BDE81040562103A000F093
:102660009CBC10BD00480040140100202E2E2F43BA
:102670006F72652F5372632F75736172742E6300CE
:10268000FEE770470907090E002806DA00F00F0080
:1026900000F1E02080F8141D704700F1E02080F880
:1026A000001470477047704710B5FEF713FBBDE884
:1026B0001040FFF744B8000030B5254893B000251E
:1026C000016841F080510160006800F08050119075
:1026D0002048016841F4804101600068022400F450
:1026E0008040119001200090000401908001CDE90C
:1026F0000640082008904FF4A870CDE90904042092
:102700000B906846FEF7A4FD00B1FEE70CA90F2070
:1027100081E831004FF4A0500F904FF4805010909A
:1027200005210CA8FEF71AFC00B1FEE7FEF73AFD02
:102730004FF47A71B0FBF1F0FEF7EDFF0420FEF7E5
:10274000B7FF00221146501EFEF778FB13B030BDD4
:1027500040380240007000401048016841F47001A8
:1027600001600F48016841F0010101600C4A00213D
:102770000832116002680B4B1A400260031D0A4ABE
:102780001A60026822F48022026005480C30016061
:1027900002495806803908607047000088ED00E063
:1027A00000380240FFFFF6FE10300024F0B502684A
:1027B000234B244D244E254F254C4FF0804C9842FE
:1027C00009D0604507D0A84205D0B04203D0B84236
:1027D00001D0A04204D122F0700E4A6842EA0E02F3
:1027E00098421BD0604519D0A84217D0B04215D0EE
:1027F000B84213D0A04211D0164DA8420ED0164DAB
:10280000A8420BD0154DA84208D0154DA84205D0BE
:10281000144DA84202D0144DA84203D122F44075B1
:10282000CA682A4302608A68C2620A688262984261
:1028300001D0A04201D10969016301214161F0BDCC
:10284000000001400004004000080040000C00406F
:1028500000040140004001400044014000480140A4
:1028600000180040001C00400020004070B50446E5
:10287000214816460D46844225D0B4F1804F22D01F
:102880001E4884421FD01E4884421CD01D488442EA
:1028900019D01D48844216D01C48844213D01C48CD
:1028A000844210D01B4884420DD01B4884420AD079
:1028B0001A48844207D01A48844204D041F2882141
:1028C00018A000F0F5FB65B1042D0AD0082D08D042
:1028D0000C2D06D0182D04D041F2892111A000F052
:1028E000E7FB0120216AA84081432162206AAE40B3
:1028F0003043206270BD0000000001400004004031
:1029000000080040000C004000040140004001406D
:10291000004401400048014000180040001C0040F5
:10292000002000402E2E2F447269766572732F535B
:10293000544D3332463478785F48414C5F44726975
:102940007665722F5372632F73746D3332663478E9
:10295000785F68616C5F74696D2E630030B5026AE0
:1029600022F001020262026A436884690D6824F061
:102970007304254322F002048A6822430B4CA042D0
:1029800002D00B4CA0420BD122F00804CA6823F4F9
:10299000407322434C6922F004021C438B69234399
:1029A0004360856149684163026230BD00000140B7
:1029B000000401402DE9F0410446006A0D4620F074
:1029C00010002062206A6768A1692A6821F4E64144
:1029D00041EA0228A96820F0200040EA01161348C5
:1029E000844202D01248844217D1E86830B10828E6
:1029F00004D041F205210FA000F05AFBE96826F04F
:102A0000800040EA011020F04006696927F4406028
:102A100040EA8100A96940EA81076760C4F818802C
:102A20006868A0632662BDE8F081000000000140F4
:102A3000000401402E2E2F447269766572732F5365
:102A4000544D3332463478785F48414C5F44726964
:102A50007665722F5372632F73746D3332663478D8
:102A6000785F68616C5F74696D2E63002DE9F041D9
:102A70000446006A0D4620F480702062206A676870
:102A8000E16920F4007021F07302296841EA02082C
:102A9000A96840EA01261D48844202D01C488442AD
:102AA0002BD1E86830B1082804D041F2173119A0C1
:102AB00000F0FEFAA869B0F5007F05D020B141F220
:102AC000183114A000F0F4FA6869B0F5807F05D0E1
:102AD00020B141F219310FA000F0EAFAE96826F4BA
:102AE000006040EA012020F48066696927F44050C4
:102AF00040EA0110A96940EA01176760C4F81C8028
:102B00006868E0632662BDE8F081000000000140D3
:102B1000000401402E2E2F447269766572732F5384
:102B2000544D3332463478785F48414C5F44726983
:102B30007665722F5372632F73746D3332663478F7
:102B4000785F68616C5F74696D2E63002DE9F041F8
:102B50000446006A0D4620F480502062206A6668B0
:102B6000E1692A6821F4E64141EA0228A96820F4D3
:102B7000005040EA01370E48844202D00D4884429A
:102B80000ED16869B0F5807F05D020B141F25D318A
:102B900009A000F08DFA696926F4804040EA8116A8
:102BA0006660C4F81C80686820642762BDE8F08114
:102BB00000000140000401402E2E2F44726976650A
:102BC00072732F53544D3332463478785F48414CFA
:102BD0005F4472697665722F5372632F73746D331D
:102BE00032663478785F68616C5F74696D2E63005B
:102BF0002DE9F04104464068BC49884204D340F6C0
:102C00008511BBA000F054FAE06838B1B0F5005F60
:102C100004D040F68611B6A000F04AFA206950B1FF
:102C2000B0F5806F07D0B0F5C06F04D040F68711C3
:102C3000AFA000F03DFA60694FF6F371084200D191
:102C400020B940F68811AAA000F032FA2268106973
:102C500020F44051E068084310612268D06849F2CE
:102C60000C6188432369A168E569194363692B43B3
:102C700019430143D1602268506920F44071A06972
:102C800008435061E2696425B2F5004FA748A8499E
:102C900022684FF032083FD08A4201D082427CD174
:102CA000FEF796FA00EBC00101EB001061688900A5
:102CB000B0FBF1F6FEF78CFA00EBC00101EB00105F
:102CC00061688900B0FBF1F0B0FBF5F06FF018011E
:102CD000484306EB800108EB0110B0FBF5F000F073
:102CE000F006FEF775FA00EBC00101EB0010616819
:102CF0008900B0FBF1F0B0FBF5F006EB0016FEF733
:102D000067FA00EBC00101EB001061688900B0FBBD
:102D1000F1F7FEF75DFAD2E08A4201D082423DD15E
:102D2000FEF756FA00EBC00101EB001061684900A4
:102D3000B0FBF1F0B0FBF5F00601FEF749FA00EB4D
:102D4000C00101EB001061684900B0FBF1F7FEF72C
:102D50003FFA00EBC00101EB001061684900B0FBD5
:102D6000F1F0B0FBF5F06FF01801484307EB80017C
:102D700008EBC100B0FBF5F000F0F80006EB4006F0
:102D8000FEF726FA00EBC00101EB00106168490074
:102D9000B0FBF1F7FEF71CFA3CE055E0FEF708FA4D
:102DA00000EBC00101EB001061684900B0FBF1F0DD
:102DB000B0FBF5F00601FEF7FBF900EBC00101EBFB
:102DC000001061684900B0FBF1F7FEF7F1F900EB84
:102DD000C00101EB001061684900B0FBF1F0B0FBED
:102DE000F5F06FF01801484307EB800108EBC100D4
:102DF000B0FBF5F000F0F80006EB4006FEF7D8F95E
:102E000000EBC00101EB001061684900B0FBF1F775
:102E1000FEF7CEF900EBC00101EB0010616849003C
:102E2000B0FBF1F0B0FBF5F06FF01801484307EB91
:102E3000800108EBC100B0FBF5F000F0070021684D
:102E400030448860BDE8F081FEF7B2F900EBC001C4
:102E500001EB001061688900B0FBF1F6FEF7A8F9FC
:102E600000EBC00101EB001061688900B0FBF1F0DC
:102E7000B0FBF5F06FF01801484306EB800108EB5A
:102E80000110B0FBF5F000F0F006FEF791F900EB51
:102E9000C00101EB001061688900B0FBF1F0B0FBEC
:102EA000F5F006EB0016FEF783F900EBC00101EB2D
:102EB000001061688900B0FBF1F7FEF779F900EBCB
:102EC000C00101EB001061688900B0FBF1F0B0FBBC
:102ED000F5F06FF01801484307EB800108EB011093
:102EE000B0FBF5F000F00F00A9E70000A137A0004B
:102EF0002E2E2F447269766572732F53544D3332E0
:102F0000463478785F48414C5F4472697665722F29
:102F10005372632F73746D3332663478785F6861EF
:102F20006C5F756172742E63000000000014014034
:102F3000001001402DE9F041984617460E46044620
:102F4000069D1DE0681C1BD02DB1FDF7BDFEA0EB5A
:102F50000800A84214D92068C16821F4D071C1606A
:102F60002068416921F001014161202084F8390085
:102F700084F83A00002084F838000320BDE8F0818E
:102F80002068006836EA000004D00020B842D9D09A
:102F90000020F3E70120F9E7FEE7FEE70FB4054B59
:102FA00010B503A9044A029800F017F810BC5DF8A8
:102FB00014FB0000B53000080000002002E008C843
:102FC000121F08C1002AFAD170477047002001E0A3
:102FD00001C1121F002AFBD170472DE9F84F994615
:102FE000924688460546002706E025280AD0514625
:102FF0004A4690476D1C7F1C28780028F5D138463A
:10300000BDE8F88F002315F8011F18462E2915D1A9
:1030100015F8011F04232A290DD06FF02F022978FB
:10302000A1F13004092C09D800EB800002EB40002C
:1030300008446D1CF3E758F8040B6D1C2A78002A2D
:10304000DDD0632A07D0732A0FD0104651464A4676
:1030500090477F1C2AE018F8042B8DF800200021EF
:103060008DF801106E46012103E058F8046B4FF013
:10307000FF315A074FF0000401D409E0641C844278
:103080000BDA8C42FADB325D002AF7D105E0641CD2
:103090008C42FCDB305D0028F9D1274404E016F8AF
:1030A000010B51464A469047641EF8D26D1CA3E7B7
:1030B0007047000008490968C90706D006498039E9
:1030C0000968CA074FF0604101D1704700BF0A6824
:1030D000002AFBD008707047800E00E004490020F1
:1030E00000EB400201F82200401C0428F8DB704786
:1030F000F4010020FDF7F6FDFFF7DEFAFFF70EF909
:10310000FFF7D2F8FFF7F4F9FFF76AFAFFF790FA42
:1031100000F068F9FFF7E2FF0C48FEF74FFC0021D2
:103120000A48FEF7D5FE04210848FEF7D1FE082123
:103130000648FEF7CDFE0C210448FEF7C9FE44F612
:10314000206000F0EBF800F003F8FEE75C000020E0
:1031500008B54A4C002504F1280904F150082E4610
:103160004EF2902778340223012269464448FFF743
:103170003DF820B99DF8001042A0FFF70FFFBD42B7
:1031800002D205F5FA75ADB228B200F0C7F89DF885
:103190000000532800D0142642381228E3D2DFE87A
:1031A00000F00E0909090A2941374B0918090909D4
:1031B00009091E55D7E7002000F066F8D3E7002183
:1031C0002E4800F0BDF80121484600F0B9F8012171
:1031D0000BE00021294800F0B3F8002131E0012183
:1031E000264800F0ADF8012121E0404600F0A8F8A3
:1031F00000213FE00221214800F0A2F800214846CA
:1032000000F09EF80221404600F09AF8012131E0DA
:1032100001211A4800F094F80221484600F090F885
:10322000002123E00021154800F08AF800214846DB
:1032300000F086F80021D8E70121104800F080F85E
:103240000121484600F07CF80121DCE7002E04DD76
:10325000A5F5FA65ADB2761E85E70221074800F0B4
:103260006FF80221484600F06BF80221404600F05A
:1032700067F80221204600F063F874E7540100204B
:10328000D40000202563000070B5234C04F128050C
:1032900004F150067834B8B101281FD002282BD091
:1032A000032837D102211C4800F04AF802212846A1
:1032B00000F046F80221304600F042F80221204694
:1032C000BDE8704000F03CB80121134800F038F828
:1032D0000021284600F034F8002116E000210E48B5
:1032E00000F02EF80121284600F02AF8012130468E
:1032F00000F026F80021E2E70121074800F020F85D
:103300000121284600F01CF80121304600F018F891
:103310000121D4E770BD00005401002070B5074EB4
:103320000546002404EB8400A9B206EBC00000F0BF
:1033300023F8641C042CF5DB70BD00005401002050
:1033400010B504460069A38A012903D04FF000029A
:1033500059B100E001221946FDF780FCA18BA0695C
:103360000022BDE81040FDF779BC1946FDF776FC58
:10337000A18B0122A069F4E7436A0A46006A194654
:10338000AFF3008070B5064614460D464FF4FA5070
:1033900000F00CF860434FF6FF7190FBF1F025F060
:1033A00003013268343180B2505070BD10B504460C
:1033B000B0F5FA6F03D20D2104A0FFF7EEFD084827
:1033C000B0FBF4F0401E80B210BD00002E2E5C4316
:1033D0006F72655C5372635C776865656C2E630021
:1033E00000BD01051F48DFED200A204B9FED200A9C
:1033F000002100BF01EB810200F8321000EBC20295
:10340000491CC2ED010A136282ED020A82ED030A31
:103410000429EFDB174940F8101F0822828002239D
:1034200081608381002343618162D30283852023ED
:10343000016383860423C36301658023A0F85430AD
:1034400081651103A0F85C100B49426681678A14FC
:10345000A0F87C2040F8801F091581800C21C160F4
:1034600070470000540100204C37893D5C0000206B
:1034700000000000000C02400008024000000000B4
:103480000000000001020304060708090000000014
:1034900001020304B43400080000002014000000FE
:1034A000BC2F0008C83400081400002014060000D7
:1034B000CC2F0008000000000100000010000000F8
:0834C000000000000024F400EC
:040000050800018965
:00000001FF
