:020000040800F2
:10000000000002209942000841160008431600082B
:1000100045160008471600084916000800000000B1
:100020000000000000000000000000004B16000867
:100030004D160008000000004F1600085116000879
:10004000E9420008E9420008E9420008E9420008E4
:10005000E9420008E9420008E9420008E9420008D4
:10006000E9420008E9420008E9420008E9420008C4
:100070005D160008E9420008E9420008E94200086C
:10008000E9420008E9420008E9420008E9420008A4
:10009000E9420008E9420008E9420008E942000894
:1000A000E9420008E9420008E9420008E942000884
:1000B000E9420008E9420008E9420008E942000874
:1000C000E9420008E9420008E9420008E942000864
:1000D000E9420008E9420008E9420008E942000854
:1000E0006D160008E9420008E9420008E9420008EC
:1000F000E9420008E9420008E9420008E942000834
:10010000E9420008E9420008E9420008E942000823
:10011000E9420008E9420008E9420008E942000813
:10012000E9420008E9420008E9420008E942000803
:10013000E9420008E9420008E9420008E9420008F3
:10014000E9420008E9420008E9420008E9420008E3
:10015000E9420008E9420008E9420008E9420008D3
:10016000E9420008E9420008E9420008E9420008C3
:10017000E9420008E9420008E942000800000000E6
:08018000E9420008E942000811
:1001900010B5054C237833B9044B13B10448AFF3C1
:1001A00000800123237010BD7800002000000000B3
:1001B000E45E000808B5034B1BB103490348AFF3E5
:1001C000008008BD000000007C000020E45E000804
:1001D00010F8012B11F8013B012A28BF9A42F7D0F1
:1001E000D01A70470000000000000000000000006E
:1001F00001F0FF01102A2BDB10F0070F08D010F8D8
:10020000013B013A8B422DD010F0070F42B3F6D1DB
:10021000F0B441EA012141EA014122F007047FF0F4
:1002200000070023F0E80256083C85EA010586EA4B
:10023000010685FA47F5A3FA87F586FA47F6A5FA87
:1002400087F68EB9EED1F0BC01F0FF0102F0070293
:1002500032B110F8013B013A83EA010313B1F8D13E
:100260000020704701387047002D06BF354603381F
:10027000073815F0010F07D1013015F4807F02BF58
:10028000013015F4C03F0130F0BC0138704700BFA9
:1002900081F0004102E000BF83F0004330B54FEA37
:1002A00041044FEA430594EA050F08BF90EA020FA4
:1002B0001FBF54EA000C55EA020C7FEA645C7FEA37
:1002C000655C00F0E2804FEA5454D4EB5555B8BF5A
:1002D0006D420CDD2C4480EA020281EA030382EACB
:1002E000000083EA010180EA020281EA0303362D5D
:1002F00088BF30BD11F0004F4FEA01314FF4801C30
:100300004CEA113102D0404261EB410113F0004F41
:100310004FEA03334CEA133302D0524263EB4303F8
:1003200094EA050F00F0A780A4F10104D5F1200E96
:100330000DDB02FA0EFC22FA05F2801841F10001F1
:1003400003FA0EF2801843FA05F359410EE0A5F1C5
:1003500020050EF1200E012A03FA0EFC28BF4CF0F6
:10036000020C43FA05F3C01851EBE37101F00045AC
:1003700007D54FF0000EDCF1000C7EEB00006EEBB9
:100380000101B1F5801F1BD3B1F5001F0CD3490843
:100390005FEA30004FEA3C0C04F101044FEA44529A
:1003A00012F5800F80F09A80BCF1004F08BF5FEA21
:1003B000500C50F1000041EB045141EA050130BD01
:1003C0005FEA4C0C404141EB010111F4801FA4F1A4
:1003D0000104E9D191F0000F04BF01460020B1FAF9
:1003E00081F308BF2033A3F10B03B3F120020CDA31
:1003F0000C3208DD02F1140CC2F10C0201FA0CF00F
:1004000021FA02F10CE002F11402D8BFC2F1200C73
:1004100001FA02F120FA0CFCDCBF41EA0C01904029
:10042000E41AA2BF01EB0451294330BD6FEA040472
:100430001F3C1CDA0C340EDC04F11404C4F120025D
:1004400020FA04F001FA02F340EA030021FA04F36F
:1004500045EA030130BDC4F10C04C4F1200220FAC6
:1004600002F001FA04F340EA0300294630BD21FA04
:1004700004F0294630BD94F0000F83F4801306BFCA
:1004800081F480110134013D4EE77FEA645C18BFBE
:100490007FEA655C29D094EA050F08BF90EA020F55
:1004A00005D054EA000C04BF1946104630BD91EA4D
:1004B000030F1EBF0021002030BD5FEA545C05D150
:1004C0004000494128BF41F0004130BD14F580048F
:1004D0003CBF01F5801130BD01F0004545F0FE4103
:1004E00041F470014FF0000030BD7FEA645C1ABF38
:1004F000194610467FEA655C1CBF0B46024650EA6F
:10050000013406BF52EA033591EA030F41F400219A
:1005100030BD00BF90F0000F04BF0021704730B520
:100520004FF4806404F132044FF000054FF00001F5
:1005300050E700BF90F0000F04BF0021704730B5B6
:100540004FF4806404F1320410F0004548BF40428B
:100550004FF000013EE700BF42004FEAE2014FEAE0
:1005600031014FEA02701FBF12F07F4393F07F4FBB
:1005700081F06051704732F07F4208BF704793F0BE
:100580007F4F04BF41F40021704730B54FF46074D1
:1005900001F0004521F000411CE700BF50EA0102D4
:1005A00008BF704730B54FF000050AE050EA01027D
:1005B00008BF704730B511F0004502D5404261EBED
:1005C00041014FF4806404F132045FEA915C3FF42E
:1005D000D8AE4FF003025FEADC0C18BF03325FEACB
:1005E000DC0C18BF033202EBDC02C2F1200300FA7C
:1005F00003FC20FA02F001FA03FE40EA0E0021FAA1
:1006000002F11444BDE600BF70B54FF0FF0C4CF48E
:10061000E06C1CEA11541DBF1CEA135594EA0C0F40
:1006200095EA0C0F00F0DEF82C4481EA030621EA7B
:100630004C5123EA4C5350EA013518BF52EA0335B6
:1006400041F4801143F4801338D0A0FB02CE4FF068
:100650000005E1FB02E506F00042E0FB03E54FF098
:100660000006E1FB03569CF0000F18BF4EF0010E90
:10067000A4F1FF04B6F5007F64F5407404D25FEA8C
:100680004E0E6D4146EB060642EAC62141EA55513F
:100690004FEAC52040EA5E504FEACE2EB4F1FD0C81
:1006A00088BFBCF5E06F1ED8BEF1004F08BF5FEAFF
:1006B000500E50F1000041EB045170BD06F00046B1
:1006C00046EA010140EA020081EA0301B4EB5C045E
:1006D000C2BFD4EB0C0541EA045170BD41F4801156
:1006E0004FF0000E013C00F3AB8014F1360FDEBF7B
:1006F000002001F0004170BDC4F10004203C35DA57
:100700000C341BDC04F11404C4F1200500FA05F3D9
:1007100020FA04F001FA05F240EA020001F000427A
:1007200021F0004110EBD37021FA04F642EB0601F0
:100730005EEA430E08BF20EAD37070BDC4F10C041A
:10074000C4F1200500FA04F320FA05F001FA04F2DE
:1007500040EA020001F0004110EBD37041F10001CA
:100760005EEA430E08BF20EAD37070BDC4F12005D5
:1007700000FA05F24EEA020E20FA04F301FA05F23D
:1007800043EA020321FA04F001F0004121FA04F2E5
:1007900020EA020000EBD3705EEA430E08BF20EAB5
:1007A000D37070BD94F0000F0FD101F000464000EF
:1007B00041EB010111F4801F08BF013CF7D041EA71
:1007C000060195F0000F18BF704703F00046520075
:1007D00043EB030313F4801F08BF013DF7D043EA46
:1007E0000603704794EA0C0F0CEA135518BF95EAFC
:1007F0000C0F0CD050EA410618BF52EA4306D1D183
:1008000081EA030101F000414FF0000070BD50EAA1
:10081000410606BF1046194652EA430619D094EA2B
:100820000C0F02D150EA013613D195EA0C0F05D115
:1008300052EA03361CBF104619460AD181EA030169
:1008400001F0004141F0FE4141F470014FF0000021
:1008500070BD41F0FE4141F4780170BD70B54FF0BC
:10086000FF0C4CF4E06C1CEA11541DBF1CEA13553C
:1008700094EA0C0F95EA0C0F00F0A7F8A4EB05041E
:1008800081EA030E52EA03354FEA013100F0888015
:100890004FEA03334FF0805545EA131343EA1263DE
:1008A0004FEA022245EA111545EA10654FEA002693
:1008B0000EF000419D4208BF964244F1FD0404F54C
:1008C000407402D25B084FEA3202B61A65EB0305A8
:1008D0005B084FEA32024FF480104FF4002CB6EB65
:1008E000020E75EB030E22BFB61A754640EA0C00E5
:1008F0005B084FEA3202B6EB020E75EB030E22BF25
:10090000B61A754640EA5C005B084FEA3202B6EB65
:10091000020E75EB030E22BFB61A754640EA9C0024
:100920005B084FEA3202B6EB020E75EB030E22BFF4
:10093000B61A754640EADC0055EA060E18D04FEAB2
:10094000051545EA16754FEA06164FEAC30343EA52
:1009500052734FEAC2025FEA1C1CC0D111F4801F1F
:100960000BD141EA00014FF000004FF0004CB6E718
:1009700011F4801F04BF01430020B4F1FD0C88BFB7
:10098000BCF5E06F3FF6AFAEB5EB030C04BFB6EBC2
:10099000020C5FEA500C50F1000041EB045170BDB5
:1009A0000EF0004E4EEA113114EB5C04C2BFD4EBE2
:1009B0000C0541EA045170BD41F480114FF0000E66
:1009C000013C90E645EA060E8DE60CEA135594EAE2
:1009D0000C0F08BF95EA0C0F3FF43BAF94EA0C0FE5
:1009E0000AD150EA01347FF434AF95EA0C0F7FF45A
:1009F00025AF104619462CE795EA0C0F06D152EAAE
:100A000003353FF4FDAE1046194622E750EA410691
:100A100018BF52EA43067FF4C5AE50EA41047FF4A2
:100A20000DAF52EA43057FF4EBAE12E74A0011D254
:100A300012F5001211D20DD56FF47873B3EB625238
:100A40000ED44FEAC12343F0004343EA505323FA44
:100A500002F070474FF00000704750EA013002D1B9
:100A60004FF0FF3070474FF0000070474FEA4102EF
:100A7000B2F1E04324BFB3F5001CDCF1FE5C0DD9FC
:100A800001F0004C4FEAC0024CEA5070B2F1004F46
:100A900040EB830008BF20F00100704711F0804F49
:100AA00021D113F13872BCBF01F00040704741F40E
:100AB00080114FEA5252C2F11802C2F1200C10FA12
:100AC0000CF320FA02F018BF40F001004FEAC123F6
:100AD0004FEAD32303FA0CFC40EA0C0023FA02F39A
:100AE0004FEA4303CCE77FEA625307D150EA013370
:100AF0001EBF4FF0FE4040F44000704701F0004040
:100B000040F0FE4040F40000704700BF53B94AB9BE
:100B1000002908BF00281CBF4FF0FF314FF0FF3005
:100B200000F072B9ADF1080C6DE904CE00F006F8E2
:100B3000DDF804E0DDE9022304B070472DE9F04759
:100B4000089E04468846002B4BD18A42154667D939
:100B5000B2FA82F24AB1C2F1200701FA02F320FA96
:100B600007F7954047EA030894404FEA154E230CD7
:100B7000B8FBFEF71FFA85FC0EFB178843EA084313
:100B800007FB0CF1994209D9EB1807F1FF3080F00F
:100B90001B81994240F21881023F2B445B1AA4B298
:100BA000B3FBFEF00EFB103344EA034400FB0CFCE5
:100BB000A44509D92C1900F1FF3380F00781A44521
:100BC00040F2048102382C4440EA0740A4EB0C04B4
:100BD00000271EB1D4400023C6E900433946BDE8D2
:100BE000F0878B4209D9002E00F0EB800027C6E980
:100BF000000138463946BDE8F087B3FA83F7002F85
:100C000047D18B4202D3824200F2FA80841A61EB10
:100C1000030301209846002EE0D0C6E90048DDE736
:100C200002B9FFDEB2FA82F2002A40F08F80491B3F
:100C30004FEA154E1FFA85F80127B1FBFEFC230C85
:100C40000EFB1C1143EA014308FB0CF1994207D942
:100C5000EB180CF1FF3002D2994200F2CD808446AD
:100C6000591AA3B2B1FBFEF00EFB101443EA044480
:100C700008FB00F8A04507D92C1900F1FF3302D278
:100C8000A04500F2B6801846A4EB080440EA0C40E8
:100C90009FE7C7F1200CBB4022FA0CFE4EEA030E80
:100CA00001FA07F420FA0CF521FA0CF34FEA1E487A
:100CB0002543B3FBF8F92C0C08FB19331FFA8EFA05
:100CC00044EA034309FB0AF49C4202FA07F200FAE1
:100CD00007F10BD91EEB030309F1FF3080F0878089
:100CE0009C4240F28480A9F1020973441B1BADB2FF
:100CF000B3FBF8F008FB103345EA034400FB0AFAA3
:100D0000A24508D91EEB040400F1FF336BD2A245C3
:100D100069D90238744440EA0940A0FB0289A4EB77
:100D20000A044C45C2464B4654D351D0002E69D0DC
:100D3000B1EB0A0564EB030404FA0CFCFD40FC4033
:100D40004CEA0505C6E90054002747E7C2F1200335
:100D500020FA03F7954001FA02F021FA03F34FEA73
:100D6000154E3843010CB3FBFEF71FFA85F80EFB56
:100D7000173341EA034107FB08F38B4204FA02F4FC
:100D800007D9691807F1FF3C2FD28B422DD9023FBA
:100D90002944CB1A81B2B3FBFEF00EFB103341EABB
:100DA000034100FB08F38B4207D9691800F1FF3CAF
:100DB00017D28B4215D902382944C91A40EA07478D
:100DC0003BE73746304609E70746E7E61846FBE6C5
:100DD0004145ABD2B8EB020A69EB0E02013813466B
:100DE000A4E76046E9E7184695E76746D1E78146FC
:100DF0007CE702382C4447E7ACF1020C2B442FE788
:100E0000384608E73746E9E6704700BF00238B42C3
:100E100021DA10B40BE000BF4FF060421268002AE4
:100E2000F9D04FF06042147001338B420FDAC45C8A
:100E30004FF06042D2F8802E12F0010FF4D04FF044
:100E40006042D2F8002E12F0010FEDD0E4E7184610
:100E50005DF8044B70471846704708B508461146C0
:100E6000FFF7D4FF08BD0000F0B58DB00024019459
:100E7000504B1A6B42F010021A631A6B02F0100208
:100E80000192019A02941A6B42F004021A631A6BDF
:100E900002F004020292029A03941A6B42F080025A
:100EA0001A631A6B02F080020392039A04941A6B7D
:100EB00042F001021A631A6B02F001020492049AD2
:100EC00005941A6B42F002021A631A6B02F00202D6
:100ED0000592059A06941A6B42F008021A631B6B7E
:100EE00003F008030693069B334F22464CF2AA01F7
:100EF000384602F079FD314E22464FF4A05130467B
:100F000002F072FD4FF2FF530793032508950994F1
:100F100007A92B4802F0EAFB4AF62F03079308952E
:100F2000099407A9304602F0E1FB4FF48043079390
:100F3000244B0893099407A9304602F0D7FB49F6E1
:100F40003C1307930895099407A91F4802F0CEFBAC
:100F50004FF2F73307930895099407A91B4802F04D
:100F6000C5FB40F6557307930895099407A93846C1
:100F700002F0BCFB4CF2AA030793012508950994E3
:100F80000A9407A9384602F0B1FB4FF4A053079327
:100F9000089509940A9407A9304602F0A7FB224657
:100FA0002146282003F06AF8282003F0ADF80DB0A0
:100FB000F0BD00BF00380240000C024000080240B3
:100FC0000010024000001110000002400004024026
:100FD00000B585B01648174B03604FF4803343606B
:100FE00000238360036183610362C362124A8262E9
:100FF000C3600122C2610363426100F02DFC68B945
:101000000E230093012301930023029369460848AD
:1010100000F018FD38B905B05DF804FB4821074819
:1010200003F099FDECE75221044803F094FDF2E748
:1010300070020020002001400100000FFC5E00084B
:1010400002680F4B9A4200D0704700B587B000216C
:10105000009103F58C335A6C42F480725A645B6CD5
:1010600003F480730093009B1023019303230293E6
:10107000039101A9034802F039FB07B05DF804FBB6
:10108000002001400008024000B583B0002101911A
:10109000094B1A6B42F400121A631B6B03F4001322
:1010A0000193019B0A460C2002F0E8FF0C2003F09C
:1010B0002BF803B05DF804FB0038024000B58DB09A
:1010C0001748184B03600023436083604FF6FF729C
:1010D000C2600361436103220392049301220592DB
:1010E00006930793089309920A930B9303A900F0C0
:1010F00079FF50B900230193029301A9084801F038
:10110000E1FA38B90DB05DF804FB4E21064803F052
:1011100022FDEFE75521044803F01DFDF2E700BF73
:101120006C03002000000140145F000800B58DB082
:1011300017484FF0804303600023436083604FF6FD
:10114000FF72C2600361032203920493012205929D
:1011500006930793089309920A930B9303A900F04F
:1011600041FF50B900230193029301A9084801F0FF
:10117000A9FA38B90DB05DF804FB6F21054803F0FA
:10118000EAFCEFE77621034803F0E5FCF2E700BF55
:10119000A8030020145F000800B58DB01648174B57
:1011A00003600023436083604FF6FF72C2600361F7
:1011B0000322039204930122059206930793089356
:1011C00009920A930B9303A900F00CFF50B9002376
:1011D0000193029301A9084801F074FA38B90DB0DF
:1011E0005DF804FB9021064803F0B5FCEFE797217A
:1011F000034803F0B0FCF2E7300300200004004095
:10120000145F000800B58DB01648174B036000232B
:10121000436083604FF6FF72C26003610322039252
:1012200004930122059206930793089309920A9367
:101230000B9303A900F0D6FE50B90023019302934B
:1012400001A9084801F03EFA38B90DB05DF804FB79
:10125000B121064803F07FFCEFE7B821034803F013
:101260007AFCF2E7F402002000080040145F000856
:1012700000B58BB003683B4A93420BD0B3F1804F6B
:1012800023D0394A93423AD0384A934250D00BB0D7
:101290005DF804FB00210191354B5A6C42F00102CC
:1012A0005A645B6C03F001030193019B4FF42063CC
:1012B00005930223069307910323089301230993BF
:1012C00005A92C4802F012FAE1E70021029103F58A
:1012D0000E331A6C42F001021A641B6C03F0010316
:1012E0000293029B0323059302220692079108931F
:1012F0000123099305A9204802F0F8F9C7E7002166
:1013000003911B4B1A6C42F002021A641B6C03F02F
:1013100002030393039BC0230593022306930791C3
:1013200003220892099305A9134802F0DFF9AEE7FA
:10133000002104910E4B1A6C42F004021A641B6CDB
:1013400003F004030493049B4FF4405305930223DA
:101350000693079103220892099305A9074802F012
:10136000C5F994E700000140000400400008004077
:10137000003802400010024000000240000C024011
:101380000268094B9A4200D0704782B00023019353
:10139000064B5A6C42F002025A645B6C03F0020383
:1013A0000193019B02B070470004014000380240E5
:1013B00002680B4B9A4200D0704700B587B04FF4DB
:1013C0007073019302230293002303930493032376
:1013D000059301A9034802F089F907B05DF804FB01
:1013E000000401400008024000B591B039483A4B72
:1013F0000360002343602022826042F60312C26031
:101400000361436100F074FD00283FD100230E9377
:101410000F930EA92F4801F055F900283BD1602306
:1014200007930022089209920A920B920C920D9255
:1014300007A9284800F0F2FE002831D1042207A9AC
:10144000244800F0EBFE00282FD1082207A92148EC
:1014500000F0E4FE70BB0C2207A91E4800F0DEFE7F
:1014600068BB0023009301930293039304934FF40A
:101470000052059206936946164801F095F918BB8B
:101480001448FFF795FF11B05DF804FBCB2113481A
:1014900003F061FBBAE7D221104803F05CFBBEE722
:1014A000DE210E4803F057FBC8E7E3210B4803F0A9
:1014B00052FBCAE7E821094803F04DFBCBE7ED21D9
:1014C000064803F048FBCCE7F921044803F043FB4E
:1014D000D6E700BFB802002000040140145F0008F6
:1014E00008B50B480B4B03604FF4E1334360002316
:1014F0008360C36003610C2242618361C36101F0B8
:10150000CFFB00B908BD4521034803F024FBF9E7F0
:1015100084040020001001402C5F000808B50B482F
:101520000B4B03604FF4E133436000238360C360DF
:1015300003610C2242618361C36101F0B1FB00B918
:1015400008BD5821034803F006FBF9E744040020D6
:10155000004800402C5F000830B589B00368304A6D
:10156000934205D004462F4A93421DD009B030BDA6
:10157000002301932C4B5A6C42F010025A645B6CAE
:1015800003F010030193019B4FF4C0630393022304
:10159000049301230593032306930723079303A9C9
:1015A000224802F0A3F8E1E7002502951E4B1A6CD1
:1015B00042F480221A641B6C03F480230293029B82
:1015C0004FF4406303930223049301230593032301
:1015D00006930723079303A9154802F087F81548D7
:1015E000154B03604FF0006343608560C5604FF4A6
:1015F00080630361456185614FF48073C3614FF47B
:1016000040330362456202F095FA18B9094B6363EF
:101610009C63ABE79921094803F09DFAF6E700BF08
:101620000010014000480040003802400000024025
:1016300000040240E4030020286002402C5F000800
:101640007047FEE7FEE7FEE7FEE77047704770472A
:1016500008B502F0E9FD02F0A2FD08BD08B5024898
:1016600002F000FC08BD00BFE403002008B54FF401
:10167000804002F0D5F908BD10B582B00024009476
:10168000214B5A6C42F480425A645A6C02F48042F4
:101690000092009A01941A6C42F080521A641B6CFA
:1016A00003F080530193019B032002F0C9FC224602
:1016B00021466FF00B0002F0E1FC224621466FF05C
:1016C0000A0002F0DBFC224621466FF0090002F01E
:1016D000D5FC224621466FF0040002F0CFFC2246E2
:1016E00021466FF0030002F0C9FC224621466FF04C
:1016F000010002F0C3FC224621464FF0FF3002F009
:10170000BDFC02B010BD00BF0038024010B5044659
:101710004E4B5A6822F440325A605A6841680A4374
:101720005A600268536823F48073536002685368F8
:10173000016943EA012353600268536823F0407350
:1017400053600268536881680B4353600268936872
:1017500023F40063936002689368C1680B4393604D
:10176000826A3B4B9A4259D00268936823F07063B7
:10177000936002689368816A0B4393600268936880
:1017800023F04053936002689368C16A0B439360EF
:101790002268936823F00203936022689368A1692A
:1017A00043EA41039360236A002B48D0636A013BFC
:1017B000072B3ED82268536843F4006353602268C5
:1017C000536823F46043536021684B68626A013AAE
:1017D00043EA42334B602268D36A23F47003D36236
:1017E0002168CB6AE269013A43EA0253CB6222687C
:1017F000936823F40073936022689368216B43EA33
:10180000412393602268936823F480639360226885
:101810009368616943EA8123936010BD026893680D
:1018200023F0706393600268936823F040539360E1
:10183000AEE740F22761074803F038FABAE72268BA
:10184000536823F400635360C5E700BF00230140E1
:101850000100000F485F0008002800F0EB8010B581
:1018600004460368744A93420CD002F58072934296
:1018700008D002F58072934204D040F20B116F48F9
:1018800003F014FA636843B1B3F5803F05D0B3F5B4
:10189000003F02D0B3F5403F6FD1A36843B1B3F12D
:1018A000807F05D0B3F1007F02D0B3F1407F6AD1D1
:1018B0002369012B6DD8A369012B70D8A36A7BB370
:1018C000B3F1807F2CD0B3F1007F29D0B3F1407FFA
:1018D00026D0B3F1806F23D0B3F1A06F20D0B3F145
:1018E000C06F1DD0B3F1E06F1AD0B3F1006F17D005
:1018F000B3F1106F14D0B3F1206F11D0B3F1306F8A
:101900000ED0B3F1406F0BD0B3F1506F08D0B3F1EC
:10191000606F05D0B3F1706F02D0494A934244D151
:10192000E36813B1B3F5006F45D1E369013B0F2BB9
:1019300047D8236B012B4AD86369022B4DD8236A01
:10194000012B50D8A26A3E4B9A420AD0E36A43B1B7
:10195000B3F1805F05D0B3F1005F02D0B3F1405F17
:1019600047D1236C002B4AD0236C13F0100F4DD0BD
:101970000120002384F83C3010BD4FF486712F48BD
:1019800003F094F989E740F20D112C4803F08EF929
:101990008EE74FF48771294803F088F98BE740F20E
:1019A0000F11264803F082F988E74FF48871234825
:1019B00003F07CF9B4E740F21111204803F076F906
:1019C000B3E74FF489711D4803F070F9B1E740F2B5
:1019D00013111A4803F06AF9AEE74FF48A711748F9
:1019E00003F064F9ABE740F21511144803F05EF917
:1019F000A8E740F21911114803F058F9B1E7636400
:101A000084F83C302046FFF71BFBADE7236C23F442
:101A1000885323F0020343F0020323642046FFF7B8
:101A200075FE00206064236C23F0030343F0010380
:101A300023649EE70120704700200140485F0008B2
:101A40000100000F30B583B005460C46002301931A
:101A50000B68122B4ED86368013B0F2B50D8A3683C
:101A6000072B53D895F83C30012B00F0C780012399
:101A700085F83C302368092B4ED92868C2689BB290
:101A800003EB43031E3B072101FA03F322EA03039E
:101A9000C3602868C268A168238803EB43031E3B28
:101AA00001FA03F31343C3606368062B4AD828681E
:101AB000426B03EB8303053B1F2101FA03F322EA88
:101AC000030343632868426B636803EB8303053BAE
:101AD000218801FA03F3134343632A68484B9A426F
:101AE00060D02A68464B9A4265D0002085F83C00B9
:101AF00003B030BD40F21551424803F0D7F8AAE7D1
:101B000040F216513F4803F0D1F8A8E740F21751D0
:101B10003C4803F0CBF8A5E7286802699BB203EBC9
:101B20004303072101FA03F322EA03030361286850
:101B30000269A168238803EB430301FA03F313430B
:101B40000361B1E70C2B16D82868026B03EB830303
:101B5000233B1F2101FA03F322EA030303632868EE
:101B6000026B636803EB8303233B218801FA03F3D1
:101B700013430363B1E72868C26A03EB8303413B65
:101B80001F2101FA03F322EA0303C3622868C26A31
:101B9000636803EB8303413B218801FA03F313439A
:101BA000C3629AE72368122B9BD1174A536843F408
:101BB0008003536095E72368103B012B95D8124AA8
:101BC000536843F4000353602368102B8DD10F4BEF
:101BD0001B6802F1467202F52E3202F28332A2FB3A
:101BE00003239B0C03EB83035A00019202E0019B49
:101BF000013B0193019B002BF9D176E7022077E7A7
:101C000000200140485F0008002301400C00002034
:101C100070B4036A23F001030362036A42688469B3
:101C200024F073040D6845EA040623F002048B686F
:101C300023430C4DA84202D00B4CA0420BD123F001
:101C40000803CD682B4323F0040322F440724D694E
:101C500015438A692A43426086614A684263036287
:101C600070BC704700000140000401402DE9F041C4
:101C700004460E46036A23F480730362056A4768CC
:101C8000C36923F073080B6843EA080825F400755C
:101C90008B6845EA03251F4B984203D003F5806308
:101CA00098421CD1F3680BB1082B20D1B369B3F56E
:101CB000007F00D00BBB7369B3F5807F00D013BBEE
:101CC00025F40065F36845EA032525F4806527F4CB
:101CD0004057736947EA0317B36947EA0317676018
:101CE000C4F81C807368E3632562BDE8F08141F2AB
:101CF0001731094802F0DAFFD8E741F218310648F7
:101D000002F0D4FFD7E741F21931034802F0CEFFC9
:101D1000D6E700BF00000140B85F00082DE9F041A0
:101D200004460F46036A23F480530362056AD0F821
:101D30000480C66926F4E6460B6846EA032625F4C5
:101D400000558B6845EA03350F4B984203D003F5E5
:101D50008063984209D17B69B3F5807F00D063B975
:101D600028F480487B6948EA8318C4F80480E66157
:101D70007B6823642562BDE8F08141F25D31034850
:101D800002F094FFECE700BF00000140B85F0008DC
:101D900010B504460368244A934237D0B3F1804F0C
:101DA00034D0A2F57C42934230D002F58062934257
:101DB0002CD002F58062934228D002F580629342D3
:101DC00024D002F58062934220D002F57042934203
:101DD0001CD002F57052934218D002F580629342F3
:101DE00014D002F58062934210D0A2F5983293424B
:101DF0000CD002F58062934208D002F580629342D3
:101E000004D04FF49971094802F050FF022384F87E
:101E100039302268136843F001031360012384F80A
:101E20003930002010BD00BF00000140B85F00083D
:101E300003682E4A904212D0B0F1804F0FD0A2F525
:101E40007C4290420BD002F58062904207D002F5AE
:101E50008062904203D002F57842904203D123F091
:101E600070034A681343214A90422AD0B0F1804F50
:101E700027D0A2F57C42904223D002F580629042A6
:101E80001FD002F5806290421BD002F5784290424A
:101E900017D002F57052904213D002F58062904242
:101EA0000FD002F5806290420BD0A2F5983290429A
:101EB00007D002F58062904203D002F58062904222
:101EC00003D123F44073CA68134303608B68C36271
:101ED0000B688362054B984203D003F580639842F8
:101EE00001D10B6903630123436170470000014086
:101EF000002870D010B504460368384A934237D0A2
:101F0000B3F1804F34D0A2F57C42934230D002F539
:101F1000806293422CD002F58062934228D002F571
:101F20008062934224D002F58062934220D002F571
:101F3000704293421CD002F57052934218D002F5C1
:101F40008062934214D002F58062934210D0A2F5D1
:101F5000983293420CD002F58062934208D002F589
:101F60008062934204D040F2F1311D4802F09EFE9F
:101F7000A3683BB1102B05D0202B03D0402B01D000
:101F8000602B16D123692BB1B3F5807F02D0B3F556
:101F9000007F14D194F83930BBB1022384F8393072
:101FA000211D2068FFF744FF012384F83930002009
:101FB00010BD40F2F2310A4802F078FEE2E740F24A
:101FC000F331074802F072FEE4E784F83830204627
:101FD000FFF7D6F9E1E70120704700BF000001409C
:101FE000B85F0008002800F0D180F8B505460C461F
:101FF0000368674A93421FD0B3F1804F1CD0A2F50B
:102000007C42934218D002F58062934214D002F5CC
:102010008062934210D002F5784293420CD002F5D0
:102020007052934208D0A2F59432934204D040F605
:10203000FA01584802F03AFE2368013B022B69D8A6
:10204000A368013B022B6BD8A369013B022B6DD81F
:1020500063681BB1022B01D00A2B6DD163691BB1E0
:10206000022B01D00A2B6DD1E3682BB1042B03D0D6
:10207000082B01D00C2B6BD1E3692BB1042B03D0BF
:10208000082B01D00C2B69D123690F2B6CD8236A44
:102090000F2B6FD895F83930002B71D0022385F8BB
:1020A0003930294651F8042B936823F007039360D5
:1020B0002868FFF7BDFE29688A688E690F6A206864
:1020C000104326F4407626F00306A268A36942EA8C
:1020D0000323334323F47C4323F0FC03E668E269E3
:1020E00046EA02261E43226A1303226943EA0213C8
:1020F000334327F0AA076268646942EA04123A434C
:10210000886029688B612B681A62012385F8393051
:102110000020F8BD40F6FB011E4802F0C7FD8FE726
:1021200040F6FC011B4802F0C1FD8DE740F6FD01C1
:10213000184802F0BBFD8BE740F6FE01154802F09F
:10214000B5FD8BE740F6FF01124802F0AFFD8BE7CB
:102150004FF410610F4802F0A9FD8DE740F6011120
:102160000C4802F0A3FD8FE740F60211094802F087
:102170009DFD8CE740F60311064802F097FD89E7C4
:1021800085F838302846FFF773F887E70120704755
:1021900000000140B85F00082DE9F04104460E46FA
:1021A000036A23F010030362056AD0F8048087698C
:1021B00027F4E6470B6847EA032725F020058B68DC
:1021C00045EA0315134B984203D003F58063984208
:1021D00012D1F3680BB1082B16D125F08005F368F6
:1021E00045EA031525F0400528F44068736948EA7C
:1021F0008308B36948EA8308C4F80480A761736858
:10220000A3632562BDE8F08141F20521024802F096
:102210004DFDE2E700000140B85F000890F838305B
:10222000012B00F0318170B516460D46044601239E
:1022300080F838303AB1042A05D0082A03D00C2A95
:1022400001D0182A20D12B68602B01D0702B21D10E
:10225000AB680BB1022B23D12B690BB1042B25D119
:10226000022384F839300C2E6DD8DFE816F02500F3
:102270006C006C006C0073006C006C006C00AC00B7
:102280006C006C006C00DC0040F648417F4802F0B6
:102290000DFDD8E740F649417C4802F007FDD7E73D
:1022A00040F64A41794802F001FDD5E740F64B413E
:1022B000764802F0FBFCD3E72368754A93422FD09F
:1022C000B3F1804F2CD0A2F57C42934228D002F586
:1022D0008062934224D002F58062934220D002F5BE
:1022E000784293421CD002F57052934218D002F506
:1022F0008062934214D002F58062934210D0A2F51E
:10230000983293420CD002F58062934208D002F5D5
:102310008062934204D040F653415C4802F0C6FC10
:1023200029462068FFF774FC2268936943F008038C
:1023300093612268936923F004039361226893698F
:1023400029690B439361012384F83930002084F814
:10235000380070BD23684E4A93421FD0B3F1804FBE
:102360001CD0A2F57C42934218D002F580629342C1
:1023700014D002F58062934210D002F57842934265
:102380000CD002F57052934208D0A2F594329342D9
:1023900004D040F662413D4802F088FC294620689E
:1023A000FFF7FAFE2268936943F4006393612268A1
:1023B000936923F48063936122689369296943EAEE
:1023C00001239361BFE72368314A934217D0B3F1E9
:1023D000804F14D0A2F57C42934210D002F5806267
:1023E00093420CD002F58062934208D002F5784205
:1023F000934204D040F67141244802F057FC29462C
:102400002068FFF733FC2268D36943F00803D361E7
:102410002268D36923F00403D3612268D369296950
:102420000B43D3618FE72368194A934217D0B3F166
:10243000804F14D0A2F57C42934210D002F5806206
:1024400093420CD002F58062934208D002F57842A4
:10245000934204D04FF448610C4802F027FC29460F
:102460002068FFF75BFC2268D36943F40063D36103
:102470002268D36923F48063D3612268D369296910
:1024800043EA0123D3615EE702207047B85F00088A
:102490000000014070B504460D461646264B984292
:1024A0002FD0B0F1804F2CD0A3F57C43984228D098
:1024B00003F58063984224D003F58063984220D0CE
:1024C00003F5784398421CD003F57053984218D016
:1024D00003F58063984214D003F58063984210D0CE
:1024E000A3F5983398420CD003F58063984208D046
:1024F00003F58063984204D041F288210F4802F02E
:10250000D5FB65B1042D0AD0082D08D00C2D06D0BE
:10251000182D04D041F28921084802F0C7FB01239D
:1025200003FA05F2236A23EA02032362236A06FA06
:1025300005F51D43256270BD00000140B85F00082D
:1025400038B504460D460368304A934212D0B3F1C1
:10255000804F0FD0A2F57C4293420BD002F58062EF
:10256000934207D002F58062934203D002F578428D
:10257000934206D1E5B1042D1AD0082D18D00C2DA8
:1025800016D0234A93422BD0224A93422DD0224A7E
:1025900093422DD0214A93422DD0214A93422FD0ED
:1025A000204A93422FD040F252411F4802F07EFB56
:1025B000012229462068FFF76DFF2368134A9342E2
:1025C00003D002F58062934203D15A6C42F4004278
:1025D0005A642268136843F001031360002038BD79
:1025E000002DE5D0042DCFD1E2E7002DE0D0CEE7DD
:1025F000002DDDD0CEE7002DDAD0042DCDD1D7E7E8
:10260000002DD5D0CCE7002DD2D0CCE70000014082
:1026100000400140004401400048014000180040D3
:10262000001C004000200040B85F000838B5044698
:102630000D460368214A93421FD0B3F1804F1CD04E
:10264000A2F57C42934218D002F58062934214D0E6
:1026500002F58062934210D002F5784293420CD08A
:1026600002F57052934208D0A2F59432934204D0FE
:1026700040F68811124802F019FB65B1042D16D0FE
:10268000012200212068FFF705FF012204212068B4
:10269000FFF700FF04E0012200212068FFF7FAFEA7
:1026A0002268136843F001031360002038BD012243
:1026B00004212068FFF7EEFEF2E700BF00000140B2
:1026C000B85F000838B504460D460368344A9342A3
:1026D0001FD0B3F1804F1CD0A2F57C42934218D09A
:1026E00002F58062934214D002F58062934210D0CA
:1026F00002F5806293420CD002F58062934208D0CA
:1027000002F57042934204D040F24A61254802F03B
:10271000CDFA2B686BB1102B0BD0202B09D0302BAE
:1027200007D0402B05D0502B03D0602B01D0702B4D
:1027300027D16B68802B00D04BBB94F83830012B2D
:102740002BD0012284F83820022384F83930216804
:102750004B6823F070034B6021684B682868034383
:102760004B6021688B6823F080038B6021688B6845
:10277000686803438B6084F83920002084F83800AF
:1027800038BD40F24B61074802F090FAD1E740F2C1
:102790004C61044802F08AFACFE70220F0E700BF5C
:1027A000000001402860000838B504460D46036863
:1027B000454A934208D002F58062934204D040F229
:1027C0007261424802F072FA2B68B3F5006F01D0D3
:1027D000002B4DD16B68B3F5806F01D0002B4DD12C
:1027E000AB6843B1B3F5807F05D0B3F5007F02D06D
:1027F000B3F5407F48D1EB68FF2B4BD82B69B3F57D
:10280000805F01D0002B4BD16B6913B1B3F5005F32
:102810004CD1AB69B3F5804F01D0002B4CD194F86B
:102820003830012B4ED0012384F83830EB6823F484
:102830004073AA68134323F480636A68134323F444
:1028400000632A68134323F480532A69134323F453
:1028500000536A69134323F48043AA69134323F4A2
:102860000043134322685364002084F8380038BDC5
:1028700040F27361154802F019FAABE740F2746157
:10288000124802F013FAABE740F275610F4802F00C
:102890000DFAB0E740F276610C4802F007FAADE7B6
:1028A00040F27761094802F001FAADE74FF4CF61D9
:1028B000064802F0FBF9ACE740F27961034802F008
:1028C000F5F9ACE70220D2E70000014028600008DB
:1028D0000268D36823F0C003D360202380F8393026
:1028E00070470268D36823F49073D3600268536919
:1028F00023F001035361202380F83A307047000031
:102900002DE9F84304464268B44B9A4200F29C8099
:10291000E3681BB1B3F5005F40F09C80236933B1DD
:10292000B3F5806F03D0B3F5C06F40F09980636951
:102930004FF6F372134200D123B940F68811A8482C
:1029400002F0B4F921680A6922F44052E3681343A3
:102950000B612168CA6822F4164222F00C02A368B7
:102960002069034360690343E06903431343CB6079
:1029700021684A6922F44072A36913434B61E369F9
:10298000B3F5004F72D02368964A934200F02E812F
:1029900002F58062934200F0298100F087FE00EB8F
:1029A000800000EB80006568AD00B0FBF5F58E4F50
:1029B000A7FB05356D092E0100F078FE00EB8000C5
:1029C00000EB80006568AD00B0FBF5F900F06EFE2D
:1029D00000EB800000EB80006568AD00B0FBF5F512
:1029E000A7FB05356D094FF0640808FB15952D010F
:1029F0003235A7FB05356D0905F0F005354400F0CB
:102A000055FE00EB800000EB80006668B600B0FB6E
:102A1000F6F600F04BFE00EB800000EB80006368F0
:102A20009B00B0FBF3F0A7FB0030400908FB1068E7
:102A30004FEA081808F13208A7FB0837C7F3431715
:102A400023682F449F6027E140F68511644802F017
:102A50002DF95DE740F68611614802F027F95DE740
:102A600040F687115E4802F021F960E723685D4A6D
:102A700093425BD002F58062934257D000F016FE7D
:102A800000EB800000EB800065686D00B0FBF5F5A1
:102A9000554FA7FB05356D092E0100F007FE00EB31
:102AA000800000EB800065686D00B0FBF5F900F078
:102AB000FDFD00EB800000EB800065686D00B0FB61
:102AC000F5F5A7FB05356D094FF0640808FB159572
:102AD000ED003235A7FB05356D096D0005F4F8757D
:102AE000354400F0E3FD00EB800000EB80006668F9
:102AF0007600B0FBF6F600F0D9FD00EB800000EBAD
:102B0000800063685B00B0FBF3F3A7FB03235B0962
:102B100008FB13684FEAC80808F13208A7FB08371A
:102B2000C7F3421723682F449F60B5E000F0CEFD45
:102B300000EB800000EB800065686D00B0FBF5F5F0
:102B4000294FA7FB05356D092E0100F0BFFD00EBF5
:102B5000800000EB800065686D00B0FBF5F900F0C7
:102B6000B5FD00EB800000EB800065686D00B0FBF8
:102B7000F5F5A7FB05356D094FF0640808FB1595C1
:102B8000ED003235A7FB05356D096D0005F4F875CC
:102B9000354400F09BFD00EB800000EB8000666890
:102BA0007600B0FBF6F600F091FD00EB800000EB44
:102BB000800063685B00B0FBF3F3A7FB03235B09B2
:102BC00008FB13684FEAC80808F13208A7FB08376A
:102BD000C7F3421723682F449F605DE0A037A00031
:102BE0009C600008001001401F85EB5100F06EFD55
:102BF00000EB800000EB80006568AD00B0FBF5F5F0
:102C0000264FA7FB05356D092E0100F05FFD00EB97
:102C1000800000EB80006568AD00B0FBF5F900F0C6
:102C200055FD00EB800000EB80006568AD00B0FB57
:102C3000F5F5A7FB05356D094FF0640808FB159500
:102C40002D013235A7FB05356D0905F0F00535443A
:102C500000F03CFD00EB800000EB80006668B600F1
:102C6000B0FBF6F600F032FD00EB800000EB8000D8
:102C700063689B00B0FBF3F0A7FB0030400908FB42
:102C800010684FEA081808F13208A7FB0837C7F3A5
:102C9000431723682F449F60BDE8F8831F85EB51DD
:102CA000002800F08B8010B504468369002B55D0B6
:102CB0000368434A934210D0A2F54C4293420CD091
:102CC00002F58062934208D002F54C42934204D050
:102CD0004FF480713B4801F0E9FFA36943B1B3F5BC
:102CE000807F05D0B3F5007F02D0B3F5407F2FD1B0
:102CF000A36813B1B3F5805F4ED1E36913B1B3F5A7
:102D0000004F4FD194F83930002B51D0242384F850
:102D100039302268D36823F40053D3602046FFF78C
:102D2000EFFD2268136923F490431361226853690D
:102D300023F02A0353612268D36843F40053D3601D
:102D40000020E063202384F8393084F83A3010BD45
:102D500040F201111B4801F0A9FFC9E70368184AB6
:102D60009342C5D0A2F54C429342C1D002F5806295
:102D70009342BDD002F580629342B9D002F58062E1
:102D80009342B5D002F544429342B1D040F20511CE
:102D90000C4801F08BFFABE740F20711094801F046
:102DA00085FFAAE74FF48471064801F07FFFA9E789
:102DB00084F838302046FEF7CFFBA7E701207047A4
:102DC000001001409C60000830B583B090F83A4094
:102DD000E4B2202C3DD100293ED0002A3ED090F80C
:102DE0003830012B3CD013460A460446012180F8B6
:102DF0003810826283850025C563222180F83A104D
:102E0000416B1848C863616B17480864616B1748C9
:102E1000C864616B0D6521680431606B00F0D2FFFE
:102E2000019523681A6801925A680192019A84F800
:102E30003850DA6842F48072DA602268536943F0ED
:102E4000010353612268536943F0400353612846EC
:102E500000E0022003B030BD0120FBE70120F9E7CC
:102E60000220F7E7712E0008B12E0008BD2E0008E1
:102E700008B5836B0268126812F4807F13D10022B8
:102E8000DA851968CA6822F48072CA6019684A69CA
:102E900022F001024A6119684A6922F040024A613F
:102EA000202283F83A20184601F000FC08BD704744
:102EB00008B5806BFFF7FBFF08BD704710B5846B4A
:102EC00023685A6994F83930DBB2212B10D023687B
:102ED0005A6902F0400294F83A30DBB2222B11D04A
:102EE000E36B43F01003E3632046FFF7E6FF10BDFA
:102EF00002F08002002AEAD00023E3842046FFF794
:102F0000E7FCE4E7002AEBD00023E3852046FFF747
:102F1000E8FCE5E7002800F03C8270B582B004468A
:102F200003680F2B39D8236813F0010F4DD0636865
:102F30002BB1B3F5803F02D0B3F5A02F32D1A54B12
:102F40009B6803F00C03042B36D0A24B9B6803F064
:102F50000C03082B2BD06368B3F5803F5FD0B3F52B
:102F6000A02F62D09B4B1A6822F480321A601A6834
:102F700022F480221A606368002B60D001F060F9AF
:102F80000546944B1B6813F4003F1ED101F058F91D
:102F9000401B6428F5D9032000E2F8218E4801F097
:102FA00085FEC0E7FD218C4801F080FEC7E7894B14
:102FB0005B6813F4800FCED0864B1B6813F4003F80
:102FC00003D06368002B00F0E681236813F0020F42
:102FD00067D0E368012B41D823691F2B44D87D4B70
:102FE0009B6813F00C0F4AD07A4B9B6803F00C03DC
:102FF000082B3FD0E368002B77D0784B01221A6072
:1030000001F01EF90546734B1B6813F0020F63D1E4
:1030100001F016F9401B0228F5D90320BEE16D4AE4
:10302000136843F480331360A5E76A4B1A6842F4CF
:1030300080221A601A6842F480321A609BE701F01D
:10304000FFF80546634B1B6813F4003FBDD001F049
:10305000F7F8401B6428F5D903209FE140F22F11B7
:103060005D4801F023FEB7E74FF498715A4801F02C
:103070001DFEB4E7574B5B6813F4800FBAD1554B74
:103080001B6813F0020F04D0E368012B01D001206C
:1030900084E1504A136823F0F803216943EAC1032D
:1030A0001360236813F0080F49D06369012B2ED8F1
:1030B000636993B34A4B01221A6001F0C1F80546D7
:1030C000444B5B6F13F0020F39D101F0B9F8401B8C
:1030D0000228F5D9032061E13E4A136823F0F80382
:1030E000216943EAC1031360DBE73C4B00221A600D
:1030F00001F0A6F80546374B1B6813F0020FD0D03D
:1031000001F09EF8401B0228F5D9032046E14FF458
:10311000B871314801F0CAFDCAE7314B00221A608C
:1031200001F08EF805462B4B5B6F13F0020F06D0B3
:1031300001F086F8401B0228F5D903202EE1236810
:1031400013F0040F00F08780A368012B01D9052B31
:1031500038D1204B1B6C13F0805F39D100230193D1
:103160001C4B1A6C42F080521A641B6C03F08053A3
:103170000193019B01251B4B1B6813F4807F33D007
:10318000A368012B44D0052B48D0124B1A6F22F0B4
:1031900001021A671A6F22F004021A67A368002B53
:1031A00046D001F04DF806460A4B1B6F13F0020F94
:1031B0004FD101F045F8801B41F288339842F3D992
:1031C0000320EBE04FF4CE71034801F06FFDC0E740
:1031D0000025D0E700380240106100080000474297
:1031E000800E4742007000406E4A136843F48073BB
:1031F000136001F025F806466A4B1B6813F4807FC4
:10320000BED101F01DF8801B0228F5D90320C5E0CE
:10321000654A136F43F001031367BFE7624B1A6FF0
:1032200042F004021A671A6F42F001021A67B5E70A
:1032300001F006F806465C4B1B6F13F0020F08D036
:1032400000F0FEFF801B41F288339842F3D903203F
:10325000A4E0002D3BD1A369022B3ED8A369002B2B
:1032600000F09B80504A926802F00C02082A00F09D
:103270009780022B79D1E36913B1B3F5800F32D176
:10328000236A3F2B35D8636A323BB3F5BF7F36D80C
:10329000A36A022B05D0042B03D0062B01D0082BE8
:1032A00033D1E36A023B0D2B35D8404B00221A6024
:1032B00000F0C6FF05463C4B1B6813F0007F30D082
:1032C00000F0BEFF401B0228F5D9032066E0364A15
:1032D000136C23F080531364BDE740F2DF113448D0
:1032E00001F0E4FCBAE74FF4F471314801F0DEFC80
:1032F000C6E740F2E9112E4801F0D8FCC3E74FF4CD
:10330000F5712B4801F0D2FCC2E740F2EB112848DE
:1033100001F0CCFCC5E74FF4F671254801F0C6FC7E
:10332000C3E7E369226A1343626A43EA8213A26A2B
:103330005208013A43EA0243E26A43EA02631A4A44
:1033400053601A4B01221A6000F07AFF0446164BB4
:103350001B6813F0007F06D100F072FF001B0228EB
:10336000F5D903201AE0002018E0104B00221A6063
:1033700000F066FF04460C4B1B6813F0007F06D07C
:1033800000F05EFF001B0228F5D9032006E00020B4
:1033900004E001207047012000E0002002B070BD71
:1033A0000120FBE700700040003802406000474207
:1033B00010610008324B9B6803F00C03042B5CD0B7
:1033C000082B01D02F4870472DE9F04B2C4B5A6841
:1033D00002F03F025B6813F4800F2BD0284B5B6830
:1033E000C3F388131E4600275C010025E41A65EB31
:1033F0000705A90141EA9461A001001B61EB0501E9
:10340000CB0043EA5073C400A01943EB07014B0201
:1034100043EAD0534402204619460023FDF776FBC9
:10342000174B5B68C3F3014301335B00B0FBF3F060
:10343000BDE8F08B124B5B68C3F388131E46002770
:103440005C010025E41A65EB0705A90141EA9461D6
:10345000A001001B61EB0501CB0043EA5073C400DF
:10346000A01943EB07018B0243EA905384022046E4
:1034700019460023FDF74AFBD2E70348704700BF17
:10348000003802400024F40000127A00002800F006
:10349000F98070B504460D460368013B0E2B11D828
:1034A000072D15D8794B1B6803F00F03AB4215D2DB
:1034B000EBB2764A1370136803F00F03AB420DD0E2
:1034C000012070BD4FF41471714801F0EFFBE7E784
:1034D00040F251216E4801F0E9FBE3E7236813F065
:1034E000020F29D013F0040F04D06A4A936843F402
:1034F000E0539360236813F0080F04D0654A936883
:1035000043F460439360A3687BB1802B0DD0902B74
:103510000BD0A02B09D0B02B07D0C02B05D0D02BBF
:1035200003D0E02B01D0F02B33D15A4A936823F01B
:10353000F003A1680B439360236813F0010F42D09E
:103540006368032B2BD86368012B2ED09A1E012AA7
:1035500032D9504A126812F0020F00F095804D499E
:103560008A6822F0030213438B6000F069FE06466E
:10357000484B9B6803F00C036268B3EB820F22D0C8
:1035800000F05EFE801B41F288339842F0D90320A0
:1035900097E74FF41D713E4801F088FBC5E740F204
:1035A0007B213B4801F082FBCDE73A4A126812F4D6
:1035B000003FD4D1012084E7364A126812F0007F20
:1035C000CDD101207DE7314B1B6803F00F03AB42E7
:1035D00009D9EAB22D4B1A701B6803F00F03AB42F6
:1035E00001D001206DE7236813F0040F14D0E368C5
:1035F0005BB1B3F5805F08D0B3F5A05F05D0B3F53C
:10360000C05F02D0B3F5E05F30D1224A936823F463
:10361000E053E1680B439360236813F0080F15D063
:1036200023695BB1B3F5805F08D0B3F5A05F05D027
:10363000B3F5C05F02D0B3F5E05F1DD1154A9368C2
:1036400023F46043216943EAC1039360FFF7B2FEAC
:10365000104B9B68C3F303130F4AD35CD8400F4B46
:103660001860002000F0A0FD00202AE740F2B921F8
:10367000074801F01BFBC8E74FF43071044801F024
:1036800015FBDBE70120704701201AE7003C0240F0
:103690001061000800380240E06200080C000020C1
:1036A000014B1868704700BF0C00002008B5FFF7F9
:1036B000F7FF044B9B68C3F38223034AD35CD840D3
:1036C00008BD00BF00380240F062000808B5FFF7EF
:1036D000E7FF044B9B68C3F34233034AD35CD840F3
:1036E00008BD00BF00380240F06200082DE9F04735
:1036F00082B080460E46B64B984223D003F58063D5
:1037000098421FD003F5806398421BD003F5806375
:10371000984217D003F58063984213D003F5806375
:1037200098420FD003F5806398420BD003F5806375
:10373000984207D003F58063984203D0C321A5487F
:1037400001F0B4FA33689AB212B11B0C1B041BB11E
:10375000C421A04801F0AAFA7368012B1ED9112BCD
:103760001CD0022B1AD0122B18D09B4A934215D092
:1037700002F58012934211D002F5801293420DD0CF
:10378000A2F5F812934209D002F58012934205D0B7
:1037900002F58012934201D0032B04D1B368022BAF
:1037A00006D8002445E0C5218A4801F07FFAF5E7F4
:1037B000C621884801F07AFAF3E7EA21854801F04A
:1037C00075FA96E0072300E000238B4003430232A2
:1037D000824941F82230824B1A68FB4303EA020116
:1037E000706810F4803F01D047EA02017C4A116002
:1037F000526803EA0201706810F4003F01D047EA02
:103800000201774A5160926803EA0201706810F47D
:10381000801F01D047EA0201714A9160D2681340CB
:10382000716811F4001F01D047EA02036C4AD360AB
:1038300001340F2C00F2C9800125A54037682F40C4
:10384000BD42F5D17368022B01D0122B31D13369FF
:10385000FBB1092B1DD0012B1BD0022B19D0032B40
:1038600017D0042B15D0052B13D0062B11D0072B06
:103870000FD0082B0DD00A2B0BD00B2B09D00C2B03
:1038800007D00D2B05D00F2B03D0D721514801F0C5
:103890000DFAE208083258F8220004F007039900F4
:1038A0000F238B4020EA030033698B40034348F821
:1038B0002230D8F800204FEA440A4FF0030909FAF1
:1038C0000AF96FEA090909EA0202736803F00303BF
:1038D00003FA0AF31343C8F8003073685A1E012A2A
:1038E00003D9112B01D0122B18D1F368032B3FF60B
:1038F00064AFD8F8082009EA0202F36803FA0AF371
:103900001343C8F80830D8F8042022EA0502736887
:10391000C3F30015A5401543C8F80450D8F80C307F
:1039200009EA0309B36803FA0AF343EA0903C8F88A
:103930000C30736813F0805F3FF47AAF002301937B
:10394000284B5A6C42F480425A645B6C03F4804307
:103950000193019BA208911C204B53F8210004F015
:10396000030399000F238B4020EA0300184B98456E
:103970003FF42AAF03F5806398451AD003F58063BE
:10398000984518D003F58063984516D003F58063F9
:10399000984514D003F58063984512D003F58063F1
:1039A000984510D003F5806398453FF40BAF08238A
:1039B0000BE7012309E7022307E7032305E70423B5
:1039C00003E7052301E70623FFE602B0BDE8F08721
:1039D0000000024080610008000011100038014022
:1039E000003C01400038024070B5064615460C46C2
:1039F00029B1012D09D875B92404B46170BD40F214
:103A0000AF11064801F052F9F3E74FF4D8710348BB
:103A100001F04CF9EFE7B461F0E700BF8061000806
:103A200008B5054B5B69034200D108BD024B5861E4
:103A300000F032FEF9E700BF003C014030B40568F9
:103A40002C6824F480242C60046863608368402B15
:103A500005D0036899600368DA6030BC704703687A
:103A60009A600368D960F8E70268D3B2103B0B494B
:103A7000A1FB03131B090A49C95CC165032B06D8C6
:103A800022F47F7222F003028265806D704722F477
:103A90007F7222F0030204328265F6E7ABAAAAAA7B
:103AA00064620008836A826992B9012B0AD01BB153
:103AB000022B01D000207047C36A13F0807F2CD105
:103AC00000207047C36AB3F1C07F28D00020704740
:103AD000B2F5005F05D0022B29D9032B15D00020A9
:103AE0007047032B03D8DFE803F01C041C0A0020F6
:103AF0007047C36A13F0807F15D100207047C36AF6
:103B0000B3F1C07F11D000207047C36A13F0807FEB
:103B100001D001207047002070470120704701202C
:103B20007047012070470120704701207047012035
:103B30007047000070B5044600F082FB002C00F0D6
:103B40003881054623689C4A934231D0183293420B
:103B50002ED0183293422BD01832934228D01832EC
:103B6000934225D01832934222D0183293421FD06C
:103B7000183293421CD002F55672934218D0183274
:103B8000934215D01832934212D0183293420FD07C
:103B9000183293420CD01832934209D01832934213
:103BA00006D01832934203D0C821844801F07EF831
:103BB0006368A3B1B3F1007F11D0B3F1806F0ED071
:103BC000B3F1C06F0BD0B3F1006F08D0B3F1206F29
:103BD00005D0B3F1406F02D0B3F1606F6DD1A3682F
:103BE0001BB1402B01D0802B6CD1E368B3F5007F73
:103BF00001D0002B6BD12369B3F5806F01D0002B6E
:103C00006AD163692BB1B3F5006F02D0B3F5805F61
:103C100067D1A3692BB1B3F5005F02D0B3F5804F34
:103C200064D1E36923B1B3F5807F01D0202B62D149
:103C3000236A43B1B3F5803F05D0B3F5003F02D00E
:103C4000B3F5403F5CD1636A0BB1042B5DD1636A6D
:103C5000C3B1A36A032B5DD8E36A43B1B3F5000F88
:103C600005D0B3F1807F02D0B3F1C07F57D1236B71
:103C700043B1B3F5001F05D0B3F5800F02D0B3F503
:103C8000C00F51D1002384F83430022384F835303A
:103C90002268136823F00103136023681A6812F086
:103CA000010F46D000F0CCFA401B0528F5D920239F
:103CB0006365032084F8350070BDC9213F4800F0DA
:103CC000F5FF8CE7CA213D4800F0F0FF8DE7CB21DE
:103CD0003A4800F0EBFF8EE7CC21384800F0E6FFD1
:103CE0008FE7CD21354800F0E1FF92E7CE21334840
:103CF00000F0DCFF95E7CF21304800F0D7FF97E7D1
:103D0000D0212E4800F0D2FF9DE7D1212B4800F0B2
:103D1000CDFF9CE7D621294800F0C8FF9CE7D721BA
:103D2000264800F0C3FFA2E7D821244800F0BEFFD8
:103D3000A8E71A68224810406168A2680A43E1684F
:103D40000A4321690A4361690A43A1690A43E16997
:103D50000A43216A0A430243616A04291ED01A6099
:103D60002668756925F00705636A1D43042B07D192
:103D7000A36A1D43E36A1BB12046FFF793FE90B987
:103D800075612046FFF770FEE26D3F23934083602C
:103D900000206065012384F835308DE7E16A206BEF
:103DA00001430A43DBE740236365012084F83500C3
:103DB00082E7012080E700BF10600240F461000844
:103DC0003F8010F02DE9F04104460F4690461D4615
:103DD000866D5A1E4FF6FE739A4211D894F834300D
:103DE000012B3AD0012384F8343094F83530DBB21B
:103DF000012B0BD0002384F834300220BDE8F08181
:103E00004FF4EA71164800F051FFE7E7022384F807
:103E10003530002363652B46424639462046FFF77E
:103E20000DFEE26D3F239340B3602268136843F0B8
:103E3000160313602268536943F080035361236CB7
:103E400023B12268136843F00803136022681368E3
:103E500043F0010313600020D0E70220CEE700BF4B
:103E6000F4610008F0B583B0044600230193724B5F
:103E70001D68724BA3FB0535AD0A876D3E68C26DA8
:103E800008239340334210D003681A6812F0040FDD
:103E90000BD01A6822F004021A60C26D0823934006
:103EA000BB60436D43F001034365E26D0123934022
:103EB000334209D02268526912F0800F04D0BB60EF
:103EC000636D43F002036365E26D04239340334264
:103ED00009D02268126812F0020F04D0BB60636D33
:103EE00043F004036365E26D10239340334224D012
:103EF0002268126812F0080F1FD0BB6023681A688E
:103F000012F4802F0DD01B6813F4002F04D1236C02
:103F10009BB12046984710E0A36C73B120469847A8
:103F20000BE01A6812F4807F03D11A6822F00802AD
:103F30001A60236C0BB120469847E26D2023934012
:103F4000334255D02268126812F0100F50D0BB6077
:103F500094F83530DBB2052B0ED023681A6812F4C2
:103F6000802F33D01B6813F4002F2AD1636C002BF1
:103F70003ED0204698473BE02268136823F01603A2
:103F800013602268536923F080035361236CA3B14B
:103F90002268136823F008031360E26D3F23934007
:103FA000BB60002384F83430012384F83530236D5E
:103FB000002B3FD0204698473CE0A36C002BE7D174
:103FC000EBE7E36BA3B12046984711E01A6812F4BF
:103FD000807F09D11A6822F010021A60002384F849
:103FE0003430012384F83530E36B0BB12046984719
:103FF000636DFBB1636D13F0010F17D0052384F8D7
:1040000035302268136823F001031360019B0133EC
:104010000193AB4204D823681B6813F0010FF5D15C
:10402000002384F83430012384F83530E36C0BB17D
:104030002046984703B0F0BD0C000020B5814E1B10
:1040400010B50446C31E042B0FD80A4AD36823F4C4
:10405000E0631B041B0C240204F4E064234343F0DC
:10406000BF6343F40033D36010BDA221024800F0C7
:104070001DFEEAE700ED00E06C62000870B5054641
:104080000C4616460F2A25D80F2C28D81B4BDB6868
:10409000C3F30223C3F10702042A28BF0422191D17
:1040A000062921D9033B4FF0FF3101FA02F224EA3D
:1040B00002049C4001FA03F326EA03063443002D70
:1040C00014DB2401E4B205F1604505F5614585F88E
:1040D000004370BDBA210A4800F0E8FDD4E7BB21D7
:1040E000074800F0E3FDD1E70023DCE705F00F050A
:1040F0002401E4B2034B5C55EBE700BF00ED00E0A8
:104100006C62000814ED00E010B5041E08DB04F03A
:104110001F02640901239340044A42F8243010BD71
:10412000CE21034800F0C2FDF1E700BF00E100E04E
:104130006C6200080138B0F1807F0AD2064B5860EB
:10414000064AF02182F823100020986007221A60A6
:1041500070470120704700BF10E000E000ED00E074
:1041600010B50446042800D038B9042C0BD0094AF5
:10417000136823F00403136010BD40F2D911064800
:1041800000F094FDF1E7034A136843F00403136061
:10419000F2E700BF10E000E06C620008704708B56D
:1041A000FFF7FCFF08BD000010B504460E4B187861
:1041B0004FF47A73B3FBF0F30C4A1068B0FBF3F0E2
:1041C000FFF7B8FF68B90F2C01D901200AE00022DF
:1041D00021464FF0FF30FFF751FF054B1C600020D8
:1041E00000E0012010BD00BF040000200C000020F2
:1041F0000800002008B50B4B1A6842F400721A60E0
:104200001A6842F480621A601A6842F480721A6076
:104210000320FFF715FF0020FFF7C6FFFDF72CFA7C
:10422000002008BD003C0240034A1168034B1B7884
:104230000B441360704700BFC4040020040000203A
:10424000014B1868704700BFC40400200F49D1F823
:10425000883043F47003C1F888300D4B1A6842F07F
:1042600001021A60002098601A6822F0847222F419
:1042700080321A60074A5A601A6822F480221A6053
:10428000D8604FF000638B60704700BF00ED00E026
:104290000038024010300024DFF834D0002103E061
:1042A0000C4B5B58435004310B480C4B42189A425C
:1042B000F6D30B4A02E0002342F8043B094B9A4232
:1042C000F9D3FFF7C3FF00F013FE00F0A7FC70471F
:1042D000000002200C65000800000020780000208B
:1042E00078000020CC040020FEE7000010B5044652
:1042F000B0F5FA6F06D3064890FBF4F080B20138AF
:1043000080B210BD0D21034800F025FCF3E700BF8B
:1043100000BD0105F862000870B506460D4614465A
:104320004FF4FA50FFF7E2FF00FB04F0064B83FB6B
:1043300000230344C017C0EBE33033683433AD08C7
:1043400080B243F8250070BD0180008008B50A46A0
:10435000C1698069FFF7E0FF08BD000000000000B0
:1043600010B5044610EE100AFCF7F6F806A3D3E9E0
:104370000023FCF749F9FCF759FB81B22046FFF70F
:10438000E5FF10BDAFF30080DBB66DDBB6418D40BD
:1043900010B5044661B1012915D0002281898068D9
:1043A000FFF722FB0022A18A2069FFF71DFB10BD49
:1043B000012281898068FFF717FB0022A18A20690A
:1043C000FFF712FBF3E7002281898068FFF70CFBFF
:1043D0000122A18A2069FFF707FBE8E70368D3ED14
:1043E000097AB1EE677AB4EEC07AF1EE10FA07DC22
:1043F000F4EEC07AF1EE10FA09D40223037101E061
:1044000001230371B0EEC00A80ED020A7047002359
:104410000371F7E710B50446D0ED027AF5EEC07AE5
:10442000F1EE10FA09D421792068FFF7B1FF94ED7D
:10443000020A2068FFF794FF10BD4A21014800F0EE
:104440008AFBF0E7F862000838B52DED028B08EE24
:10445000101A03681B6A1B68586A00225A6200B26D
:10446000FCF768F80CA3D3E90023FCF7CDF8044669
:104470000D46F8EE487A17EE900AFCF76DF8024602
:104480000B4620462946FCF7E9F9FCF7EFFA00EE67
:10449000100ABDEC028B38BD3F355EBA492C19407D
:1044A000034B044A934201D0103BFAE7704700BF28
:1044B000EC000020AC00002070470000012800D074
:1044C000704708B54FF6FF73994200D008BD0D48FC
:1044D00000230360436083600B4A0C4900F0E7FB54
:1044E00003210B4B002906DB00221A605A609A60F8
:1044F00010330139F6E7044A0649002000F0D7FBE3
:10450000E4E700BF9800002000000020B944000844
:10451000AC000020A144000808B50122024903486C
:10452000FEF752FC08BD00BF9400002044040020A8
:1045300070B50546002412E0DFED167A05EB84061F
:10454000F8EEE77A17EE900AFCF706F80022124B15
:10455000FCF75AF8FCF78AFA30600134E4B2032C15
:1045600017D80E4B03EB04139B68002BE4D00B4AC7
:1045700002EB0411013B8B604B6803EBC403043373
:1045800002EB4303B3F9043007EE903A00234B608B
:10459000D4E770BD000000000000543FAC000020D4
:1045A000034B9B680BB9012070470020704700BF88
:1045B000AC0000202F4B1B7843B92F4B1B78A52B49
:1045C00000D070472B4B01221A7070472A4B187885
:1045D0002A4B9A6801329A601A68511C1A44107367
:1045E00001F007011960264A13780133DBB213701A
:1045F000082BE6D1002313701E4A1370032BE0D85A
:1046000030B416E0002222E0002515441D491801AF
:104610000A189468013494600A5802EBC302043209
:1046200001EB4202958000220A500133DBB2032BDA
:104630001ED8124A9268002AE4D01049013A8A60D2
:104640004A68501C0A44127B00F0070048601202BE
:1046500012B20A4989680029D6D008480139816018
:1046600041684C1C01440D7B04F007044460CCE716
:1046700030BC7047ED00002094000020980000201E
:10468000EC000020AC00002008B54FF6FF710120BF
:10469000FFF714FF08BD0000B0F5804F02D1024BB8
:1046A00001221A70704700BF6002002008B502683E
:1046B000034B9A4200D008BDFFF77CFFFBE700BF29
:1046C0000048004010B40023032B0BDC29489A005B
:1046D0001A44D10042184354274951602749916137
:1046E0000133F1E7234A2649916008209081116146
:1046F000022393820023D361224C146211634FF48E
:1047000080449486916320249487042454641E4C2E
:10471000946491658024A2F85C4011664FF40041D6
:10472000A2F86410D066194911671949C2F88010BF
:104730004FF48050A2F88400C2F888104FF48061D2
:10474000A2F88C100C21C2F894101249C2F89810EB
:10475000032B0CD803EB8302D100064A0A4403EB77
:10476000430081000C4842500133DBB2F0E75DF8B2
:10477000044B7047F00000204C37893DB802002000
:10478000000C0240A8030020300300206C0300202E
:1047900000080240F402002090010020034B044A6C
:1047A000934201D00C3BFAE7704700BFC0010020E4
:1047B00090010020012800D0704708B54FF6FF7324
:1047C000994200D008BD0323064A002B04DB0021D8
:1047D00042F80C1B013BF8E7034A0449002000F0B3
:1047E00066FAEFE790010020000000209D470008D6
:1047F00010B5FFF767FFFFF78FFE00F0FDF81348D5
:10480000FDF7C6FA124C0021A069FDF799FE0421BC
:10481000206CFDF795FE0821A06EFDF791FE0C219E
:10482000D4F89000FDF78CFE1821206AFDF7FEFEFB
:104830001821A06CFDF7FAFE1821206FFDF7F6FE97
:104840001821D4F89800FDF7F1FE10BDB802002041
:10485000F000002008B54FF6FF710120FFF7AAFF16
:1048600008BD704707EE901AF8EE676ADFED217A0F
:1048700086EEA77A90ED016AD0ED025AD0ED037A68
:10488000C7EE876A76EE867A27EE257A37EE467A85
:1048900036EEA66A37EE467A67EE807A90ED076AC2
:1048A00026EE077A77EE877A90ED087A67EE266A29
:1048B00077EEA67A90ED067A77EE877AC0ED067AE3
:1048C00090ED047AF4EEC77AF1EE10FA09DC90ED7F
:1048D000057AF4EEC77AF1EE10FA04D580ED067A87
:1048E00001E080ED067A80ED086A80ED070A90ED20
:1048F000060A704700007A4410B5054C054B9C42EF
:1049000005D054F8243D5B6820469847F6E710BD73
:1049100050020020C0010020034B044A934201D002
:10492000043BFAE7704700BF6002002050020020FD
:10493000012800D0704708B54FF6FF73994200D0A8
:1049400008BD03210F4B00290BDB00225A609A603F
:10495000DA600D4818609A61DA611A62243301390D
:10496000F1E70A4A0A49002000F0A1F90323002BCD
:1049700001DB013BFBE7054A0649002000F097F9FF
:10498000DEE700BFC00100204C63000800000020EB
:10499000F94800081949000810B50446242100F020
:1049A0008BF9204610BD000038B50546FFF7F8FD2D
:1049B00000B138BD2846FFF7BBFD0024032C11D8F9
:1049C00005EB8403D3ED007A9FED087A67EE877AD2
:1049D000FDEEE77A17EE901A054800F065FB01340A
:1049E000E4B2EBE70A2000F077FBE2E700007A444C
:1049F00058630008000000002DE9F0472A4B1868B2
:104A0000FBF7AAFD8046894621A3D3E90023FBF7E3
:104A1000FBFDFCF72BF88246244C254B6360A0601D
:104A20000027E760234E2661234D65611AA3D3E971
:104A3000002340464946FBF7E7FDFCF717F81F4BFC
:104A4000A362E06227636663A5631D4BE364C4F859
:104A500050A06765A665E56511A3D3E9002340462C
:104A60004946FBF7D1FDFCF701F8164B2367606759
:104A7000A767E667C4F88050134B1C6004F124025A
:104A80005A6004F148029A606C34DC60BDE8F0873B
:104A90009A9999999919244075931804560E2340B0
:104AA000F6285C8FC2751E4010000020C001002057
:104AB0009C33223F0000C0410000C0C10BB5063F3F
:104AC00036CD3B3F48E1FA3E50020020F8B507469C
:104AD0000E460024032C23D804EB44039D00174BFF
:104AE0001D4431462846FFF7AFFC07EB8403D3EDA6
:104AF000007A134B53F8240003681B68314637EEE5
:104B0000C00A9847DFED0F7A20EE270AF3EE087A05
:104B100080EE270A2846FFF761FC0134E4B2D9E7AA
:104B20000024032C09D804EB4402930003481844E2
:104B3000FFF770FC0134E4B2F3E7F8BD9001002008
:104B40005002002000008C4208B54FF6FF71012092
:104B5000FFF7EEFE08BDFEE700B595B0002101911C
:104B60002A4B1A6C42F080521A641B6C03F080537B
:104B70000193019B0291264B1A6842F480421A600D
:104B80001B6803F480430293029B012308934FF4B4
:104B90008033099302220E924FF480030F93042373
:104BA0001093A82111911292139308A8FEF7B2F95D
:104BB00020BB0F23039302230493002305934FF498
:104BC000A05306934FF480530793052103A8FEF7E3
:104BD0005DFCB8B9FEF764FD0E4BA3FB0030800905
:104BE000FFF7A8FA0420FFF7BBFA002211464FF0A6
:104BF000FF30FFF743FA15B05DF804FBC421064807
:104C0000FFF7A9FFD1210448FFF7A5FF00380240B4
:104C100000700040D34D62106063000830B585B06D
:104C2000FFF7E8FAFFF798FFFCF71EF9FCF72CFAFC
:104C3000FCF7B2FAFCF77AFAFCF740FAFCF7E2FA72
:104C4000FCF7D2FBFCF74CFCFCF768FCFCF7C0F966
:104C5000FFF7CEFD144800F0AFFA00230093019354
:104C600002930393FFF7ECFA0446FFF7E9FA0546CF
:104C7000FFF7E6FAFFF7E4FA401B0C280CD8FFF721
:104C8000DFFA001B0A28F5D9FFF7DAFA04460A21F1
:104C90006846FFF71BFFEDE7FFF7D2FA05466846C7
:104CA000FFF782FEEBE700BF7463000870470B4616
:104CB0000146184600F00EB900F00AB910B5034BD2
:104CC0000360044600F0B2F8204610BDC06300083F
:104CD00010B50446FFF7F2FF20460C21FFF7ECFF6A
:104CE000204610BD2DE9F041069E964207468846B3
:104CF00015461C460AD0B868036806961E6A2A46FE
:104D000023464146B446BDE8F0416047194600F0ED
:104D100057F80028EFD00620BDE8F0812DE9F14FCB
:104D20000E461946834617469946DDE90A4ADDE9EB
:104D30000C8500F045F890B1002E2C602F7109DB36
:104D40003444A0450CBF06240124AC71002001B0FE
:104D5000BDE8F08F0236F9D10123AB71F6E7444587
:104D600006D15146584600F02BF808B16F71EDE7B7
:104D7000DBF808000368CDE90C85CDE90A4ADC6957
:104D80003A464B463146A44601B0BDE8F04F604775
:104D90002DE9F04104460D4616461F4600F077F80F
:104DA00048B9A06803689C6932463B462946A44638
:104DB000BDE8F0416047BDE8F081704700207047D2
:104DC000814208B50ED0406803782A2B0CD0496880
:104DD0000B782A2B08BF0131FBF7FAF9B0FA80F003
:104DE000400908BD0120FCE70020FAE77FB5002458
:104DF0001023CDE902340368009415469E698DF8AE
:104E000004406B461268B0479DF8043003F0060377
:104E1000062B03BF009B2B600120204604B070BD11
:104E2000009890420CBF06200120704710B5034B3C
:104E300003600446FFF7C1FF204610BD346400083C
:104E400010B50446FFF7F2FF20460821FFF734FFB4
:104E5000204610BD2DE9F0419846DDE90834069E54
:104E60009E420746154607D10799FFF7A9FF18B1DB
:104E700065710020BDE8F08141463846FFF7A0FF8C
:104E80000028F6D0012326602571A371F1E738B51B
:104E900015461C46FFF794FF20B10823E360062364
:104EA0002560237138BD2DE9F04105460C461646B4
:104EB0001F46FFF785FF48B9032F07D823683246FE
:104EC000294620465B69BDE8F0411847BDE8F081FE
:104ED00000F032B810B5054C13462CB10A46014615
:104EE0000220AFF3008010BD2046FCE70000000068
:104EF00070B50D4E0D4CA41BA4100025A54209D180
:104F00000B4E0C4C00F0EEFFA41BA4100025A54294
:104F100005D170BD56F8253098470135EEE756F8B3
:104F2000253098470135F2E7F8640008F864000876
:104F3000F864000808650008024B0146186800F094
:104F40000BB800BF1400002002440346934200D176
:104F5000704703F8011BF9E738B50546002945D02D
:104F600051F8043C0C1F002BB8BFE41800F0DAFB2A
:104F70001F4A1368104633B9636014602846BDE8C1
:104F8000384000F0D0BBA3420CD92168621893428C
:104F900004BF1A685B68636004BF52182260046033
:104FA000ECE713465A680AB1A242FAD919685818B0
:104FB000A0420BD120680144581882421960DDD10B
:104FC000106852685A6001441960D7E702D90C236F
:104FD0002B60D3E7206821188A4204BF1168526809
:104FE000626004BF091821605C60C7E738BD00BF7C
:104FF0006402002070B5CD1C25F0030508350C2D8A
:1050000038BF0C25002D064601DBA94203D90C232D
:105010003360002070BD00F085FB214A14682146F2
:1050200091B9204C23681BB9304600F0CDF82060C0
:105030002946304600F0C8F8431C24D10C233360C5
:10504000304600F070FBE4E70B685B1B18D40B2BB9
:105050000FD90B60CD50CC18304600F064FB04F142
:105060000B00231D20F00700C31AD3D05A42E25090
:10507000D0E78C424B6816BF636013600C46EBE7C9
:105080000C464968CCE7C41C24F00304A04205D0B8
:10509000211A304600F098F80130CFD02560DBE7C8
:1050A00064020020680200200FB40A4B13B51C688C
:1050B00024B1A36913B9204600F046FA05AB049A5F
:1050C000A1680193204600F059FB02B0BDE81040F2
:1050D00004B070471400002038B5084B1C68054622
:1050E00024B1A36913B9204600F02EFAA26829461C
:1050F0002046BDE8384000F0DDBD00BF14000020B0
:1051000070B50E46054618B183690BB900F01CFA5C
:10511000AB69AC6813B9284600F016FA234B9C42E1
:1051200017D16C68A3891B071DD52369DBB1013E2C
:10513000A36816F8011F013BA360E9B9002B2EDA22
:1051400022460A21284600F04FF8013011D00A20EB
:1051500011E0174B9C4201D1AC68E3E7154B9C4230
:1051600008BFEC68DEE72146284600F08FF80028EB
:10517000DDD04FF0FF3070BD002B04DAA2699A42F7
:1051800006DC0A2904D023685A1C22601970CFE774
:105190002246284600F028F80130C9D1E9E7236803
:1051A0000A205A1C22601870E5E700BF7C640008E2
:1051B0009C6400085C640008024B01461868FFF715
:1051C0009FBF00BF1400002038B5064C00230546E1
:1051D0000846236000F078FE431C02D1236803B127
:1051E0002B6038BDC8040020F8B50E4614460546AD
:1051F00018B183690BB900F0A7F9214B9C422AD161
:105200006C68A369A360A3891A072ED5236963B3C9
:1052100023692068C01A6369F6B28342374604DC0A
:105220002146284600F026F928BBA368013BA3606D
:1052300023685A1C22601E7063690130834204D0C7
:10524000A389DB0719D50A2E17D12146284600F07D
:1052500011F990B10FE00B4B9C4201D1AC68D0E743
:10526000094B9C4208BFEC68CBE72146284600F07A
:105270000DF80028CCD04FF0FF373846F8BD00BFFE
:105280007C6400089C6400085C640008324B70B5C4
:105290001D6806460C4625B1AB6913B9284600F0D7
:1052A00053F92E4B9C420FD16C68B4F90C309AB272
:1052B00015072CD4D00611D40922326043F04003E4
:1052C000A3814FF0FF303EE0254B9C4201D1AC68FA
:1052D000EBE7244B9C4208BFEC68E6E7510712D588
:1052E000616B41B104F14403994202D03046FFF7AB
:1052F00033FE00236363A38923F02403A3810023E7
:10530000636023692360A38943F00803A3812369B1
:105310004BB9A38903F42073B3F5007F03D0214672
:10532000304600F0BFF9A28912F001030CD000232F
:10533000A36063695B42A361236953B9B4F90C307C
:1053400013F08000BAD170BD920758BF6369A360A3
:10535000F2E70020F7E700BF140000207C6400089B
:105360009C6400085C6400088A892DE9F0410546C8
:1053700010070C4658D44B68002B05DC0B6C002B37
:1053800002DC0020BDE8F081E66A002EF9D000239F
:1053900012F480522F68216A2B6032D0606DA3898D
:1053A0005A0705D56368C01A636B0BB1236CC01A2A
:1053B00000230246E66A216A2846B047431CA389B7
:1053C00006D129681D2948D8294ACA40D60744D59C
:1053D00000226260D9042269226004D5421C01D1F6
:1053E0002B6803B96065616B2F600029C9D004F197
:1053F0004403994202D02846FFF7AEFD00206063C7
:10540000C0E701232846B047411CC8D12B68002BB8
:10541000C5D01D2B01D0162B01D12F60B1E7A38978
:1054200043F04003A381ADE70F69002FA9D0930794
:105430000E6808BF4B690F6018BF0023A6EB070872
:105440008B60B8F1000F9CDD43463A46216AA66A9C
:105450002846B047002806DCA38943F04003A38117
:105460004FF0FF308EE70744A8EB0008E9E700BFE4
:105470000100402038B50B6905460C46DBB118B178
:1054800083690BB900F060F80C4B9C4209D16C6841
:10549000B4F90C307BB121462846BDE83840FFF70F
:1054A00063BF074B9C4201D1AC68F1E7054B9C42BE
:1054B00008BFEC68ECE7002038BD00BF7C64000842
:1054C0009C6400085C640008002310B50446C0E931
:1054D0000033836081814366C281C0E90433836104
:1054E000194608225C30FFF72FFD054B6362054B20
:1054F000A362054BE362054B2462236310BD00BF2A
:10550000215D0008435D00087B5D00089F5D000889
:10551000014900F085B800BF7554000870B54A1EF7
:10552000682555430E4605F17401FFF763FD0446F7
:1055300040B10021C0E900160C30A06005F16802FE
:10554000FFF702FD204670BD836910B5044633BBEA
:10555000C0E912330365124B124A1B6882629842FB
:1055600004BF0123836100F01FF86060204600F053
:105570001BF8A060204600F017F80022E06004212C
:105580006068FFF7A1FF01220921A068FFF79CFFD7
:1055900002221221E068FFF797FF0123A36110BDEB
:1055A0005864000811550008F8B51B4B1E68B36914
:1055B000074613B93046FFF7C7FF4836D6E901342E
:1055C000013B03D5336833B13668F7E7B4F90C50C3
:1055D0006DB16834F4E704213846FFF79FFF30606F
:1055E0000028F1D10C233B6004462046F8BD0B4B4C
:1055F0006566C4E90055A560C4E90335C4E90555ED
:105600000822294604F15C00FFF79EFCC4E90D5511
:10561000C4E91255E9E700BF586400080100FFFF24
:105620002DE9F8438046894600F14804002614B964
:105630003046BDE8F883D4E90175013F01D52468FF
:10564000F5E7AB89012B07D9B5F90E30013303D04B
:1056500029464046C84706436835EEE770B50E4612
:10566000B1F90E10002996B014461D4607DA002342
:105670002B60B3891A0610D44FF480630EE06A469B
:1056800000F0B4FB0028F2DB019A02F47042A2F5AC
:1056900000535A425A412A60EEE74023002023601B
:1056A00016B070BD8B8973B59D0706460C4607D5AD
:1056B00004F14703236023610123636102B070BDDD
:1056C00001AB6A46FFF7CAFF009905463046FFF76F
:1056D00091FC48B9B4F90C309A05EFD423F00303D8
:1056E00043F00203A381E3E70D4BB362A38920607B
:1056F00043F08003A381009B6361019B20615BB148
:10570000B4F90E10304600F083FB28B1A38923F0D2
:10571000030343F00103A381A3891D43A581CDE7C2
:1057200011550008704770479368013B002B10B477
:10573000936008DA9469A34201DB0A2903D15DF87A
:10574000044BFFF751BD1368581C106019700846D0
:105750005DF8044B7047F8B506460F461446D51859
:10576000AC4201D1002007E03A4614F8011B304654
:10577000FFF7DAFF431CF3D1F8BD00002DE9F04F2D
:105780009DB00C4617460393064618B183690BB9C2
:10579000FFF7DAFE7B4B9C4257D17468A389180748
:1057A0005DD52369002B5AD00023099320238DF85F
:1057B000293030238DF82A304FF0010BB84645468A
:1057C00015F8013B0BB1252B54D1B8EB070A0BD0D0
:1057D00053463A4621463046FFF7BDFF013000F000
:1057E000C280099B5344099398F80030002B00F0C5
:1057F000BA8000234FF0FF32CDE9052304930793CD
:105800008DF853301A93A846052218F8011B5E48FC
:10581000FAF7EEFC049B78BBD90644BF20228DF832
:1058200053201A0744BF2B228DF853202A782A2AA6
:105830002AD0079AA84600200A25414611F8013BC4
:10584000303B092B69D960B324E0504B9C4201D115
:10585000B468A3E74E4B9C4208BFF4689EE721461C
:105860003046FFF713FD00289ED04FF0FF301DB0EB
:10587000BDE8F08FA846A2E7434A801A0BFA00F071
:10588000184304904546BEE7039A111D1268039120
:10589000002A01DB079204E0524243F00203079220
:1058A000049398F800302E2B0ED198F801302A2B53
:1058B00038D1039B1A1D1B680392002BB8BF4FF011
:1058C000FF3308F102080593324D98F800100322C7
:1058D0002846FAF78DFC40B14023401B03FA00F044
:1058E000049B034308F10108049398F800102A4828
:1058F0008DF82810062208F10107FAF779FC002834
:1059000037D0264B1BBB039B073323F00703083319
:105910000393099B4B44099350E705FB0232012096
:1059200088468AE7002308F10108059319460A25ED
:10593000404610F8012B303A092A03D9002BC3D076
:105940000591C1E705FB012101238046F0E703AB88
:1059500000932246124B04A93046AFF30080B0F109
:10596000FF3F8146D5D1A3895B063FF57EAF0998FD
:105970007DE703AB00932246094B04A9304600F0B3
:1059800087F8ECE77C640008BC6400089C640008AD
:105990005C640008C2640008C664000800000000DF
:1059A000575700082DE9F04791461F468A680B6952
:1059B000DDF820809342B8BF1346C9F8003091F853
:1059C000432006460C4612B10133C9F80030236863
:1059D000990642BFD9F800300233C9F80030256873
:1059E00015F0060507D104F1190AE368D9F800207B
:1059F0009B1AAB4228DC94F843302268003318BF6E
:105A0000012392062DD404F1430239463046C047A3
:105A1000013020D02368E568D9F8002003F00603A0
:105A2000042B08BFAD1AA36822690CBF25EAE575EF
:105A300000259342C4BF9B1AED184FF000091A3499
:105A40004D451AD1002008E0012352463946304620
:105A5000C047013003D14FF0FF30BDE8F08701357A
:105A6000C3E7E1185A1C302081F84300224494F81F
:105A7000451082F843100233C5E701232246394618
:105A80003046C0470130E6D009F10109D8E70000EF
:105A90002DE9F04301F1430C0C46097E85B06E29D7
:105AA0001746064698460C9A00F0B38022D8632920
:105AB00036D00AD8002900F0B980582900F0838038
:105AC00004F1420584F8421032E0642901D06929CA
:105AD000F6D120681368050603F104012AD51B6876
